{
  "_format": "hh-sol-artifact-1",
  "contractName": "FRDBetting",
  "sourceName": "contracts/FRDBetting.sol",
  "abi": [
    {
      "inputs": [
        {
          "internalType": "address",
          "name": "_FifaRewardTokenAddress",
          "type": "address"
        }
      ],
      "stateMutability": "nonpayable",
      "type": "constructor"
    },
    {
      "inputs": [],
      "name": "AccountNotRegistered",
      "type": "error"
    },
    {
      "inputs": [],
      "name": "BetClosed",
      "type": "error"
    },
    {
      "inputs": [],
      "name": "InvalidAmount",
      "type": "error"
    },
    {
      "inputs": [],
      "name": "ReentrancyGuardReentrantCall",
      "type": "error"
    },
    {
      "inputs": [],
      "name": "Unauthorized",
      "type": "error"
    },
    {
      "inputs": [],
      "name": "betParticipantComplete",
      "type": "error"
    },
    {
      "inputs": [],
      "name": "priceMustBeGreaterThanZero",
      "type": "error"
    },
    {
      "inputs": [],
      "name": "referralAlreadyExits",
      "type": "error"
    },
    {
      "inputs": [],
      "name": "sponsorMustHaveActiveBetToRefer",
      "type": "error"
    },
    {
      "anonymous": false,
      "inputs": [
        {
          "indexed": true,
          "internalType": "uint256",
          "name": "refId",
          "type": "uint256"
        },
        {
          "indexed": false,
          "internalType": "uint256",
          "name": "sponsorUserId",
          "type": "uint256"
        },
        {
          "indexed": false,
          "internalType": "uint256",
          "name": "referralUserId",
          "type": "uint256"
        },
        {
          "indexed": false,
          "internalType": "address",
          "name": "referral",
          "type": "address"
        },
        {
          "indexed": false,
          "internalType": "address",
          "name": "sponsor",
          "type": "address"
        },
        {
          "indexed": false,
          "internalType": "address[]",
          "name": "referrals",
          "type": "address[]"
        }
      ],
      "name": "AddReferral",
      "type": "event"
    },
    {
      "anonymous": false,
      "inputs": [
        {
          "indexed": true,
          "internalType": "address",
          "name": "betopener",
          "type": "address"
        },
        {
          "indexed": false,
          "internalType": "address",
          "name": "participant",
          "type": "address"
        },
        {
          "indexed": false,
          "internalType": "string",
          "name": "username",
          "type": "string"
        },
        {
          "indexed": false,
          "internalType": "uint256",
          "name": "betamount",
          "type": "uint256"
        },
        {
          "indexed": false,
          "internalType": "uint256",
          "name": "betId",
          "type": "uint256"
        },
        {
          "indexed": false,
          "internalType": "string",
          "name": "matchd",
          "type": "string"
        },
        {
          "indexed": false,
          "internalType": "string",
          "name": "prediction",
          "type": "string"
        },
        {
          "indexed": false,
          "internalType": "string",
          "name": "bettingteam",
          "type": "string"
        },
        {
          "indexed": false,
          "internalType": "string",
          "name": "creationtype",
          "type": "string"
        }
      ],
      "name": "BetEvent",
      "type": "event"
    },
    {
      "anonymous": false,
      "inputs": [
        {
          "indexed": true,
          "internalType": "uint256",
          "name": "userId",
          "type": "uint256"
        },
        {
          "indexed": false,
          "internalType": "bool",
          "name": "registered",
          "type": "bool"
        },
        {
          "indexed": false,
          "internalType": "bool",
          "name": "wasReferred",
          "type": "bool"
        },
        {
          "indexed": false,
          "internalType": "address",
          "name": "walletaddress",
          "type": "address"
        }
      ],
      "name": "RegisterUser",
      "type": "event"
    },
    {
      "inputs": [],
      "name": "FifaRewardTokenContract",
      "outputs": [
        {
          "internalType": "contract IERC20",
          "name": "",
          "type": "address"
        }
      ],
      "stateMutability": "view",
      "type": "function"
    },
    {
      "inputs": [
        {
          "internalType": "uint256",
          "name": "betamount",
          "type": "uint256"
        },
        {
          "internalType": "uint256",
          "name": "matchId",
          "type": "uint256"
        },
        {
          "internalType": "string",
          "name": "username",
          "type": "string"
        },
        {
          "internalType": "uint256",
          "name": "_betId",
          "type": "uint256"
        },
        {
          "internalType": "address",
          "name": "betopener",
          "type": "address"
        },
        {
          "internalType": "string",
          "name": "matchfixture",
          "type": "string"
        },
        {
          "internalType": "string",
          "name": "prediction",
          "type": "string"
        },
        {
          "internalType": "string",
          "name": "bettingteam",
          "type": "string"
        },
        {
          "internalType": "uint256",
          "name": "totalbetparticipantscount",
          "type": "uint256"
        },
        {
          "internalType": "uint256",
          "name": "remainingparticipantscount",
          "type": "uint256"
        }
      ],
      "name": "OpenBet",
      "outputs": [],
      "stateMutability": "nonpayable",
      "type": "function"
    },
    {
      "inputs": [
        {
          "internalType": "address",
          "name": "_sponsor",
          "type": "address"
        },
        {
          "internalType": "uint256",
          "name": "_refbonus",
          "type": "uint256"
        }
      ],
      "name": "addReferrer",
      "outputs": [],
      "stateMutability": "nonpayable",
      "type": "function"
    },
    {
      "inputs": [
        {
          "internalType": "uint256",
          "name": "_betId",
          "type": "uint256"
        }
      ],
      "name": "closeBet",
      "outputs": [],
      "stateMutability": "nonpayable",
      "type": "function"
    },
    {
      "inputs": [
        {
          "internalType": "uint256",
          "name": "_betamount",
          "type": "uint256"
        }
      ],
      "name": "filterByAmount",
      "outputs": [
        {
          "components": [
            {
              "internalType": "uint256",
              "name": "betId",
              "type": "uint256"
            },
            {
              "internalType": "uint256",
              "name": "matchId",
              "type": "uint256"
            },
            {
              "internalType": "string",
              "name": "username",
              "type": "string"
            },
            {
              "internalType": "string",
              "name": "matchfixture",
              "type": "string"
            },
            {
              "internalType": "address",
              "name": "openedBy",
              "type": "address"
            },
            {
              "internalType": "address",
              "name": "participant",
              "type": "address"
            },
            {
              "internalType": "uint256",
              "name": "betamount",
              "type": "uint256"
            },
            {
              "internalType": "uint256",
              "name": "totalbetparticipantscount",
              "type": "uint256"
            },
            {
              "internalType": "uint256",
              "name": "remainingparticipantscount",
              "type": "uint256"
            },
            {
              "internalType": "string",
              "name": "prediction",
              "type": "string"
            },
            {
              "internalType": "string",
              "name": "bettingteam",
              "type": "string"
            },
            {
              "internalType": "string",
              "name": "betstatus",
              "type": "string"
            },
            {
              "internalType": "address[]",
              "name": "participants",
              "type": "address[]"
            },
            {
              "internalType": "address[]",
              "name": "betwinners",
              "type": "address[]"
            },
            {
              "internalType": "address[]",
              "name": "betlosers",
              "type": "address[]"
            }
          ],
          "internalType": "struct FRDBetting.Bets[]",
          "name": "",
          "type": "tuple[]"
        }
      ],
      "stateMutability": "view",
      "type": "function"
    },
    {
      "inputs": [
        {
          "internalType": "string",
          "name": "status",
          "type": "string"
        }
      ],
      "name": "filterByBetStatus",
      "outputs": [
        {
          "components": [
            {
              "internalType": "uint256",
              "name": "betId",
              "type": "uint256"
            },
            {
              "internalType": "uint256",
              "name": "matchId",
              "type": "uint256"
            },
            {
              "internalType": "string",
              "name": "username",
              "type": "string"
            },
            {
              "internalType": "string",
              "name": "matchfixture",
              "type": "string"
            },
            {
              "internalType": "address",
              "name": "openedBy",
              "type": "address"
            },
            {
              "internalType": "address",
              "name": "participant",
              "type": "address"
            },
            {
              "internalType": "uint256",
              "name": "betamount",
              "type": "uint256"
            },
            {
              "internalType": "uint256",
              "name": "totalbetparticipantscount",
              "type": "uint256"
            },
            {
              "internalType": "uint256",
              "name": "remainingparticipantscount",
              "type": "uint256"
            },
            {
              "internalType": "string",
              "name": "prediction",
              "type": "string"
            },
            {
              "internalType": "string",
              "name": "bettingteam",
              "type": "string"
            },
            {
              "internalType": "string",
              "name": "betstatus",
              "type": "string"
            },
            {
              "internalType": "address[]",
              "name": "participants",
              "type": "address[]"
            },
            {
              "internalType": "address[]",
              "name": "betwinners",
              "type": "address[]"
            },
            {
              "internalType": "address[]",
              "name": "betlosers",
              "type": "address[]"
            }
          ],
          "internalType": "struct FRDBetting.Bets[]",
          "name": "",
          "type": "tuple[]"
        }
      ],
      "stateMutability": "view",
      "type": "function"
    },
    {
      "inputs": [
        {
          "internalType": "uint256",
          "name": "_betId",
          "type": "uint256"
        }
      ],
      "name": "getBetDetails",
      "outputs": [
        {
          "components": [
            {
              "internalType": "uint256",
              "name": "betId",
              "type": "uint256"
            },
            {
              "internalType": "uint256",
              "name": "matchId",
              "type": "uint256"
            },
            {
              "internalType": "string",
              "name": "username",
              "type": "string"
            },
            {
              "internalType": "string",
              "name": "matchfixture",
              "type": "string"
            },
            {
              "internalType": "address",
              "name": "openedBy",
              "type": "address"
            },
            {
              "internalType": "address",
              "name": "participant",
              "type": "address"
            },
            {
              "internalType": "uint256",
              "name": "betamount",
              "type": "uint256"
            },
            {
              "internalType": "uint256",
              "name": "totalbetparticipantscount",
              "type": "uint256"
            },
            {
              "internalType": "uint256",
              "name": "remainingparticipantscount",
              "type": "uint256"
            },
            {
              "internalType": "string",
              "name": "prediction",
              "type": "string"
            },
            {
              "internalType": "string",
              "name": "bettingteam",
              "type": "string"
            },
            {
              "internalType": "string",
              "name": "betstatus",
              "type": "string"
            },
            {
              "internalType": "address[]",
              "name": "participants",
              "type": "address[]"
            },
            {
              "internalType": "address[]",
              "name": "betwinners",
              "type": "address[]"
            },
            {
              "internalType": "address[]",
              "name": "betlosers",
              "type": "address[]"
            }
          ],
          "internalType": "struct FRDBetting.Bets[]",
          "name": "",
          "type": "tuple[]"
        }
      ],
      "stateMutability": "view",
      "type": "function"
    },
    {
      "inputs": [
        {
          "internalType": "uint256",
          "name": "betId",
          "type": "uint256"
        }
      ],
      "name": "getBetParticipants",
      "outputs": [
        {
          "internalType": "address[]",
          "name": "",
          "type": "address[]"
        }
      ],
      "stateMutability": "view",
      "type": "function"
    },
    {
      "inputs": [
        {
          "internalType": "uint256",
          "name": "_betId",
          "type": "uint256"
        }
      ],
      "name": "getBetWinners",
      "outputs": [
        {
          "internalType": "address[]",
          "name": "",
          "type": "address[]"
        }
      ],
      "stateMutability": "view",
      "type": "function"
    },
    {
      "inputs": [
        {
          "internalType": "address",
          "name": "_useraddress",
          "type": "address"
        }
      ],
      "name": "getUserBetCount",
      "outputs": [
        {
          "internalType": "uint256",
          "name": "",
          "type": "uint256"
        }
      ],
      "stateMutability": "view",
      "type": "function"
    },
    {
      "inputs": [
        {
          "internalType": "address",
          "name": "_useraddress",
          "type": "address"
        }
      ],
      "name": "getUserId",
      "outputs": [
        {
          "internalType": "uint256",
          "name": "",
          "type": "uint256"
        }
      ],
      "stateMutability": "view",
      "type": "function"
    },
    {
      "inputs": [
        {
          "internalType": "address",
          "name": "_useraddress",
          "type": "address"
        }
      ],
      "name": "getUserRefCount",
      "outputs": [
        {
          "internalType": "uint256",
          "name": "",
          "type": "uint256"
        }
      ],
      "stateMutability": "view",
      "type": "function"
    },
    {
      "inputs": [
        {
          "internalType": "address",
          "name": "_useraddress",
          "type": "address"
        }
      ],
      "name": "getuserRefBonus",
      "outputs": [
        {
          "internalType": "uint256",
          "name": "totalrefbonus",
          "type": "uint256"
        }
      ],
      "stateMutability": "view",
      "type": "function"
    },
    {
      "inputs": [
        {
          "internalType": "address",
          "name": "_useraddress",
          "type": "address"
        }
      ],
      "name": "getuserRefId",
      "outputs": [
        {
          "internalType": "uint256",
          "name": "",
          "type": "uint256"
        }
      ],
      "stateMutability": "view",
      "type": "function"
    },
    {
      "inputs": [
        {
          "internalType": "address",
          "name": "_useraddress",
          "type": "address"
        },
        {
          "internalType": "address",
          "name": "_sponsor",
          "type": "address"
        }
      ],
      "name": "getuserRefIdBySponsor",
      "outputs": [
        {
          "internalType": "uint256",
          "name": "",
          "type": "uint256"
        }
      ],
      "stateMutability": "view",
      "type": "function"
    },
    {
      "inputs": [
        {
          "internalType": "address",
          "name": "_useraddress",
          "type": "address"
        }
      ],
      "name": "getuserReferrals",
      "outputs": [
        {
          "internalType": "address[]",
          "name": "",
          "type": "address[]"
        }
      ],
      "stateMutability": "view",
      "type": "function"
    },
    {
      "inputs": [
        {
          "internalType": "address",
          "name": "_useraddress",
          "type": "address"
        }
      ],
      "name": "getuserbetId",
      "outputs": [
        {
          "internalType": "uint256",
          "name": "",
          "type": "uint256"
        }
      ],
      "stateMutability": "view",
      "type": "function"
    },
    {
      "inputs": [],
      "name": "loadAllBets",
      "outputs": [
        {
          "components": [
            {
              "internalType": "uint256",
              "name": "betId",
              "type": "uint256"
            },
            {
              "internalType": "uint256",
              "name": "matchId",
              "type": "uint256"
            },
            {
              "internalType": "string",
              "name": "username",
              "type": "string"
            },
            {
              "internalType": "string",
              "name": "matchfixture",
              "type": "string"
            },
            {
              "internalType": "address",
              "name": "openedBy",
              "type": "address"
            },
            {
              "internalType": "address",
              "name": "participant",
              "type": "address"
            },
            {
              "internalType": "uint256",
              "name": "betamount",
              "type": "uint256"
            },
            {
              "internalType": "uint256",
              "name": "totalbetparticipantscount",
              "type": "uint256"
            },
            {
              "internalType": "uint256",
              "name": "remainingparticipantscount",
              "type": "uint256"
            },
            {
              "internalType": "string",
              "name": "prediction",
              "type": "string"
            },
            {
              "internalType": "string",
              "name": "bettingteam",
              "type": "string"
            },
            {
              "internalType": "string",
              "name": "betstatus",
              "type": "string"
            },
            {
              "internalType": "address[]",
              "name": "participants",
              "type": "address[]"
            },
            {
              "internalType": "address[]",
              "name": "betwinners",
              "type": "address[]"
            },
            {
              "internalType": "address[]",
              "name": "betlosers",
              "type": "address[]"
            }
          ],
          "internalType": "struct FRDBetting.Bets[]",
          "name": "",
          "type": "tuple[]"
        }
      ],
      "stateMutability": "view",
      "type": "function"
    },
    {
      "inputs": [],
      "name": "myTokenBalance",
      "outputs": [
        {
          "internalType": "uint256",
          "name": "",
          "type": "uint256"
        }
      ],
      "stateMutability": "view",
      "type": "function"
    },
    {
      "inputs": [
        {
          "internalType": "address",
          "name": "walletaddress",
          "type": "address"
        }
      ],
      "name": "searchBetByAddress",
      "outputs": [
        {
          "components": [
            {
              "internalType": "uint256",
              "name": "betId",
              "type": "uint256"
            },
            {
              "internalType": "uint256",
              "name": "matchId",
              "type": "uint256"
            },
            {
              "internalType": "string",
              "name": "username",
              "type": "string"
            },
            {
              "internalType": "string",
              "name": "matchfixture",
              "type": "string"
            },
            {
              "internalType": "address",
              "name": "openedBy",
              "type": "address"
            },
            {
              "internalType": "address",
              "name": "participant",
              "type": "address"
            },
            {
              "internalType": "uint256",
              "name": "betamount",
              "type": "uint256"
            },
            {
              "internalType": "uint256",
              "name": "totalbetparticipantscount",
              "type": "uint256"
            },
            {
              "internalType": "uint256",
              "name": "remainingparticipantscount",
              "type": "uint256"
            },
            {
              "internalType": "string",
              "name": "prediction",
              "type": "string"
            },
            {
              "internalType": "string",
              "name": "bettingteam",
              "type": "string"
            },
            {
              "internalType": "string",
              "name": "betstatus",
              "type": "string"
            },
            {
              "internalType": "address[]",
              "name": "participants",
              "type": "address[]"
            },
            {
              "internalType": "address[]",
              "name": "betwinners",
              "type": "address[]"
            },
            {
              "internalType": "address[]",
              "name": "betlosers",
              "type": "address[]"
            }
          ],
          "internalType": "struct FRDBetting.Bets[]",
          "name": "",
          "type": "tuple[]"
        }
      ],
      "stateMutability": "view",
      "type": "function"
    },
    {
      "inputs": [],
      "name": "showcontractAddress",
      "outputs": [
        {
          "internalType": "address",
          "name": "",
          "type": "address"
        }
      ],
      "stateMutability": "view",
      "type": "function"
    }
  ],
  "bytecode": "0x6080604052426001553480156200001557600080fd5b5060405162005d3938038062005d3983398181016040528101906200003b919062000136565b600160008190555080600260006101000a81548173ffffffffffffffffffffffffffffffffffffffff021916908373ffffffffffffffffffffffffffffffffffffffff16021790555033600660006101000a81548173ffffffffffffffffffffffffffffffffffffffff021916908373ffffffffffffffffffffffffffffffffffffffff1602179055505062000168565b600080fd5b600073ffffffffffffffffffffffffffffffffffffffff82169050919050565b6000620000fe82620000d1565b9050919050565b6200011081620000f1565b81146200011c57600080fd5b50565b600081519050620001308162000105565b92915050565b6000602082840312156200014f576200014e620000cc565b5b60006200015f848285016200011f565b91505092915050565b615bc180620001786000396000f3fe608060405234801561001057600080fd5b50600436106101375760003560e01c80636537c170116100b85780638c13be461161007c5780638c13be461461039c578063a24beff7146103cc578063b624010a146103e8578063b959fc2614610418578063c27b575c14610448578063c56840991461047857610137565b80636537c170146102e6578063660c4c5a1461031657806376775c101461033257806382b77f8a1461034e57806388aff5861461037e57610137565b80634d004c2f116100ff5780634d004c2f1461022c578063529d52111461025c5780635984c81f1461028c5780635e6ba549146102aa578063649fda29146102c857610137565b80632b956ff71461013c5780632d7ff14d1461016c57806337cb50931461019c5780633df2967e146101cc5780633e3f96d9146101fc575b600080fd5b6101566004803603810190610151919061487b565b6104a8565b60405161016391906148c1565b60405180910390f35b61018660048036038101906101819190614a22565b6105df565b6040516101939190614ded565b60405180910390f35b6101b660048036038101906101b1919061487b565b610cdf565b6040516101c39190614ded565b60405180910390f35b6101e660048036038101906101e19190614e3b565b6113d8565b6040516101f39190614ded565b60405180910390f35b6102166004803603810190610211919061487b565b6119dc565b60405161022391906148c1565b60405180910390f35b6102466004803603810190610241919061487b565b611a09565b60405161025391906148c1565b60405180910390f35b61027660048036038101906102719190614e3b565b611b40565b6040516102839190614ed7565b60405180910390f35b610294611be4565b6040516102a19190614ded565b60405180910390f35b6102b2612234565b6040516102bf91906148c1565b60405180910390f35b6102d061227b565b6040516102dd9190614f08565b60405180910390f35b61030060048036038101906102fb919061487b565b612283565b60405161030d91906148c1565b60405180910390f35b610330600480360381019061032b9190614f23565b6123ba565b005b61034c60048036038101906103479190615072565b612f82565b005b6103686004803603810190610363919061487b565b6136a7565b60405161037591906148c1565b60405180910390f35b61038661397b565b6040516103939190615111565b60405180910390f35b6103b660048036038101906103b19190614e3b565b6139a1565b6040516103c39190614ded565b60405180910390f35b6103e660048036038101906103e19190614e3b565b614011565b005b61040260048036038101906103fd919061487b565b61406d565b60405161040f91906148c1565b60405180910390f35b610432600480360381019061042d919061487b565b61409a565b60405161043f9190614ed7565b60405180910390f35b610462600480360381019061045d919061512c565b6142ba565b60405161046f91906148c1565b60405180910390f35b610492600480360381019061048d9190614e3b565b61446c565b60405161049f9190614ed7565b60405180910390f35b6000806005549050600073ffffffffffffffffffffffffffffffffffffffff168373ffffffffffffffffffffffffffffffffffffffff1603610516576040517f82b4290000000000000000000000000000000000000000000000000000000000815260040160405180910390fd5b600080600090505b828110156105d4578473ffffffffffffffffffffffffffffffffffffffff16600e600060018461054e919061519b565b815260200190815260200160002060050160029054906101000a900473ffffffffffffffffffffffffffffffffffffffff1673ffffffffffffffffffffffffffffffffffffffff16036105c157600e60006001836105ac919061519b565b81526020019081526020016000206000015491505b80806105cc906151cf565b91505061051e565b508092505050919050565b6060600060035490506000808267ffffffffffffffff811115610605576106046148f7565b5b60405190808252806020026020018201604052801561063e57816020015b61062b6146c0565b8152602001906001900390816106235790505b50905060005b83811015610cd357600060018261065b919061519b565b9050610705600b6000838152602001908152602001600020600b01805461068190615246565b80601f01602080910402602001604051908101604052809291908181526020018280546106ad90615246565b80156106fa5780601f106106cf576101008083540402835291602001916106fa565b820191906000526020600020905b8154815290600101906020018083116106dd57829003601f168201915b505050505088614510565b15610cbf576000600b6000838152602001908152602001600020905080604051806101e0016040529081600082015481526020016001820154815260200160028201805461075290615246565b80601f016020809104026020016040519081016040528092919081815260200182805461077e90615246565b80156107cb5780601f106107a0576101008083540402835291602001916107cb565b820191906000526020600020905b8154815290600101906020018083116107ae57829003601f168201915b505050505081526020016003820180546107e490615246565b80601f016020809104026020016040519081016040528092919081815260200182805461081090615246565b801561085d5780601f106108325761010080835404028352916020019161085d565b820191906000526020600020905b81548152906001019060200180831161084057829003601f168201915b505050505081526020016004820160009054906101000a900473ffffffffffffffffffffffffffffffffffffffff1673ffffffffffffffffffffffffffffffffffffffff1673ffffffffffffffffffffffffffffffffffffffff1681526020016005820160009054906101000a900473ffffffffffffffffffffffffffffffffffffffff1673ffffffffffffffffffffffffffffffffffffffff1673ffffffffffffffffffffffffffffffffffffffff16815260200160068201548152602001600782015481526020016008820154815260200160098201805461094090615246565b80601f016020809104026020016040519081016040528092919081815260200182805461096c90615246565b80156109b95780601f1061098e576101008083540402835291602001916109b9565b820191906000526020600020905b81548152906001019060200180831161099c57829003601f168201915b50505050508152602001600a820180546109d290615246565b80601f01602080910402602001604051908101604052809291908181526020018280546109fe90615246565b8015610a4b5780601f10610a2057610100808354040283529160200191610a4b565b820191906000526020600020905b815481529060010190602001808311610a2e57829003601f168201915b50505050508152602001600b82018054610a6490615246565b80601f0160208091040260200160405190810160405280929190818152602001828054610a9090615246565b8015610add5780601f10610ab257610100808354040283529160200191610add565b820191906000526020600020905b815481529060010190602001808311610ac057829003601f168201915b50505050508152602001600c8201805480602002602001604051908101604052809291908181526020018280548015610b6b57602002820191906000526020600020905b8160009054906101000a900473ffffffffffffffffffffffffffffffffffffffff1673ffffffffffffffffffffffffffffffffffffffff1681526020019060010190808311610b21575b50505050508152602001600d8201805480602002602001604051908101604052809291908181526020018280548015610bf957602002820191906000526020600020905b8160009054906101000a900473ffffffffffffffffffffffffffffffffffffffff1673ffffffffffffffffffffffffffffffffffffffff1681526020019060010190808311610baf575b50505050508152602001600e8201805480602002602001604051908101604052809291908181526020018280548015610c8757602002820191906000526020600020905b8160009054906101000a900473ffffffffffffffffffffffffffffffffffffffff1673ffffffffffffffffffffffffffffffffffffffff1681526020019060010190808311610c3d575b505050505081525050848681518110610ca357610ca2615277565b5b6020026020010181905250600185610cbb919061519b565b9450505b508080610ccb906151cf565b915050610644565b50809350505050919050565b60606000600354905060008060005b83811015610d8e578573ffffffffffffffffffffffffffffffffffffffff16600b6000600184610d1e919061519b565b815260200190815260200160002060050160009054906101000a900473ffffffffffffffffffffffffffffffffffffffff1673ffffffffffffffffffffffffffffffffffffffff1603610d7b57600183610d78919061519b565b92505b8080610d86906151cf565b915050610cee565b5060008367ffffffffffffffff811115610dab57610daa6148f7565b5b604051908082528060200260200182016040528015610de457816020015b610dd16146c0565b815260200190600190039081610dc95790505b50905060005b848110156113cb576000600182610e01919061519b565b90506000600b6000838152602001908152602001600020905080604051806101e00160405290816000820154815260200160018201548152602001600282018054610e4b90615246565b80601f0160208091040260200160405190810160405280929190818152602001828054610e7790615246565b8015610ec45780601f10610e9957610100808354040283529160200191610ec4565b820191906000526020600020905b815481529060010190602001808311610ea757829003601f168201915b50505050508152602001600382018054610edd90615246565b80601f0160208091040260200160405190810160405280929190818152602001828054610f0990615246565b8015610f565780601f10610f2b57610100808354040283529160200191610f56565b820191906000526020600020905b815481529060010190602001808311610f3957829003601f168201915b505050505081526020016004820160009054906101000a900473ffffffffffffffffffffffffffffffffffffffff1673ffffffffffffffffffffffffffffffffffffffff1673ffffffffffffffffffffffffffffffffffffffff1681526020016005820160009054906101000a900473ffffffffffffffffffffffffffffffffffffffff1673ffffffffffffffffffffffffffffffffffffffff1673ffffffffffffffffffffffffffffffffffffffff16815260200160068201548152602001600782015481526020016008820154815260200160098201805461103990615246565b80601f016020809104026020016040519081016040528092919081815260200182805461106590615246565b80156110b25780601f10611087576101008083540402835291602001916110b2565b820191906000526020600020905b81548152906001019060200180831161109557829003601f168201915b50505050508152602001600a820180546110cb90615246565b80601f01602080910402602001604051908101604052809291908181526020018280546110f790615246565b80156111445780601f1061111957610100808354040283529160200191611144565b820191906000526020600020905b81548152906001019060200180831161112757829003601f168201915b50505050508152602001600b8201805461115d90615246565b80601f016020809104026020016040519081016040528092919081815260200182805461118990615246565b80156111d65780601f106111ab576101008083540402835291602001916111d6565b820191906000526020600020905b8154815290600101906020018083116111b957829003601f168201915b50505050508152602001600c820180548060200260200160405190810160405280929190818152602001828054801561126457602002820191906000526020600020905b8160009054906101000a900473ffffffffffffffffffffffffffffffffffffffff1673ffffffffffffffffffffffffffffffffffffffff168152602001906001019080831161121a575b50505050508152602001600d82018054806020026020016040519081016040528092919081815260200182805480156112f257602002820191906000526020600020905b8160009054906101000a900473ffffffffffffffffffffffffffffffffffffffff1673ffffffffffffffffffffffffffffffffffffffff16815260200190600101908083116112a8575b50505050508152602001600e820180548060200260200160405190810160405280929190818152602001828054801561138057602002820191906000526020600020905b8160009054906101000a900473ffffffffffffffffffffffffffffffffffffffff1673ffffffffffffffffffffffffffffffffffffffff1681526020019060010190808311611336575b50505050508152505084868151811061139c5761139b615277565b5b60200260200101819052506001856113b4919061519b565b9450505080806113c3906151cf565b915050610dea565b5080945050505050919050565b60606000600167ffffffffffffffff8111156113f7576113f66148f7565b5b60405190808252806020026020018201604052801561143057816020015b61141d6146c0565b8152602001906001900390816114155790505b509050600b6000848152602001908152602001600020604051806101e0016040529081600082015481526020016001820154815260200160028201805461147690615246565b80601f01602080910402602001604051908101604052809291908181526020018280546114a290615246565b80156114ef5780601f106114c4576101008083540402835291602001916114ef565b820191906000526020600020905b8154815290600101906020018083116114d257829003601f168201915b5050505050815260200160038201805461150890615246565b80601f016020809104026020016040519081016040528092919081815260200182805461153490615246565b80156115815780601f1061155657610100808354040283529160200191611581565b820191906000526020600020905b81548152906001019060200180831161156457829003601f168201915b505050505081526020016004820160009054906101000a900473ffffffffffffffffffffffffffffffffffffffff1673ffffffffffffffffffffffffffffffffffffffff1673ffffffffffffffffffffffffffffffffffffffff1681526020016005820160009054906101000a900473ffffffffffffffffffffffffffffffffffffffff1673ffffffffffffffffffffffffffffffffffffffff1673ffffffffffffffffffffffffffffffffffffffff16815260200160068201548152602001600782015481526020016008820154815260200160098201805461166490615246565b80601f016020809104026020016040519081016040528092919081815260200182805461169090615246565b80156116dd5780601f106116b2576101008083540402835291602001916116dd565b820191906000526020600020905b8154815290600101906020018083116116c057829003601f168201915b50505050508152602001600a820180546116f690615246565b80601f016020809104026020016040519081016040528092919081815260200182805461172290615246565b801561176f5780601f106117445761010080835404028352916020019161176f565b820191906000526020600020905b81548152906001019060200180831161175257829003601f168201915b50505050508152602001600b8201805461178890615246565b80601f01602080910402602001604051908101604052809291908181526020018280546117b490615246565b80156118015780601f106117d657610100808354040283529160200191611801565b820191906000526020600020905b8154815290600101906020018083116117e457829003601f168201915b50505050508152602001600c820180548060200260200160405190810160405280929190818152602001828054801561188f57602002820191906000526020600020905b8160009054906101000a900473ffffffffffffffffffffffffffffffffffffffff1673ffffffffffffffffffffffffffffffffffffffff1681526020019060010190808311611845575b50505050508152602001600d820180548060200260200160405190810160405280929190818152602001828054801561191d57602002820191906000526020600020905b8160009054906101000a900473ffffffffffffffffffffffffffffffffffffffff1673ffffffffffffffffffffffffffffffffffffffff16815260200190600101908083116118d3575b50505050508152602001600e82018054806020026020016040519081016040528092919081815260200182805480156119ab57602002820191906000526020600020905b8160009054906101000a900473ffffffffffffffffffffffffffffffffffffffff1673ffffffffffffffffffffffffffffffffffffffff1681526020019060010190808311611961575b505050505081525050816000815181106119c8576119c7615277565b5b602002602001018190525080915050919050565b6000806119e8836104a8565b9050600e600082815260200190815260200160002060040154915050919050565b6000806003549050600073ffffffffffffffffffffffffffffffffffffffff168373ffffffffffffffffffffffffffffffffffffffff1603611a77576040517f82b4290000000000000000000000000000000000000000000000000000000000815260040160405180910390fd5b600080600090505b82811015611b35578473ffffffffffffffffffffffffffffffffffffffff16600b6000600184611aaf919061519b565b815260200190815260200160002060050160009054906101000a900473ffffffffffffffffffffffffffffffffffffffff1673ffffffffffffffffffffffffffffffffffffffff1603611b2257600b6000600183611b0d919061519b565b81526020019081526020016000206000015491505b8080611b2d906151cf565b915050611a7f565b508092505050919050565b6060600b6000838152602001908152602001600020600d01805480602002602001604051908101604052809291908181526020018280548015611bd857602002820191906000526020600020905b8160009054906101000a900473ffffffffffffffffffffffffffffffffffffffff1673ffffffffffffffffffffffffffffffffffffffff1681526020019060010190808311611b8e575b50505050509050919050565b6060600060035490506000808267ffffffffffffffff811115611c0a57611c096148f7565b5b604051908082528060200260200182016040528015611c4357816020015b611c306146c0565b815260200190600190039081611c285790505b50905060005b8381101561222a576000600182611c60919061519b565b90506000600b6000838152602001908152602001600020905080604051806101e00160405290816000820154815260200160018201548152602001600282018054611caa90615246565b80601f0160208091040260200160405190810160405280929190818152602001828054611cd690615246565b8015611d235780601f10611cf857610100808354040283529160200191611d23565b820191906000526020600020905b815481529060010190602001808311611d0657829003601f168201915b50505050508152602001600382018054611d3c90615246565b80601f0160208091040260200160405190810160405280929190818152602001828054611d6890615246565b8015611db55780601f10611d8a57610100808354040283529160200191611db5565b820191906000526020600020905b815481529060010190602001808311611d9857829003601f168201915b505050505081526020016004820160009054906101000a900473ffffffffffffffffffffffffffffffffffffffff1673ffffffffffffffffffffffffffffffffffffffff1673ffffffffffffffffffffffffffffffffffffffff1681526020016005820160009054906101000a900473ffffffffffffffffffffffffffffffffffffffff1673ffffffffffffffffffffffffffffffffffffffff1673ffffffffffffffffffffffffffffffffffffffff168152602001600682015481526020016007820154815260200160088201548152602001600982018054611e9890615246565b80601f0160208091040260200160405190810160405280929190818152602001828054611ec490615246565b8015611f115780601f10611ee657610100808354040283529160200191611f11565b820191906000526020600020905b815481529060010190602001808311611ef457829003601f168201915b50505050508152602001600a82018054611f2a90615246565b80601f0160208091040260200160405190810160405280929190818152602001828054611f5690615246565b8015611fa35780601f10611f7857610100808354040283529160200191611fa3565b820191906000526020600020905b815481529060010190602001808311611f8657829003601f168201915b50505050508152602001600b82018054611fbc90615246565b80601f0160208091040260200160405190810160405280929190818152602001828054611fe890615246565b80156120355780601f1061200a57610100808354040283529160200191612035565b820191906000526020600020905b81548152906001019060200180831161201857829003601f168201915b50505050508152602001600c82018054806020026020016040519081016040528092919081815260200182805480156120c357602002820191906000526020600020905b8160009054906101000a900473ffffffffffffffffffffffffffffffffffffffff1673ffffffffffffffffffffffffffffffffffffffff1681526020019060010190808311612079575b50505050508152602001600d820180548060200260200160405190810160405280929190818152602001828054801561215157602002820191906000526020600020905b8160009054906101000a900473ffffffffffffffffffffffffffffffffffffffff1673ffffffffffffffffffffffffffffffffffffffff1681526020019060010190808311612107575b50505050508152602001600e82018054806020026020016040519081016040528092919081815260200182805480156121df57602002820191906000526020600020905b8160009054906101000a900473ffffffffffffffffffffffffffffffffffffffff1673ffffffffffffffffffffffffffffffffffffffff1681526020019060010190808311612195575b5050505050815250508486815181106121fb576121fa615277565b5b6020026020010181905250600185612213919061519b565b945050508080612222906151cf565b915050611c49565b5080935050505090565b6000600a60003373ffffffffffffffffffffffffffffffffffffffff1673ffffffffffffffffffffffffffffffffffffffff16815260200190815260200160002054905090565b600030905090565b6000806004549050600073ffffffffffffffffffffffffffffffffffffffff168373ffffffffffffffffffffffffffffffffffffffff16036122f1576040517f82b4290000000000000000000000000000000000000000000000000000000000815260040160405180910390fd5b600080600090505b828110156123af578473ffffffffffffffffffffffffffffffffffffffff1660106000600184612329919061519b565b815260200190815260200160002060030160009054906101000a900473ffffffffffffffffffffffffffffffffffffffff1673ffffffffffffffffffffffffffffffffffffffff160361239c5760106000600183612387919061519b565b81526020019081526020016000206000015491505b80806123a7906151cf565b9150506122f9565b508092505050919050565b6123c2614569565b600073ffffffffffffffffffffffffffffffffffffffff163373ffffffffffffffffffffffffffffffffffffffff1603612428576040517f82b4290000000000000000000000000000000000000000000000000000000000815260040160405180910390fd5b60008a11612462576040517f2c5211c600000000000000000000000000000000000000000000000000000000815260040160405180910390fd5b89600260009054906101000a900473ffffffffffffffffffffffffffffffffffffffff1673ffffffffffffffffffffffffffffffffffffffff166370a08231336040518263ffffffff1660e01b81526004016124be9190614f08565b602060405180830381865afa1580156124db573d6000803e3d6000fd5b505050506040513d601f19601f820116820180604052508101906124ff91906152bb565b1015612540576040517f08c379a000000000000000000000000000000000000000000000000000000000815260040161253790615345565b60405180910390fd5b6001600d60003373ffffffffffffffffffffffffffffffffffffffff1673ffffffffffffffffffffffffffffffffffffffff16815260200190815260200160002060010160006101000a81548160ff02191690831515021790555060011515600d60003373ffffffffffffffffffffffffffffffffffffffff1673ffffffffffffffffffffffffffffffffffffffff16815260200190815260200160002060050160009054906101000a900460ff16151503612664576000612601336104a8565b9050600e6000828152602001908152602001600020600201600081548092919061262a906151cf565b91905055506001600e600083815260200190815260200160002060010160006101000a81548160ff0219169083151502179055505061286f565b600160056000828254612677919061519b565b9250508190555060006005549050604051806101000160405280828152602001600115158152602001600e600084815260200190815260200160002060020160008154809291906126c7906151cf565b919050558152602001600115158152602001600e60008481526020019081526020016000206004016000815480929190612700906151cf565b9190505581526020016001151581526020016000151581526020013373ffffffffffffffffffffffffffffffffffffffff16815250600e60008381526020019081526020016000206000820151816000015560208201518160010160006101000a81548160ff0219169083151502179055506040820151816002015560608201518160030160006101000a81548160ff0219169083151502179055506080820151816004015560a08201518160050160006101000a81548160ff02191690831515021790555060c08201518160050160016101000a81548160ff02191690831515021790555060e08201518160050160026101000a81548173ffffffffffffffffffffffffffffffffffffffff021916908373ffffffffffffffffffffffffffffffffffffffff160217905550905050807fcc34840d808dc00bddd045f6bb0afe93e24930782d5c774b98c999b4b41bbf956001803360405161286593929190615380565b60405180910390a2505b600160036000828254612882919061519b565b92505081905550600080881461289a578790506128a0565b60035490505b6128df6040518060400160405280600981526020017f626574206944202d2d0000000000000000000000000000000000000000000000815250826145af565b6000600b6000838152602001908152602001600020600c01905080339080600181540180825580915050600190039060005260206000200160009091909190916101000a81548173ffffffffffffffffffffffffffffffffffffffff021916908373ffffffffffffffffffffffffffffffffffffffff160217905550604051806101e001604052808381526020018c81526020018b81526020018881526020018973ffffffffffffffffffffffffffffffffffffffff1681526020013373ffffffffffffffffffffffffffffffffffffffff1681526020018d81526020018581526020018481526020018781526020018681526020016040518060400160405280600481526020017f6f70656e00000000000000000000000000000000000000000000000000000000815250815260200182805480602002602001604051908101604052809291908181526020018280548015612a9157602002820191906000526020600020905b8160009054906101000a900473ffffffffffffffffffffffffffffffffffffffff1673ffffffffffffffffffffffffffffffffffffffff1681526020019060010190808311612a47575b505050505081526020016008805480602002602001604051908101604052809291908181526020018280548015612b1d57602002820191906000526020600020905b8160009054906101000a900473ffffffffffffffffffffffffffffffffffffffff1673ffffffffffffffffffffffffffffffffffffffff1681526020019060010190808311612ad3575b505050505081526020016008805480602002602001604051908101604052809291908181526020018280548015612ba957602002820191906000526020600020905b8160009054906101000a900473ffffffffffffffffffffffffffffffffffffffff1673ffffffffffffffffffffffffffffffffffffffff1681526020019060010190808311612b5f575b5050505050815250600b600084815260200190815260200160002060008201518160000155602082015181600101556040820151816002019081612bed9190615559565b506060820151816003019081612c039190615559565b5060808201518160040160006101000a81548173ffffffffffffffffffffffffffffffffffffffff021916908373ffffffffffffffffffffffffffffffffffffffff16021790555060a08201518160050160006101000a81548173ffffffffffffffffffffffffffffffffffffffff021916908373ffffffffffffffffffffffffffffffffffffffff16021790555060c0820151816006015560e082015181600701556101008201518160080155610120820151816009019081612cc79190615559565b5061014082015181600a019081612cde9190615559565b5061016082015181600b019081612cf59190615559565b5061018082015181600c019080519060200190612d13929190614762565b506101a082015181600d019080519060200190612d31929190614762565b506101c082015181600e019080519060200190612d4f929190614762565b509050503373ffffffffffffffffffffffffffffffffffffffff168873ffffffffffffffffffffffffffffffffffffffff1603612dd0576040518060400160405280600481526020017f4f70656e0000000000000000000000000000000000000000000000000000000081525060079081612dca9190615559565b50612e16565b6040518060400160405280600481526020017f4a6f696e0000000000000000000000000000000000000000000000000000000081525060079081612e149190615559565b505b8b600a60003373ffffffffffffffffffffffffffffffffffffffff1673ffffffffffffffffffffffffffffffffffffffff1681526020019081526020016000206000828254612e65919061519b565b92505081905550600260009054906101000a900473ffffffffffffffffffffffffffffffffffffffff1673ffffffffffffffffffffffffffffffffffffffff166323b872dd33308f6040518463ffffffff1660e01b8152600401612ecb9392919061562b565b6020604051808303816000875af1158015612eea573d6000803e3d6000fd5b505050506040513d601f19601f82011682018060405250810190612f0e919061568e565b508773ffffffffffffffffffffffffffffffffffffffff167fcb589a99512c109a0103d29e4e1e9f249898b8faef6dcd0da025ae1b72acfc8b338c8f868c8c8c6007604051612f64989796959493929190615778565b60405180910390a25050612f7661464b565b50505050505050505050565b612f8a614569565b600073ffffffffffffffffffffffffffffffffffffffff168273ffffffffffffffffffffffffffffffffffffffff1603612ff9576040517f08c379a0000000000000000000000000000000000000000000000000000000008152600401612ff090615865565b60405180910390fd5b3373ffffffffffffffffffffffffffffffffffffffff168273ffffffffffffffffffffffffffffffffffffffff1603613067576040517f08c379a000000000000000000000000000000000000000000000000000000000815260040161305e906158d1565b60405180910390fd5b6000613072836104a8565b9050600061308033856142ba565b90508373ffffffffffffffffffffffffffffffffffffffff166010600083815260200190815260200160002060040160009054906101000a900473ffffffffffffffffffffffffffffffffffffffff1673ffffffffffffffffffffffffffffffffffffffff160361311d576040517f2b8384d200000000000000000000000000000000000000000000000000000000815260040160405180910390fd5b6000600f60008673ffffffffffffffffffffffffffffffffffffffff1673ffffffffffffffffffffffffffffffffffffffff168152602001908152602001600020600601905080339080600181540180825580915050600190039060005260206000200160009091909190916101000a81548173ffffffffffffffffffffffffffffffffffffffff021916908373ffffffffffffffffffffffffffffffffffffffff160217905550600060011515600d60003373ffffffffffffffffffffffffffffffffffffffff1673ffffffffffffffffffffffffffffffffffffffff16815260200190815260200160002060050160009054906101000a900460ff1615150361326c57600d60003373ffffffffffffffffffffffffffffffffffffffff1673ffffffffffffffffffffffffffffffffffffffff1681526020019081526020016000206000015490506133eb565b60016005600082825461327f919061519b565b925050819055506000600554905060405180610100016040528082815260200160001515815260200160008152602001600015158152602001600081526020016001151581526020016001151581526020013373ffffffffffffffffffffffffffffffffffffffff16815250600e60008381526020019081526020016000206000820151816000015560208201518160010160006101000a81548160ff0219169083151502179055506040820151816002015560608201518160030160006101000a81548160ff0219169083151502179055506080820151816004015560a08201518160050160006101000a81548160ff02191690831515021790555060c08201518160050160016101000a81548160ff02191690831515021790555060e08201518160050160026101000a81548173ffffffffffffffffffffffffffffffffffffffff021916908373ffffffffffffffffffffffffffffffffffffffff160217905550905050809150505b6001600460008282546133fe919061519b565b92505081905550600060045490506040518060e001604052808281526020018681526020018381526020013373ffffffffffffffffffffffffffffffffffffffff1681526020018873ffffffffffffffffffffffffffffffffffffffff1681526020016134766103e88961465590919063ffffffff16565b8152602001848054806020026020016040519081016040528092919081815260200182805480156134fc57602002820191906000526020600020905b8160009054906101000a900473ffffffffffffffffffffffffffffffffffffffff1673ffffffffffffffffffffffffffffffffffffffff16815260200190600101908083116134b2575b50505050508152506010600083815260200190815260200160002060008201518160000155602082015181600101556040820151816002015560608201518160030160006101000a81548173ffffffffffffffffffffffffffffffffffffffff021916908373ffffffffffffffffffffffffffffffffffffffff16021790555060808201518160040160006101000a81548173ffffffffffffffffffffffffffffffffffffffff021916908373ffffffffffffffffffffffffffffffffffffffff16021790555060a0820151816005015560c08201518160060190805190602001906135e9929190614762565b50905050600e60008681526020019081526020016000206004016000815480929190613614906151cf565b9190505550817fcc34840d808dc00bddd045f6bb0afe93e24930782d5c774b98c999b4b41bbf956001803360405161364e93929190615380565b60405180910390a2807f58595059bf404f2e2bdebce84da4438e994e105fbd17755e5b5ed00f189fde878684338b8860405161368e9594939291906159dd565b60405180910390a250505050506136a361464b565b5050565b6000806136b38361409a565b905060008151905060008167ffffffffffffffff8111156136d7576136d66148f7565b5b6040519080825280602002602001820160405280156137055781602001602082028036833780820191505090505b50905060008267ffffffffffffffff811115613724576137236148f7565b5b6040519080825280602002602001820160405280156137525781602001602082028036833780820191505090505b50905060008060005b8581101561396c57600061378888838151811061377b5761377a615277565b5b6020026020010151611a09565b905060006137af8984815181106137a2576137a1615277565b5b6020026020010151612283565b905061388e600b6000848152602001908152602001600020600b0180546137d590615246565b80601f016020809104026020016040519081016040528092919081815260200182805461380190615246565b801561384e5780601f106138235761010080835404028352916020019161384e565b820191906000526020600020905b81548152906001019060200180831161383157829003601f168201915b50505050506040518060400160405280600481526020017f6f70656e00000000000000000000000000000000000000000000000000000000815250614510565b1561395757600b6000838152602001908152602001600020600601548784815181106138bd576138bc615277565b5b60200260200101818152505060106000828152602001908152602001600020600501548684815181106138f3576138f2615277565b5b60200260200101818152505061394686848151811061391557613914615277565b5b60200260200101518885815181106139305761392f615277565b5b602002602001015161465590919063ffffffff16565b93508385613954919061519b565b94505b50508080613964906151cf565b91505061375b565b50819650505050505050919050565b600260009054906101000a900473ffffffffffffffffffffffffffffffffffffffff1681565b6060600060035490506000808267ffffffffffffffff8111156139c7576139c66148f7565b5b604051908082528060200260200182016040528015613a0057816020015b6139ed6146c0565b8152602001906001900390816139e55790505b50905060005b83811015614005576000600182613a1d919061519b565b905086600b60008381526020019081526020016000206006015410613ff1576000600b6000838152602001908152602001600020905080604051806101e00160405290816000820154815260200160018201548152602001600282018054613a8490615246565b80601f0160208091040260200160405190810160405280929190818152602001828054613ab090615246565b8015613afd5780601f10613ad257610100808354040283529160200191613afd565b820191906000526020600020905b815481529060010190602001808311613ae057829003601f168201915b50505050508152602001600382018054613b1690615246565b80601f0160208091040260200160405190810160405280929190818152602001828054613b4290615246565b8015613b8f5780601f10613b6457610100808354040283529160200191613b8f565b820191906000526020600020905b815481529060010190602001808311613b7257829003601f168201915b505050505081526020016004820160009054906101000a900473ffffffffffffffffffffffffffffffffffffffff1673ffffffffffffffffffffffffffffffffffffffff1673ffffffffffffffffffffffffffffffffffffffff1681526020016005820160009054906101000a900473ffffffffffffffffffffffffffffffffffffffff1673ffffffffffffffffffffffffffffffffffffffff1673ffffffffffffffffffffffffffffffffffffffff168152602001600682015481526020016007820154815260200160088201548152602001600982018054613c7290615246565b80601f0160208091040260200160405190810160405280929190818152602001828054613c9e90615246565b8015613ceb5780601f10613cc057610100808354040283529160200191613ceb565b820191906000526020600020905b815481529060010190602001808311613cce57829003601f168201915b50505050508152602001600a82018054613d0490615246565b80601f0160208091040260200160405190810160405280929190818152602001828054613d3090615246565b8015613d7d5780601f10613d5257610100808354040283529160200191613d7d565b820191906000526020600020905b815481529060010190602001808311613d6057829003601f168201915b50505050508152602001600b82018054613d9690615246565b80601f0160208091040260200160405190810160405280929190818152602001828054613dc290615246565b8015613e0f5780601f10613de457610100808354040283529160200191613e0f565b820191906000526020600020905b815481529060010190602001808311613df257829003601f168201915b50505050508152602001600c8201805480602002602001604051908101604052809291908181526020018280548015613e9d57602002820191906000526020600020905b8160009054906101000a900473ffffffffffffffffffffffffffffffffffffffff1673ffffffffffffffffffffffffffffffffffffffff1681526020019060010190808311613e53575b50505050508152602001600d8201805480602002602001604051908101604052809291908181526020018280548015613f2b57602002820191906000526020600020905b8160009054906101000a900473ffffffffffffffffffffffffffffffffffffffff1673ffffffffffffffffffffffffffffffffffffffff1681526020019060010190808311613ee1575b50505050508152602001600e8201805480602002602001604051908101604052809291908181526020018280548015613fb957602002820191906000526020600020905b8160009054906101000a900473ffffffffffffffffffffffffffffffffffffffff1673ffffffffffffffffffffffffffffffffffffffff1681526020019060010190808311613f6f575b505050505081525050848681518110613fd557613fd4615277565b5b6020026020010181905250600185613fed919061519b565b9450505b508080613ffd906151cf565b915050613a06565b50809350505050919050565b6040518060400160405280600681526020017f636c6f7365640000000000000000000000000000000000000000000000000000815250600b6000838152602001908152602001600020600b0190816140699190615559565b5050565b600080614079836104a8565b9050600e600082815260200190815260200160002060020154915050919050565b606060006140a7836104a8565b905060001515600e600083815260200190815260200160002060050160009054906101000a900460ff1615150361410a576040517f9704dd5100000000000000000000000000000000000000000000000000000000815260040160405180910390fd5b600060045490506000600e600084815260200190815260200160002060040154905060008167ffffffffffffffff811115614148576141476148f7565b5b6040519080825280602002602001820160405280156141765781602001602082028036833780820191505090505b5090506000805b848110156142ac578773ffffffffffffffffffffffffffffffffffffffff16601060006001846141ad919061519b565b815260200190815260200160002060040160009054906101000a900473ffffffffffffffffffffffffffffffffffffffff1673ffffffffffffffffffffffffffffffffffffffff1603614299576010600060018361420b919061519b565b815260200190815260200160002060030160009054906101000a900473ffffffffffffffffffffffffffffffffffffffff168383815181106142505761424f615277565b5b602002602001019073ffffffffffffffffffffffffffffffffffffffff16908173ffffffffffffffffffffffffffffffffffffffff16815250508180614295906151cf565b9250505b80806142a4906151cf565b91505061417d565b508195505050505050919050565b6000806004549050600073ffffffffffffffffffffffffffffffffffffffff168473ffffffffffffffffffffffffffffffffffffffff1603614328576040517f82b4290000000000000000000000000000000000000000000000000000000000815260040160405180910390fd5b600080600090505b82811015614460578573ffffffffffffffffffffffffffffffffffffffff1660106000600184614360919061519b565b815260200190815260200160002060030160009054906101000a900473ffffffffffffffffffffffffffffffffffffffff1673ffffffffffffffffffffffffffffffffffffffff1614801561442257508473ffffffffffffffffffffffffffffffffffffffff16601060006001846143d8919061519b565b815260200190815260200160002060040160009054906101000a900473ffffffffffffffffffffffffffffffffffffffff1673ffffffffffffffffffffffffffffffffffffffff16145b1561444d5760106000600183614438919061519b565b81526020019081526020016000206000015491505b8080614458906151cf565b915050614330565b50809250505092915050565b6060600b6000838152602001908152602001600020600c0180548060200260200160405190810160405280929190818152602001828054801561450457602002820191906000526020600020905b8160009054906101000a900473ffffffffffffffffffffffffffffffffffffffff1673ffffffffffffffffffffffffffffffffffffffff16815260200190600101908083116144ba575b50505050509050919050565b6000816040516020016145239190615a73565b604051602081830303815290604052805190602001208360405160200161454a9190615a73565b6040516020818303038152906040528051906020012014905092915050565b6002600054036145a5576040517f3ee5aeb500000000000000000000000000000000000000000000000000000000815260040160405180910390fd5b6002600081905550565b61464782826040516024016145c5929190615a8a565b6040516020818303038152906040527fb60e72cc000000000000000000000000000000000000000000000000000000007bffffffffffffffffffffffffffffffffffffffffffffffffffffffff19166020820180517bffffffffffffffffffffffffffffffffffffffffffffffffffffffff8381831617835250505050614697565b5050565b6001600081905550565b60008083036146675760009050614691565b81836146739190615aba565b90508183826146829190615b2b565b146146905761468f615b5c565b5b5b92915050565b60008151905060006a636f6e736f6c652e6c6f679050602083016000808483855afa5050505050565b604051806101e0016040528060008152602001600081526020016060815260200160608152602001600073ffffffffffffffffffffffffffffffffffffffff168152602001600073ffffffffffffffffffffffffffffffffffffffff1681526020016000815260200160008152602001600081526020016060815260200160608152602001606081526020016060815260200160608152602001606081525090565b8280548282559060005260206000209081019282156147db579160200282015b828111156147da5782518260006101000a81548173ffffffffffffffffffffffffffffffffffffffff021916908373ffffffffffffffffffffffffffffffffffffffff16021790555091602001919060010190614782565b5b5090506147e891906147ec565b5090565b5b808211156148055760008160009055506001016147ed565b5090565b6000604051905090565b600080fd5b600080fd5b600073ffffffffffffffffffffffffffffffffffffffff82169050919050565b60006148488261481d565b9050919050565b6148588161483d565b811461486357600080fd5b50565b6000813590506148758161484f565b92915050565b60006020828403121561489157614890614813565b5b600061489f84828501614866565b91505092915050565b6000819050919050565b6148bb816148a8565b82525050565b60006020820190506148d660008301846148b2565b92915050565b600080fd5b600080fd5b6000601f19601f8301169050919050565b7f4e487b7100000000000000000000000000000000000000000000000000000000600052604160045260246000fd5b61492f826148e6565b810181811067ffffffffffffffff8211171561494e5761494d6148f7565b5b80604052505050565b6000614961614809565b905061496d8282614926565b919050565b600067ffffffffffffffff82111561498d5761498c6148f7565b5b614996826148e6565b9050602081019050919050565b82818337600083830152505050565b60006149c56149c084614972565b614957565b9050828152602081018484840111156149e1576149e06148e1565b5b6149ec8482856149a3565b509392505050565b600082601f830112614a0957614a086148dc565b5b8135614a198482602086016149b2565b91505092915050565b600060208284031215614a3857614a37614813565b5b600082013567ffffffffffffffff811115614a5657614a55614818565b5b614a62848285016149f4565b91505092915050565b600081519050919050565b600082825260208201905092915050565b6000819050602082019050919050565b614aa0816148a8565b82525050565b600081519050919050565b600082825260208201905092915050565b60005b83811015614ae0578082015181840152602081019050614ac5565b60008484015250505050565b6000614af782614aa6565b614b018185614ab1565b9350614b11818560208601614ac2565b614b1a816148e6565b840191505092915050565b614b2e8161483d565b82525050565b600081519050919050565b600082825260208201905092915050565b6000819050602082019050919050565b6000614b6c8383614b25565b60208301905092915050565b6000602082019050919050565b6000614b9082614b34565b614b9a8185614b3f565b9350614ba583614b50565b8060005b83811015614bd6578151614bbd8882614b60565b9750614bc883614b78565b925050600181019050614ba9565b5085935050505092915050565b60006101e083016000830151614bfc6000860182614a97565b506020830151614c0f6020860182614a97565b5060408301518482036040860152614c278282614aec565b91505060608301518482036060860152614c418282614aec565b9150506080830151614c566080860182614b25565b5060a0830151614c6960a0860182614b25565b5060c0830151614c7c60c0860182614a97565b5060e0830151614c8f60e0860182614a97565b50610100830151614ca4610100860182614a97565b50610120830151848203610120860152614cbe8282614aec565b915050610140830151848203610140860152614cda8282614aec565b915050610160830151848203610160860152614cf68282614aec565b915050610180830151848203610180860152614d128282614b85565b9150506101a08301518482036101a0860152614d2e8282614b85565b9150506101c08301518482036101c0860152614d4a8282614b85565b9150508091505092915050565b6000614d638383614be3565b905092915050565b6000602082019050919050565b6000614d8382614a6b565b614d8d8185614a76565b935083602082028501614d9f85614a87565b8060005b85811015614ddb5784840389528151614dbc8582614d57565b9450614dc783614d6b565b925060208a01995050600181019050614da3565b50829750879550505050505092915050565b60006020820190508181036000830152614e078184614d78565b905092915050565b614e18816148a8565b8114614e2357600080fd5b50565b600081359050614e3581614e0f565b92915050565b600060208284031215614e5157614e50614813565b5b6000614e5f84828501614e26565b91505092915050565b600082825260208201905092915050565b6000614e8482614b34565b614e8e8185614e68565b9350614e9983614b50565b8060005b83811015614eca578151614eb18882614b60565b9750614ebc83614b78565b925050600181019050614e9d565b5085935050505092915050565b60006020820190508181036000830152614ef18184614e79565b905092915050565b614f028161483d565b82525050565b6000602082019050614f1d6000830184614ef9565b92915050565b6000806000806000806000806000806101408b8d031215614f4757614f46614813565b5b6000614f558d828e01614e26565b9a50506020614f668d828e01614e26565b99505060408b013567ffffffffffffffff811115614f8757614f86614818565b5b614f938d828e016149f4565b9850506060614fa48d828e01614e26565b9750506080614fb58d828e01614866565b96505060a08b013567ffffffffffffffff811115614fd657614fd5614818565b5b614fe28d828e016149f4565b95505060c08b013567ffffffffffffffff81111561500357615002614818565b5b61500f8d828e016149f4565b94505060e08b013567ffffffffffffffff8111156150305761502f614818565b5b61503c8d828e016149f4565b93505061010061504e8d828e01614e26565b9250506101206150608d828e01614e26565b9150509295989b9194979a5092959850565b6000806040838503121561508957615088614813565b5b600061509785828601614866565b92505060206150a885828601614e26565b9150509250929050565b6000819050919050565b60006150d76150d26150cd8461481d565b6150b2565b61481d565b9050919050565b60006150e9826150bc565b9050919050565b60006150fb826150de565b9050919050565b61510b816150f0565b82525050565b60006020820190506151266000830184615102565b92915050565b6000806040838503121561514357615142614813565b5b600061515185828601614866565b925050602061516285828601614866565b9150509250929050565b7f4e487b7100000000000000000000000000000000000000000000000000000000600052601160045260246000fd5b60006151a6826148a8565b91506151b1836148a8565b92508282019050808211156151c9576151c861516c565b5b92915050565b60006151da826148a8565b91507fffffffffffffffffffffffffffffffffffffffffffffffffffffffffffffffff820361520c5761520b61516c565b5b600182019050919050565b7f4e487b7100000000000000000000000000000000000000000000000000000000600052602260045260246000fd5b6000600282049050600182168061525e57607f821691505b60208210810361527157615270615217565b5b50919050565b7f4e487b7100000000000000000000000000000000000000000000000000000000600052603260045260246000fd5b6000815190506152b581614e0f565b92915050565b6000602082840312156152d1576152d0614813565b5b60006152df848285016152a6565b91505092915050565b600082825260208201905092915050565b7f4946420000000000000000000000000000000000000000000000000000000000600082015250565b600061532f6003836152e8565b915061533a826152f9565b602082019050919050565b6000602082019050818103600083015261535e81615322565b9050919050565b60008115159050919050565b61537a81615365565b82525050565b60006060820190506153956000830186615371565b6153a26020830185615371565b6153af6040830184614ef9565b949350505050565b60008190508160005260206000209050919050565b60006020601f8301049050919050565b600082821b905092915050565b6000600883026154197fffffffffffffffffffffffffffffffffffffffffffffffffffffffffffffffff826153dc565b61542386836153dc565b95508019841693508086168417925050509392505050565b600061545661545161544c846148a8565b6150b2565b6148a8565b9050919050565b6000819050919050565b6154708361543b565b61548461547c8261545d565b8484546153e9565b825550505050565b600090565b61549961548c565b6154a4818484615467565b505050565b5b818110156154c8576154bd600082615491565b6001810190506154aa565b5050565b601f82111561550d576154de816153b7565b6154e7846153cc565b810160208510156154f6578190505b61550a615502856153cc565b8301826154a9565b50505b505050565b600082821c905092915050565b600061553060001984600802615512565b1980831691505092915050565b6000615549838361551f565b9150826002028217905092915050565b61556282614aa6565b67ffffffffffffffff81111561557b5761557a6148f7565b5b6155858254615246565b6155908282856154cc565b600060209050601f8311600181146155c357600084156155b1578287015190505b6155bb858261553d565b865550615623565b601f1984166155d1866153b7565b60005b828110156155f9578489015182556001820191506020850194506020810190506155d4565b868310156156165784890151615612601f89168261551f565b8355505b6001600288020188555050505b505050505050565b60006060820190506156406000830186614ef9565b61564d6020830185614ef9565b61565a60408301846148b2565b949350505050565b61566b81615365565b811461567657600080fd5b50565b60008151905061568881615662565b92915050565b6000602082840312156156a4576156a3614813565b5b60006156b284828501615679565b91505092915050565b60006156c682614aa6565b6156d081856152e8565b93506156e0818560208601614ac2565b6156e9816148e6565b840191505092915050565b6000815461570181615246565b61570b81866152e8565b94506001821660008114615726576001811461573c5761576f565b60ff19831686528115156020028601935061576f565b615745856153b7565b60005b8381101561576757815481890152600182019150602081019050615748565b808801955050505b50505092915050565b60006101008201905061578e600083018b614ef9565b81810360208301526157a0818a6156bb565b90506157af60408301896148b2565b6157bc60608301886148b2565b81810360808301526157ce81876156bb565b905081810360a08301526157e281866156bb565b905081810360c08301526157f681856156bb565b905081810360e083015261580a81846156f4565b90509998505050505050505050565b7f496e76616c696400000000000000000000000000000000000000000000000000600082015250565b600061584f6007836152e8565b915061585a82615819565b602082019050919050565b6000602082019050818103600083015261587e81615842565b9050919050565b7f5943525900000000000000000000000000000000000000000000000000000000600082015250565b60006158bb6004836152e8565b91506158c682615885565b602082019050919050565b600060208201905081810360008301526158ea816158ae565b9050919050565b600081549050919050565b60008190508160005260206000209050919050565b60008160001c9050919050565b600073ffffffffffffffffffffffffffffffffffffffff82169050919050565b600061595161594c83615911565b61591e565b9050919050565b6000615964825461593e565b9050919050565b6000600182019050919050565b6000615983826158f1565b61598d8185614e68565b9350615998836158fc565b8060005b838110156159d0576159ad82615958565b6159b78882614b60565b97506159c28361596b565b92505060018101905061599c565b5085935050505092915050565b600060a0820190506159f260008301886148b2565b6159ff60208301876148b2565b615a0c6040830186614ef9565b615a196060830185614ef9565b8181036080830152615a2b8184615978565b90509695505050505050565b600081905092915050565b6000615a4d82614aa6565b615a578185615a37565b9350615a67818560208601614ac2565b80840191505092915050565b6000615a7f8284615a42565b915081905092915050565b60006040820190508181036000830152615aa481856156bb565b9050615ab360208301846148b2565b9392505050565b6000615ac5826148a8565b9150615ad0836148a8565b9250828202615ade816148a8565b91508282048414831517615af557615af461516c565b5b5092915050565b7f4e487b7100000000000000000000000000000000000000000000000000000000600052601260045260246000fd5b6000615b36826148a8565b9150615b41836148a8565b925082615b5157615b50615afc565b5b828204905092915050565b7f4e487b7100000000000000000000000000000000000000000000000000000000600052600160045260246000fdfea26469706673582212200330f9bdee0676f08c3cff345e8762d6a7818d5ea3321ecce815ddee0aec17fc64736f6c63430008140033",
  "linkReferences": {},
  "deployedLinkReferences": {}
}