{
  "_format": "hh-sol-artifact-1",
  "contractName": "FRDBetting",
  "sourceName": "contracts/FRDBetting.sol",
  "abi": [
    {
      "inputs": [
        {
          "internalType": "address",
          "name": "_FifaRewardTokenAddress",
          "type": "address"
        }
      ],
      "stateMutability": "nonpayable",
      "type": "constructor"
    },
    {
      "inputs": [],
      "name": "ReentrancyGuardReentrantCall",
      "type": "error"
    },
    {
      "anonymous": false,
      "inputs": [
        {
          "indexed": true,
          "internalType": "address",
          "name": "betparticipant",
          "type": "address"
        },
        {
          "indexed": false,
          "internalType": "uint256",
          "name": "betamount",
          "type": "uint256"
        },
        {
          "indexed": false,
          "internalType": "uint256",
          "name": "betId",
          "type": "uint256"
        },
        {
          "indexed": false,
          "internalType": "uint256",
          "name": "matchId",
          "type": "uint256"
        },
        {
          "indexed": false,
          "internalType": "string",
          "name": "matchd",
          "type": "string"
        },
        {
          "indexed": false,
          "internalType": "string",
          "name": "prediction",
          "type": "string"
        },
        {
          "indexed": false,
          "internalType": "string",
          "name": "bettingteam",
          "type": "string"
        }
      ],
      "name": "JoinBett",
      "type": "event"
    },
    {
      "anonymous": false,
      "inputs": [
        {
          "indexed": true,
          "internalType": "address",
          "name": "betopener",
          "type": "address"
        },
        {
          "indexed": false,
          "internalType": "uint256",
          "name": "betamount",
          "type": "uint256"
        },
        {
          "indexed": false,
          "internalType": "uint256",
          "name": "betId",
          "type": "uint256"
        },
        {
          "indexed": false,
          "internalType": "uint256",
          "name": "matchId",
          "type": "uint256"
        },
        {
          "indexed": false,
          "internalType": "string",
          "name": "matchd",
          "type": "string"
        },
        {
          "indexed": false,
          "internalType": "string",
          "name": "prediction",
          "type": "string"
        },
        {
          "indexed": false,
          "internalType": "string",
          "name": "bettingteam",
          "type": "string"
        }
      ],
      "name": "OpenBets",
      "type": "event"
    },
    {
      "inputs": [],
      "name": "FifaRewardTokenContract",
      "outputs": [
        {
          "internalType": "contract IERC20",
          "name": "",
          "type": "address"
        }
      ],
      "stateMutability": "view",
      "type": "function"
    },
    {
      "inputs": [
        {
          "internalType": "uint256",
          "name": "betamount",
          "type": "uint256"
        },
        {
          "internalType": "uint256",
          "name": "matchId",
          "type": "uint256"
        },
        {
          "internalType": "uint256",
          "name": "betId",
          "type": "uint256"
        },
        {
          "internalType": "string",
          "name": "matchd",
          "type": "string"
        },
        {
          "internalType": "address",
          "name": "betparticipant",
          "type": "address"
        },
        {
          "internalType": "string",
          "name": "prediction",
          "type": "string"
        },
        {
          "internalType": "string",
          "name": "bettingteam",
          "type": "string"
        }
      ],
      "name": "JoinBet",
      "outputs": [],
      "stateMutability": "nonpayable",
      "type": "function"
    },
    {
      "inputs": [
        {
          "internalType": "uint256",
          "name": "betamount",
          "type": "uint256"
        },
        {
          "internalType": "uint256",
          "name": "matchId",
          "type": "uint256"
        },
        {
          "internalType": "uint256",
          "name": "betId",
          "type": "uint256"
        },
        {
          "internalType": "string",
          "name": "matchd",
          "type": "string"
        },
        {
          "internalType": "address",
          "name": "betopener",
          "type": "address"
        },
        {
          "internalType": "string",
          "name": "prediction",
          "type": "string"
        },
        {
          "internalType": "string",
          "name": "bettingteam",
          "type": "string"
        },
        {
          "internalType": "uint256",
          "name": "totalbetparticipantscount",
          "type": "uint256"
        },
        {
          "internalType": "uint256",
          "name": "remainingparticipantscount",
          "type": "uint256"
        }
      ],
      "name": "OpenBet",
      "outputs": [],
      "stateMutability": "nonpayable",
      "type": "function"
    },
    {
      "inputs": [
        {
          "internalType": "uint256",
          "name": "betId",
          "type": "uint256"
        }
      ],
      "name": "getBetParticipants",
      "outputs": [
        {
          "internalType": "address[]",
          "name": "",
          "type": "address[]"
        }
      ],
      "stateMutability": "view",
      "type": "function"
    },
    {
      "inputs": [],
      "name": "myTokenBalance",
      "outputs": [
        {
          "internalType": "uint256",
          "name": "",
          "type": "uint256"
        }
      ],
      "stateMutability": "view",
      "type": "function"
    },
    {
      "inputs": [],
      "name": "showcontractAddress",
      "outputs": [
        {
          "internalType": "address",
          "name": "",
          "type": "address"
        }
      ],
      "stateMutability": "view",
      "type": "function"
    }
  ],
  "bytecode": "0x6080604052426002553480156200001557600080fd5b5060405162001eed38038062001eed83398181016040528101906200003b919062000136565b600160008190555080600360006101000a81548173ffffffffffffffffffffffffffffffffffffffff021916908373ffffffffffffffffffffffffffffffffffffffff16021790555033600460006101000a81548173ffffffffffffffffffffffffffffffffffffffff021916908373ffffffffffffffffffffffffffffffffffffffff1602179055505062000168565b600080fd5b600073ffffffffffffffffffffffffffffffffffffffff82169050919050565b6000620000fe82620000d1565b9050919050565b6200011081620000f1565b81146200011c57600080fd5b50565b600081519050620001308162000105565b92915050565b6000602082840312156200014f576200014e620000cc565b5b60006200015f848285016200011f565b91505092915050565b611d7580620001786000396000f3fe608060405234801561001057600080fd5b50600436106100625760003560e01c80631eb47787146100675780635e6ba54914610083578063649fda29146100a157806388aff586146100bf578063bc982052146100dd578063c5684099146100f9575b600080fd5b610081600480360381019061007c91906112a8565b610129565b005b61008b610756565b60405161009891906113ad565b60405180910390f35b6100a961079d565b6040516100b691906113d7565b60405180910390f35b6100c76107a5565b6040516100d49190611451565b60405180910390f35b6100f760048036038101906100f2919061146c565b6107cb565b005b610113600480360381019061010e919061158a565b610fbc565b6040516101209190611675565b60405180910390f35b610131610fc3565b600073ffffffffffffffffffffffffffffffffffffffff168373ffffffffffffffffffffffffffffffffffffffff16036101a0576040517f08c379a0000000000000000000000000000000000000000000000000000000008152600401610197906116f4565b60405180910390fd5b600087116101e3576040517f08c379a00000000000000000000000000000000000000000000000000000000081526004016101da90611760565b60405180910390fd5b86600360009054906101000a900473ffffffffffffffffffffffffffffffffffffffff1673ffffffffffffffffffffffffffffffffffffffff166370a08231336040518263ffffffff1660e01b815260040161023f91906113d7565b602060405180830381865afa15801561025c573d6000803e3d6000fd5b505050506040513d601f19601f820116820180604052508101906102809190611795565b10156102c1576040517f08c379a00000000000000000000000000000000000000000000000000000000081526004016102b890611834565b60405180910390fd5b60018060008282546102d39190611883565b925050819055506000600154905080600960008673ffffffffffffffffffffffffffffffffffffffff1673ffffffffffffffffffffffffffffffffffffffff1681526020019081526020016000206000018190555085600960008673ffffffffffffffffffffffffffffffffffffffff1673ffffffffffffffffffffffffffffffffffffffff1681526020019081526020016000206001018190555086600960008673ffffffffffffffffffffffffffffffffffffffff1673ffffffffffffffffffffffffffffffffffffffff1681526020019081526020016000206002018190555084600960008673ffffffffffffffffffffffffffffffffffffffff1673ffffffffffffffffffffffffffffffffffffffff16815260200190815260200160002060030190816104059190611ac4565b5087600960008673ffffffffffffffffffffffffffffffffffffffff1673ffffffffffffffffffffffffffffffffffffffff1681526020019081526020016000206005018190555083600960008673ffffffffffffffffffffffffffffffffffffffff1673ffffffffffffffffffffffffffffffffffffffff16815260200190815260200160002060040160006101000a81548173ffffffffffffffffffffffffffffffffffffffff021916908373ffffffffffffffffffffffffffffffffffffffff16021790555082600960008673ffffffffffffffffffffffffffffffffffffffff1673ffffffffffffffffffffffffffffffffffffffff168152602001908152602001600020600801908161051d9190611ac4565b5081600960008673ffffffffffffffffffffffffffffffffffffffff1673ffffffffffffffffffffffffffffffffffffffff168152602001908152602001600020600901908161056d9190611ac4565b506040518060400160405280600481526020017f6f70656e00000000000000000000000000000000000000000000000000000000815250600960008673ffffffffffffffffffffffffffffffffffffffff1673ffffffffffffffffffffffffffffffffffffffff168152602001908152602001600020600a0190816105f29190611ac4565b5087600760003373ffffffffffffffffffffffffffffffffffffffff1673ffffffffffffffffffffffffffffffffffffffff16815260200190815260200160002060008282546106429190611b96565b92505081905550600360009054906101000a900473ffffffffffffffffffffffffffffffffffffffff1673ffffffffffffffffffffffffffffffffffffffff166323b872dd33308b6040518463ffffffff1660e01b81526004016106a893929190611bca565b6020604051808303816000875af11580156106c7573d6000803e3d6000fd5b505050506040513d601f19601f820116820180604052508101906106eb9190611c39565b508373ffffffffffffffffffffffffffffffffffffffff167f5838b66802fb49ecb036950b615719bfd5c0b293a97dbc8b0b1fbb278b8223b189888a89888860405161073c96959493929190611cc9565b60405180910390a25061074d611009565b50505050505050565b6000600760003373ffffffffffffffffffffffffffffffffffffffff1673ffffffffffffffffffffffffffffffffffffffff16815260200190815260200160002054905090565b600030905090565b600360009054906101000a900473ffffffffffffffffffffffffffffffffffffffff1681565b6107d3610fc3565b600073ffffffffffffffffffffffffffffffffffffffff168573ffffffffffffffffffffffffffffffffffffffff1603610842576040517f08c379a0000000000000000000000000000000000000000000000000000000008152600401610839906116f4565b60405180910390fd5b60008911610885576040517f08c379a000000000000000000000000000000000000000000000000000000000815260040161087c90611760565b60405180910390fd5b88600360009054906101000a900473ffffffffffffffffffffffffffffffffffffffff1673ffffffffffffffffffffffffffffffffffffffff166370a08231336040518263ffffffff1660e01b81526004016108e191906113d7565b602060405180830381865afa1580156108fe573d6000803e3d6000fd5b505050506040513d601f19601f820116820180604052508101906109229190611795565b1015610963576040517f08c379a000000000000000000000000000000000000000000000000000000000815260040161095a90611834565b60405180910390fd5b60018060008282546109759190611883565b92505081905550600060015490506000600960008873ffffffffffffffffffffffffffffffffffffffff1673ffffffffffffffffffffffffffffffffffffffff168152602001908152602001600020600b01905080879080600181540180825580915050600190039060005260206000200160009091909190916101000a81548173ffffffffffffffffffffffffffffffffffffffff021916908373ffffffffffffffffffffffffffffffffffffffff160217905550604051806101c001604052808381526020018a81526020018b81526020018981526020018873ffffffffffffffffffffffffffffffffffffffff1681526020018c81526020018581526020018481526020018781526020018681526020016040518060400160405280600481526020017f6f70656e00000000000000000000000000000000000000000000000000000000815250815260200182805480602002602001604051908101604052809291908181526020018280548015610b4557602002820191906000526020600020905b8160009054906101000a900473ffffffffffffffffffffffffffffffffffffffff1673ffffffffffffffffffffffffffffffffffffffff1681526020019060010190808311610afb575b505050505081526020016005805480602002602001604051908101604052809291908181526020018280548015610bd157602002820191906000526020600020905b8160009054906101000a900473ffffffffffffffffffffffffffffffffffffffff1673ffffffffffffffffffffffffffffffffffffffff1681526020019060010190808311610b87575b505050505081526020016005805480602002602001604051908101604052809291908181526020018280548015610c5d57602002820191906000526020600020905b8160009054906101000a900473ffffffffffffffffffffffffffffffffffffffff1673ffffffffffffffffffffffffffffffffffffffff1681526020019060010190808311610c13575b5050505050815250600860008481526020019081526020016000206000820151816000015560208201518160010155604082015181600201556060820151816003019081610cab9190611ac4565b5060808201518160040160006101000a81548173ffffffffffffffffffffffffffffffffffffffff021916908373ffffffffffffffffffffffffffffffffffffffff16021790555060a0820151816005015560c0820151816006015560e08201518160070155610100820151816008019081610d279190611ac4565b50610120820151816009019081610d3e9190611ac4565b5061014082015181600a019081610d559190611ac4565b5061016082015181600b019080519060200190610d73929190611013565b5061018082015181600c019080519060200190610d91929190611013565b506101a082015181600d019080519060200190610daf929190611013565b50905050600960008873ffffffffffffffffffffffffffffffffffffffff1673ffffffffffffffffffffffffffffffffffffffff168152602001908152602001600020600b01879080600181540180825580915050600190039060005260206000200160009091909190916101000a81548173ffffffffffffffffffffffffffffffffffffffff021916908373ffffffffffffffffffffffffffffffffffffffff1602179055508a600760003373ffffffffffffffffffffffffffffffffffffffff1673ffffffffffffffffffffffffffffffffffffffff1681526020019081526020016000206000828254610ea59190611b96565b92505081905550600360009054906101000a900473ffffffffffffffffffffffffffffffffffffffff1673ffffffffffffffffffffffffffffffffffffffff166323b872dd33308e6040518463ffffffff1660e01b8152600401610f0b93929190611bca565b6020604051808303816000875af1158015610f2a573d6000803e3d6000fd5b505050506040513d601f19601f82011682018060405250810190610f4e9190611c39565b508673ffffffffffffffffffffffffffffffffffffffff167fe4e3c05d30f0d0e5c815245956959cc0c38b3c148c8ea42a3f5749f2308c43a38c8b8d8c8b8b604051610f9f96959493929190611cc9565b60405180910390a25050610fb1611009565b505050505050505050565b6060919050565b600260005403610fff576040517f3ee5aeb500000000000000000000000000000000000000000000000000000000815260040160405180910390fd5b6002600081905550565b6001600081905550565b82805482825590600052602060002090810192821561108c579160200282015b8281111561108b5782518260006101000a81548173ffffffffffffffffffffffffffffffffffffffff021916908373ffffffffffffffffffffffffffffffffffffffff16021790555091602001919060010190611033565b5b509050611099919061109d565b5090565b5b808211156110b657600081600090555060010161109e565b5090565b6000604051905090565b600080fd5b600080fd5b6000819050919050565b6110e1816110ce565b81146110ec57600080fd5b50565b6000813590506110fe816110d8565b92915050565b600080fd5b600080fd5b6000601f19601f8301169050919050565b7f4e487b7100000000000000000000000000000000000000000000000000000000600052604160045260246000fd5b6111578261110e565b810181811067ffffffffffffffff821117156111765761117561111f565b5b80604052505050565b60006111896110ba565b9050611195828261114e565b919050565b600067ffffffffffffffff8211156111b5576111b461111f565b5b6111be8261110e565b9050602081019050919050565b82818337600083830152505050565b60006111ed6111e88461119a565b61117f565b90508281526020810184848401111561120957611208611109565b5b6112148482856111cb565b509392505050565b600082601f83011261123157611230611104565b5b81356112418482602086016111da565b91505092915050565b600073ffffffffffffffffffffffffffffffffffffffff82169050919050565b60006112758261124a565b9050919050565b6112858161126a565b811461129057600080fd5b50565b6000813590506112a28161127c565b92915050565b600080600080600080600060e0888a0312156112c7576112c66110c4565b5b60006112d58a828b016110ef565b97505060206112e68a828b016110ef565b96505060406112f78a828b016110ef565b955050606088013567ffffffffffffffff811115611318576113176110c9565b5b6113248a828b0161121c565b94505060806113358a828b01611293565b93505060a088013567ffffffffffffffff811115611356576113556110c9565b5b6113628a828b0161121c565b92505060c088013567ffffffffffffffff811115611383576113826110c9565b5b61138f8a828b0161121c565b91505092959891949750929550565b6113a7816110ce565b82525050565b60006020820190506113c2600083018461139e565b92915050565b6113d18161126a565b82525050565b60006020820190506113ec60008301846113c8565b92915050565b6000819050919050565b600061141761141261140d8461124a565b6113f2565b61124a565b9050919050565b6000611429826113fc565b9050919050565b600061143b8261141e565b9050919050565b61144b81611430565b82525050565b60006020820190506114666000830184611442565b92915050565b60008060008060008060008060006101208a8c03121561148f5761148e6110c4565b5b600061149d8c828d016110ef565b99505060206114ae8c828d016110ef565b98505060406114bf8c828d016110ef565b97505060608a013567ffffffffffffffff8111156114e0576114df6110c9565b5b6114ec8c828d0161121c565b96505060806114fd8c828d01611293565b95505060a08a013567ffffffffffffffff81111561151e5761151d6110c9565b5b61152a8c828d0161121c565b94505060c08a013567ffffffffffffffff81111561154b5761154a6110c9565b5b6115578c828d0161121c565b93505060e06115688c828d016110ef565b92505061010061157a8c828d016110ef565b9150509295985092959850929598565b6000602082840312156115a05761159f6110c4565b5b60006115ae848285016110ef565b91505092915050565b600081519050919050565b600082825260208201905092915050565b6000819050602082019050919050565b6115ec8161126a565b82525050565b60006115fe83836115e3565b60208301905092915050565b6000602082019050919050565b6000611622826115b7565b61162c81856115c2565b9350611637836115d3565b8060005b8381101561166857815161164f88826115f2565b975061165a8361160a565b92505060018101905061163b565b5085935050505092915050565b6000602082019050818103600083015261168f8184611617565b905092915050565b600082825260208201905092915050565b7f557365722063616e6e6f742062652061207a65726f2061646472657373000000600082015250565b60006116de601d83611697565b91506116e9826116a8565b602082019050919050565b6000602082019050818103600083015261170d816116d1565b9050919050565b7f416d6f756e74206d7573742062652067726561746572207468616e2030000000600082015250565b600061174a601d83611697565b915061175582611714565b602082019050919050565b600060208201905081810360008301526117798161173d565b9050919050565b60008151905061178f816110d8565b92915050565b6000602082840312156117ab576117aa6110c4565b5b60006117b984828501611780565b91505092915050565b7f496e73756666696369656e742046696661526577617264546f6b656e2062616c60008201527f616e636500000000000000000000000000000000000000000000000000000000602082015250565b600061181e602483611697565b9150611829826117c2565b604082019050919050565b6000602082019050818103600083015261184d81611811565b9050919050565b7f4e487b7100000000000000000000000000000000000000000000000000000000600052601160045260246000fd5b600061188e826110ce565b9150611899836110ce565b92508282019050808211156118b1576118b0611854565b5b92915050565b600081519050919050565b7f4e487b7100000000000000000000000000000000000000000000000000000000600052602260045260246000fd5b6000600282049050600182168061190957607f821691505b60208210810361191c5761191b6118c2565b5b50919050565b60008190508160005260206000209050919050565b60006020601f8301049050919050565b600082821b905092915050565b6000600883026119847fffffffffffffffffffffffffffffffffffffffffffffffffffffffffffffffff82611947565b61198e8683611947565b95508019841693508086168417925050509392505050565b60006119c16119bc6119b7846110ce565b6113f2565b6110ce565b9050919050565b6000819050919050565b6119db836119a6565b6119ef6119e7826119c8565b848454611954565b825550505050565b600090565b611a046119f7565b611a0f8184846119d2565b505050565b5b81811015611a3357611a286000826119fc565b600181019050611a15565b5050565b601f821115611a7857611a4981611922565b611a5284611937565b81016020851015611a61578190505b611a75611a6d85611937565b830182611a14565b50505b505050565b600082821c905092915050565b6000611a9b60001984600802611a7d565b1980831691505092915050565b6000611ab48383611a8a565b9150826002028217905092915050565b611acd826118b7565b67ffffffffffffffff811115611ae657611ae561111f565b5b611af082546118f1565b611afb828285611a37565b600060209050601f831160018114611b2e5760008415611b1c578287015190505b611b268582611aa8565b865550611b8e565b601f198416611b3c86611922565b60005b82811015611b6457848901518255600182019150602085019450602081019050611b3f565b86831015611b815784890151611b7d601f891682611a8a565b8355505b6001600288020188555050505b505050505050565b6000611ba1826110ce565b9150611bac836110ce565b9250828203905081811115611bc457611bc3611854565b5b92915050565b6000606082019050611bdf60008301866113c8565b611bec60208301856113c8565b611bf9604083018461139e565b949350505050565b60008115159050919050565b611c1681611c01565b8114611c2157600080fd5b50565b600081519050611c3381611c0d565b92915050565b600060208284031215611c4f57611c4e6110c4565b5b6000611c5d84828501611c24565b91505092915050565b60005b83811015611c84578082015181840152602081019050611c69565b60008484015250505050565b6000611c9b826118b7565b611ca58185611697565b9350611cb5818560208601611c66565b611cbe8161110e565b840191505092915050565b600060c082019050611cde600083018961139e565b611ceb602083018861139e565b611cf8604083018761139e565b8181036060830152611d0a8186611c90565b90508181036080830152611d1e8185611c90565b905081810360a0830152611d328184611c90565b905097965050505050505056fea2646970667358221220fd25dfab793375f826381eb3ff5b072907e0440f0dcd3f1cffe6f1b555246b8d64736f6c63430008140033",
  "linkReferences": {},
  "deployedLinkReferences": {}
}