{
  "_format": "hh-sol-artifact-1",
  "contractName": "FRDBetting",
  "sourceName": "contracts/FRDBetting.sol",
  "abi": [
    {
      "inputs": [
        {
          "internalType": "address",
          "name": "_FifaRewardTokenAddress",
          "type": "address"
        }
      ],
      "stateMutability": "nonpayable",
      "type": "constructor"
    },
    {
      "inputs": [],
      "name": "ReentrancyGuardReentrantCall",
      "type": "error"
    },
    {
      "anonymous": false,
      "inputs": [
        {
          "indexed": false,
          "internalType": "uint256",
          "name": "betId",
          "type": "uint256"
        },
        {
          "indexed": false,
          "internalType": "uint256",
          "name": "matchId",
          "type": "uint256"
        },
        {
          "indexed": false,
          "internalType": "address",
          "name": "openedBy",
          "type": "address"
        }
      ],
      "name": "BetCreated",
      "type": "event"
    },
    {
      "anonymous": false,
      "inputs": [
        {
          "indexed": false,
          "internalType": "uint256",
          "name": "betId",
          "type": "uint256"
        },
        {
          "indexed": false,
          "internalType": "address",
          "name": "user",
          "type": "address"
        },
        {
          "indexed": false,
          "internalType": "string",
          "name": "prediction",
          "type": "string"
        },
        {
          "indexed": false,
          "internalType": "string",
          "name": "team",
          "type": "string"
        }
      ],
      "name": "PredictionSubmitted",
      "type": "event"
    },
    {
      "anonymous": false,
      "inputs": [
        {
          "indexed": true,
          "internalType": "address",
          "name": "sponsor",
          "type": "address"
        },
        {
          "indexed": false,
          "internalType": "uint256",
          "name": "amount",
          "type": "uint256"
        }
      ],
      "name": "ReferralRewardClaimed",
      "type": "event"
    },
    {
      "anonymous": false,
      "inputs": [
        {
          "indexed": false,
          "internalType": "uint256",
          "name": "userId",
          "type": "uint256"
        },
        {
          "indexed": true,
          "internalType": "address",
          "name": "user",
          "type": "address"
        },
        {
          "indexed": false,
          "internalType": "address[]",
          "name": "referrals",
          "type": "address[]"
        }
      ],
      "name": "UserRegistered",
      "type": "event"
    },
    {
      "inputs": [],
      "name": "FifaRewardTokenContract",
      "outputs": [
        {
          "internalType": "contract IERC20",
          "name": "",
          "type": "address"
        }
      ],
      "stateMutability": "view",
      "type": "function"
    },
    {
      "inputs": [
        {
          "internalType": "address",
          "name": "sponsorAddress",
          "type": "address"
        },
        {
          "internalType": "address",
          "name": "downlineAddress",
          "type": "address"
        },
        {
          "internalType": "string",
          "name": "username",
          "type": "string"
        }
      ],
      "name": "addReferral",
      "outputs": [],
      "stateMutability": "nonpayable",
      "type": "function"
    },
    {
      "inputs": [
        {
          "internalType": "uint256",
          "name": "betamount",
          "type": "uint256"
        },
        {
          "internalType": "string",
          "name": "prediction",
          "type": "string"
        },
        {
          "internalType": "string",
          "name": "bettingteam",
          "type": "string"
        },
        {
          "internalType": "string",
          "name": "username",
          "type": "string"
        },
        {
          "internalType": "uint256",
          "name": "_matchId",
          "type": "uint256"
        },
        {
          "internalType": "uint256",
          "name": "_uniquebetId",
          "type": "uint256"
        },
        {
          "internalType": "string",
          "name": "_matchfixture",
          "type": "string"
        },
        {
          "internalType": "address",
          "name": "openedby",
          "type": "address"
        },
        {
          "internalType": "uint256",
          "name": "_totalbetparticipantscount",
          "type": "uint256"
        }
      ],
      "name": "createBet",
      "outputs": [],
      "stateMutability": "nonpayable",
      "type": "function"
    },
    {
      "inputs": [],
      "name": "feeWallet",
      "outputs": [
        {
          "internalType": "address",
          "name": "",
          "type": "address"
        }
      ],
      "stateMutability": "view",
      "type": "function"
    },
    {
      "inputs": [],
      "name": "getAllBetIdsCount",
      "outputs": [
        {
          "internalType": "uint256",
          "name": "",
          "type": "uint256"
        }
      ],
      "stateMutability": "view",
      "type": "function"
    },
    {
      "inputs": [
        {
          "internalType": "address",
          "name": "_user",
          "type": "address"
        }
      ],
      "name": "getBetIdsCreatedByUser",
      "outputs": [
        {
          "internalType": "uint256[]",
          "name": "",
          "type": "uint256[]"
        }
      ],
      "stateMutability": "view",
      "type": "function"
    },
    {
      "inputs": [
        {
          "internalType": "address",
          "name": "_user",
          "type": "address"
        }
      ],
      "name": "getBetIdsCreatedByUserCount",
      "outputs": [
        {
          "internalType": "uint256",
          "name": "",
          "type": "uint256"
        }
      ],
      "stateMutability": "view",
      "type": "function"
    },
    {
      "inputs": [
        {
          "internalType": "address",
          "name": "_user",
          "type": "address"
        }
      ],
      "name": "getBetIdsUserJoined",
      "outputs": [
        {
          "internalType": "uint256[]",
          "name": "",
          "type": "uint256[]"
        }
      ],
      "stateMutability": "view",
      "type": "function"
    },
    {
      "inputs": [
        {
          "internalType": "address",
          "name": "_user",
          "type": "address"
        }
      ],
      "name": "getBetIdsUserJoinedCount",
      "outputs": [
        {
          "internalType": "uint256",
          "name": "",
          "type": "uint256"
        }
      ],
      "stateMutability": "view",
      "type": "function"
    },
    {
      "inputs": [
        {
          "internalType": "uint256",
          "name": "_betId",
          "type": "uint256"
        }
      ],
      "name": "getBetsMapping",
      "outputs": [
        {
          "components": [
            {
              "internalType": "uint256",
              "name": "betId",
              "type": "uint256"
            },
            {
              "internalType": "uint256",
              "name": "matchId",
              "type": "uint256"
            },
            {
              "internalType": "uint256",
              "name": "uniquebetId",
              "type": "uint256"
            },
            {
              "internalType": "uint256",
              "name": "betamount",
              "type": "uint256"
            },
            {
              "internalType": "string",
              "name": "matchfixture",
              "type": "string"
            },
            {
              "internalType": "address",
              "name": "openedBy",
              "type": "address"
            },
            {
              "internalType": "string",
              "name": "betstatus",
              "type": "string"
            },
            {
              "internalType": "uint256",
              "name": "totalbetparticipantscount",
              "type": "uint256"
            },
            {
              "internalType": "uint256",
              "name": "remainingparticipantscount",
              "type": "uint256"
            },
            {
              "internalType": "address[]",
              "name": "participants",
              "type": "address[]"
            },
            {
              "internalType": "address[]",
              "name": "betwinners",
              "type": "address[]"
            },
            {
              "internalType": "address[]",
              "name": "betlosers",
              "type": "address[]"
            }
          ],
          "internalType": "struct Bet",
          "name": "",
          "type": "tuple"
        }
      ],
      "stateMutability": "view",
      "type": "function"
    },
    {
      "inputs": [
        {
          "internalType": "uint256",
          "name": "_betId",
          "type": "uint256"
        }
      ],
      "name": "getLosers",
      "outputs": [
        {
          "internalType": "address[]",
          "name": "",
          "type": "address[]"
        }
      ],
      "stateMutability": "view",
      "type": "function"
    },
    {
      "inputs": [
        {
          "internalType": "uint256",
          "name": "_betId",
          "type": "uint256"
        },
        {
          "internalType": "string",
          "name": "_bettingteam",
          "type": "string"
        },
        {
          "internalType": "string",
          "name": "_prediction",
          "type": "string"
        }
      ],
      "name": "getPredictionCount",
      "outputs": [
        {
          "internalType": "uint256",
          "name": "",
          "type": "uint256"
        }
      ],
      "stateMutability": "view",
      "type": "function"
    },
    {
      "inputs": [
        {
          "internalType": "uint256",
          "name": "_betId",
          "type": "uint256"
        }
      ],
      "name": "getPredictions",
      "outputs": [
        {
          "components": [
            {
              "internalType": "string",
              "name": "username",
              "type": "string"
            },
            {
              "internalType": "uint256",
              "name": "betamount",
              "type": "uint256"
            },
            {
              "internalType": "uint256",
              "name": "predictioncount",
              "type": "uint256"
            },
            {
              "internalType": "bool",
              "name": "hasjoinedthisbet",
              "type": "bool"
            },
            {
              "internalType": "string",
              "name": "prediction",
              "type": "string"
            },
            {
              "internalType": "string",
              "name": "bettingteam",
              "type": "string"
            }
          ],
          "internalType": "struct ParticipantsBetDetails[]",
          "name": "",
          "type": "tuple[]"
        }
      ],
      "stateMutability": "view",
      "type": "function"
    },
    {
      "inputs": [
        {
          "internalType": "address",
          "name": "sponsor",
          "type": "address"
        }
      ],
      "name": "getReferrals",
      "outputs": [
        {
          "internalType": "address[]",
          "name": "",
          "type": "address[]"
        }
      ],
      "stateMutability": "view",
      "type": "function"
    },
    {
      "inputs": [
        {
          "internalType": "address",
          "name": "_user",
          "type": "address"
        }
      ],
      "name": "getUserRegistrationDetails",
      "outputs": [
        {
          "components": [
            {
              "internalType": "uint256",
              "name": "userId",
              "type": "uint256"
            },
            {
              "internalType": "string",
              "name": "username",
              "type": "string"
            },
            {
              "internalType": "uint256",
              "name": "betCount",
              "type": "uint256"
            },
            {
              "internalType": "bool",
              "name": "hasActiveBet",
              "type": "bool"
            },
            {
              "internalType": "uint256",
              "name": "refCount",
              "type": "uint256"
            },
            {
              "internalType": "bool",
              "name": "registered",
              "type": "bool"
            },
            {
              "internalType": "bool",
              "name": "wasReferred",
              "type": "bool"
            },
            {
              "internalType": "address",
              "name": "sponsor",
              "type": "address"
            },
            {
              "internalType": "address",
              "name": "useraddress",
              "type": "address"
            },
            {
              "internalType": "address[]",
              "name": "referrals",
              "type": "address[]"
            }
          ],
          "internalType": "struct User",
          "name": "",
          "type": "tuple"
        }
      ],
      "stateMutability": "view",
      "type": "function"
    },
    {
      "inputs": [
        {
          "internalType": "uint256",
          "name": "_betId",
          "type": "uint256"
        }
      ],
      "name": "getWinners",
      "outputs": [
        {
          "internalType": "address[]",
          "name": "",
          "type": "address[]"
        }
      ],
      "stateMutability": "view",
      "type": "function"
    },
    {
      "inputs": [
        {
          "internalType": "uint256",
          "name": "_betId",
          "type": "uint256"
        }
      ],
      "name": "getbetParticipants",
      "outputs": [
        {
          "internalType": "address[]",
          "name": "",
          "type": "address[]"
        }
      ],
      "stateMutability": "view",
      "type": "function"
    },
    {
      "inputs": [
        {
          "internalType": "uint256",
          "name": "_betId",
          "type": "uint256"
        }
      ],
      "name": "getbetParticipantsCount",
      "outputs": [
        {
          "internalType": "uint256",
          "name": "",
          "type": "uint256"
        }
      ],
      "stateMutability": "view",
      "type": "function"
    },
    {
      "inputs": [
        {
          "internalType": "address",
          "name": "sponsor",
          "type": "address"
        }
      ],
      "name": "getsponsorReferralRewards",
      "outputs": [
        {
          "components": [
            {
              "internalType": "uint256",
              "name": "refrewardId",
              "type": "uint256"
            },
            {
              "internalType": "uint256",
              "name": "betId",
              "type": "uint256"
            },
            {
              "internalType": "address",
              "name": "sponsor",
              "type": "address"
            },
            {
              "internalType": "uint256",
              "name": "rewardamount",
              "type": "uint256"
            },
            {
              "internalType": "bool",
              "name": "rewardrecieved",
              "type": "bool"
            }
          ],
          "internalType": "struct ReferralReward[]",
          "name": "",
          "type": "tuple[]"
        }
      ],
      "stateMutability": "view",
      "type": "function"
    },
    {
      "inputs": [
        {
          "internalType": "address",
          "name": "wallet",
          "type": "address"
        }
      ],
      "name": "myTokenBalance",
      "outputs": [
        {
          "internalType": "uint256",
          "name": "",
          "type": "uint256"
        }
      ],
      "stateMutability": "view",
      "type": "function"
    },
    {
      "inputs": [],
      "name": "nextBetId",
      "outputs": [
        {
          "internalType": "uint256",
          "name": "",
          "type": "uint256"
        }
      ],
      "stateMutability": "view",
      "type": "function"
    },
    {
      "inputs": [],
      "name": "nextReferralRewardId",
      "outputs": [
        {
          "internalType": "uint256",
          "name": "",
          "type": "uint256"
        }
      ],
      "stateMutability": "view",
      "type": "function"
    },
    {
      "inputs": [],
      "name": "nextUserId",
      "outputs": [
        {
          "internalType": "uint256",
          "name": "",
          "type": "uint256"
        }
      ],
      "stateMutability": "view",
      "type": "function"
    },
    {
      "inputs": [
        {
          "internalType": "uint256",
          "name": "_matchId",
          "type": "uint256"
        },
        {
          "internalType": "string",
          "name": "_result",
          "type": "string"
        },
        {
          "internalType": "string",
          "name": "_bettingteam",
          "type": "string"
        }
      ],
      "name": "processMatchResults",
      "outputs": [],
      "stateMutability": "nonpayable",
      "type": "function"
    },
    {
      "inputs": [
        {
          "internalType": "uint256",
          "name": "_betId",
          "type": "uint256"
        },
        {
          "internalType": "uint256",
          "name": "betamount",
          "type": "uint256"
        },
        {
          "internalType": "string",
          "name": "username",
          "type": "string"
        },
        {
          "internalType": "string",
          "name": "_prediction",
          "type": "string"
        },
        {
          "internalType": "string",
          "name": "_team",
          "type": "string"
        }
      ],
      "name": "submitPrediction",
      "outputs": [],
      "stateMutability": "nonpayable",
      "type": "function"
    },
    {
      "inputs": [
        {
          "internalType": "address",
          "name": "receiver",
          "type": "address"
        }
      ],
      "name": "transferToken",
      "outputs": [],
      "stateMutability": "nonpayable",
      "type": "function"
    },
    {
      "inputs": [
        {
          "internalType": "string",
          "name": "username",
          "type": "string"
        }
      ],
      "name": "updateUsername",
      "outputs": [],
      "stateMutability": "nonpayable",
      "type": "function"
    },
    {
      "inputs": [
        {
          "internalType": "uint256",
          "name": "",
          "type": "uint256"
        }
      ],
      "name": "userIdToAddress",
      "outputs": [
        {
          "internalType": "address",
          "name": "",
          "type": "address"
        }
      ],
      "stateMutability": "view",
      "type": "function"
    }
  ],
  "bytecode": "0x60806040524260015573bcceb2145266639e0c39101d48b79b6c694a84dc600960006101000a81548173ffffffffffffffffffffffffffffffffffffffff021916908373ffffffffffffffffffffffffffffffffffffffff1602179055503480156200006a57600080fd5b50604051620060e3380380620060e383398181016040528101906200009091906200018b565b600160008190555080600260006101000a81548173ffffffffffffffffffffffffffffffffffffffff021916908373ffffffffffffffffffffffffffffffffffffffff16021790555033600760006101000a81548173ffffffffffffffffffffffffffffffffffffffff021916908373ffffffffffffffffffffffffffffffffffffffff16021790555050620001bd565b600080fd5b600073ffffffffffffffffffffffffffffffffffffffff82169050919050565b6000620001538262000126565b9050919050565b620001658162000146565b81146200017157600080fd5b50565b60008151905062000185816200015a565b92915050565b600060208284031215620001a457620001a362000121565b5b6000620001b48482850162000174565b91505092915050565b615f1680620001cd6000396000f3fe608060405234801561001057600080fd5b50600436106101c45760003560e01c8063a21c2735116100f9578063d64bed5a11610097578063deebeac911610071578063deebeac91461058b578063eb6821a5146105a7578063f1813d51146105d7578063f25f4b5614610607576101c4565b8063d64bed5a1461050f578063d98716c41461053f578063db8e19a51461055b576101c4565b8063b7ae2340116100d3578063b7ae23401461048b578063b9097cc4146104bb578063c96cea70146104d7578063ce39fdea146104f3576101c4565b8063a21c27351461040f578063b16952011461043f578063b281dfd01461046f576101c4565b80637b414882116101665780638baa563d116101405780638baa563d146103855780639aca2792146103b5578063a19e9555146103d3578063a1e6a255146103f1576101c4565b80637b4148821461030757806388aff586146103375780638af78b3a14610355576101c4565b80634ddfc302116101a25780634ddfc30214610259578063531eb077146102895780636b1426a4146102b95780636b3b5c59146102e9576101c4565b8063022bd8bf146101c95780630340f124146101f957806341a0894d14610229575b600080fd5b6101e360048036038101906101de9190614208565b610625565b6040516101f091906142fd565b60405180910390f35b610213600480360381019061020e9190614208565b6106bc565b6040516102209190614460565b60405180910390f35b610243600480360381019061023e9190614208565b6108b9565b6040516102509190614531565b60405180910390f35b610273600480360381019061026e919061457f565b610989565b60405161028091906147cb565b60405180910390f35b6102a3600480360381019061029e9190614208565b610d17565b6040516102b091906148ce565b60405180910390f35b6102d360048036038101906102ce919061457f565b610fac565b6040516102e09190614531565b60405180910390f35b6102f16110a8565b6040516102fe91906148ff565b60405180910390f35b610321600480360381019061031c9190614208565b6110b2565b60405161032e91906142fd565b60405180910390f35b61033f611149565b60405161034c9190614979565b60405180910390f35b61036f600480360381019061036a919061457f565b61116f565b60405161037c91906148ff565b60405180910390f35b61039f600480360381019061039a919061457f565b611192565b6040516103ac9190614531565b60405180910390f35b6103bd61128e565b6040516103ca91906148ff565b60405180910390f35b6103db611294565b6040516103e891906148ff565b60405180910390f35b6103f961129a565b60405161040691906148ff565b60405180910390f35b61042960048036038101906104249190614208565b6112a0565b60405161043691906148ff565b60405180910390f35b6104596004803603810190610454919061457f565b611345565b60405161046691906149a3565b60405180910390f35b61048960048036038101906104849190614af3565b611378565b005b6104a560048036038101906104a0919061457f565b6118fe565b6040516104b29190614531565b60405180910390f35b6104d560048036038101906104d09190614b7e565b6119a2565b005b6104f160048036038101906104ec9190614cb8565b611fe1565b005b61050d60048036038101906105089190614d01565b612034565b005b61052960048036038101906105249190614af3565b612493565b60405161053691906148ff565b60405180910390f35b61055960048036038101906105549190614dd0565b6124ed565b005b61057560048036038101906105709190614208565b612717565b60405161058291906148ff565b60405180910390f35b6105a560048036038101906105a09190614208565b612763565b005b6105c160048036038101906105bc9190614208565b612948565b6040516105ce91906148ff565b60405180910390f35b6105f160048036038101906105ec919061457f565b612994565b6040516105fe9190614f98565b60405180910390f35b61060f612d43565b60405161061c91906149a3565b60405180910390f35b6060601260008373ffffffffffffffffffffffffffffffffffffffff1673ffffffffffffffffffffffffffffffffffffffff1681526020019081526020016000208054806020026020016040519081016040528092919081815260200182805480156106b057602002820191906000526020600020905b81548152602001906001019080831161069c575b50505050509050919050565b6060600060045490506000808267ffffffffffffffff8111156106e2576106e16149c8565b5b60405190808252806020026020018201604052801561071b57816020015b610708613f22565b8152602001906001900390816107005790505b5090506000600190505b8381116108ad578573ffffffffffffffffffffffffffffffffffffffff16601460006001846107549190614fe9565b815260200190815260200160002060020160009054906101000a900473ffffffffffffffffffffffffffffffffffffffff1673ffffffffffffffffffffffffffffffffffffffff160361089a576000601460006001846107b49190614fe9565b81526020019081526020016000209050806040518060a001604052908160008201548152602001600182015481526020016002820160009054906101000a900473ffffffffffffffffffffffffffffffffffffffff1673ffffffffffffffffffffffffffffffffffffffff1673ffffffffffffffffffffffffffffffffffffffff168152602001600382015481526020016004820160009054906101000a900460ff1615151515815250508360018461086d9190614fe9565b8151811061087e5761087d61501d565b5b60200260200101819052506001846108969190614fe9565b9350505b80806108a59061504c565b915050610725565b50809350505050919050565b6060601360008373ffffffffffffffffffffffffffffffffffffffff1673ffffffffffffffffffffffffffffffffffffffff16815260200190815260200160002060070180548060200260200160405190810160405280929190818152602001828054801561097d57602002820191906000526020600020905b8160009054906101000a900473ffffffffffffffffffffffffffffffffffffffff1673ffffffffffffffffffffffffffffffffffffffff1681526020019060010190808311610933575b50505050509050919050565b610991613f69565b600c600083815260200190815260200160002060405180610180016040529081600082015481526020016001820154815260200160028201548152602001600382015481526020016004820180546109e8906150c3565b80601f0160208091040260200160405190810160405280929190818152602001828054610a14906150c3565b8015610a615780601f10610a3657610100808354040283529160200191610a61565b820191906000526020600020905b815481529060010190602001808311610a4457829003601f168201915b505050505081526020016005820160009054906101000a900473ffffffffffffffffffffffffffffffffffffffff1673ffffffffffffffffffffffffffffffffffffffff1673ffffffffffffffffffffffffffffffffffffffff168152602001600682018054610ad0906150c3565b80601f0160208091040260200160405190810160405280929190818152602001828054610afc906150c3565b8015610b495780601f10610b1e57610100808354040283529160200191610b49565b820191906000526020600020905b815481529060010190602001808311610b2c57829003601f168201915b50505050508152602001600782015481526020016008820154815260200160098201805480602002602001604051908101604052809291908181526020018280548015610beb57602002820191906000526020600020905b8160009054906101000a900473ffffffffffffffffffffffffffffffffffffffff1673ffffffffffffffffffffffffffffffffffffffff1681526020019060010190808311610ba1575b50505050508152602001600a8201805480602002602001604051908101604052809291908181526020018280548015610c7957602002820191906000526020600020905b8160009054906101000a900473ffffffffffffffffffffffffffffffffffffffff1673ffffffffffffffffffffffffffffffffffffffff1681526020019060010190808311610c2f575b50505050508152602001600b8201805480602002602001604051908101604052809291908181526020018280548015610d0757602002820191906000526020600020905b8160009054906101000a900473ffffffffffffffffffffffffffffffffffffffff1673ffffffffffffffffffffffffffffffffffffffff1681526020019060010190808311610cbd575b5050505050815250509050919050565b610d1f613fe0565b601360008373ffffffffffffffffffffffffffffffffffffffff1673ffffffffffffffffffffffffffffffffffffffff1681526020019081526020016000206040518061014001604052908160008201548152602001600182018054610d84906150c3565b80601f0160208091040260200160405190810160405280929190818152602001828054610db0906150c3565b8015610dfd5780601f10610dd257610100808354040283529160200191610dfd565b820191906000526020600020905b815481529060010190602001808311610de057829003601f168201915b50505050508152602001600282015481526020016003820160009054906101000a900460ff16151515158152602001600482015481526020016005820160009054906101000a900460ff161515151581526020016005820160019054906101000a900460ff161515151581526020016005820160029054906101000a900473ffffffffffffffffffffffffffffffffffffffff1673ffffffffffffffffffffffffffffffffffffffff1673ffffffffffffffffffffffffffffffffffffffff1681526020016006820160009054906101000a900473ffffffffffffffffffffffffffffffffffffffff1673ffffffffffffffffffffffffffffffffffffffff1673ffffffffffffffffffffffffffffffffffffffff16815260200160078201805480602002602001604051908101604052809291908181526020018280548015610f9c57602002820191906000526020600020905b8160009054906101000a900473ffffffffffffffffffffffffffffffffffffffff1673ffffffffffffffffffffffffffffffffffffffff1681526020019060010190808311610f52575b5050505050815250509050919050565b606081600c60008481526020019081526020016000206000015414611006576040517f08c379a0000000000000000000000000000000000000000000000000000000008152600401610ffd90615151565b60405180910390fd5b600c6000838152602001908152602001600020600a0180548060200260200160405190810160405280929190818152602001828054801561109c57602002820191906000526020600020905b8160009054906101000a900473ffffffffffffffffffffffffffffffffffffffff1673ffffffffffffffffffffffffffffffffffffffff1681526020019060010190808311611052575b50505050509050919050565b6000600354905090565b6060601160008373ffffffffffffffffffffffffffffffffffffffff1673ffffffffffffffffffffffffffffffffffffffff16815260200190815260200160002080548060200260200160405190810160405280929190818152602001828054801561113d57602002820191906000526020600020905b815481526020019060010190808311611129575b50505050509050919050565b600260009054906101000a900473ffffffffffffffffffffffffffffffffffffffff1681565b6000600c6000838152602001908152602001600020600901805490509050919050565b606081600c600084815260200190815260200160002060000154146111ec576040517f08c379a00000000000000000000000000000000000000000000000000000000081526004016111e390615151565b60405180910390fd5b600c6000838152602001908152602001600020600b0180548060200260200160405190810160405280929190818152602001828054801561128257602002820191906000526020600020905b8160009054906101000a900473ffffffffffffffffffffffffffffffffffffffff1673ffffffffffffffffffffffffffffffffffffffff1681526020019060010190808311611238575b50505050509050919050565b60035481565b60045481565b60055481565b6000600260009054906101000a900473ffffffffffffffffffffffffffffffffffffffff1673ffffffffffffffffffffffffffffffffffffffff166370a08231836040518263ffffffff1660e01b81526004016112fd91906149a3565b602060405180830381865afa15801561131a573d6000803e3d6000fd5b505050506040513d601f19601f8201168201806040525081019061133e9190615186565b9050919050565b600f6020528060005260406000206000915054906101000a900473ffffffffffffffffffffffffffffffffffffffff1681565b611380612d69565b6000600190505b60035481116118f0576000600c6000838152602001908152602001600020600a0190506000600c6000848152602001908152602001600020600b0190506114a1600c600085815260200190815260200160002060060180546113e8906150c3565b80601f0160208091040260200160405190810160405280929190818152602001828054611414906150c3565b80156114615780601f1061143657610100808354040283529160200191611461565b820191906000526020600020905b81548152906001019060200180831161144457829003601f168201915b50505050506040518060400160405280600481526020017f6f70656e00000000000000000000000000000000000000000000000000000000815250612daf565b156117ea5785600c600085815260200190815260200160002060010154036117e9576000600c6000858152602001908152602001600020905060005b81600901805490508110156117e65760008260090182815481106115045761150361501d565b5b9060005260206000200160009054906101000a900473ffffffffffffffffffffffffffffffffffffffff169050611616600e600088815260200190815260200160002060008373ffffffffffffffffffffffffffffffffffffffff1673ffffffffffffffffffffffffffffffffffffffff1681526020019081526020016000206004018054611592906150c3565b80601f01602080910402602001604051908101604052809291908181526020018280546115be906150c3565b801561160b5780601f106115e05761010080835404028352916020019161160b565b820191906000526020600020905b8154815290600101906020018083116115ee57829003601f168201915b505050505089612daf565b80156117035750611702600e600088815260200190815260200160002060008373ffffffffffffffffffffffffffffffffffffffff1673ffffffffffffffffffffffffffffffffffffffff168152602001908152602001600020600501805461167e906150c3565b80601f01602080910402602001604051908101604052809291908181526020018280546116aa906150c3565b80156116f75780601f106116cc576101008083540402835291602001916116f7565b820191906000526020600020905b8154815290600101906020018083116116da57829003601f168201915b505050505088612daf565b5b1561176f5784819080600181540180825580915050600190039060005260206000200160009091909190916101000a81548173ffffffffffffffffffffffffffffffffffffffff021916908373ffffffffffffffffffffffffffffffffffffffff1602179055506117d2565b83819080600181540180825580915050600190039060005260206000200160009091909190916101000a81548173ffffffffffffffffffffffffffffffffffffffff021916908373ffffffffffffffffffffffffffffffffffffffff1602179055505b5080806117de9061504c565b9150506114dd565b50505b5b81600c6000858152602001908152602001600020600a0190805461180f929190614065565b5080600c6000858152602001908152602001600020600b01908054611835929190614065565b506118db600c600085815260200190815260200160002060000154838054806020026020016040519081016040528092919081815260200182805480156118d157602002820191906000526020600020905b8160009054906101000a900473ffffffffffffffffffffffffffffffffffffffff1673ffffffffffffffffffffffffffffffffffffffff1681526020019060010190808311611887575b5050505050612e08565b505080806118e89061504c565b915050611387565b506118f961305f565b505050565b6060600c600083815260200190815260200160002060090180548060200260200160405190810160405280929190818152602001828054801561199657602002820191906000526020600020905b8160009054906101000a900473ffffffffffffffffffffffffffffffffffffffff1673ffffffffffffffffffffffffffffffffffffffff168152602001906001019080831161194c575b50505050509050919050565b600073ffffffffffffffffffffffffffffffffffffffff163373ffffffffffffffffffffffffffffffffffffffff1603611a11576040517f08c379a0000000000000000000000000000000000000000000000000000000008152600401611a08906151ff565b60405180910390fd5b611a19612d69565b60036000815480929190611a2c9061504c565b9190505550611a3d89600354613069565b6000600c60006003548152602001908152602001600020600901905080339080600181540180825580915050600190039060005260206000200160009091909190916101000a81548173ffffffffffffffffffffffffffffffffffffffff021916908373ffffffffffffffffffffffffffffffffffffffff160217905550808054905082611acb919061521f565b60068190555060405180610180016040528060035481526020018781526020018681526020018b81526020018581526020018473ffffffffffffffffffffffffffffffffffffffff1681526020016040518060400160405280600481526020017f6f70656e000000000000000000000000000000000000000000000000000000008152508152602001838152602001600654815260200182805480602002602001604051908101604052809291908181526020018280548015611be357602002820191906000526020600020905b8160009054906101000a900473ffffffffffffffffffffffffffffffffffffffff1673ffffffffffffffffffffffffffffffffffffffff1681526020019060010190808311611b99575b505050505081526020016008805480602002602001604051908101604052809291908181526020018280548015611c6f57602002820191906000526020600020905b8160009054906101000a900473ffffffffffffffffffffffffffffffffffffffff1673ffffffffffffffffffffffffffffffffffffffff1681526020019060010190808311611c25575b505050505081526020016008805480602002602001604051908101604052809291908181526020018280548015611cfb57602002820191906000526020600020905b8160009054906101000a900473ffffffffffffffffffffffffffffffffffffffff1673ffffffffffffffffffffffffffffffffffffffff1681526020019060010190808311611cb1575b5050505050815250600c60006003548152602001908152602001600020600082015181600001556020820151816001015560408201518160020155606082015181600301556080820151816004019081611d5591906153f5565b5060a08201518160050160006101000a81548173ffffffffffffffffffffffffffffffffffffffff021916908373ffffffffffffffffffffffffffffffffffffffff16021790555060c0820151816006019081611db291906153f5565b5060e082015181600701556101008201518160080155610120820151816009019080519060200190611de59291906140b7565b5061014082015181600a019080519060200190611e039291906140b7565b5061016082015181600b019080519060200190611e219291906140b7565b50905050601160003373ffffffffffffffffffffffffffffffffffffffff1673ffffffffffffffffffffffffffffffffffffffff1681526020019081526020016000206003549080600181540180825580915050600190039060005260206000200160009091909190915055611e9c600354888c8c8c613315565b611ea9338b600354613522565b7f2cede4f6e649c8636986a39dac68105d8d1e1fddbc3bbfbc67c327d1faa160b96003548733604051611ede939291906154c7565b60405180910390a16000600260009054906101000a900473ffffffffffffffffffffffffffffffffffffffff1673ffffffffffffffffffffffffffffffffffffffff166323b872dd33308e6040518463ffffffff1660e01b8152600401611f47939291906154fe565b6020604051808303816000875af1158015611f66573d6000803e3d6000fd5b505050506040513d601f19601f82011682018060405250810190611f8a9190615561565b905080611fcc576040517f08c379a0000000000000000000000000000000000000000000000000000000008152600401611fc3906155da565b60405180910390fd5b5050611fd661305f565b505050505050505050565b80601360003373ffffffffffffffffffffffffffffffffffffffff1673ffffffffffffffffffffffffffffffffffffffff168152602001908152602001600020600101908161203091906153f5565b5050565b600073ffffffffffffffffffffffffffffffffffffffff163373ffffffffffffffffffffffffffffffffffffffff16036120a3576040517f08c379a000000000000000000000000000000000000000000000000000000000815260040161209a906151ff565b60405180910390fd5b6120ab612d69565b6000600c6000878152602001908152602001600020905085816000015414612108576040517f08c379a00000000000000000000000000000000000000000000000000000000081526004016120ff90615151565b60405180910390fd5b8481600301541461214e576040517f08c379a000000000000000000000000000000000000000000000000000000000815260040161214590615646565b60405180910390fd5b6121588587613069565b60006002826007015461216b9190615695565b905080612179888587612493565b036121b9576040517f08c379a00000000000000000000000000000000000000000000000000000000081526004016121b090615712565b60405180910390fd5b6000826008015403612200576040517f08c379a00000000000000000000000000000000000000000000000000000000081526004016121f79061577e565b60405180910390fd5b61220c87848633613936565b601260003373ffffffffffffffffffffffffffffffffffffffff1673ffffffffffffffffffffffffffffffffffffffff168152602001908152602001600020879080600181540180825580915050600190039060005260206000200160009091909190915055600082600901905080339080600181540180825580915050600190039060005260206000200160009091909190916101000a81548173ffffffffffffffffffffffffffffffffffffffff021916908373ffffffffffffffffffffffffffffffffffffffff160217905550808054905083600701546122f0919061521f565b600681905550600654836008018190555061230e8887898888613315565b87601060003373ffffffffffffffffffffffffffffffffffffffff1673ffffffffffffffffffffffffffffffffffffffff1681526020019081526020016000208190555061235d33888a613522565b7f7a8caa7e135af369e96fc1d14412bdcb5b141d06f7c59d3ca78b532fa0ba46ba8833878760405161239294939291906157d7565b60405180910390a16000600260009054906101000a900473ffffffffffffffffffffffffffffffffffffffff1673ffffffffffffffffffffffffffffffffffffffff166323b872dd33308b6040518463ffffffff1660e01b81526004016123fb939291906154fe565b6020604051808303816000875af115801561241a573d6000803e3d6000fd5b505050506040513d601f19601f8201168201806040525081019061243e9190615561565b905080612480576040517f08c379a0000000000000000000000000000000000000000000000000000000008152600401612477906155da565b60405180910390fd5b5050505061248c61305f565b5050505050565b6000600d6000858152602001908152602001600020836040516124b69190615866565b9081526020016040518091039020826040516124d29190615866565b90815260200160405180910390206000015490509392505050565b601360008473ffffffffffffffffffffffffffffffffffffffff1673ffffffffffffffffffffffffffffffffffffffff16815260200190815260200160002060050160009054906101000a900460ff1661257c576040517f08c379a0000000000000000000000000000000000000000000000000000000008152600401612573906158c9565b60405180910390fd5b60011515601360008473ffffffffffffffffffffffffffffffffffffffff1673ffffffffffffffffffffffffffffffffffffffff16815260200190815260200160002060050160009054906101000a900460ff16151503612612576040517f08c379a000000000000000000000000000000000000000000000000000000000815260040161260990615935565b60405180910390fd5b6126258160008060006001808989613a00565b61262f8383613d4f565b1561266f576040517f08c379a0000000000000000000000000000000000000000000000000000000008152600401612666906159c7565b60405180910390fd5b601360008473ffffffffffffffffffffffffffffffffffffffff1673ffffffffffffffffffffffffffffffffffffffff168152602001908152602001600020600701829080600181540180825580915050600190039060005260206000200160009091909190916101000a81548173ffffffffffffffffffffffffffffffffffffffff021916908373ffffffffffffffffffffffffffffffffffffffff160217905550505050565b6000601160008373ffffffffffffffffffffffffffffffffffffffff1673ffffffffffffffffffffffffffffffffffffffff168152602001908152602001600020805490509050919050565b600760009054906101000a900473ffffffffffffffffffffffffffffffffffffffff1673ffffffffffffffffffffffffffffffffffffffff163373ffffffffffffffffffffffffffffffffffffffff16146127f3576040517f08c379a00000000000000000000000000000000000000000000000000000000081526004016127ea90615a33565b60405180910390fd5b6127fb612d69565b6000600260009054906101000a900473ffffffffffffffffffffffffffffffffffffffff1673ffffffffffffffffffffffffffffffffffffffff166370a08231306040518263ffffffff1660e01b815260040161285891906149a3565b602060405180830381865afa158015612875573d6000803e3d6000fd5b505050506040513d601f19601f820116820180604052508101906128999190615186565b9050600260009054906101000a900473ffffffffffffffffffffffffffffffffffffffff1673ffffffffffffffffffffffffffffffffffffffff1663a9059cbb83836040518363ffffffff1660e01b81526004016128f8929190615a53565b6020604051808303816000875af1158015612917573d6000803e3d6000fd5b505050506040513d601f19601f8201168201806040525081019061293b9190615561565b505061294561305f565b50565b6000601260008373ffffffffffffffffffffffffffffffffffffffff1673ffffffffffffffffffffffffffffffffffffffff168152602001908152602001600020805490509050919050565b606081600c600084815260200190815260200160002060000154146129ee576040517f08c379a00000000000000000000000000000000000000000000000000000000081526004016129e590615151565b60405180910390fd5b6000600c600084815260200190815260200160002060090180549050905060008167ffffffffffffffff811115612a2857612a276149c8565b5b604051908082528060200260200182016040528015612a6157816020015b612a4e614141565b815260200190600190039081612a465790505b50905060005b82811015612d38576000600c60008781526020019081526020016000206009018281548110612a9957612a9861501d565b5b9060005260206000200160009054906101000a900473ffffffffffffffffffffffffffffffffffffffff169050600e600087815260200190815260200160002060008273ffffffffffffffffffffffffffffffffffffffff1673ffffffffffffffffffffffffffffffffffffffff1681526020019081526020016000206040518060c0016040529081600082018054612b31906150c3565b80601f0160208091040260200160405190810160405280929190818152602001828054612b5d906150c3565b8015612baa5780601f10612b7f57610100808354040283529160200191612baa565b820191906000526020600020905b815481529060010190602001808311612b8d57829003601f168201915b5050505050815260200160018201548152602001600282015481526020016003820160009054906101000a900460ff16151515158152602001600482018054612bf2906150c3565b80601f0160208091040260200160405190810160405280929190818152602001828054612c1e906150c3565b8015612c6b5780601f10612c4057610100808354040283529160200191612c6b565b820191906000526020600020905b815481529060010190602001808311612c4e57829003601f168201915b50505050508152602001600582018054612c84906150c3565b80601f0160208091040260200160405190810160405280929190818152602001828054612cb0906150c3565b8015612cfd5780601f10612cd257610100808354040283529160200191612cfd565b820191906000526020600020905b815481529060010190602001808311612ce057829003601f168201915b505050505081525050838381518110612d1957612d1861501d565b5b6020026020010181905250508080612d309061504c565b915050612a67565b508092505050919050565b600960009054906101000a900473ffffffffffffffffffffffffffffffffffffffff1681565b600260005403612da5576040517f3ee5aeb500000000000000000000000000000000000000000000000000000000815260040160405180910390fd5b6002600081905550565b600081604051602001612dc29190615866565b6040516020818303038152906040528051906020012083604051602001612de99190615866565b6040516020818303038152906040528051906020012014905092915050565b81600c60008481526020019081526020016000206000015414612e60576040517f08c379a0000000000000000000000000000000000000000000000000000000008152600401612e5790615151565b60405180910390fd5b6000805b600c600085815260200190815260200160002060090180549050811015612f4b57600e60008581526020019081526020016000206000600c60008781526020019081526020016000206009018381548110612ec257612ec161501d565b5b9060005260206000200160009054906101000a900473ffffffffffffffffffffffffffffffffffffffff1673ffffffffffffffffffffffffffffffffffffffff1673ffffffffffffffffffffffffffffffffffffffff1681526020019081526020016000206001015482612f369190614fe9565b91508080612f439061504c565b915050612e64565b50600060648351612f5c9190615a7c565b605083612f699190615a7c565b612f739190615695565b905060005b835181101561304f57600260009054906101000a900473ffffffffffffffffffffffffffffffffffffffff1673ffffffffffffffffffffffffffffffffffffffff1663a9059cbb858381518110612fd257612fd161501d565b5b6020026020010151846040518363ffffffff1660e01b8152600401612ff8929190615a53565b6020604051808303816000875af1158015613017573d6000803e3d6000fd5b505050506040513d601f19601f8201168201806040525081019061303b9190615561565b5080806130479061504c565b915050612f78565b5061305984613e9f565b50505050565b6001600081905550565b600082116130ac576040517f08c379a00000000000000000000000000000000000000000000000000000000081526004016130a390615b0a565b60405180910390fd5b81600260009054906101000a900473ffffffffffffffffffffffffffffffffffffffff1673ffffffffffffffffffffffffffffffffffffffff166370a08231336040518263ffffffff1660e01b815260040161310891906149a3565b602060405180830381865afa158015613125573d6000803e3d6000fd5b505050506040513d601f19601f820116820180604052508101906131499190615186565b101561318a576040517f08c379a000000000000000000000000000000000000000000000000000000000815260040161318190615b76565b60405180910390fd5b81600260009054906101000a900473ffffffffffffffffffffffffffffffffffffffff1673ffffffffffffffffffffffffffffffffffffffff1663dd62ed3e33306040518363ffffffff1660e01b81526004016131e8929190615b96565b602060405180830381865afa158015613205573d6000803e3d6000fd5b505050506040513d601f19601f820116820180604052508101906132299190615186565b101561326a576040517f08c379a000000000000000000000000000000000000000000000000000000000815260040161326190615c0b565b60405180910390fd5b60011515600e600083815260200190815260200160002060003373ffffffffffffffffffffffffffffffffffffffff1673ffffffffffffffffffffffffffffffffffffffff16815260200190815260200160002060030160009054906101000a900460ff16151503613311576040517f08c379a000000000000000000000000000000000000000000000000000000000815260040161330890615c77565b60405180910390fd5b5050565b6133ac601260003373ffffffffffffffffffffffffffffffffffffffff1673ffffffffffffffffffffffffffffffffffffffff16815260200190815260200160002080549050601160003373ffffffffffffffffffffffffffffffffffffffff1673ffffffffffffffffffffffffffffffffffffffff16815260200190815260200160002080549050613efb90919063ffffffff16565b601360003373ffffffffffffffffffffffffffffffffffffffff1673ffffffffffffffffffffffffffffffffffffffff168152602001908152602001600020600201819055506000600e600087815260200190815260200160002060003373ffffffffffffffffffffffffffffffffffffffff1673ffffffffffffffffffffffffffffffffffffffff16815260200190815260200160002090508481600001908161345791906153f5565b5083816001018190555060018160030160006101000a81548160ff0219169083151502179055508281600401908161348f91906153f5565b50818160050190816134a191906153f5565b50601360003373ffffffffffffffffffffffffffffffffffffffff1673ffffffffffffffffffffffffffffffffffffffff16815260200190815260200160002060050160009054906101000a900460ff1661350c5761350b85600060016000600160008033613a00565b5b61351a600354838533613936565b505050505050565b6000601360008573ffffffffffffffffffffffffffffffffffffffff1673ffffffffffffffffffffffffffffffffffffffff16815260200190815260200160002060050160029054906101000a900473ffffffffffffffffffffffffffffffffffffffff169050600073ffffffffffffffffffffffffffffffffffffffff168173ffffffffffffffffffffffffffffffffffffffff161461393057600060646002856135ce9190615a7c565b6135d89190615695565b905080600260009054906101000a900473ffffffffffffffffffffffffffffffffffffffff1673ffffffffffffffffffffffffffffffffffffffff166370a08231306040518263ffffffff1660e01b815260040161363691906149a3565b602060405180830381865afa158015613653573d6000803e3d6000fd5b505050506040513d601f19601f820116820180604052508101906136779190615186565b10156136b8576040517f08c379a00000000000000000000000000000000000000000000000000000000081526004016136af90615d09565b60405180910390fd5b601560008673ffffffffffffffffffffffffffffffffffffffff1673ffffffffffffffffffffffffffffffffffffffff16815260200190815260200160002060040160009054906101000a900460ff1615613748576040517f08c379a000000000000000000000000000000000000000000000000000000000815260040161373f90615d75565b60405180910390fd5b6004600081548092919061375b9061504c565b91905055506040518060a0016040528060045481526020018481526020018373ffffffffffffffffffffffffffffffffffffffff16815260200182815260200160011515815250601460006004548152602001908152602001600020600082015181600001556020820151816001015560408201518160020160006101000a81548173ffffffffffffffffffffffffffffffffffffffff021916908373ffffffffffffffffffffffffffffffffffffffff1602179055506060820151816003015560808201518160040160006101000a81548160ff021916908315150217905550905050600260009054906101000a900473ffffffffffffffffffffffffffffffffffffffff1673ffffffffffffffffffffffffffffffffffffffff1663a9059cbb83836040518363ffffffff1660e01b815260040161389c929190615a53565b6020604051808303816000875af11580156138bb573d6000803e3d6000fd5b505050506040513d601f19601f820116820180604052508101906138df9190615561565b508173ffffffffffffffffffffffffffffffffffffffff167f5be4d22009fea85381595ed91090bc5c0bc92a93fe07ed7472c5888eb1993f838260405161392691906148ff565b60405180910390a2505b50505050565b6000600d6000868152602001908152602001600020846040516139599190615866565b9081526020016040518091039020836040516139759190615866565b9081526020016040518091039020905080600001600081548092919061399a9061504c565b919050555060018160010160008473ffffffffffffffffffffffffffffffffffffffff1673ffffffffffffffffffffffffffffffffffffffff16815260200190815260200160002060006101000a81548160ff0219169083151502179055505050505050565b60056000815480929190613a139061504c565b919050555060405180610140016040528060055481526020018981526020018881526020018715158152602001868152602001851515815260200184151581526020018373ffffffffffffffffffffffffffffffffffffffff1681526020018273ffffffffffffffffffffffffffffffffffffffff168152602001600067ffffffffffffffff811115613aa957613aa86149c8565b5b604051908082528060200260200182016040528015613ad75781602001602082028036833780820191505090505b50815250601360008373ffffffffffffffffffffffffffffffffffffffff1673ffffffffffffffffffffffffffffffffffffffff168152602001908152602001600020600082015181600001556020820151816001019081613b3991906153f5565b506040820151816002015560608201518160030160006101000a81548160ff0219169083151502179055506080820151816004015560a08201518160050160006101000a81548160ff02191690831515021790555060c08201518160050160016101000a81548160ff02191690831515021790555060e08201518160050160026101000a81548173ffffffffffffffffffffffffffffffffffffffff021916908373ffffffffffffffffffffffffffffffffffffffff1602179055506101008201518160060160006101000a81548173ffffffffffffffffffffffffffffffffffffffff021916908373ffffffffffffffffffffffffffffffffffffffff160217905550610120820151816007019080519060200190613c5a9291906140b7565b5090505080600f6000600554815260200190815260200160002060006101000a81548173ffffffffffffffffffffffffffffffffffffffff021916908373ffffffffffffffffffffffffffffffffffffffff1602179055503373ffffffffffffffffffffffffffffffffffffffff167f44f86dc3cc9c918308bb5e6859f61370c164f8dca7dd13f4431e13159e520032600554601360003373ffffffffffffffffffffffffffffffffffffffff1673ffffffffffffffffffffffffffffffffffffffff168152602001908152602001600020600701604051613d3d929190615e81565b60405180910390a25050505050505050565b600080601360008573ffffffffffffffffffffffffffffffffffffffff1673ffffffffffffffffffffffffffffffffffffffff168152602001908152602001600020600701805480602002602001604051908101604052809291908181526020018280548015613e1457602002820191906000526020600020905b8160009054906101000a900473ffffffffffffffffffffffffffffffffffffffff1673ffffffffffffffffffffffffffffffffffffffff1681526020019060010190808311613dca575b5050505050905060005b8151811015613e92578373ffffffffffffffffffffffffffffffffffffffff16828281518110613e5157613e5061501d565b5b602002602001015173ffffffffffffffffffffffffffffffffffffffff1603613e7f57600192505050613e99565b8080613e8a9061504c565b915050613e1e565b5060009150505b92915050565b6040518060400160405280600681526020017f636c6f7365640000000000000000000000000000000000000000000000000000815250600c60008381526020019081526020016000206006019081613ef791906153f5565b5050565b60008183613f099190614fe9565b905082811015613f1c57613f1b615eb1565b5b92915050565b6040518060a001604052806000815260200160008152602001600073ffffffffffffffffffffffffffffffffffffffff168152602001600081526020016000151581525090565b6040518061018001604052806000815260200160008152602001600081526020016000815260200160608152602001600073ffffffffffffffffffffffffffffffffffffffff1681526020016060815260200160008152602001600081526020016060815260200160608152602001606081525090565b60405180610140016040528060008152602001606081526020016000815260200160001515815260200160008152602001600015158152602001600015158152602001600073ffffffffffffffffffffffffffffffffffffffff168152602001600073ffffffffffffffffffffffffffffffffffffffff168152602001606081525090565b8280548282559060005260206000209081019282156140a65760005260206000209182015b828111156140a557825482559160010191906001019061408a565b5b5090506140b39190614179565b5090565b828054828255906000526020600020908101928215614130579160200282015b8281111561412f5782518260006101000a81548173ffffffffffffffffffffffffffffffffffffffff021916908373ffffffffffffffffffffffffffffffffffffffff160217905550916020019190600101906140d7565b5b50905061413d9190614179565b5090565b6040518060c0016040528060608152602001600081526020016000815260200160001515815260200160608152602001606081525090565b5b8082111561419257600081600090555060010161417a565b5090565b6000604051905090565b600080fd5b600080fd5b600073ffffffffffffffffffffffffffffffffffffffff82169050919050565b60006141d5826141aa565b9050919050565b6141e5816141ca565b81146141f057600080fd5b50565b600081359050614202816141dc565b92915050565b60006020828403121561421e5761421d6141a0565b5b600061422c848285016141f3565b91505092915050565b600081519050919050565b600082825260208201905092915050565b6000819050602082019050919050565b6000819050919050565b61427481614261565b82525050565b6000614286838361426b565b60208301905092915050565b6000602082019050919050565b60006142aa82614235565b6142b48185614240565b93506142bf83614251565b8060005b838110156142f05781516142d7888261427a565b97506142e283614292565b9250506001810190506142c3565b5085935050505092915050565b60006020820190508181036000830152614317818461429f565b905092915050565b600081519050919050565b600082825260208201905092915050565b6000819050602082019050919050565b614354816141ca565b82525050565b60008115159050919050565b61436f8161435a565b82525050565b60a08201600082015161438b600085018261426b565b50602082015161439e602085018261426b565b5060408201516143b1604085018261434b565b5060608201516143c4606085018261426b565b5060808201516143d76080850182614366565b50505050565b60006143e98383614375565b60a08301905092915050565b6000602082019050919050565b600061440d8261431f565b614417818561432a565b93506144228361433b565b8060005b8381101561445357815161443a88826143dd565b9750614445836143f5565b925050600181019050614426565b5085935050505092915050565b6000602082019050818103600083015261447a8184614402565b905092915050565b600081519050919050565b600082825260208201905092915050565b6000819050602082019050919050565b60006144ba838361434b565b60208301905092915050565b6000602082019050919050565b60006144de82614482565b6144e8818561448d565b93506144f38361449e565b8060005b8381101561452457815161450b88826144ae565b9750614516836144c6565b9250506001810190506144f7565b5085935050505092915050565b6000602082019050818103600083015261454b81846144d3565b905092915050565b61455c81614261565b811461456757600080fd5b50565b60008135905061457981614553565b92915050565b600060208284031215614595576145946141a0565b5b60006145a38482850161456a565b91505092915050565b600081519050919050565b600082825260208201905092915050565b60005b838110156145e65780820151818401526020810190506145cb565b60008484015250505050565b6000601f19601f8301169050919050565b600061460e826145ac565b61461881856145b7565b93506146288185602086016145c8565b614631816145f2565b840191505092915050565b600082825260208201905092915050565b600061465882614482565b614662818561463c565b935061466d8361449e565b8060005b8381101561469e57815161468588826144ae565b9750614690836144c6565b925050600181019050614671565b5085935050505092915050565b6000610180830160008301516146c4600086018261426b565b5060208301516146d7602086018261426b565b5060408301516146ea604086018261426b565b5060608301516146fd606086018261426b565b50608083015184820360808601526147158282614603565b91505060a083015161472a60a086018261434b565b5060c083015184820360c08601526147428282614603565b91505060e083015161475760e086018261426b565b5061010083015161476c61010086018261426b565b50610120830151848203610120860152614786828261464d565b9150506101408301518482036101408601526147a2828261464d565b9150506101608301518482036101608601526147be828261464d565b9150508091505092915050565b600060208201905081810360008301526147e581846146ab565b905092915050565b600061014083016000830151614806600086018261426b565b506020830151848203602086015261481e8282614603565b9150506040830151614833604086018261426b565b5060608301516148466060860182614366565b506080830151614859608086018261426b565b5060a083015161486c60a0860182614366565b5060c083015161487f60c0860182614366565b5060e083015161489260e086018261434b565b506101008301516148a761010086018261434b565b506101208301518482036101208601526148c1828261464d565b9150508091505092915050565b600060208201905081810360008301526148e881846147ed565b905092915050565b6148f981614261565b82525050565b600060208201905061491460008301846148f0565b92915050565b6000819050919050565b600061493f61493a614935846141aa565b61491a565b6141aa565b9050919050565b600061495182614924565b9050919050565b600061496382614946565b9050919050565b61497381614958565b82525050565b600060208201905061498e600083018461496a565b92915050565b61499d816141ca565b82525050565b60006020820190506149b86000830184614994565b92915050565b600080fd5b600080fd5b7f4e487b7100000000000000000000000000000000000000000000000000000000600052604160045260246000fd5b614a00826145f2565b810181811067ffffffffffffffff82111715614a1f57614a1e6149c8565b5b80604052505050565b6000614a32614196565b9050614a3e82826149f7565b919050565b600067ffffffffffffffff821115614a5e57614a5d6149c8565b5b614a67826145f2565b9050602081019050919050565b82818337600083830152505050565b6000614a96614a9184614a43565b614a28565b905082815260208101848484011115614ab257614ab16149c3565b5b614abd848285614a74565b509392505050565b600082601f830112614ada57614ad96149be565b5b8135614aea848260208601614a83565b91505092915050565b600080600060608486031215614b0c57614b0b6141a0565b5b6000614b1a8682870161456a565b935050602084013567ffffffffffffffff811115614b3b57614b3a6141a5565b5b614b4786828701614ac5565b925050604084013567ffffffffffffffff811115614b6857614b676141a5565b5b614b7486828701614ac5565b9150509250925092565b60008060008060008060008060006101208a8c031215614ba157614ba06141a0565b5b6000614baf8c828d0161456a565b99505060208a013567ffffffffffffffff811115614bd057614bcf6141a5565b5b614bdc8c828d01614ac5565b98505060408a013567ffffffffffffffff811115614bfd57614bfc6141a5565b5b614c098c828d01614ac5565b97505060608a013567ffffffffffffffff811115614c2a57614c296141a5565b5b614c368c828d01614ac5565b9650506080614c478c828d0161456a565b95505060a0614c588c828d0161456a565b94505060c08a013567ffffffffffffffff811115614c7957614c786141a5565b5b614c858c828d01614ac5565b93505060e0614c968c828d016141f3565b925050610100614ca88c828d0161456a565b9150509295985092959850929598565b600060208284031215614cce57614ccd6141a0565b5b600082013567ffffffffffffffff811115614cec57614ceb6141a5565b5b614cf884828501614ac5565b91505092915050565b600080600080600060a08688031215614d1d57614d1c6141a0565b5b6000614d2b8882890161456a565b9550506020614d3c8882890161456a565b945050604086013567ffffffffffffffff811115614d5d57614d5c6141a5565b5b614d6988828901614ac5565b935050606086013567ffffffffffffffff811115614d8a57614d896141a5565b5b614d9688828901614ac5565b925050608086013567ffffffffffffffff811115614db757614db66141a5565b5b614dc388828901614ac5565b9150509295509295909350565b600080600060608486031215614de957614de86141a0565b5b6000614df7868287016141f3565b9350506020614e08868287016141f3565b925050604084013567ffffffffffffffff811115614e2957614e286141a5565b5b614e3586828701614ac5565b9150509250925092565b600081519050919050565b600082825260208201905092915050565b6000819050602082019050919050565b600060c0830160008301518482036000860152614e888282614603565b9150506020830151614e9d602086018261426b565b506040830151614eb0604086018261426b565b506060830151614ec36060860182614366565b5060808301518482036080860152614edb8282614603565b91505060a083015184820360a0860152614ef58282614603565b9150508091505092915050565b6000614f0e8383614e6b565b905092915050565b6000602082019050919050565b6000614f2e82614e3f565b614f388185614e4a565b935083602082028501614f4a85614e5b565b8060005b85811015614f865784840389528151614f678582614f02565b9450614f7283614f16565b925060208a01995050600181019050614f4e565b50829750879550505050505092915050565b60006020820190508181036000830152614fb28184614f23565b905092915050565b7f4e487b7100000000000000000000000000000000000000000000000000000000600052601160045260246000fd5b6000614ff482614261565b9150614fff83614261565b925082820190508082111561501757615016614fba565b5b92915050565b7f4e487b7100000000000000000000000000000000000000000000000000000000600052603260045260246000fd5b600061505782614261565b91507fffffffffffffffffffffffffffffffffffffffffffffffffffffffffffffffff820361508957615088614fba565b5b600182019050919050565b7f4e487b7100000000000000000000000000000000000000000000000000000000600052602260045260246000fd5b600060028204905060018216806150db57607f821691505b6020821081036150ee576150ed615094565b5b50919050565b600082825260208201905092915050565b7f42657420646f6573206e6f742065786973740000000000000000000000000000600082015250565b600061513b6012836150f4565b915061514682615105565b602082019050919050565b6000602082019050818103600083015261516a8161512e565b9050919050565b60008151905061518081614553565b92915050565b60006020828403121561519c5761519b6141a0565b5b60006151aa84828501615171565b91505092915050565b7f696e76616c69642077616c6c6574000000000000000000000000000000000000600082015250565b60006151e9600e836150f4565b91506151f4826151b3565b602082019050919050565b60006020820190508181036000830152615218816151dc565b9050919050565b600061522a82614261565b915061523583614261565b925082820390508181111561524d5761524c614fba565b5b92915050565b60008190508160005260206000209050919050565b60006020601f8301049050919050565b600082821b905092915050565b6000600883026152b57fffffffffffffffffffffffffffffffffffffffffffffffffffffffffffffffff82615278565b6152bf8683615278565b95508019841693508086168417925050509392505050565b60006152f26152ed6152e884614261565b61491a565b614261565b9050919050565b6000819050919050565b61530c836152d7565b615320615318826152f9565b848454615285565b825550505050565b600090565b615335615328565b615340818484615303565b505050565b5b818110156153645761535960008261532d565b600181019050615346565b5050565b601f8211156153a95761537a81615253565b61538384615268565b81016020851015615392578190505b6153a661539e85615268565b830182615345565b50505b505050565b600082821c905092915050565b60006153cc600019846008026153ae565b1980831691505092915050565b60006153e583836153bb565b9150826002028217905092915050565b6153fe826145ac565b67ffffffffffffffff811115615417576154166149c8565b5b61542182546150c3565b61542c828285615368565b600060209050601f83116001811461545f576000841561544d578287015190505b61545785826153d9565b8655506154bf565b601f19841661546d86615253565b60005b8281101561549557848901518255600182019150602085019450602081019050615470565b868310156154b257848901516154ae601f8916826153bb565b8355505b6001600288020188555050505b505050505050565b60006060820190506154dc60008301866148f0565b6154e960208301856148f0565b6154f66040830184614994565b949350505050565b60006060820190506155136000830186614994565b6155206020830185614994565b61552d60408301846148f0565b949350505050565b61553e8161435a565b811461554957600080fd5b50565b60008151905061555b81615535565b92915050565b600060208284031215615577576155766141a0565b5b60006155858482850161554c565b91505092915050565b7f546f6b656e207472616e73666572206661696c65640000000000000000000000600082015250565b60006155c46015836150f4565b91506155cf8261558e565b602082019050919050565b600060208201905081810360008301526155f3816155b7565b9050919050565b7f496e76616c69642062657420616d6f756e740000000000000000000000000000600082015250565b60006156306012836150f4565b915061563b826155fa565b602082019050919050565b6000602082019050818103600083015261565f81615623565b9050919050565b7f4e487b7100000000000000000000000000000000000000000000000000000000600052601260045260246000fd5b60006156a082614261565b91506156ab83614261565b9250826156bb576156ba615666565b5b828204905092915050565b7f50726564696374696f6e20636f756e7420726561636865640000000000000000600082015250565b60006156fc6018836150f4565b9150615707826156c6565b602082019050919050565b6000602082019050818103600083015261572b816156ef565b9050919050565b7f4d617820626574207061727469636970616e7473207265616368656400000000600082015250565b6000615768601c836150f4565b915061577382615732565b602082019050919050565b600060208201905081810360008301526157978161575b565b9050919050565b60006157a9826145ac565b6157b381856150f4565b93506157c38185602086016145c8565b6157cc816145f2565b840191505092915050565b60006080820190506157ec60008301876148f0565b6157f96020830186614994565b818103604083015261580b818561579e565b9050818103606083015261581f818461579e565b905095945050505050565b600081905092915050565b6000615840826145ac565b61584a818561582a565b935061585a8185602086016145c8565b80840191505092915050565b60006158728284615835565b915081905092915050565b7f53706f6e736f72206973206e6f74206120726567697374657265642075736572600082015250565b60006158b36020836150f4565b91506158be8261587d565b602082019050919050565b600060208201905081810360008301526158e2816158a6565b9050919050565b7f646f776e6c696e6520616c726561647920726567697374657265640000000000600082015250565b600061591f601b836150f4565b915061592a826158e9565b602082019050919050565b6000602082019050818103600083015261594e81615912565b9050919050565b7f446f776e6c696e6520697320616c72656164792072656665727265642062792060008201527f7468652073706f6e736f72000000000000000000000000000000000000000000602082015250565b60006159b1602b836150f4565b91506159bc82615955565b604082019050919050565b600060208201905081810360008301526159e0816159a4565b9050919050565b7f556e617574686f72697a65640000000000000000000000000000000000000000600082015250565b6000615a1d600c836150f4565b9150615a28826159e7565b602082019050919050565b60006020820190508181036000830152615a4c81615a10565b9050919050565b6000604082019050615a686000830185614994565b615a7560208301846148f0565b9392505050565b6000615a8782614261565b9150615a9283614261565b9250828202615aa081614261565b91508282048414831517615ab757615ab6614fba565b5b5092915050565b7f696e76616c696420416d6f756e74000000000000000000000000000000000000600082015250565b6000615af4600e836150f4565b9150615aff82615abe565b602082019050919050565b60006020820190508181036000830152615b2381615ae7565b9050919050565b7f496e73756666696369656e742046524400000000000000000000000000000000600082015250565b6000615b606010836150f4565b9150615b6b82615b2a565b602082019050919050565b60006020820190508181036000830152615b8f81615b53565b9050919050565b6000604082019050615bab6000830185614994565b615bb86020830184614994565b9392505050565b7f7472616e73666572206e6f7420617070726f7665640000000000000000000000600082015250565b6000615bf56015836150f4565b9150615c0082615bbf565b602082019050919050565b60006020820190508181036000830152615c2481615be8565b9050919050565b7f4475706c696361746520426574204e6f7420416c6c6f77656400000000000000600082015250565b6000615c616019836150f4565b9150615c6c82615c2b565b602082019050919050565b60006020820190508181036000830152615c9081615c54565b9050919050565b7f436f6e747261637420646f6573206e6f74206861766520656e6f75676820746f60008201527f6b656e7300000000000000000000000000000000000000000000000000000000602082015250565b6000615cf36024836150f4565b9150615cfe82615c97565b604082019050919050565b60006020820190508181036000830152615d2281615ce6565b9050919050565b7f726566657272616c2072657761726420616c726561647920636c61696d656400600082015250565b6000615d5f601f836150f4565b9150615d6a82615d29565b602082019050919050565b60006020820190508181036000830152615d8e81615d52565b9050919050565b600081549050919050565b60008190508160005260206000209050919050565b60008160001c9050919050565b600073ffffffffffffffffffffffffffffffffffffffff82169050919050565b6000615df5615df083615db5565b615dc2565b9050919050565b6000615e088254615de2565b9050919050565b6000600182019050919050565b6000615e2782615d95565b615e31818561448d565b9350615e3c83615da0565b8060005b83811015615e7457615e5182615dfc565b615e5b88826144ae565b9750615e6683615e0f565b925050600181019050615e40565b5085935050505092915050565b6000604082019050615e9660008301856148f0565b8181036020830152615ea88184615e1c565b90509392505050565b7f4e487b7100000000000000000000000000000000000000000000000000000000600052600160045260246000fdfea2646970667358221220788be8fd9d677ae7dacf30d8725f181d10022d54882e5c7f6c067cff0e16b4fc64736f6c63430008140033",
  "linkReferences": {},
  "deployedLinkReferences": {}
}