{
  "_format": "hh-sol-artifact-1",
  "contractName": "FRDBetting",
  "sourceName": "contracts/FRDBetting.sol",
  "abi": [
    {
      "inputs": [
        {
          "internalType": "address",
          "name": "_FifaRewardTokenAddress",
          "type": "address"
        }
      ],
      "stateMutability": "nonpayable",
      "type": "constructor"
    },
    {
      "inputs": [],
      "name": "ReentrancyGuardReentrantCall",
      "type": "error"
    },
    {
      "anonymous": false,
      "inputs": [
        {
          "indexed": false,
          "internalType": "uint256",
          "name": "betId",
          "type": "uint256"
        },
        {
          "indexed": false,
          "internalType": "uint256",
          "name": "matchId",
          "type": "uint256"
        },
        {
          "indexed": false,
          "internalType": "address",
          "name": "openedBy",
          "type": "address"
        }
      ],
      "name": "BetCreated",
      "type": "event"
    },
    {
      "anonymous": false,
      "inputs": [
        {
          "indexed": false,
          "internalType": "uint256",
          "name": "betId",
          "type": "uint256"
        },
        {
          "indexed": false,
          "internalType": "address",
          "name": "user",
          "type": "address"
        },
        {
          "indexed": false,
          "internalType": "string",
          "name": "prediction",
          "type": "string"
        },
        {
          "indexed": false,
          "internalType": "string",
          "name": "team",
          "type": "string"
        }
      ],
      "name": "PredictionSubmitted",
      "type": "event"
    },
    {
      "anonymous": false,
      "inputs": [
        {
          "indexed": true,
          "internalType": "address",
          "name": "sponsor",
          "type": "address"
        },
        {
          "indexed": false,
          "internalType": "uint256",
          "name": "amount",
          "type": "uint256"
        }
      ],
      "name": "ReferralRewardClaimed",
      "type": "event"
    },
    {
      "anonymous": false,
      "inputs": [
        {
          "indexed": false,
          "internalType": "uint256",
          "name": "userId",
          "type": "uint256"
        },
        {
          "indexed": true,
          "internalType": "address",
          "name": "user",
          "type": "address"
        },
        {
          "indexed": false,
          "internalType": "address[]",
          "name": "referrals",
          "type": "address[]"
        }
      ],
      "name": "UserRegistered",
      "type": "event"
    },
    {
      "inputs": [],
      "name": "FifaRewardTokenContract",
      "outputs": [
        {
          "internalType": "contract IERC20",
          "name": "",
          "type": "address"
        }
      ],
      "stateMutability": "view",
      "type": "function"
    },
    {
      "inputs": [
        {
          "internalType": "address",
          "name": "sponsorAddress",
          "type": "address"
        },
        {
          "internalType": "address",
          "name": "downlineAddress",
          "type": "address"
        },
        {
          "internalType": "string",
          "name": "username",
          "type": "string"
        }
      ],
      "name": "addReferral",
      "outputs": [],
      "stateMutability": "nonpayable",
      "type": "function"
    },
    {
      "inputs": [
        {
          "internalType": "uint256",
          "name": "betamount",
          "type": "uint256"
        },
        {
          "internalType": "string",
          "name": "prediction",
          "type": "string"
        },
        {
          "internalType": "string",
          "name": "bettingteam",
          "type": "string"
        },
        {
          "internalType": "string",
          "name": "username",
          "type": "string"
        },
        {
          "internalType": "uint256",
          "name": "_matchId",
          "type": "uint256"
        },
        {
          "internalType": "uint256",
          "name": "_uniquebetId",
          "type": "uint256"
        },
        {
          "internalType": "string",
          "name": "_matchfixture",
          "type": "string"
        },
        {
          "internalType": "address",
          "name": "openedby",
          "type": "address"
        },
        {
          "internalType": "uint256",
          "name": "_totalbetparticipantscount",
          "type": "uint256"
        }
      ],
      "name": "createBet",
      "outputs": [
        {
          "internalType": "uint256",
          "name": "",
          "type": "uint256"
        }
      ],
      "stateMutability": "nonpayable",
      "type": "function"
    },
    {
      "inputs": [],
      "name": "feeWallet",
      "outputs": [
        {
          "internalType": "address",
          "name": "",
          "type": "address"
        }
      ],
      "stateMutability": "view",
      "type": "function"
    },
    {
      "inputs": [],
      "name": "getAllBetIdsCount",
      "outputs": [
        {
          "internalType": "uint256",
          "name": "",
          "type": "uint256"
        }
      ],
      "stateMutability": "view",
      "type": "function"
    },
    {
      "inputs": [
        {
          "internalType": "address",
          "name": "_user",
          "type": "address"
        }
      ],
      "name": "getBetIdsCreatedByUser",
      "outputs": [
        {
          "internalType": "uint256[]",
          "name": "",
          "type": "uint256[]"
        }
      ],
      "stateMutability": "view",
      "type": "function"
    },
    {
      "inputs": [
        {
          "internalType": "address",
          "name": "_user",
          "type": "address"
        }
      ],
      "name": "getBetIdsCreatedByUserCount",
      "outputs": [
        {
          "internalType": "uint256",
          "name": "",
          "type": "uint256"
        }
      ],
      "stateMutability": "view",
      "type": "function"
    },
    {
      "inputs": [
        {
          "internalType": "address",
          "name": "_user",
          "type": "address"
        }
      ],
      "name": "getBetIdsUserJoined",
      "outputs": [
        {
          "internalType": "uint256[]",
          "name": "",
          "type": "uint256[]"
        }
      ],
      "stateMutability": "view",
      "type": "function"
    },
    {
      "inputs": [
        {
          "internalType": "address",
          "name": "_user",
          "type": "address"
        }
      ],
      "name": "getBetIdsUserJoinedCount",
      "outputs": [
        {
          "internalType": "uint256",
          "name": "",
          "type": "uint256"
        }
      ],
      "stateMutability": "view",
      "type": "function"
    },
    {
      "inputs": [
        {
          "internalType": "uint256",
          "name": "_betId",
          "type": "uint256"
        }
      ],
      "name": "getBetsMapping",
      "outputs": [
        {
          "components": [
            {
              "internalType": "uint256",
              "name": "betId",
              "type": "uint256"
            },
            {
              "internalType": "uint256",
              "name": "matchId",
              "type": "uint256"
            },
            {
              "internalType": "uint256",
              "name": "uniquebetId",
              "type": "uint256"
            },
            {
              "internalType": "string",
              "name": "matchfixture",
              "type": "string"
            },
            {
              "internalType": "address",
              "name": "openedBy",
              "type": "address"
            },
            {
              "internalType": "string",
              "name": "betstatus",
              "type": "string"
            },
            {
              "internalType": "uint256",
              "name": "totalbetparticipantscount",
              "type": "uint256"
            },
            {
              "internalType": "uint256",
              "name": "remainingparticipantscount",
              "type": "uint256"
            },
            {
              "internalType": "address[]",
              "name": "participants",
              "type": "address[]"
            },
            {
              "internalType": "address[]",
              "name": "betwinners",
              "type": "address[]"
            },
            {
              "internalType": "address[]",
              "name": "betlosers",
              "type": "address[]"
            }
          ],
          "internalType": "struct Bet",
          "name": "",
          "type": "tuple"
        }
      ],
      "stateMutability": "view",
      "type": "function"
    },
    {
      "inputs": [
        {
          "internalType": "uint256",
          "name": "_betId",
          "type": "uint256"
        }
      ],
      "name": "getLosers",
      "outputs": [
        {
          "internalType": "address[]",
          "name": "",
          "type": "address[]"
        }
      ],
      "stateMutability": "view",
      "type": "function"
    },
    {
      "inputs": [
        {
          "internalType": "uint256",
          "name": "_betId",
          "type": "uint256"
        },
        {
          "internalType": "string",
          "name": "_bettingteam",
          "type": "string"
        },
        {
          "internalType": "string",
          "name": "_prediction",
          "type": "string"
        }
      ],
      "name": "getPredictionCount",
      "outputs": [
        {
          "internalType": "uint256",
          "name": "",
          "type": "uint256"
        }
      ],
      "stateMutability": "view",
      "type": "function"
    },
    {
      "inputs": [
        {
          "internalType": "uint256",
          "name": "_betId",
          "type": "uint256"
        }
      ],
      "name": "getPredictions",
      "outputs": [
        {
          "components": [
            {
              "internalType": "string",
              "name": "username",
              "type": "string"
            },
            {
              "internalType": "uint256",
              "name": "betamount",
              "type": "uint256"
            },
            {
              "internalType": "uint256",
              "name": "predictioncount",
              "type": "uint256"
            },
            {
              "internalType": "bool",
              "name": "hasjoinedthisbet",
              "type": "bool"
            },
            {
              "internalType": "string",
              "name": "prediction",
              "type": "string"
            },
            {
              "internalType": "string",
              "name": "bettingteam",
              "type": "string"
            }
          ],
          "internalType": "struct ParticipantsBetDetails[]",
          "name": "",
          "type": "tuple[]"
        }
      ],
      "stateMutability": "view",
      "type": "function"
    },
    {
      "inputs": [
        {
          "internalType": "address",
          "name": "sponsor",
          "type": "address"
        }
      ],
      "name": "getReferrals",
      "outputs": [
        {
          "internalType": "address[]",
          "name": "",
          "type": "address[]"
        }
      ],
      "stateMutability": "view",
      "type": "function"
    },
    {
      "inputs": [
        {
          "internalType": "address",
          "name": "_user",
          "type": "address"
        }
      ],
      "name": "getUserRegistrationDetails",
      "outputs": [
        {
          "components": [
            {
              "internalType": "uint256",
              "name": "userId",
              "type": "uint256"
            },
            {
              "internalType": "string",
              "name": "username",
              "type": "string"
            },
            {
              "internalType": "uint256",
              "name": "betCount",
              "type": "uint256"
            },
            {
              "internalType": "bool",
              "name": "hasActiveBet",
              "type": "bool"
            },
            {
              "internalType": "uint256",
              "name": "refCount",
              "type": "uint256"
            },
            {
              "internalType": "bool",
              "name": "registered",
              "type": "bool"
            },
            {
              "internalType": "bool",
              "name": "wasReferred",
              "type": "bool"
            },
            {
              "internalType": "address",
              "name": "sponsor",
              "type": "address"
            },
            {
              "internalType": "address",
              "name": "useraddress",
              "type": "address"
            },
            {
              "internalType": "address[]",
              "name": "referrals",
              "type": "address[]"
            }
          ],
          "internalType": "struct User",
          "name": "",
          "type": "tuple"
        }
      ],
      "stateMutability": "view",
      "type": "function"
    },
    {
      "inputs": [
        {
          "internalType": "uint256",
          "name": "_betId",
          "type": "uint256"
        }
      ],
      "name": "getWinners",
      "outputs": [
        {
          "internalType": "address[]",
          "name": "",
          "type": "address[]"
        }
      ],
      "stateMutability": "view",
      "type": "function"
    },
    {
      "inputs": [
        {
          "internalType": "uint256",
          "name": "_betId",
          "type": "uint256"
        }
      ],
      "name": "getbetParticipants",
      "outputs": [
        {
          "internalType": "address[]",
          "name": "",
          "type": "address[]"
        }
      ],
      "stateMutability": "view",
      "type": "function"
    },
    {
      "inputs": [
        {
          "internalType": "uint256",
          "name": "_betId",
          "type": "uint256"
        }
      ],
      "name": "getbetParticipantsCount",
      "outputs": [
        {
          "internalType": "uint256",
          "name": "",
          "type": "uint256"
        }
      ],
      "stateMutability": "view",
      "type": "function"
    },
    {
      "inputs": [
        {
          "internalType": "address",
          "name": "sponsor",
          "type": "address"
        }
      ],
      "name": "getsponsorReferralRewards",
      "outputs": [
        {
          "components": [
            {
              "internalType": "uint256",
              "name": "refrewardId",
              "type": "uint256"
            },
            {
              "internalType": "uint256",
              "name": "betId",
              "type": "uint256"
            },
            {
              "internalType": "address",
              "name": "sponsor",
              "type": "address"
            },
            {
              "internalType": "uint256",
              "name": "rewardamount",
              "type": "uint256"
            },
            {
              "internalType": "bool",
              "name": "rewardrecieved",
              "type": "bool"
            }
          ],
          "internalType": "struct ReferralReward[]",
          "name": "",
          "type": "tuple[]"
        }
      ],
      "stateMutability": "view",
      "type": "function"
    },
    {
      "inputs": [],
      "name": "myTokenBalance",
      "outputs": [
        {
          "internalType": "uint256",
          "name": "",
          "type": "uint256"
        }
      ],
      "stateMutability": "view",
      "type": "function"
    },
    {
      "inputs": [],
      "name": "nextBetId",
      "outputs": [
        {
          "internalType": "uint256",
          "name": "",
          "type": "uint256"
        }
      ],
      "stateMutability": "view",
      "type": "function"
    },
    {
      "inputs": [],
      "name": "nextReferralRewardId",
      "outputs": [
        {
          "internalType": "uint256",
          "name": "",
          "type": "uint256"
        }
      ],
      "stateMutability": "view",
      "type": "function"
    },
    {
      "inputs": [],
      "name": "nextUserId",
      "outputs": [
        {
          "internalType": "uint256",
          "name": "",
          "type": "uint256"
        }
      ],
      "stateMutability": "view",
      "type": "function"
    },
    {
      "inputs": [
        {
          "internalType": "uint256",
          "name": "_matchId",
          "type": "uint256"
        },
        {
          "internalType": "string",
          "name": "_prediction",
          "type": "string"
        },
        {
          "internalType": "string",
          "name": "_bettingteam",
          "type": "string"
        }
      ],
      "name": "processMatchResults",
      "outputs": [],
      "stateMutability": "nonpayable",
      "type": "function"
    },
    {
      "inputs": [
        {
          "internalType": "uint256",
          "name": "_betId",
          "type": "uint256"
        },
        {
          "internalType": "uint256",
          "name": "betamount",
          "type": "uint256"
        },
        {
          "internalType": "string",
          "name": "username",
          "type": "string"
        },
        {
          "internalType": "string",
          "name": "_prediction",
          "type": "string"
        },
        {
          "internalType": "string",
          "name": "_team",
          "type": "string"
        }
      ],
      "name": "submitPrediction",
      "outputs": [],
      "stateMutability": "nonpayable",
      "type": "function"
    },
    {
      "inputs": [
        {
          "internalType": "uint256",
          "name": "",
          "type": "uint256"
        }
      ],
      "name": "userIdToAddress",
      "outputs": [
        {
          "internalType": "address",
          "name": "",
          "type": "address"
        }
      ],
      "stateMutability": "view",
      "type": "function"
    }
  ],
  "bytecode": "0x60806040524260015573bcceb2145266639e0c39101d48b79b6c694a84dc600960006101000a81548173ffffffffffffffffffffffffffffffffffffffff021916908373ffffffffffffffffffffffffffffffffffffffff1602179055503480156200006a57600080fd5b5060405162005cd638038062005cd683398181016040528101906200009091906200018b565b600160008190555080600260006101000a81548173ffffffffffffffffffffffffffffffffffffffff021916908373ffffffffffffffffffffffffffffffffffffffff16021790555033600760006101000a81548173ffffffffffffffffffffffffffffffffffffffff021916908373ffffffffffffffffffffffffffffffffffffffff16021790555050620001bd565b600080fd5b600073ffffffffffffffffffffffffffffffffffffffff82169050919050565b6000620001538262000126565b9050919050565b620001658162000146565b81146200017157600080fd5b50565b60008151905062000185816200015a565b92915050565b600060208284031215620001a457620001a362000121565b5b6000620001b48482850162000174565b91505092915050565b615b0980620001cd6000396000f3fe608060405234801561001057600080fd5b506004361061018e5760003560e01c8063a19e9555116100de578063ce39fdea11610097578063db8e19a511610071578063db8e19a51461050b578063eb6821a51461053b578063f1813d511461056b578063f25f4b561461059b5761018e565b8063ce39fdea146104a3578063d64bed5a146104bf578063d98716c4146104ef5761018e565b8063a19e9555146103bb578063a1e6a255146103d9578063b1695201146103f7578063b281dfd014610427578063b7ae234014610443578063b9097cc4146104735761018e565b80636b1426a41161014b57806388aff5861161012557806388aff5861461031f5780638af78b3a1461033d5780638baa563d1461036d5780639aca27921461039d5761018e565b80636b1426a4146102a15780636b3b5c59146102d15780637b414882146102ef5761018e565b8063022bd8bf146101935780630340f124146101c357806341a0894d146101f35780634ddfc30214610223578063531eb077146102535780635e6ba54914610283575b600080fd5b6101ad60048036038101906101a89190614061565b6105b9565b6040516101ba9190614156565b60405180910390f35b6101dd60048036038101906101d89190614061565b610650565b6040516101ea91906142b9565b60405180910390f35b61020d60048036038101906102089190614061565b61084d565b60405161021a919061438a565b60405180910390f35b61023d600480360381019061023891906143d8565b61091d565b60405161024a919061460f565b60405180910390f35b61026d60048036038101906102689190614061565b610ca1565b60405161027a9190614712565b60405180910390f35b61028b610f36565b6040516102989190614743565b60405180910390f35b6102bb60048036038101906102b691906143d8565b610f7d565b6040516102c8919061438a565b60405180910390f35b6102d9611079565b6040516102e69190614743565b60405180910390f35b61030960048036038101906103049190614061565b611083565b6040516103169190614156565b60405180910390f35b61032761111a565b60405161033491906147bd565b60405180910390f35b610357600480360381019061035291906143d8565b611140565b6040516103649190614743565b60405180910390f35b610387600480360381019061038291906143d8565b611163565b604051610394919061438a565b60405180910390f35b6103a561125f565b6040516103b29190614743565b60405180910390f35b6103c3611265565b6040516103d09190614743565b60405180910390f35b6103e161126b565b6040516103ee9190614743565b60405180910390f35b610411600480360381019061040c91906143d8565b611271565b60405161041e91906147e7565b60405180910390f35b610441600480360381019061043c9190614937565b6112a4565b005b61045d600480360381019061045891906143d8565b61181a565b60405161046a919061438a565b60405180910390f35b61048d600480360381019061048891906149c2565b6118be565b60405161049a9190614743565b60405180910390f35b6104bd60048036038101906104b89190614afc565b6121eb565b005b6104d960048036038101906104d49190614937565b6129f2565b6040516104e69190614743565b60405180910390f35b61050960048036038101906105049190614bcb565b612a4c565b005b61052560048036038101906105209190614061565b612c76565b6040516105329190614743565b60405180910390f35b61055560048036038101906105509190614061565b612cc2565b6040516105629190614743565b60405180910390f35b610585600480360381019061058091906143d8565b612d0e565b6040516105929190614d93565b60405180910390f35b6105a36130bd565b6040516105b091906147e7565b60405180910390f35b6060601360008373ffffffffffffffffffffffffffffffffffffffff1673ffffffffffffffffffffffffffffffffffffffff16815260200190815260200160002080548060200260200160405190810160405280929190818152602001828054801561064457602002820191906000526020600020905b815481526020019060010190808311610630575b50505050509050919050565b6060600060045490506000808267ffffffffffffffff8111156106765761067561480c565b5b6040519080825280602002602001820160405280156106af57816020015b61069c613d82565b8152602001906001900390816106945790505b5090506000600190505b838111610841578573ffffffffffffffffffffffffffffffffffffffff16601560006001846106e89190614de4565b815260200190815260200160002060020160009054906101000a900473ffffffffffffffffffffffffffffffffffffffff1673ffffffffffffffffffffffffffffffffffffffff160361082e576000601560006001846107489190614de4565b81526020019081526020016000209050806040518060a001604052908160008201548152602001600182015481526020016002820160009054906101000a900473ffffffffffffffffffffffffffffffffffffffff1673ffffffffffffffffffffffffffffffffffffffff1673ffffffffffffffffffffffffffffffffffffffff168152602001600382015481526020016004820160009054906101000a900460ff161515151581525050836001846108019190614de4565b8151811061081257610811614e18565b5b602002602001018190525060018461082a9190614de4565b9350505b808061083990614e47565b9150506106b9565b50809350505050919050565b6060601460008373ffffffffffffffffffffffffffffffffffffffff1673ffffffffffffffffffffffffffffffffffffffff16815260200190815260200160002060070180548060200260200160405190810160405280929190818152602001828054801561091157602002820191906000526020600020905b8160009054906101000a900473ffffffffffffffffffffffffffffffffffffffff1673ffffffffffffffffffffffffffffffffffffffff16815260200190600101908083116108c7575b50505050509050919050565b610925613dc9565b600d60008381526020019081526020016000206040518061016001604052908160008201548152602001600182015481526020016002820154815260200160038201805461097290614ebe565b80601f016020809104026020016040519081016040528092919081815260200182805461099e90614ebe565b80156109eb5780601f106109c0576101008083540402835291602001916109eb565b820191906000526020600020905b8154815290600101906020018083116109ce57829003601f168201915b505050505081526020016004820160009054906101000a900473ffffffffffffffffffffffffffffffffffffffff1673ffffffffffffffffffffffffffffffffffffffff1673ffffffffffffffffffffffffffffffffffffffff168152602001600582018054610a5a90614ebe565b80601f0160208091040260200160405190810160405280929190818152602001828054610a8690614ebe565b8015610ad35780601f10610aa857610100808354040283529160200191610ad3565b820191906000526020600020905b815481529060010190602001808311610ab657829003601f168201915b50505050508152602001600682015481526020016007820154815260200160088201805480602002602001604051908101604052809291908181526020018280548015610b7557602002820191906000526020600020905b8160009054906101000a900473ffffffffffffffffffffffffffffffffffffffff1673ffffffffffffffffffffffffffffffffffffffff1681526020019060010190808311610b2b575b5050505050815260200160098201805480602002602001604051908101604052809291908181526020018280548015610c0357602002820191906000526020600020905b8160009054906101000a900473ffffffffffffffffffffffffffffffffffffffff1673ffffffffffffffffffffffffffffffffffffffff1681526020019060010190808311610bb9575b50505050508152602001600a8201805480602002602001604051908101604052809291908181526020018280548015610c9157602002820191906000526020600020905b8160009054906101000a900473ffffffffffffffffffffffffffffffffffffffff1673ffffffffffffffffffffffffffffffffffffffff1681526020019060010190808311610c47575b5050505050815250509050919050565b610ca9613e39565b601460008373ffffffffffffffffffffffffffffffffffffffff1673ffffffffffffffffffffffffffffffffffffffff1681526020019081526020016000206040518061014001604052908160008201548152602001600182018054610d0e90614ebe565b80601f0160208091040260200160405190810160405280929190818152602001828054610d3a90614ebe565b8015610d875780601f10610d5c57610100808354040283529160200191610d87565b820191906000526020600020905b815481529060010190602001808311610d6a57829003601f168201915b50505050508152602001600282015481526020016003820160009054906101000a900460ff16151515158152602001600482015481526020016005820160009054906101000a900460ff161515151581526020016005820160019054906101000a900460ff161515151581526020016005820160029054906101000a900473ffffffffffffffffffffffffffffffffffffffff1673ffffffffffffffffffffffffffffffffffffffff1673ffffffffffffffffffffffffffffffffffffffff1681526020016006820160009054906101000a900473ffffffffffffffffffffffffffffffffffffffff1673ffffffffffffffffffffffffffffffffffffffff1673ffffffffffffffffffffffffffffffffffffffff16815260200160078201805480602002602001604051908101604052809291908181526020018280548015610f2657602002820191906000526020600020905b8160009054906101000a900473ffffffffffffffffffffffffffffffffffffffff1673ffffffffffffffffffffffffffffffffffffffff1681526020019060010190808311610edc575b5050505050815250509050919050565b6000600c60003373ffffffffffffffffffffffffffffffffffffffff1673ffffffffffffffffffffffffffffffffffffffff16815260200190815260200160002054905090565b606081600d60008481526020019081526020016000206000015414610fd7576040517f08c379a0000000000000000000000000000000000000000000000000000000008152600401610fce90614f4c565b60405180910390fd5b600d600083815260200190815260200160002060090180548060200260200160405190810160405280929190818152602001828054801561106d57602002820191906000526020600020905b8160009054906101000a900473ffffffffffffffffffffffffffffffffffffffff1673ffffffffffffffffffffffffffffffffffffffff1681526020019060010190808311611023575b50505050509050919050565b6000600354905090565b6060601260008373ffffffffffffffffffffffffffffffffffffffff1673ffffffffffffffffffffffffffffffffffffffff16815260200190815260200160002080548060200260200160405190810160405280929190818152602001828054801561110e57602002820191906000526020600020905b8154815260200190600101908083116110fa575b50505050509050919050565b600260009054906101000a900473ffffffffffffffffffffffffffffffffffffffff1681565b6000600d6000838152602001908152602001600020600801805490509050919050565b606081600d600084815260200190815260200160002060000154146111bd576040517f08c379a00000000000000000000000000000000000000000000000000000000081526004016111b490614f4c565b60405180910390fd5b600d6000838152602001908152602001600020600a0180548060200260200160405190810160405280929190818152602001828054801561125357602002820191906000526020600020905b8160009054906101000a900473ffffffffffffffffffffffffffffffffffffffff1673ffffffffffffffffffffffffffffffffffffffff1681526020019060010190808311611209575b50505050509050919050565b60035481565b60045481565b60055481565b60106020528060005260406000206000915054906101000a900473ffffffffffffffffffffffffffffffffffffffff1681565b6000600190505b6003548111611814576000600d600083815260200190815260200160002060090190506000600d6000848152602001908152602001600020600a0190506113c5600d6000858152602001908152602001600020600501805461130c90614ebe565b80601f016020809104026020016040519081016040528092919081815260200182805461133890614ebe565b80156113855780601f1061135a57610100808354040283529160200191611385565b820191906000526020600020905b81548152906001019060200180831161136857829003601f168201915b50505050506040518060400160405280600481526020017f6f70656e000000000000000000000000000000000000000000000000000000008152506130e3565b1561170e5785600d6000858152602001908152602001600020600101540361170d576000600d6000858152602001908152602001600020905060005b816008018054905081101561170a57600082600801828154811061142857611427614e18565b5b9060005260206000200160009054906101000a900473ffffffffffffffffffffffffffffffffffffffff16905061153a600f600088815260200190815260200160002060008373ffffffffffffffffffffffffffffffffffffffff1673ffffffffffffffffffffffffffffffffffffffff16815260200190815260200160002060040180546114b690614ebe565b80601f01602080910402602001604051908101604052809291908181526020018280546114e290614ebe565b801561152f5780601f106115045761010080835404028352916020019161152f565b820191906000526020600020905b81548152906001019060200180831161151257829003601f168201915b5050505050896130e3565b80156116275750611626600f600088815260200190815260200160002060008373ffffffffffffffffffffffffffffffffffffffff1673ffffffffffffffffffffffffffffffffffffffff16815260200190815260200160002060050180546115a290614ebe565b80601f01602080910402602001604051908101604052809291908181526020018280546115ce90614ebe565b801561161b5780601f106115f05761010080835404028352916020019161161b565b820191906000526020600020905b8154815290600101906020018083116115fe57829003601f168201915b5050505050886130e3565b5b156116935784819080600181540180825580915050600190039060005260206000200160009091909190916101000a81548173ffffffffffffffffffffffffffffffffffffffff021916908373ffffffffffffffffffffffffffffffffffffffff1602179055506116f6565b83819080600181540180825580915050600190039060005260206000200160009091909190916101000a81548173ffffffffffffffffffffffffffffffffffffffff021916908373ffffffffffffffffffffffffffffffffffffffff1602179055505b50808061170290614e47565b915050611401565b50505b5b81600d6000858152602001908152602001600020600901908054611733929190613ebe565b5080600d6000858152602001908152602001600020600a01908054611759929190613ebe565b506117ff600d600085815260200190815260200160002060000154838054806020026020016040519081016040528092919081815260200182805480156117f557602002820191906000526020600020905b8160009054906101000a900473ffffffffffffffffffffffffffffffffffffffff1673ffffffffffffffffffffffffffffffffffffffff16815260200190600101908083116117ab575b505050505061313c565b5050808061180c90614e47565b9150506112ab565b50505050565b6060600d60008381526020019081526020016000206008018054806020026020016040519081016040528092919081815260200182805480156118b257602002820191906000526020600020905b8160009054906101000a900473ffffffffffffffffffffffffffffffffffffffff1673ffffffffffffffffffffffffffffffffffffffff1681526020019060010190808311611868575b50505050509050919050565b6000600360008154809291906118d390614e47565b9190505550600073ffffffffffffffffffffffffffffffffffffffff163373ffffffffffffffffffffffffffffffffffffffff1603611947576040517f08c379a000000000000000000000000000000000000000000000000000000000815260040161193e90614fb8565b60405180910390fd5b60008a1161198a576040517f08c379a000000000000000000000000000000000000000000000000000000000815260040161198190615024565b60405180910390fd5b89600c60003373ffffffffffffffffffffffffffffffffffffffff1673ffffffffffffffffffffffffffffffffffffffff168152602001908152602001600020541015611ab05789600260009054906101000a900473ffffffffffffffffffffffffffffffffffffffff1673ffffffffffffffffffffffffffffffffffffffff166370a08231336040518263ffffffff1660e01b8152600401611a2d91906147e7565b602060405180830381865afa158015611a4a573d6000803e3d6000fd5b505050506040513d601f19601f82011682018060405250810190611a6e9190615059565b1015611aaf576040517f08c379a0000000000000000000000000000000000000000000000000000000008152600401611aa6906150d2565b60405180910390fd5b5b6000600d60006003548152602001908152602001600020600801905080339080600181540180825580915050600190039060005260206000200160009091909190916101000a81548173ffffffffffffffffffffffffffffffffffffffff021916908373ffffffffffffffffffffffffffffffffffffffff160217905550808054905083611b3e91906150f2565b60068190555060405180610160016040528060035481526020018881526020018781526020018681526020018573ffffffffffffffffffffffffffffffffffffffff1681526020016040518060400160405280600481526020017f6f70656e000000000000000000000000000000000000000000000000000000008152508152602001848152602001600654815260200182805480602002602001604051908101604052809291908181526020018280548015611c5057602002820191906000526020600020905b8160009054906101000a900473ffffffffffffffffffffffffffffffffffffffff1673ffffffffffffffffffffffffffffffffffffffff1681526020019060010190808311611c06575b505050505081526020016008805480602002602001604051908101604052809291908181526020018280548015611cdc57602002820191906000526020600020905b8160009054906101000a900473ffffffffffffffffffffffffffffffffffffffff1673ffffffffffffffffffffffffffffffffffffffff1681526020019060010190808311611c92575b505050505081526020016008805480602002602001604051908101604052809291908181526020018280548015611d6857602002820191906000526020600020905b8160009054906101000a900473ffffffffffffffffffffffffffffffffffffffff1673ffffffffffffffffffffffffffffffffffffffff1681526020019060010190808311611d1e575b5050505050815250600d600060035481526020019081526020016000206000820151816000015560208201518160010155604082015181600201556060820151816003019081611db891906152c8565b5060808201518160040160006101000a81548173ffffffffffffffffffffffffffffffffffffffff021916908373ffffffffffffffffffffffffffffffffffffffff16021790555060a0820151816005019081611e1591906152c8565b5060c0820151816006015560e08201518160070155610100820151816008019080519060200190611e47929190613f10565b50610120820151816009019080519060200190611e65929190613f10565b5061014082015181600a019080519060200190611e83929190613f10565b50905050601260003373ffffffffffffffffffffffffffffffffffffffff1673ffffffffffffffffffffffffffffffffffffffff1681526020019081526020016000206003549080600181540180825580915050600190039060005260206000200160009091909190915055601260003373ffffffffffffffffffffffffffffffffffffffff1673ffffffffffffffffffffffffffffffffffffffff16815260200190815260200160002080549050601460003373ffffffffffffffffffffffffffffffffffffffff1673ffffffffffffffffffffffffffffffffffffffff168152602001908152602001600020600201819055506000600f6000600354815260200190815260200160002060003373ffffffffffffffffffffffffffffffffffffffff1673ffffffffffffffffffffffffffffffffffffffff168152602001908152602001600020905088816000019081611fdf91906152c8565b508b816001018190555060018160030160006101000a81548160ff0219169083151502179055508a81600401908161201791906152c8565b508981600501908161202991906152c8565b506120386003548b8d33613393565b601460003373ffffffffffffffffffffffffffffffffffffffff1673ffffffffffffffffffffffffffffffffffffffff16815260200190815260200160002060050160009054906101000a900460ff166120a2576120a18960006001600060016000803361345d565b5b8b600c60003373ffffffffffffffffffffffffffffffffffffffff1673ffffffffffffffffffffffffffffffffffffffff16815260200190815260200160002054101561218d57600260009054906101000a900473ffffffffffffffffffffffffffffffffffffffff1673ffffffffffffffffffffffffffffffffffffffff166323b872dd33308f6040518463ffffffff1660e01b81526004016121489392919061539a565b6020604051808303816000875af1158015612167573d6000803e3d6000fd5b505050506040513d601f19601f8201168201806040525081019061218b91906153fd565b505b7f2cede4f6e649c8636986a39dac68105d8d1e1fddbc3bbfbc67c327d1faa160b960035489336040516121c29392919061542a565b60405180910390a16121d7338d6003546137ac565b600354925050509998505050505050505050565b84600d60008781526020019081526020016000206000015414612243576040517f08c379a000000000000000000000000000000000000000000000000000000000815260040161223a90614f4c565b60405180910390fd5b600073ffffffffffffffffffffffffffffffffffffffff163373ffffffffffffffffffffffffffffffffffffffff16036122b2576040517f08c379a00000000000000000000000000000000000000000000000000000000081526004016122a990614fb8565b60405180910390fd5b600084116122f5576040517f08c379a00000000000000000000000000000000000000000000000000000000081526004016122ec90615024565b60405180910390fd5b83600c60003373ffffffffffffffffffffffffffffffffffffffff1673ffffffffffffffffffffffffffffffffffffffff16815260200190815260200160002054101561241b5783600260009054906101000a900473ffffffffffffffffffffffffffffffffffffffff1673ffffffffffffffffffffffffffffffffffffffff166370a08231336040518263ffffffff1660e01b815260040161239891906147e7565b602060405180830381865afa1580156123b5573d6000803e3d6000fd5b505050506040513d601f19601f820116820180604052508101906123d99190615059565b101561241a576040517f08c379a0000000000000000000000000000000000000000000000000000000008152600401612411906150d2565b60405180910390fd5b5b601460003373ffffffffffffffffffffffffffffffffffffffff1673ffffffffffffffffffffffffffffffffffffffff16815260200190815260200160002060050160009054906101000a900460ff16612485576124848360006001600060016000803361345d565b5b60011515600f600087815260200190815260200160002060003373ffffffffffffffffffffffffffffffffffffffff1673ffffffffffffffffffffffffffffffffffffffff16815260200190815260200160002060030160009054906101000a900460ff1615150361252c576040517f08c379a0000000000000000000000000000000000000000000000000000000008152600401612523906154ad565b60405180910390fd5b60006125586002600d600089815260200190815260200160002060060154613bc090919063ffffffff16565b9050806125668784866129f2565b036125a6576040517f08c379a000000000000000000000000000000000000000000000000000000000815260040161259d90615519565b60405180910390fd5b6000600d600088815260200190815260200160002060070154036125ff576040517f08c379a00000000000000000000000000000000000000000000000000000000081526004016125f690615585565b60405180910390fd5b61260b86838533613393565b601360003373ffffffffffffffffffffffffffffffffffffffff1673ffffffffffffffffffffffffffffffffffffffff1681526020019081526020016000206003549080600181540180825580915050600190039060005260206000200160009091909190915055601360003373ffffffffffffffffffffffffffffffffffffffff1673ffffffffffffffffffffffffffffffffffffffff16815260200190815260200160002080549050601460003373ffffffffffffffffffffffffffffffffffffffff1673ffffffffffffffffffffffffffffffffffffffff168152602001908152602001600020600201819055506000600d6000888152602001908152602001600020600801905080339080600181540180825580915050600190039060005260206000200160009091909190916101000a81548173ffffffffffffffffffffffffffffffffffffffff021916908373ffffffffffffffffffffffffffffffffffffffff1602179055508080549050600d60008981526020019081526020016000206006015461279e91906150f2565b600681905550600654600d6000898152602001908152602001600020600701819055506000600f600089815260200190815260200160002060003373ffffffffffffffffffffffffffffffffffffffff1673ffffffffffffffffffffffffffffffffffffffff16815260200190815260200160002090508581600001908161282691906152c8565b5086816001018190555060018160030160006101000a81548160ff0219169083151502179055508481600401908161285e91906152c8565b508381600501908161287091906152c8565b5087601160003373ffffffffffffffffffffffffffffffffffffffff1673ffffffffffffffffffffffffffffffffffffffff1681526020019081526020016000208190555086600c60003373ffffffffffffffffffffffffffffffffffffffff1673ffffffffffffffffffffffffffffffffffffffff1681526020019081526020016000205410156129a057600260009054906101000a900473ffffffffffffffffffffffffffffffffffffffff1673ffffffffffffffffffffffffffffffffffffffff166323b872dd33308a6040518463ffffffff1660e01b815260040161295b9392919061539a565b6020604051808303816000875af115801561297a573d6000803e3d6000fd5b505050506040513d601f19601f8201168201806040525081019061299e91906153fd565b505b7f7a8caa7e135af369e96fc1d14412bdcb5b141d06f7c59d3ca78b532fa0ba46ba883387876040516129d594939291906155de565b60405180910390a16129e833888a6137ac565b5050505050505050565b6000600e600085815260200190815260200160002083604051612a15919061566d565b908152602001604051809103902082604051612a31919061566d565b90815260200160405180910390206000015490509392505050565b601460008473ffffffffffffffffffffffffffffffffffffffff1673ffffffffffffffffffffffffffffffffffffffff16815260200190815260200160002060050160009054906101000a900460ff16612adb576040517f08c379a0000000000000000000000000000000000000000000000000000000008152600401612ad2906156d0565b60405180910390fd5b60011515601460008473ffffffffffffffffffffffffffffffffffffffff1673ffffffffffffffffffffffffffffffffffffffff16815260200190815260200160002060050160009054906101000a900460ff16151503612b71576040517f08c379a0000000000000000000000000000000000000000000000000000000008152600401612b689061573c565b60405180910390fd5b612b84816000806000600180898961345d565b612b8e8383613bd6565b15612bce576040517f08c379a0000000000000000000000000000000000000000000000000000000008152600401612bc5906157ce565b60405180910390fd5b601460008473ffffffffffffffffffffffffffffffffffffffff1673ffffffffffffffffffffffffffffffffffffffff168152602001908152602001600020600701829080600181540180825580915050600190039060005260206000200160009091909190916101000a81548173ffffffffffffffffffffffffffffffffffffffff021916908373ffffffffffffffffffffffffffffffffffffffff160217905550505050565b6000601260008373ffffffffffffffffffffffffffffffffffffffff1673ffffffffffffffffffffffffffffffffffffffff168152602001908152602001600020805490509050919050565b6000601360008373ffffffffffffffffffffffffffffffffffffffff1673ffffffffffffffffffffffffffffffffffffffff168152602001908152602001600020805490509050919050565b606081600d60008481526020019081526020016000206000015414612d68576040517f08c379a0000000000000000000000000000000000000000000000000000000008152600401612d5f90614f4c565b60405180910390fd5b6000600d600084815260200190815260200160002060080180549050905060008167ffffffffffffffff811115612da257612da161480c565b5b604051908082528060200260200182016040528015612ddb57816020015b612dc8613f9a565b815260200190600190039081612dc05790505b50905060005b828110156130b2576000600d60008781526020019081526020016000206008018281548110612e1357612e12614e18565b5b9060005260206000200160009054906101000a900473ffffffffffffffffffffffffffffffffffffffff169050600f600087815260200190815260200160002060008273ffffffffffffffffffffffffffffffffffffffff1673ffffffffffffffffffffffffffffffffffffffff1681526020019081526020016000206040518060c0016040529081600082018054612eab90614ebe565b80601f0160208091040260200160405190810160405280929190818152602001828054612ed790614ebe565b8015612f245780601f10612ef957610100808354040283529160200191612f24565b820191906000526020600020905b815481529060010190602001808311612f0757829003601f168201915b5050505050815260200160018201548152602001600282015481526020016003820160009054906101000a900460ff16151515158152602001600482018054612f6c90614ebe565b80601f0160208091040260200160405190810160405280929190818152602001828054612f9890614ebe565b8015612fe55780601f10612fba57610100808354040283529160200191612fe5565b820191906000526020600020905b815481529060010190602001808311612fc857829003601f168201915b50505050508152602001600582018054612ffe90614ebe565b80601f016020809104026020016040519081016040528092919081815260200182805461302a90614ebe565b80156130775780601f1061304c57610100808354040283529160200191613077565b820191906000526020600020905b81548152906001019060200180831161305a57829003601f168201915b50505050508152505083838151811061309357613092614e18565b5b60200260200101819052505080806130aa90614e47565b915050612de1565b508092505050919050565b600960009054906101000a900473ffffffffffffffffffffffffffffffffffffffff1681565b6000816040516020016130f6919061566d565b604051602081830303815290604052805190602001208360405160200161311d919061566d565b6040516020818303038152906040528051906020012014905092915050565b81600d60008481526020019081526020016000206000015414613194576040517f08c379a000000000000000000000000000000000000000000000000000000000815260040161318b90614f4c565b60405180910390fd5b6000805b600d60008581526020019081526020016000206008018054905081101561327f57600f60008581526020019081526020016000206000600d600087815260200190815260200160002060080183815481106131f6576131f5614e18565b5b9060005260206000200160009054906101000a900473ffffffffffffffffffffffffffffffffffffffff1673ffffffffffffffffffffffffffffffffffffffff1673ffffffffffffffffffffffffffffffffffffffff168152602001908152602001600020600101548261326a9190614de4565b9150808061327790614e47565b915050613198565b5060006064835161329091906157ee565b60508361329d91906157ee565b6132a7919061585f565b905060005b835181101561338357600260009054906101000a900473ffffffffffffffffffffffffffffffffffffffff1673ffffffffffffffffffffffffffffffffffffffff1663a9059cbb85838151811061330657613305614e18565b5b6020026020010151846040518363ffffffff1660e01b815260040161332c929190615890565b6020604051808303816000875af115801561334b573d6000803e3d6000fd5b505050506040513d601f19601f8201168201806040525081019061336f91906153fd565b50808061337b90614e47565b9150506132ac565b5061338d84613d26565b50505050565b6000600e6000868152602001908152602001600020846040516133b6919061566d565b9081526020016040518091039020836040516133d2919061566d565b908152602001604051809103902090508060000160008154809291906133f790614e47565b919050555060018160010160008473ffffffffffffffffffffffffffffffffffffffff1673ffffffffffffffffffffffffffffffffffffffff16815260200190815260200160002060006101000a81548160ff0219169083151502179055505050505050565b6005600081548092919061347090614e47565b919050555060405180610140016040528060055481526020018981526020018881526020018715158152602001868152602001851515815260200184151581526020018373ffffffffffffffffffffffffffffffffffffffff1681526020018273ffffffffffffffffffffffffffffffffffffffff168152602001600067ffffffffffffffff8111156135065761350561480c565b5b6040519080825280602002602001820160405280156135345781602001602082028036833780820191505090505b50815250601460008373ffffffffffffffffffffffffffffffffffffffff1673ffffffffffffffffffffffffffffffffffffffff16815260200190815260200160002060008201518160000155602082015181600101908161359691906152c8565b506040820151816002015560608201518160030160006101000a81548160ff0219169083151502179055506080820151816004015560a08201518160050160006101000a81548160ff02191690831515021790555060c08201518160050160016101000a81548160ff02191690831515021790555060e08201518160050160026101000a81548173ffffffffffffffffffffffffffffffffffffffff021916908373ffffffffffffffffffffffffffffffffffffffff1602179055506101008201518160060160006101000a81548173ffffffffffffffffffffffffffffffffffffffff021916908373ffffffffffffffffffffffffffffffffffffffff1602179055506101208201518160070190805190602001906136b7929190613f10565b509050508060106000600554815260200190815260200160002060006101000a81548173ffffffffffffffffffffffffffffffffffffffff021916908373ffffffffffffffffffffffffffffffffffffffff1602179055503373ffffffffffffffffffffffffffffffffffffffff167f44f86dc3cc9c918308bb5e6859f61370c164f8dca7dd13f4431e13159e520032600554601460003373ffffffffffffffffffffffffffffffffffffffff1673ffffffffffffffffffffffffffffffffffffffff16815260200190815260200160002060070160405161379a9291906159a5565b60405180910390a25050505050505050565b6000601460008573ffffffffffffffffffffffffffffffffffffffff1673ffffffffffffffffffffffffffffffffffffffff16815260200190815260200160002060050160029054906101000a900473ffffffffffffffffffffffffffffffffffffffff169050600073ffffffffffffffffffffffffffffffffffffffff168173ffffffffffffffffffffffffffffffffffffffff1614613bba576000606460028561385891906157ee565b613862919061585f565b905080600260009054906101000a900473ffffffffffffffffffffffffffffffffffffffff1673ffffffffffffffffffffffffffffffffffffffff166370a08231306040518263ffffffff1660e01b81526004016138c091906147e7565b602060405180830381865afa1580156138dd573d6000803e3d6000fd5b505050506040513d601f19601f820116820180604052508101906139019190615059565b1015613942576040517f08c379a000000000000000000000000000000000000000000000000000000000815260040161393990615a47565b60405180910390fd5b601660008673ffffffffffffffffffffffffffffffffffffffff1673ffffffffffffffffffffffffffffffffffffffff16815260200190815260200160002060040160009054906101000a900460ff16156139d2576040517f08c379a00000000000000000000000000000000000000000000000000000000081526004016139c990615ab3565b60405180910390fd5b600460008154809291906139e590614e47565b91905055506040518060a0016040528060045481526020018481526020018373ffffffffffffffffffffffffffffffffffffffff16815260200182815260200160011515815250601560006004548152602001908152602001600020600082015181600001556020820151816001015560408201518160020160006101000a81548173ffffffffffffffffffffffffffffffffffffffff021916908373ffffffffffffffffffffffffffffffffffffffff1602179055506060820151816003015560808201518160040160006101000a81548160ff021916908315150217905550905050600260009054906101000a900473ffffffffffffffffffffffffffffffffffffffff1673ffffffffffffffffffffffffffffffffffffffff1663a9059cbb83836040518363ffffffff1660e01b8152600401613b26929190615890565b6020604051808303816000875af1158015613b45573d6000803e3d6000fd5b505050506040513d601f19601f82011682018060405250810190613b6991906153fd565b508173ffffffffffffffffffffffffffffffffffffffff167f5be4d22009fea85381595ed91090bc5c0bc92a93fe07ed7472c5888eb1993f8382604051613bb09190614743565b60405180910390a2505b50505050565b60008183613bce919061585f565b905092915050565b600080601460008573ffffffffffffffffffffffffffffffffffffffff1673ffffffffffffffffffffffffffffffffffffffff168152602001908152602001600020600701805480602002602001604051908101604052809291908181526020018280548015613c9b57602002820191906000526020600020905b8160009054906101000a900473ffffffffffffffffffffffffffffffffffffffff1673ffffffffffffffffffffffffffffffffffffffff1681526020019060010190808311613c51575b5050505050905060005b8151811015613d19578373ffffffffffffffffffffffffffffffffffffffff16828281518110613cd857613cd7614e18565b5b602002602001015173ffffffffffffffffffffffffffffffffffffffff1603613d0657600192505050613d20565b8080613d1190614e47565b915050613ca5565b5060009150505b92915050565b6040518060400160405280600681526020017f636c6f7365640000000000000000000000000000000000000000000000000000815250600d60008381526020019081526020016000206005019081613d7e91906152c8565b5050565b6040518060a001604052806000815260200160008152602001600073ffffffffffffffffffffffffffffffffffffffff168152602001600081526020016000151581525090565b60405180610160016040528060008152602001600081526020016000815260200160608152602001600073ffffffffffffffffffffffffffffffffffffffff1681526020016060815260200160008152602001600081526020016060815260200160608152602001606081525090565b60405180610140016040528060008152602001606081526020016000815260200160001515815260200160008152602001600015158152602001600015158152602001600073ffffffffffffffffffffffffffffffffffffffff168152602001600073ffffffffffffffffffffffffffffffffffffffff168152602001606081525090565b828054828255906000526020600020908101928215613eff5760005260206000209182015b82811115613efe578254825591600101919060010190613ee3565b5b509050613f0c9190613fd2565b5090565b828054828255906000526020600020908101928215613f89579160200282015b82811115613f885782518260006101000a81548173ffffffffffffffffffffffffffffffffffffffff021916908373ffffffffffffffffffffffffffffffffffffffff16021790555091602001919060010190613f30565b5b509050613f969190613fd2565b5090565b6040518060c0016040528060608152602001600081526020016000815260200160001515815260200160608152602001606081525090565b5b80821115613feb576000816000905550600101613fd3565b5090565b6000604051905090565b600080fd5b600080fd5b600073ffffffffffffffffffffffffffffffffffffffff82169050919050565b600061402e82614003565b9050919050565b61403e81614023565b811461404957600080fd5b50565b60008135905061405b81614035565b92915050565b60006020828403121561407757614076613ff9565b5b60006140858482850161404c565b91505092915050565b600081519050919050565b600082825260208201905092915050565b6000819050602082019050919050565b6000819050919050565b6140cd816140ba565b82525050565b60006140df83836140c4565b60208301905092915050565b6000602082019050919050565b60006141038261408e565b61410d8185614099565b9350614118836140aa565b8060005b8381101561414957815161413088826140d3565b975061413b836140eb565b92505060018101905061411c565b5085935050505092915050565b6000602082019050818103600083015261417081846140f8565b905092915050565b600081519050919050565b600082825260208201905092915050565b6000819050602082019050919050565b6141ad81614023565b82525050565b60008115159050919050565b6141c8816141b3565b82525050565b60a0820160008201516141e460008501826140c4565b5060208201516141f760208501826140c4565b50604082015161420a60408501826141a4565b50606082015161421d60608501826140c4565b50608082015161423060808501826141bf565b50505050565b600061424283836141ce565b60a08301905092915050565b6000602082019050919050565b600061426682614178565b6142708185614183565b935061427b83614194565b8060005b838110156142ac5781516142938882614236565b975061429e8361424e565b92505060018101905061427f565b5085935050505092915050565b600060208201905081810360008301526142d3818461425b565b905092915050565b600081519050919050565b600082825260208201905092915050565b6000819050602082019050919050565b600061431383836141a4565b60208301905092915050565b6000602082019050919050565b6000614337826142db565b61434181856142e6565b935061434c836142f7565b8060005b8381101561437d5781516143648882614307565b975061436f8361431f565b925050600181019050614350565b5085935050505092915050565b600060208201905081810360008301526143a4818461432c565b905092915050565b6143b5816140ba565b81146143c057600080fd5b50565b6000813590506143d2816143ac565b92915050565b6000602082840312156143ee576143ed613ff9565b5b60006143fc848285016143c3565b91505092915050565b600081519050919050565b600082825260208201905092915050565b60005b8381101561443f578082015181840152602081019050614424565b60008484015250505050565b6000601f19601f8301169050919050565b600061446782614405565b6144718185614410565b9350614481818560208601614421565b61448a8161444b565b840191505092915050565b600082825260208201905092915050565b60006144b1826142db565b6144bb8185614495565b93506144c6836142f7565b8060005b838110156144f75781516144de8882614307565b97506144e98361431f565b9250506001810190506144ca565b5085935050505092915050565b60006101608301600083015161451d60008601826140c4565b50602083015161453060208601826140c4565b50604083015161454360408601826140c4565b506060830151848203606086015261455b828261445c565b915050608083015161457060808601826141a4565b5060a083015184820360a0860152614588828261445c565b91505060c083015161459d60c08601826140c4565b5060e08301516145b060e08601826140c4565b506101008301518482036101008601526145ca82826144a6565b9150506101208301518482036101208601526145e682826144a6565b91505061014083015184820361014086015261460282826144a6565b9150508091505092915050565b600060208201905081810360008301526146298184614504565b905092915050565b60006101408301600083015161464a60008601826140c4565b5060208301518482036020860152614662828261445c565b915050604083015161467760408601826140c4565b50606083015161468a60608601826141bf565b50608083015161469d60808601826140c4565b5060a08301516146b060a08601826141bf565b5060c08301516146c360c08601826141bf565b5060e08301516146d660e08601826141a4565b506101008301516146eb6101008601826141a4565b5061012083015184820361012086015261470582826144a6565b9150508091505092915050565b6000602082019050818103600083015261472c8184614631565b905092915050565b61473d816140ba565b82525050565b60006020820190506147586000830184614734565b92915050565b6000819050919050565b600061478361477e61477984614003565b61475e565b614003565b9050919050565b600061479582614768565b9050919050565b60006147a78261478a565b9050919050565b6147b78161479c565b82525050565b60006020820190506147d260008301846147ae565b92915050565b6147e181614023565b82525050565b60006020820190506147fc60008301846147d8565b92915050565b600080fd5b600080fd5b7f4e487b7100000000000000000000000000000000000000000000000000000000600052604160045260246000fd5b6148448261444b565b810181811067ffffffffffffffff821117156148635761486261480c565b5b80604052505050565b6000614876613fef565b9050614882828261483b565b919050565b600067ffffffffffffffff8211156148a2576148a161480c565b5b6148ab8261444b565b9050602081019050919050565b82818337600083830152505050565b60006148da6148d584614887565b61486c565b9050828152602081018484840111156148f6576148f5614807565b5b6149018482856148b8565b509392505050565b600082601f83011261491e5761491d614802565b5b813561492e8482602086016148c7565b91505092915050565b6000806000606084860312156149505761494f613ff9565b5b600061495e868287016143c3565b935050602084013567ffffffffffffffff81111561497f5761497e613ffe565b5b61498b86828701614909565b925050604084013567ffffffffffffffff8111156149ac576149ab613ffe565b5b6149b886828701614909565b9150509250925092565b60008060008060008060008060006101208a8c0312156149e5576149e4613ff9565b5b60006149f38c828d016143c3565b99505060208a013567ffffffffffffffff811115614a1457614a13613ffe565b5b614a208c828d01614909565b98505060408a013567ffffffffffffffff811115614a4157614a40613ffe565b5b614a4d8c828d01614909565b97505060608a013567ffffffffffffffff811115614a6e57614a6d613ffe565b5b614a7a8c828d01614909565b9650506080614a8b8c828d016143c3565b95505060a0614a9c8c828d016143c3565b94505060c08a013567ffffffffffffffff811115614abd57614abc613ffe565b5b614ac98c828d01614909565b93505060e0614ada8c828d0161404c565b925050610100614aec8c828d016143c3565b9150509295985092959850929598565b600080600080600060a08688031215614b1857614b17613ff9565b5b6000614b26888289016143c3565b9550506020614b37888289016143c3565b945050604086013567ffffffffffffffff811115614b5857614b57613ffe565b5b614b6488828901614909565b935050606086013567ffffffffffffffff811115614b8557614b84613ffe565b5b614b9188828901614909565b925050608086013567ffffffffffffffff811115614bb257614bb1613ffe565b5b614bbe88828901614909565b9150509295509295909350565b600080600060608486031215614be457614be3613ff9565b5b6000614bf28682870161404c565b9350506020614c038682870161404c565b925050604084013567ffffffffffffffff811115614c2457614c23613ffe565b5b614c3086828701614909565b9150509250925092565b600081519050919050565b600082825260208201905092915050565b6000819050602082019050919050565b600060c0830160008301518482036000860152614c83828261445c565b9150506020830151614c9860208601826140c4565b506040830151614cab60408601826140c4565b506060830151614cbe60608601826141bf565b5060808301518482036080860152614cd6828261445c565b91505060a083015184820360a0860152614cf0828261445c565b9150508091505092915050565b6000614d098383614c66565b905092915050565b6000602082019050919050565b6000614d2982614c3a565b614d338185614c45565b935083602082028501614d4585614c56565b8060005b85811015614d815784840389528151614d628582614cfd565b9450614d6d83614d11565b925060208a01995050600181019050614d49565b50829750879550505050505092915050565b60006020820190508181036000830152614dad8184614d1e565b905092915050565b7f4e487b7100000000000000000000000000000000000000000000000000000000600052601160045260246000fd5b6000614def826140ba565b9150614dfa836140ba565b9250828201905080821115614e1257614e11614db5565b5b92915050565b7f4e487b7100000000000000000000000000000000000000000000000000000000600052603260045260246000fd5b6000614e52826140ba565b91507fffffffffffffffffffffffffffffffffffffffffffffffffffffffffffffffff8203614e8457614e83614db5565b5b600182019050919050565b7f4e487b7100000000000000000000000000000000000000000000000000000000600052602260045260246000fd5b60006002820490506001821680614ed657607f821691505b602082108103614ee957614ee8614e8f565b5b50919050565b600082825260208201905092915050565b7f42657420646f6573206e6f742065786973740000000000000000000000000000600082015250565b6000614f36601283614eef565b9150614f4182614f00565b602082019050919050565b60006020820190508181036000830152614f6581614f29565b9050919050565b7f756e617574686f72697a65640000000000000000000000000000000000000000600082015250565b6000614fa2600c83614eef565b9150614fad82614f6c565b602082019050919050565b60006020820190508181036000830152614fd181614f95565b9050919050565b7f696e76616c696420416d6f756e74000000000000000000000000000000000000600082015250565b600061500e600e83614eef565b915061501982614fd8565b602082019050919050565b6000602082019050818103600083015261503d81615001565b9050919050565b600081519050615053816143ac565b92915050565b60006020828403121561506f5761506e613ff9565b5b600061507d84828501615044565b91505092915050565b7f4946420000000000000000000000000000000000000000000000000000000000600082015250565b60006150bc600383614eef565b91506150c782615086565b602082019050919050565b600060208201905081810360008301526150eb816150af565b9050919050565b60006150fd826140ba565b9150615108836140ba565b92508282039050818111156151205761511f614db5565b5b92915050565b60008190508160005260206000209050919050565b60006020601f8301049050919050565b600082821b905092915050565b6000600883026151887fffffffffffffffffffffffffffffffffffffffffffffffffffffffffffffffff8261514b565b615192868361514b565b95508019841693508086168417925050509392505050565b60006151c56151c06151bb846140ba565b61475e565b6140ba565b9050919050565b6000819050919050565b6151df836151aa565b6151f36151eb826151cc565b848454615158565b825550505050565b600090565b6152086151fb565b6152138184846151d6565b505050565b5b818110156152375761522c600082615200565b600181019050615219565b5050565b601f82111561527c5761524d81615126565b6152568461513b565b81016020851015615265578190505b6152796152718561513b565b830182615218565b50505b505050565b600082821c905092915050565b600061529f60001984600802615281565b1980831691505092915050565b60006152b8838361528e565b9150826002028217905092915050565b6152d182614405565b67ffffffffffffffff8111156152ea576152e961480c565b5b6152f48254614ebe565b6152ff82828561523b565b600060209050601f8311600181146153325760008415615320578287015190505b61532a85826152ac565b865550615392565b601f19841661534086615126565b60005b8281101561536857848901518255600182019150602085019450602081019050615343565b868310156153855784890151615381601f89168261528e565b8355505b6001600288020188555050505b505050505050565b60006060820190506153af60008301866147d8565b6153bc60208301856147d8565b6153c96040830184614734565b949350505050565b6153da816141b3565b81146153e557600080fd5b50565b6000815190506153f7816153d1565b92915050565b60006020828403121561541357615412613ff9565b5b6000615421848285016153e8565b91505092915050565b600060608201905061543f6000830186614734565b61544c6020830185614734565b61545960408301846147d8565b949350505050565b7f4475706c696361746520426574204e6f7420416c6c6f77656400000000000000600082015250565b6000615497601983614eef565b91506154a282615461565b602082019050919050565b600060208201905081810360008301526154c68161548a565b9050919050565b7f70726564696374696f6e20636f756e7420726561636865640000000000000000600082015250565b6000615503601883614eef565b915061550e826154cd565b602082019050919050565b60006020820190508181036000830152615532816154f6565b9050919050565b7f6d6178626574207061727469636970616e747320726561636865640000000000600082015250565b600061556f601b83614eef565b915061557a82615539565b602082019050919050565b6000602082019050818103600083015261559e81615562565b9050919050565b60006155b082614405565b6155ba8185614eef565b93506155ca818560208601614421565b6155d38161444b565b840191505092915050565b60006080820190506155f36000830187614734565b61560060208301866147d8565b818103604083015261561281856155a5565b9050818103606083015261562681846155a5565b905095945050505050565b600081905092915050565b600061564782614405565b6156518185615631565b9350615661818560208601614421565b80840191505092915050565b6000615679828461563c565b915081905092915050565b7f53706f6e736f72206973206e6f74206120726567697374657265642075736572600082015250565b60006156ba602083614eef565b91506156c582615684565b602082019050919050565b600060208201905081810360008301526156e9816156ad565b9050919050565b7f646f776e6c696e6520616c726561647920726567697374657265640000000000600082015250565b6000615726601b83614eef565b9150615731826156f0565b602082019050919050565b6000602082019050818103600083015261575581615719565b9050919050565b7f446f776e6c696e6520697320616c72656164792072656665727265642062792060008201527f7468652073706f6e736f72000000000000000000000000000000000000000000602082015250565b60006157b8602b83614eef565b91506157c38261575c565b604082019050919050565b600060208201905081810360008301526157e7816157ab565b9050919050565b60006157f9826140ba565b9150615804836140ba565b9250828202615812816140ba565b9150828204841483151761582957615828614db5565b5b5092915050565b7f4e487b7100000000000000000000000000000000000000000000000000000000600052601260045260246000fd5b600061586a826140ba565b9150615875836140ba565b92508261588557615884615830565b5b828204905092915050565b60006040820190506158a560008301856147d8565b6158b26020830184614734565b9392505050565b600081549050919050565b60008190508160005260206000209050919050565b60008160001c9050919050565b600073ffffffffffffffffffffffffffffffffffffffff82169050919050565b6000615919615914836158d9565b6158e6565b9050919050565b600061592c8254615906565b9050919050565b6000600182019050919050565b600061594b826158b9565b61595581856142e6565b9350615960836158c4565b8060005b838110156159985761597582615920565b61597f8882614307565b975061598a83615933565b925050600181019050615964565b5085935050505092915050565b60006040820190506159ba6000830185614734565b81810360208301526159cc8184615940565b90509392505050565b7f436f6e747261637420646f6573206e6f74206861766520656e6f75676820746f60008201527f6b656e7300000000000000000000000000000000000000000000000000000000602082015250565b6000615a31602483614eef565b9150615a3c826159d5565b604082019050919050565b60006020820190508181036000830152615a6081615a24565b9050919050565b7f726566657272616c2072657761726420616c726561647920636c61696d656400600082015250565b6000615a9d601f83614eef565b9150615aa882615a67565b602082019050919050565b60006020820190508181036000830152615acc81615a90565b905091905056fea2646970667358221220b8182bef0f5b518104d8bedb71c74910cae2086fd5cc30088c86b459bc91d53864736f6c63430008140033",
  "linkReferences": {},
  "deployedLinkReferences": {}
}