{
  "_format": "hh-sol-artifact-1",
  "contractName": "FifaRewardToken",
  "sourceName": "contracts/FifaRewardToken.sol",
  "abi": [
    {
      "inputs": [],
      "stateMutability": "nonpayable",
      "type": "constructor"
    },
    {
      "inputs": [
        {
          "internalType": "address",
          "name": "spender",
          "type": "address"
        },
        {
          "internalType": "uint256",
          "name": "allowance",
          "type": "uint256"
        },
        {
          "internalType": "uint256",
          "name": "needed",
          "type": "uint256"
        }
      ],
      "name": "ERC20InsufficientAllowance",
      "type": "error"
    },
    {
      "inputs": [
        {
          "internalType": "address",
          "name": "sender",
          "type": "address"
        },
        {
          "internalType": "uint256",
          "name": "balance",
          "type": "uint256"
        },
        {
          "internalType": "uint256",
          "name": "needed",
          "type": "uint256"
        }
      ],
      "name": "ERC20InsufficientBalance",
      "type": "error"
    },
    {
      "inputs": [
        {
          "internalType": "address",
          "name": "approver",
          "type": "address"
        }
      ],
      "name": "ERC20InvalidApprover",
      "type": "error"
    },
    {
      "inputs": [
        {
          "internalType": "address",
          "name": "receiver",
          "type": "address"
        }
      ],
      "name": "ERC20InvalidReceiver",
      "type": "error"
    },
    {
      "inputs": [
        {
          "internalType": "address",
          "name": "sender",
          "type": "address"
        }
      ],
      "name": "ERC20InvalidSender",
      "type": "error"
    },
    {
      "inputs": [
        {
          "internalType": "address",
          "name": "spender",
          "type": "address"
        }
      ],
      "name": "ERC20InvalidSpender",
      "type": "error"
    },
    {
      "inputs": [],
      "name": "MathOverflowedMulDiv",
      "type": "error"
    },
    {
      "inputs": [
        {
          "internalType": "address",
          "name": "owner",
          "type": "address"
        }
      ],
      "name": "OwnableInvalidOwner",
      "type": "error"
    },
    {
      "inputs": [
        {
          "internalType": "address",
          "name": "account",
          "type": "address"
        }
      ],
      "name": "OwnableUnauthorizedAccount",
      "type": "error"
    },
    {
      "anonymous": false,
      "inputs": [
        {
          "indexed": true,
          "internalType": "address",
          "name": "owner",
          "type": "address"
        },
        {
          "indexed": true,
          "internalType": "address",
          "name": "spender",
          "type": "address"
        },
        {
          "indexed": false,
          "internalType": "uint256",
          "name": "value",
          "type": "uint256"
        }
      ],
      "name": "Approval",
      "type": "event"
    },
    {
      "anonymous": false,
      "inputs": [
        {
          "indexed": true,
          "internalType": "address",
          "name": "previousOwner",
          "type": "address"
        },
        {
          "indexed": true,
          "internalType": "address",
          "name": "newOwner",
          "type": "address"
        }
      ],
      "name": "OwnershipTransferred",
      "type": "event"
    },
    {
      "anonymous": false,
      "inputs": [
        {
          "indexed": true,
          "internalType": "address",
          "name": "from",
          "type": "address"
        },
        {
          "indexed": true,
          "internalType": "address",
          "name": "to",
          "type": "address"
        },
        {
          "indexed": false,
          "internalType": "uint256",
          "name": "value",
          "type": "uint256"
        }
      ],
      "name": "Transfer",
      "type": "event"
    },
    {
      "inputs": [
        {
          "internalType": "address",
          "name": "dexPool",
          "type": "address"
        }
      ],
      "name": "addDexPool",
      "outputs": [],
      "stateMutability": "nonpayable",
      "type": "function"
    },
    {
      "inputs": [
        {
          "internalType": "address",
          "name": "owner",
          "type": "address"
        },
        {
          "internalType": "address",
          "name": "spender",
          "type": "address"
        }
      ],
      "name": "allowance",
      "outputs": [
        {
          "internalType": "uint256",
          "name": "",
          "type": "uint256"
        }
      ],
      "stateMutability": "view",
      "type": "function"
    },
    {
      "inputs": [
        {
          "internalType": "address",
          "name": "spender",
          "type": "address"
        },
        {
          "internalType": "uint256",
          "name": "value",
          "type": "uint256"
        }
      ],
      "name": "approve",
      "outputs": [
        {
          "internalType": "bool",
          "name": "",
          "type": "bool"
        }
      ],
      "stateMutability": "nonpayable",
      "type": "function"
    },
    {
      "inputs": [
        {
          "internalType": "address",
          "name": "account",
          "type": "address"
        }
      ],
      "name": "balanceOf",
      "outputs": [
        {
          "internalType": "uint256",
          "name": "",
          "type": "uint256"
        }
      ],
      "stateMutability": "view",
      "type": "function"
    },
    {
      "inputs": [
        {
          "internalType": "uint256",
          "name": "value",
          "type": "uint256"
        }
      ],
      "name": "burn",
      "outputs": [],
      "stateMutability": "nonpayable",
      "type": "function"
    },
    {
      "inputs": [
        {
          "internalType": "address",
          "name": "account",
          "type": "address"
        },
        {
          "internalType": "uint256",
          "name": "value",
          "type": "uint256"
        }
      ],
      "name": "burnFrom",
      "outputs": [],
      "stateMutability": "nonpayable",
      "type": "function"
    },
    {
      "inputs": [],
      "name": "buyFee",
      "outputs": [
        {
          "internalType": "uint256",
          "name": "",
          "type": "uint256"
        }
      ],
      "stateMutability": "view",
      "type": "function"
    },
    {
      "inputs": [],
      "name": "decimals",
      "outputs": [
        {
          "internalType": "uint8",
          "name": "",
          "type": "uint8"
        }
      ],
      "stateMutability": "view",
      "type": "function"
    },
    {
      "inputs": [
        {
          "internalType": "address",
          "name": "user",
          "type": "address"
        },
        {
          "internalType": "bool",
          "name": "exempt",
          "type": "bool"
        }
      ],
      "name": "exemptFee",
      "outputs": [],
      "stateMutability": "nonpayable",
      "type": "function"
    },
    {
      "inputs": [],
      "name": "feeAddress",
      "outputs": [
        {
          "internalType": "address",
          "name": "",
          "type": "address"
        }
      ],
      "stateMutability": "view",
      "type": "function"
    },
    {
      "inputs": [],
      "name": "maxTxAmount",
      "outputs": [
        {
          "internalType": "uint256",
          "name": "",
          "type": "uint256"
        }
      ],
      "stateMutability": "view",
      "type": "function"
    },
    {
      "inputs": [],
      "name": "name",
      "outputs": [
        {
          "internalType": "string",
          "name": "",
          "type": "string"
        }
      ],
      "stateMutability": "view",
      "type": "function"
    },
    {
      "inputs": [],
      "name": "owner",
      "outputs": [
        {
          "internalType": "address",
          "name": "",
          "type": "address"
        }
      ],
      "stateMutability": "view",
      "type": "function"
    },
    {
      "inputs": [
        {
          "internalType": "address",
          "name": "dexPool",
          "type": "address"
        }
      ],
      "name": "removeDexPool",
      "outputs": [],
      "stateMutability": "nonpayable",
      "type": "function"
    },
    {
      "inputs": [],
      "name": "renounceOwnership",
      "outputs": [],
      "stateMutability": "nonpayable",
      "type": "function"
    },
    {
      "inputs": [],
      "name": "sellFee",
      "outputs": [
        {
          "internalType": "uint256",
          "name": "",
          "type": "uint256"
        }
      ],
      "stateMutability": "view",
      "type": "function"
    },
    {
      "inputs": [
        {
          "internalType": "uint256",
          "name": "_maxTxAmount",
          "type": "uint256"
        }
      ],
      "name": "setMaxTxAmount",
      "outputs": [],
      "stateMutability": "nonpayable",
      "type": "function"
    },
    {
      "inputs": [],
      "name": "symbol",
      "outputs": [
        {
          "internalType": "string",
          "name": "",
          "type": "string"
        }
      ],
      "stateMutability": "view",
      "type": "function"
    },
    {
      "inputs": [],
      "name": "totalSupply",
      "outputs": [
        {
          "internalType": "uint256",
          "name": "",
          "type": "uint256"
        }
      ],
      "stateMutability": "view",
      "type": "function"
    },
    {
      "inputs": [
        {
          "internalType": "address",
          "name": "to",
          "type": "address"
        },
        {
          "internalType": "uint256",
          "name": "value",
          "type": "uint256"
        }
      ],
      "name": "transfer",
      "outputs": [
        {
          "internalType": "bool",
          "name": "",
          "type": "bool"
        }
      ],
      "stateMutability": "nonpayable",
      "type": "function"
    },
    {
      "inputs": [],
      "name": "transferFee",
      "outputs": [
        {
          "internalType": "uint256",
          "name": "",
          "type": "uint256"
        }
      ],
      "stateMutability": "view",
      "type": "function"
    },
    {
      "inputs": [
        {
          "internalType": "address",
          "name": "from",
          "type": "address"
        },
        {
          "internalType": "address",
          "name": "to",
          "type": "address"
        },
        {
          "internalType": "uint256",
          "name": "value",
          "type": "uint256"
        }
      ],
      "name": "transferFrom",
      "outputs": [
        {
          "internalType": "bool",
          "name": "",
          "type": "bool"
        }
      ],
      "stateMutability": "nonpayable",
      "type": "function"
    },
    {
      "inputs": [
        {
          "internalType": "address",
          "name": "newOwner",
          "type": "address"
        }
      ],
      "name": "transferOwnership",
      "outputs": [],
      "stateMutability": "nonpayable",
      "type": "function"
    },
    {
      "inputs": [
        {
          "internalType": "uint256",
          "name": "_buyFee",
          "type": "uint256"
        },
        {
          "internalType": "uint256",
          "name": "_sellFee",
          "type": "uint256"
        },
        {
          "internalType": "uint256",
          "name": "_transferFee",
          "type": "uint256"
        }
      ],
      "name": "updateFees",
      "outputs": [],
      "stateMutability": "nonpayable",
      "type": "function"
    }
  ],
  "bytecode": "0x60806040526722b1c8c1227a0000600955676f05b59d3b200000600a55676f05b59d3b200000600b5569152d02c7e14af6800000600c5573334364043b0ad2d1e487bf3ee25fa7f42d125892600d60006101000a81548173ffffffffffffffffffffffffffffffffffffffff021916908373ffffffffffffffffffffffffffffffffffffffff1602179055503480156200009857600080fd5b50739c9dfbbaa6f14e5b142365df89b8e2b627dd1bda6040518060400160405280600a81526020017f46494641526577617264000000000000000000000000000000000000000000008152506040518060400160405280600381526020017f465244000000000000000000000000000000000000000000000000000000000081525081600390816200012b919062000f22565b5080600490816200013d919062000f22565b505050600073ffffffffffffffffffffffffffffffffffffffff168173ffffffffffffffffffffffffffffffffffffffff1603620001b55760006040517f1e4fbdf7000000000000000000000000000000000000000000000000000000008152600401620001ac91906200104e565b60405180910390fd5b620001c6816200042560201b60201c565b506000739c9dfbbaa6f14e5b142365df89b8e2b627dd1bda9050620001f181620004eb60201b60201c565b6001600e60008073ffffffffffffffffffffffffffffffffffffffff1673ffffffffffffffffffffffffffffffffffffffff16815260200190815260200160002060006101000a81548160ff0219169083151502179055506001600f60008073ffffffffffffffffffffffffffffffffffffffff1673ffffffffffffffffffffffffffffffffffffffff16815260200190815260200160002060006101000a81548160ff0219169083151502179055506001600e60003073ffffffffffffffffffffffffffffffffffffffff1673ffffffffffffffffffffffffffffffffffffffff16815260200190815260200160002060006101000a81548160ff0219169083151502179055506001600f60003073ffffffffffffffffffffffffffffffffffffffff1673ffffffffffffffffffffffffffffffffffffffff16815260200190815260200160002060006101000a81548160ff0219169083151502179055506001600f60008373ffffffffffffffffffffffffffffffffffffffff1673ffffffffffffffffffffffffffffffffffffffff16815260200190815260200160002060006101000a81548160ff0219169083151502179055506001600e60008373ffffffffffffffffffffffffffffffffffffffff1673ffffffffffffffffffffffffffffffffffffffff16815260200190815260200160002060006101000a81548160ff0219169083151502179055506200041e816a52b7d2dcc80cd2e40000006200058460201b60201c565b50620011d9565b6000600560009054906101000a900473ffffffffffffffffffffffffffffffffffffffff16905081600560006101000a81548173ffffffffffffffffffffffffffffffffffffffff021916908373ffffffffffffffffffffffffffffffffffffffff1602179055508173ffffffffffffffffffffffffffffffffffffffff168173ffffffffffffffffffffffffffffffffffffffff167f8be0079c531659141344cd1fd0a4f28419497f9722a3daafe3b4186f6b6457e060405160405180910390a35050565b620004fb6200061160201b60201c565b600073ffffffffffffffffffffffffffffffffffffffff168173ffffffffffffffffffffffffffffffffffffffff1603620005705760006040517f1e4fbdf70000000000000000000000000000000000000000000000000000000081526004016200056791906200104e565b60405180910390fd5b62000581816200042560201b60201c565b50565b600073ffffffffffffffffffffffffffffffffffffffff168273ffffffffffffffffffffffffffffffffffffffff1603620005f95760006040517fec442f05000000000000000000000000000000000000000000000000000000008152600401620005f091906200104e565b60405180910390fd5b6200060d60008383620006b360201b60201c565b5050565b62000621620007de60201b60201c565b73ffffffffffffffffffffffffffffffffffffffff1662000647620007e660201b60201c565b73ffffffffffffffffffffffffffffffffffffffff1614620006b15762000673620007de60201b60201c565b6040517f118cdaa7000000000000000000000000000000000000000000000000000000008152600401620006a891906200104e565b60405180910390fd5b565b600e60008473ffffffffffffffffffffffffffffffffffffffff1673ffffffffffffffffffffffffffffffffffffffff16815260200190815260200160002060009054906101000a900460ff1680620007555750600e60008373ffffffffffffffffffffffffffffffffffffffff1673ffffffffffffffffffffffffffffffffffffffff16815260200190815260200160002060009054906101000a900460ff165b1562000774576200076e8383836200081060201b60201c565b620007d9565b6000806200078a85858562000a4060201b60201c565b91509150620007a18585846200081060201b60201c565b620007d685600d60009054906101000a900473ffffffffffffffffffffffffffffffffffffffff16836200081060201b60201c565b50505b505050565b600033905090565b6000600560009054906101000a900473ffffffffffffffffffffffffffffffffffffffff16905090565b600073ffffffffffffffffffffffffffffffffffffffff168373ffffffffffffffffffffffffffffffffffffffff1603620008665780600260008282546200085991906200109a565b925050819055506200093c565b60008060008573ffffffffffffffffffffffffffffffffffffffff1673ffffffffffffffffffffffffffffffffffffffff16815260200190815260200160002054905081811015620008f5578381836040517fe450d38c000000000000000000000000000000000000000000000000000000008152600401620008ec93929190620010e6565b60405180910390fd5b8181036000808673ffffffffffffffffffffffffffffffffffffffff1673ffffffffffffffffffffffffffffffffffffffff16815260200190815260200160002081905550505b600073ffffffffffffffffffffffffffffffffffffffff168273ffffffffffffffffffffffffffffffffffffffff1603620009875780600260008282540392505081905550620009d4565b806000808473ffffffffffffffffffffffffffffffffffffffff1673ffffffffffffffffffffffffffffffffffffffff168152602001908152602001600020600082825401925050819055505b8173ffffffffffffffffffffffffffffffffffffffff168373ffffffffffffffffffffffffffffffffffffffff167fddf252ad1be2c89b69c2b068fc378daa952ba7f163c4a11628f55a4df523b3ef8360405162000a33919062001123565b60405180910390a3505050565b600080600062000a5b85600762000b1460201b90919060201c565b9050600062000a7587600762000b1460201b90919060201c565b9050801562000aa45762000a9c6009548668056bc75e2d6310000062000b4c60201b60201c565b925062000af3565b811562000ad15762000ac9600a548668056bc75e2d6310000062000b4c60201b60201c565b925062000af2565b62000aef600b548668056bc75e2d6310000062000b4c60201b60201c565b92505b5b62000b08838662000c5960201b90919060201c565b93505050935093915050565b600062000b44836000018373ffffffffffffffffffffffffffffffffffffffff1660001b62000c8560201b60201c565b905092915050565b600080838502905060008019858709828110838203039150506000810362000b8c5783828162000b815762000b8062001140565b5b049250505062000c52565b80841162000bc6576040517f227bc15300000000000000000000000000000000000000000000000000000000815260040160405180910390fd5b600084868809905082811182039150808303925060008560000386169050808604955080840493506001818260000304019050808302841793506000600287600302189050808702600203810290508087026002038102905080870260020381029050808702600203810290508087026002038102905080870260020381029050808502955050505050505b9392505050565b60008282111562000c6f5762000c6e6200116f565b5b818362000c7d91906200119e565b905092915050565b600080836001016000848152602001908152602001600020541415905092915050565b600081519050919050565b7f4e487b7100000000000000000000000000000000000000000000000000000000600052604160045260246000fd5b7f4e487b7100000000000000000000000000000000000000000000000000000000600052602260045260246000fd5b6000600282049050600182168062000d2a57607f821691505b60208210810362000d405762000d3f62000ce2565b5b50919050565b60008190508160005260206000209050919050565b60006020601f8301049050919050565b600082821b905092915050565b60006008830262000daa7fffffffffffffffffffffffffffffffffffffffffffffffffffffffffffffffff8262000d6b565b62000db6868362000d6b565b95508019841693508086168417925050509392505050565b6000819050919050565b6000819050919050565b600062000e0362000dfd62000df78462000dce565b62000dd8565b62000dce565b9050919050565b6000819050919050565b62000e1f8362000de2565b62000e3762000e2e8262000e0a565b84845462000d78565b825550505050565b600090565b62000e4e62000e3f565b62000e5b81848462000e14565b505050565b5b8181101562000e835762000e7760008262000e44565b60018101905062000e61565b5050565b601f82111562000ed25762000e9c8162000d46565b62000ea78462000d5b565b8101602085101562000eb7578190505b62000ecf62000ec68562000d5b565b83018262000e60565b50505b505050565b600082821c905092915050565b600062000ef76000198460080262000ed7565b1980831691505092915050565b600062000f12838362000ee4565b9150826002028217905092915050565b62000f2d8262000ca8565b67ffffffffffffffff81111562000f495762000f4862000cb3565b5b62000f55825462000d11565b62000f6282828562000e87565b600060209050601f83116001811462000f9a576000841562000f85578287015190505b62000f91858262000f04565b86555062001001565b601f19841662000faa8662000d46565b60005b8281101562000fd45784890151825560018201915060208501945060208101905062000fad565b8683101562000ff4578489015162000ff0601f89168262000ee4565b8355505b6001600288020188555050505b505050505050565b600073ffffffffffffffffffffffffffffffffffffffff82169050919050565b6000620010368262001009565b9050919050565b620010488162001029565b82525050565b60006020820190506200106560008301846200103d565b92915050565b7f4e487b7100000000000000000000000000000000000000000000000000000000600052601160045260246000fd5b6000620010a78262000dce565b9150620010b48362000dce565b9250828201905080821115620010cf57620010ce6200106b565b5b92915050565b620010e08162000dce565b82525050565b6000606082019050620010fd60008301866200103d565b6200110c6020830185620010d5565b6200111b6040830184620010d5565b949350505050565b60006020820190506200113a6000830184620010d5565b92915050565b7f4e487b7100000000000000000000000000000000000000000000000000000000600052601260045260246000fd5b7f4e487b7100000000000000000000000000000000000000000000000000000000600052600160045260246000fd5b6000620011ab8262000dce565b9150620011b88362000dce565b9250828203905081811115620011d357620011d26200106b565b5b92915050565b611be680620011e96000396000f3fe608060405234801561001057600080fd5b50600436106101585760003560e01c806370a08231116100c35780639bc033bc1161007c5780639bc033bc14610391578063a9059cbb146103ad578063acb2ad6f146103dd578063dd62ed3e146103fb578063ec28438a1461042b578063f2fde38b1461044757610158565b806370a08231146102e1578063715018a61461031157806379cc67901461031b5780638c0b5e22146103375780638da5cb5b1461035557806395d89b411461037357610158565b80632b14ca56116101155780632b14ca56146102315780632dc4f5e61461024f578063313ce5671461026b578063412753581461028957806342966c68146102a757806347062402146102c357610158565b806306fdde031461015d578063095ea7b31461017b57806318160ddd146101ab5780631f5a5ab8146101c957806322429085146101e557806323b872dd14610201575b600080fd5b610165610463565b604051610172919061165e565b60405180910390f35b61019560048036038101906101909190611719565b6104f5565b6040516101a29190611774565b60405180910390f35b6101b3610518565b6040516101c0919061179e565b60405180910390f35b6101e360048036038101906101de91906117b9565b610522565b005b6101ff60048036038101906101fa91906117e6565b610542565b005b61021b60048036038101906102169190611839565b610564565b6040516102289190611774565b60405180910390f35b610239610593565b604051610246919061179e565b60405180910390f35b610269600480360381019061026491906118b8565b610599565b005b610273610653565b6040516102809190611914565b60405180910390f35b61029161065c565b60405161029e919061193e565b60405180910390f35b6102c160048036038101906102bc9190611959565b610682565b005b6102cb610696565b6040516102d8919061179e565b60405180910390f35b6102fb60048036038101906102f691906117b9565b61069c565b604051610308919061179e565b60405180910390f35b6103196106e4565b005b61033560048036038101906103309190611719565b6106f8565b005b61033f610718565b60405161034c919061179e565b60405180910390f35b61035d61071e565b60405161036a919061193e565b60405180910390f35b61037b610748565b604051610388919061165e565b60405180910390f35b6103ab60048036038101906103a691906117b9565b6107da565b005b6103c760048036038101906103c29190611719565b6107fa565b6040516103d49190611774565b60405180910390f35b6103e561081d565b6040516103f2919061179e565b60405180910390f35b61041560048036038101906104109190611986565b610823565b604051610422919061179e565b60405180910390f35b61044560048036038101906104409190611959565b6108aa565b005b610461600480360381019061045c91906117b9565b6108bc565b005b606060038054610472906119f5565b80601f016020809104026020016040519081016040528092919081815260200182805461049e906119f5565b80156104eb5780601f106104c0576101008083540402835291602001916104eb565b820191906000526020600020905b8154815290600101906020018083116104ce57829003601f168201915b5050505050905090565b600080610500610942565b905061050d81858561094a565b600191505092915050565b6000600254905090565b61052a61095c565b61053e8160076109e390919063ffffffff16565b5050565b61054a61095c565b8260098190555081600a8190555080600b81905550505050565b60008061056f610942565b905061057c858285610a13565b610587858585610aa7565b60019150509392505050565b600a5481565b6105a161095c565b80600e60008473ffffffffffffffffffffffffffffffffffffffff1673ffffffffffffffffffffffffffffffffffffffff16815260200190815260200160002060006101000a81548160ff02191690831515021790555080600f60008473ffffffffffffffffffffffffffffffffffffffff1673ffffffffffffffffffffffffffffffffffffffff16815260200190815260200160002060006101000a81548160ff0219169083151502179055505050565b60006012905090565b600d60009054906101000a900473ffffffffffffffffffffffffffffffffffffffff1681565b61069361068d610942565b82610b9b565b50565b60095481565b60008060008373ffffffffffffffffffffffffffffffffffffffff1673ffffffffffffffffffffffffffffffffffffffff168152602001908152602001600020549050919050565b6106ec61095c565b6106f66000610c1d565b565b61070a82610704610942565b83610a13565b6107148282610b9b565b5050565b600c5481565b6000600560009054906101000a900473ffffffffffffffffffffffffffffffffffffffff16905090565b606060048054610757906119f5565b80601f0160208091040260200160405190810160405280929190818152602001828054610783906119f5565b80156107d05780601f106107a5576101008083540402835291602001916107d0565b820191906000526020600020905b8154815290600101906020018083116107b357829003601f168201915b5050505050905090565b6107e261095c565b6107f6816007610ce390919063ffffffff16565b5050565b600080610805610942565b9050610812818585610aa7565b600191505092915050565b600b5481565b6000600160008473ffffffffffffffffffffffffffffffffffffffff1673ffffffffffffffffffffffffffffffffffffffff16815260200190815260200160002060008373ffffffffffffffffffffffffffffffffffffffff1673ffffffffffffffffffffffffffffffffffffffff16815260200190815260200160002054905092915050565b6108b261095c565b80600c8190555050565b6108c461095c565b600073ffffffffffffffffffffffffffffffffffffffff168173ffffffffffffffffffffffffffffffffffffffff16036109365760006040517f1e4fbdf700000000000000000000000000000000000000000000000000000000815260040161092d919061193e565b60405180910390fd5b61093f81610c1d565b50565b600033905090565b6109578383836001610d13565b505050565b610964610942565b73ffffffffffffffffffffffffffffffffffffffff1661098261071e565b73ffffffffffffffffffffffffffffffffffffffff16146109e1576109a5610942565b6040517f118cdaa70000000000000000000000000000000000000000000000000000000081526004016109d8919061193e565b60405180910390fd5b565b6000610a0b836000018373ffffffffffffffffffffffffffffffffffffffff1660001b610eea565b905092915050565b6000610a1f8484610823565b90507fffffffffffffffffffffffffffffffffffffffffffffffffffffffffffffffff8114610aa15781811015610a91578281836040517ffb8f41b2000000000000000000000000000000000000000000000000000000008152600401610a8893929190611a26565b60405180910390fd5b610aa084848484036000610d13565b5b50505050565b600073ffffffffffffffffffffffffffffffffffffffff168373ffffffffffffffffffffffffffffffffffffffff1603610b195760006040517f96c6fd1e000000000000000000000000000000000000000000000000000000008152600401610b10919061193e565b60405180910390fd5b600073ffffffffffffffffffffffffffffffffffffffff168273ffffffffffffffffffffffffffffffffffffffff1603610b8b5760006040517fec442f05000000000000000000000000000000000000000000000000000000008152600401610b82919061193e565b60405180910390fd5b610b96838383610ffe565b505050565b600073ffffffffffffffffffffffffffffffffffffffff168273ffffffffffffffffffffffffffffffffffffffff1603610c0d5760006040517f96c6fd1e000000000000000000000000000000000000000000000000000000008152600401610c04919061193e565b60405180910390fd5b610c1982600083610ffe565b5050565b6000600560009054906101000a900473ffffffffffffffffffffffffffffffffffffffff16905081600560006101000a81548173ffffffffffffffffffffffffffffffffffffffff021916908373ffffffffffffffffffffffffffffffffffffffff1602179055508173ffffffffffffffffffffffffffffffffffffffff168173ffffffffffffffffffffffffffffffffffffffff167f8be0079c531659141344cd1fd0a4f28419497f9722a3daafe3b4186f6b6457e060405160405180910390a35050565b6000610d0b836000018373ffffffffffffffffffffffffffffffffffffffff1660001b611106565b905092915050565b600073ffffffffffffffffffffffffffffffffffffffff168473ffffffffffffffffffffffffffffffffffffffff1603610d855760006040517fe602df05000000000000000000000000000000000000000000000000000000008152600401610d7c919061193e565b60405180910390fd5b600073ffffffffffffffffffffffffffffffffffffffff168373ffffffffffffffffffffffffffffffffffffffff1603610df75760006040517f94280d62000000000000000000000000000000000000000000000000000000008152600401610dee919061193e565b60405180910390fd5b81600160008673ffffffffffffffffffffffffffffffffffffffff1673ffffffffffffffffffffffffffffffffffffffff16815260200190815260200160002060008573ffffffffffffffffffffffffffffffffffffffff1673ffffffffffffffffffffffffffffffffffffffff168152602001908152602001600020819055508015610ee4578273ffffffffffffffffffffffffffffffffffffffff168473ffffffffffffffffffffffffffffffffffffffff167f8c5be1e5ebec7d5bd14f71427d1e84f3dd0314c0f7b2291e5b200ac8c7c3b92584604051610edb919061179e565b60405180910390a35b50505050565b60008083600101600084815260200190815260200160002054905060008114610ff2576000600182610f1c9190611a8c565b9050600060018660000180549050610f349190611a8c565b9050808214610fa3576000866000018281548110610f5557610f54611ac0565b5b9060005260206000200154905080876000018481548110610f7957610f78611ac0565b5b90600052602060002001819055508387600101600083815260200190815260200160002081905550505b85600001805480610fb757610fb6611aef565b5b600190038181906000526020600020016000905590558560010160008681526020019081526020016000206000905560019350505050610ff8565b60009150505b92915050565b600e60008473ffffffffffffffffffffffffffffffffffffffff1673ffffffffffffffffffffffffffffffffffffffff16815260200190815260200160002060009054906101000a900460ff168061109f5750600e60008373ffffffffffffffffffffffffffffffffffffffff1673ffffffffffffffffffffffffffffffffffffffff16815260200190815260200160002060009054906101000a900460ff165b156110b4576110af838383611176565b611101565b6000806110c285858561139b565b915091506110d1858584611176565b6110fe85600d60009054906101000a900473ffffffffffffffffffffffffffffffffffffffff1683611176565b50505b505050565b6000611112838361144d565b61116b578260000182908060018154018082558091505060019003906000526020600020016000909190919091505582600001805490508360010160008481526020019081526020016000208190555060019050611170565b600090505b92915050565b600073ffffffffffffffffffffffffffffffffffffffff168373ffffffffffffffffffffffffffffffffffffffff16036111c85780600260008282546111bc9190611b1e565b9250508190555061129b565b60008060008573ffffffffffffffffffffffffffffffffffffffff1673ffffffffffffffffffffffffffffffffffffffff16815260200190815260200160002054905081811015611254578381836040517fe450d38c00000000000000000000000000000000000000000000000000000000815260040161124b93929190611a26565b60405180910390fd5b8181036000808673ffffffffffffffffffffffffffffffffffffffff1673ffffffffffffffffffffffffffffffffffffffff16815260200190815260200160002081905550505b600073ffffffffffffffffffffffffffffffffffffffff168273ffffffffffffffffffffffffffffffffffffffff16036112e45780600260008282540392505081905550611331565b806000808473ffffffffffffffffffffffffffffffffffffffff1673ffffffffffffffffffffffffffffffffffffffff168152602001908152602001600020600082825401925050819055505b8173ffffffffffffffffffffffffffffffffffffffff168373ffffffffffffffffffffffffffffffffffffffff167fddf252ad1be2c89b69c2b068fc378daa952ba7f163c4a11628f55a4df523b3ef8360405161138e919061179e565b60405180910390a3505050565b60008060006113b485600761147090919063ffffffff16565b905060006113cc87600761147090919063ffffffff16565b905080156113f1576113ea6009548668056bc75e2d631000006114a0565b925061142e565b81156114145761140d600a548668056bc75e2d631000006114a0565b925061142d565b61142a600b548668056bc75e2d631000006114a0565b92505b5b61144183866115a790919063ffffffff16565b93505050935093915050565b600080836001016000848152602001908152602001600020541415905092915050565b6000611498836000018373ffffffffffffffffffffffffffffffffffffffff1660001b61144d565b905092915050565b60008083850290506000801985870982811083820303915050600081036114db578382816114d1576114d0611b52565b5b04925050506115a0565b808411611514576040517f227bc15300000000000000000000000000000000000000000000000000000000815260040160405180910390fd5b600084868809905082811182039150808303925060008560000386169050808604955080840493506001818260000304019050808302841793506000600287600302189050808702600203810290508087026002038102905080870260020381029050808702600203810290508087026002038102905080870260020381029050808502955050505050505b9392505050565b6000828211156115ba576115b9611b81565b5b81836115c69190611a8c565b905092915050565b600081519050919050565b600082825260208201905092915050565b60005b838110156116085780820151818401526020810190506115ed565b60008484015250505050565b6000601f19601f8301169050919050565b6000611630826115ce565b61163a81856115d9565b935061164a8185602086016115ea565b61165381611614565b840191505092915050565b600060208201905081810360008301526116788184611625565b905092915050565b600080fd5b600073ffffffffffffffffffffffffffffffffffffffff82169050919050565b60006116b082611685565b9050919050565b6116c0816116a5565b81146116cb57600080fd5b50565b6000813590506116dd816116b7565b92915050565b6000819050919050565b6116f6816116e3565b811461170157600080fd5b50565b600081359050611713816116ed565b92915050565b600080604083850312156117305761172f611680565b5b600061173e858286016116ce565b925050602061174f85828601611704565b9150509250929050565b60008115159050919050565b61176e81611759565b82525050565b60006020820190506117896000830184611765565b92915050565b611798816116e3565b82525050565b60006020820190506117b3600083018461178f565b92915050565b6000602082840312156117cf576117ce611680565b5b60006117dd848285016116ce565b91505092915050565b6000806000606084860312156117ff576117fe611680565b5b600061180d86828701611704565b935050602061181e86828701611704565b925050604061182f86828701611704565b9150509250925092565b60008060006060848603121561185257611851611680565b5b6000611860868287016116ce565b9350506020611871868287016116ce565b925050604061188286828701611704565b9150509250925092565b61189581611759565b81146118a057600080fd5b50565b6000813590506118b28161188c565b92915050565b600080604083850312156118cf576118ce611680565b5b60006118dd858286016116ce565b92505060206118ee858286016118a3565b9150509250929050565b600060ff82169050919050565b61190e816118f8565b82525050565b60006020820190506119296000830184611905565b92915050565b611938816116a5565b82525050565b6000602082019050611953600083018461192f565b92915050565b60006020828403121561196f5761196e611680565b5b600061197d84828501611704565b91505092915050565b6000806040838503121561199d5761199c611680565b5b60006119ab858286016116ce565b92505060206119bc858286016116ce565b9150509250929050565b7f4e487b7100000000000000000000000000000000000000000000000000000000600052602260045260246000fd5b60006002820490506001821680611a0d57607f821691505b602082108103611a2057611a1f6119c6565b5b50919050565b6000606082019050611a3b600083018661192f565b611a48602083018561178f565b611a55604083018461178f565b949350505050565b7f4e487b7100000000000000000000000000000000000000000000000000000000600052601160045260246000fd5b6000611a97826116e3565b9150611aa2836116e3565b9250828203905081811115611aba57611ab9611a5d565b5b92915050565b7f4e487b7100000000000000000000000000000000000000000000000000000000600052603260045260246000fd5b7f4e487b7100000000000000000000000000000000000000000000000000000000600052603160045260246000fd5b6000611b29826116e3565b9150611b34836116e3565b9250828201905080821115611b4c57611b4b611a5d565b5b92915050565b7f4e487b7100000000000000000000000000000000000000000000000000000000600052601260045260246000fd5b7f4e487b7100000000000000000000000000000000000000000000000000000000600052600160045260246000fdfea264697066735822122049ca64d430de76cbff6d20b87ded648cf0d9c175c92729334dbfafad3185b20e64736f6c63430008140033",
  "linkReferences": {},
  "deployedLinkReferences": {}
}