{
  "_format": "hh-sol-artifact-1",
  "contractName": "FifaRewardToken",
  "sourceName": "contracts/FifaRewardToken.sol",
  "abi": [
    {
      "inputs": [],
      "stateMutability": "nonpayable",
      "type": "constructor"
    },
    {
      "inputs": [
        {
          "internalType": "address",
          "name": "spender",
          "type": "address"
        },
        {
          "internalType": "uint256",
          "name": "allowance",
          "type": "uint256"
        },
        {
          "internalType": "uint256",
          "name": "needed",
          "type": "uint256"
        }
      ],
      "name": "ERC20InsufficientAllowance",
      "type": "error"
    },
    {
      "inputs": [
        {
          "internalType": "address",
          "name": "sender",
          "type": "address"
        },
        {
          "internalType": "uint256",
          "name": "balance",
          "type": "uint256"
        },
        {
          "internalType": "uint256",
          "name": "needed",
          "type": "uint256"
        }
      ],
      "name": "ERC20InsufficientBalance",
      "type": "error"
    },
    {
      "inputs": [
        {
          "internalType": "address",
          "name": "approver",
          "type": "address"
        }
      ],
      "name": "ERC20InvalidApprover",
      "type": "error"
    },
    {
      "inputs": [
        {
          "internalType": "address",
          "name": "receiver",
          "type": "address"
        }
      ],
      "name": "ERC20InvalidReceiver",
      "type": "error"
    },
    {
      "inputs": [
        {
          "internalType": "address",
          "name": "sender",
          "type": "address"
        }
      ],
      "name": "ERC20InvalidSender",
      "type": "error"
    },
    {
      "inputs": [
        {
          "internalType": "address",
          "name": "spender",
          "type": "address"
        }
      ],
      "name": "ERC20InvalidSpender",
      "type": "error"
    },
    {
      "inputs": [
        {
          "internalType": "address",
          "name": "owner",
          "type": "address"
        }
      ],
      "name": "OwnableInvalidOwner",
      "type": "error"
    },
    {
      "inputs": [
        {
          "internalType": "address",
          "name": "account",
          "type": "address"
        }
      ],
      "name": "OwnableUnauthorizedAccount",
      "type": "error"
    },
    {
      "anonymous": false,
      "inputs": [
        {
          "indexed": true,
          "internalType": "address",
          "name": "owner",
          "type": "address"
        },
        {
          "indexed": true,
          "internalType": "address",
          "name": "spender",
          "type": "address"
        },
        {
          "indexed": false,
          "internalType": "uint256",
          "name": "value",
          "type": "uint256"
        }
      ],
      "name": "Approval",
      "type": "event"
    },
    {
      "anonymous": false,
      "inputs": [
        {
          "indexed": true,
          "internalType": "address",
          "name": "previousOwner",
          "type": "address"
        },
        {
          "indexed": true,
          "internalType": "address",
          "name": "newOwner",
          "type": "address"
        }
      ],
      "name": "OwnershipTransferred",
      "type": "event"
    },
    {
      "anonymous": false,
      "inputs": [
        {
          "indexed": true,
          "internalType": "address",
          "name": "from",
          "type": "address"
        },
        {
          "indexed": true,
          "internalType": "address",
          "name": "to",
          "type": "address"
        },
        {
          "indexed": false,
          "internalType": "uint256",
          "name": "value",
          "type": "uint256"
        }
      ],
      "name": "Transfer",
      "type": "event"
    },
    {
      "inputs": [
        {
          "internalType": "address",
          "name": "dexPool",
          "type": "address"
        }
      ],
      "name": "addDexPool",
      "outputs": [],
      "stateMutability": "nonpayable",
      "type": "function"
    },
    {
      "inputs": [
        {
          "internalType": "uint256",
          "name": "tokenAmount",
          "type": "uint256"
        },
        {
          "internalType": "uint256",
          "name": "ethAmount",
          "type": "uint256"
        }
      ],
      "name": "addLiquidity",
      "outputs": [],
      "stateMutability": "nonpayable",
      "type": "function"
    },
    {
      "inputs": [
        {
          "internalType": "address",
          "name": "owner",
          "type": "address"
        },
        {
          "internalType": "address",
          "name": "spender",
          "type": "address"
        }
      ],
      "name": "allowance",
      "outputs": [
        {
          "internalType": "uint256",
          "name": "",
          "type": "uint256"
        }
      ],
      "stateMutability": "view",
      "type": "function"
    },
    {
      "inputs": [
        {
          "internalType": "address",
          "name": "spender",
          "type": "address"
        },
        {
          "internalType": "uint256",
          "name": "value",
          "type": "uint256"
        }
      ],
      "name": "approve",
      "outputs": [
        {
          "internalType": "bool",
          "name": "",
          "type": "bool"
        }
      ],
      "stateMutability": "nonpayable",
      "type": "function"
    },
    {
      "inputs": [
        {
          "internalType": "address",
          "name": "account",
          "type": "address"
        }
      ],
      "name": "balanceOf",
      "outputs": [
        {
          "internalType": "uint256",
          "name": "",
          "type": "uint256"
        }
      ],
      "stateMutability": "view",
      "type": "function"
    },
    {
      "inputs": [
        {
          "internalType": "uint256",
          "name": "value",
          "type": "uint256"
        }
      ],
      "name": "burn",
      "outputs": [],
      "stateMutability": "nonpayable",
      "type": "function"
    },
    {
      "inputs": [
        {
          "internalType": "address",
          "name": "account",
          "type": "address"
        },
        {
          "internalType": "uint256",
          "name": "value",
          "type": "uint256"
        }
      ],
      "name": "burnFrom",
      "outputs": [],
      "stateMutability": "nonpayable",
      "type": "function"
    },
    {
      "inputs": [],
      "name": "buyFeePercent",
      "outputs": [
        {
          "internalType": "uint256",
          "name": "",
          "type": "uint256"
        }
      ],
      "stateMutability": "view",
      "type": "function"
    },
    {
      "inputs": [],
      "name": "decimals",
      "outputs": [
        {
          "internalType": "uint8",
          "name": "",
          "type": "uint8"
        }
      ],
      "stateMutability": "view",
      "type": "function"
    },
    {
      "inputs": [
        {
          "internalType": "address",
          "name": "user",
          "type": "address"
        },
        {
          "internalType": "bool",
          "name": "exempt",
          "type": "bool"
        }
      ],
      "name": "exemptFee",
      "outputs": [],
      "stateMutability": "nonpayable",
      "type": "function"
    },
    {
      "inputs": [],
      "name": "feeAddress",
      "outputs": [
        {
          "internalType": "address",
          "name": "",
          "type": "address"
        }
      ],
      "stateMutability": "view",
      "type": "function"
    },
    {
      "inputs": [],
      "name": "getLW",
      "outputs": [
        {
          "internalType": "address",
          "name": "",
          "type": "address"
        }
      ],
      "stateMutability": "view",
      "type": "function"
    },
    {
      "inputs": [],
      "name": "getMW",
      "outputs": [
        {
          "internalType": "address",
          "name": "",
          "type": "address"
        }
      ],
      "stateMutability": "view",
      "type": "function"
    },
    {
      "inputs": [],
      "name": "getNW",
      "outputs": [
        {
          "internalType": "address",
          "name": "",
          "type": "address"
        }
      ],
      "stateMutability": "view",
      "type": "function"
    },
    {
      "inputs": [],
      "name": "getSW",
      "outputs": [
        {
          "internalType": "address",
          "name": "",
          "type": "address"
        }
      ],
      "stateMutability": "view",
      "type": "function"
    },
    {
      "inputs": [
        {
          "internalType": "address",
          "name": "",
          "type": "address"
        }
      ],
      "name": "isFeeExempt",
      "outputs": [
        {
          "internalType": "bool",
          "name": "",
          "type": "bool"
        }
      ],
      "stateMutability": "view",
      "type": "function"
    },
    {
      "inputs": [
        {
          "internalType": "address",
          "name": "",
          "type": "address"
        }
      ],
      "name": "isTxLimitExempt",
      "outputs": [
        {
          "internalType": "bool",
          "name": "",
          "type": "bool"
        }
      ],
      "stateMutability": "view",
      "type": "function"
    },
    {
      "inputs": [],
      "name": "maxSupply",
      "outputs": [
        {
          "internalType": "uint256",
          "name": "",
          "type": "uint256"
        }
      ],
      "stateMutability": "view",
      "type": "function"
    },
    {
      "inputs": [],
      "name": "maxTxAmount",
      "outputs": [
        {
          "internalType": "uint256",
          "name": "",
          "type": "uint256"
        }
      ],
      "stateMutability": "view",
      "type": "function"
    },
    {
      "inputs": [],
      "name": "maxWAmount",
      "outputs": [
        {
          "internalType": "uint256",
          "name": "",
          "type": "uint256"
        }
      ],
      "stateMutability": "view",
      "type": "function"
    },
    {
      "inputs": [],
      "name": "name",
      "outputs": [
        {
          "internalType": "string",
          "name": "",
          "type": "string"
        }
      ],
      "stateMutability": "view",
      "type": "function"
    },
    {
      "inputs": [],
      "name": "owner",
      "outputs": [
        {
          "internalType": "address",
          "name": "",
          "type": "address"
        }
      ],
      "stateMutability": "view",
      "type": "function"
    },
    {
      "inputs": [],
      "name": "pancakeswapPair",
      "outputs": [
        {
          "internalType": "address",
          "name": "",
          "type": "address"
        }
      ],
      "stateMutability": "view",
      "type": "function"
    },
    {
      "inputs": [],
      "name": "pancakeswapV2Router",
      "outputs": [
        {
          "internalType": "contract IPancakeRouter02",
          "name": "",
          "type": "address"
        }
      ],
      "stateMutability": "view",
      "type": "function"
    },
    {
      "inputs": [
        {
          "internalType": "address",
          "name": "dexPool",
          "type": "address"
        }
      ],
      "name": "removeDexPool",
      "outputs": [],
      "stateMutability": "nonpayable",
      "type": "function"
    },
    {
      "inputs": [],
      "name": "renounceOwnership",
      "outputs": [],
      "stateMutability": "nonpayable",
      "type": "function"
    },
    {
      "inputs": [],
      "name": "sellFeePercent",
      "outputs": [
        {
          "internalType": "uint256",
          "name": "",
          "type": "uint256"
        }
      ],
      "stateMutability": "view",
      "type": "function"
    },
    {
      "inputs": [
        {
          "internalType": "address",
          "name": "lw",
          "type": "address"
        }
      ],
      "name": "setLW",
      "outputs": [],
      "stateMutability": "nonpayable",
      "type": "function"
    },
    {
      "inputs": [
        {
          "internalType": "address",
          "name": "mw",
          "type": "address"
        }
      ],
      "name": "setMW",
      "outputs": [],
      "stateMutability": "nonpayable",
      "type": "function"
    },
    {
      "inputs": [
        {
          "internalType": "uint256",
          "name": "_maxTxAmount",
          "type": "uint256"
        }
      ],
      "name": "setMaxTxAmount",
      "outputs": [],
      "stateMutability": "nonpayable",
      "type": "function"
    },
    {
      "inputs": [
        {
          "internalType": "address",
          "name": "nw",
          "type": "address"
        }
      ],
      "name": "setNW",
      "outputs": [],
      "stateMutability": "nonpayable",
      "type": "function"
    },
    {
      "inputs": [
        {
          "internalType": "address",
          "name": "sw",
          "type": "address"
        }
      ],
      "name": "setSW",
      "outputs": [],
      "stateMutability": "nonpayable",
      "type": "function"
    },
    {
      "inputs": [],
      "name": "symbol",
      "outputs": [
        {
          "internalType": "string",
          "name": "",
          "type": "string"
        }
      ],
      "stateMutability": "view",
      "type": "function"
    },
    {
      "inputs": [],
      "name": "totalSupply",
      "outputs": [
        {
          "internalType": "uint256",
          "name": "",
          "type": "uint256"
        }
      ],
      "stateMutability": "view",
      "type": "function"
    },
    {
      "inputs": [
        {
          "internalType": "address",
          "name": "to",
          "type": "address"
        },
        {
          "internalType": "uint256",
          "name": "value",
          "type": "uint256"
        }
      ],
      "name": "transfer",
      "outputs": [
        {
          "internalType": "bool",
          "name": "",
          "type": "bool"
        }
      ],
      "stateMutability": "nonpayable",
      "type": "function"
    },
    {
      "inputs": [],
      "name": "transferFeePercent",
      "outputs": [
        {
          "internalType": "uint256",
          "name": "",
          "type": "uint256"
        }
      ],
      "stateMutability": "view",
      "type": "function"
    },
    {
      "inputs": [
        {
          "internalType": "address",
          "name": "from",
          "type": "address"
        },
        {
          "internalType": "address",
          "name": "to",
          "type": "address"
        },
        {
          "internalType": "uint256",
          "name": "value",
          "type": "uint256"
        }
      ],
      "name": "transferFrom",
      "outputs": [
        {
          "internalType": "bool",
          "name": "",
          "type": "bool"
        }
      ],
      "stateMutability": "nonpayable",
      "type": "function"
    },
    {
      "inputs": [
        {
          "internalType": "address",
          "name": "newOwner",
          "type": "address"
        }
      ],
      "name": "transferOwnership",
      "outputs": [],
      "stateMutability": "nonpayable",
      "type": "function"
    },
    {
      "inputs": [
        {
          "internalType": "uint256",
          "name": "_buyFee",
          "type": "uint256"
        },
        {
          "internalType": "uint256",
          "name": "_sellFee",
          "type": "uint256"
        },
        {
          "internalType": "uint256",
          "name": "_transferFee",
          "type": "uint256"
        }
      ],
      "name": "updateFees",
      "outputs": [],
      "stateMutability": "nonpayable",
      "type": "function"
    },
    {
      "stateMutability": "payable",
      "type": "receive"
    }
  ],
  "bytecode": "0x60a060405260026009556004600a556004600b556a034f086f3b33b684000000600c556a034f086f3b33b684000000600d556b033b2e3c9fd0803ce8000000600e5573334364043b0ad2d1e487bf3ee25fa7f42d125892601760006101000a81548173ffffffffffffffffffffffffffffffffffffffff021916908373ffffffffffffffffffffffffffffffffffffffff160217905550348015620000a357600080fd5b50735b38da6a701c568545dcfcb03fcb875f56beddc46040518060400160405280600a81526020017f46494641526577617264000000000000000000000000000000000000000000008152506040518060400160405280600381526020017f4652440000000000000000000000000000000000000000000000000000000000815250816003908162000136919062000dd0565b50806004908162000148919062000dd0565b505050600073ffffffffffffffffffffffffffffffffffffffff168173ffffffffffffffffffffffffffffffffffffffff1603620001c05760006040517f1e4fbdf7000000000000000000000000000000000000000000000000000000008152600401620001b7919062000efc565b60405180910390fd5b620001d1816200066660201b60201c565b506000735b38da6a701c568545dcfcb03fcb875f56beddc49050620001fc816200072c60201b60201c565b6000739a082015c919ad0e47861e5db9a1c7070e81a2c790508073ffffffffffffffffffffffffffffffffffffffff1663ad5c46486040518163ffffffff1660e01b8152600401602060405180830381865afa15801562000261573d6000803e3d6000fd5b505050506040513d601f19601f8201168201806040525081019062000287919062000f4f565b73ffffffffffffffffffffffffffffffffffffffff1660808173ffffffffffffffffffffffffffffffffffffffff16815250508073ffffffffffffffffffffffffffffffffffffffff1663c45a01556040518163ffffffff1660e01b8152600401602060405180830381865afa15801562000306573d6000803e3d6000fd5b505050506040513d601f19601f820116820180604052508101906200032c919062000f4f565b73ffffffffffffffffffffffffffffffffffffffff1663c9c65396306080516040518363ffffffff1660e01b81526004016200036a92919062000f81565b6020604051808303816000875af11580156200038a573d6000803e3d6000fd5b505050506040513d601f19601f82011682018060405250810190620003b0919062000f4f565b601660006101000a81548173ffffffffffffffffffffffffffffffffffffffff021916908373ffffffffffffffffffffffffffffffffffffffff16021790555080601560006101000a81548173ffffffffffffffffffffffffffffffffffffffff021916908373ffffffffffffffffffffffffffffffffffffffff1602179055506001601360008073ffffffffffffffffffffffffffffffffffffffff1673ffffffffffffffffffffffffffffffffffffffff16815260200190815260200160002060006101000a81548160ff0219169083151502179055506001601460008073ffffffffffffffffffffffffffffffffffffffff1673ffffffffffffffffffffffffffffffffffffffff16815260200190815260200160002060006101000a81548160ff0219169083151502179055506001601360003073ffffffffffffffffffffffffffffffffffffffff1673ffffffffffffffffffffffffffffffffffffffff16815260200190815260200160002060006101000a81548160ff0219169083151502179055506001601460003073ffffffffffffffffffffffffffffffffffffffff1673ffffffffffffffffffffffffffffffffffffffff16815260200190815260200160002060006101000a81548160ff0219169083151502179055506001601360003373ffffffffffffffffffffffffffffffffffffffff1673ffffffffffffffffffffffffffffffffffffffff16815260200190815260200160002060006101000a81548160ff0219169083151502179055506001601460003373ffffffffffffffffffffffffffffffffffffffff1673ffffffffffffffffffffffffffffffffffffffff16815260200190815260200160002060006101000a81548160ff0219169083151502179055506200065e336a52b7d2dcc80cd2e4000000620007c560201b60201c565b505062001083565b6000600560009054906101000a900473ffffffffffffffffffffffffffffffffffffffff16905081600560006101000a81548173ffffffffffffffffffffffffffffffffffffffff021916908373ffffffffffffffffffffffffffffffffffffffff1602179055508173ffffffffffffffffffffffffffffffffffffffff168173ffffffffffffffffffffffffffffffffffffffff167f8be0079c531659141344cd1fd0a4f28419497f9722a3daafe3b4186f6b6457e060405160405180910390a35050565b6200073c6200085260201b60201c565b600073ffffffffffffffffffffffffffffffffffffffff168173ffffffffffffffffffffffffffffffffffffffff1603620007b15760006040517f1e4fbdf7000000000000000000000000000000000000000000000000000000008152600401620007a8919062000efc565b60405180910390fd5b620007c2816200066660201b60201c565b50565b600073ffffffffffffffffffffffffffffffffffffffff168273ffffffffffffffffffffffffffffffffffffffff16036200083a5760006040517fec442f0500000000000000000000000000000000000000000000000000000000815260040162000831919062000efc565b60405180910390fd5b6200084e60008383620008f460201b60201c565b5050565b6200086262000b2460201b60201c565b73ffffffffffffffffffffffffffffffffffffffff166200088862000b2c60201b60201c565b73ffffffffffffffffffffffffffffffffffffffff1614620008f257620008b462000b2460201b60201c565b6040517f118cdaa7000000000000000000000000000000000000000000000000000000008152600401620008e9919062000efc565b60405180910390fd5b565b600073ffffffffffffffffffffffffffffffffffffffff168373ffffffffffffffffffffffffffffffffffffffff16036200094a5780600260008282546200093d919062000fdd565b9250508190555062000a20565b60008060008573ffffffffffffffffffffffffffffffffffffffff1673ffffffffffffffffffffffffffffffffffffffff16815260200190815260200160002054905081811015620009d9578381836040517fe450d38c000000000000000000000000000000000000000000000000000000008152600401620009d09392919062001029565b60405180910390fd5b8181036000808673ffffffffffffffffffffffffffffffffffffffff1673ffffffffffffffffffffffffffffffffffffffff16815260200190815260200160002081905550505b600073ffffffffffffffffffffffffffffffffffffffff168273ffffffffffffffffffffffffffffffffffffffff160362000a6b578060026000828254039250508190555062000ab8565b806000808473ffffffffffffffffffffffffffffffffffffffff1673ffffffffffffffffffffffffffffffffffffffff168152602001908152602001600020600082825401925050819055505b8173ffffffffffffffffffffffffffffffffffffffff168373ffffffffffffffffffffffffffffffffffffffff167fddf252ad1be2c89b69c2b068fc378daa952ba7f163c4a11628f55a4df523b3ef8360405162000b17919062001066565b60405180910390a3505050565b600033905090565b6000600560009054906101000a900473ffffffffffffffffffffffffffffffffffffffff16905090565b600081519050919050565b7f4e487b7100000000000000000000000000000000000000000000000000000000600052604160045260246000fd5b7f4e487b7100000000000000000000000000000000000000000000000000000000600052602260045260246000fd5b6000600282049050600182168062000bd857607f821691505b60208210810362000bee5762000bed62000b90565b5b50919050565b60008190508160005260206000209050919050565b60006020601f8301049050919050565b600082821b905092915050565b60006008830262000c587fffffffffffffffffffffffffffffffffffffffffffffffffffffffffffffffff8262000c19565b62000c64868362000c19565b95508019841693508086168417925050509392505050565b6000819050919050565b6000819050919050565b600062000cb162000cab62000ca58462000c7c565b62000c86565b62000c7c565b9050919050565b6000819050919050565b62000ccd8362000c90565b62000ce562000cdc8262000cb8565b84845462000c26565b825550505050565b600090565b62000cfc62000ced565b62000d0981848462000cc2565b505050565b5b8181101562000d315762000d2560008262000cf2565b60018101905062000d0f565b5050565b601f82111562000d805762000d4a8162000bf4565b62000d558462000c09565b8101602085101562000d65578190505b62000d7d62000d748562000c09565b83018262000d0e565b50505b505050565b600082821c905092915050565b600062000da56000198460080262000d85565b1980831691505092915050565b600062000dc0838362000d92565b9150826002028217905092915050565b62000ddb8262000b56565b67ffffffffffffffff81111562000df75762000df662000b61565b5b62000e03825462000bbf565b62000e1082828562000d35565b600060209050601f83116001811462000e48576000841562000e33578287015190505b62000e3f858262000db2565b86555062000eaf565b601f19841662000e588662000bf4565b60005b8281101562000e825784890151825560018201915060208501945060208101905062000e5b565b8683101562000ea2578489015162000e9e601f89168262000d92565b8355505b6001600288020188555050505b505050505050565b600073ffffffffffffffffffffffffffffffffffffffff82169050919050565b600062000ee48262000eb7565b9050919050565b62000ef68162000ed7565b82525050565b600060208201905062000f13600083018462000eeb565b92915050565b600080fd5b62000f298162000ed7565b811462000f3557600080fd5b50565b60008151905062000f498162000f1e565b92915050565b60006020828403121562000f685762000f6762000f19565b5b600062000f788482850162000f38565b91505092915050565b600060408201905062000f98600083018562000eeb565b62000fa7602083018462000eeb565b9392505050565b7f4e487b7100000000000000000000000000000000000000000000000000000000600052601160045260246000fd5b600062000fea8262000c7c565b915062000ff78362000c7c565b925082820190508082111562001012576200101162000fae565b5b92915050565b620010238162000c7c565b82525050565b600060608201905062001040600083018662000eeb565b6200104f602083018562001018565b6200105e604083018462001018565b949350505050565b60006020820190506200107d600083018462001018565b92915050565b608051612cae6200109f6000396000611e470152612cae6000f3fe6080604052600436106102345760003560e01c80638c0b5e221161012e578063d39a939b116100ab578063e5dffed31161006f578063e5dffed31461084a578063ec28438a14610875578063efbe389a1461089e578063f2fde38b146108c9578063f9e3645e146108f25761023b565b8063d39a939b14610761578063d5abeb011461078c578063dd62ed3e146107b7578063e0bf1357146107f4578063e0d30d9b1461081f5761023b565b80639cd441da116100f25780639cd441da1461067c578063a9059cbb146106a5578063b3e15fa4146106e2578063cc3fdd4c1461070d578063d084bd39146107385761023b565b80638c0b5e22146105a75780638da5cb5b146105d257806394544e64146105fd57806395d89b41146106285780639bc033bc146106535761023b565b8063313ce567116101bc57806370a082311161018057806370a08231146104c4578063715018a61461050157806379cc6790146105185780638904cc17146105415780638b42507f1461056a5761023b565b8063313ce567146103dd5780633f4218e014610408578063412753581461044557806342966c681461047057806349d27d69146104995761023b565b80631c315d5f116102035780631c315d5f146102fc5780631f5a5ab814610325578063224290851461034e57806323b872dd146103775780632dc4f5e6146103b45761023b565b806306fdde0314610240578063095ea7b31461026b57806318160ddd146102a85780631928642c146102d35761023b565b3661023b57005b600080fd5b34801561024c57600080fd5b5061025561091d565b6040516102629190612342565b60405180910390f35b34801561027757600080fd5b50610292600480360381019061028d91906123fd565b6109af565b60405161029f9190612458565b60405180910390f35b3480156102b457600080fd5b506102bd6109d2565b6040516102ca9190612482565b60405180910390f35b3480156102df57600080fd5b506102fa60048036038101906102f5919061249d565b6109dc565b005b34801561030857600080fd5b50610323600480360381019061031e919061249d565b610a28565b005b34801561033157600080fd5b5061034c6004803603810190610347919061249d565b610a74565b005b34801561035a57600080fd5b50610375600480360381019061037091906124ca565b610a94565b005b34801561038357600080fd5b5061039e6004803603810190610399919061251d565b610ab6565b6040516103ab9190612458565b60405180910390f35b3480156103c057600080fd5b506103db60048036038101906103d6919061259c565b610ae5565b005b3480156103e957600080fd5b506103f2610b9f565b6040516103ff91906125f8565b60405180910390f35b34801561041457600080fd5b5061042f600480360381019061042a919061249d565b610ba8565b60405161043c9190612458565b60405180910390f35b34801561045157600080fd5b5061045a610bc8565b6040516104679190612622565b60405180910390f35b34801561047c57600080fd5b506104976004803603810190610492919061263d565b610bee565b005b3480156104a557600080fd5b506104ae610c02565b6040516104bb9190612622565b60405180910390f35b3480156104d057600080fd5b506104eb60048036038101906104e6919061249d565b610c34565b6040516104f89190612482565b60405180910390f35b34801561050d57600080fd5b50610516610c7c565b005b34801561052457600080fd5b5061053f600480360381019061053a91906123fd565b610c90565b005b34801561054d57600080fd5b506105686004803603810190610563919061249d565b610cb0565b005b34801561057657600080fd5b50610591600480360381019061058c919061249d565b610cfc565b60405161059e9190612458565b60405180910390f35b3480156105b357600080fd5b506105bc610d1c565b6040516105c99190612482565b60405180910390f35b3480156105de57600080fd5b506105e7610d22565b6040516105f49190612622565b60405180910390f35b34801561060957600080fd5b50610612610d4c565b60405161061f9190612482565b60405180910390f35b34801561063457600080fd5b5061063d610d52565b60405161064a9190612342565b60405180910390f35b34801561065f57600080fd5b5061067a6004803603810190610675919061249d565b610de4565b005b34801561068857600080fd5b506106a3600480360381019061069e919061266a565b610e04565b005b3480156106b157600080fd5b506106cc60048036038101906106c791906123fd565b610ef1565b6040516106d99190612458565b60405180910390f35b3480156106ee57600080fd5b506106f7610f14565b6040516107049190612622565b60405180910390f35b34801561071957600080fd5b50610722610f46565b60405161072f9190612482565b60405180910390f35b34801561074457600080fd5b5061075f600480360381019061075a919061249d565b610f4c565b005b34801561076d57600080fd5b50610776610f98565b6040516107839190612622565b60405180910390f35b34801561079857600080fd5b506107a1610fca565b6040516107ae9190612482565b60405180910390f35b3480156107c357600080fd5b506107de60048036038101906107d991906126aa565b610fd0565b6040516107eb9190612482565b60405180910390f35b34801561080057600080fd5b50610809611057565b6040516108169190612482565b60405180910390f35b34801561082b57600080fd5b5061083461105d565b6040516108419190612482565b60405180910390f35b34801561085657600080fd5b5061085f611063565b60405161086c9190612749565b60405180910390f35b34801561088157600080fd5b5061089c6004803603810190610897919061263d565b611089565b005b3480156108aa57600080fd5b506108b361109b565b6040516108c09190612622565b60405180910390f35b3480156108d557600080fd5b506108f060048036038101906108eb919061249d565b6110c1565b005b3480156108fe57600080fd5b50610907611147565b6040516109149190612622565b60405180910390f35b60606003805461092c90612793565b80601f016020809104026020016040519081016040528092919081815260200182805461095890612793565b80156109a55780601f1061097a576101008083540402835291602001916109a5565b820191906000526020600020905b81548152906001019060200180831161098857829003601f168201915b5050505050905090565b6000806109ba611179565b90506109c7818585611181565b600191505092915050565b6000600254905090565b6109e4611193565b80601260006101000a81548173ffffffffffffffffffffffffffffffffffffffff021916908373ffffffffffffffffffffffffffffffffffffffff16021790555050565b610a30611193565b80601160006101000a81548173ffffffffffffffffffffffffffffffffffffffff021916908373ffffffffffffffffffffffffffffffffffffffff16021790555050565b610a7c611193565b610a9081600661121a90919063ffffffff16565b5050565b610a9c611193565b8260098190555081600a8190555080600b81905550505050565b600080610ac1611179565b9050610ace85828561124a565b610ad98585856112de565b60019150509392505050565b610aed611193565b80601360008473ffffffffffffffffffffffffffffffffffffffff1673ffffffffffffffffffffffffffffffffffffffff16815260200190815260200160002060006101000a81548160ff02191690831515021790555080601460008473ffffffffffffffffffffffffffffffffffffffff1673ffffffffffffffffffffffffffffffffffffffff16815260200190815260200160002060006101000a81548160ff0219169083151502179055505050565b60006012905090565b60136020528060005260406000206000915054906101000a900460ff1681565b601760009054906101000a900473ffffffffffffffffffffffffffffffffffffffff1681565b610bff610bf9611179565b8261177d565b50565b6000610c0c611193565b601260009054906101000a900473ffffffffffffffffffffffffffffffffffffffff16905090565b60008060008373ffffffffffffffffffffffffffffffffffffffff1673ffffffffffffffffffffffffffffffffffffffff168152602001908152602001600020549050919050565b610c84611193565b610c8e60006117ff565b565b610ca282610c9c611179565b8361124a565b610cac828261177d565b5050565b610cb8611193565b80601060006101000a81548173ffffffffffffffffffffffffffffffffffffffff021916908373ffffffffffffffffffffffffffffffffffffffff16021790555050565b60146020528060005260406000206000915054906101000a900460ff1681565b600c5481565b6000600560009054906101000a900473ffffffffffffffffffffffffffffffffffffffff16905090565b600b5481565b606060048054610d6190612793565b80601f0160208091040260200160405190810160405280929190818152602001828054610d8d90612793565b8015610dda5780601f10610daf57610100808354040283529160200191610dda565b820191906000526020600020905b815481529060010190602001808311610dbd57829003601f168201915b5050505050905090565b610dec611193565b610e008160066118c590919063ffffffff16565b5050565b610e0c611193565b610e3930601560009054906101000a900473ffffffffffffffffffffffffffffffffffffffff1684611181565b601560009054906101000a900473ffffffffffffffffffffffffffffffffffffffff1673ffffffffffffffffffffffffffffffffffffffff1663f305d719823085600080610e85610d22565b426040518863ffffffff1660e01b8152600401610ea7969594939291906127ff565b60606040518083038185885af1158015610ec5573d6000803e3d6000fd5b50505050506040513d601f19601f82011682018060405250810190610eea9190612875565b5050505050565b600080610efc611179565b9050610f098185856112de565b600191505092915050565b6000610f1e611193565b600f60009054906101000a900473ffffffffffffffffffffffffffffffffffffffff16905090565b60095481565b610f54611193565b80600f60006101000a81548173ffffffffffffffffffffffffffffffffffffffff021916908373ffffffffffffffffffffffffffffffffffffffff16021790555050565b6000610fa2611193565b601160009054906101000a900473ffffffffffffffffffffffffffffffffffffffff16905090565b600e5481565b6000600160008473ffffffffffffffffffffffffffffffffffffffff1673ffffffffffffffffffffffffffffffffffffffff16815260200190815260200160002060008373ffffffffffffffffffffffffffffffffffffffff1673ffffffffffffffffffffffffffffffffffffffff16815260200190815260200160002054905092915050565b600d5481565b600a5481565b601560009054906101000a900473ffffffffffffffffffffffffffffffffffffffff1681565b611091611193565b80600c8190555050565b601660009054906101000a900473ffffffffffffffffffffffffffffffffffffffff1681565b6110c9611193565b600073ffffffffffffffffffffffffffffffffffffffff168173ffffffffffffffffffffffffffffffffffffffff160361113b5760006040517f1e4fbdf70000000000000000000000000000000000000000000000000000000081526004016111329190612622565b60405180910390fd5b611144816117ff565b50565b6000611151611193565b601060009054906101000a900473ffffffffffffffffffffffffffffffffffffffff16905090565b600033905090565b61118e83838360016118f5565b505050565b61119b611179565b73ffffffffffffffffffffffffffffffffffffffff166111b9610d22565b73ffffffffffffffffffffffffffffffffffffffff1614611218576111dc611179565b6040517f118cdaa700000000000000000000000000000000000000000000000000000000815260040161120f9190612622565b60405180910390fd5b565b6000611242836000018373ffffffffffffffffffffffffffffffffffffffff1660001b611acc565b905092915050565b60006112568484610fd0565b90507fffffffffffffffffffffffffffffffffffffffffffffffffffffffffffffffff81146112d857818110156112c8578281836040517ffb8f41b20000000000000000000000000000000000000000000000000000000081526004016112bf939291906128c8565b60405180910390fd5b6112d7848484840360006118f5565b5b50505050565b600c54811115806113385750601460008373ffffffffffffffffffffffffffffffffffffffff1673ffffffffffffffffffffffffffffffffffffffff16815260200190815260200160002060009054906101000a900460ff165b8061138c5750601460008473ffffffffffffffffffffffffffffffffffffffff1673ffffffffffffffffffffffffffffffffffffffff16815260200190815260200160002060009054906101000a900460ff165b6113cb576040517f08c379a00000000000000000000000000000000000000000000000000000000081526004016113c29061294b565b60405180910390fd5b601360008473ffffffffffffffffffffffffffffffffffffffff1673ffffffffffffffffffffffffffffffffffffffff16815260200190815260200160002060009054906101000a900460ff168061146c5750601360008373ffffffffffffffffffffffffffffffffffffffff1673ffffffffffffffffffffffffffffffffffffffff16815260200190815260200160002060009054906101000a900460ff165b156114815761147c838383611be0565b611778565b60008061148f858585611cd4565b91509150600061149e30610c34565b905060008282101590508080156114c657506114c4876006611d7890919063ffffffff16565b155b801561150557506114d5610d22565b73ffffffffffffffffffffffffffffffffffffffff168773ffffffffffffffffffffffffffffffffffffffff1614155b156115145761151383611da8565b5b600061153d606461152f600f87611f7b90919063ffffffff16565b611fbd90919063ffffffff16565b90506000611568606461155a603c88611f7b90919063ffffffff16565b611fbd90919063ffffffff16565b905060006115936064611585600f89611f7b90919063ffffffff16565b611fbd90919063ffffffff16565b905060006115be60646115b0600a8a611f7b90919063ffffffff16565b611fbd90919063ffffffff16565b9050601060009054906101000a900473ffffffffffffffffffffffffffffffffffffffff1673ffffffffffffffffffffffffffffffffffffffff166108fc859081150290604051600060405180830381858888f19350505050158015611628573d6000803e3d6000fd5b50600f60009054906101000a900473ffffffffffffffffffffffffffffffffffffffff1673ffffffffffffffffffffffffffffffffffffffff166108fc849081150290604051600060405180830381858888f19350505050158015611691573d6000803e3d6000fd5b50601160009054906101000a900473ffffffffffffffffffffffffffffffffffffffff1673ffffffffffffffffffffffffffffffffffffffff166108fc839081150290604051600060405180830381858888f193505050501580156116fa573d6000803e3d6000fd5b50601260009054906101000a900473ffffffffffffffffffffffffffffffffffffffff1673ffffffffffffffffffffffffffffffffffffffff166108fc829081150290604051600060405180830381858888f19350505050158015611763573d6000803e3d6000fd5b5061176f8b8b8a611be0565b50505050505050505b505050565b600073ffffffffffffffffffffffffffffffffffffffff168273ffffffffffffffffffffffffffffffffffffffff16036117ef5760006040517f96c6fd1e0000000000000000000000000000000000000000000000000000000081526004016117e69190612622565b60405180910390fd5b6117fb82600083611fd3565b5050565b6000600560009054906101000a900473ffffffffffffffffffffffffffffffffffffffff16905081600560006101000a81548173ffffffffffffffffffffffffffffffffffffffff021916908373ffffffffffffffffffffffffffffffffffffffff1602179055508173ffffffffffffffffffffffffffffffffffffffff168173ffffffffffffffffffffffffffffffffffffffff167f8be0079c531659141344cd1fd0a4f28419497f9722a3daafe3b4186f6b6457e060405160405180910390a35050565b60006118ed836000018373ffffffffffffffffffffffffffffffffffffffff1660001b6121f8565b905092915050565b600073ffffffffffffffffffffffffffffffffffffffff168473ffffffffffffffffffffffffffffffffffffffff16036119675760006040517fe602df0500000000000000000000000000000000000000000000000000000000815260040161195e9190612622565b60405180910390fd5b600073ffffffffffffffffffffffffffffffffffffffff168373ffffffffffffffffffffffffffffffffffffffff16036119d95760006040517f94280d620000000000000000000000000000000000000000000000000000000081526004016119d09190612622565b60405180910390fd5b81600160008673ffffffffffffffffffffffffffffffffffffffff1673ffffffffffffffffffffffffffffffffffffffff16815260200190815260200160002060008573ffffffffffffffffffffffffffffffffffffffff1673ffffffffffffffffffffffffffffffffffffffff168152602001908152602001600020819055508015611ac6578273ffffffffffffffffffffffffffffffffffffffff168473ffffffffffffffffffffffffffffffffffffffff167f8c5be1e5ebec7d5bd14f71427d1e84f3dd0314c0f7b2291e5b200ac8c7c3b92584604051611abd9190612482565b60405180910390a35b50505050565b60008083600101600084815260200190815260200160002054905060008114611bd4576000600182611afe919061299a565b9050600060018660000180549050611b16919061299a565b9050808214611b85576000866000018281548110611b3757611b366129ce565b5b9060005260206000200154905080876000018481548110611b5b57611b5a6129ce565b5b90600052602060002001819055508387600101600083815260200190815260200160002081905550505b85600001805480611b9957611b986129fd565b5b600190038181906000526020600020016000905590558560010160008681526020019081526020016000206000905560019350505050611bda565b60009150505b92915050565b600073ffffffffffffffffffffffffffffffffffffffff168373ffffffffffffffffffffffffffffffffffffffff1603611c525760006040517f96c6fd1e000000000000000000000000000000000000000000000000000000008152600401611c499190612622565b60405180910390fd5b600073ffffffffffffffffffffffffffffffffffffffff168273ffffffffffffffffffffffffffffffffffffffff1603611cc45760006040517fec442f05000000000000000000000000000000000000000000000000000000008152600401611cbb9190612622565b60405180910390fd5b611ccf838383611fd3565b505050565b6000806000611ced856006611d7890919063ffffffff16565b90506000611d05876006611d7890919063ffffffff16565b905060008115611d19576009549050611d30565b8215611d2957600a549050611d2f565b600b5490505b5b611d566064611d488389611f7b90919063ffffffff16565b611fbd90919063ffffffff16565b9350611d6b848761226890919063ffffffff16565b9450505050935093915050565b6000611da0836000018373ffffffffffffffffffffffffffffffffffffffff1660001b61228f565b905092915050565b6000600267ffffffffffffffff811115611dc557611dc4612a2c565b5b604051908082528060200260200182016040528015611df35781602001602082028036833780820191505090505b5090503081600081518110611e0b57611e0a6129ce565b5b602002602001019073ffffffffffffffffffffffffffffffffffffffff16908173ffffffffffffffffffffffffffffffffffffffff16815250507f000000000000000000000000000000000000000000000000000000000000000081600181518110611e7a57611e796129ce565b5b602002602001019073ffffffffffffffffffffffffffffffffffffffff16908173ffffffffffffffffffffffffffffffffffffffff1681525050611ee130601560009054906101000a900473ffffffffffffffffffffffffffffffffffffffff1684611181565b601560009054906101000a900473ffffffffffffffffffffffffffffffffffffffff1673ffffffffffffffffffffffffffffffffffffffff1663791ac9478360008430426040518663ffffffff1660e01b8152600401611f45959493929190612b19565b600060405180830381600087803b158015611f5f57600080fd5b505af1158015611f73573d6000803e3d6000fd5b505050505050565b6000808303611f8d5760009050611fb7565b8183611f999190612b73565b9050818382611fa89190612be4565b14611fb657611fb5612c15565b5b5b92915050565b60008183611fcb9190612be4565b905092915050565b600073ffffffffffffffffffffffffffffffffffffffff168373ffffffffffffffffffffffffffffffffffffffff16036120255780600260008282546120199190612c44565b925050819055506120f8565b60008060008573ffffffffffffffffffffffffffffffffffffffff1673ffffffffffffffffffffffffffffffffffffffff168152602001908152602001600020549050818110156120b1578381836040517fe450d38c0000000000000000000000000000000000000000000000000000000081526004016120a8939291906128c8565b60405180910390fd5b8181036000808673ffffffffffffffffffffffffffffffffffffffff1673ffffffffffffffffffffffffffffffffffffffff16815260200190815260200160002081905550505b600073ffffffffffffffffffffffffffffffffffffffff168273ffffffffffffffffffffffffffffffffffffffff1603612141578060026000828254039250508190555061218e565b806000808473ffffffffffffffffffffffffffffffffffffffff1673ffffffffffffffffffffffffffffffffffffffff168152602001908152602001600020600082825401925050819055505b8173ffffffffffffffffffffffffffffffffffffffff168373ffffffffffffffffffffffffffffffffffffffff167fddf252ad1be2c89b69c2b068fc378daa952ba7f163c4a11628f55a4df523b3ef836040516121eb9190612482565b60405180910390a3505050565b6000612204838361228f565b61225d578260000182908060018154018082558091505060019003906000526020600020016000909190919091505582600001805490508360010160008481526020019081526020016000208190555060019050612262565b600090505b92915050565b60008282111561227b5761227a612c15565b5b8183612287919061299a565b905092915050565b600080836001016000848152602001908152602001600020541415905092915050565b600081519050919050565b600082825260208201905092915050565b60005b838110156122ec5780820151818401526020810190506122d1565b60008484015250505050565b6000601f19601f8301169050919050565b6000612314826122b2565b61231e81856122bd565b935061232e8185602086016122ce565b612337816122f8565b840191505092915050565b6000602082019050818103600083015261235c8184612309565b905092915050565b600080fd5b600073ffffffffffffffffffffffffffffffffffffffff82169050919050565b600061239482612369565b9050919050565b6123a481612389565b81146123af57600080fd5b50565b6000813590506123c18161239b565b92915050565b6000819050919050565b6123da816123c7565b81146123e557600080fd5b50565b6000813590506123f7816123d1565b92915050565b6000806040838503121561241457612413612364565b5b6000612422858286016123b2565b9250506020612433858286016123e8565b9150509250929050565b60008115159050919050565b6124528161243d565b82525050565b600060208201905061246d6000830184612449565b92915050565b61247c816123c7565b82525050565b60006020820190506124976000830184612473565b92915050565b6000602082840312156124b3576124b2612364565b5b60006124c1848285016123b2565b91505092915050565b6000806000606084860312156124e3576124e2612364565b5b60006124f1868287016123e8565b9350506020612502868287016123e8565b9250506040612513868287016123e8565b9150509250925092565b60008060006060848603121561253657612535612364565b5b6000612544868287016123b2565b9350506020612555868287016123b2565b9250506040612566868287016123e8565b9150509250925092565b6125798161243d565b811461258457600080fd5b50565b60008135905061259681612570565b92915050565b600080604083850312156125b3576125b2612364565b5b60006125c1858286016123b2565b92505060206125d285828601612587565b9150509250929050565b600060ff82169050919050565b6125f2816125dc565b82525050565b600060208201905061260d60008301846125e9565b92915050565b61261c81612389565b82525050565b60006020820190506126376000830184612613565b92915050565b60006020828403121561265357612652612364565b5b6000612661848285016123e8565b91505092915050565b6000806040838503121561268157612680612364565b5b600061268f858286016123e8565b92505060206126a0858286016123e8565b9150509250929050565b600080604083850312156126c1576126c0612364565b5b60006126cf858286016123b2565b92505060206126e0858286016123b2565b9150509250929050565b6000819050919050565b600061270f61270a61270584612369565b6126ea565b612369565b9050919050565b6000612721826126f4565b9050919050565b600061273382612716565b9050919050565b61274381612728565b82525050565b600060208201905061275e600083018461273a565b92915050565b7f4e487b7100000000000000000000000000000000000000000000000000000000600052602260045260246000fd5b600060028204905060018216806127ab57607f821691505b6020821081036127be576127bd612764565b5b50919050565b6000819050919050565b60006127e96127e46127df846127c4565b6126ea565b6123c7565b9050919050565b6127f9816127ce565b82525050565b600060c0820190506128146000830189612613565b6128216020830188612473565b61282e60408301876127f0565b61283b60608301866127f0565b6128486080830185612613565b61285560a0830184612473565b979650505050505050565b60008151905061286f816123d1565b92915050565b60008060006060848603121561288e5761288d612364565b5b600061289c86828701612860565b93505060206128ad86828701612860565b92505060406128be86828701612860565b9150509250925092565b60006060820190506128dd6000830186612613565b6128ea6020830185612473565b6128f76040830184612473565b949350505050565b7f5458204c696d6974204578636565646564000000000000000000000000000000600082015250565b60006129356011836122bd565b9150612940826128ff565b602082019050919050565b6000602082019050818103600083015261296481612928565b9050919050565b7f4e487b7100000000000000000000000000000000000000000000000000000000600052601160045260246000fd5b60006129a5826123c7565b91506129b0836123c7565b92508282039050818111156129c8576129c761296b565b5b92915050565b7f4e487b7100000000000000000000000000000000000000000000000000000000600052603260045260246000fd5b7f4e487b7100000000000000000000000000000000000000000000000000000000600052603160045260246000fd5b7f4e487b7100000000000000000000000000000000000000000000000000000000600052604160045260246000fd5b600081519050919050565b600082825260208201905092915050565b6000819050602082019050919050565b612a9081612389565b82525050565b6000612aa28383612a87565b60208301905092915050565b6000602082019050919050565b6000612ac682612a5b565b612ad08185612a66565b9350612adb83612a77565b8060005b83811015612b0c578151612af38882612a96565b9750612afe83612aae565b925050600181019050612adf565b5085935050505092915050565b600060a082019050612b2e6000830188612473565b612b3b60208301876127f0565b8181036040830152612b4d8186612abb565b9050612b5c6060830185612613565b612b696080830184612473565b9695505050505050565b6000612b7e826123c7565b9150612b89836123c7565b9250828202612b97816123c7565b91508282048414831517612bae57612bad61296b565b5b5092915050565b7f4e487b7100000000000000000000000000000000000000000000000000000000600052601260045260246000fd5b6000612bef826123c7565b9150612bfa836123c7565b925082612c0a57612c09612bb5565b5b828204905092915050565b7f4e487b7100000000000000000000000000000000000000000000000000000000600052600160045260246000fd5b6000612c4f826123c7565b9150612c5a836123c7565b9250828201905080821115612c7257612c7161296b565b5b9291505056fea264697066735822122036e3002a904b9cfcba660cc6ca92629a5620501497a78d5ed3f8777cb585d8f964736f6c63430008140033",
  "linkReferences": {},
  "deployedLinkReferences": {}
}