{
  "_format": "hh-sol-artifact-1",
  "contractName": "Dextro",
  "sourceName": "contracts/Dextro.sol",
  "abi": [
    {
      "inputs": [],
      "stateMutability": "nonpayable",
      "type": "constructor"
    },
    {
      "anonymous": false,
      "inputs": [
        {
          "indexed": true,
          "internalType": "address",
          "name": "owner",
          "type": "address"
        },
        {
          "indexed": true,
          "internalType": "address",
          "name": "spender",
          "type": "address"
        },
        {
          "indexed": false,
          "internalType": "uint256",
          "name": "value",
          "type": "uint256"
        }
      ],
      "name": "Approval",
      "type": "event"
    },
    {
      "anonymous": false,
      "inputs": [
        {
          "indexed": true,
          "internalType": "address",
          "name": "previousOwner",
          "type": "address"
        },
        {
          "indexed": true,
          "internalType": "address",
          "name": "newOwner",
          "type": "address"
        }
      ],
      "name": "OwnershipTransferred",
      "type": "event"
    },
    {
      "anonymous": false,
      "inputs": [
        {
          "indexed": false,
          "internalType": "uint256",
          "name": "tokensSwapped",
          "type": "uint256"
        },
        {
          "indexed": false,
          "internalType": "uint256",
          "name": "ethReceived",
          "type": "uint256"
        },
        {
          "indexed": false,
          "internalType": "uint256",
          "name": "tokensIntoLiqudity",
          "type": "uint256"
        }
      ],
      "name": "SwapAndLiquify",
      "type": "event"
    },
    {
      "anonymous": false,
      "inputs": [
        {
          "indexed": false,
          "internalType": "bool",
          "name": "enabled",
          "type": "bool"
        }
      ],
      "name": "SwapAndLiquifyEnabledUpdated",
      "type": "event"
    },
    {
      "anonymous": false,
      "inputs": [
        {
          "indexed": true,
          "internalType": "address",
          "name": "from",
          "type": "address"
        },
        {
          "indexed": true,
          "internalType": "address",
          "name": "to",
          "type": "address"
        },
        {
          "indexed": false,
          "internalType": "uint256",
          "name": "value",
          "type": "uint256"
        }
      ],
      "name": "Transfer",
      "type": "event"
    },
    {
      "inputs": [],
      "name": "AirDropStatus",
      "outputs": [
        {
          "internalType": "bool",
          "name": "",
          "type": "bool"
        }
      ],
      "stateMutability": "view",
      "type": "function"
    },
    {
      "inputs": [],
      "name": "TradeStatus",
      "outputs": [
        {
          "internalType": "bool",
          "name": "",
          "type": "bool"
        }
      ],
      "stateMutability": "view",
      "type": "function"
    },
    {
      "inputs": [
        {
          "internalType": "address",
          "name": "holder",
          "type": "address"
        }
      ],
      "name": "addHolder",
      "outputs": [],
      "stateMutability": "nonpayable",
      "type": "function"
    },
    {
      "inputs": [
        {
          "internalType": "address",
          "name": "owner",
          "type": "address"
        },
        {
          "internalType": "address",
          "name": "spender",
          "type": "address"
        }
      ],
      "name": "allowance",
      "outputs": [
        {
          "internalType": "uint256",
          "name": "",
          "type": "uint256"
        }
      ],
      "stateMutability": "view",
      "type": "function"
    },
    {
      "inputs": [
        {
          "internalType": "address",
          "name": "spender",
          "type": "address"
        },
        {
          "internalType": "uint256",
          "name": "amount",
          "type": "uint256"
        }
      ],
      "name": "approve",
      "outputs": [
        {
          "internalType": "bool",
          "name": "",
          "type": "bool"
        }
      ],
      "stateMutability": "nonpayable",
      "type": "function"
    },
    {
      "inputs": [
        {
          "internalType": "bool",
          "name": "status",
          "type": "bool"
        }
      ],
      "name": "availableTradnig",
      "outputs": [],
      "stateMutability": "nonpayable",
      "type": "function"
    },
    {
      "inputs": [
        {
          "internalType": "address",
          "name": "account",
          "type": "address"
        }
      ],
      "name": "balanceOf",
      "outputs": [
        {
          "internalType": "uint256",
          "name": "",
          "type": "uint256"
        }
      ],
      "stateMutability": "view",
      "type": "function"
    },
    {
      "inputs": [],
      "name": "decimals",
      "outputs": [
        {
          "internalType": "uint8",
          "name": "",
          "type": "uint8"
        }
      ],
      "stateMutability": "view",
      "type": "function"
    },
    {
      "inputs": [
        {
          "internalType": "address",
          "name": "spender",
          "type": "address"
        },
        {
          "internalType": "uint256",
          "name": "subtractedValue",
          "type": "uint256"
        }
      ],
      "name": "decreaseAllowance",
      "outputs": [
        {
          "internalType": "bool",
          "name": "",
          "type": "bool"
        }
      ],
      "stateMutability": "nonpayable",
      "type": "function"
    },
    {
      "inputs": [],
      "name": "inSwapAndLiquify",
      "outputs": [
        {
          "internalType": "bool",
          "name": "",
          "type": "bool"
        }
      ],
      "stateMutability": "view",
      "type": "function"
    },
    {
      "inputs": [
        {
          "internalType": "address",
          "name": "spender",
          "type": "address"
        },
        {
          "internalType": "uint256",
          "name": "addedValue",
          "type": "uint256"
        }
      ],
      "name": "increaseAllowance",
      "outputs": [
        {
          "internalType": "bool",
          "name": "",
          "type": "bool"
        }
      ],
      "stateMutability": "nonpayable",
      "type": "function"
    },
    {
      "inputs": [],
      "name": "name",
      "outputs": [
        {
          "internalType": "string",
          "name": "",
          "type": "string"
        }
      ],
      "stateMutability": "view",
      "type": "function"
    },
    {
      "inputs": [],
      "name": "owner",
      "outputs": [
        {
          "internalType": "address",
          "name": "",
          "type": "address"
        }
      ],
      "stateMutability": "view",
      "type": "function"
    },
    {
      "inputs": [
        {
          "internalType": "address",
          "name": "holder",
          "type": "address"
        }
      ],
      "name": "removeHolder",
      "outputs": [],
      "stateMutability": "nonpayable",
      "type": "function"
    },
    {
      "inputs": [
        {
          "internalType": "address",
          "name": "random_Token_Address",
          "type": "address"
        },
        {
          "internalType": "address",
          "name": "send_to_wallet",
          "type": "address"
        },
        {
          "internalType": "uint256",
          "name": "number_of_tokens",
          "type": "uint256"
        }
      ],
      "name": "remove_Random_Tokens",
      "outputs": [
        {
          "internalType": "bool",
          "name": "_sent",
          "type": "bool"
        }
      ],
      "stateMutability": "nonpayable",
      "type": "function"
    },
    {
      "inputs": [],
      "name": "renounceOwnership",
      "outputs": [],
      "stateMutability": "nonpayable",
      "type": "function"
    },
    {
      "inputs": [
        {
          "internalType": "bool",
          "name": "status",
          "type": "bool"
        }
      ],
      "name": "startAirDrop",
      "outputs": [],
      "stateMutability": "nonpayable",
      "type": "function"
    },
    {
      "inputs": [],
      "name": "swapAndLiquifyEnabled",
      "outputs": [
        {
          "internalType": "bool",
          "name": "",
          "type": "bool"
        }
      ],
      "stateMutability": "view",
      "type": "function"
    },
    {
      "inputs": [],
      "name": "symbol",
      "outputs": [
        {
          "internalType": "string",
          "name": "",
          "type": "string"
        }
      ],
      "stateMutability": "view",
      "type": "function"
    },
    {
      "inputs": [],
      "name": "totalSupply",
      "outputs": [
        {
          "internalType": "uint256",
          "name": "",
          "type": "uint256"
        }
      ],
      "stateMutability": "view",
      "type": "function"
    },
    {
      "inputs": [
        {
          "internalType": "address",
          "name": "recipient",
          "type": "address"
        },
        {
          "internalType": "uint256",
          "name": "amount",
          "type": "uint256"
        }
      ],
      "name": "transfer",
      "outputs": [
        {
          "internalType": "bool",
          "name": "",
          "type": "bool"
        }
      ],
      "stateMutability": "nonpayable",
      "type": "function"
    },
    {
      "inputs": [
        {
          "internalType": "address",
          "name": "sender",
          "type": "address"
        },
        {
          "internalType": "address",
          "name": "recipient",
          "type": "address"
        },
        {
          "internalType": "uint256",
          "name": "amount",
          "type": "uint256"
        }
      ],
      "name": "transferFrom",
      "outputs": [
        {
          "internalType": "bool",
          "name": "",
          "type": "bool"
        }
      ],
      "stateMutability": "nonpayable",
      "type": "function"
    },
    {
      "inputs": [
        {
          "internalType": "address",
          "name": "newOwner",
          "type": "address"
        }
      ],
      "name": "transferOwnership",
      "outputs": [],
      "stateMutability": "nonpayable",
      "type": "function"
    },
    {
      "inputs": [],
      "name": "uniswapV2Pair",
      "outputs": [
        {
          "internalType": "address",
          "name": "",
          "type": "address"
        }
      ],
      "stateMutability": "view",
      "type": "function"
    },
    {
      "inputs": [],
      "name": "uniswapV2Router",
      "outputs": [
        {
          "internalType": "contract IUniswapV2Router02",
          "name": "",
          "type": "address"
        }
      ],
      "stateMutability": "view",
      "type": "function"
    },
    {
      "stateMutability": "payable",
      "type": "receive"
    }
  ],
  "bytecode": "0x60806040526040518060400160405280600681526020017f44657874726f0000000000000000000000000000000000000000000000000000815250600490816200004a9190620007f4565b506040518060400160405280600381526020017f445854000000000000000000000000000000000000000000000000000000000081525060059081620000919190620007f4565b506012600660006101000a81548160ff021916908360ff160217905550600660009054906101000a900460ff16600a620000cc919062000a6b565b6305f5e100620000dd919062000abc565b6007556001600860006101000a81548160ff0219169083151502179055506001600860016101000a81548160ff0219169083151502179055506000600860026101000a81548160ff021916908360ff1602179055506001600960156101000a81548160ff0219169083151502179055503480156200015a57600080fd5b50336000806101000a81548173ffffffffffffffffffffffffffffffffffffffff021916908373ffffffffffffffffffffffffffffffffffffffff16021790555060008054906101000a900473ffffffffffffffffffffffffffffffffffffffff1673ffffffffffffffffffffffffffffffffffffffff16600073ffffffffffffffffffffffffffffffffffffffff167f8be0079c531659141344cd1fd0a4f28419497f9722a3daafe3b4186f6b6457e060405160405180910390a3600754600160006200022d6200055160201b60201c565b73ffffffffffffffffffffffffffffffffffffffff1673ffffffffffffffffffffffffffffffffffffffff1681526020019081526020016000208190555060007310ed43c718714eb63d5aa57b78b54704e256024e90508073ffffffffffffffffffffffffffffffffffffffff1663c45a01556040518163ffffffff1660e01b8152600401602060405180830381865afa158015620002d0573d6000803e3d6000fd5b505050506040513d601f19601f82011682018060405250810190620002f6919062000b71565b73ffffffffffffffffffffffffffffffffffffffff1663c9c653968273ffffffffffffffffffffffffffffffffffffffff1663ad5c46486040518163ffffffff1660e01b8152600401602060405180830381865afa1580156200035d573d6000803e3d6000fd5b505050506040513d601f19601f8201168201806040525081019062000383919062000b71565b306040518363ffffffff1660e01b8152600401620003a392919062000bb4565b6020604051808303816000875af1158015620003c3573d6000803e3d6000fd5b505050506040513d601f19601f82011682018060405250810190620003e9919062000b71565b600960006101000a81548173ffffffffffffffffffffffffffffffffffffffff021916908373ffffffffffffffffffffffffffffffffffffffff16021790555080600860036101000a81548173ffffffffffffffffffffffffffffffffffffffff021916908373ffffffffffffffffffffffffffffffffffffffff160217905550600160026000620004806200055160201b60201c565b73ffffffffffffffffffffffffffffffffffffffff1673ffffffffffffffffffffffffffffffffffffffff16815260200190815260200160002060006101000a81548160ff021916908315150217905550620004e16200055160201b60201c565b73ffffffffffffffffffffffffffffffffffffffff16600073ffffffffffffffffffffffffffffffffffffffff167fddf252ad1be2c89b69c2b068fc378daa952ba7f163c4a11628f55a4df523b3ef60075460405162000542919062000bf2565b60405180910390a35062000c0f565b60008060009054906101000a900473ffffffffffffffffffffffffffffffffffffffff16905090565b600081519050919050565b7f4e487b7100000000000000000000000000000000000000000000000000000000600052604160045260246000fd5b7f4e487b7100000000000000000000000000000000000000000000000000000000600052602260045260246000fd5b60006002820490506001821680620005fc57607f821691505b602082108103620006125762000611620005b4565b5b50919050565b60008190508160005260206000209050919050565b60006020601f8301049050919050565b600082821b905092915050565b6000600883026200067c7fffffffffffffffffffffffffffffffffffffffffffffffffffffffffffffffff826200063d565b6200068886836200063d565b95508019841693508086168417925050509392505050565b6000819050919050565b6000819050919050565b6000620006d5620006cf620006c984620006a0565b620006aa565b620006a0565b9050919050565b6000819050919050565b620006f183620006b4565b620007096200070082620006dc565b8484546200064a565b825550505050565b600090565b6200072062000711565b6200072d818484620006e6565b505050565b5b8181101562000755576200074960008262000716565b60018101905062000733565b5050565b601f821115620007a4576200076e8162000618565b62000779846200062d565b8101602085101562000789578190505b620007a162000798856200062d565b83018262000732565b50505b505050565b600082821c905092915050565b6000620007c960001984600802620007a9565b1980831691505092915050565b6000620007e48383620007b6565b9150826002028217905092915050565b620007ff826200057a565b67ffffffffffffffff8111156200081b576200081a62000585565b5b620008278254620005e3565b6200083482828562000759565b600060209050601f8311600181146200086c576000841562000857578287015190505b620008638582620007d6565b865550620008d3565b601f1984166200087c8662000618565b60005b82811015620008a6578489015182556001820191506020850194506020810190506200087f565b86831015620008c65784890151620008c2601f891682620007b6565b8355505b6001600288020188555050505b505050505050565b7f4e487b7100000000000000000000000000000000000000000000000000000000600052601160045260246000fd5b60008160011c9050919050565b6000808291508390505b60018511156200096957808604811115620009415762000940620008db565b5b6001851615620009515780820291505b808102905062000961856200090a565b945062000921565b94509492505050565b60008262000984576001905062000a57565b8162000994576000905062000a57565b8160018114620009ad5760028114620009b857620009ee565b600191505062000a57565b60ff841115620009cd57620009cc620008db565b5b8360020a915084821115620009e757620009e6620008db565b5b5062000a57565b5060208310610133831016604e8410600b841016171562000a285782820a90508381111562000a225762000a21620008db565b5b62000a57565b62000a37848484600162000917565b9250905081840481111562000a515762000a50620008db565b5b81810290505b9392505050565b600060ff82169050919050565b600062000a7882620006a0565b915062000a858362000a5e565b925062000ab47fffffffffffffffffffffffffffffffffffffffffffffffffffffffffffffffff848462000972565b905092915050565b600062000ac982620006a0565b915062000ad683620006a0565b925082820262000ae681620006a0565b9150828204841483151762000b005762000aff620008db565b5b5092915050565b600080fd5b600073ffffffffffffffffffffffffffffffffffffffff82169050919050565b600062000b398262000b0c565b9050919050565b62000b4b8162000b2c565b811462000b5757600080fd5b50565b60008151905062000b6b8162000b40565b92915050565b60006020828403121562000b8a5762000b8962000b07565b5b600062000b9a8482850162000b5a565b91505092915050565b62000bae8162000b2c565b82525050565b600060408201905062000bcb600083018562000ba3565b62000bda602083018462000ba3565b9392505050565b62000bec81620006a0565b82525050565b600060208201905062000c09600083018462000be1565b92915050565b6123db8062000c1f6000396000f3fe60806040526004361061016a5760003560e01c8063715018a6116100d1578063a457c2d71161008a578063cdcf9bc811610064578063cdcf9bc814610563578063d5fb9ce71461058c578063dd62ed3e146105b5578063f2fde38b146105f257610171565b8063a457c2d7146104c0578063a9059cbb146104fd578063ac1e17df1461053a57610171565b8063715018a6146103d457806385f0d3ca146103eb5780638da5cb5b146104165780638dd428081461044157806395d89b411461046a578063a426e08e1461049557610171565b8063313ce56711610123578063313ce5671461029c5780633343ab83146102c7578063395093511461030457806349bd5a5e146103415780634a74bb021461036c57806370a082311461039757610171565b806306fdde0314610176578063095ea7b3146101a15780631694505e146101de57806318160ddd14610209578063220f66961461023457806323b872dd1461025f57610171565b3661017157005b600080fd5b34801561018257600080fd5b5061018b61061b565b6040516101989190611af6565b60405180910390f35b3480156101ad57600080fd5b506101c860048036038101906101c39190611bb1565b6106ad565b6040516101d59190611c0c565b60405180910390f35b3480156101ea57600080fd5b506101f36106cb565b6040516102009190611c86565b60405180910390f35b34801561021557600080fd5b5061021e6106f1565b60405161022b9190611cb0565b60405180910390f35b34801561024057600080fd5b506102496106fb565b6040516102569190611c0c565b60405180910390f35b34801561026b57600080fd5b5061028660048036038101906102819190611ccb565b61070e565b6040516102939190611c0c565b60405180910390f35b3480156102a857600080fd5b506102b16107e7565b6040516102be9190611d3a565b60405180910390f35b3480156102d357600080fd5b506102ee60048036038101906102e99190611ccb565b6107fe565b6040516102fb9190611c0c565b60405180910390f35b34801561031057600080fd5b5061032b60048036038101906103269190611bb1565b6109fc565b6040516103389190611c0c565b60405180910390f35b34801561034d57600080fd5b50610356610aaf565b6040516103639190611d64565b60405180910390f35b34801561037857600080fd5b50610381610ad5565b60405161038e9190611c0c565b60405180910390f35b3480156103a357600080fd5b506103be60048036038101906103b99190611d7f565b610ae8565b6040516103cb9190611cb0565b60405180910390f35b3480156103e057600080fd5b506103e9610b31565b005b3480156103f757600080fd5b50610400610c6b565b60405161040d9190611c0c565b60405180910390f35b34801561042257600080fd5b5061042b610c7e565b6040516104389190611d64565b60405180910390f35b34801561044d57600080fd5b5061046860048036038101906104639190611d7f565b610ca7565b005b34801561047657600080fd5b5061047f610e0a565b60405161048c9190611af6565b60405180910390f35b3480156104a157600080fd5b506104aa610e9c565b6040516104b79190611c0c565b60405180910390f35b3480156104cc57600080fd5b506104e760048036038101906104e29190611bb1565b610eaf565b6040516104f49190611c0c565b60405180910390f35b34801561050957600080fd5b50610524600480360381019061051f9190611bb1565b610f7c565b6040516105319190611c0c565b60405180910390f35b34801561054657600080fd5b50610561600480360381019061055c9190611d7f565b610f9a565b005b34801561056f57600080fd5b5061058a60048036038101906105859190611dd8565b6110fe565b005b34801561059857600080fd5b506105b360048036038101906105ae9190611dd8565b611197565b005b3480156105c157600080fd5b506105dc60048036038101906105d79190611e05565b611230565b6040516105e99190611cb0565b60405180910390f35b3480156105fe57600080fd5b5061061960048036038101906106149190611d7f565b6112b7565b005b60606004805461062a90611e74565b80601f016020809104026020016040519081016040528092919081815260200182805461065690611e74565b80156106a35780601f10610678576101008083540402835291602001916106a3565b820191906000526020600020905b81548152906001019060200180831161068657829003601f168201915b5050505050905090565b60006106c16106ba61145f565b8484611467565b6001905092915050565b600860039054906101000a900473ffffffffffffffffffffffffffffffffffffffff1681565b6000600754905090565b600960149054906101000a900460ff1681565b600061071b8484846115fb565b6107dc8461072761145f565b6107d78560405180606001604052806028815260200161235960289139600360008b73ffffffffffffffffffffffffffffffffffffffff1673ffffffffffffffffffffffffffffffffffffffff168152602001908152602001600020600061078d61145f565b73ffffffffffffffffffffffffffffffffffffffff1673ffffffffffffffffffffffffffffffffffffffff168152602001908152602001600020546118419092919063ffffffff16565b611467565b600190509392505050565b6000600660009054906101000a900460ff16905090565b600061080861145f565b73ffffffffffffffffffffffffffffffffffffffff16610826610c7e565b73ffffffffffffffffffffffffffffffffffffffff161461087c576040517f08c379a000000000000000000000000000000000000000000000000000000000815260040161087390611ef1565b60405180910390fd5b3073ffffffffffffffffffffffffffffffffffffffff168473ffffffffffffffffffffffffffffffffffffffff16036108ea576040517f08c379a00000000000000000000000000000000000000000000000000000000081526004016108e190611f5d565b60405180910390fd5b60008473ffffffffffffffffffffffffffffffffffffffff166370a08231306040518263ffffffff1660e01b81526004016109259190611d64565b602060405180830381865afa158015610942573d6000803e3d6000fd5b505050506040513d601f19601f820116820180604052508101906109669190611f92565b905080831115610974578092505b8473ffffffffffffffffffffffffffffffffffffffff1663a9059cbb85856040518363ffffffff1660e01b81526004016109af929190611fbf565b6020604051808303816000875af11580156109ce573d6000803e3d6000fd5b505050506040513d601f19601f820116820180604052508101906109f29190611ffd565b9150509392505050565b6000610aa5610a0961145f565b84610aa08560036000610a1a61145f565b73ffffffffffffffffffffffffffffffffffffffff1673ffffffffffffffffffffffffffffffffffffffff16815260200190815260200160002060008973ffffffffffffffffffffffffffffffffffffffff1673ffffffffffffffffffffffffffffffffffffffff1681526020019081526020016000205461189690919063ffffffff16565b611467565b6001905092915050565b600960009054906101000a900473ffffffffffffffffffffffffffffffffffffffff1681565b600960159054906101000a900460ff1681565b6000600160008373ffffffffffffffffffffffffffffffffffffffff1673ffffffffffffffffffffffffffffffffffffffff168152602001908152602001600020549050919050565b610b3961145f565b73ffffffffffffffffffffffffffffffffffffffff16610b57610c7e565b73ffffffffffffffffffffffffffffffffffffffff1614610bad576040517f08c379a0000000000000000000000000000000000000000000000000000000008152600401610ba490611ef1565b60405180910390fd5b600073ffffffffffffffffffffffffffffffffffffffff1660008054906101000a900473ffffffffffffffffffffffffffffffffffffffff1673ffffffffffffffffffffffffffffffffffffffff167f8be0079c531659141344cd1fd0a4f28419497f9722a3daafe3b4186f6b6457e060405160405180910390a360008060006101000a81548173ffffffffffffffffffffffffffffffffffffffff021916908373ffffffffffffffffffffffffffffffffffffffff160217905550565b600860019054906101000a900460ff1681565b60008060009054906101000a900473ffffffffffffffffffffffffffffffffffffffff16905090565b610caf61145f565b73ffffffffffffffffffffffffffffffffffffffff16610ccd610c7e565b73ffffffffffffffffffffffffffffffffffffffff1614610d23576040517f08c379a0000000000000000000000000000000000000000000000000000000008152600401610d1a90611ef1565b60405180910390fd5b600073ffffffffffffffffffffffffffffffffffffffff168173ffffffffffffffffffffffffffffffffffffffff1614158015610da95750600260008273ffffffffffffffffffffffffffffffffffffffff1673ffffffffffffffffffffffffffffffffffffffff16815260200190815260200160002060009054906101000a900460ff165b15610e07576000600260008373ffffffffffffffffffffffffffffffffffffffff1673ffffffffffffffffffffffffffffffffffffffff16815260200190815260200160002060006101000a81548160ff0219169083151502179055505b50565b606060058054610e1990611e74565b80601f0160208091040260200160405190810160405280929190818152602001828054610e4590611e74565b8015610e925780601f10610e6757610100808354040283529160200191610e92565b820191906000526020600020905b815481529060010190602001808311610e7557829003601f168201915b5050505050905090565b600860009054906101000a900460ff1681565b6000610f72610ebc61145f565b84610f6d856040518060600160405280602581526020016123816025913960036000610ee661145f565b73ffffffffffffffffffffffffffffffffffffffff1673ffffffffffffffffffffffffffffffffffffffff16815260200190815260200160002060008a73ffffffffffffffffffffffffffffffffffffffff1673ffffffffffffffffffffffffffffffffffffffff168152602001908152602001600020546118419092919063ffffffff16565b611467565b6001905092915050565b6000610f90610f8961145f565b84846115fb565b6001905092915050565b610fa261145f565b73ffffffffffffffffffffffffffffffffffffffff16610fc0610c7e565b73ffffffffffffffffffffffffffffffffffffffff1614611016576040517f08c379a000000000000000000000000000000000000000000000000000000000815260040161100d90611ef1565b60405180910390fd5b600073ffffffffffffffffffffffffffffffffffffffff168173ffffffffffffffffffffffffffffffffffffffff161415801561109d5750600260008273ffffffffffffffffffffffffffffffffffffffff1673ffffffffffffffffffffffffffffffffffffffff16815260200190815260200160002060009054906101000a900460ff16155b156110fb576001600260008373ffffffffffffffffffffffffffffffffffffffff1673ffffffffffffffffffffffffffffffffffffffff16815260200190815260200160002060006101000a81548160ff0219169083151502179055505b50565b61110661145f565b73ffffffffffffffffffffffffffffffffffffffff16611124610c7e565b73ffffffffffffffffffffffffffffffffffffffff161461117a576040517f08c379a000000000000000000000000000000000000000000000000000000000815260040161117190611ef1565b60405180910390fd5b80600860006101000a81548160ff02191690831515021790555050565b61119f61145f565b73ffffffffffffffffffffffffffffffffffffffff166111bd610c7e565b73ffffffffffffffffffffffffffffffffffffffff1614611213576040517f08c379a000000000000000000000000000000000000000000000000000000000815260040161120a90611ef1565b60405180910390fd5b80600860016101000a81548160ff02191690831515021790555050565b6000600360008473ffffffffffffffffffffffffffffffffffffffff1673ffffffffffffffffffffffffffffffffffffffff16815260200190815260200160002060008373ffffffffffffffffffffffffffffffffffffffff1673ffffffffffffffffffffffffffffffffffffffff16815260200190815260200160002054905092915050565b6112bf61145f565b73ffffffffffffffffffffffffffffffffffffffff166112dd610c7e565b73ffffffffffffffffffffffffffffffffffffffff1614611333576040517f08c379a000000000000000000000000000000000000000000000000000000000815260040161132a90611ef1565b60405180910390fd5b600073ffffffffffffffffffffffffffffffffffffffff168173ffffffffffffffffffffffffffffffffffffffff16036113a2576040517f08c379a00000000000000000000000000000000000000000000000000000000081526004016113999061209c565b60405180910390fd5b8073ffffffffffffffffffffffffffffffffffffffff1660008054906101000a900473ffffffffffffffffffffffffffffffffffffffff1673ffffffffffffffffffffffffffffffffffffffff167f8be0079c531659141344cd1fd0a4f28419497f9722a3daafe3b4186f6b6457e060405160405180910390a3806000806101000a81548173ffffffffffffffffffffffffffffffffffffffff021916908373ffffffffffffffffffffffffffffffffffffffff16021790555050565b600033905090565b600073ffffffffffffffffffffffffffffffffffffffff168373ffffffffffffffffffffffffffffffffffffffff16141580156114d15750600073ffffffffffffffffffffffffffffffffffffffff168273ffffffffffffffffffffffffffffffffffffffff1614155b611510576040517f08c379a000000000000000000000000000000000000000000000000000000000815260040161150790612108565b60405180910390fd5b80600360008573ffffffffffffffffffffffffffffffffffffffff1673ffffffffffffffffffffffffffffffffffffffff16815260200190815260200160002060008473ffffffffffffffffffffffffffffffffffffffff1673ffffffffffffffffffffffffffffffffffffffff168152602001908152602001600020819055508173ffffffffffffffffffffffffffffffffffffffff168373ffffffffffffffffffffffffffffffffffffffff167f8c5be1e5ebec7d5bd14f71427d1e84f3dd0314c0f7b2291e5b200ac8c7c3b925836040516115ee9190611cb0565b60405180910390a3505050565b600860009054906101000a900460ff1661164a576040517f08c379a000000000000000000000000000000000000000000000000000000000815260040161164190612174565b60405180910390fd5b600073ffffffffffffffffffffffffffffffffffffffff168373ffffffffffffffffffffffffffffffffffffffff16141580156116b45750600073ffffffffffffffffffffffffffffffffffffffff168273ffffffffffffffffffffffffffffffffffffffff1614155b6116f3576040517f08c379a00000000000000000000000000000000000000000000000000000000081526004016116ea906121e0565b60405180910390fd5b60008111611736576040517f08c379a000000000000000000000000000000000000000000000000000000000815260040161172d90612272565b60405180910390fd5b7fffffffffffffffffffffffffffffffffffffffffffffffffffffffffffffffff810361176657611765612292565b5b600860019054906101000a900460ff1615806118245750600960009054906101000a900473ffffffffffffffffffffffffffffffffffffffff1673ffffffffffffffffffffffffffffffffffffffff168273ffffffffffffffffffffffffffffffffffffffff161415806118235750600260008473ffffffffffffffffffffffffffffffffffffffff1673ffffffffffffffffffffffffffffffffffffffff16815260200190815260200160002060009054906101000a900460ff165b5b61183157611830612292565b5b61183c8383836118ac565b505050565b6000838311158290611889576040517f08c379a00000000000000000000000000000000000000000000000000000000081526004016118809190611af6565b60405180910390fd5b5082840390509392505050565b600081836118a491906122f0565b905092915050565b6118b78383836118bc565b505050565b61190e81600160008673ffffffffffffffffffffffffffffffffffffffff1673ffffffffffffffffffffffffffffffffffffffff16815260200190815260200160002054611a5090919063ffffffff16565b600160008573ffffffffffffffffffffffffffffffffffffffff1673ffffffffffffffffffffffffffffffffffffffff168152602001908152602001600020819055506119a381600160008573ffffffffffffffffffffffffffffffffffffffff1673ffffffffffffffffffffffffffffffffffffffff1681526020019081526020016000205461189690919063ffffffff16565b600160008473ffffffffffffffffffffffffffffffffffffffff1673ffffffffffffffffffffffffffffffffffffffff168152602001908152602001600020819055508173ffffffffffffffffffffffffffffffffffffffff168373ffffffffffffffffffffffffffffffffffffffff167fddf252ad1be2c89b69c2b068fc378daa952ba7f163c4a11628f55a4df523b3ef83604051611a439190611cb0565b60405180910390a3505050565b60008183611a5e9190612324565b905092915050565b600081519050919050565b600082825260208201905092915050565b60005b83811015611aa0578082015181840152602081019050611a85565b60008484015250505050565b6000601f19601f8301169050919050565b6000611ac882611a66565b611ad28185611a71565b9350611ae2818560208601611a82565b611aeb81611aac565b840191505092915050565b60006020820190508181036000830152611b108184611abd565b905092915050565b600080fd5b600073ffffffffffffffffffffffffffffffffffffffff82169050919050565b6000611b4882611b1d565b9050919050565b611b5881611b3d565b8114611b6357600080fd5b50565b600081359050611b7581611b4f565b92915050565b6000819050919050565b611b8e81611b7b565b8114611b9957600080fd5b50565b600081359050611bab81611b85565b92915050565b60008060408385031215611bc857611bc7611b18565b5b6000611bd685828601611b66565b9250506020611be785828601611b9c565b9150509250929050565b60008115159050919050565b611c0681611bf1565b82525050565b6000602082019050611c216000830184611bfd565b92915050565b6000819050919050565b6000611c4c611c47611c4284611b1d565b611c27565b611b1d565b9050919050565b6000611c5e82611c31565b9050919050565b6000611c7082611c53565b9050919050565b611c8081611c65565b82525050565b6000602082019050611c9b6000830184611c77565b92915050565b611caa81611b7b565b82525050565b6000602082019050611cc56000830184611ca1565b92915050565b600080600060608486031215611ce457611ce3611b18565b5b6000611cf286828701611b66565b9350506020611d0386828701611b66565b9250506040611d1486828701611b9c565b9150509250925092565b600060ff82169050919050565b611d3481611d1e565b82525050565b6000602082019050611d4f6000830184611d2b565b92915050565b611d5e81611b3d565b82525050565b6000602082019050611d796000830184611d55565b92915050565b600060208284031215611d9557611d94611b18565b5b6000611da384828501611b66565b91505092915050565b611db581611bf1565b8114611dc057600080fd5b50565b600081359050611dd281611dac565b92915050565b600060208284031215611dee57611ded611b18565b5b6000611dfc84828501611dc3565b91505092915050565b60008060408385031215611e1c57611e1b611b18565b5b6000611e2a85828601611b66565b9250506020611e3b85828601611b66565b9150509250929050565b7f4e487b7100000000000000000000000000000000000000000000000000000000600052602260045260246000fd5b60006002820490506001821680611e8c57607f821691505b602082108103611e9f57611e9e611e45565b5b50919050565b7f4f776e61626c653a2063616c6c6572206973206e6f7420746865206f776e6572600082015250565b6000611edb602083611a71565b9150611ee682611ea5565b602082019050919050565b60006020820190508181036000830152611f0a81611ece565b9050919050565b7f43616e206e6f742072656d6f7665206e617469766520746f6b656e0000000000600082015250565b6000611f47601b83611a71565b9150611f5282611f11565b602082019050919050565b60006020820190508181036000830152611f7681611f3a565b9050919050565b600081519050611f8c81611b85565b92915050565b600060208284031215611fa857611fa7611b18565b5b6000611fb684828501611f7d565b91505092915050565b6000604082019050611fd46000830185611d55565b611fe16020830184611ca1565b9392505050565b600081519050611ff781611dac565b92915050565b60006020828403121561201357612012611b18565b5b600061202184828501611fe8565b91505092915050565b7f4f776e61626c653a206e6577206f776e657220697320746865207a65726f206160008201527f6464726573730000000000000000000000000000000000000000000000000000602082015250565b6000612086602683611a71565b91506120918261202a565b604082019050919050565b600060208201905081810360008301526120b581612079565b9050919050565b7f4552523a207a65726f2061646472657373000000000000000000000000000000600082015250565b60006120f2601183611a71565b91506120fd826120bc565b602082019050919050565b60006020820190508181036000830152612121816120e5565b9050919050565b7f54726164696e67206973206e6f74206176616c69626c65206e6f772100000000600082015250565b600061215e601c83611a71565b915061216982612128565b602082019050919050565b6000602082019050818103600083015261218d81612151565b9050919050565b7f4552523a205573696e6720302061646472657373210000000000000000000000600082015250565b60006121ca601583611a71565b91506121d582612194565b602082019050919050565b600060208201905081810360008301526121f9816121bd565b9050919050565b7f546f6b656e2076616c7565206d75737420626520686967686572207468616e2060008201527f7a65726f2e000000000000000000000000000000000000000000000000000000602082015250565b600061225c602583611a71565b915061226782612200565b604082019050919050565b6000602082019050818103600083015261228b8161224f565b9050919050565b7f4e487b7100000000000000000000000000000000000000000000000000000000600052600160045260246000fd5b7f4e487b7100000000000000000000000000000000000000000000000000000000600052601160045260246000fd5b60006122fb82611b7b565b915061230683611b7b565b925082820190508082111561231e5761231d6122c1565b5b92915050565b600061232f82611b7b565b915061233a83611b7b565b9250828203905081811115612352576123516122c1565b5b9291505056fe45524332303a207472616e7366657220616d6f756e74206578636565647320616c6c6f77616e636545524332303a2064656372656173656420616c6c6f77616e63652062656c6f77207a65726fa26469706673582212202be75a46171f480a1aad0bacb16f15549166fd2c915be7e17c851a79fa75920c64736f6c63430008140033",
  "linkReferences": {},
  "deployedLinkReferences": {}
}