{
  "_format": "hh-sol-artifact-1",
  "contractName": "GuessFootBallHero",
  "sourceName": "contracts/FRDGuessFootBallHero.sol",
  "abi": [
    {
      "inputs": [
        {
          "internalType": "address",
          "name": "_FifaRewardTokenAddress",
          "type": "address"
        }
      ],
      "stateMutability": "nonpayable",
      "type": "constructor"
    },
    {
      "inputs": [],
      "name": "ReentrancyGuardReentrantCall",
      "type": "error"
    },
    {
      "anonymous": false,
      "inputs": [
        {
          "indexed": true,
          "internalType": "uint256",
          "name": "Id",
          "type": "uint256"
        },
        {
          "indexed": true,
          "internalType": "uint256",
          "name": "gameId",
          "type": "uint256"
        },
        {
          "indexed": true,
          "internalType": "address",
          "name": "walletaddress",
          "type": "address"
        },
        {
          "indexed": false,
          "internalType": "uint256",
          "name": "amount",
          "type": "uint256"
        }
      ],
      "name": "GamePlayed",
      "type": "event"
    },
    {
      "inputs": [],
      "name": "FifaRewardTokenContract",
      "outputs": [
        {
          "internalType": "contract IERC20",
          "name": "",
          "type": "address"
        }
      ],
      "stateMutability": "view",
      "type": "function"
    },
    {
      "inputs": [
        {
          "internalType": "uint256",
          "name": "gameId",
          "type": "uint256"
        },
        {
          "internalType": "uint256",
          "name": "amount",
          "type": "uint256"
        },
        {
          "internalType": "uint256",
          "name": "level",
          "type": "uint256"
        },
        {
          "internalType": "uint256",
          "name": "played",
          "type": "uint256"
        },
        {
          "internalType": "uint256",
          "name": "remaining",
          "type": "uint256"
        },
        {
          "internalType": "uint256",
          "name": "wins",
          "type": "uint256"
        },
        {
          "internalType": "string[]",
          "name": "hint",
          "type": "string[]"
        }
      ],
      "name": "Play",
      "outputs": [],
      "stateMutability": "nonpayable",
      "type": "function"
    },
    {
      "inputs": [],
      "name": "adminwallet",
      "outputs": [
        {
          "internalType": "address",
          "name": "",
          "type": "address"
        }
      ],
      "stateMutability": "view",
      "type": "function"
    },
    {
      "inputs": [],
      "name": "getContractBalance",
      "outputs": [
        {
          "internalType": "uint256",
          "name": "",
          "type": "uint256"
        }
      ],
      "stateMutability": "view",
      "type": "function"
    },
    {
      "inputs": [],
      "name": "getContractTokenBalance",
      "outputs": [
        {
          "internalType": "uint256",
          "name": "",
          "type": "uint256"
        }
      ],
      "stateMutability": "view",
      "type": "function"
    },
    {
      "inputs": [],
      "name": "getLeaderboard",
      "outputs": [
        {
          "components": [
            {
              "internalType": "address",
              "name": "walletaddress",
              "type": "address"
            },
            {
              "internalType": "uint256",
              "name": "amountplayed",
              "type": "uint256"
            },
            {
              "internalType": "uint256",
              "name": "rewardamount",
              "type": "uint256"
            }
          ],
          "internalType": "struct GuessFootBallHero.LeaderboardEntry[]",
          "name": "",
          "type": "tuple[]"
        }
      ],
      "stateMutability": "view",
      "type": "function"
    },
    {
      "inputs": [],
      "name": "getOwner",
      "outputs": [
        {
          "internalType": "address",
          "name": "",
          "type": "address"
        }
      ],
      "stateMutability": "view",
      "type": "function"
    },
    {
      "inputs": [
        {
          "internalType": "address",
          "name": "_useraddress",
          "type": "address"
        }
      ],
      "name": "getWalletGameCount",
      "outputs": [
        {
          "internalType": "uint256",
          "name": "",
          "type": "uint256"
        }
      ],
      "stateMutability": "view",
      "type": "function"
    },
    {
      "inputs": [],
      "name": "loadGames",
      "outputs": [
        {
          "components": [
            {
              "internalType": "uint256",
              "name": "Id",
              "type": "uint256"
            },
            {
              "internalType": "uint256",
              "name": "gameId",
              "type": "uint256"
            },
            {
              "internalType": "uint256",
              "name": "amountplayed",
              "type": "uint256"
            },
            {
              "internalType": "uint256",
              "name": "rewardamount",
              "type": "uint256"
            },
            {
              "internalType": "uint256",
              "name": "time",
              "type": "uint256"
            },
            {
              "internalType": "uint256",
              "name": "played",
              "type": "uint256"
            },
            {
              "internalType": "uint256",
              "name": "level",
              "type": "uint256"
            },
            {
              "internalType": "uint256",
              "name": "wins",
              "type": "uint256"
            },
            {
              "internalType": "uint256",
              "name": "remaining",
              "type": "uint256"
            },
            {
              "internalType": "string",
              "name": "status",
              "type": "string"
            },
            {
              "internalType": "string[]",
              "name": "hint",
              "type": "string[]"
            },
            {
              "internalType": "address",
              "name": "walletaddress",
              "type": "address"
            }
          ],
          "internalType": "struct GuessFootBallHero.HeroGame[]",
          "name": "",
          "type": "tuple[]"
        }
      ],
      "stateMutability": "view",
      "type": "function"
    },
    {
      "inputs": [
        {
          "internalType": "address",
          "name": "_useraddress",
          "type": "address"
        }
      ],
      "name": "loadUserGames",
      "outputs": [
        {
          "components": [
            {
              "internalType": "uint256",
              "name": "Id",
              "type": "uint256"
            },
            {
              "internalType": "uint256",
              "name": "gameId",
              "type": "uint256"
            },
            {
              "internalType": "uint256",
              "name": "amountplayed",
              "type": "uint256"
            },
            {
              "internalType": "uint256",
              "name": "rewardamount",
              "type": "uint256"
            },
            {
              "internalType": "uint256",
              "name": "time",
              "type": "uint256"
            },
            {
              "internalType": "uint256",
              "name": "played",
              "type": "uint256"
            },
            {
              "internalType": "uint256",
              "name": "level",
              "type": "uint256"
            },
            {
              "internalType": "uint256",
              "name": "wins",
              "type": "uint256"
            },
            {
              "internalType": "uint256",
              "name": "remaining",
              "type": "uint256"
            },
            {
              "internalType": "string",
              "name": "status",
              "type": "string"
            },
            {
              "internalType": "string[]",
              "name": "hint",
              "type": "string[]"
            },
            {
              "internalType": "address",
              "name": "walletaddress",
              "type": "address"
            }
          ],
          "internalType": "struct GuessFootBallHero.HeroGame[]",
          "name": "",
          "type": "tuple[]"
        }
      ],
      "stateMutability": "view",
      "type": "function"
    },
    {
      "inputs": [],
      "name": "myTokenBalance",
      "outputs": [
        {
          "internalType": "uint256",
          "name": "",
          "type": "uint256"
        }
      ],
      "stateMutability": "view",
      "type": "function"
    },
    {
      "inputs": [],
      "name": "myWalletAddress",
      "outputs": [
        {
          "internalType": "address",
          "name": "",
          "type": "address"
        }
      ],
      "stateMutability": "view",
      "type": "function"
    }
  ],
  "bytecode": "0x60806040526005600355735b38da6a701c568545dcfcb03fcb875f56beddc4600660006101000a81548173ffffffffffffffffffffffffffffffffffffffff021916908373ffffffffffffffffffffffffffffffffffffffff1602179055503480156200006b57600080fd5b50604051620028ba380380620028ba83398181016040528101906200009191906200018c565b600160008190555080600860006101000a81548173ffffffffffffffffffffffffffffffffffffffff021916908373ffffffffffffffffffffffffffffffffffffffff16021790555033600260006101000a81548173ffffffffffffffffffffffffffffffffffffffff021916908373ffffffffffffffffffffffffffffffffffffffff16021790555050620001be565b600080fd5b600073ffffffffffffffffffffffffffffffffffffffff82169050919050565b6000620001548262000127565b9050919050565b620001668162000147565b81146200017257600080fd5b50565b60008151905062000186816200015b565b92915050565b600060208284031215620001a557620001a462000122565b5b6000620001b58482850162000175565b91505092915050565b6126ec80620001ce6000396000f3fe608060405234801561001057600080fd5b50600436106100b45760003560e01c806388aff5861161007157806388aff5861461016d578063893d20e81461018b5780638bf046b6146101a95780639c4e6a11146101d9578063cb822ad214610209578063e9cfce8214610225576100b4565b80632b24b50d146100b9578063317d9453146100d75780633f9b26d1146100f55780635e6ba549146101135780636d763a6e146101315780636f9fb98a1461014f575b600080fd5b6100c1610243565b6040516100ce9190611a31565b60405180910390f35b6100df61054c565b6040516100ec9190611a62565b60405180910390f35b6100fd61067f565b60405161010a9190611a8c565b60405180910390f35b61011b6106a5565b6040516101289190611a62565b60405180910390f35b610139610748565b6040516101469190611b98565b60405180910390f35b6101576109af565b6040516101649190611a62565b60405180910390f35b610175610a47565b6040516101829190611c19565b60405180910390f35b610193610a6d565b6040516101a09190611a8c565b60405180910390f35b6101c360048036038101906101be9190611c74565b610a97565b6040516101d09190611a62565b60405180910390f35b6101f360048036038101906101ee9190611c74565b610ae3565b6040516102009190611a31565b60405180910390f35b610223600480360381019061021e9190611ee8565b610f0b565b005b61022d611496565b60405161023a9190611a8c565b60405180910390f35b6060600060015490506000808267ffffffffffffffff81111561026957610268611cd2565b5b6040519080825280602002602001820160405280156102a257816020015b61028f611530565b8152602001906001900390816102875790505b50905060005b838110156105425760006001826102bf9190611fd5565b90506000600a60008381526020019081526020016000209050806040518061018001604052908160008201548152602001600182015481526020016002820154815260200160038201548152602001600482015481526020016005820154815260200160068201548152602001600782015481526020016008820154815260200160098201805461034f90612038565b80601f016020809104026020016040519081016040528092919081815260200182805461037b90612038565b80156103c85780601f1061039d576101008083540402835291602001916103c8565b820191906000526020600020905b8154815290600101906020018083116103ab57829003601f168201915b50505050508152602001600a8201805480602002602001604051908101604052809291908181526020016000905b828210156104a257838290600052602060002001805461041590612038565b80601f016020809104026020016040519081016040528092919081815260200182805461044190612038565b801561048e5780601f106104635761010080835404028352916020019161048e565b820191906000526020600020905b81548152906001019060200180831161047157829003601f168201915b5050505050815260200190600101906103f6565b505050508152602001600b820160009054906101000a900473ffffffffffffffffffffffffffffffffffffffff1673ffffffffffffffffffffffffffffffffffffffff1673ffffffffffffffffffffffffffffffffffffffff168152505084868151811061051357610512612069565b5b602002602001018190525060018561052b9190611fd5565b94505050808061053a90612098565b9150506102a8565b5080935050505090565b6000600260009054906101000a900473ffffffffffffffffffffffffffffffffffffffff1673ffffffffffffffffffffffffffffffffffffffff163373ffffffffffffffffffffffffffffffffffffffff16146105de576040517f08c379a00000000000000000000000000000000000000000000000000000000081526004016105d59061213d565b60405180910390fd5b600860009054906101000a900473ffffffffffffffffffffffffffffffffffffffff1673ffffffffffffffffffffffffffffffffffffffff166370a08231306040518263ffffffff1660e01b81526004016106399190611a8c565b602060405180830381865afa158015610656573d6000803e3d6000fd5b505050506040513d601f19601f8201168201806040525081019061067a9190612172565b905090565b600660009054906101000a900473ffffffffffffffffffffffffffffffffffffffff1681565b6000600860009054906101000a900473ffffffffffffffffffffffffffffffffffffffff1673ffffffffffffffffffffffffffffffffffffffff166370a08231336040518263ffffffff1660e01b81526004016107029190611a8c565b602060405180830381865afa15801561071f573d6000803e3d6000fd5b505050506040513d601f19601f820116820180604052508101906107439190612172565b905090565b60606000600154905060008167ffffffffffffffff81111561076d5761076c611cd2565b5b6040519080825280602002602001820160405280156107a657816020015b6107936115a7565b81526020019060019003908161078b5790505b50905060005b8281101561089c576040518060600160405280600a60006001856107d09190611fd5565b8152602001908152602001600020600b0160009054906101000a900473ffffffffffffffffffffffffffffffffffffffff1673ffffffffffffffffffffffffffffffffffffffff168152602001600a600060018561082e9190611fd5565b8152602001908152602001600020600201548152602001600a60006001856108569190611fd5565b81526020019081526020016000206003015481525082828151811061087e5761087d612069565b5b6020026020010181905250808061089490612098565b9150506107ac565b5060005b828110156109a65760006001826108b79190611fd5565b90505b83811015610992578282815181106108d5576108d4612069565b5b6020026020010151602001518382815181106108f4576108f3612069565b5b602002602001015160200151111561097f57600083838151811061091b5761091a612069565b5b6020026020010151905083828151811061093857610937612069565b5b602002602001015184848151811061095357610952612069565b5b60200260200101819052508084838151811061097257610971612069565b5b6020026020010181905250505b808061098a90612098565b9150506108ba565b50808061099e90612098565b9150506108a0565b50809250505090565b6000600260009054906101000a900473ffffffffffffffffffffffffffffffffffffffff1673ffffffffffffffffffffffffffffffffffffffff163373ffffffffffffffffffffffffffffffffffffffff1614610a41576040517f08c379a0000000000000000000000000000000000000000000000000000000008152600401610a389061213d565b60405180910390fd5b47905090565b600860009054906101000a900473ffffffffffffffffffffffffffffffffffffffff1681565b6000600260009054906101000a900473ffffffffffffffffffffffffffffffffffffffff16905090565b6000600b60008373ffffffffffffffffffffffffffffffffffffffff1673ffffffffffffffffffffffffffffffffffffffff168152602001908152602001600020600001549050919050565b60606000600154905060008060005b83811015610b92578573ffffffffffffffffffffffffffffffffffffffff16600a6000600184610b229190611fd5565b8152602001908152602001600020600b0160009054906101000a900473ffffffffffffffffffffffffffffffffffffffff1673ffffffffffffffffffffffffffffffffffffffff1603610b7f57600183610b7c9190611fd5565b92505b8080610b8a90612098565b915050610af2565b5060008267ffffffffffffffff811115610baf57610bae611cd2565b5b604051908082528060200260200182016040528015610be857816020015b610bd5611530565b815260200190600190039081610bcd5790505b50905060005b83811015610efe578673ffffffffffffffffffffffffffffffffffffffff16600a6000600184610c1e9190611fd5565b8152602001908152602001600020600b0160009054906101000a900473ffffffffffffffffffffffffffffffffffffffff1673ffffffffffffffffffffffffffffffffffffffff1603610eeb576000600182610c7a9190611fd5565b90506000600a600083815260200190815260200160002090508060405180610180016040529081600082015481526020016001820154815260200160028201548152602001600382015481526020016004820154815260200160058201548152602001600682015481526020016007820154815260200160088201548152602001600982018054610d0a90612038565b80601f0160208091040260200160405190810160405280929190818152602001828054610d3690612038565b8015610d835780601f10610d5857610100808354040283529160200191610d83565b820191906000526020600020905b815481529060010190602001808311610d6657829003601f168201915b50505050508152602001600a8201805480602002602001604051908101604052809291908181526020016000905b82821015610e5d578382906000526020600020018054610dd090612038565b80601f0160208091040260200160405190810160405280929190818152602001828054610dfc90612038565b8015610e495780601f10610e1e57610100808354040283529160200191610e49565b820191906000526020600020905b815481529060010190602001808311610e2c57829003601f168201915b505050505081526020019060010190610db1565b505050508152602001600b820160009054906101000a900473ffffffffffffffffffffffffffffffffffffffff1673ffffffffffffffffffffffffffffffffffffffff1673ffffffffffffffffffffffffffffffffffffffff1681525050848681518110610ece57610ecd612069565b5b6020026020010181905250600185610ee69190611fd5565b945050505b8080610ef690612098565b915050610bee565b5080945050505050919050565b610f1361149e565b60016000815480929190610f2690612098565b9190505550600073ffffffffffffffffffffffffffffffffffffffff163373ffffffffffffffffffffffffffffffffffffffff1603610f9a576040517f08c379a0000000000000000000000000000000000000000000000000000000008152600401610f919061213d565b60405180910390fd5b60008611610fdd576040517f08c379a0000000000000000000000000000000000000000000000000000000008152600401610fd4906121eb565b60405180910390fd5b85600860009054906101000a900473ffffffffffffffffffffffffffffffffffffffff1673ffffffffffffffffffffffffffffffffffffffff166370a08231336040518263ffffffff1660e01b81526004016110399190611a8c565b602060405180830381865afa158015611056573d6000803e3d6000fd5b505050506040513d601f19601f8201168201806040525081019061107a9190612172565b10156110bb576040517f08c379a00000000000000000000000000000000000000000000000000000000081526004016110b290612257565b60405180910390fd5b60006110d16002886114e490919063ffffffff16565b905060405180610180016040528060015481526020018981526020018881526020018281526020014281526020018681526020018781526020018481526020018581526020016040518060400160405280600381526020017f57696e000000000000000000000000000000000000000000000000000000000081525081526020018381526020013373ffffffffffffffffffffffffffffffffffffffff16815250600a60006001548152602001908152602001600020600082015181600001556020820151816001015560408201518160020155606082015181600301556080820151816004015560a0820151816005015560c0820151816006015560e0820151816007015561010082015181600801556101208201518160090190816111f89190612419565b5061014082015181600a0190805190602001906112169291906115de565b5061016082015181600b0160006101000a81548173ffffffffffffffffffffffffffffffffffffffff021916908373ffffffffffffffffffffffffffffffffffffffff160217905550905050600c60003373ffffffffffffffffffffffffffffffffffffffff1673ffffffffffffffffffffffffffffffffffffffff1681526020019081526020016000206001549080600181540180825580915050600190039060005260206000200160009091909190915055600c60003373ffffffffffffffffffffffffffffffffffffffff1673ffffffffffffffffffffffffffffffffffffffff16815260200190815260200160002080549050600b60003373ffffffffffffffffffffffffffffffffffffffff1673ffffffffffffffffffffffffffffffffffffffff16815260200190815260200160002060000181905550600860009054906101000a900473ffffffffffffffffffffffffffffffffffffffff1673ffffffffffffffffffffffffffffffffffffffff1663a9059cbb33836040518363ffffffff1660e01b81526004016113b09291906124eb565b6020604051808303816000875af11580156113cf573d6000803e3d6000fd5b505050506040513d601f19601f820116820180604052508101906113f3919061254c565b611432576040517f08c379a0000000000000000000000000000000000000000000000000000000008152600401611429906125c5565b60405180910390fd5b3373ffffffffffffffffffffffffffffffffffffffff16886001547fd5b3c08564cd7790a8284bb6c53e5a4c56c29589f87ab306c65edd5dad1214ae8460405161147c9190611a62565b60405180910390a45061148d611526565b50505050505050565b600033905090565b6002600054036114da576040517f3ee5aeb500000000000000000000000000000000000000000000000000000000815260040160405180910390fd5b6002600081905550565b60008083036114f65760009050611520565b818361150291906125e5565b90508183826115119190612656565b1461151f5761151e612687565b5b5b92915050565b6001600081905550565b6040518061018001604052806000815260200160008152602001600081526020016000815260200160008152602001600081526020016000815260200160008152602001600081526020016060815260200160608152602001600073ffffffffffffffffffffffffffffffffffffffff1681525090565b6040518060600160405280600073ffffffffffffffffffffffffffffffffffffffff16815260200160008152602001600081525090565b828054828255906000526020600020908101928215611626579160200282015b828111156116255782518290816116159190612419565b50916020019190600101906115fe565b5b5090506116339190611637565b5090565b5b80821115611657576000818161164e919061165b565b50600101611638565b5090565b50805461166790612038565b6000825580601f106116795750611698565b601f016020900490600052602060002090810190611697919061169b565b5b50565b5b808211156116b457600081600090555060010161169c565b5090565b600081519050919050565b600082825260208201905092915050565b6000819050602082019050919050565b6000819050919050565b6116f7816116e4565b82525050565b600081519050919050565b600082825260208201905092915050565b60005b8381101561173757808201518184015260208101905061171c565b60008484015250505050565b6000601f19601f8301169050919050565b600061175f826116fd565b6117698185611708565b9350611779818560208601611719565b61178281611743565b840191505092915050565b600081519050919050565b600082825260208201905092915050565b6000819050602082019050919050565b60006117c58383611754565b905092915050565b6000602082019050919050565b60006117e58261178d565b6117ef8185611798565b935083602082028501611801856117a9565b8060005b8581101561183d578484038952815161181e85826117b9565b9450611829836117cd565b925060208a01995050600181019050611805565b50829750879550505050505092915050565b600073ffffffffffffffffffffffffffffffffffffffff82169050919050565b600061187a8261184f565b9050919050565b61188a8161186f565b82525050565b6000610180830160008301516118a960008601826116ee565b5060208301516118bc60208601826116ee565b5060408301516118cf60408601826116ee565b5060608301516118e260608601826116ee565b5060808301516118f560808601826116ee565b5060a083015161190860a08601826116ee565b5060c083015161191b60c08601826116ee565b5060e083015161192e60e08601826116ee565b506101008301516119436101008601826116ee565b5061012083015184820361012086015261195d8282611754565b91505061014083015184820361014086015261197982826117da565b915050610160830151611990610160860182611881565b508091505092915050565b60006119a78383611890565b905092915050565b6000602082019050919050565b60006119c7826116b8565b6119d181856116c3565b9350836020820285016119e3856116d4565b8060005b85811015611a1f5784840389528151611a00858261199b565b9450611a0b836119af565b925060208a019950506001810190506119e7565b50829750879550505050505092915050565b60006020820190508181036000830152611a4b81846119bc565b905092915050565b611a5c816116e4565b82525050565b6000602082019050611a776000830184611a53565b92915050565b611a868161186f565b82525050565b6000602082019050611aa16000830184611a7d565b92915050565b600081519050919050565b600082825260208201905092915050565b6000819050602082019050919050565b606082016000820151611ae96000850182611881565b506020820151611afc60208501826116ee565b506040820151611b0f60408501826116ee565b50505050565b6000611b218383611ad3565b60608301905092915050565b6000602082019050919050565b6000611b4582611aa7565b611b4f8185611ab2565b9350611b5a83611ac3565b8060005b83811015611b8b578151611b728882611b15565b9750611b7d83611b2d565b925050600181019050611b5e565b5085935050505092915050565b60006020820190508181036000830152611bb28184611b3a565b905092915050565b6000819050919050565b6000611bdf611bda611bd58461184f565b611bba565b61184f565b9050919050565b6000611bf182611bc4565b9050919050565b6000611c0382611be6565b9050919050565b611c1381611bf8565b82525050565b6000602082019050611c2e6000830184611c0a565b92915050565b6000604051905090565b600080fd5b600080fd5b611c518161186f565b8114611c5c57600080fd5b50565b600081359050611c6e81611c48565b92915050565b600060208284031215611c8a57611c89611c3e565b5b6000611c9884828501611c5f565b91505092915050565b611caa816116e4565b8114611cb557600080fd5b50565b600081359050611cc781611ca1565b92915050565b600080fd5b7f4e487b7100000000000000000000000000000000000000000000000000000000600052604160045260246000fd5b611d0a82611743565b810181811067ffffffffffffffff82111715611d2957611d28611cd2565b5b80604052505050565b6000611d3c611c34565b9050611d488282611d01565b919050565b600067ffffffffffffffff821115611d6857611d67611cd2565b5b602082029050602081019050919050565b600080fd5b600080fd5b600067ffffffffffffffff821115611d9e57611d9d611cd2565b5b611da782611743565b9050602081019050919050565b82818337600083830152505050565b6000611dd6611dd184611d83565b611d32565b905082815260208101848484011115611df257611df1611d7e565b5b611dfd848285611db4565b509392505050565b600082601f830112611e1a57611e19611ccd565b5b8135611e2a848260208601611dc3565b91505092915050565b6000611e46611e4184611d4d565b611d32565b90508083825260208201905060208402830185811115611e6957611e68611d79565b5b835b81811015611eb057803567ffffffffffffffff811115611e8e57611e8d611ccd565b5b808601611e9b8982611e05565b85526020850194505050602081019050611e6b565b5050509392505050565b600082601f830112611ecf57611ece611ccd565b5b8135611edf848260208601611e33565b91505092915050565b600080600080600080600060e0888a031215611f0757611f06611c3e565b5b6000611f158a828b01611cb8565b9750506020611f268a828b01611cb8565b9650506040611f378a828b01611cb8565b9550506060611f488a828b01611cb8565b9450506080611f598a828b01611cb8565b93505060a0611f6a8a828b01611cb8565b92505060c088013567ffffffffffffffff811115611f8b57611f8a611c43565b5b611f978a828b01611eba565b91505092959891949750929550565b7f4e487b7100000000000000000000000000000000000000000000000000000000600052601160045260246000fd5b6000611fe0826116e4565b9150611feb836116e4565b925082820190508082111561200357612002611fa6565b5b92915050565b7f4e487b7100000000000000000000000000000000000000000000000000000000600052602260045260246000fd5b6000600282049050600182168061205057607f821691505b60208210810361206357612062612009565b5b50919050565b7f4e487b7100000000000000000000000000000000000000000000000000000000600052603260045260246000fd5b60006120a3826116e4565b91507fffffffffffffffffffffffffffffffffffffffffffffffffffffffffffffffff82036120d5576120d4611fa6565b5b600182019050919050565b600082825260208201905092915050565b7f556e617574686f72697a65640000000000000000000000000000000000000000600082015250565b6000612127600c836120e0565b9150612132826120f1565b602082019050919050565b600060208201905081810360008301526121568161211a565b9050919050565b60008151905061216c81611ca1565b92915050565b60006020828403121561218857612187611c3e565b5b60006121968482850161215d565b91505092915050565b7f696e76616c696420616d6f756e74000000000000000000000000000000000000600082015250565b60006121d5600e836120e0565b91506121e08261219f565b602082019050919050565b60006020820190508181036000830152612204816121c8565b9050919050565b7f496e73756666696369656e7420546f6b656e2042616c616e6365000000000000600082015250565b6000612241601a836120e0565b915061224c8261220b565b602082019050919050565b6000602082019050818103600083015261227081612234565b9050919050565b60008190508160005260206000209050919050565b60006020601f8301049050919050565b600082821b905092915050565b6000600883026122d97fffffffffffffffffffffffffffffffffffffffffffffffffffffffffffffffff8261229c565b6122e3868361229c565b95508019841693508086168417925050509392505050565b600061231661231161230c846116e4565b611bba565b6116e4565b9050919050565b6000819050919050565b612330836122fb565b61234461233c8261231d565b8484546122a9565b825550505050565b600090565b61235961234c565b612364818484612327565b505050565b5b818110156123885761237d600082612351565b60018101905061236a565b5050565b601f8211156123cd5761239e81612277565b6123a78461228c565b810160208510156123b6578190505b6123ca6123c28561228c565b830182612369565b50505b505050565b600082821c905092915050565b60006123f0600019846008026123d2565b1980831691505092915050565b600061240983836123df565b9150826002028217905092915050565b612422826116fd565b67ffffffffffffffff81111561243b5761243a611cd2565b5b6124458254612038565b61245082828561238c565b600060209050601f8311600181146124835760008415612471578287015190505b61247b85826123fd565b8655506124e3565b601f19841661249186612277565b60005b828110156124b957848901518255600182019150602085019450602081019050612494565b868310156124d657848901516124d2601f8916826123df565b8355505b6001600288020188555050505b505050505050565b60006040820190506125006000830185611a7d565b61250d6020830184611a53565b9392505050565b60008115159050919050565b61252981612514565b811461253457600080fd5b50565b60008151905061254681612520565b92915050565b60006020828403121561256257612561611c3e565b5b600061257084828501612537565b91505092915050565b7f546f6b656e207472616e73666572206661696c65640000000000000000000000600082015250565b60006125af6015836120e0565b91506125ba82612579565b602082019050919050565b600060208201905081810360008301526125de816125a2565b9050919050565b60006125f0826116e4565b91506125fb836116e4565b9250828202612609816116e4565b915082820484148315176126205761261f611fa6565b5b5092915050565b7f4e487b7100000000000000000000000000000000000000000000000000000000600052601260045260246000fd5b6000612661826116e4565b915061266c836116e4565b92508261267c5761267b612627565b5b828204905092915050565b7f4e487b7100000000000000000000000000000000000000000000000000000000600052600160045260246000fdfea26469706673582212204929a1f8e19f62a86458538b7deadcbf35e67603acffe681e25d14d46bffe59d64736f6c63430008140033",
  "linkReferences": {},
  "deployedLinkReferences": {}
}