{
  "_format": "hh-sol-artifact-1",
  "contractName": "FRDBettingFeatures",
  "sourceName": "contracts/FRDBettingFeatures.sol",
  "abi": [
    {
      "inputs": [
        {
          "internalType": "address",
          "name": "_frdBettingAddress",
          "type": "address"
        }
      ],
      "stateMutability": "nonpayable",
      "type": "constructor"
    },
    {
      "inputs": [],
      "name": "ReentrancyGuardReentrantCall",
      "type": "error"
    },
    {
      "inputs": [
        {
          "internalType": "uint256",
          "name": "_betId",
          "type": "uint256"
        },
        {
          "internalType": "string",
          "name": "_betstatus",
          "type": "string"
        }
      ],
      "name": "compareBetStatus",
      "outputs": [
        {
          "internalType": "bool",
          "name": "",
          "type": "bool"
        }
      ],
      "stateMutability": "view",
      "type": "function"
    },
    {
      "inputs": [
        {
          "internalType": "address",
          "name": "_user",
          "type": "address"
        }
      ],
      "name": "getBetIdsCreatedByUserCount",
      "outputs": [
        {
          "internalType": "uint256",
          "name": "",
          "type": "uint256"
        }
      ],
      "stateMutability": "view",
      "type": "function"
    },
    {
      "inputs": [
        {
          "internalType": "address",
          "name": "_user",
          "type": "address"
        }
      ],
      "name": "getBetIdsUserJoinedCount",
      "outputs": [
        {
          "internalType": "uint256",
          "name": "",
          "type": "uint256"
        }
      ],
      "stateMutability": "view",
      "type": "function"
    },
    {
      "inputs": [
        {
          "internalType": "uint256",
          "name": "_betId",
          "type": "uint256"
        }
      ],
      "name": "getBetStatus",
      "outputs": [
        {
          "internalType": "string",
          "name": "",
          "type": "string"
        }
      ],
      "stateMutability": "view",
      "type": "function"
    },
    {
      "inputs": [
        {
          "internalType": "string",
          "name": "_betstatus",
          "type": "string"
        }
      ],
      "name": "getBetsByStatus",
      "outputs": [
        {
          "components": [
            {
              "internalType": "uint256",
              "name": "betId",
              "type": "uint256"
            },
            {
              "internalType": "uint256",
              "name": "matchId",
              "type": "uint256"
            },
            {
              "internalType": "uint256",
              "name": "uniquebetId",
              "type": "uint256"
            },
            {
              "internalType": "string",
              "name": "matchfixture",
              "type": "string"
            },
            {
              "internalType": "address",
              "name": "openedBy",
              "type": "address"
            },
            {
              "internalType": "string",
              "name": "betstatus",
              "type": "string"
            },
            {
              "internalType": "uint256",
              "name": "totalbetparticipantscount",
              "type": "uint256"
            },
            {
              "internalType": "uint256",
              "name": "remainingparticipantscount",
              "type": "uint256"
            },
            {
              "internalType": "address[]",
              "name": "participants",
              "type": "address[]"
            },
            {
              "internalType": "address[]",
              "name": "betwinners",
              "type": "address[]"
            },
            {
              "internalType": "address[]",
              "name": "betlosers",
              "type": "address[]"
            }
          ],
          "internalType": "struct Bet[]",
          "name": "",
          "type": "tuple[]"
        }
      ],
      "stateMutability": "view",
      "type": "function"
    },
    {
      "inputs": [
        {
          "internalType": "string",
          "name": "_username",
          "type": "string"
        }
      ],
      "name": "getBetsByUsername",
      "outputs": [
        {
          "components": [
            {
              "internalType": "uint256",
              "name": "betId",
              "type": "uint256"
            },
            {
              "internalType": "uint256",
              "name": "matchId",
              "type": "uint256"
            },
            {
              "internalType": "uint256",
              "name": "uniquebetId",
              "type": "uint256"
            },
            {
              "internalType": "string",
              "name": "matchfixture",
              "type": "string"
            },
            {
              "internalType": "address",
              "name": "openedBy",
              "type": "address"
            },
            {
              "internalType": "string",
              "name": "betstatus",
              "type": "string"
            },
            {
              "internalType": "uint256",
              "name": "totalbetparticipantscount",
              "type": "uint256"
            },
            {
              "internalType": "uint256",
              "name": "remainingparticipantscount",
              "type": "uint256"
            },
            {
              "internalType": "address[]",
              "name": "participants",
              "type": "address[]"
            },
            {
              "internalType": "address[]",
              "name": "betwinners",
              "type": "address[]"
            },
            {
              "internalType": "address[]",
              "name": "betlosers",
              "type": "address[]"
            }
          ],
          "internalType": "struct Bet[]",
          "name": "",
          "type": "tuple[]"
        }
      ],
      "stateMutability": "view",
      "type": "function"
    },
    {
      "inputs": [
        {
          "internalType": "address",
          "name": "_user",
          "type": "address"
        }
      ],
      "name": "getBetsByWallet",
      "outputs": [
        {
          "components": [
            {
              "internalType": "uint256",
              "name": "betId",
              "type": "uint256"
            },
            {
              "internalType": "uint256",
              "name": "matchId",
              "type": "uint256"
            },
            {
              "internalType": "uint256",
              "name": "uniquebetId",
              "type": "uint256"
            },
            {
              "internalType": "string",
              "name": "matchfixture",
              "type": "string"
            },
            {
              "internalType": "address",
              "name": "openedBy",
              "type": "address"
            },
            {
              "internalType": "string",
              "name": "betstatus",
              "type": "string"
            },
            {
              "internalType": "uint256",
              "name": "totalbetparticipantscount",
              "type": "uint256"
            },
            {
              "internalType": "uint256",
              "name": "remainingparticipantscount",
              "type": "uint256"
            },
            {
              "internalType": "address[]",
              "name": "participants",
              "type": "address[]"
            },
            {
              "internalType": "address[]",
              "name": "betwinners",
              "type": "address[]"
            },
            {
              "internalType": "address[]",
              "name": "betlosers",
              "type": "address[]"
            }
          ],
          "internalType": "struct Bet[]",
          "name": "",
          "type": "tuple[]"
        }
      ],
      "stateMutability": "view",
      "type": "function"
    },
    {
      "inputs": [
        {
          "internalType": "uint256",
          "name": "_betId",
          "type": "uint256"
        }
      ],
      "name": "getBetsMapping",
      "outputs": [
        {
          "components": [
            {
              "internalType": "uint256",
              "name": "betId",
              "type": "uint256"
            },
            {
              "internalType": "uint256",
              "name": "matchId",
              "type": "uint256"
            },
            {
              "internalType": "uint256",
              "name": "uniquebetId",
              "type": "uint256"
            },
            {
              "internalType": "string",
              "name": "matchfixture",
              "type": "string"
            },
            {
              "internalType": "address",
              "name": "openedBy",
              "type": "address"
            },
            {
              "internalType": "string",
              "name": "betstatus",
              "type": "string"
            },
            {
              "internalType": "uint256",
              "name": "totalbetparticipantscount",
              "type": "uint256"
            },
            {
              "internalType": "uint256",
              "name": "remainingparticipantscount",
              "type": "uint256"
            },
            {
              "internalType": "address[]",
              "name": "participants",
              "type": "address[]"
            },
            {
              "internalType": "address[]",
              "name": "betwinners",
              "type": "address[]"
            },
            {
              "internalType": "address[]",
              "name": "betlosers",
              "type": "address[]"
            }
          ],
          "internalType": "struct Bet",
          "name": "",
          "type": "tuple"
        }
      ],
      "stateMutability": "view",
      "type": "function"
    },
    {
      "inputs": [
        {
          "internalType": "address",
          "name": "_user",
          "type": "address"
        }
      ],
      "name": "getUserRegistrationDetails",
      "outputs": [
        {
          "components": [
            {
              "internalType": "uint256",
              "name": "userId",
              "type": "uint256"
            },
            {
              "internalType": "string",
              "name": "username",
              "type": "string"
            },
            {
              "internalType": "uint256",
              "name": "betCount",
              "type": "uint256"
            },
            {
              "internalType": "bool",
              "name": "hasActiveBet",
              "type": "bool"
            },
            {
              "internalType": "uint256",
              "name": "refCount",
              "type": "uint256"
            },
            {
              "internalType": "bool",
              "name": "registered",
              "type": "bool"
            },
            {
              "internalType": "bool",
              "name": "wasReferred",
              "type": "bool"
            },
            {
              "internalType": "address",
              "name": "sponsor",
              "type": "address"
            },
            {
              "internalType": "address",
              "name": "useraddress",
              "type": "address"
            },
            {
              "internalType": "address[]",
              "name": "referrals",
              "type": "address[]"
            }
          ],
          "internalType": "struct User",
          "name": "",
          "type": "tuple"
        }
      ],
      "stateMutability": "view",
      "type": "function"
    },
    {
      "inputs": [],
      "name": "listRegisteredUsers",
      "outputs": [
        {
          "components": [
            {
              "internalType": "uint256",
              "name": "userId",
              "type": "uint256"
            },
            {
              "internalType": "string",
              "name": "username",
              "type": "string"
            },
            {
              "internalType": "uint256",
              "name": "betCount",
              "type": "uint256"
            },
            {
              "internalType": "bool",
              "name": "hasActiveBet",
              "type": "bool"
            },
            {
              "internalType": "uint256",
              "name": "refCount",
              "type": "uint256"
            },
            {
              "internalType": "bool",
              "name": "registered",
              "type": "bool"
            },
            {
              "internalType": "bool",
              "name": "wasReferred",
              "type": "bool"
            },
            {
              "internalType": "address",
              "name": "sponsor",
              "type": "address"
            },
            {
              "internalType": "address",
              "name": "useraddress",
              "type": "address"
            },
            {
              "internalType": "address[]",
              "name": "referrals",
              "type": "address[]"
            }
          ],
          "internalType": "struct User[]",
          "name": "",
          "type": "tuple[]"
        }
      ],
      "stateMutability": "view",
      "type": "function"
    },
    {
      "inputs": [],
      "name": "loadAllBets",
      "outputs": [
        {
          "components": [
            {
              "internalType": "uint256",
              "name": "betId",
              "type": "uint256"
            },
            {
              "internalType": "uint256",
              "name": "matchId",
              "type": "uint256"
            },
            {
              "internalType": "uint256",
              "name": "uniquebetId",
              "type": "uint256"
            },
            {
              "internalType": "string",
              "name": "matchfixture",
              "type": "string"
            },
            {
              "internalType": "address",
              "name": "openedBy",
              "type": "address"
            },
            {
              "internalType": "string",
              "name": "betstatus",
              "type": "string"
            },
            {
              "internalType": "uint256",
              "name": "totalbetparticipantscount",
              "type": "uint256"
            },
            {
              "internalType": "uint256",
              "name": "remainingparticipantscount",
              "type": "uint256"
            },
            {
              "internalType": "address[]",
              "name": "participants",
              "type": "address[]"
            },
            {
              "internalType": "address[]",
              "name": "betwinners",
              "type": "address[]"
            },
            {
              "internalType": "address[]",
              "name": "betlosers",
              "type": "address[]"
            }
          ],
          "internalType": "struct Bet[]",
          "name": "",
          "type": "tuple[]"
        }
      ],
      "stateMutability": "view",
      "type": "function"
    },
    {
      "inputs": [],
      "name": "nextBetId",
      "outputs": [
        {
          "internalType": "uint256",
          "name": "",
          "type": "uint256"
        }
      ],
      "stateMutability": "view",
      "type": "function"
    },
    {
      "inputs": [],
      "name": "nextUserId",
      "outputs": [
        {
          "internalType": "uint256",
          "name": "",
          "type": "uint256"
        }
      ],
      "stateMutability": "view",
      "type": "function"
    }
  ],
  "bytecode": "0x60806040523480156200001157600080fd5b5060405162002f8538038062002f85833981810160405281019062000037919062000132565b600160008190555080600160006101000a81548173ffffffffffffffffffffffffffffffffffffffff021916908373ffffffffffffffffffffffffffffffffffffffff16021790555033600260006101000a81548173ffffffffffffffffffffffffffffffffffffffff021916908373ffffffffffffffffffffffffffffffffffffffff1602179055505062000164565b600080fd5b600073ffffffffffffffffffffffffffffffffffffffff82169050919050565b6000620000fa82620000cd565b9050919050565b6200010c81620000ed565b81146200011857600080fd5b50565b6000815190506200012c8162000101565b92915050565b6000602082840312156200014b576200014a620000c8565b5b60006200015b848285016200011b565b91505092915050565b612e1180620001746000396000f3fe608060405234801561001057600080fd5b50600436106100cf5760003560e01c80639aca27921161008c578063aa265bb611610066578063aa265bb61461023c578063db8e19a51461026c578063eb6821a51461029c578063ef6252a8146102cc576100cf565b80639aca2792146101e2578063a1e6a25514610200578063a4b427c41461021e576100cf565b8063048e6bfd146100d457806325f5faf3146101045780634ddfc30214610134578063531eb077146101645780635984c81f1461019457806361f14f11146101b2575b600080fd5b6100ee60048036038101906100e99190611b52565b6102fc565b6040516100fb9190611ef0565b60405180910390f35b61011e60048036038101906101199190611f3e565b6105b3565b60405161012b9190611ef0565b60405180910390f35b61014e60048036038101906101499190611f97565b610985565b60405161015b91906120cf565b60405180910390f35b61017e60048036038101906101799190611f3e565b610a35565b60405161018b91906121ed565b60405180910390f35b61019c610ae5565b6040516101a99190611ef0565b60405180910390f35b6101cc60048036038101906101c79190611f97565b610ccf565b6040516101d99190612259565b60405180910390f35b6101ea610d7d565b6040516101f7919061228a565b60405180910390f35b610208610e15565b604051610215919061228a565b60405180910390f35b610226610ead565b6040516102339190612448565b60405180910390f35b61025660048036038101906102519190611b52565b6111f5565b6040516102639190611ef0565b60405180910390f35b61028660048036038101906102819190611f3e565b6114a8565b604051610293919061228a565b60405180910390f35b6102b660048036038101906102b19190611f3e565b61154d565b6040516102c3919061228a565b60405180910390f35b6102e660048036038101906102e1919061246a565b6115f2565b6040516102f391906124d5565b60405180910390f35b60606000600160009054906101000a900473ffffffffffffffffffffffffffffffffffffffff1673ffffffffffffffffffffffffffffffffffffffff1663a1e6a2556040518163ffffffff1660e01b8152600401602060405180830381865afa15801561036d573d6000803e3d6000fd5b505050506040513d601f19601f820116820180604052508101906103919190612505565b90506000806000905060005b83811161055f576103f06040518060400160405280600581526020017f2069756920000000000000000000000000000000000000000000000000000000815250826001846103eb9190612561565b6116aa565b6000600160009054906101000a900473ffffffffffffffffffffffffffffffffffffffff1673ffffffffffffffffffffffffffffffffffffffff1663b1695201836040518263ffffffff1660e01b815260040161044d919061228a565b602060405180830381865afa15801561046a573d6000803e3d6000fd5b505050506040513d601f19601f8201168201806040525081019061048e91906125aa565b905061053e600160009054906101000a900473ffffffffffffffffffffffffffffffffffffffff1673ffffffffffffffffffffffffffffffffffffffff1663531eb077836040518263ffffffff1660e01b81526004016104ee91906125e6565b600060405180830381865afa15801561050b573d6000803e3d6000fd5b505050506040513d6000823e3d601f19601f82011682018060405250810190610534919061289d565b6020015188611749565b1561054b57809350600192505b508080610557906128e6565b91505061039d565b50806105a0576040517f08c379a00000000000000000000000000000000000000000000000000000000081526004016105979061297a565b60405180910390fd5b6105a9826105b3565b9350505050919050565b60606000600160009054906101000a900473ffffffffffffffffffffffffffffffffffffffff1673ffffffffffffffffffffffffffffffffffffffff16637b414882846040518263ffffffff1660e01b815260040161061291906125e6565b600060405180830381865afa15801561062f573d6000803e3d6000fd5b505050506040513d6000823e3d601f19601f820116820180604052508101906106589190612a5d565b90506000600160009054906101000a900473ffffffffffffffffffffffffffffffffffffffff1673ffffffffffffffffffffffffffffffffffffffff1663022bd8bf856040518263ffffffff1660e01b81526004016106b791906125e6565b600060405180830381865afa1580156106d4573d6000803e3d6000fd5b505050506040513d6000823e3d601f19601f820116820180604052508101906106fd9190612a5d565b905060008251905060008167ffffffffffffffff81111561072157610720611a27565b5b60405190808252806020026020018201604052801561075a57816020015b610747611903565b81526020019060019003908161073f5790505b5090506000805b855181101561086a576000600160009054906101000a900473ffffffffffffffffffffffffffffffffffffffff1673ffffffffffffffffffffffffffffffffffffffff16634ddfc3028884815181106107bd576107bc612aa6565b5b60200260200101516040518263ffffffff1660e01b81526004016107e1919061228a565b600060405180830381865afa1580156107fe573d6000803e3d6000fd5b505050506040513d6000823e3d601f19601f820116820180604052508101906108279190612c6d565b90508084848151811061083d5761083c612aa6565b5b60200260200101819052508280610853906128e6565b935050508080610862906128e6565b915050610761565b5060005b8451811015610977576000600160009054906101000a900473ffffffffffffffffffffffffffffffffffffffff1673ffffffffffffffffffffffffffffffffffffffff16634ddfc3028784815181106108ca576108c9612aa6565b5b60200260200101516040518263ffffffff1660e01b81526004016108ee919061228a565b600060405180830381865afa15801561090b573d6000803e3d6000fd5b505050506040513d6000823e3d601f19601f820116820180604052508101906109349190612c6d565b90508084848151811061094a57610949612aa6565b5b60200260200101819052508280610960906128e6565b93505050808061096f906128e6565b91505061086e565b508195505050505050919050565b61098d611903565b600160009054906101000a900473ffffffffffffffffffffffffffffffffffffffff1673ffffffffffffffffffffffffffffffffffffffff16634ddfc302836040518263ffffffff1660e01b81526004016109e8919061228a565b600060405180830381865afa158015610a05573d6000803e3d6000fd5b505050506040513d6000823e3d601f19601f82011682018060405250810190610a2e9190612c6d565b9050919050565b610a3d611973565b600160009054906101000a900473ffffffffffffffffffffffffffffffffffffffff1673ffffffffffffffffffffffffffffffffffffffff1663531eb077836040518263ffffffff1660e01b8152600401610a9891906125e6565b600060405180830381865afa158015610ab5573d6000803e3d6000fd5b505050506040513d6000823e3d601f19601f82011682018060405250810190610ade919061289d565b9050919050565b60606000600160009054906101000a900473ffffffffffffffffffffffffffffffffffffffff1673ffffffffffffffffffffffffffffffffffffffff16639aca27926040518163ffffffff1660e01b8152600401602060405180830381865afa158015610b56573d6000803e3d6000fd5b505050506040513d601f19601f82011682018060405250810190610b7a9190612505565b905060008167ffffffffffffffff811115610b9857610b97611a27565b5b604051908082528060200260200182016040528015610bd157816020015b610bbe611903565b815260200190600190039081610bb65790505b5090506000600190505b828111610cc6576000600160009054906101000a900473ffffffffffffffffffffffffffffffffffffffff1673ffffffffffffffffffffffffffffffffffffffff16634ddfc302836040518263ffffffff1660e01b8152600401610c3f919061228a565b600060405180830381865afa158015610c5c573d6000803e3d6000fd5b505050506040513d6000823e3d601f19601f82011682018060405250810190610c859190612c6d565b90508083600184610c969190612cb6565b81518110610ca757610ca6612aa6565b5b6020026020010181905250508080610cbe906128e6565b915050610bdb565b50809250505090565b6060600160009054906101000a900473ffffffffffffffffffffffffffffffffffffffff1673ffffffffffffffffffffffffffffffffffffffff16634ddfc302836040518263ffffffff1660e01b8152600401610d2c919061228a565b600060405180830381865afa158015610d49573d6000803e3d6000fd5b505050506040513d6000823e3d601f19601f82011682018060405250810190610d729190612c6d565b60a001519050919050565b6000600160009054906101000a900473ffffffffffffffffffffffffffffffffffffffff1673ffffffffffffffffffffffffffffffffffffffff16639aca27926040518163ffffffff1660e01b8152600401602060405180830381865afa158015610dec573d6000803e3d6000fd5b505050506040513d601f19601f82011682018060405250810190610e109190612505565b905090565b6000600160009054906101000a900473ffffffffffffffffffffffffffffffffffffffff1673ffffffffffffffffffffffffffffffffffffffff1663a1e6a2556040518163ffffffff1660e01b8152600401602060405180830381865afa158015610e84573d6000803e3d6000fd5b505050506040513d601f19601f82011682018060405250810190610ea89190612505565b905090565b60606000600160009054906101000a900473ffffffffffffffffffffffffffffffffffffffff1673ffffffffffffffffffffffffffffffffffffffff1663a1e6a2556040518163ffffffff1660e01b8152600401602060405180830381865afa158015610f1e573d6000803e3d6000fd5b505050506040513d601f19601f82011682018060405250810190610f429190612505565b9050610f836040518060400160405280600481526020017f7520696900000000000000000000000000000000000000000000000000000000815250826117a2565b60008167ffffffffffffffff811115610f9f57610f9e611a27565b5b604051908082528060200260200182016040528015610fd857816020015b610fc5611973565b815260200190600190039081610fbd5790505b5090506000600190505b8281116111ec576110286040518060400160405280600381526020017f2069200000000000000000000000000000000000000000000000000000000000815250826117a2565b6000600160009054906101000a900473ffffffffffffffffffffffffffffffffffffffff1673ffffffffffffffffffffffffffffffffffffffff1663b1695201836040518263ffffffff1660e01b8152600401611085919061228a565b602060405180830381865afa1580156110a2573d6000803e3d6000fd5b505050506040513d601f19601f820116820180604052508101906110c691906125aa565b90506111076040518060400160405280600681526020017f75206164647200000000000000000000000000000000000000000000000000008152508261183e565b6000600160009054906101000a900473ffffffffffffffffffffffffffffffffffffffff1673ffffffffffffffffffffffffffffffffffffffff1663531eb077836040518263ffffffff1660e01b815260040161116491906125e6565b600060405180830381865afa158015611181573d6000803e3d6000fd5b505050506040513d6000823e3d601f19601f820116820180604052508101906111aa919061289d565b905080846001856111bb9190612cb6565b815181106111cc576111cb612aa6565b5b6020026020010181905250505080806111e4906128e6565b915050610fe2565b50809250505090565b60606000600160009054906101000a900473ffffffffffffffffffffffffffffffffffffffff1673ffffffffffffffffffffffffffffffffffffffff16639aca27926040518163ffffffff1660e01b8152600401602060405180830381865afa158015611266573d6000803e3d6000fd5b505050506040513d601f19601f8201168201806040525081019061128a9190612505565b90506000808267ffffffffffffffff8111156112a9576112a8611a27565b5b6040519080825280602002602001820160405280156112e257816020015b6112cf611903565b8152602001906001900390816112c75790505b50905060005b83811161149c5760006001826112fe9190612561565b90506113ae600160009054906101000a900473ffffffffffffffffffffffffffffffffffffffff1673ffffffffffffffffffffffffffffffffffffffff16634ddfc302836040518263ffffffff1660e01b815260040161135e919061228a565b600060405180830381865afa15801561137b573d6000803e3d6000fd5b505050506040513d6000823e3d601f19601f820116820180604052508101906113a49190612c6d565b60a0015188611749565b15611488576000600160009054906101000a900473ffffffffffffffffffffffffffffffffffffffff1673ffffffffffffffffffffffffffffffffffffffff16634ddfc302836040518263ffffffff1660e01b8152600401611410919061228a565b600060405180830381865afa15801561142d573d6000803e3d6000fd5b505050506040513d6000823e3d601f19601f820116820180604052508101906114569190612c6d565b90508084868151811061146c5761146b612aa6565b5b60200260200101819052506001856114849190612561565b9450505b508080611494906128e6565b9150506112e8565b50809350505050919050565b6000600160009054906101000a900473ffffffffffffffffffffffffffffffffffffffff1673ffffffffffffffffffffffffffffffffffffffff1663db8e19a5836040518263ffffffff1660e01b815260040161150591906125e6565b602060405180830381865afa158015611522573d6000803e3d6000fd5b505050506040513d601f19601f820116820180604052508101906115469190612505565b9050919050565b6000600160009054906101000a900473ffffffffffffffffffffffffffffffffffffffff1673ffffffffffffffffffffffffffffffffffffffff1663eb6821a5836040518263ffffffff1660e01b81526004016115aa91906125e6565b602060405180830381865afa1580156115c7573d6000803e3d6000fd5b505050506040513d601f19601f820116820180604052508101906115eb9190612505565b9050919050565b60006116a2600160009054906101000a900473ffffffffffffffffffffffffffffffffffffffff1673ffffffffffffffffffffffffffffffffffffffff16634ddfc302856040518263ffffffff1660e01b8152600401611652919061228a565b600060405180830381865afa15801561166f573d6000803e3d6000fd5b505050506040513d6000823e3d601f19601f820116820180604052508101906116989190612c6d565b60a0015183611749565b905092915050565b6117448383836040516024016116c293929190612cea565b6040516020818303038152906040527fca47c4eb000000000000000000000000000000000000000000000000000000007bffffffffffffffffffffffffffffffffffffffffffffffffffffffff19166020820180517bffffffffffffffffffffffffffffffffffffffffffffffffffffffff83818316178352505050506118da565b505050565b60008160405160200161175c9190612d64565b60405160208183030381529060405280519060200120836040516020016117839190612d64565b6040516020818303038152906040528051906020012014905092915050565b61183a82826040516024016117b8929190612d7b565b6040516020818303038152906040527fb60e72cc000000000000000000000000000000000000000000000000000000007bffffffffffffffffffffffffffffffffffffffffffffffffffffffff19166020820180517bffffffffffffffffffffffffffffffffffffffffffffffffffffffff83818316178352505050506118da565b5050565b6118d68282604051602401611854929190612dab565b6040516020818303038152906040527f319af333000000000000000000000000000000000000000000000000000000007bffffffffffffffffffffffffffffffffffffffffffffffffffffffff19166020820180517bffffffffffffffffffffffffffffffffffffffffffffffffffffffff83818316178352505050506118da565b5050565b60008151905060006a636f6e736f6c652e6c6f679050602083016000808483855afa5050505050565b60405180610160016040528060008152602001600081526020016000815260200160608152602001600073ffffffffffffffffffffffffffffffffffffffff1681526020016060815260200160008152602001600081526020016060815260200160608152602001606081525090565b60405180610140016040528060008152602001606081526020016000815260200160001515815260200160008152602001600015158152602001600015158152602001600073ffffffffffffffffffffffffffffffffffffffff168152602001600073ffffffffffffffffffffffffffffffffffffffff168152602001606081525090565b6000604051905090565b600080fd5b600080fd5b600080fd5b600080fd5b6000601f19601f8301169050919050565b7f4e487b7100000000000000000000000000000000000000000000000000000000600052604160045260246000fd5b611a5f82611a16565b810181811067ffffffffffffffff82111715611a7e57611a7d611a27565b5b80604052505050565b6000611a916119f8565b9050611a9d8282611a56565b919050565b600067ffffffffffffffff821115611abd57611abc611a27565b5b611ac682611a16565b9050602081019050919050565b82818337600083830152505050565b6000611af5611af084611aa2565b611a87565b905082815260208101848484011115611b1157611b10611a11565b5b611b1c848285611ad3565b509392505050565b600082601f830112611b3957611b38611a0c565b5b8135611b49848260208601611ae2565b91505092915050565b600060208284031215611b6857611b67611a02565b5b600082013567ffffffffffffffff811115611b8657611b85611a07565b5b611b9284828501611b24565b91505092915050565b600081519050919050565b600082825260208201905092915050565b6000819050602082019050919050565b6000819050919050565b611bda81611bc7565b82525050565b600081519050919050565b600082825260208201905092915050565b60005b83811015611c1a578082015181840152602081019050611bff565b60008484015250505050565b6000611c3182611be0565b611c3b8185611beb565b9350611c4b818560208601611bfc565b611c5481611a16565b840191505092915050565b600073ffffffffffffffffffffffffffffffffffffffff82169050919050565b6000611c8a82611c5f565b9050919050565b611c9a81611c7f565b82525050565b600081519050919050565b600082825260208201905092915050565b6000819050602082019050919050565b6000611cd88383611c91565b60208301905092915050565b6000602082019050919050565b6000611cfc82611ca0565b611d068185611cab565b9350611d1183611cbc565b8060005b83811015611d42578151611d298882611ccc565b9750611d3483611ce4565b925050600181019050611d15565b5085935050505092915050565b600061016083016000830151611d686000860182611bd1565b506020830151611d7b6020860182611bd1565b506040830151611d8e6040860182611bd1565b5060608301518482036060860152611da68282611c26565b9150506080830151611dbb6080860182611c91565b5060a083015184820360a0860152611dd38282611c26565b91505060c0830151611de860c0860182611bd1565b5060e0830151611dfb60e0860182611bd1565b50610100830151848203610100860152611e158282611cf1565b915050610120830151848203610120860152611e318282611cf1565b915050610140830151848203610140860152611e4d8282611cf1565b9150508091505092915050565b6000611e668383611d4f565b905092915050565b6000602082019050919050565b6000611e8682611b9b565b611e908185611ba6565b935083602082028501611ea285611bb7565b8060005b85811015611ede5784840389528151611ebf8582611e5a565b9450611eca83611e6e565b925060208a01995050600181019050611ea6565b50829750879550505050505092915050565b60006020820190508181036000830152611f0a8184611e7b565b905092915050565b611f1b81611c7f565b8114611f2657600080fd5b50565b600081359050611f3881611f12565b92915050565b600060208284031215611f5457611f53611a02565b5b6000611f6284828501611f29565b91505092915050565b611f7481611bc7565b8114611f7f57600080fd5b50565b600081359050611f9181611f6b565b92915050565b600060208284031215611fad57611fac611a02565b5b6000611fbb84828501611f82565b91505092915050565b600061016083016000830151611fdd6000860182611bd1565b506020830151611ff06020860182611bd1565b5060408301516120036040860182611bd1565b506060830151848203606086015261201b8282611c26565b91505060808301516120306080860182611c91565b5060a083015184820360a08601526120488282611c26565b91505060c083015161205d60c0860182611bd1565b5060e083015161207060e0860182611bd1565b5061010083015184820361010086015261208a8282611cf1565b9150506101208301518482036101208601526120a68282611cf1565b9150506101408301518482036101408601526120c28282611cf1565b9150508091505092915050565b600060208201905081810360008301526120e98184611fc4565b905092915050565b60008115159050919050565b612106816120f1565b82525050565b6000610140830160008301516121256000860182611bd1565b506020830151848203602086015261213d8282611c26565b91505060408301516121526040860182611bd1565b50606083015161216560608601826120fd565b5060808301516121786080860182611bd1565b5060a083015161218b60a08601826120fd565b5060c083015161219e60c08601826120fd565b5060e08301516121b160e0860182611c91565b506101008301516121c6610100860182611c91565b506101208301518482036101208601526121e08282611cf1565b9150508091505092915050565b60006020820190508181036000830152612207818461210c565b905092915050565b600082825260208201905092915050565b600061222b82611be0565b612235818561220f565b9350612245818560208601611bfc565b61224e81611a16565b840191505092915050565b600060208201905081810360008301526122738184612220565b905092915050565b61228481611bc7565b82525050565b600060208201905061229f600083018461227b565b92915050565b600081519050919050565b600082825260208201905092915050565b6000819050602082019050919050565b6000610140830160008301516122ea6000860182611bd1565b50602083015184820360208601526123028282611c26565b91505060408301516123176040860182611bd1565b50606083015161232a60608601826120fd565b50608083015161233d6080860182611bd1565b5060a083015161235060a08601826120fd565b5060c083015161236360c08601826120fd565b5060e083015161237660e0860182611c91565b5061010083015161238b610100860182611c91565b506101208301518482036101208601526123a58282611cf1565b9150508091505092915050565b60006123be83836122d1565b905092915050565b6000602082019050919050565b60006123de826122a5565b6123e881856122b0565b9350836020820285016123fa856122c1565b8060005b85811015612436578484038952815161241785826123b2565b9450612422836123c6565b925060208a019950506001810190506123fe565b50829750879550505050505092915050565b6000602082019050818103600083015261246281846123d3565b905092915050565b6000806040838503121561248157612480611a02565b5b600061248f85828601611f82565b925050602083013567ffffffffffffffff8111156124b0576124af611a07565b5b6124bc85828601611b24565b9150509250929050565b6124cf816120f1565b82525050565b60006020820190506124ea60008301846124c6565b92915050565b6000815190506124ff81611f6b565b92915050565b60006020828403121561251b5761251a611a02565b5b6000612529848285016124f0565b91505092915050565b7f4e487b7100000000000000000000000000000000000000000000000000000000600052601160045260246000fd5b600061256c82611bc7565b915061257783611bc7565b925082820190508082111561258f5761258e612532565b5b92915050565b6000815190506125a481611f12565b92915050565b6000602082840312156125c0576125bf611a02565b5b60006125ce84828501612595565b91505092915050565b6125e081611c7f565b82525050565b60006020820190506125fb60008301846125d7565b92915050565b600080fd5b600080fd5b600061261e61261984611aa2565b611a87565b90508281526020810184848401111561263a57612639611a11565b5b612645848285611bfc565b509392505050565b600082601f83011261266257612661611a0c565b5b815161267284826020860161260b565b91505092915050565b612684816120f1565b811461268f57600080fd5b50565b6000815190506126a18161267b565b92915050565b600067ffffffffffffffff8211156126c2576126c1611a27565b5b602082029050602081019050919050565b600080fd5b60006126eb6126e6846126a7565b611a87565b9050808382526020820190506020840283018581111561270e5761270d6126d3565b5b835b8181101561273757806127238882612595565b845260208401935050602081019050612710565b5050509392505050565b600082601f83011261275657612755611a0c565b5b81516127668482602086016126d8565b91505092915050565b6000610140828403121561278657612785612601565b5b612791610140611a87565b905060006127a1848285016124f0565b600083015250602082015167ffffffffffffffff8111156127c5576127c4612606565b5b6127d18482850161264d565b60208301525060406127e5848285016124f0565b60408301525060606127f984828501612692565b606083015250608061280d848285016124f0565b60808301525060a061282184828501612692565b60a08301525060c061283584828501612692565b60c08301525060e061284984828501612595565b60e08301525061010061285e84828501612595565b6101008301525061012082015167ffffffffffffffff81111561288457612883612606565b5b61289084828501612741565b6101208301525092915050565b6000602082840312156128b3576128b2611a02565b5b600082015167ffffffffffffffff8111156128d1576128d0611a07565b5b6128dd8482850161276f565b91505092915050565b60006128f182611bc7565b91507fffffffffffffffffffffffffffffffffffffffffffffffffffffffffffffffff820361292357612922612532565b5b600182019050919050565b7f55736572206e6f7420666f756e64000000000000000000000000000000000000600082015250565b6000612964600e8361220f565b915061296f8261292e565b602082019050919050565b6000602082019050818103600083015261299381612957565b9050919050565b600067ffffffffffffffff8211156129b5576129b4611a27565b5b602082029050602081019050919050565b60006129d96129d48461299a565b611a87565b905080838252602082019050602084028301858111156129fc576129fb6126d3565b5b835b81811015612a255780612a1188826124f0565b8452602084019350506020810190506129fe565b5050509392505050565b600082601f830112612a4457612a43611a0c565b5b8151612a548482602086016129c6565b91505092915050565b600060208284031215612a7357612a72611a02565b5b600082015167ffffffffffffffff811115612a9157612a90611a07565b5b612a9d84828501612a2f565b91505092915050565b7f4e487b7100000000000000000000000000000000000000000000000000000000600052603260045260246000fd5b60006101608284031215612aec57612aeb612601565b5b612af7610160611a87565b90506000612b07848285016124f0565b6000830152506020612b1b848285016124f0565b6020830152506040612b2f848285016124f0565b604083015250606082015167ffffffffffffffff811115612b5357612b52612606565b5b612b5f8482850161264d565b6060830152506080612b7384828501612595565b60808301525060a082015167ffffffffffffffff811115612b9757612b96612606565b5b612ba38482850161264d565b60a08301525060c0612bb7848285016124f0565b60c08301525060e0612bcb848285016124f0565b60e08301525061010082015167ffffffffffffffff811115612bf057612bef612606565b5b612bfc84828501612741565b6101008301525061012082015167ffffffffffffffff811115612c2257612c21612606565b5b612c2e84828501612741565b6101208301525061014082015167ffffffffffffffff811115612c5457612c53612606565b5b612c6084828501612741565b6101408301525092915050565b600060208284031215612c8357612c82611a02565b5b600082015167ffffffffffffffff811115612ca157612ca0611a07565b5b612cad84828501612ad5565b91505092915050565b6000612cc182611bc7565b9150612ccc83611bc7565b9250828203905081811115612ce457612ce3612532565b5b92915050565b60006060820190508181036000830152612d048186612220565b9050612d13602083018561227b565b612d20604083018461227b565b949350505050565b600081905092915050565b6000612d3e82611be0565b612d488185612d28565b9350612d58818560208601611bfc565b80840191505092915050565b6000612d708284612d33565b915081905092915050565b60006040820190508181036000830152612d958185612220565b9050612da4602083018461227b565b9392505050565b60006040820190508181036000830152612dc58185612220565b9050612dd460208301846125d7565b939250505056fea264697066735822122027954c2bc63e4582bcb0cd6173a091a9ab3cde05287799e1a209c4967b9014c364736f6c63430008140033",
  "linkReferences": {},
  "deployedLinkReferences": {}
}