{
  "_format": "hh-sol-artifact-1",
  "contractName": "FRDBettingFeatures",
  "sourceName": "contracts/FRDBettingFeatures.sol",
  "abi": [
    {
      "inputs": [
        {
          "internalType": "address",
          "name": "_frdBettingAddress",
          "type": "address"
        }
      ],
      "stateMutability": "nonpayable",
      "type": "constructor"
    },
    {
      "inputs": [],
      "name": "ReentrancyGuardReentrantCall",
      "type": "error"
    },
    {
      "inputs": [
        {
          "internalType": "uint256",
          "name": "_betId",
          "type": "uint256"
        },
        {
          "internalType": "string",
          "name": "_betstatus",
          "type": "string"
        }
      ],
      "name": "compareBetStatus",
      "outputs": [
        {
          "internalType": "bool",
          "name": "",
          "type": "bool"
        }
      ],
      "stateMutability": "view",
      "type": "function"
    },
    {
      "inputs": [
        {
          "internalType": "address",
          "name": "_user",
          "type": "address"
        }
      ],
      "name": "getBetIdsCreatedByUserCount",
      "outputs": [
        {
          "internalType": "uint256",
          "name": "",
          "type": "uint256"
        }
      ],
      "stateMutability": "view",
      "type": "function"
    },
    {
      "inputs": [
        {
          "internalType": "address",
          "name": "_user",
          "type": "address"
        }
      ],
      "name": "getBetIdsUserJoinedCount",
      "outputs": [
        {
          "internalType": "uint256",
          "name": "",
          "type": "uint256"
        }
      ],
      "stateMutability": "view",
      "type": "function"
    },
    {
      "inputs": [
        {
          "internalType": "uint256",
          "name": "_betId",
          "type": "uint256"
        }
      ],
      "name": "getBetStatus",
      "outputs": [
        {
          "internalType": "string",
          "name": "",
          "type": "string"
        }
      ],
      "stateMutability": "view",
      "type": "function"
    },
    {
      "inputs": [
        {
          "internalType": "uint256",
          "name": "amount",
          "type": "uint256"
        }
      ],
      "name": "getBetsByAmount",
      "outputs": [
        {
          "components": [
            {
              "internalType": "uint256",
              "name": "betId",
              "type": "uint256"
            },
            {
              "internalType": "uint256",
              "name": "matchId",
              "type": "uint256"
            },
            {
              "internalType": "uint256",
              "name": "uniquebetId",
              "type": "uint256"
            },
            {
              "internalType": "uint256",
              "name": "betamount",
              "type": "uint256"
            },
            {
              "internalType": "string",
              "name": "matchfixture",
              "type": "string"
            },
            {
              "internalType": "address",
              "name": "openedBy",
              "type": "address"
            },
            {
              "internalType": "string",
              "name": "betstatus",
              "type": "string"
            },
            {
              "internalType": "uint256",
              "name": "totalbetparticipantscount",
              "type": "uint256"
            },
            {
              "internalType": "uint256",
              "name": "remainingparticipantscount",
              "type": "uint256"
            },
            {
              "internalType": "address[]",
              "name": "participants",
              "type": "address[]"
            },
            {
              "internalType": "address[]",
              "name": "betwinners",
              "type": "address[]"
            },
            {
              "internalType": "address[]",
              "name": "betlosers",
              "type": "address[]"
            }
          ],
          "internalType": "struct Bet[]",
          "name": "",
          "type": "tuple[]"
        }
      ],
      "stateMutability": "view",
      "type": "function"
    },
    {
      "inputs": [
        {
          "internalType": "string",
          "name": "_betstatus",
          "type": "string"
        }
      ],
      "name": "getBetsByStatus",
      "outputs": [
        {
          "components": [
            {
              "internalType": "uint256",
              "name": "betId",
              "type": "uint256"
            },
            {
              "internalType": "uint256",
              "name": "matchId",
              "type": "uint256"
            },
            {
              "internalType": "uint256",
              "name": "uniquebetId",
              "type": "uint256"
            },
            {
              "internalType": "uint256",
              "name": "betamount",
              "type": "uint256"
            },
            {
              "internalType": "string",
              "name": "matchfixture",
              "type": "string"
            },
            {
              "internalType": "address",
              "name": "openedBy",
              "type": "address"
            },
            {
              "internalType": "string",
              "name": "betstatus",
              "type": "string"
            },
            {
              "internalType": "uint256",
              "name": "totalbetparticipantscount",
              "type": "uint256"
            },
            {
              "internalType": "uint256",
              "name": "remainingparticipantscount",
              "type": "uint256"
            },
            {
              "internalType": "address[]",
              "name": "participants",
              "type": "address[]"
            },
            {
              "internalType": "address[]",
              "name": "betwinners",
              "type": "address[]"
            },
            {
              "internalType": "address[]",
              "name": "betlosers",
              "type": "address[]"
            }
          ],
          "internalType": "struct Bet[]",
          "name": "",
          "type": "tuple[]"
        }
      ],
      "stateMutability": "view",
      "type": "function"
    },
    {
      "inputs": [
        {
          "internalType": "string",
          "name": "_username",
          "type": "string"
        }
      ],
      "name": "getBetsByUsername",
      "outputs": [
        {
          "components": [
            {
              "internalType": "uint256",
              "name": "betId",
              "type": "uint256"
            },
            {
              "internalType": "uint256",
              "name": "matchId",
              "type": "uint256"
            },
            {
              "internalType": "uint256",
              "name": "uniquebetId",
              "type": "uint256"
            },
            {
              "internalType": "uint256",
              "name": "betamount",
              "type": "uint256"
            },
            {
              "internalType": "string",
              "name": "matchfixture",
              "type": "string"
            },
            {
              "internalType": "address",
              "name": "openedBy",
              "type": "address"
            },
            {
              "internalType": "string",
              "name": "betstatus",
              "type": "string"
            },
            {
              "internalType": "uint256",
              "name": "totalbetparticipantscount",
              "type": "uint256"
            },
            {
              "internalType": "uint256",
              "name": "remainingparticipantscount",
              "type": "uint256"
            },
            {
              "internalType": "address[]",
              "name": "participants",
              "type": "address[]"
            },
            {
              "internalType": "address[]",
              "name": "betwinners",
              "type": "address[]"
            },
            {
              "internalType": "address[]",
              "name": "betlosers",
              "type": "address[]"
            }
          ],
          "internalType": "struct Bet[]",
          "name": "",
          "type": "tuple[]"
        }
      ],
      "stateMutability": "view",
      "type": "function"
    },
    {
      "inputs": [
        {
          "internalType": "address",
          "name": "_user",
          "type": "address"
        }
      ],
      "name": "getBetsByWallet",
      "outputs": [
        {
          "components": [
            {
              "internalType": "uint256",
              "name": "betId",
              "type": "uint256"
            },
            {
              "internalType": "uint256",
              "name": "matchId",
              "type": "uint256"
            },
            {
              "internalType": "uint256",
              "name": "uniquebetId",
              "type": "uint256"
            },
            {
              "internalType": "uint256",
              "name": "betamount",
              "type": "uint256"
            },
            {
              "internalType": "string",
              "name": "matchfixture",
              "type": "string"
            },
            {
              "internalType": "address",
              "name": "openedBy",
              "type": "address"
            },
            {
              "internalType": "string",
              "name": "betstatus",
              "type": "string"
            },
            {
              "internalType": "uint256",
              "name": "totalbetparticipantscount",
              "type": "uint256"
            },
            {
              "internalType": "uint256",
              "name": "remainingparticipantscount",
              "type": "uint256"
            },
            {
              "internalType": "address[]",
              "name": "participants",
              "type": "address[]"
            },
            {
              "internalType": "address[]",
              "name": "betwinners",
              "type": "address[]"
            },
            {
              "internalType": "address[]",
              "name": "betlosers",
              "type": "address[]"
            }
          ],
          "internalType": "struct Bet[]",
          "name": "",
          "type": "tuple[]"
        }
      ],
      "stateMutability": "view",
      "type": "function"
    },
    {
      "inputs": [
        {
          "internalType": "uint256",
          "name": "_betId",
          "type": "uint256"
        }
      ],
      "name": "getBetsMapping",
      "outputs": [
        {
          "components": [
            {
              "internalType": "uint256",
              "name": "betId",
              "type": "uint256"
            },
            {
              "internalType": "uint256",
              "name": "matchId",
              "type": "uint256"
            },
            {
              "internalType": "uint256",
              "name": "uniquebetId",
              "type": "uint256"
            },
            {
              "internalType": "uint256",
              "name": "betamount",
              "type": "uint256"
            },
            {
              "internalType": "string",
              "name": "matchfixture",
              "type": "string"
            },
            {
              "internalType": "address",
              "name": "openedBy",
              "type": "address"
            },
            {
              "internalType": "string",
              "name": "betstatus",
              "type": "string"
            },
            {
              "internalType": "uint256",
              "name": "totalbetparticipantscount",
              "type": "uint256"
            },
            {
              "internalType": "uint256",
              "name": "remainingparticipantscount",
              "type": "uint256"
            },
            {
              "internalType": "address[]",
              "name": "participants",
              "type": "address[]"
            },
            {
              "internalType": "address[]",
              "name": "betwinners",
              "type": "address[]"
            },
            {
              "internalType": "address[]",
              "name": "betlosers",
              "type": "address[]"
            }
          ],
          "internalType": "struct Bet",
          "name": "",
          "type": "tuple"
        }
      ],
      "stateMutability": "view",
      "type": "function"
    },
    {
      "inputs": [
        {
          "internalType": "address",
          "name": "_user",
          "type": "address"
        }
      ],
      "name": "getUserRegistrationDetails",
      "outputs": [
        {
          "components": [
            {
              "internalType": "uint256",
              "name": "userId",
              "type": "uint256"
            },
            {
              "internalType": "string",
              "name": "username",
              "type": "string"
            },
            {
              "internalType": "uint256",
              "name": "betCount",
              "type": "uint256"
            },
            {
              "internalType": "bool",
              "name": "hasActiveBet",
              "type": "bool"
            },
            {
              "internalType": "uint256",
              "name": "refCount",
              "type": "uint256"
            },
            {
              "internalType": "bool",
              "name": "registered",
              "type": "bool"
            },
            {
              "internalType": "bool",
              "name": "wasReferred",
              "type": "bool"
            },
            {
              "internalType": "address",
              "name": "sponsor",
              "type": "address"
            },
            {
              "internalType": "address",
              "name": "useraddress",
              "type": "address"
            },
            {
              "internalType": "address[]",
              "name": "referrals",
              "type": "address[]"
            }
          ],
          "internalType": "struct User",
          "name": "",
          "type": "tuple"
        }
      ],
      "stateMutability": "view",
      "type": "function"
    },
    {
      "inputs": [],
      "name": "listRegisteredUsers",
      "outputs": [
        {
          "components": [
            {
              "internalType": "uint256",
              "name": "userId",
              "type": "uint256"
            },
            {
              "internalType": "string",
              "name": "username",
              "type": "string"
            },
            {
              "internalType": "uint256",
              "name": "betCount",
              "type": "uint256"
            },
            {
              "internalType": "bool",
              "name": "hasActiveBet",
              "type": "bool"
            },
            {
              "internalType": "uint256",
              "name": "refCount",
              "type": "uint256"
            },
            {
              "internalType": "bool",
              "name": "registered",
              "type": "bool"
            },
            {
              "internalType": "bool",
              "name": "wasReferred",
              "type": "bool"
            },
            {
              "internalType": "address",
              "name": "sponsor",
              "type": "address"
            },
            {
              "internalType": "address",
              "name": "useraddress",
              "type": "address"
            },
            {
              "internalType": "address[]",
              "name": "referrals",
              "type": "address[]"
            }
          ],
          "internalType": "struct User[]",
          "name": "",
          "type": "tuple[]"
        }
      ],
      "stateMutability": "view",
      "type": "function"
    },
    {
      "inputs": [],
      "name": "loadAllBets",
      "outputs": [
        {
          "components": [
            {
              "internalType": "uint256",
              "name": "betId",
              "type": "uint256"
            },
            {
              "internalType": "uint256",
              "name": "matchId",
              "type": "uint256"
            },
            {
              "internalType": "uint256",
              "name": "uniquebetId",
              "type": "uint256"
            },
            {
              "internalType": "uint256",
              "name": "betamount",
              "type": "uint256"
            },
            {
              "internalType": "string",
              "name": "matchfixture",
              "type": "string"
            },
            {
              "internalType": "address",
              "name": "openedBy",
              "type": "address"
            },
            {
              "internalType": "string",
              "name": "betstatus",
              "type": "string"
            },
            {
              "internalType": "uint256",
              "name": "totalbetparticipantscount",
              "type": "uint256"
            },
            {
              "internalType": "uint256",
              "name": "remainingparticipantscount",
              "type": "uint256"
            },
            {
              "internalType": "address[]",
              "name": "participants",
              "type": "address[]"
            },
            {
              "internalType": "address[]",
              "name": "betwinners",
              "type": "address[]"
            },
            {
              "internalType": "address[]",
              "name": "betlosers",
              "type": "address[]"
            }
          ],
          "internalType": "struct Bet[]",
          "name": "",
          "type": "tuple[]"
        }
      ],
      "stateMutability": "view",
      "type": "function"
    },
    {
      "inputs": [],
      "name": "nextBetId",
      "outputs": [
        {
          "internalType": "uint256",
          "name": "",
          "type": "uint256"
        }
      ],
      "stateMutability": "view",
      "type": "function"
    },
    {
      "inputs": [],
      "name": "nextUserId",
      "outputs": [
        {
          "internalType": "uint256",
          "name": "",
          "type": "uint256"
        }
      ],
      "stateMutability": "view",
      "type": "function"
    }
  ],
  "bytecode": "0x60806040523480156200001157600080fd5b5060405162002f1b38038062002f1b833981810160405281019062000037919062000132565b600160008190555080600160006101000a81548173ffffffffffffffffffffffffffffffffffffffff021916908373ffffffffffffffffffffffffffffffffffffffff16021790555033600260006101000a81548173ffffffffffffffffffffffffffffffffffffffff021916908373ffffffffffffffffffffffffffffffffffffffff1602179055505062000164565b600080fd5b600073ffffffffffffffffffffffffffffffffffffffff82169050919050565b6000620000fa82620000cd565b9050919050565b6200010c81620000ed565b81146200011857600080fd5b50565b6000815190506200012c8162000101565b92915050565b6000602082840312156200014b576200014a620000c8565b5b60006200015b848285016200011b565b91505092915050565b612da780620001746000396000f3fe608060405234801561001057600080fd5b50600436106100ea5760003560e01c80639aca27921161008c578063aa265bb611610066578063aa265bb614610287578063db8e19a5146102b7578063eb6821a5146102e7578063ef6252a814610317576100ea565b80639aca27921461022d578063a1e6a2551461024b578063a4b427c414610269576100ea565b80634ddfc302116100c85780634ddfc3021461017f578063531eb077146101af5780635984c81f146101df57806361f14f11146101fd576100ea565b8063048e6bfd146100ef5780631d0acdda1461011f57806325f5faf31461014f575b600080fd5b61010960048036038101906101049190611b46565b610347565b6040516101169190611ef9565b60405180910390f35b61013960048036038101906101349190611f47565b6105b2565b6040516101469190611ef9565b60405180910390f35b61016960048036038101906101649190611fa0565b61085d565b6040516101769190611ef9565b60405180910390f35b61019960048036038101906101949190611f47565b610c2f565b6040516101a691906120ed565b60405180910390f35b6101c960048036038101906101c49190611fa0565b610cdf565b6040516101d6919061220b565b60405180910390f35b6101e7610d8f565b6040516101f49190611ef9565b60405180910390f35b61021760048036038101906102129190611f47565b610f79565b6040516102249190612277565b60405180910390f35b610235611027565b60405161024291906122a8565b60405180910390f35b6102536110bf565b60405161026091906122a8565b60405180910390f35b610271611157565b60405161027e9190612466565b60405180910390f35b6102a1600480360381019061029c9190611b46565b6113e2565b6040516102ae9190611ef9565b60405180910390f35b6102d160048036038101906102cc9190611fa0565b611695565b6040516102de91906122a8565b60405180910390f35b61030160048036038101906102fc9190611fa0565b61173a565b60405161030e91906122a8565b60405180910390f35b610331600480360381019061032c9190612488565b6117df565b60405161033e91906124f3565b60405180910390f35b60606000600160009054906101000a900473ffffffffffffffffffffffffffffffffffffffff1673ffffffffffffffffffffffffffffffffffffffff1663a1e6a2556040518163ffffffff1660e01b8152600401602060405180830381865afa1580156103b8573d6000803e3d6000fd5b505050506040513d601f19601f820116820180604052508101906103dc9190612523565b90506000806000905060005b83811161055e576000600160009054906101000a900473ffffffffffffffffffffffffffffffffffffffff1673ffffffffffffffffffffffffffffffffffffffff1663b1695201836040518263ffffffff1660e01b815260040161044c91906122a8565b602060405180830381865afa158015610469573d6000803e3d6000fd5b505050506040513d601f19601f8201168201806040525081019061048d9190612565565b905061053d600160009054906101000a900473ffffffffffffffffffffffffffffffffffffffff1673ffffffffffffffffffffffffffffffffffffffff1663531eb077836040518263ffffffff1660e01b81526004016104ed91906125a1565b600060405180830381865afa15801561050a573d6000803e3d6000fd5b505050506040513d6000823e3d601f19601f820116820180604052508101906105339190612858565b6020015188611897565b1561054a57809350600192505b508080610556906128d0565b9150506103e8565b508061059f576040517f08c379a000000000000000000000000000000000000000000000000000000000815260040161059690612964565b60405180910390fd5b6105a88261085d565b9350505050919050565b60606000600160009054906101000a900473ffffffffffffffffffffffffffffffffffffffff1673ffffffffffffffffffffffffffffffffffffffff16639aca27926040518163ffffffff1660e01b8152600401602060405180830381865afa158015610623573d6000803e3d6000fd5b505050506040513d601f19601f820116820180604052508101906106479190612523565b90506000808267ffffffffffffffff81111561066657610665611a1b565b5b60405190808252806020026020018201604052801561069f57816020015b61068c6118f0565b8152602001906001900390816106845790505b50905060005b8381116108515760006001826106bb9190612984565b905086600160009054906101000a900473ffffffffffffffffffffffffffffffffffffffff1673ffffffffffffffffffffffffffffffffffffffff16634ddfc302836040518263ffffffff1660e01b815260040161071991906122a8565b600060405180830381865afa158015610736573d6000803e3d6000fd5b505050506040513d6000823e3d601f19601f8201168201806040525081019061075f9190612b66565b606001511061083d576000600160009054906101000a900473ffffffffffffffffffffffffffffffffffffffff1673ffffffffffffffffffffffffffffffffffffffff16634ddfc302836040518263ffffffff1660e01b81526004016107c591906122a8565b600060405180830381865afa1580156107e2573d6000803e3d6000fd5b505050506040513d6000823e3d601f19601f8201168201806040525081019061080b9190612b66565b90508084868151811061082157610820612baf565b5b60200260200101819052506001856108399190612984565b9450505b508080610849906128d0565b9150506106a5565b50809350505050919050565b60606000600160009054906101000a900473ffffffffffffffffffffffffffffffffffffffff1673ffffffffffffffffffffffffffffffffffffffff16637b414882846040518263ffffffff1660e01b81526004016108bc91906125a1565b600060405180830381865afa1580156108d9573d6000803e3d6000fd5b505050506040513d6000823e3d601f19601f820116820180604052508101906109029190612ca1565b90506000600160009054906101000a900473ffffffffffffffffffffffffffffffffffffffff1673ffffffffffffffffffffffffffffffffffffffff1663022bd8bf856040518263ffffffff1660e01b815260040161096191906125a1565b600060405180830381865afa15801561097e573d6000803e3d6000fd5b505050506040513d6000823e3d601f19601f820116820180604052508101906109a79190612ca1565b905060008251905060008167ffffffffffffffff8111156109cb576109ca611a1b565b5b604051908082528060200260200182016040528015610a0457816020015b6109f16118f0565b8152602001906001900390816109e95790505b5090506000805b8551811015610b14576000600160009054906101000a900473ffffffffffffffffffffffffffffffffffffffff1673ffffffffffffffffffffffffffffffffffffffff16634ddfc302888481518110610a6757610a66612baf565b5b60200260200101516040518263ffffffff1660e01b8152600401610a8b91906122a8565b600060405180830381865afa158015610aa8573d6000803e3d6000fd5b505050506040513d6000823e3d601f19601f82011682018060405250810190610ad19190612b66565b905080848481518110610ae757610ae6612baf565b5b60200260200101819052508280610afd906128d0565b935050508080610b0c906128d0565b915050610a0b565b5060005b8451811015610c21576000600160009054906101000a900473ffffffffffffffffffffffffffffffffffffffff1673ffffffffffffffffffffffffffffffffffffffff16634ddfc302878481518110610b7457610b73612baf565b5b60200260200101516040518263ffffffff1660e01b8152600401610b9891906122a8565b600060405180830381865afa158015610bb5573d6000803e3d6000fd5b505050506040513d6000823e3d601f19601f82011682018060405250810190610bde9190612b66565b905080848481518110610bf457610bf3612baf565b5b60200260200101819052508280610c0a906128d0565b935050508080610c19906128d0565b915050610b18565b508195505050505050919050565b610c376118f0565b600160009054906101000a900473ffffffffffffffffffffffffffffffffffffffff1673ffffffffffffffffffffffffffffffffffffffff16634ddfc302836040518263ffffffff1660e01b8152600401610c9291906122a8565b600060405180830381865afa158015610caf573d6000803e3d6000fd5b505050506040513d6000823e3d601f19601f82011682018060405250810190610cd89190612b66565b9050919050565b610ce7611967565b600160009054906101000a900473ffffffffffffffffffffffffffffffffffffffff1673ffffffffffffffffffffffffffffffffffffffff1663531eb077836040518263ffffffff1660e01b8152600401610d4291906125a1565b600060405180830381865afa158015610d5f573d6000803e3d6000fd5b505050506040513d6000823e3d601f19601f82011682018060405250810190610d889190612858565b9050919050565b60606000600160009054906101000a900473ffffffffffffffffffffffffffffffffffffffff1673ffffffffffffffffffffffffffffffffffffffff16639aca27926040518163ffffffff1660e01b8152600401602060405180830381865afa158015610e00573d6000803e3d6000fd5b505050506040513d601f19601f82011682018060405250810190610e249190612523565b905060008167ffffffffffffffff811115610e4257610e41611a1b565b5b604051908082528060200260200182016040528015610e7b57816020015b610e686118f0565b815260200190600190039081610e605790505b5090506000600190505b828111610f70576000600160009054906101000a900473ffffffffffffffffffffffffffffffffffffffff1673ffffffffffffffffffffffffffffffffffffffff16634ddfc302836040518263ffffffff1660e01b8152600401610ee991906122a8565b600060405180830381865afa158015610f06573d6000803e3d6000fd5b505050506040513d6000823e3d601f19601f82011682018060405250810190610f2f9190612b66565b90508083600184610f409190612cea565b81518110610f5157610f50612baf565b5b6020026020010181905250508080610f68906128d0565b915050610e85565b50809250505090565b6060600160009054906101000a900473ffffffffffffffffffffffffffffffffffffffff1673ffffffffffffffffffffffffffffffffffffffff16634ddfc302836040518263ffffffff1660e01b8152600401610fd691906122a8565b600060405180830381865afa158015610ff3573d6000803e3d6000fd5b505050506040513d6000823e3d601f19601f8201168201806040525081019061101c9190612b66565b60c001519050919050565b6000600160009054906101000a900473ffffffffffffffffffffffffffffffffffffffff1673ffffffffffffffffffffffffffffffffffffffff16639aca27926040518163ffffffff1660e01b8152600401602060405180830381865afa158015611096573d6000803e3d6000fd5b505050506040513d601f19601f820116820180604052508101906110ba9190612523565b905090565b6000600160009054906101000a900473ffffffffffffffffffffffffffffffffffffffff1673ffffffffffffffffffffffffffffffffffffffff1663a1e6a2556040518163ffffffff1660e01b8152600401602060405180830381865afa15801561112e573d6000803e3d6000fd5b505050506040513d601f19601f820116820180604052508101906111529190612523565b905090565b60606000600160009054906101000a900473ffffffffffffffffffffffffffffffffffffffff1673ffffffffffffffffffffffffffffffffffffffff1663a1e6a2556040518163ffffffff1660e01b8152600401602060405180830381865afa1580156111c8573d6000803e3d6000fd5b505050506040513d601f19601f820116820180604052508101906111ec9190612523565b905060008167ffffffffffffffff81111561120a57611209611a1b565b5b60405190808252806020026020018201604052801561124357816020015b611230611967565b8152602001906001900390816112285790505b5090506000600190505b8281116113d9576000600160009054906101000a900473ffffffffffffffffffffffffffffffffffffffff1673ffffffffffffffffffffffffffffffffffffffff1663b1695201836040518263ffffffff1660e01b81526004016112b191906122a8565b602060405180830381865afa1580156112ce573d6000803e3d6000fd5b505050506040513d601f19601f820116820180604052508101906112f29190612565565b90506000600160009054906101000a900473ffffffffffffffffffffffffffffffffffffffff1673ffffffffffffffffffffffffffffffffffffffff1663531eb077836040518263ffffffff1660e01b815260040161135191906125a1565b600060405180830381865afa15801561136e573d6000803e3d6000fd5b505050506040513d6000823e3d601f19601f820116820180604052508101906113979190612858565b905080846001856113a89190612cea565b815181106113b9576113b8612baf565b5b6020026020010181905250505080806113d1906128d0565b91505061124d565b50809250505090565b60606000600160009054906101000a900473ffffffffffffffffffffffffffffffffffffffff1673ffffffffffffffffffffffffffffffffffffffff16639aca27926040518163ffffffff1660e01b8152600401602060405180830381865afa158015611453573d6000803e3d6000fd5b505050506040513d601f19601f820116820180604052508101906114779190612523565b90506000808267ffffffffffffffff81111561149657611495611a1b565b5b6040519080825280602002602001820160405280156114cf57816020015b6114bc6118f0565b8152602001906001900390816114b45790505b50905060005b8381116116895760006001826114eb9190612984565b905061159b600160009054906101000a900473ffffffffffffffffffffffffffffffffffffffff1673ffffffffffffffffffffffffffffffffffffffff16634ddfc302836040518263ffffffff1660e01b815260040161154b91906122a8565b600060405180830381865afa158015611568573d6000803e3d6000fd5b505050506040513d6000823e3d601f19601f820116820180604052508101906115919190612b66565b60c0015188611897565b15611675576000600160009054906101000a900473ffffffffffffffffffffffffffffffffffffffff1673ffffffffffffffffffffffffffffffffffffffff16634ddfc302836040518263ffffffff1660e01b81526004016115fd91906122a8565b600060405180830381865afa15801561161a573d6000803e3d6000fd5b505050506040513d6000823e3d601f19601f820116820180604052508101906116439190612b66565b90508084868151811061165957611658612baf565b5b60200260200101819052506001856116719190612984565b9450505b508080611681906128d0565b9150506114d5565b50809350505050919050565b6000600160009054906101000a900473ffffffffffffffffffffffffffffffffffffffff1673ffffffffffffffffffffffffffffffffffffffff1663db8e19a5836040518263ffffffff1660e01b81526004016116f291906125a1565b602060405180830381865afa15801561170f573d6000803e3d6000fd5b505050506040513d601f19601f820116820180604052508101906117339190612523565b9050919050565b6000600160009054906101000a900473ffffffffffffffffffffffffffffffffffffffff1673ffffffffffffffffffffffffffffffffffffffff1663eb6821a5836040518263ffffffff1660e01b815260040161179791906125a1565b602060405180830381865afa1580156117b4573d6000803e3d6000fd5b505050506040513d601f19601f820116820180604052508101906117d89190612523565b9050919050565b600061188f600160009054906101000a900473ffffffffffffffffffffffffffffffffffffffff1673ffffffffffffffffffffffffffffffffffffffff16634ddfc302856040518263ffffffff1660e01b815260040161183f91906122a8565b600060405180830381865afa15801561185c573d6000803e3d6000fd5b505050506040513d6000823e3d601f19601f820116820180604052508101906118859190612b66565b60c0015183611897565b905092915050565b6000816040516020016118aa9190612d5a565b60405160208183030381529060405280519060200120836040516020016118d19190612d5a565b6040516020818303038152906040528051906020012014905092915050565b6040518061018001604052806000815260200160008152602001600081526020016000815260200160608152602001600073ffffffffffffffffffffffffffffffffffffffff1681526020016060815260200160008152602001600081526020016060815260200160608152602001606081525090565b60405180610140016040528060008152602001606081526020016000815260200160001515815260200160008152602001600015158152602001600015158152602001600073ffffffffffffffffffffffffffffffffffffffff168152602001600073ffffffffffffffffffffffffffffffffffffffff168152602001606081525090565b6000604051905090565b600080fd5b600080fd5b600080fd5b600080fd5b6000601f19601f8301169050919050565b7f4e487b7100000000000000000000000000000000000000000000000000000000600052604160045260246000fd5b611a5382611a0a565b810181811067ffffffffffffffff82111715611a7257611a71611a1b565b5b80604052505050565b6000611a856119ec565b9050611a918282611a4a565b919050565b600067ffffffffffffffff821115611ab157611ab0611a1b565b5b611aba82611a0a565b9050602081019050919050565b82818337600083830152505050565b6000611ae9611ae484611a96565b611a7b565b905082815260208101848484011115611b0557611b04611a05565b5b611b10848285611ac7565b509392505050565b600082601f830112611b2d57611b2c611a00565b5b8135611b3d848260208601611ad6565b91505092915050565b600060208284031215611b5c57611b5b6119f6565b5b600082013567ffffffffffffffff811115611b7a57611b796119fb565b5b611b8684828501611b18565b91505092915050565b600081519050919050565b600082825260208201905092915050565b6000819050602082019050919050565b6000819050919050565b611bce81611bbb565b82525050565b600081519050919050565b600082825260208201905092915050565b60005b83811015611c0e578082015181840152602081019050611bf3565b60008484015250505050565b6000611c2582611bd4565b611c2f8185611bdf565b9350611c3f818560208601611bf0565b611c4881611a0a565b840191505092915050565b600073ffffffffffffffffffffffffffffffffffffffff82169050919050565b6000611c7e82611c53565b9050919050565b611c8e81611c73565b82525050565b600081519050919050565b600082825260208201905092915050565b6000819050602082019050919050565b6000611ccc8383611c85565b60208301905092915050565b6000602082019050919050565b6000611cf082611c94565b611cfa8185611c9f565b9350611d0583611cb0565b8060005b83811015611d36578151611d1d8882611cc0565b9750611d2883611cd8565b925050600181019050611d09565b5085935050505092915050565b600061018083016000830151611d5c6000860182611bc5565b506020830151611d6f6020860182611bc5565b506040830151611d826040860182611bc5565b506060830151611d956060860182611bc5565b5060808301518482036080860152611dad8282611c1a565b91505060a0830151611dc260a0860182611c85565b5060c083015184820360c0860152611dda8282611c1a565b91505060e0830151611def60e0860182611bc5565b50610100830151611e04610100860182611bc5565b50610120830151848203610120860152611e1e8282611ce5565b915050610140830151848203610140860152611e3a8282611ce5565b915050610160830151848203610160860152611e568282611ce5565b9150508091505092915050565b6000611e6f8383611d43565b905092915050565b6000602082019050919050565b6000611e8f82611b8f565b611e998185611b9a565b935083602082028501611eab85611bab565b8060005b85811015611ee75784840389528151611ec88582611e63565b9450611ed383611e77565b925060208a01995050600181019050611eaf565b50829750879550505050505092915050565b60006020820190508181036000830152611f138184611e84565b905092915050565b611f2481611bbb565b8114611f2f57600080fd5b50565b600081359050611f4181611f1b565b92915050565b600060208284031215611f5d57611f5c6119f6565b5b6000611f6b84828501611f32565b91505092915050565b611f7d81611c73565b8114611f8857600080fd5b50565b600081359050611f9a81611f74565b92915050565b600060208284031215611fb657611fb56119f6565b5b6000611fc484828501611f8b565b91505092915050565b600061018083016000830151611fe66000860182611bc5565b506020830151611ff96020860182611bc5565b50604083015161200c6040860182611bc5565b50606083015161201f6060860182611bc5565b50608083015184820360808601526120378282611c1a565b91505060a083015161204c60a0860182611c85565b5060c083015184820360c08601526120648282611c1a565b91505060e083015161207960e0860182611bc5565b5061010083015161208e610100860182611bc5565b506101208301518482036101208601526120a88282611ce5565b9150506101408301518482036101408601526120c48282611ce5565b9150506101608301518482036101608601526120e08282611ce5565b9150508091505092915050565b600060208201905081810360008301526121078184611fcd565b905092915050565b60008115159050919050565b6121248161210f565b82525050565b6000610140830160008301516121436000860182611bc5565b506020830151848203602086015261215b8282611c1a565b91505060408301516121706040860182611bc5565b506060830151612183606086018261211b565b5060808301516121966080860182611bc5565b5060a08301516121a960a086018261211b565b5060c08301516121bc60c086018261211b565b5060e08301516121cf60e0860182611c85565b506101008301516121e4610100860182611c85565b506101208301518482036101208601526121fe8282611ce5565b9150508091505092915050565b60006020820190508181036000830152612225818461212a565b905092915050565b600082825260208201905092915050565b600061224982611bd4565b612253818561222d565b9350612263818560208601611bf0565b61226c81611a0a565b840191505092915050565b60006020820190508181036000830152612291818461223e565b905092915050565b6122a281611bbb565b82525050565b60006020820190506122bd6000830184612299565b92915050565b600081519050919050565b600082825260208201905092915050565b6000819050602082019050919050565b6000610140830160008301516123086000860182611bc5565b50602083015184820360208601526123208282611c1a565b91505060408301516123356040860182611bc5565b506060830151612348606086018261211b565b50608083015161235b6080860182611bc5565b5060a083015161236e60a086018261211b565b5060c083015161238160c086018261211b565b5060e083015161239460e0860182611c85565b506101008301516123a9610100860182611c85565b506101208301518482036101208601526123c38282611ce5565b9150508091505092915050565b60006123dc83836122ef565b905092915050565b6000602082019050919050565b60006123fc826122c3565b61240681856122ce565b935083602082028501612418856122df565b8060005b85811015612454578484038952815161243585826123d0565b9450612440836123e4565b925060208a0199505060018101905061241c565b50829750879550505050505092915050565b6000602082019050818103600083015261248081846123f1565b905092915050565b6000806040838503121561249f5761249e6119f6565b5b60006124ad85828601611f32565b925050602083013567ffffffffffffffff8111156124ce576124cd6119fb565b5b6124da85828601611b18565b9150509250929050565b6124ed8161210f565b82525050565b600060208201905061250860008301846124e4565b92915050565b60008151905061251d81611f1b565b92915050565b600060208284031215612539576125386119f6565b5b60006125478482850161250e565b91505092915050565b60008151905061255f81611f74565b92915050565b60006020828403121561257b5761257a6119f6565b5b600061258984828501612550565b91505092915050565b61259b81611c73565b82525050565b60006020820190506125b66000830184612592565b92915050565b600080fd5b600080fd5b60006125d96125d484611a96565b611a7b565b9050828152602081018484840111156125f5576125f4611a05565b5b612600848285611bf0565b509392505050565b600082601f83011261261d5761261c611a00565b5b815161262d8482602086016125c6565b91505092915050565b61263f8161210f565b811461264a57600080fd5b50565b60008151905061265c81612636565b92915050565b600067ffffffffffffffff82111561267d5761267c611a1b565b5b602082029050602081019050919050565b600080fd5b60006126a66126a184612662565b611a7b565b905080838252602082019050602084028301858111156126c9576126c861268e565b5b835b818110156126f257806126de8882612550565b8452602084019350506020810190506126cb565b5050509392505050565b600082601f83011261271157612710611a00565b5b8151612721848260208601612693565b91505092915050565b60006101408284031215612741576127406125bc565b5b61274c610140611a7b565b9050600061275c8482850161250e565b600083015250602082015167ffffffffffffffff8111156127805761277f6125c1565b5b61278c84828501612608565b60208301525060406127a08482850161250e565b60408301525060606127b48482850161264d565b60608301525060806127c88482850161250e565b60808301525060a06127dc8482850161264d565b60a08301525060c06127f08482850161264d565b60c08301525060e061280484828501612550565b60e08301525061010061281984828501612550565b6101008301525061012082015167ffffffffffffffff81111561283f5761283e6125c1565b5b61284b848285016126fc565b6101208301525092915050565b60006020828403121561286e5761286d6119f6565b5b600082015167ffffffffffffffff81111561288c5761288b6119fb565b5b6128988482850161272a565b91505092915050565b7f4e487b7100000000000000000000000000000000000000000000000000000000600052601160045260246000fd5b60006128db82611bbb565b91507fffffffffffffffffffffffffffffffffffffffffffffffffffffffffffffffff820361290d5761290c6128a1565b5b600182019050919050565b7f55736572206e6f7420666f756e64000000000000000000000000000000000000600082015250565b600061294e600e8361222d565b915061295982612918565b602082019050919050565b6000602082019050818103600083015261297d81612941565b9050919050565b600061298f82611bbb565b915061299a83611bbb565b92508282019050808211156129b2576129b16128a1565b5b92915050565b600061018082840312156129cf576129ce6125bc565b5b6129da610180611a7b565b905060006129ea8482850161250e565b60008301525060206129fe8482850161250e565b6020830152506040612a128482850161250e565b6040830152506060612a268482850161250e565b606083015250608082015167ffffffffffffffff811115612a4a57612a496125c1565b5b612a5684828501612608565b60808301525060a0612a6a84828501612550565b60a08301525060c082015167ffffffffffffffff811115612a8e57612a8d6125c1565b5b612a9a84828501612608565b60c08301525060e0612aae8482850161250e565b60e083015250610100612ac38482850161250e565b6101008301525061012082015167ffffffffffffffff811115612ae957612ae86125c1565b5b612af5848285016126fc565b6101208301525061014082015167ffffffffffffffff811115612b1b57612b1a6125c1565b5b612b27848285016126fc565b6101408301525061016082015167ffffffffffffffff811115612b4d57612b4c6125c1565b5b612b59848285016126fc565b6101608301525092915050565b600060208284031215612b7c57612b7b6119f6565b5b600082015167ffffffffffffffff811115612b9a57612b996119fb565b5b612ba6848285016129b8565b91505092915050565b7f4e487b7100000000000000000000000000000000000000000000000000000000600052603260045260246000fd5b600067ffffffffffffffff821115612bf957612bf8611a1b565b5b602082029050602081019050919050565b6000612c1d612c1884612bde565b611a7b565b90508083825260208201905060208402830185811115612c4057612c3f61268e565b5b835b81811015612c695780612c55888261250e565b845260208401935050602081019050612c42565b5050509392505050565b600082601f830112612c8857612c87611a00565b5b8151612c98848260208601612c0a565b91505092915050565b600060208284031215612cb757612cb66119f6565b5b600082015167ffffffffffffffff811115612cd557612cd46119fb565b5b612ce184828501612c73565b91505092915050565b6000612cf582611bbb565b9150612d0083611bbb565b9250828203905081811115612d1857612d176128a1565b5b92915050565b600081905092915050565b6000612d3482611bd4565b612d3e8185612d1e565b9350612d4e818560208601611bf0565b80840191505092915050565b6000612d668284612d29565b91508190509291505056fea2646970667358221220bef74cb54ecc5cbb441212321102b4bfbb3eabc966103b59f378022545b17b4a64736f6c63430008140033",
  "linkReferences": {},
  "deployedLinkReferences": {}
}