{
  "_format": "hh-sol-artifact-1",
  "contractName": "FRDBettingFeatures",
  "sourceName": "contracts/FRDBettingFeatures.sol",
  "abi": [
    {
      "inputs": [
        {
          "internalType": "address",
          "name": "_frdBettingAddress",
          "type": "address"
        }
      ],
      "stateMutability": "nonpayable",
      "type": "constructor"
    },
    {
      "inputs": [],
      "name": "ReentrancyGuardReentrantCall",
      "type": "error"
    },
    {
      "inputs": [
        {
          "internalType": "uint256",
          "name": "_betId",
          "type": "uint256"
        },
        {
          "internalType": "string",
          "name": "_betstatus",
          "type": "string"
        }
      ],
      "name": "compareBetStatus",
      "outputs": [
        {
          "internalType": "bool",
          "name": "",
          "type": "bool"
        }
      ],
      "stateMutability": "view",
      "type": "function"
    },
    {
      "inputs": [
        {
          "internalType": "address",
          "name": "_user",
          "type": "address"
        }
      ],
      "name": "getBetIdsCreatedByUserCount",
      "outputs": [
        {
          "internalType": "uint256",
          "name": "",
          "type": "uint256"
        }
      ],
      "stateMutability": "view",
      "type": "function"
    },
    {
      "inputs": [
        {
          "internalType": "address",
          "name": "_user",
          "type": "address"
        }
      ],
      "name": "getBetIdsUserJoinedCount",
      "outputs": [
        {
          "internalType": "uint256",
          "name": "",
          "type": "uint256"
        }
      ],
      "stateMutability": "view",
      "type": "function"
    },
    {
      "inputs": [
        {
          "internalType": "uint256",
          "name": "_betId",
          "type": "uint256"
        }
      ],
      "name": "getBetStatus",
      "outputs": [
        {
          "internalType": "string",
          "name": "",
          "type": "string"
        }
      ],
      "stateMutability": "view",
      "type": "function"
    },
    {
      "inputs": [
        {
          "internalType": "string",
          "name": "_betstatus",
          "type": "string"
        }
      ],
      "name": "getBetsByStatus",
      "outputs": [
        {
          "components": [
            {
              "internalType": "uint256",
              "name": "betId",
              "type": "uint256"
            },
            {
              "internalType": "uint256",
              "name": "matchId",
              "type": "uint256"
            },
            {
              "internalType": "uint256",
              "name": "uniquebetId",
              "type": "uint256"
            },
            {
              "internalType": "string",
              "name": "matchfixture",
              "type": "string"
            },
            {
              "internalType": "address",
              "name": "openedBy",
              "type": "address"
            },
            {
              "internalType": "string",
              "name": "betstatus",
              "type": "string"
            },
            {
              "internalType": "uint256",
              "name": "totalbetparticipantscount",
              "type": "uint256"
            },
            {
              "internalType": "uint256",
              "name": "remainingparticipantscount",
              "type": "uint256"
            },
            {
              "internalType": "address[]",
              "name": "participants",
              "type": "address[]"
            },
            {
              "internalType": "address[]",
              "name": "betwinners",
              "type": "address[]"
            },
            {
              "internalType": "address[]",
              "name": "betlosers",
              "type": "address[]"
            }
          ],
          "internalType": "struct Bet[]",
          "name": "",
          "type": "tuple[]"
        }
      ],
      "stateMutability": "view",
      "type": "function"
    },
    {
      "inputs": [
        {
          "internalType": "string",
          "name": "_username",
          "type": "string"
        }
      ],
      "name": "getBetsByUsername",
      "outputs": [
        {
          "components": [
            {
              "internalType": "uint256",
              "name": "betId",
              "type": "uint256"
            },
            {
              "internalType": "uint256",
              "name": "matchId",
              "type": "uint256"
            },
            {
              "internalType": "uint256",
              "name": "uniquebetId",
              "type": "uint256"
            },
            {
              "internalType": "string",
              "name": "matchfixture",
              "type": "string"
            },
            {
              "internalType": "address",
              "name": "openedBy",
              "type": "address"
            },
            {
              "internalType": "string",
              "name": "betstatus",
              "type": "string"
            },
            {
              "internalType": "uint256",
              "name": "totalbetparticipantscount",
              "type": "uint256"
            },
            {
              "internalType": "uint256",
              "name": "remainingparticipantscount",
              "type": "uint256"
            },
            {
              "internalType": "address[]",
              "name": "participants",
              "type": "address[]"
            },
            {
              "internalType": "address[]",
              "name": "betwinners",
              "type": "address[]"
            },
            {
              "internalType": "address[]",
              "name": "betlosers",
              "type": "address[]"
            }
          ],
          "internalType": "struct Bet[]",
          "name": "",
          "type": "tuple[]"
        }
      ],
      "stateMutability": "view",
      "type": "function"
    },
    {
      "inputs": [
        {
          "internalType": "address",
          "name": "_user",
          "type": "address"
        }
      ],
      "name": "getBetsByWallet",
      "outputs": [
        {
          "components": [
            {
              "internalType": "uint256",
              "name": "betId",
              "type": "uint256"
            },
            {
              "internalType": "uint256",
              "name": "matchId",
              "type": "uint256"
            },
            {
              "internalType": "uint256",
              "name": "uniquebetId",
              "type": "uint256"
            },
            {
              "internalType": "string",
              "name": "matchfixture",
              "type": "string"
            },
            {
              "internalType": "address",
              "name": "openedBy",
              "type": "address"
            },
            {
              "internalType": "string",
              "name": "betstatus",
              "type": "string"
            },
            {
              "internalType": "uint256",
              "name": "totalbetparticipantscount",
              "type": "uint256"
            },
            {
              "internalType": "uint256",
              "name": "remainingparticipantscount",
              "type": "uint256"
            },
            {
              "internalType": "address[]",
              "name": "participants",
              "type": "address[]"
            },
            {
              "internalType": "address[]",
              "name": "betwinners",
              "type": "address[]"
            },
            {
              "internalType": "address[]",
              "name": "betlosers",
              "type": "address[]"
            }
          ],
          "internalType": "struct Bet[]",
          "name": "",
          "type": "tuple[]"
        }
      ],
      "stateMutability": "view",
      "type": "function"
    },
    {
      "inputs": [
        {
          "internalType": "uint256",
          "name": "_betId",
          "type": "uint256"
        }
      ],
      "name": "getBetsMapping",
      "outputs": [
        {
          "components": [
            {
              "internalType": "uint256",
              "name": "betId",
              "type": "uint256"
            },
            {
              "internalType": "uint256",
              "name": "matchId",
              "type": "uint256"
            },
            {
              "internalType": "uint256",
              "name": "uniquebetId",
              "type": "uint256"
            },
            {
              "internalType": "string",
              "name": "matchfixture",
              "type": "string"
            },
            {
              "internalType": "address",
              "name": "openedBy",
              "type": "address"
            },
            {
              "internalType": "string",
              "name": "betstatus",
              "type": "string"
            },
            {
              "internalType": "uint256",
              "name": "totalbetparticipantscount",
              "type": "uint256"
            },
            {
              "internalType": "uint256",
              "name": "remainingparticipantscount",
              "type": "uint256"
            },
            {
              "internalType": "address[]",
              "name": "participants",
              "type": "address[]"
            },
            {
              "internalType": "address[]",
              "name": "betwinners",
              "type": "address[]"
            },
            {
              "internalType": "address[]",
              "name": "betlosers",
              "type": "address[]"
            }
          ],
          "internalType": "struct Bet",
          "name": "",
          "type": "tuple"
        }
      ],
      "stateMutability": "view",
      "type": "function"
    },
    {
      "inputs": [
        {
          "internalType": "address",
          "name": "_user",
          "type": "address"
        }
      ],
      "name": "getUserRegistrationDetails",
      "outputs": [
        {
          "components": [
            {
              "internalType": "uint256",
              "name": "userId",
              "type": "uint256"
            },
            {
              "internalType": "string",
              "name": "username",
              "type": "string"
            },
            {
              "internalType": "uint256",
              "name": "betCount",
              "type": "uint256"
            },
            {
              "internalType": "bool",
              "name": "hasActiveBet",
              "type": "bool"
            },
            {
              "internalType": "uint256",
              "name": "refCount",
              "type": "uint256"
            },
            {
              "internalType": "bool",
              "name": "registered",
              "type": "bool"
            },
            {
              "internalType": "bool",
              "name": "wasReferred",
              "type": "bool"
            },
            {
              "internalType": "address",
              "name": "sponsor",
              "type": "address"
            },
            {
              "internalType": "address",
              "name": "useraddress",
              "type": "address"
            },
            {
              "internalType": "address[]",
              "name": "referrals",
              "type": "address[]"
            }
          ],
          "internalType": "struct User",
          "name": "",
          "type": "tuple"
        }
      ],
      "stateMutability": "view",
      "type": "function"
    },
    {
      "inputs": [],
      "name": "listRegisteredUsers",
      "outputs": [
        {
          "components": [
            {
              "internalType": "uint256",
              "name": "userId",
              "type": "uint256"
            },
            {
              "internalType": "string",
              "name": "username",
              "type": "string"
            },
            {
              "internalType": "uint256",
              "name": "betCount",
              "type": "uint256"
            },
            {
              "internalType": "bool",
              "name": "hasActiveBet",
              "type": "bool"
            },
            {
              "internalType": "uint256",
              "name": "refCount",
              "type": "uint256"
            },
            {
              "internalType": "bool",
              "name": "registered",
              "type": "bool"
            },
            {
              "internalType": "bool",
              "name": "wasReferred",
              "type": "bool"
            },
            {
              "internalType": "address",
              "name": "sponsor",
              "type": "address"
            },
            {
              "internalType": "address",
              "name": "useraddress",
              "type": "address"
            },
            {
              "internalType": "address[]",
              "name": "referrals",
              "type": "address[]"
            }
          ],
          "internalType": "struct User[]",
          "name": "",
          "type": "tuple[]"
        }
      ],
      "stateMutability": "view",
      "type": "function"
    },
    {
      "inputs": [],
      "name": "loadAllBets",
      "outputs": [
        {
          "components": [
            {
              "internalType": "uint256",
              "name": "betId",
              "type": "uint256"
            },
            {
              "internalType": "uint256",
              "name": "matchId",
              "type": "uint256"
            },
            {
              "internalType": "uint256",
              "name": "uniquebetId",
              "type": "uint256"
            },
            {
              "internalType": "string",
              "name": "matchfixture",
              "type": "string"
            },
            {
              "internalType": "address",
              "name": "openedBy",
              "type": "address"
            },
            {
              "internalType": "string",
              "name": "betstatus",
              "type": "string"
            },
            {
              "internalType": "uint256",
              "name": "totalbetparticipantscount",
              "type": "uint256"
            },
            {
              "internalType": "uint256",
              "name": "remainingparticipantscount",
              "type": "uint256"
            },
            {
              "internalType": "address[]",
              "name": "participants",
              "type": "address[]"
            },
            {
              "internalType": "address[]",
              "name": "betwinners",
              "type": "address[]"
            },
            {
              "internalType": "address[]",
              "name": "betlosers",
              "type": "address[]"
            }
          ],
          "internalType": "struct Bet[]",
          "name": "",
          "type": "tuple[]"
        }
      ],
      "stateMutability": "view",
      "type": "function"
    },
    {
      "inputs": [],
      "name": "nextBetId",
      "outputs": [
        {
          "internalType": "uint256",
          "name": "",
          "type": "uint256"
        }
      ],
      "stateMutability": "view",
      "type": "function"
    },
    {
      "inputs": [],
      "name": "nextUserId",
      "outputs": [
        {
          "internalType": "uint256",
          "name": "",
          "type": "uint256"
        }
      ],
      "stateMutability": "view",
      "type": "function"
    }
  ],
  "bytecode": "0x60806040523480156200001157600080fd5b5060405162002bde38038062002bde833981810160405281019062000037919062000132565b600160008190555080600160006101000a81548173ffffffffffffffffffffffffffffffffffffffff021916908373ffffffffffffffffffffffffffffffffffffffff16021790555033600260006101000a81548173ffffffffffffffffffffffffffffffffffffffff021916908373ffffffffffffffffffffffffffffffffffffffff1602179055505062000164565b600080fd5b600073ffffffffffffffffffffffffffffffffffffffff82169050919050565b6000620000fa82620000cd565b9050919050565b6200010c81620000ed565b81146200011857600080fd5b50565b6000815190506200012c8162000101565b92915050565b6000602082840312156200014b576200014a620000c8565b5b60006200015b848285016200011b565b91505092915050565b612a6a80620001746000396000f3fe608060405234801561001057600080fd5b50600436106100cf5760003560e01c80639aca27921161008c578063aa265bb611610066578063aa265bb61461023c578063db8e19a51461026c578063eb6821a51461029c578063ef6252a8146102cc576100cf565b80639aca2792146101e2578063a1e6a25514610200578063a4b427c41461021e576100cf565b8063048e6bfd146100d457806325f5faf3146101045780634ddfc30214610134578063531eb077146101645780635984c81f1461019457806361f14f11146101b2575b600080fd5b6100ee60048036038101906100e99190611849565b6102fc565b6040516100fb9190611be7565b60405180910390f35b61011e60048036038101906101199190611c35565b610567565b60405161012b9190611be7565b60405180910390f35b61014e60048036038101906101499190611c8e565b610939565b60405161015b9190611dc6565b60405180910390f35b61017e60048036038101906101799190611c35565b6109e9565b60405161018b9190611ee4565b60405180910390f35b61019c610a99565b6040516101a99190611be7565b60405180910390f35b6101cc60048036038101906101c79190611c8e565b610c83565b6040516101d99190611f50565b60405180910390f35b6101ea610d31565b6040516101f79190611f81565b60405180910390f35b610208610dc9565b6040516102159190611f81565b60405180910390f35b610226610e61565b604051610233919061213f565b60405180910390f35b61025660048036038101906102519190611849565b6110ec565b6040516102639190611be7565b60405180910390f35b61028660048036038101906102819190611c35565b61139f565b6040516102939190611f81565b60405180910390f35b6102b660048036038101906102b19190611c35565b611444565b6040516102c39190611f81565b60405180910390f35b6102e660048036038101906102e19190612161565b6114e9565b6040516102f391906121cc565b60405180910390f35b60606000600160009054906101000a900473ffffffffffffffffffffffffffffffffffffffff1673ffffffffffffffffffffffffffffffffffffffff1663a1e6a2556040518163ffffffff1660e01b8152600401602060405180830381865afa15801561036d573d6000803e3d6000fd5b505050506040513d601f19601f8201168201806040525081019061039191906121fc565b90506000806000905060005b838111610513576000600160009054906101000a900473ffffffffffffffffffffffffffffffffffffffff1673ffffffffffffffffffffffffffffffffffffffff1663b1695201836040518263ffffffff1660e01b81526004016104019190611f81565b602060405180830381865afa15801561041e573d6000803e3d6000fd5b505050506040513d601f19601f82011682018060405250810190610442919061223e565b90506104f2600160009054906101000a900473ffffffffffffffffffffffffffffffffffffffff1673ffffffffffffffffffffffffffffffffffffffff1663531eb077836040518263ffffffff1660e01b81526004016104a2919061227a565b600060405180830381865afa1580156104bf573d6000803e3d6000fd5b505050506040513d6000823e3d601f19601f820116820180604052508101906104e89190612531565b60200151886115a1565b156104ff57809350600192505b50808061050b906125a9565b91505061039d565b5080610554576040517f08c379a000000000000000000000000000000000000000000000000000000000815260040161054b9061263d565b60405180910390fd5b61055d82610567565b9350505050919050565b60606000600160009054906101000a900473ffffffffffffffffffffffffffffffffffffffff1673ffffffffffffffffffffffffffffffffffffffff16637b414882846040518263ffffffff1660e01b81526004016105c6919061227a565b600060405180830381865afa1580156105e3573d6000803e3d6000fd5b505050506040513d6000823e3d601f19601f8201168201806040525081019061060c9190612720565b90506000600160009054906101000a900473ffffffffffffffffffffffffffffffffffffffff1673ffffffffffffffffffffffffffffffffffffffff1663022bd8bf856040518263ffffffff1660e01b815260040161066b919061227a565b600060405180830381865afa158015610688573d6000803e3d6000fd5b505050506040513d6000823e3d601f19601f820116820180604052508101906106b19190612720565b905060008251905060008167ffffffffffffffff8111156106d5576106d461171e565b5b60405190808252806020026020018201604052801561070e57816020015b6106fb6115fa565b8152602001906001900390816106f35790505b5090506000805b855181101561081e576000600160009054906101000a900473ffffffffffffffffffffffffffffffffffffffff1673ffffffffffffffffffffffffffffffffffffffff16634ddfc30288848151811061077157610770612769565b5b60200260200101516040518263ffffffff1660e01b81526004016107959190611f81565b600060405180830381865afa1580156107b2573d6000803e3d6000fd5b505050506040513d6000823e3d601f19601f820116820180604052508101906107db9190612930565b9050808484815181106107f1576107f0612769565b5b60200260200101819052508280610807906125a9565b935050508080610816906125a9565b915050610715565b5060005b845181101561092b576000600160009054906101000a900473ffffffffffffffffffffffffffffffffffffffff1673ffffffffffffffffffffffffffffffffffffffff16634ddfc30287848151811061087e5761087d612769565b5b60200260200101516040518263ffffffff1660e01b81526004016108a29190611f81565b600060405180830381865afa1580156108bf573d6000803e3d6000fd5b505050506040513d6000823e3d601f19601f820116820180604052508101906108e89190612930565b9050808484815181106108fe576108fd612769565b5b60200260200101819052508280610914906125a9565b935050508080610923906125a9565b915050610822565b508195505050505050919050565b6109416115fa565b600160009054906101000a900473ffffffffffffffffffffffffffffffffffffffff1673ffffffffffffffffffffffffffffffffffffffff16634ddfc302836040518263ffffffff1660e01b815260040161099c9190611f81565b600060405180830381865afa1580156109b9573d6000803e3d6000fd5b505050506040513d6000823e3d601f19601f820116820180604052508101906109e29190612930565b9050919050565b6109f161166a565b600160009054906101000a900473ffffffffffffffffffffffffffffffffffffffff1673ffffffffffffffffffffffffffffffffffffffff1663531eb077836040518263ffffffff1660e01b8152600401610a4c919061227a565b600060405180830381865afa158015610a69573d6000803e3d6000fd5b505050506040513d6000823e3d601f19601f82011682018060405250810190610a929190612531565b9050919050565b60606000600160009054906101000a900473ffffffffffffffffffffffffffffffffffffffff1673ffffffffffffffffffffffffffffffffffffffff16639aca27926040518163ffffffff1660e01b8152600401602060405180830381865afa158015610b0a573d6000803e3d6000fd5b505050506040513d601f19601f82011682018060405250810190610b2e91906121fc565b905060008167ffffffffffffffff811115610b4c57610b4b61171e565b5b604051908082528060200260200182016040528015610b8557816020015b610b726115fa565b815260200190600190039081610b6a5790505b5090506000600190505b828111610c7a576000600160009054906101000a900473ffffffffffffffffffffffffffffffffffffffff1673ffffffffffffffffffffffffffffffffffffffff16634ddfc302836040518263ffffffff1660e01b8152600401610bf39190611f81565b600060405180830381865afa158015610c10573d6000803e3d6000fd5b505050506040513d6000823e3d601f19601f82011682018060405250810190610c399190612930565b90508083600184610c4a9190612979565b81518110610c5b57610c5a612769565b5b6020026020010181905250508080610c72906125a9565b915050610b8f565b50809250505090565b6060600160009054906101000a900473ffffffffffffffffffffffffffffffffffffffff1673ffffffffffffffffffffffffffffffffffffffff16634ddfc302836040518263ffffffff1660e01b8152600401610ce09190611f81565b600060405180830381865afa158015610cfd573d6000803e3d6000fd5b505050506040513d6000823e3d601f19601f82011682018060405250810190610d269190612930565b60a001519050919050565b6000600160009054906101000a900473ffffffffffffffffffffffffffffffffffffffff1673ffffffffffffffffffffffffffffffffffffffff16639aca27926040518163ffffffff1660e01b8152600401602060405180830381865afa158015610da0573d6000803e3d6000fd5b505050506040513d601f19601f82011682018060405250810190610dc491906121fc565b905090565b6000600160009054906101000a900473ffffffffffffffffffffffffffffffffffffffff1673ffffffffffffffffffffffffffffffffffffffff1663a1e6a2556040518163ffffffff1660e01b8152600401602060405180830381865afa158015610e38573d6000803e3d6000fd5b505050506040513d601f19601f82011682018060405250810190610e5c91906121fc565b905090565b60606000600160009054906101000a900473ffffffffffffffffffffffffffffffffffffffff1673ffffffffffffffffffffffffffffffffffffffff1663a1e6a2556040518163ffffffff1660e01b8152600401602060405180830381865afa158015610ed2573d6000803e3d6000fd5b505050506040513d601f19601f82011682018060405250810190610ef691906121fc565b905060008167ffffffffffffffff811115610f1457610f1361171e565b5b604051908082528060200260200182016040528015610f4d57816020015b610f3a61166a565b815260200190600190039081610f325790505b5090506000600190505b8281116110e3576000600160009054906101000a900473ffffffffffffffffffffffffffffffffffffffff1673ffffffffffffffffffffffffffffffffffffffff1663b1695201836040518263ffffffff1660e01b8152600401610fbb9190611f81565b602060405180830381865afa158015610fd8573d6000803e3d6000fd5b505050506040513d601f19601f82011682018060405250810190610ffc919061223e565b90506000600160009054906101000a900473ffffffffffffffffffffffffffffffffffffffff1673ffffffffffffffffffffffffffffffffffffffff1663531eb077836040518263ffffffff1660e01b815260040161105b919061227a565b600060405180830381865afa158015611078573d6000803e3d6000fd5b505050506040513d6000823e3d601f19601f820116820180604052508101906110a19190612531565b905080846001856110b29190612979565b815181106110c3576110c2612769565b5b6020026020010181905250505080806110db906125a9565b915050610f57565b50809250505090565b60606000600160009054906101000a900473ffffffffffffffffffffffffffffffffffffffff1673ffffffffffffffffffffffffffffffffffffffff16639aca27926040518163ffffffff1660e01b8152600401602060405180830381865afa15801561115d573d6000803e3d6000fd5b505050506040513d601f19601f8201168201806040525081019061118191906121fc565b90506000808267ffffffffffffffff8111156111a05761119f61171e565b5b6040519080825280602002602001820160405280156111d957816020015b6111c66115fa565b8152602001906001900390816111be5790505b50905060005b8381116113935760006001826111f591906129ad565b90506112a5600160009054906101000a900473ffffffffffffffffffffffffffffffffffffffff1673ffffffffffffffffffffffffffffffffffffffff16634ddfc302836040518263ffffffff1660e01b81526004016112559190611f81565b600060405180830381865afa158015611272573d6000803e3d6000fd5b505050506040513d6000823e3d601f19601f8201168201806040525081019061129b9190612930565b60a00151886115a1565b1561137f576000600160009054906101000a900473ffffffffffffffffffffffffffffffffffffffff1673ffffffffffffffffffffffffffffffffffffffff16634ddfc302836040518263ffffffff1660e01b81526004016113079190611f81565b600060405180830381865afa158015611324573d6000803e3d6000fd5b505050506040513d6000823e3d601f19601f8201168201806040525081019061134d9190612930565b90508084868151811061136357611362612769565b5b602002602001018190525060018561137b91906129ad565b9450505b50808061138b906125a9565b9150506111df565b50809350505050919050565b6000600160009054906101000a900473ffffffffffffffffffffffffffffffffffffffff1673ffffffffffffffffffffffffffffffffffffffff1663db8e19a5836040518263ffffffff1660e01b81526004016113fc919061227a565b602060405180830381865afa158015611419573d6000803e3d6000fd5b505050506040513d601f19601f8201168201806040525081019061143d91906121fc565b9050919050565b6000600160009054906101000a900473ffffffffffffffffffffffffffffffffffffffff1673ffffffffffffffffffffffffffffffffffffffff1663eb6821a5836040518263ffffffff1660e01b81526004016114a1919061227a565b602060405180830381865afa1580156114be573d6000803e3d6000fd5b505050506040513d601f19601f820116820180604052508101906114e291906121fc565b9050919050565b6000611599600160009054906101000a900473ffffffffffffffffffffffffffffffffffffffff1673ffffffffffffffffffffffffffffffffffffffff16634ddfc302856040518263ffffffff1660e01b81526004016115499190611f81565b600060405180830381865afa158015611566573d6000803e3d6000fd5b505050506040513d6000823e3d601f19601f8201168201806040525081019061158f9190612930565b60a00151836115a1565b905092915050565b6000816040516020016115b49190612a1d565b60405160208183030381529060405280519060200120836040516020016115db9190612a1d565b6040516020818303038152906040528051906020012014905092915050565b60405180610160016040528060008152602001600081526020016000815260200160608152602001600073ffffffffffffffffffffffffffffffffffffffff1681526020016060815260200160008152602001600081526020016060815260200160608152602001606081525090565b60405180610140016040528060008152602001606081526020016000815260200160001515815260200160008152602001600015158152602001600015158152602001600073ffffffffffffffffffffffffffffffffffffffff168152602001600073ffffffffffffffffffffffffffffffffffffffff168152602001606081525090565b6000604051905090565b600080fd5b600080fd5b600080fd5b600080fd5b6000601f19601f8301169050919050565b7f4e487b7100000000000000000000000000000000000000000000000000000000600052604160045260246000fd5b6117568261170d565b810181811067ffffffffffffffff821117156117755761177461171e565b5b80604052505050565b60006117886116ef565b9050611794828261174d565b919050565b600067ffffffffffffffff8211156117b4576117b361171e565b5b6117bd8261170d565b9050602081019050919050565b82818337600083830152505050565b60006117ec6117e784611799565b61177e565b90508281526020810184848401111561180857611807611708565b5b6118138482856117ca565b509392505050565b600082601f8301126118305761182f611703565b5b81356118408482602086016117d9565b91505092915050565b60006020828403121561185f5761185e6116f9565b5b600082013567ffffffffffffffff81111561187d5761187c6116fe565b5b6118898482850161181b565b91505092915050565b600081519050919050565b600082825260208201905092915050565b6000819050602082019050919050565b6000819050919050565b6118d1816118be565b82525050565b600081519050919050565b600082825260208201905092915050565b60005b838110156119115780820151818401526020810190506118f6565b60008484015250505050565b6000611928826118d7565b61193281856118e2565b93506119428185602086016118f3565b61194b8161170d565b840191505092915050565b600073ffffffffffffffffffffffffffffffffffffffff82169050919050565b600061198182611956565b9050919050565b61199181611976565b82525050565b600081519050919050565b600082825260208201905092915050565b6000819050602082019050919050565b60006119cf8383611988565b60208301905092915050565b6000602082019050919050565b60006119f382611997565b6119fd81856119a2565b9350611a08836119b3565b8060005b83811015611a39578151611a2088826119c3565b9750611a2b836119db565b925050600181019050611a0c565b5085935050505092915050565b600061016083016000830151611a5f60008601826118c8565b506020830151611a7260208601826118c8565b506040830151611a8560408601826118c8565b5060608301518482036060860152611a9d828261191d565b9150506080830151611ab26080860182611988565b5060a083015184820360a0860152611aca828261191d565b91505060c0830151611adf60c08601826118c8565b5060e0830151611af260e08601826118c8565b50610100830151848203610100860152611b0c82826119e8565b915050610120830151848203610120860152611b2882826119e8565b915050610140830151848203610140860152611b4482826119e8565b9150508091505092915050565b6000611b5d8383611a46565b905092915050565b6000602082019050919050565b6000611b7d82611892565b611b87818561189d565b935083602082028501611b99856118ae565b8060005b85811015611bd55784840389528151611bb68582611b51565b9450611bc183611b65565b925060208a01995050600181019050611b9d565b50829750879550505050505092915050565b60006020820190508181036000830152611c018184611b72565b905092915050565b611c1281611976565b8114611c1d57600080fd5b50565b600081359050611c2f81611c09565b92915050565b600060208284031215611c4b57611c4a6116f9565b5b6000611c5984828501611c20565b91505092915050565b611c6b816118be565b8114611c7657600080fd5b50565b600081359050611c8881611c62565b92915050565b600060208284031215611ca457611ca36116f9565b5b6000611cb284828501611c79565b91505092915050565b600061016083016000830151611cd460008601826118c8565b506020830151611ce760208601826118c8565b506040830151611cfa60408601826118c8565b5060608301518482036060860152611d12828261191d565b9150506080830151611d276080860182611988565b5060a083015184820360a0860152611d3f828261191d565b91505060c0830151611d5460c08601826118c8565b5060e0830151611d6760e08601826118c8565b50610100830151848203610100860152611d8182826119e8565b915050610120830151848203610120860152611d9d82826119e8565b915050610140830151848203610140860152611db982826119e8565b9150508091505092915050565b60006020820190508181036000830152611de08184611cbb565b905092915050565b60008115159050919050565b611dfd81611de8565b82525050565b600061014083016000830151611e1c60008601826118c8565b5060208301518482036020860152611e34828261191d565b9150506040830151611e4960408601826118c8565b506060830151611e5c6060860182611df4565b506080830151611e6f60808601826118c8565b5060a0830151611e8260a0860182611df4565b5060c0830151611e9560c0860182611df4565b5060e0830151611ea860e0860182611988565b50610100830151611ebd610100860182611988565b50610120830151848203610120860152611ed782826119e8565b9150508091505092915050565b60006020820190508181036000830152611efe8184611e03565b905092915050565b600082825260208201905092915050565b6000611f22826118d7565b611f2c8185611f06565b9350611f3c8185602086016118f3565b611f458161170d565b840191505092915050565b60006020820190508181036000830152611f6a8184611f17565b905092915050565b611f7b816118be565b82525050565b6000602082019050611f966000830184611f72565b92915050565b600081519050919050565b600082825260208201905092915050565b6000819050602082019050919050565b600061014083016000830151611fe160008601826118c8565b5060208301518482036020860152611ff9828261191d565b915050604083015161200e60408601826118c8565b5060608301516120216060860182611df4565b50608083015161203460808601826118c8565b5060a083015161204760a0860182611df4565b5060c083015161205a60c0860182611df4565b5060e083015161206d60e0860182611988565b50610100830151612082610100860182611988565b5061012083015184820361012086015261209c82826119e8565b9150508091505092915050565b60006120b58383611fc8565b905092915050565b6000602082019050919050565b60006120d582611f9c565b6120df8185611fa7565b9350836020820285016120f185611fb8565b8060005b8581101561212d578484038952815161210e85826120a9565b9450612119836120bd565b925060208a019950506001810190506120f5565b50829750879550505050505092915050565b6000602082019050818103600083015261215981846120ca565b905092915050565b60008060408385031215612178576121776116f9565b5b600061218685828601611c79565b925050602083013567ffffffffffffffff8111156121a7576121a66116fe565b5b6121b38582860161181b565b9150509250929050565b6121c681611de8565b82525050565b60006020820190506121e160008301846121bd565b92915050565b6000815190506121f681611c62565b92915050565b600060208284031215612212576122116116f9565b5b6000612220848285016121e7565b91505092915050565b60008151905061223881611c09565b92915050565b600060208284031215612254576122536116f9565b5b600061226284828501612229565b91505092915050565b61227481611976565b82525050565b600060208201905061228f600083018461226b565b92915050565b600080fd5b600080fd5b60006122b26122ad84611799565b61177e565b9050828152602081018484840111156122ce576122cd611708565b5b6122d98482856118f3565b509392505050565b600082601f8301126122f6576122f5611703565b5b815161230684826020860161229f565b91505092915050565b61231881611de8565b811461232357600080fd5b50565b6000815190506123358161230f565b92915050565b600067ffffffffffffffff8211156123565761235561171e565b5b602082029050602081019050919050565b600080fd5b600061237f61237a8461233b565b61177e565b905080838252602082019050602084028301858111156123a2576123a1612367565b5b835b818110156123cb57806123b78882612229565b8452602084019350506020810190506123a4565b5050509392505050565b600082601f8301126123ea576123e9611703565b5b81516123fa84826020860161236c565b91505092915050565b6000610140828403121561241a57612419612295565b5b61242561014061177e565b90506000612435848285016121e7565b600083015250602082015167ffffffffffffffff8111156124595761245861229a565b5b612465848285016122e1565b6020830152506040612479848285016121e7565b604083015250606061248d84828501612326565b60608301525060806124a1848285016121e7565b60808301525060a06124b584828501612326565b60a08301525060c06124c984828501612326565b60c08301525060e06124dd84828501612229565b60e0830152506101006124f284828501612229565b6101008301525061012082015167ffffffffffffffff8111156125185761251761229a565b5b612524848285016123d5565b6101208301525092915050565b600060208284031215612547576125466116f9565b5b600082015167ffffffffffffffff811115612565576125646116fe565b5b61257184828501612403565b91505092915050565b7f4e487b7100000000000000000000000000000000000000000000000000000000600052601160045260246000fd5b60006125b4826118be565b91507fffffffffffffffffffffffffffffffffffffffffffffffffffffffffffffffff82036125e6576125e561257a565b5b600182019050919050565b7f55736572206e6f7420666f756e64000000000000000000000000000000000000600082015250565b6000612627600e83611f06565b9150612632826125f1565b602082019050919050565b600060208201905081810360008301526126568161261a565b9050919050565b600067ffffffffffffffff8211156126785761267761171e565b5b602082029050602081019050919050565b600061269c6126978461265d565b61177e565b905080838252602082019050602084028301858111156126bf576126be612367565b5b835b818110156126e857806126d488826121e7565b8452602084019350506020810190506126c1565b5050509392505050565b600082601f83011261270757612706611703565b5b8151612717848260208601612689565b91505092915050565b600060208284031215612736576127356116f9565b5b600082015167ffffffffffffffff811115612754576127536116fe565b5b612760848285016126f2565b91505092915050565b7f4e487b7100000000000000000000000000000000000000000000000000000000600052603260045260246000fd5b600061016082840312156127af576127ae612295565b5b6127ba61016061177e565b905060006127ca848285016121e7565b60008301525060206127de848285016121e7565b60208301525060406127f2848285016121e7565b604083015250606082015167ffffffffffffffff8111156128165761281561229a565b5b612822848285016122e1565b606083015250608061283684828501612229565b60808301525060a082015167ffffffffffffffff81111561285a5761285961229a565b5b612866848285016122e1565b60a08301525060c061287a848285016121e7565b60c08301525060e061288e848285016121e7565b60e08301525061010082015167ffffffffffffffff8111156128b3576128b261229a565b5b6128bf848285016123d5565b6101008301525061012082015167ffffffffffffffff8111156128e5576128e461229a565b5b6128f1848285016123d5565b6101208301525061014082015167ffffffffffffffff8111156129175761291661229a565b5b612923848285016123d5565b6101408301525092915050565b600060208284031215612946576129456116f9565b5b600082015167ffffffffffffffff811115612964576129636116fe565b5b61297084828501612798565b91505092915050565b6000612984826118be565b915061298f836118be565b92508282039050818111156129a7576129a661257a565b5b92915050565b60006129b8826118be565b91506129c3836118be565b92508282019050808211156129db576129da61257a565b5b92915050565b600081905092915050565b60006129f7826118d7565b612a0181856129e1565b9350612a118185602086016118f3565b80840191505092915050565b6000612a2982846129ec565b91508190509291505056fea26469706673582212209836d3dfaa2077be765d7d488e22994c543677a5e2c1ee721f5f9b800b57128264736f6c63430008140033",
  "linkReferences": {},
  "deployedLinkReferences": {}
}