{
  "_format": "hh-sol-artifact-1",
  "contractName": "FRDNFTMarketPlaceFeatures",
  "sourceName": "contracts/FRDNFTMarketPlaceFeatures.sol",
  "abi": [
    {
      "inputs": [
        {
          "internalType": "address",
          "name": "_frdNFTMarketPlaceAddress",
          "type": "address"
        }
      ],
      "stateMutability": "nonpayable",
      "type": "constructor"
    },
    {
      "inputs": [],
      "name": "ReentrancyGuardReentrantCall",
      "type": "error"
    },
    {
      "inputs": [],
      "name": "fetchItemsCreated",
      "outputs": [
        {
          "components": [
            {
              "internalType": "uint256",
              "name": "tokenId",
              "type": "uint256"
            },
            {
              "internalType": "uint256",
              "name": "itemId",
              "type": "uint256"
            },
            {
              "internalType": "uint256",
              "name": "decimalplaces",
              "type": "uint256"
            },
            {
              "internalType": "uint256",
              "name": "autionTime",
              "type": "uint256"
            },
            {
              "internalType": "string",
              "name": "tokenURI",
              "type": "string"
            },
            {
              "internalType": "uint256",
              "name": "biddingduration",
              "type": "uint256"
            },
            {
              "internalType": "uint256",
              "name": "bidduration",
              "type": "uint256"
            },
            {
              "internalType": "uint256",
              "name": "creatorsalesroyalty",
              "type": "uint256"
            },
            {
              "internalType": "uint256",
              "name": "minbidamount",
              "type": "uint256"
            },
            {
              "internalType": "uint256",
              "name": "sellingprice",
              "type": "uint256"
            },
            {
              "internalType": "address payable",
              "name": "seller",
              "type": "address"
            },
            {
              "internalType": "address payable",
              "name": "creator",
              "type": "address"
            },
            {
              "internalType": "address payable",
              "name": "owner",
              "type": "address"
            }
          ],
          "internalType": "struct AuctionItem[]",
          "name": "",
          "type": "tuple[]"
        }
      ],
      "stateMutability": "view",
      "type": "function"
    },
    {
      "inputs": [],
      "name": "fetchUnSoldAuctionItems",
      "outputs": [
        {
          "components": [
            {
              "internalType": "uint256",
              "name": "tokenId",
              "type": "uint256"
            },
            {
              "internalType": "uint256",
              "name": "itemId",
              "type": "uint256"
            },
            {
              "internalType": "uint256",
              "name": "decimalplaces",
              "type": "uint256"
            },
            {
              "internalType": "uint256",
              "name": "autionTime",
              "type": "uint256"
            },
            {
              "internalType": "string",
              "name": "tokenURI",
              "type": "string"
            },
            {
              "internalType": "uint256",
              "name": "biddingduration",
              "type": "uint256"
            },
            {
              "internalType": "uint256",
              "name": "bidduration",
              "type": "uint256"
            },
            {
              "internalType": "uint256",
              "name": "creatorsalesroyalty",
              "type": "uint256"
            },
            {
              "internalType": "uint256",
              "name": "minbidamount",
              "type": "uint256"
            },
            {
              "internalType": "uint256",
              "name": "sellingprice",
              "type": "uint256"
            },
            {
              "internalType": "address payable",
              "name": "seller",
              "type": "address"
            },
            {
              "internalType": "address payable",
              "name": "creator",
              "type": "address"
            },
            {
              "internalType": "address payable",
              "name": "owner",
              "type": "address"
            }
          ],
          "internalType": "struct AuctionItem[]",
          "name": "",
          "type": "tuple[]"
        }
      ],
      "stateMutability": "view",
      "type": "function"
    },
    {
      "inputs": [],
      "name": "fetchUserPurchasedNFTs",
      "outputs": [
        {
          "components": [
            {
              "internalType": "uint256",
              "name": "tokenId",
              "type": "uint256"
            },
            {
              "internalType": "uint256",
              "name": "itemId",
              "type": "uint256"
            },
            {
              "internalType": "uint256",
              "name": "decimalplaces",
              "type": "uint256"
            },
            {
              "internalType": "uint256",
              "name": "autionTime",
              "type": "uint256"
            },
            {
              "internalType": "string",
              "name": "tokenURI",
              "type": "string"
            },
            {
              "internalType": "uint256",
              "name": "biddingduration",
              "type": "uint256"
            },
            {
              "internalType": "uint256",
              "name": "bidduration",
              "type": "uint256"
            },
            {
              "internalType": "uint256",
              "name": "creatorsalesroyalty",
              "type": "uint256"
            },
            {
              "internalType": "uint256",
              "name": "minbidamount",
              "type": "uint256"
            },
            {
              "internalType": "uint256",
              "name": "sellingprice",
              "type": "uint256"
            },
            {
              "internalType": "address payable",
              "name": "seller",
              "type": "address"
            },
            {
              "internalType": "address payable",
              "name": "creator",
              "type": "address"
            },
            {
              "internalType": "address payable",
              "name": "owner",
              "type": "address"
            }
          ],
          "internalType": "struct AuctionItem[]",
          "name": "",
          "type": "tuple[]"
        }
      ],
      "stateMutability": "view",
      "type": "function"
    },
    {
      "inputs": [
        {
          "internalType": "uint256",
          "name": "_itemId",
          "type": "uint256"
        }
      ],
      "name": "getAuctionItem",
      "outputs": [
        {
          "components": [
            {
              "internalType": "uint256",
              "name": "tokenId",
              "type": "uint256"
            },
            {
              "internalType": "uint256",
              "name": "itemId",
              "type": "uint256"
            },
            {
              "internalType": "uint256",
              "name": "decimalplaces",
              "type": "uint256"
            },
            {
              "internalType": "uint256",
              "name": "autionTime",
              "type": "uint256"
            },
            {
              "internalType": "string",
              "name": "tokenURI",
              "type": "string"
            },
            {
              "internalType": "uint256",
              "name": "biddingduration",
              "type": "uint256"
            },
            {
              "internalType": "uint256",
              "name": "bidduration",
              "type": "uint256"
            },
            {
              "internalType": "uint256",
              "name": "creatorsalesroyalty",
              "type": "uint256"
            },
            {
              "internalType": "uint256",
              "name": "minbidamount",
              "type": "uint256"
            },
            {
              "internalType": "uint256",
              "name": "sellingprice",
              "type": "uint256"
            },
            {
              "internalType": "address payable",
              "name": "seller",
              "type": "address"
            },
            {
              "internalType": "address payable",
              "name": "creator",
              "type": "address"
            },
            {
              "internalType": "address payable",
              "name": "owner",
              "type": "address"
            }
          ],
          "internalType": "struct AuctionItem",
          "name": "",
          "type": "tuple"
        }
      ],
      "stateMutability": "view",
      "type": "function"
    },
    {
      "inputs": [
        {
          "internalType": "uint256",
          "name": "_itemId",
          "type": "uint256"
        }
      ],
      "name": "getAuctionItemRemainingTime",
      "outputs": [
        {
          "internalType": "uint256",
          "name": "",
          "type": "uint256"
        }
      ],
      "stateMutability": "view",
      "type": "function"
    },
    {
      "inputs": [],
      "name": "getMintedNfts",
      "outputs": [
        {
          "components": [
            {
              "internalType": "uint256",
              "name": "tokenId",
              "type": "uint256"
            },
            {
              "internalType": "string",
              "name": "tokenURI",
              "type": "string"
            },
            {
              "internalType": "address",
              "name": "creator",
              "type": "address"
            },
            {
              "internalType": "address",
              "name": "owner",
              "type": "address"
            },
            {
              "internalType": "bool",
              "name": "hascreatedToken",
              "type": "bool"
            }
          ],
          "internalType": "struct NFTMints[]",
          "name": "",
          "type": "tuple[]"
        }
      ],
      "stateMutability": "view",
      "type": "function"
    },
    {
      "inputs": [],
      "name": "getUserNFTMintedCount",
      "outputs": [
        {
          "internalType": "uint256",
          "name": "",
          "type": "uint256"
        }
      ],
      "stateMutability": "view",
      "type": "function"
    }
  ],
  "bytecode": "0x60806040523480156200001157600080fd5b50604051620023a9380380620023a9833981810160405281019062000037919062000173565b600160008190555080600160006101000a81548173ffffffffffffffffffffffffffffffffffffffff021916908373ffffffffffffffffffffffffffffffffffffffff16021790555080600360006101000a81548173ffffffffffffffffffffffffffffffffffffffff021916908373ffffffffffffffffffffffffffffffffffffffff16021790555033600260006101000a81548173ffffffffffffffffffffffffffffffffffffffff021916908373ffffffffffffffffffffffffffffffffffffffff16021790555050620001a5565b600080fd5b600073ffffffffffffffffffffffffffffffffffffffff82169050919050565b60006200013b826200010e565b9050919050565b6200014d816200012e565b81146200015957600080fd5b50565b6000815190506200016d8162000142565b92915050565b6000602082840312156200018c576200018b62000109565b5b60006200019c848285016200015c565b91505092915050565b6121f480620001b56000396000f3fe608060405234801561001057600080fd5b506004361061007d5760003560e01c80636afc33161161005b5780636afc3316146100ee578063b52dee9b1461010c578063f064c32e1461013c578063fc8a16a01461015a5761007d565b80630c4a09341461008257806326304f05146100a057806368bae934146100be575b600080fd5b61008a610178565b60405161009791906115f6565b60405180910390f35b6100a8610329565b6040516100b591906118cc565b60405180910390f35b6100d860048036038101906100d3919061192e565b610766565b6040516100e59190611a74565b60405180910390f35b6100f6610816565b60405161010391906118cc565b60405180910390f35b6101266004803603810190610121919061192e565b610c0f565b60405161013391906115f6565b60405180910390f35b610144610ce6565b60405161015191906118cc565b60405180910390f35b6101626110df565b60405161016f9190611c0a565b60405180910390f35b600080600160009054906101000a900473ffffffffffffffffffffffffffffffffffffffff1673ffffffffffffffffffffffffffffffffffffffff166308f3c05f6040518163ffffffff1660e01b8152600401602060405180830381865afa1580156101e8573d6000803e3d6000fd5b505050506040513d601f19601f8201168201806040525081019061020c9190611c41565b90506000805b82811015610320573373ffffffffffffffffffffffffffffffffffffffff16600160009054906101000a900473ffffffffffffffffffffffffffffffffffffffff1673ffffffffffffffffffffffffffffffffffffffff1663f1258fb760018461027c9190611c9d565b6040518263ffffffff1660e01b815260040161029891906115f6565b600060405180830381865afa1580156102b5573d6000803e3d6000fd5b505050506040513d6000823e3d601f19601f820116820180604052508101906102de9190611f01565b6040015173ffffffffffffffffffffffffffffffffffffffff160361030d5760018261030a9190611c9d565b91505b808061031890611f4a565b915050610212565b50809250505090565b60606000600160009054906101000a900473ffffffffffffffffffffffffffffffffffffffff1673ffffffffffffffffffffffffffffffffffffffff1663abe057c66040518163ffffffff1660e01b8152600401602060405180830381865afa15801561039a573d6000803e3d6000fd5b505050506040513d601f19601f820116820180604052508101906103be9190611c41565b905060008060005b838110156104f757600360009054906101000a900473ffffffffffffffffffffffffffffffffffffffff1673ffffffffffffffffffffffffffffffffffffffff16600160009054906101000a900473ffffffffffffffffffffffffffffffffffffffff1673ffffffffffffffffffffffffffffffffffffffff1663ff3f1ad26001846104529190611c9d565b6040518263ffffffff1660e01b815260040161046e91906115f6565b600060405180830381865afa15801561048b573d6000803e3d6000fd5b505050506040513d6000823e3d601f19601f820116820180604052508101906104b49190612112565b610180015173ffffffffffffffffffffffffffffffffffffffff16036104e4576001836104e19190611c9d565b92505b80806104ef90611f4a565b9150506103c6565b5060008267ffffffffffffffff81111561051457610513611cd6565b5b60405190808252806020026020018201604052801561054d57816020015b61053a6114d6565b8152602001906001900390816105325790505b50905060005b8381101561075b57600360009054906101000a900473ffffffffffffffffffffffffffffffffffffffff1673ffffffffffffffffffffffffffffffffffffffff16600160009054906101000a900473ffffffffffffffffffffffffffffffffffffffff1673ffffffffffffffffffffffffffffffffffffffff1663ff3f1ad26001846105df9190611c9d565b6040518263ffffffff1660e01b81526004016105fb91906115f6565b600060405180830381865afa158015610618573d6000803e3d6000fd5b505050506040513d6000823e3d601f19601f820116820180604052508101906106419190612112565b610180015173ffffffffffffffffffffffffffffffffffffffff16036107485760006001826106709190611c9d565b90506000600160009054906101000a900473ffffffffffffffffffffffffffffffffffffffff1673ffffffffffffffffffffffffffffffffffffffff1663ff3f1ad2836040518263ffffffff1660e01b81526004016106cf91906115f6565b600060405180830381865afa1580156106ec573d6000803e3d6000fd5b505050506040513d6000823e3d601f19601f820116820180604052508101906107159190612112565b90508084868151811061072b5761072a61215b565b5b60200260200101819052506001856107439190611c9d565b945050505b808061075390611f4a565b915050610553565b508094505050505090565b61076e6114d6565b600160009054906101000a900473ffffffffffffffffffffffffffffffffffffffff1673ffffffffffffffffffffffffffffffffffffffff1663ff3f1ad2836040518263ffffffff1660e01b81526004016107c991906115f6565b600060405180830381865afa1580156107e6573d6000803e3d6000fd5b505050506040513d6000823e3d601f19601f8201168201806040525081019061080f9190612112565b9050919050565b60606000600160009054906101000a900473ffffffffffffffffffffffffffffffffffffffff1673ffffffffffffffffffffffffffffffffffffffff1663abe057c66040518163ffffffff1660e01b8152600401602060405180830381865afa158015610887573d6000803e3d6000fd5b505050506040513d601f19601f820116820180604052508101906108ab9190611c41565b905060008060005b838110156109c2573373ffffffffffffffffffffffffffffffffffffffff16600160009054906101000a900473ffffffffffffffffffffffffffffffffffffffff1673ffffffffffffffffffffffffffffffffffffffff1663ff3f1ad260018461091d9190611c9d565b6040518263ffffffff1660e01b815260040161093991906115f6565b600060405180830381865afa158015610956573d6000803e3d6000fd5b505050506040513d6000823e3d601f19601f8201168201806040525081019061097f9190612112565b610180015173ffffffffffffffffffffffffffffffffffffffff16036109af576001836109ac9190611c9d565b92505b80806109ba90611f4a565b9150506108b3565b5060008267ffffffffffffffff8111156109df576109de611cd6565b5b604051908082528060200260200182016040528015610a1857816020015b610a056114d6565b8152602001906001900390816109fd5790505b50905060005b84811015610c04573373ffffffffffffffffffffffffffffffffffffffff16600160009054906101000a900473ffffffffffffffffffffffffffffffffffffffff1673ffffffffffffffffffffffffffffffffffffffff1663ff3f1ad2600184610a889190611c9d565b6040518263ffffffff1660e01b8152600401610aa491906115f6565b600060405180830381865afa158015610ac1573d6000803e3d6000fd5b505050506040513d6000823e3d601f19601f82011682018060405250810190610aea9190612112565b610180015173ffffffffffffffffffffffffffffffffffffffff1603610bf1576000600182610b199190611c9d565b90506000600160009054906101000a900473ffffffffffffffffffffffffffffffffffffffff1673ffffffffffffffffffffffffffffffffffffffff1663ff3f1ad2836040518263ffffffff1660e01b8152600401610b7891906115f6565b600060405180830381865afa158015610b95573d6000803e3d6000fd5b505050506040513d6000823e3d601f19601f82011682018060405250810190610bbe9190612112565b905080848681518110610bd457610bd361215b565b5b6020026020010181905250600185610bec9190611c9d565b945050505b8080610bfc90611f4a565b915050610a1e565b508094505050505090565b6000804290506000600160009054906101000a900473ffffffffffffffffffffffffffffffffffffffff1673ffffffffffffffffffffffffffffffffffffffff1663ff3f1ad2856040518263ffffffff1660e01b8152600401610c7291906115f6565b600060405180830381865afa158015610c8f573d6000803e3d6000fd5b505050506040513d6000823e3d601f19601f82011682018060405250810190610cb89190612112565b60a001519050808210610cd057600092505050610ce1565b8181610cdc919061218a565b925050505b919050565b60606000600160009054906101000a900473ffffffffffffffffffffffffffffffffffffffff1673ffffffffffffffffffffffffffffffffffffffff1663abe057c66040518163ffffffff1660e01b8152600401602060405180830381865afa158015610d57573d6000803e3d6000fd5b505050506040513d601f19601f82011682018060405250810190610d7b9190611c41565b905060008060005b83811015610e92573373ffffffffffffffffffffffffffffffffffffffff16600160009054906101000a900473ffffffffffffffffffffffffffffffffffffffff1673ffffffffffffffffffffffffffffffffffffffff1663ff3f1ad2600184610ded9190611c9d565b6040518263ffffffff1660e01b8152600401610e0991906115f6565b600060405180830381865afa158015610e26573d6000803e3d6000fd5b505050506040513d6000823e3d601f19601f82011682018060405250810190610e4f9190612112565b610160015173ffffffffffffffffffffffffffffffffffffffff1603610e7f57600183610e7c9190611c9d565b92505b8080610e8a90611f4a565b915050610d83565b5060008267ffffffffffffffff811115610eaf57610eae611cd6565b5b604051908082528060200260200182016040528015610ee857816020015b610ed56114d6565b815260200190600190039081610ecd5790505b50905060005b848110156110d4573373ffffffffffffffffffffffffffffffffffffffff16600160009054906101000a900473ffffffffffffffffffffffffffffffffffffffff1673ffffffffffffffffffffffffffffffffffffffff1663ff3f1ad2600184610f589190611c9d565b6040518263ffffffff1660e01b8152600401610f7491906115f6565b600060405180830381865afa158015610f91573d6000803e3d6000fd5b505050506040513d6000823e3d601f19601f82011682018060405250810190610fba9190612112565b610160015173ffffffffffffffffffffffffffffffffffffffff16036110c1576000600182610fe99190611c9d565b90506000600160009054906101000a900473ffffffffffffffffffffffffffffffffffffffff1673ffffffffffffffffffffffffffffffffffffffff1663ff3f1ad2836040518263ffffffff1660e01b815260040161104891906115f6565b600060405180830381865afa158015611065573d6000803e3d6000fd5b505050506040513d6000823e3d601f19601f8201168201806040525081019061108e9190612112565b9050808486815181106110a4576110a361215b565b5b60200260200101819052506001856110bc9190611c9d565b945050505b80806110cc90611f4a565b915050610eee565b508094505050505090565b60606000600160009054906101000a900473ffffffffffffffffffffffffffffffffffffffff1673ffffffffffffffffffffffffffffffffffffffff166308f3c05f6040518163ffffffff1660e01b8152600401602060405180830381865afa158015611150573d6000803e3d6000fd5b505050506040513d601f19601f820116820180604052508101906111749190611c41565b905060008060005b8381101561128a573373ffffffffffffffffffffffffffffffffffffffff16600160009054906101000a900473ffffffffffffffffffffffffffffffffffffffff1673ffffffffffffffffffffffffffffffffffffffff1663f1258fb76001846111e69190611c9d565b6040518263ffffffff1660e01b815260040161120291906115f6565b600060405180830381865afa15801561121f573d6000803e3d6000fd5b505050506040513d6000823e3d601f19601f820116820180604052508101906112489190611f01565b6040015173ffffffffffffffffffffffffffffffffffffffff1603611277576001836112749190611c9d565b92505b808061128290611f4a565b91505061117c565b5060008267ffffffffffffffff8111156112a7576112a6611cd6565b5b6040519080825280602002602001820160405280156112e057816020015b6112cd611580565b8152602001906001900390816112c55790505b50905060005b848110156114cb573373ffffffffffffffffffffffffffffffffffffffff16600160009054906101000a900473ffffffffffffffffffffffffffffffffffffffff1673ffffffffffffffffffffffffffffffffffffffff1663f1258fb76001846113509190611c9d565b6040518263ffffffff1660e01b815260040161136c91906115f6565b600060405180830381865afa158015611389573d6000803e3d6000fd5b505050506040513d6000823e3d601f19601f820116820180604052508101906113b29190611f01565b6040015173ffffffffffffffffffffffffffffffffffffffff16036114b85760006001826113e09190611c9d565b90506000600160009054906101000a900473ffffffffffffffffffffffffffffffffffffffff1673ffffffffffffffffffffffffffffffffffffffff1663f1258fb7836040518263ffffffff1660e01b815260040161143f91906115f6565b600060405180830381865afa15801561145c573d6000803e3d6000fd5b505050506040513d6000823e3d601f19601f820116820180604052508101906114859190611f01565b90508084868151811061149b5761149a61215b565b5b60200260200101819052506001856114b39190611c9d565b945050505b80806114c390611f4a565b9150506112e6565b508094505050505090565b604051806101a0016040528060008152602001600081526020016000815260200160008152602001606081526020016000815260200160008152602001600081526020016000815260200160008152602001600073ffffffffffffffffffffffffffffffffffffffff168152602001600073ffffffffffffffffffffffffffffffffffffffff168152602001600073ffffffffffffffffffffffffffffffffffffffff1681525090565b6040518060a001604052806000815260200160608152602001600073ffffffffffffffffffffffffffffffffffffffff168152602001600073ffffffffffffffffffffffffffffffffffffffff1681526020016000151581525090565b6000819050919050565b6115f0816115dd565b82525050565b600060208201905061160b60008301846115e7565b92915050565b600081519050919050565b600082825260208201905092915050565b6000819050602082019050919050565b611646816115dd565b82525050565b600081519050919050565b600082825260208201905092915050565b60005b8381101561168657808201518184015260208101905061166b565b60008484015250505050565b6000601f19601f8301169050919050565b60006116ae8261164c565b6116b88185611657565b93506116c8818560208601611668565b6116d181611692565b840191505092915050565b600073ffffffffffffffffffffffffffffffffffffffff82169050919050565b6000611707826116dc565b9050919050565b611717816116fc565b82525050565b60006101a083016000830151611736600086018261163d565b506020830151611749602086018261163d565b50604083015161175c604086018261163d565b50606083015161176f606086018261163d565b506080830151848203608086015261178782826116a3565b91505060a083015161179c60a086018261163d565b5060c08301516117af60c086018261163d565b5060e08301516117c260e086018261163d565b506101008301516117d761010086018261163d565b506101208301516117ec61012086018261163d565b5061014083015161180161014086018261170e565b5061016083015161181661016086018261170e565b5061018083015161182b61018086018261170e565b508091505092915050565b6000611842838361171d565b905092915050565b6000602082019050919050565b600061186282611611565b61186c818561161c565b93508360208202850161187e8561162d565b8060005b858110156118ba578484038952815161189b8582611836565b94506118a68361184a565b925060208a01995050600181019050611882565b50829750879550505050505092915050565b600060208201905081810360008301526118e68184611857565b905092915050565b6000604051905090565b600080fd5b600080fd5b61190b816115dd565b811461191657600080fd5b50565b60008135905061192881611902565b92915050565b600060208284031215611944576119436118f8565b5b600061195284828501611919565b91505092915050565b60006101a083016000830151611974600086018261163d565b506020830151611987602086018261163d565b50604083015161199a604086018261163d565b5060608301516119ad606086018261163d565b50608083015184820360808601526119c582826116a3565b91505060a08301516119da60a086018261163d565b5060c08301516119ed60c086018261163d565b5060e0830151611a0060e086018261163d565b50610100830151611a1561010086018261163d565b50610120830151611a2a61012086018261163d565b50610140830151611a3f61014086018261170e565b50610160830151611a5461016086018261170e565b50610180830151611a6961018086018261170e565b508091505092915050565b60006020820190508181036000830152611a8e818461195b565b905092915050565b600081519050919050565b600082825260208201905092915050565b6000819050602082019050919050565b6000611acd826116dc565b9050919050565b611add81611ac2565b82525050565b60008115159050919050565b611af881611ae3565b82525050565b600060a083016000830151611b16600086018261163d565b5060208301518482036020860152611b2e82826116a3565b9150506040830151611b436040860182611ad4565b506060830151611b566060860182611ad4565b506080830151611b696080860182611aef565b508091505092915050565b6000611b808383611afe565b905092915050565b6000602082019050919050565b6000611ba082611a96565b611baa8185611aa1565b935083602082028501611bbc85611ab2565b8060005b85811015611bf85784840389528151611bd98582611b74565b9450611be483611b88565b925060208a01995050600181019050611bc0565b50829750879550505050505092915050565b60006020820190508181036000830152611c248184611b95565b905092915050565b600081519050611c3b81611902565b92915050565b600060208284031215611c5757611c566118f8565b5b6000611c6584828501611c2c565b91505092915050565b7f4e487b7100000000000000000000000000000000000000000000000000000000600052601160045260246000fd5b6000611ca8826115dd565b9150611cb3836115dd565b9250828201905080821115611ccb57611cca611c6e565b5b92915050565b600080fd5b7f4e487b7100000000000000000000000000000000000000000000000000000000600052604160045260246000fd5b611d0e82611692565b810181811067ffffffffffffffff82111715611d2d57611d2c611cd6565b5b80604052505050565b6000611d406118ee565b9050611d4c8282611d05565b919050565b600080fd5b600080fd5b600080fd5b600067ffffffffffffffff821115611d7b57611d7a611cd6565b5b611d8482611692565b9050602081019050919050565b6000611da4611d9f84611d60565b611d36565b905082815260208101848484011115611dc057611dbf611d5b565b5b611dcb848285611668565b509392505050565b600082601f830112611de857611de7611d56565b5b8151611df8848260208601611d91565b91505092915050565b611e0a81611ac2565b8114611e1557600080fd5b50565b600081519050611e2781611e01565b92915050565b611e3681611ae3565b8114611e4157600080fd5b50565b600081519050611e5381611e2d565b92915050565b600060a08284031215611e6f57611e6e611cd1565b5b611e7960a0611d36565b90506000611e8984828501611c2c565b600083015250602082015167ffffffffffffffff811115611ead57611eac611d51565b5b611eb984828501611dd3565b6020830152506040611ecd84828501611e18565b6040830152506060611ee184828501611e18565b6060830152506080611ef584828501611e44565b60808301525092915050565b600060208284031215611f1757611f166118f8565b5b600082015167ffffffffffffffff811115611f3557611f346118fd565b5b611f4184828501611e59565b91505092915050565b6000611f55826115dd565b91507fffffffffffffffffffffffffffffffffffffffffffffffffffffffffffffffff8203611f8757611f86611c6e565b5b600182019050919050565b611f9b816116fc565b8114611fa657600080fd5b50565b600081519050611fb881611f92565b92915050565b60006101a08284031215611fd557611fd4611cd1565b5b611fe06101a0611d36565b90506000611ff084828501611c2c565b600083015250602061200484828501611c2c565b602083015250604061201884828501611c2c565b604083015250606061202c84828501611c2c565b606083015250608082015167ffffffffffffffff8111156120505761204f611d51565b5b61205c84828501611dd3565b60808301525060a061207084828501611c2c565b60a08301525060c061208484828501611c2c565b60c08301525060e061209884828501611c2c565b60e0830152506101006120ad84828501611c2c565b610100830152506101206120c384828501611c2c565b610120830152506101406120d984828501611fa9565b610140830152506101606120ef84828501611fa9565b6101608301525061018061210584828501611fa9565b6101808301525092915050565b600060208284031215612128576121276118f8565b5b600082015167ffffffffffffffff811115612146576121456118fd565b5b61215284828501611fbe565b91505092915050565b7f4e487b7100000000000000000000000000000000000000000000000000000000600052603260045260246000fd5b6000612195826115dd565b91506121a0836115dd565b92508282039050818111156121b8576121b7611c6e565b5b9291505056fea264697066735822122069c2e5b88bc60634a0b85f51c8307960db9b5e85c545d4c0375eb4f8e5cb368264736f6c63430008140033",
  "linkReferences": {},
  "deployedLinkReferences": {}
}