{
  "_format": "hh-sol-artifact-1",
  "contractName": "FRDNFTMarketPlaceFeatures",
  "sourceName": "contracts/FRDNFTMarketPlaceFeatures.sol",
  "abi": [
    {
      "inputs": [
        {
          "internalType": "address",
          "name": "_frdNFTMarketPlaceAddress",
          "type": "address"
        }
      ],
      "stateMutability": "nonpayable",
      "type": "constructor"
    },
    {
      "inputs": [],
      "name": "ReentrancyGuardReentrantCall",
      "type": "error"
    },
    {
      "inputs": [],
      "name": "fetchItemsCreated",
      "outputs": [
        {
          "components": [
            {
              "internalType": "uint256",
              "name": "tokenId",
              "type": "uint256"
            },
            {
              "internalType": "uint256",
              "name": "itemId",
              "type": "uint256"
            },
            {
              "internalType": "uint256",
              "name": "decimalplaces",
              "type": "uint256"
            },
            {
              "internalType": "uint256",
              "name": "autionTime",
              "type": "uint256"
            },
            {
              "internalType": "string",
              "name": "tokenURI",
              "type": "string"
            },
            {
              "internalType": "uint256",
              "name": "biddingduration",
              "type": "uint256"
            },
            {
              "internalType": "uint256",
              "name": "creatorsalesroyalty",
              "type": "uint256"
            },
            {
              "internalType": "uint256",
              "name": "minbidamount",
              "type": "uint256"
            },
            {
              "internalType": "uint256",
              "name": "sellingprice",
              "type": "uint256"
            },
            {
              "internalType": "address payable",
              "name": "seller",
              "type": "address"
            },
            {
              "internalType": "address payable",
              "name": "creator",
              "type": "address"
            },
            {
              "internalType": "address payable",
              "name": "owner",
              "type": "address"
            }
          ],
          "internalType": "struct AuctionItem[]",
          "name": "",
          "type": "tuple[]"
        }
      ],
      "stateMutability": "view",
      "type": "function"
    },
    {
      "inputs": [],
      "name": "fetchUnSoldAuctionItems",
      "outputs": [
        {
          "components": [
            {
              "internalType": "uint256",
              "name": "tokenId",
              "type": "uint256"
            },
            {
              "internalType": "uint256",
              "name": "itemId",
              "type": "uint256"
            },
            {
              "internalType": "uint256",
              "name": "decimalplaces",
              "type": "uint256"
            },
            {
              "internalType": "uint256",
              "name": "autionTime",
              "type": "uint256"
            },
            {
              "internalType": "string",
              "name": "tokenURI",
              "type": "string"
            },
            {
              "internalType": "uint256",
              "name": "biddingduration",
              "type": "uint256"
            },
            {
              "internalType": "uint256",
              "name": "creatorsalesroyalty",
              "type": "uint256"
            },
            {
              "internalType": "uint256",
              "name": "minbidamount",
              "type": "uint256"
            },
            {
              "internalType": "uint256",
              "name": "sellingprice",
              "type": "uint256"
            },
            {
              "internalType": "address payable",
              "name": "seller",
              "type": "address"
            },
            {
              "internalType": "address payable",
              "name": "creator",
              "type": "address"
            },
            {
              "internalType": "address payable",
              "name": "owner",
              "type": "address"
            }
          ],
          "internalType": "struct AuctionItem[]",
          "name": "",
          "type": "tuple[]"
        }
      ],
      "stateMutability": "view",
      "type": "function"
    },
    {
      "inputs": [],
      "name": "fetchUserPurchasedNFTs",
      "outputs": [
        {
          "components": [
            {
              "internalType": "uint256",
              "name": "tokenId",
              "type": "uint256"
            },
            {
              "internalType": "uint256",
              "name": "itemId",
              "type": "uint256"
            },
            {
              "internalType": "uint256",
              "name": "decimalplaces",
              "type": "uint256"
            },
            {
              "internalType": "uint256",
              "name": "autionTime",
              "type": "uint256"
            },
            {
              "internalType": "string",
              "name": "tokenURI",
              "type": "string"
            },
            {
              "internalType": "uint256",
              "name": "biddingduration",
              "type": "uint256"
            },
            {
              "internalType": "uint256",
              "name": "creatorsalesroyalty",
              "type": "uint256"
            },
            {
              "internalType": "uint256",
              "name": "minbidamount",
              "type": "uint256"
            },
            {
              "internalType": "uint256",
              "name": "sellingprice",
              "type": "uint256"
            },
            {
              "internalType": "address payable",
              "name": "seller",
              "type": "address"
            },
            {
              "internalType": "address payable",
              "name": "creator",
              "type": "address"
            },
            {
              "internalType": "address payable",
              "name": "owner",
              "type": "address"
            }
          ],
          "internalType": "struct AuctionItem[]",
          "name": "",
          "type": "tuple[]"
        }
      ],
      "stateMutability": "view",
      "type": "function"
    },
    {
      "inputs": [
        {
          "internalType": "uint256",
          "name": "_itemId",
          "type": "uint256"
        }
      ],
      "name": "getAuctionItem",
      "outputs": [
        {
          "components": [
            {
              "internalType": "uint256",
              "name": "tokenId",
              "type": "uint256"
            },
            {
              "internalType": "uint256",
              "name": "itemId",
              "type": "uint256"
            },
            {
              "internalType": "uint256",
              "name": "decimalplaces",
              "type": "uint256"
            },
            {
              "internalType": "uint256",
              "name": "autionTime",
              "type": "uint256"
            },
            {
              "internalType": "string",
              "name": "tokenURI",
              "type": "string"
            },
            {
              "internalType": "uint256",
              "name": "biddingduration",
              "type": "uint256"
            },
            {
              "internalType": "uint256",
              "name": "creatorsalesroyalty",
              "type": "uint256"
            },
            {
              "internalType": "uint256",
              "name": "minbidamount",
              "type": "uint256"
            },
            {
              "internalType": "uint256",
              "name": "sellingprice",
              "type": "uint256"
            },
            {
              "internalType": "address payable",
              "name": "seller",
              "type": "address"
            },
            {
              "internalType": "address payable",
              "name": "creator",
              "type": "address"
            },
            {
              "internalType": "address payable",
              "name": "owner",
              "type": "address"
            }
          ],
          "internalType": "struct AuctionItem",
          "name": "",
          "type": "tuple"
        }
      ],
      "stateMutability": "view",
      "type": "function"
    },
    {
      "inputs": [
        {
          "internalType": "uint256",
          "name": "_itemId",
          "type": "uint256"
        }
      ],
      "name": "getAuctionItemRemainingTime",
      "outputs": [
        {
          "internalType": "uint256",
          "name": "",
          "type": "uint256"
        }
      ],
      "stateMutability": "view",
      "type": "function"
    },
    {
      "inputs": [],
      "name": "getMintedNfts",
      "outputs": [
        {
          "components": [
            {
              "internalType": "uint256",
              "name": "tokenId",
              "type": "uint256"
            },
            {
              "internalType": "string",
              "name": "tokenURI",
              "type": "string"
            },
            {
              "internalType": "address",
              "name": "creator",
              "type": "address"
            },
            {
              "internalType": "address",
              "name": "owner",
              "type": "address"
            },
            {
              "internalType": "bool",
              "name": "hascreatedToken",
              "type": "bool"
            }
          ],
          "internalType": "struct NFTMints[]",
          "name": "",
          "type": "tuple[]"
        }
      ],
      "stateMutability": "view",
      "type": "function"
    },
    {
      "inputs": [],
      "name": "getUserNFTMintedCount",
      "outputs": [
        {
          "internalType": "uint256",
          "name": "",
          "type": "uint256"
        }
      ],
      "stateMutability": "view",
      "type": "function"
    }
  ],
  "bytecode": "0x60806040523480156200001157600080fd5b506040516200234438038062002344833981810160405281019062000037919062000173565b600160008190555080600160006101000a81548173ffffffffffffffffffffffffffffffffffffffff021916908373ffffffffffffffffffffffffffffffffffffffff16021790555080600360006101000a81548173ffffffffffffffffffffffffffffffffffffffff021916908373ffffffffffffffffffffffffffffffffffffffff16021790555033600260006101000a81548173ffffffffffffffffffffffffffffffffffffffff021916908373ffffffffffffffffffffffffffffffffffffffff16021790555050620001a5565b600080fd5b600073ffffffffffffffffffffffffffffffffffffffff82169050919050565b60006200013b826200010e565b9050919050565b6200014d816200012e565b81146200015957600080fd5b50565b6000815190506200016d8162000142565b92915050565b6000602082840312156200018c576200018b62000109565b5b60006200019c848285016200015c565b91505092915050565b61218f80620001b56000396000f3fe608060405234801561001057600080fd5b506004361061007d5760003560e01c80636afc33161161005b5780636afc3316146100ee578063b52dee9b1461010c578063f064c32e1461013c578063fc8a16a01461015a5761007d565b80630c4a09341461008257806326304f05146100a057806368bae934146100be575b600080fd5b61008a610178565b60405161009791906115d1565b60405180910390f35b6100a8610329565b6040516100b59190611892565b60405180910390f35b6100d860048036038101906100d391906118f4565b610766565b6040516100e59190611a25565b60405180910390f35b6100f6610816565b6040516101039190611892565b60405180910390f35b610126600480360381019061012191906118f4565b610c0f565b60405161013391906115d1565b60405180910390f35b610144610cc8565b6040516101519190611892565b60405180910390f35b6101626110c1565b60405161016f9190611bbb565b60405180910390f35b600080600160009054906101000a900473ffffffffffffffffffffffffffffffffffffffff1673ffffffffffffffffffffffffffffffffffffffff166308f3c05f6040518163ffffffff1660e01b8152600401602060405180830381865afa1580156101e8573d6000803e3d6000fd5b505050506040513d601f19601f8201168201806040525081019061020c9190611bf2565b90506000805b82811015610320573373ffffffffffffffffffffffffffffffffffffffff16600160009054906101000a900473ffffffffffffffffffffffffffffffffffffffff1673ffffffffffffffffffffffffffffffffffffffff1663f1258fb760018461027c9190611c4e565b6040518263ffffffff1660e01b815260040161029891906115d1565b600060405180830381865afa1580156102b5573d6000803e3d6000fd5b505050506040513d6000823e3d601f19601f820116820180604052508101906102de9190611eb2565b6040015173ffffffffffffffffffffffffffffffffffffffff160361030d5760018261030a9190611c4e565b91505b808061031890611efb565b915050610212565b50809250505090565b60606000600160009054906101000a900473ffffffffffffffffffffffffffffffffffffffff1673ffffffffffffffffffffffffffffffffffffffff1663abe057c66040518163ffffffff1660e01b8152600401602060405180830381865afa15801561039a573d6000803e3d6000fd5b505050506040513d601f19601f820116820180604052508101906103be9190611bf2565b905060008060005b838110156104f757600360009054906101000a900473ffffffffffffffffffffffffffffffffffffffff1673ffffffffffffffffffffffffffffffffffffffff16600160009054906101000a900473ffffffffffffffffffffffffffffffffffffffff1673ffffffffffffffffffffffffffffffffffffffff1663ff3f1ad26001846104529190611c4e565b6040518263ffffffff1660e01b815260040161046e91906115d1565b600060405180830381865afa15801561048b573d6000803e3d6000fd5b505050506040513d6000823e3d601f19601f820116820180604052508101906104b491906120ad565b610160015173ffffffffffffffffffffffffffffffffffffffff16036104e4576001836104e19190611c4e565b92505b80806104ef90611efb565b9150506103c6565b5060008267ffffffffffffffff81111561051457610513611c87565b5b60405190808252806020026020018201604052801561054d57816020015b61053a6114b8565b8152602001906001900390816105325790505b50905060005b8381101561075b57600360009054906101000a900473ffffffffffffffffffffffffffffffffffffffff1673ffffffffffffffffffffffffffffffffffffffff16600160009054906101000a900473ffffffffffffffffffffffffffffffffffffffff1673ffffffffffffffffffffffffffffffffffffffff1663ff3f1ad26001846105df9190611c4e565b6040518263ffffffff1660e01b81526004016105fb91906115d1565b600060405180830381865afa158015610618573d6000803e3d6000fd5b505050506040513d6000823e3d601f19601f8201168201806040525081019061064191906120ad565b610160015173ffffffffffffffffffffffffffffffffffffffff16036107485760006001826106709190611c4e565b90506000600160009054906101000a900473ffffffffffffffffffffffffffffffffffffffff1673ffffffffffffffffffffffffffffffffffffffff1663ff3f1ad2836040518263ffffffff1660e01b81526004016106cf91906115d1565b600060405180830381865afa1580156106ec573d6000803e3d6000fd5b505050506040513d6000823e3d601f19601f8201168201806040525081019061071591906120ad565b90508084868151811061072b5761072a6120f6565b5b60200260200101819052506001856107439190611c4e565b945050505b808061075390611efb565b915050610553565b508094505050505090565b61076e6114b8565b600160009054906101000a900473ffffffffffffffffffffffffffffffffffffffff1673ffffffffffffffffffffffffffffffffffffffff1663ff3f1ad2836040518263ffffffff1660e01b81526004016107c991906115d1565b600060405180830381865afa1580156107e6573d6000803e3d6000fd5b505050506040513d6000823e3d601f19601f8201168201806040525081019061080f91906120ad565b9050919050565b60606000600160009054906101000a900473ffffffffffffffffffffffffffffffffffffffff1673ffffffffffffffffffffffffffffffffffffffff1663abe057c66040518163ffffffff1660e01b8152600401602060405180830381865afa158015610887573d6000803e3d6000fd5b505050506040513d601f19601f820116820180604052508101906108ab9190611bf2565b905060008060005b838110156109c2573373ffffffffffffffffffffffffffffffffffffffff16600160009054906101000a900473ffffffffffffffffffffffffffffffffffffffff1673ffffffffffffffffffffffffffffffffffffffff1663ff3f1ad260018461091d9190611c4e565b6040518263ffffffff1660e01b815260040161093991906115d1565b600060405180830381865afa158015610956573d6000803e3d6000fd5b505050506040513d6000823e3d601f19601f8201168201806040525081019061097f91906120ad565b610160015173ffffffffffffffffffffffffffffffffffffffff16036109af576001836109ac9190611c4e565b92505b80806109ba90611efb565b9150506108b3565b5060008267ffffffffffffffff8111156109df576109de611c87565b5b604051908082528060200260200182016040528015610a1857816020015b610a056114b8565b8152602001906001900390816109fd5790505b50905060005b84811015610c04573373ffffffffffffffffffffffffffffffffffffffff16600160009054906101000a900473ffffffffffffffffffffffffffffffffffffffff1673ffffffffffffffffffffffffffffffffffffffff1663ff3f1ad2600184610a889190611c4e565b6040518263ffffffff1660e01b8152600401610aa491906115d1565b600060405180830381865afa158015610ac1573d6000803e3d6000fd5b505050506040513d6000823e3d601f19601f82011682018060405250810190610aea91906120ad565b610160015173ffffffffffffffffffffffffffffffffffffffff1603610bf1576000600182610b199190611c4e565b90506000600160009054906101000a900473ffffffffffffffffffffffffffffffffffffffff1673ffffffffffffffffffffffffffffffffffffffff1663ff3f1ad2836040518263ffffffff1660e01b8152600401610b7891906115d1565b600060405180830381865afa158015610b95573d6000803e3d6000fd5b505050506040513d6000823e3d601f19601f82011682018060405250810190610bbe91906120ad565b905080848681518110610bd457610bd36120f6565b5b6020026020010181905250600185610bec9190611c4e565b945050505b8080610bfc90611efb565b915050610a1e565b508094505050505090565b6000600160009054906101000a900473ffffffffffffffffffffffffffffffffffffffff1673ffffffffffffffffffffffffffffffffffffffff1663ff3f1ad2836040518263ffffffff1660e01b8152600401610c6c91906115d1565b600060405180830381865afa158015610c89573d6000803e3d6000fd5b505050506040513d6000823e3d601f19601f82011682018060405250810190610cb291906120ad565b6060015142610cc19190612125565b9050919050565b60606000600160009054906101000a900473ffffffffffffffffffffffffffffffffffffffff1673ffffffffffffffffffffffffffffffffffffffff1663abe057c66040518163ffffffff1660e01b8152600401602060405180830381865afa158015610d39573d6000803e3d6000fd5b505050506040513d601f19601f82011682018060405250810190610d5d9190611bf2565b905060008060005b83811015610e74573373ffffffffffffffffffffffffffffffffffffffff16600160009054906101000a900473ffffffffffffffffffffffffffffffffffffffff1673ffffffffffffffffffffffffffffffffffffffff1663ff3f1ad2600184610dcf9190611c4e565b6040518263ffffffff1660e01b8152600401610deb91906115d1565b600060405180830381865afa158015610e08573d6000803e3d6000fd5b505050506040513d6000823e3d601f19601f82011682018060405250810190610e3191906120ad565b610140015173ffffffffffffffffffffffffffffffffffffffff1603610e6157600183610e5e9190611c4e565b92505b8080610e6c90611efb565b915050610d65565b5060008267ffffffffffffffff811115610e9157610e90611c87565b5b604051908082528060200260200182016040528015610eca57816020015b610eb76114b8565b815260200190600190039081610eaf5790505b50905060005b848110156110b6573373ffffffffffffffffffffffffffffffffffffffff16600160009054906101000a900473ffffffffffffffffffffffffffffffffffffffff1673ffffffffffffffffffffffffffffffffffffffff1663ff3f1ad2600184610f3a9190611c4e565b6040518263ffffffff1660e01b8152600401610f5691906115d1565b600060405180830381865afa158015610f73573d6000803e3d6000fd5b505050506040513d6000823e3d601f19601f82011682018060405250810190610f9c91906120ad565b610140015173ffffffffffffffffffffffffffffffffffffffff16036110a3576000600182610fcb9190611c4e565b90506000600160009054906101000a900473ffffffffffffffffffffffffffffffffffffffff1673ffffffffffffffffffffffffffffffffffffffff1663ff3f1ad2836040518263ffffffff1660e01b815260040161102a91906115d1565b600060405180830381865afa158015611047573d6000803e3d6000fd5b505050506040513d6000823e3d601f19601f8201168201806040525081019061107091906120ad565b905080848681518110611086576110856120f6565b5b602002602001018190525060018561109e9190611c4e565b945050505b80806110ae90611efb565b915050610ed0565b508094505050505090565b60606000600160009054906101000a900473ffffffffffffffffffffffffffffffffffffffff1673ffffffffffffffffffffffffffffffffffffffff166308f3c05f6040518163ffffffff1660e01b8152600401602060405180830381865afa158015611132573d6000803e3d6000fd5b505050506040513d601f19601f820116820180604052508101906111569190611bf2565b905060008060005b8381101561126c573373ffffffffffffffffffffffffffffffffffffffff16600160009054906101000a900473ffffffffffffffffffffffffffffffffffffffff1673ffffffffffffffffffffffffffffffffffffffff1663f1258fb76001846111c89190611c4e565b6040518263ffffffff1660e01b81526004016111e491906115d1565b600060405180830381865afa158015611201573d6000803e3d6000fd5b505050506040513d6000823e3d601f19601f8201168201806040525081019061122a9190611eb2565b6040015173ffffffffffffffffffffffffffffffffffffffff1603611259576001836112569190611c4e565b92505b808061126490611efb565b91505061115e565b5060008267ffffffffffffffff81111561128957611288611c87565b5b6040519080825280602002602001820160405280156112c257816020015b6112af61155b565b8152602001906001900390816112a75790505b50905060005b848110156114ad573373ffffffffffffffffffffffffffffffffffffffff16600160009054906101000a900473ffffffffffffffffffffffffffffffffffffffff1673ffffffffffffffffffffffffffffffffffffffff1663f1258fb76001846113329190611c4e565b6040518263ffffffff1660e01b815260040161134e91906115d1565b600060405180830381865afa15801561136b573d6000803e3d6000fd5b505050506040513d6000823e3d601f19601f820116820180604052508101906113949190611eb2565b6040015173ffffffffffffffffffffffffffffffffffffffff160361149a5760006001826113c29190611c4e565b90506000600160009054906101000a900473ffffffffffffffffffffffffffffffffffffffff1673ffffffffffffffffffffffffffffffffffffffff1663f1258fb7836040518263ffffffff1660e01b815260040161142191906115d1565b600060405180830381865afa15801561143e573d6000803e3d6000fd5b505050506040513d6000823e3d601f19601f820116820180604052508101906114679190611eb2565b90508084868151811061147d5761147c6120f6565b5b60200260200101819052506001856114959190611c4e565b945050505b80806114a590611efb565b9150506112c8565b508094505050505090565b604051806101800160405280600081526020016000815260200160008152602001600081526020016060815260200160008152602001600081526020016000815260200160008152602001600073ffffffffffffffffffffffffffffffffffffffff168152602001600073ffffffffffffffffffffffffffffffffffffffff168152602001600073ffffffffffffffffffffffffffffffffffffffff1681525090565b6040518060a001604052806000815260200160608152602001600073ffffffffffffffffffffffffffffffffffffffff168152602001600073ffffffffffffffffffffffffffffffffffffffff1681526020016000151581525090565b6000819050919050565b6115cb816115b8565b82525050565b60006020820190506115e660008301846115c2565b92915050565b600081519050919050565b600082825260208201905092915050565b6000819050602082019050919050565b611621816115b8565b82525050565b600081519050919050565b600082825260208201905092915050565b60005b83811015611661578082015181840152602081019050611646565b60008484015250505050565b6000601f19601f8301169050919050565b600061168982611627565b6116938185611632565b93506116a3818560208601611643565b6116ac8161166d565b840191505092915050565b600073ffffffffffffffffffffffffffffffffffffffff82169050919050565b60006116e2826116b7565b9050919050565b6116f2816116d7565b82525050565b6000610180830160008301516117116000860182611618565b5060208301516117246020860182611618565b5060408301516117376040860182611618565b50606083015161174a6060860182611618565b5060808301518482036080860152611762828261167e565b91505060a083015161177760a0860182611618565b5060c083015161178a60c0860182611618565b5060e083015161179d60e0860182611618565b506101008301516117b2610100860182611618565b506101208301516117c76101208601826116e9565b506101408301516117dc6101408601826116e9565b506101608301516117f16101608601826116e9565b508091505092915050565b600061180883836116f8565b905092915050565b6000602082019050919050565b6000611828826115ec565b61183281856115f7565b93508360208202850161184485611608565b8060005b85811015611880578484038952815161186185826117fc565b945061186c83611810565b925060208a01995050600181019050611848565b50829750879550505050505092915050565b600060208201905081810360008301526118ac818461181d565b905092915050565b6000604051905090565b600080fd5b600080fd5b6118d1816115b8565b81146118dc57600080fd5b50565b6000813590506118ee816118c8565b92915050565b60006020828403121561190a576119096118be565b5b6000611918848285016118df565b91505092915050565b60006101808301600083015161193a6000860182611618565b50602083015161194d6020860182611618565b5060408301516119606040860182611618565b5060608301516119736060860182611618565b506080830151848203608086015261198b828261167e565b91505060a08301516119a060a0860182611618565b5060c08301516119b360c0860182611618565b5060e08301516119c660e0860182611618565b506101008301516119db610100860182611618565b506101208301516119f06101208601826116e9565b50610140830151611a056101408601826116e9565b50610160830151611a1a6101608601826116e9565b508091505092915050565b60006020820190508181036000830152611a3f8184611921565b905092915050565b600081519050919050565b600082825260208201905092915050565b6000819050602082019050919050565b6000611a7e826116b7565b9050919050565b611a8e81611a73565b82525050565b60008115159050919050565b611aa981611a94565b82525050565b600060a083016000830151611ac76000860182611618565b5060208301518482036020860152611adf828261167e565b9150506040830151611af46040860182611a85565b506060830151611b076060860182611a85565b506080830151611b1a6080860182611aa0565b508091505092915050565b6000611b318383611aaf565b905092915050565b6000602082019050919050565b6000611b5182611a47565b611b5b8185611a52565b935083602082028501611b6d85611a63565b8060005b85811015611ba95784840389528151611b8a8582611b25565b9450611b9583611b39565b925060208a01995050600181019050611b71565b50829750879550505050505092915050565b60006020820190508181036000830152611bd58184611b46565b905092915050565b600081519050611bec816118c8565b92915050565b600060208284031215611c0857611c076118be565b5b6000611c1684828501611bdd565b91505092915050565b7f4e487b7100000000000000000000000000000000000000000000000000000000600052601160045260246000fd5b6000611c59826115b8565b9150611c64836115b8565b9250828201905080821115611c7c57611c7b611c1f565b5b92915050565b600080fd5b7f4e487b7100000000000000000000000000000000000000000000000000000000600052604160045260246000fd5b611cbf8261166d565b810181811067ffffffffffffffff82111715611cde57611cdd611c87565b5b80604052505050565b6000611cf16118b4565b9050611cfd8282611cb6565b919050565b600080fd5b600080fd5b600080fd5b600067ffffffffffffffff821115611d2c57611d2b611c87565b5b611d358261166d565b9050602081019050919050565b6000611d55611d5084611d11565b611ce7565b905082815260208101848484011115611d7157611d70611d0c565b5b611d7c848285611643565b509392505050565b600082601f830112611d9957611d98611d07565b5b8151611da9848260208601611d42565b91505092915050565b611dbb81611a73565b8114611dc657600080fd5b50565b600081519050611dd881611db2565b92915050565b611de781611a94565b8114611df257600080fd5b50565b600081519050611e0481611dde565b92915050565b600060a08284031215611e2057611e1f611c82565b5b611e2a60a0611ce7565b90506000611e3a84828501611bdd565b600083015250602082015167ffffffffffffffff811115611e5e57611e5d611d02565b5b611e6a84828501611d84565b6020830152506040611e7e84828501611dc9565b6040830152506060611e9284828501611dc9565b6060830152506080611ea684828501611df5565b60808301525092915050565b600060208284031215611ec857611ec76118be565b5b600082015167ffffffffffffffff811115611ee657611ee56118c3565b5b611ef284828501611e0a565b91505092915050565b6000611f06826115b8565b91507fffffffffffffffffffffffffffffffffffffffffffffffffffffffffffffffff8203611f3857611f37611c1f565b5b600182019050919050565b611f4c816116d7565b8114611f5757600080fd5b50565b600081519050611f6981611f43565b92915050565b60006101808284031215611f8657611f85611c82565b5b611f91610180611ce7565b90506000611fa184828501611bdd565b6000830152506020611fb584828501611bdd565b6020830152506040611fc984828501611bdd565b6040830152506060611fdd84828501611bdd565b606083015250608082015167ffffffffffffffff81111561200157612000611d02565b5b61200d84828501611d84565b60808301525060a061202184828501611bdd565b60a08301525060c061203584828501611bdd565b60c08301525060e061204984828501611bdd565b60e08301525061010061205e84828501611bdd565b6101008301525061012061207484828501611f5a565b6101208301525061014061208a84828501611f5a565b610140830152506101606120a084828501611f5a565b6101608301525092915050565b6000602082840312156120c3576120c26118be565b5b600082015167ffffffffffffffff8111156120e1576120e06118c3565b5b6120ed84828501611f6f565b91505092915050565b7f4e487b7100000000000000000000000000000000000000000000000000000000600052603260045260246000fd5b6000612130826115b8565b915061213b836115b8565b925082820390508181111561215357612152611c1f565b5b9291505056fea2646970667358221220757f849e5a936f742c72a449bc1d949898412d3723df15841a953e0928b659b964736f6c63430008140033",
  "linkReferences": {},
  "deployedLinkReferences": {}
}