{
  "_format": "hh-sol-artifact-1",
  "contractName": "FRDNFTMarketPlace",
  "sourceName": "contracts/FRDNFTMarketPlace.sol",
  "abi": [
    {
      "inputs": [],
      "stateMutability": "nonpayable",
      "type": "constructor"
    },
    {
      "inputs": [
        {
          "internalType": "address",
          "name": "sender",
          "type": "address"
        },
        {
          "internalType": "uint256",
          "name": "tokenId",
          "type": "uint256"
        },
        {
          "internalType": "address",
          "name": "owner",
          "type": "address"
        }
      ],
      "name": "ERC721IncorrectOwner",
      "type": "error"
    },
    {
      "inputs": [
        {
          "internalType": "address",
          "name": "operator",
          "type": "address"
        },
        {
          "internalType": "uint256",
          "name": "tokenId",
          "type": "uint256"
        }
      ],
      "name": "ERC721InsufficientApproval",
      "type": "error"
    },
    {
      "inputs": [
        {
          "internalType": "address",
          "name": "approver",
          "type": "address"
        }
      ],
      "name": "ERC721InvalidApprover",
      "type": "error"
    },
    {
      "inputs": [
        {
          "internalType": "address",
          "name": "operator",
          "type": "address"
        }
      ],
      "name": "ERC721InvalidOperator",
      "type": "error"
    },
    {
      "inputs": [
        {
          "internalType": "address",
          "name": "owner",
          "type": "address"
        }
      ],
      "name": "ERC721InvalidOwner",
      "type": "error"
    },
    {
      "inputs": [
        {
          "internalType": "address",
          "name": "receiver",
          "type": "address"
        }
      ],
      "name": "ERC721InvalidReceiver",
      "type": "error"
    },
    {
      "inputs": [
        {
          "internalType": "address",
          "name": "sender",
          "type": "address"
        }
      ],
      "name": "ERC721InvalidSender",
      "type": "error"
    },
    {
      "inputs": [
        {
          "internalType": "uint256",
          "name": "tokenId",
          "type": "uint256"
        }
      ],
      "name": "ERC721NonexistentToken",
      "type": "error"
    },
    {
      "inputs": [],
      "name": "ReentrancyGuardReentrantCall",
      "type": "error"
    },
    {
      "anonymous": false,
      "inputs": [
        {
          "indexed": true,
          "internalType": "address",
          "name": "owner",
          "type": "address"
        },
        {
          "indexed": true,
          "internalType": "address",
          "name": "approved",
          "type": "address"
        },
        {
          "indexed": true,
          "internalType": "uint256",
          "name": "tokenId",
          "type": "uint256"
        }
      ],
      "name": "Approval",
      "type": "event"
    },
    {
      "anonymous": false,
      "inputs": [
        {
          "indexed": true,
          "internalType": "address",
          "name": "owner",
          "type": "address"
        },
        {
          "indexed": true,
          "internalType": "address",
          "name": "operator",
          "type": "address"
        },
        {
          "indexed": false,
          "internalType": "bool",
          "name": "approved",
          "type": "bool"
        }
      ],
      "name": "ApprovalForAll",
      "type": "event"
    },
    {
      "anonymous": false,
      "inputs": [
        {
          "indexed": true,
          "internalType": "uint256",
          "name": "tokenId",
          "type": "uint256"
        },
        {
          "indexed": true,
          "internalType": "uint256",
          "name": "itemId",
          "type": "uint256"
        },
        {
          "indexed": true,
          "internalType": "string",
          "name": "tokenURI",
          "type": "string"
        }
      ],
      "name": "AuctionItemCreated",
      "type": "event"
    },
    {
      "anonymous": false,
      "inputs": [
        {
          "indexed": false,
          "internalType": "uint256",
          "name": "_fromTokenId",
          "type": "uint256"
        },
        {
          "indexed": false,
          "internalType": "uint256",
          "name": "_toTokenId",
          "type": "uint256"
        }
      ],
      "name": "BatchMetadataUpdate",
      "type": "event"
    },
    {
      "anonymous": false,
      "inputs": [
        {
          "indexed": true,
          "internalType": "uint256",
          "name": "itemId",
          "type": "uint256"
        },
        {
          "indexed": false,
          "internalType": "address",
          "name": "bidderaddress",
          "type": "address"
        },
        {
          "indexed": false,
          "internalType": "uint256",
          "name": "biddingprice",
          "type": "uint256"
        }
      ],
      "name": "BidPlaced",
      "type": "event"
    },
    {
      "anonymous": false,
      "inputs": [
        {
          "indexed": true,
          "internalType": "uint256",
          "name": "itemId",
          "type": "uint256"
        },
        {
          "indexed": false,
          "internalType": "address",
          "name": "bidderaddress",
          "type": "address"
        },
        {
          "indexed": false,
          "internalType": "uint256",
          "name": "amount",
          "type": "uint256"
        }
      ],
      "name": "BidRefunded",
      "type": "event"
    },
    {
      "anonymous": false,
      "inputs": [
        {
          "indexed": true,
          "internalType": "uint256",
          "name": "itemId",
          "type": "uint256"
        },
        {
          "indexed": false,
          "internalType": "address",
          "name": "bidderaddress",
          "type": "address"
        },
        {
          "indexed": false,
          "internalType": "uint256",
          "name": "amount",
          "type": "uint256"
        }
      ],
      "name": "ItemSold",
      "type": "event"
    },
    {
      "anonymous": false,
      "inputs": [
        {
          "indexed": false,
          "internalType": "uint256",
          "name": "_tokenId",
          "type": "uint256"
        }
      ],
      "name": "MetadataUpdate",
      "type": "event"
    },
    {
      "anonymous": false,
      "inputs": [
        {
          "indexed": true,
          "internalType": "uint256",
          "name": "tokenId",
          "type": "uint256"
        },
        {
          "indexed": false,
          "internalType": "string",
          "name": "tokenURI",
          "type": "string"
        },
        {
          "indexed": false,
          "internalType": "address",
          "name": "creator",
          "type": "address"
        }
      ],
      "name": "NFTMinted",
      "type": "event"
    },
    {
      "anonymous": false,
      "inputs": [
        {
          "indexed": true,
          "internalType": "address",
          "name": "from",
          "type": "address"
        },
        {
          "indexed": true,
          "internalType": "address",
          "name": "to",
          "type": "address"
        },
        {
          "indexed": true,
          "internalType": "uint256",
          "name": "tokenId",
          "type": "uint256"
        }
      ],
      "name": "Transfer",
      "type": "event"
    },
    {
      "anonymous": false,
      "inputs": [
        {
          "indexed": true,
          "internalType": "uint256",
          "name": "tokenId",
          "type": "uint256"
        },
        {
          "indexed": true,
          "internalType": "uint256",
          "name": "itemId",
          "type": "uint256"
        },
        {
          "indexed": false,
          "internalType": "uint256",
          "name": "newminbidamount",
          "type": "uint256"
        },
        {
          "indexed": false,
          "internalType": "uint256",
          "name": "newsellingprice",
          "type": "uint256"
        }
      ],
      "name": "updateBiddingPrice",
      "type": "event"
    },
    {
      "inputs": [
        {
          "internalType": "uint256",
          "name": "itemId",
          "type": "uint256"
        },
        {
          "internalType": "uint256",
          "name": "amount",
          "type": "uint256"
        }
      ],
      "name": "DirectNFTSale",
      "outputs": [],
      "stateMutability": "payable",
      "type": "function"
    },
    {
      "inputs": [
        {
          "internalType": "uint256",
          "name": "itemId",
          "type": "uint256"
        }
      ],
      "name": "ListBackAuctionItem",
      "outputs": [],
      "stateMutability": "payable",
      "type": "function"
    },
    {
      "inputs": [
        {
          "internalType": "uint256",
          "name": "itemId",
          "type": "uint256"
        }
      ],
      "name": "acceptHighestBid",
      "outputs": [],
      "stateMutability": "payable",
      "type": "function"
    },
    {
      "inputs": [
        {
          "internalType": "address",
          "name": "to",
          "type": "address"
        },
        {
          "internalType": "uint256",
          "name": "tokenId",
          "type": "uint256"
        }
      ],
      "name": "approve",
      "outputs": [],
      "stateMutability": "nonpayable",
      "type": "function"
    },
    {
      "inputs": [
        {
          "internalType": "address",
          "name": "owner",
          "type": "address"
        }
      ],
      "name": "balanceOf",
      "outputs": [
        {
          "internalType": "uint256",
          "name": "",
          "type": "uint256"
        }
      ],
      "stateMutability": "view",
      "type": "function"
    },
    {
      "inputs": [
        {
          "internalType": "uint256",
          "name": "itemId",
          "type": "uint256"
        },
        {
          "internalType": "uint256",
          "name": "biddingprice_",
          "type": "uint256"
        }
      ],
      "name": "bidOnNFT",
      "outputs": [],
      "stateMutability": "payable",
      "type": "function"
    },
    {
      "inputs": [
        {
          "internalType": "uint256",
          "name": "tokenId",
          "type": "uint256"
        },
        {
          "internalType": "uint256",
          "name": "sellingprice",
          "type": "uint256"
        },
        {
          "internalType": "uint256",
          "name": "duration",
          "type": "uint256"
        },
        {
          "internalType": "uint256",
          "name": "minbidamount",
          "type": "uint256"
        },
        {
          "internalType": "uint256",
          "name": "creatorsalesroyalty",
          "type": "uint256"
        },
        {
          "internalType": "uint256",
          "name": "dcp",
          "type": "uint256"
        }
      ],
      "name": "createAuctionItem",
      "outputs": [],
      "stateMutability": "nonpayable",
      "type": "function"
    },
    {
      "inputs": [
        {
          "internalType": "string",
          "name": "tokenURI",
          "type": "string"
        }
      ],
      "name": "createToken",
      "outputs": [
        {
          "internalType": "uint256",
          "name": "",
          "type": "uint256"
        }
      ],
      "stateMutability": "nonpayable",
      "type": "function"
    },
    {
      "inputs": [
        {
          "internalType": "uint256",
          "name": "itemId",
          "type": "uint256"
        }
      ],
      "name": "getAllBidsForItem",
      "outputs": [
        {
          "components": [
            {
              "internalType": "uint256",
              "name": "biddingtime",
              "type": "uint256"
            },
            {
              "internalType": "address payable",
              "name": "bidderaddress",
              "type": "address"
            },
            {
              "internalType": "uint256",
              "name": "biddingprice",
              "type": "uint256"
            },
            {
              "internalType": "bool",
              "name": "biddingsuccess",
              "type": "bool"
            },
            {
              "internalType": "bool",
              "name": "wasitempurchased",
              "type": "bool"
            }
          ],
          "internalType": "struct Bid[]",
          "name": "",
          "type": "tuple[]"
        }
      ],
      "stateMutability": "view",
      "type": "function"
    },
    {
      "inputs": [],
      "name": "getAllItemIdsCount",
      "outputs": [
        {
          "internalType": "uint256",
          "name": "",
          "type": "uint256"
        }
      ],
      "stateMutability": "view",
      "type": "function"
    },
    {
      "inputs": [],
      "name": "getAllNFTMintsCount",
      "outputs": [
        {
          "internalType": "uint256",
          "name": "",
          "type": "uint256"
        }
      ],
      "stateMutability": "view",
      "type": "function"
    },
    {
      "inputs": [
        {
          "internalType": "uint256",
          "name": "tokenId",
          "type": "uint256"
        }
      ],
      "name": "getApproved",
      "outputs": [
        {
          "internalType": "address",
          "name": "",
          "type": "address"
        }
      ],
      "stateMutability": "view",
      "type": "function"
    },
    {
      "inputs": [],
      "name": "getContractAddress",
      "outputs": [
        {
          "internalType": "address",
          "name": "",
          "type": "address"
        }
      ],
      "stateMutability": "view",
      "type": "function"
    },
    {
      "inputs": [
        {
          "internalType": "uint256",
          "name": "_itemId",
          "type": "uint256"
        }
      ],
      "name": "getNFTAuctionItemsMapping",
      "outputs": [
        {
          "components": [
            {
              "internalType": "uint256",
              "name": "tokenId",
              "type": "uint256"
            },
            {
              "internalType": "uint256",
              "name": "itemId",
              "type": "uint256"
            },
            {
              "internalType": "uint256",
              "name": "decimalplaces",
              "type": "uint256"
            },
            {
              "internalType": "uint256",
              "name": "autionTime",
              "type": "uint256"
            },
            {
              "internalType": "string",
              "name": "tokenURI",
              "type": "string"
            },
            {
              "internalType": "uint256",
              "name": "biddingduration",
              "type": "uint256"
            },
            {
              "internalType": "uint256",
              "name": "creatorsalesroyalty",
              "type": "uint256"
            },
            {
              "internalType": "uint256",
              "name": "minbidamount",
              "type": "uint256"
            },
            {
              "internalType": "uint256",
              "name": "sellingprice",
              "type": "uint256"
            },
            {
              "internalType": "address payable",
              "name": "seller",
              "type": "address"
            },
            {
              "internalType": "address payable",
              "name": "creator",
              "type": "address"
            },
            {
              "internalType": "address payable",
              "name": "owner",
              "type": "address"
            }
          ],
          "internalType": "struct AuctionItem",
          "name": "",
          "type": "tuple"
        }
      ],
      "stateMutability": "view",
      "type": "function"
    },
    {
      "inputs": [
        {
          "internalType": "uint256",
          "name": "_tokenId",
          "type": "uint256"
        }
      ],
      "name": "getNFTMintsMapping",
      "outputs": [
        {
          "components": [
            {
              "internalType": "uint256",
              "name": "tokenId",
              "type": "uint256"
            },
            {
              "internalType": "string",
              "name": "tokenURI",
              "type": "string"
            },
            {
              "internalType": "address",
              "name": "creator",
              "type": "address"
            },
            {
              "internalType": "address",
              "name": "owner",
              "type": "address"
            },
            {
              "internalType": "bool",
              "name": "hascreatedToken",
              "type": "bool"
            }
          ],
          "internalType": "struct NFTMints",
          "name": "",
          "type": "tuple"
        }
      ],
      "stateMutability": "view",
      "type": "function"
    },
    {
      "inputs": [
        {
          "internalType": "address",
          "name": "owner",
          "type": "address"
        },
        {
          "internalType": "address",
          "name": "operator",
          "type": "address"
        }
      ],
      "name": "isApprovedForAll",
      "outputs": [
        {
          "internalType": "bool",
          "name": "",
          "type": "bool"
        }
      ],
      "stateMutability": "view",
      "type": "function"
    },
    {
      "inputs": [],
      "name": "name",
      "outputs": [
        {
          "internalType": "string",
          "name": "",
          "type": "string"
        }
      ],
      "stateMutability": "view",
      "type": "function"
    },
    {
      "inputs": [
        {
          "internalType": "uint256",
          "name": "tokenId",
          "type": "uint256"
        }
      ],
      "name": "ownerOf",
      "outputs": [
        {
          "internalType": "address",
          "name": "",
          "type": "address"
        }
      ],
      "stateMutability": "view",
      "type": "function"
    },
    {
      "inputs": [
        {
          "internalType": "uint256",
          "name": "itemId",
          "type": "uint256"
        }
      ],
      "name": "removeItem",
      "outputs": [],
      "stateMutability": "nonpayable",
      "type": "function"
    },
    {
      "inputs": [
        {
          "internalType": "uint256",
          "name": "tokenId",
          "type": "uint256"
        }
      ],
      "name": "removeToken",
      "outputs": [],
      "stateMutability": "nonpayable",
      "type": "function"
    },
    {
      "inputs": [
        {
          "internalType": "address",
          "name": "from",
          "type": "address"
        },
        {
          "internalType": "address",
          "name": "to",
          "type": "address"
        },
        {
          "internalType": "uint256",
          "name": "tokenId",
          "type": "uint256"
        }
      ],
      "name": "safeTransferFrom",
      "outputs": [],
      "stateMutability": "nonpayable",
      "type": "function"
    },
    {
      "inputs": [
        {
          "internalType": "address",
          "name": "from",
          "type": "address"
        },
        {
          "internalType": "address",
          "name": "to",
          "type": "address"
        },
        {
          "internalType": "uint256",
          "name": "tokenId",
          "type": "uint256"
        },
        {
          "internalType": "bytes",
          "name": "data",
          "type": "bytes"
        }
      ],
      "name": "safeTransferFrom",
      "outputs": [],
      "stateMutability": "nonpayable",
      "type": "function"
    },
    {
      "inputs": [
        {
          "internalType": "address",
          "name": "operator",
          "type": "address"
        },
        {
          "internalType": "bool",
          "name": "approved",
          "type": "bool"
        }
      ],
      "name": "setApprovalForAll",
      "outputs": [],
      "stateMutability": "nonpayable",
      "type": "function"
    },
    {
      "inputs": [
        {
          "internalType": "uint256",
          "name": "newsalesroyalty",
          "type": "uint256"
        },
        {
          "internalType": "uint256",
          "name": "itemId",
          "type": "uint256"
        }
      ],
      "name": "setcreatorSalesRoyalty",
      "outputs": [],
      "stateMutability": "nonpayable",
      "type": "function"
    },
    {
      "inputs": [
        {
          "internalType": "bytes4",
          "name": "interfaceId",
          "type": "bytes4"
        }
      ],
      "name": "supportsInterface",
      "outputs": [
        {
          "internalType": "bool",
          "name": "",
          "type": "bool"
        }
      ],
      "stateMutability": "view",
      "type": "function"
    },
    {
      "inputs": [],
      "name": "symbol",
      "outputs": [
        {
          "internalType": "string",
          "name": "",
          "type": "string"
        }
      ],
      "stateMutability": "view",
      "type": "function"
    },
    {
      "inputs": [
        {
          "internalType": "uint256",
          "name": "tokenId",
          "type": "uint256"
        }
      ],
      "name": "tokenURI",
      "outputs": [
        {
          "internalType": "string",
          "name": "",
          "type": "string"
        }
      ],
      "stateMutability": "view",
      "type": "function"
    },
    {
      "inputs": [
        {
          "internalType": "address",
          "name": "from",
          "type": "address"
        },
        {
          "internalType": "address",
          "name": "to",
          "type": "address"
        },
        {
          "internalType": "uint256",
          "name": "tokenId",
          "type": "uint256"
        }
      ],
      "name": "transferFrom",
      "outputs": [],
      "stateMutability": "nonpayable",
      "type": "function"
    },
    {
      "inputs": [
        {
          "internalType": "uint256",
          "name": "itemId",
          "type": "uint256"
        }
      ],
      "name": "unListAuctionItem",
      "outputs": [],
      "stateMutability": "payable",
      "type": "function"
    },
    {
      "inputs": [
        {
          "internalType": "uint256",
          "name": "itemId",
          "type": "uint256"
        },
        {
          "internalType": "uint256",
          "name": "newduration",
          "type": "uint256"
        },
        {
          "internalType": "uint256",
          "name": "newminbidamount",
          "type": "uint256"
        },
        {
          "internalType": "uint256",
          "name": "newsellingprice",
          "type": "uint256"
        }
      ],
      "name": "updateAuctionItem",
      "outputs": [],
      "stateMutability": "nonpayable",
      "type": "function"
    },
    {
      "inputs": [],
      "name": "withdrawFunds",
      "outputs": [],
      "stateMutability": "nonpayable",
      "type": "function"
    }
  ],
  "bytecode": "0x60806040526101f4600f5573bcceb2145266639e0c39101d48b79b6c694a84dc601060006101000a81548173ffffffffffffffffffffffffffffffffffffffff021916908373ffffffffffffffffffffffffffffffffffffffff1602179055503480156200006c57600080fd5b506040518060400160405280600a81526020017f46494641526577617264000000000000000000000000000000000000000000008152506040518060400160405280600381526020017f465244000000000000000000000000000000000000000000000000000000000081525060016000819055508160019081620000f29190620003c8565b508060029081620001049190620003c8565b50505033600c60006101000a81548173ffffffffffffffffffffffffffffffffffffffff021916908373ffffffffffffffffffffffffffffffffffffffff160217905550620004af565b600081519050919050565b7f4e487b7100000000000000000000000000000000000000000000000000000000600052604160045260246000fd5b7f4e487b7100000000000000000000000000000000000000000000000000000000600052602260045260246000fd5b60006002820490506001821680620001d057607f821691505b602082108103620001e657620001e562000188565b5b50919050565b60008190508160005260206000209050919050565b60006020601f8301049050919050565b600082821b905092915050565b600060088302620002507fffffffffffffffffffffffffffffffffffffffffffffffffffffffffffffffff8262000211565b6200025c868362000211565b95508019841693508086168417925050509392505050565b6000819050919050565b6000819050919050565b6000620002a9620002a36200029d8462000274565b6200027e565b62000274565b9050919050565b6000819050919050565b620002c58362000288565b620002dd620002d482620002b0565b8484546200021e565b825550505050565b600090565b620002f4620002e5565b62000301818484620002ba565b505050565b5b8181101562000329576200031d600082620002ea565b60018101905062000307565b5050565b601f82111562000378576200034281620001ec565b6200034d8462000201565b810160208510156200035d578190505b620003756200036c8562000201565b83018262000306565b50505b505050565b600082821c905092915050565b60006200039d600019846008026200037d565b1980831691505092915050565b6000620003b883836200038a565b9150826002028217905092915050565b620003d3826200014e565b67ffffffffffffffff811115620003ef57620003ee62000159565b5b620003fb8254620001b7565b620004088282856200032d565b600060209050601f8311600181146200044057600084156200042b578287015190505b620004378582620003aa565b865550620004a7565b601f1984166200045086620001ec565b60005b828110156200047a5784890151825560018201915060208501945060208101905062000453565b868310156200049a578489015162000496601f8916826200038a565b8355505b6001600288020188555050505b505050505050565b6158ff80620004bf6000396000f3fe6080604052600436106101d85760003560e01c806365b83de311610102578063c87b56dd11610095578063f1258fb711610064578063f1258fb7146106a1578063f7cb7007146106de578063fd1531fd146106fa578063ff3f1ad214610716576101d8565b8063c87b56dd146105c1578063d2834574146105fe578063de40069d1461063b578063e985e9c514610664576101d8565b806395d89b41116100d157806395d89b4114610519578063a22cb46514610544578063abe057c61461056d578063b88d4fde14610598576101d8565b806365b83de31461046e5780636cb360711461049757806370a08231146104b357806371329171146104f0576101d8565b806323b872dd1161017a57806336c5d7241161014957806336c5d724146103a257806342842e0e146103cb57806345576f94146103f45780636352211e14610431576101d8565b806323b872dd1461031b57806324600fc3146103445780632c69f97c1461035b57806332a2c5d014610377576101d8565b806308f3c05f116101b657806308f3c05f14610282578063095ea7b3146102ad5780630f805759146102d6578063187cdf60146102ff576101d8565b806301ffc9a7146101dd57806306fdde031461021a578063081812fc14610245575b600080fd5b3480156101e957600080fd5b5061020460048036038101906101ff919061427c565b610753565b60405161021191906142c4565b60405180910390f35b34801561022657600080fd5b5061022f6107b4565b60405161023c919061436f565b60405180910390f35b34801561025157600080fd5b5061026c600480360381019061026791906143c7565b610846565b6040516102799190614435565b60405180910390f35b34801561028e57600080fd5b50610297610862565b6040516102a4919061445f565b60405180910390f35b3480156102b957600080fd5b506102d460048036038101906102cf91906144a6565b61086c565b005b3480156102e257600080fd5b506102fd60048036038101906102f891906144e6565b610882565b005b610319600480360381019061031491906143c7565b610d23565b005b34801561032757600080fd5b50610342600480360381019061033d9190614573565b610f2c565b005b34801561035057600080fd5b5061035961102e565b005b610375600480360381019061037091906143c7565b61110d565b005b34801561038357600080fd5b5061038c61130b565b6040516103999190614435565b60405180910390f35b3480156103ae57600080fd5b506103c960048036038101906103c491906143c7565b611313565b005b3480156103d757600080fd5b506103f260048036038101906103ed9190614573565b611454565b005b34801561040057600080fd5b5061041b600480360381019061041691906146fb565b611474565b604051610428919061445f565b60405180910390f35b34801561043d57600080fd5b50610458600480360381019061045391906143c7565b61175b565b6040516104659190614435565b60405180910390f35b34801561047a57600080fd5b5061049560048036038101906104909190614744565b61176d565b005b6104b160048036038101906104ac9190614744565b611834565b005b3480156104bf57600080fd5b506104da60048036038101906104d59190614784565b611e03565b6040516104e7919061445f565b60405180910390f35b3480156104fc57600080fd5b50610517600480360381019061051291906143c7565b611ebd565b005b34801561052557600080fd5b5061052e612025565b60405161053b919061436f565b60405180910390f35b34801561055057600080fd5b5061056b600480360381019061056691906147dd565b6120b7565b005b34801561057957600080fd5b506105826120cd565b60405161058f919061445f565b60405180910390f35b3480156105a457600080fd5b506105bf60048036038101906105ba91906148be565b6120d7565b005b3480156105cd57600080fd5b506105e860048036038101906105e391906143c7565b6120f4565b6040516105f5919061436f565b60405180910390f35b34801561060a57600080fd5b50610625600480360381019061062091906143c7565b612207565b6040516106329190614a97565b60405180910390f35b34801561064757600080fd5b50610662600480360381019061065d9190614ab9565b612319565b005b34801561067057600080fd5b5061068b60048036038101906106869190614b20565b61247b565b60405161069891906142c4565b60405180910390f35b3480156106ad57600080fd5b506106c860048036038101906106c391906143c7565b61250f565b6040516106d59190614c2f565b60405180910390f35b6106f860048036038101906106f391906143c7565b61269f565b005b610714600480360381019061070f9190614744565b6128a8565b005b34801561072257600080fd5b5061073d600480360381019061073891906143c7565b612ae7565b60405161074a9190614d55565b60405180910390f35b6000634906490660e01b7bffffffffffffffffffffffffffffffffffffffffffffffffffffffff1916827bffffffffffffffffffffffffffffffffffffffffffffffffffffffff191614806107ad57506107ac82612cf9565b5b9050919050565b6060600180546107c390614da6565b80601f01602080910402602001604051908101604052809291908181526020018280546107ef90614da6565b801561083c5780601f106108115761010080835404028352916020019161083c565b820191906000526020600020905b81548152906001019060200180831161081f57829003601f168201915b5050505050905090565b600061085182612ddb565b5061085b82612e63565b9050919050565b6000600854905090565b61087e8282610879612ea0565b612ea8565b5050565b6015600087815260200190815260200160002060030160149054906101000a900460ff166108e5576040517f08c379a00000000000000000000000000000000000000000000000000000000081526004016108dc90614e23565b60405180910390fd5b600960008154809291906108f890614e72565b91905055506000600954905060006015600089815260200190815260200160002060020160009054906101000a900473ffffffffffffffffffffffffffffffffffffffff169050604051806101800160405280898152602001838152602001848152602001428152602001601560008b8152602001908152602001600020600101805461098490614da6565b80601f01602080910402602001604051908101604052809291908181526020018280546109b090614da6565b80156109fd5780601f106109d2576101008083540402835291602001916109fd565b820191906000526020600020905b8154815290600101906020018083116109e057829003601f168201915b505050505081526020016201518088610a169190614eba565b42610a219190614efc565b81526020018581526020018681526020018881526020013373ffffffffffffffffffffffffffffffffffffffff1681526020018273ffffffffffffffffffffffffffffffffffffffff1681526020013073ffffffffffffffffffffffffffffffffffffffff1681525060116000848152602001908152602001600020600082015181600001556020820151816001015560408201518160020155606082015181600301556080820151816004019081610ada91906150dc565b5060a0820151816005015560c0820151816006015560e0820151816007015561010082015181600801556101208201518160090160006101000a81548173ffffffffffffffffffffffffffffffffffffffff021916908373ffffffffffffffffffffffffffffffffffffffff16021790555061014082015181600a0160006101000a81548173ffffffffffffffffffffffffffffffffffffffff021916908373ffffffffffffffffffffffffffffffffffffffff16021790555061016082015181600b0160006101000a81548173ffffffffffffffffffffffffffffffffffffffff021916908373ffffffffffffffffffffffffffffffffffffffff16021790555090505030601560008a815260200190815260200160002060030160006101000a81548173ffffffffffffffffffffffffffffffffffffffff021916908373ffffffffffffffffffffffffffffffffffffffff16021790555030601460003373ffffffffffffffffffffffffffffffffffffffff1673ffffffffffffffffffffffffffffffffffffffff16815260200190815260200160002060030160006101000a81548173ffffffffffffffffffffffffffffffffffffffff021916908373ffffffffffffffffffffffffffffffffffffffff160217905550610cc033308a612eba565b60156000898152602001908152602001600020600101604051610ce3919061523c565b604051809103902082897fca04f5aee1f27b58129d998a051bffce29f649dafb4f2c6bdb1c20380432fbad60405160405180910390a45050505050505050565b610d2b613027565b6000601160008381526020019081526020016000206000015490506011600083815260200190815260200160002060090160009054906101000a900473ffffffffffffffffffffffffffffffffffffffff1673ffffffffffffffffffffffffffffffffffffffff163373ffffffffffffffffffffffffffffffffffffffff1614610dea576040517f08c379a0000000000000000000000000000000000000000000000000000000008152600401610de19061529f565b60405180910390fd5b3360116000848152602001908152602001600020600b0160006101000a81548173ffffffffffffffffffffffffffffffffffffffff021916908373ffffffffffffffffffffffffffffffffffffffff160217905550336015600083815260200190815260200160002060030160006101000a81548173ffffffffffffffffffffffffffffffffffffffff021916908373ffffffffffffffffffffffffffffffffffffffff16021790555033601460003373ffffffffffffffffffffffffffffffffffffffff1673ffffffffffffffffffffffffffffffffffffffff16815260200190815260200160002060030160006101000a81548173ffffffffffffffffffffffffffffffffffffffff021916908373ffffffffffffffffffffffffffffffffffffffff160217905550610f20303383612eba565b50610f2961306d565b50565b600073ffffffffffffffffffffffffffffffffffffffff168273ffffffffffffffffffffffffffffffffffffffff1603610f9e5760006040517f64a0ae92000000000000000000000000000000000000000000000000000000008152600401610f959190614435565b60405180910390fd5b6000610fb28383610fad612ea0565b613077565b90508373ffffffffffffffffffffffffffffffffffffffff168173ffffffffffffffffffffffffffffffffffffffff1614611028578382826040517f64283d7b00000000000000000000000000000000000000000000000000000000815260040161101f939291906152bf565b60405180910390fd5b50505050565b600c60009054906101000a900473ffffffffffffffffffffffffffffffffffffffff1673ffffffffffffffffffffffffffffffffffffffff163373ffffffffffffffffffffffffffffffffffffffff16146110be576040517f08c379a00000000000000000000000000000000000000000000000000000000081526004016110b59061529f565b60405180910390fd5b60004790503373ffffffffffffffffffffffffffffffffffffffff166108fc829081150290604051600060405180830381858888f19350505050158015611109573d6000803e3d6000fd5b5050565b611115613027565b600060116000838152602001908152602001600020905060006013600084815260200190815260200160002090506011600084815260200190815260200160002060090160009054906101000a900473ffffffffffffffffffffffffffffffffffffffff1673ffffffffffffffffffffffffffffffffffffffff163373ffffffffffffffffffffffffffffffffffffffff16146111e7576040517f08c379a00000000000000000000000000000000000000000000000000000000081526004016111de90615342565b60405180910390fd5b6000818054905011156112fe57600081600183805490506112089190615362565b8154811061121957611218615396565b5b90600052602060002090600402019050600073ffffffffffffffffffffffffffffffffffffffff168160010160009054906101000a900473ffffffffffffffffffffffffffffffffffffffff1673ffffffffffffffffffffffffffffffffffffffff16036112bc576040517f08c379a00000000000000000000000000000000000000000000000000000000081526004016112b390615411565b60405180910390fd5b806002015483600801819055506112fc8482600201548360010160009054906101000a900473ffffffffffffffffffffffffffffffffffffffff16613291565b505b505061130861306d565b50565b600030905090565b61131b613027565b600c60009054906101000a900473ffffffffffffffffffffffffffffffffffffffff1673ffffffffffffffffffffffffffffffffffffffff163373ffffffffffffffffffffffffffffffffffffffff16146113ab576040517f08c379a00000000000000000000000000000000000000000000000000000000081526004016113a29061529f565b60405180910390fd5b60006015600083815260200190815260200160002060030160009054906101000a900473ffffffffffffffffffffffffffffffffffffffff16905060006015600084815260200190815260200160002060030160006101000a81548173ffffffffffffffffffffffffffffffffffffffff021916908373ffffffffffffffffffffffffffffffffffffffff16021790555061144881600084612eba565b5061145161306d565b50565b61146f838383604051806020016040528060008152506120d7565b505050565b60006008600081548092919061148990614e72565b91905055506000600854905061149f3382613603565b6114a981846136fc565b6040518060a001604052808281526020018481526020013373ffffffffffffffffffffffffffffffffffffffff1681526020013373ffffffffffffffffffffffffffffffffffffffff168152602001600115158152506015600083815260200190815260200160002060008201518160000155602082015181600101908161153191906150dc565b5060408201518160020160006101000a81548173ffffffffffffffffffffffffffffffffffffffff021916908373ffffffffffffffffffffffffffffffffffffffff16021790555060608201518160030160006101000a81548173ffffffffffffffffffffffffffffffffffffffff021916908373ffffffffffffffffffffffffffffffffffffffff16021790555060808201518160030160146101000a81548160ff02191690831515021790555090505060156000828152602001908152602001600020601460003373ffffffffffffffffffffffffffffffffffffffff1673ffffffffffffffffffffffffffffffffffffffff16815260200190815260200160002060008201548160000155600182018160010190816116539190615447565b506002820160009054906101000a900473ffffffffffffffffffffffffffffffffffffffff168160020160006101000a81548173ffffffffffffffffffffffffffffffffffffffff021916908373ffffffffffffffffffffffffffffffffffffffff1602179055506003820160009054906101000a900473ffffffffffffffffffffffffffffffffffffffff168160030160006101000a81548173ffffffffffffffffffffffffffffffffffffffff021916908373ffffffffffffffffffffffffffffffffffffffff1602179055506003820160149054906101000a900460ff168160030160146101000a81548160ff02191690831515021790555090505080915050919050565b600061176682612ddb565b9050919050565b611775613027565b60006011600083815260200190815260200160002090508060090160009054906101000a900473ffffffffffffffffffffffffffffffffffffffff1673ffffffffffffffffffffffffffffffffffffffff163373ffffffffffffffffffffffffffffffffffffffff161461181e576040517f08c379a00000000000000000000000000000000000000000000000000000000081526004016118159061529f565b60405180910390fd5b8281600601819055505061183061306d565b5050565b61183c613027565b60006011600084815260200190815260200160002090508060090160009054906101000a900473ffffffffffffffffffffffffffffffffffffffff1673ffffffffffffffffffffffffffffffffffffffff163373ffffffffffffffffffffffffffffffffffffffff161480611900575080600a0160009054906101000a900473ffffffffffffffffffffffffffffffffffffffff1673ffffffffffffffffffffffffffffffffffffffff163373ffffffffffffffffffffffffffffffffffffffff16145b806119375750600073ffffffffffffffffffffffffffffffffffffffff163373ffffffffffffffffffffffffffffffffffffffff16145b15611977576040517f08c379a000000000000000000000000000000000000000000000000000000000815260040161196e9061529f565b60405180910390fd5b3073ffffffffffffffffffffffffffffffffffffffff1681600b0160009054906101000a900473ffffffffffffffffffffffffffffffffffffffff1673ffffffffffffffffffffffffffffffffffffffff1614611a09576040517f08c379a0000000000000000000000000000000000000000000000000000000008152600401611a009061557b565b60405180910390fd5b8060050154421115611a50576040517f08c379a0000000000000000000000000000000000000000000000000000000008152600401611a47906155e7565b60405180910390fd5b81341015611a93576040517f08c379a0000000000000000000000000000000000000000000000000000000008152600401611a8a90615653565b60405180910390fd5b6000601360008581526020019081526020016000209050600081805490501115611ba35760008160018380549050611acb9190615362565b81548110611adc57611adb615396565b5b9060005260206000209060040201905080600201543411611b32576040517f08c379a0000000000000000000000000000000000000000000000000000000008152600401611b29906156bf565b60405180910390fd5b8060010160009054906101000a900473ffffffffffffffffffffffffffffffffffffffff1673ffffffffffffffffffffffffffffffffffffffff166108fc82600201549081150290604051600060405180830381858888f19350505050158015611ba0573d6000803e3d6000fd5b50505b601360008581526020019081526020016000206040518060a001604052804281526020013373ffffffffffffffffffffffffffffffffffffffff1681526020013481526020016001151581526020016000151581525090806001815401808255809150506001900390600052602060002090600402016000909190919091506000820151816000015560208201518160010160006101000a81548173ffffffffffffffffffffffffffffffffffffffff021916908373ffffffffffffffffffffffffffffffffffffffff1602179055506040820151816002015560608201518160030160006101000a81548160ff02191690831515021790555060808201518160030160016101000a81548160ff0219169083151502179055505050336012600086815260200190815260200160002060003373ffffffffffffffffffffffffffffffffffffffff1673ffffffffffffffffffffffffffffffffffffffff16815260200190815260200160002060010160006101000a81548173ffffffffffffffffffffffffffffffffffffffff021916908373ffffffffffffffffffffffffffffffffffffffff160217905550346012600086815260200190815260200160002060003373ffffffffffffffffffffffffffffffffffffffff1673ffffffffffffffffffffffffffffffffffffffff1681526020019081526020016000206002016000828254611db49190614efc565b92505081905550837f0e54eff26401bf69b81b26f60bd85ef47f5d85275c1d268d84f68d6897431c473334604051611ded9291906156df565b60405180910390a25050611dff61306d565b5050565b60008073ffffffffffffffffffffffffffffffffffffffff168273ffffffffffffffffffffffffffffffffffffffff1603611e765760006040517f89c62b64000000000000000000000000000000000000000000000000000000008152600401611e6d9190614435565b60405180910390fd5b600460008373ffffffffffffffffffffffffffffffffffffffff1673ffffffffffffffffffffffffffffffffffffffff168152602001908152602001600020549050919050565b611ec5613027565b600c60009054906101000a900473ffffffffffffffffffffffffffffffffffffffff1673ffffffffffffffffffffffffffffffffffffffff163373ffffffffffffffffffffffffffffffffffffffff1614611f55576040517f08c379a0000000000000000000000000000000000000000000000000000000008152600401611f4c9061529f565b60405180910390fd5b60006011600083815260200190815260200160002090506000816000015490503082600b0160006101000a81548173ffffffffffffffffffffffffffffffffffffffff021916908373ffffffffffffffffffffffffffffffffffffffff160217905550306015600083815260200190815260200160002060030160006101000a81548173ffffffffffffffffffffffffffffffffffffffff021916908373ffffffffffffffffffffffffffffffffffffffff160217905550612018303085612eba565b505061202261306d565b50565b60606002805461203490614da6565b80601f016020809104026020016040519081016040528092919081815260200182805461206090614da6565b80156120ad5780601f10612082576101008083540402835291602001916120ad565b820191906000526020600020905b81548152906001019060200180831161209057829003601f168201915b5050505050905090565b6120c96120c2612ea0565b8383613758565b5050565b6000600954905090565b6120e2848484610f2c565b6120ee848484846138c7565b50505050565b60606120ff82612ddb565b50600060076000848152602001908152602001600020805461212090614da6565b80601f016020809104026020016040519081016040528092919081815260200182805461214c90614da6565b80156121995780601f1061216e57610100808354040283529160200191612199565b820191906000526020600020905b81548152906001019060200180831161217c57829003601f168201915b5050505050905060006121aa613a7e565b905060008151036121bf578192505050612202565b6000825111156121f45780826040516020016121dc929190615739565b60405160208183030381529060405292505050612202565b6121fd84613a95565b925050505b919050565b606060136000838152602001908152602001600020805480602002602001604051908101604052809291908181526020016000905b8282101561230e57838290600052602060002090600402016040518060a0016040529081600082015481526020016001820160009054906101000a900473ffffffffffffffffffffffffffffffffffffffff1673ffffffffffffffffffffffffffffffffffffffff1673ffffffffffffffffffffffffffffffffffffffff168152602001600282015481526020016003820160009054906101000a900460ff161515151581526020016003820160019054906101000a900460ff1615151515815250508152602001906001019061223c565b505050509050919050565b612321613027565b6000601160008681526020019081526020016000206000015490506011600086815260200190815260200160002060090160009054906101000a900473ffffffffffffffffffffffffffffffffffffffff1673ffffffffffffffffffffffffffffffffffffffff163373ffffffffffffffffffffffffffffffffffffffff16146123e0576040517f08c379a00000000000000000000000000000000000000000000000000000000081526004016123d79061529f565b60405180910390fd5b82601160008781526020019081526020016000206007018190555081601160008781526020019081526020016000206008018190555083601160008781526020019081526020016000206005018190555084817f3e5c17018f2fadb249d8a4a5ce50c7732908dd6e2efd0f8dddf7a473dd558a42858560405161246492919061575d565b60405180910390a35061247561306d565b50505050565b6000600660008473ffffffffffffffffffffffffffffffffffffffff1673ffffffffffffffffffffffffffffffffffffffff16815260200190815260200160002060008373ffffffffffffffffffffffffffffffffffffffff1673ffffffffffffffffffffffffffffffffffffffff16815260200190815260200160002060009054906101000a900460ff16905092915050565b612517614110565b601560008381526020019081526020016000206040518060a00160405290816000820154815260200160018201805461254f90614da6565b80601f016020809104026020016040519081016040528092919081815260200182805461257b90614da6565b80156125c85780601f1061259d576101008083540402835291602001916125c8565b820191906000526020600020905b8154815290600101906020018083116125ab57829003601f168201915b505050505081526020016002820160009054906101000a900473ffffffffffffffffffffffffffffffffffffffff1673ffffffffffffffffffffffffffffffffffffffff1673ffffffffffffffffffffffffffffffffffffffff1681526020016003820160009054906101000a900473ffffffffffffffffffffffffffffffffffffffff1673ffffffffffffffffffffffffffffffffffffffff1673ffffffffffffffffffffffffffffffffffffffff1681526020016003820160149054906101000a900460ff1615151515815250509050919050565b6126a7613027565b6000601160008381526020019081526020016000206000015490506011600083815260200190815260200160002060090160009054906101000a900473ffffffffffffffffffffffffffffffffffffffff1673ffffffffffffffffffffffffffffffffffffffff163373ffffffffffffffffffffffffffffffffffffffff1614612766576040517f08c379a000000000000000000000000000000000000000000000000000000000815260040161275d9061529f565b60405180910390fd5b3060116000848152602001908152602001600020600b0160006101000a81548173ffffffffffffffffffffffffffffffffffffffff021916908373ffffffffffffffffffffffffffffffffffffffff160217905550306015600083815260200190815260200160002060030160006101000a81548173ffffffffffffffffffffffffffffffffffffffff021916908373ffffffffffffffffffffffffffffffffffffffff16021790555030601460003373ffffffffffffffffffffffffffffffffffffffff1673ffffffffffffffffffffffffffffffffffffffff16815260200190815260200160002060030160006101000a81548173ffffffffffffffffffffffffffffffffffffffff021916908373ffffffffffffffffffffffffffffffffffffffff16021790555061289c333083612eba565b506128a561306d565b50565b6128b0613027565b60006011600084815260200190815260200160002090508060090160009054906101000a900473ffffffffffffffffffffffffffffffffffffffff1673ffffffffffffffffffffffffffffffffffffffff163373ffffffffffffffffffffffffffffffffffffffff161480612974575080600a0160009054906101000a900473ffffffffffffffffffffffffffffffffffffffff1673ffffffffffffffffffffffffffffffffffffffff163373ffffffffffffffffffffffffffffffffffffffff16145b806129cf5750600073ffffffffffffffffffffffffffffffffffffffff168160090160009054906101000a900473ffffffffffffffffffffffffffffffffffffffff1673ffffffffffffffffffffffffffffffffffffffff16145b15612a0f576040517f08c379a0000000000000000000000000000000000000000000000000000000008152600401612a069061529f565b60405180910390fd5b81341080612a205750806008015434105b15612a60576040517f08c379a0000000000000000000000000000000000000000000000000000000008152600401612a5790615653565b60405180910390fd5b600073ffffffffffffffffffffffffffffffffffffffff163373ffffffffffffffffffffffffffffffffffffffff1603612acf576040517f08c379a0000000000000000000000000000000000000000000000000000000008152600401612ac690614e23565b60405180910390fd5b612ada833433613291565b50612ae361306d565b5050565b612aef61416d565b601160008381526020019081526020016000206040518061018001604052908160008201548152602001600182015481526020016002820154815260200160038201548152602001600482018054612b4690614da6565b80601f0160208091040260200160405190810160405280929190818152602001828054612b7290614da6565b8015612bbf5780601f10612b9457610100808354040283529160200191612bbf565b820191906000526020600020905b815481529060010190602001808311612ba257829003601f168201915b50505050508152602001600582015481526020016006820154815260200160078201548152602001600882015481526020016009820160009054906101000a900473ffffffffffffffffffffffffffffffffffffffff1673ffffffffffffffffffffffffffffffffffffffff1673ffffffffffffffffffffffffffffffffffffffff168152602001600a820160009054906101000a900473ffffffffffffffffffffffffffffffffffffffff1673ffffffffffffffffffffffffffffffffffffffff1673ffffffffffffffffffffffffffffffffffffffff168152602001600b820160009054906101000a900473ffffffffffffffffffffffffffffffffffffffff1673ffffffffffffffffffffffffffffffffffffffff1673ffffffffffffffffffffffffffffffffffffffff16815250509050919050565b60007f80ac58cd000000000000000000000000000000000000000000000000000000007bffffffffffffffffffffffffffffffffffffffffffffffffffffffff1916827bffffffffffffffffffffffffffffffffffffffffffffffffffffffff19161480612dc457507f5b5e139f000000000000000000000000000000000000000000000000000000007bffffffffffffffffffffffffffffffffffffffffffffffffffffffff1916827bffffffffffffffffffffffffffffffffffffffffffffffffffffffff1916145b80612dd45750612dd382613afe565b5b9050919050565b600080612de783613b68565b9050600073ffffffffffffffffffffffffffffffffffffffff168173ffffffffffffffffffffffffffffffffffffffff1603612e5a57826040517f7e273289000000000000000000000000000000000000000000000000000000008152600401612e51919061445f565b60405180910390fd5b80915050919050565b60006005600083815260200190815260200160002060009054906101000a900473ffffffffffffffffffffffffffffffffffffffff169050919050565b600033905090565b612eb58383836001613ba5565b505050565b600073ffffffffffffffffffffffffffffffffffffffff168273ffffffffffffffffffffffffffffffffffffffff1603612f2c5760006040517f64a0ae92000000000000000000000000000000000000000000000000000000008152600401612f239190614435565b60405180910390fd5b6000612f3a83836000613077565b9050600073ffffffffffffffffffffffffffffffffffffffff168173ffffffffffffffffffffffffffffffffffffffff1603612fad57816040517f7e273289000000000000000000000000000000000000000000000000000000008152600401612fa4919061445f565b60405180910390fd5b8373ffffffffffffffffffffffffffffffffffffffff168173ffffffffffffffffffffffffffffffffffffffff1614613021578382826040517f64283d7b000000000000000000000000000000000000000000000000000000008152600401613018939291906152bf565b60405180910390fd5b50505050565b600260005403613063576040517f3ee5aeb500000000000000000000000000000000000000000000000000000000815260040160405180910390fd5b6002600081905550565b6001600081905550565b60008061308384613b68565b9050600073ffffffffffffffffffffffffffffffffffffffff168373ffffffffffffffffffffffffffffffffffffffff16146130c5576130c4818486613d6a565b5b600073ffffffffffffffffffffffffffffffffffffffff168173ffffffffffffffffffffffffffffffffffffffff161461315657613107600085600080613ba5565b6001600460008373ffffffffffffffffffffffffffffffffffffffff1673ffffffffffffffffffffffffffffffffffffffff168152602001908152602001600020600082825403925050819055505b600073ffffffffffffffffffffffffffffffffffffffff168573ffffffffffffffffffffffffffffffffffffffff16146131d9576001600460008773ffffffffffffffffffffffffffffffffffffffff1673ffffffffffffffffffffffffffffffffffffffff168152602001908152602001600020600082825401925050819055505b846003600086815260200190815260200160002060006101000a81548173ffffffffffffffffffffffffffffffffffffffff021916908373ffffffffffffffffffffffffffffffffffffffff160217905550838573ffffffffffffffffffffffffffffffffffffffff168273ffffffffffffffffffffffffffffffffffffffff167fddf252ad1be2c89b69c2b068fc378daa952ba7f163c4a11628f55a4df523b3ef60405160405180910390a4809150509392505050565b60006011600085815260200190815260200160002090506000612710600f54856132bb9190614eba565b6132c591906157b5565b905060006127108360060154866132dc9190614eba565b6132e691906157b5565b9050600081836132f69190614efc565b866133019190615362565b9050601060009054906101000a900473ffffffffffffffffffffffffffffffffffffffff1673ffffffffffffffffffffffffffffffffffffffff166108fc849081150290604051600060405180830381858888f1935050505015801561336b573d6000803e3d6000fd5b5083600a0160009054906101000a900473ffffffffffffffffffffffffffffffffffffffff1673ffffffffffffffffffffffffffffffffffffffff166108fc839081150290604051600060405180830381858888f193505050501580156133d6573d6000803e3d6000fd5b508360090160009054906101000a900473ffffffffffffffffffffffffffffffffffffffff1673ffffffffffffffffffffffffffffffffffffffff166108fc829081150290604051600060405180830381858888f19350505050158015613441573d6000803e3d6000fd5b50848460090160006101000a81548173ffffffffffffffffffffffffffffffffffffffff021916908373ffffffffffffffffffffffffffffffffffffffff1602179055508484600b0160006101000a81548173ffffffffffffffffffffffffffffffffffffffff021916908373ffffffffffffffffffffffffffffffffffffffff160217905550600084600001549050856015600083815260200190815260200160002060030160006101000a81548173ffffffffffffffffffffffffffffffffffffffff021916908373ffffffffffffffffffffffffffffffffffffffff16021790555085601460003373ffffffffffffffffffffffffffffffffffffffff1673ffffffffffffffffffffffffffffffffffffffff16815260200190815260200160002060030160006101000a81548173ffffffffffffffffffffffffffffffffffffffff021916908373ffffffffffffffffffffffffffffffffffffffff1602179055508685600801819055506135bf30878760000154612eba565b877fa574c741071bb18f51fa88c17aeefec514bebf670ca22a3736fba6504ecbb76387896040516135f19291906156df565b60405180910390a25050505050505050565b600073ffffffffffffffffffffffffffffffffffffffff168273ffffffffffffffffffffffffffffffffffffffff16036136755760006040517f64a0ae9200000000000000000000000000000000000000000000000000000000815260040161366c9190614435565b60405180910390fd5b600061368383836000613077565b9050600073ffffffffffffffffffffffffffffffffffffffff168173ffffffffffffffffffffffffffffffffffffffff16146136f75760006040517f73c6ac6e0000000000000000000000000000000000000000000000000000000081526004016136ee9190614435565b60405180910390fd5b505050565b8060076000848152602001908152602001600020908161371c91906150dc565b507ff8e1a15aba9398e019f0b49df1a4fde98ee17ae345cb5f6b5e2c27f5033e8ce78260405161374c919061445f565b60405180910390a15050565b600073ffffffffffffffffffffffffffffffffffffffff168273ffffffffffffffffffffffffffffffffffffffff16036137c957816040517f5b08ba180000000000000000000000000000000000000000000000000000000081526004016137c09190614435565b60405180910390fd5b80600660008573ffffffffffffffffffffffffffffffffffffffff1673ffffffffffffffffffffffffffffffffffffffff16815260200190815260200160002060008473ffffffffffffffffffffffffffffffffffffffff1673ffffffffffffffffffffffffffffffffffffffff16815260200190815260200160002060006101000a81548160ff0219169083151502179055508173ffffffffffffffffffffffffffffffffffffffff168373ffffffffffffffffffffffffffffffffffffffff167f17307eab39ab6107e8899845ad3d59bd9653f200f220920489ca2b5937696c31836040516138ba91906142c4565b60405180910390a3505050565b60008373ffffffffffffffffffffffffffffffffffffffff163b1115613a78578273ffffffffffffffffffffffffffffffffffffffff1663150b7a0261390b612ea0565b8685856040518563ffffffff1660e01b815260040161392d949392919061583b565b6020604051808303816000875af192505050801561396957506040513d601f19601f82011682018060405250810190613966919061589c565b60015b6139ed573d8060008114613999576040519150601f19603f3d011682016040523d82523d6000602084013e61399e565b606091505b5060008151036139e557836040517f64a0ae920000000000000000000000000000000000000000000000000000000081526004016139dc9190614435565b60405180910390fd5b805181602001fd5b63150b7a0260e01b7bffffffffffffffffffffffffffffffffffffffffffffffffffffffff1916817bffffffffffffffffffffffffffffffffffffffffffffffffffffffff191614613a7657836040517f64a0ae92000000000000000000000000000000000000000000000000000000008152600401613a6d9190614435565b60405180910390fd5b505b50505050565b606060405180602001604052806000815250905090565b6060613aa082612ddb565b506000613aab613a7e565b90506000815111613acb5760405180602001604052806000815250613af6565b80613ad584613e2e565b604051602001613ae6929190615739565b6040516020818303038152906040525b915050919050565b60007f01ffc9a7000000000000000000000000000000000000000000000000000000007bffffffffffffffffffffffffffffffffffffffffffffffffffffffff1916827bffffffffffffffffffffffffffffffffffffffffffffffffffffffff1916149050919050565b60006003600083815260200190815260200160002060009054906101000a900473ffffffffffffffffffffffffffffffffffffffff169050919050565b8080613bde5750600073ffffffffffffffffffffffffffffffffffffffff168273ffffffffffffffffffffffffffffffffffffffff1614155b15613d12576000613bee84612ddb565b9050600073ffffffffffffffffffffffffffffffffffffffff168373ffffffffffffffffffffffffffffffffffffffff1614158015613c5957508273ffffffffffffffffffffffffffffffffffffffff168173ffffffffffffffffffffffffffffffffffffffff1614155b8015613c6c5750613c6a818461247b565b155b15613cae57826040517fa9fbf51f000000000000000000000000000000000000000000000000000000008152600401613ca59190614435565b60405180910390fd5b8115613d1057838573ffffffffffffffffffffffffffffffffffffffff168273ffffffffffffffffffffffffffffffffffffffff167f8c5be1e5ebec7d5bd14f71427d1e84f3dd0314c0f7b2291e5b200ac8c7c3b92560405160405180910390a45b505b836005600085815260200190815260200160002060006101000a81548173ffffffffffffffffffffffffffffffffffffffff021916908373ffffffffffffffffffffffffffffffffffffffff16021790555050505050565b613d75838383613efc565b613e2957600073ffffffffffffffffffffffffffffffffffffffff168373ffffffffffffffffffffffffffffffffffffffff1603613dea57806040517f7e273289000000000000000000000000000000000000000000000000000000008152600401613de1919061445f565b60405180910390fd5b81816040517f177e802f000000000000000000000000000000000000000000000000000000008152600401613e209291906156df565b60405180910390fd5b505050565b606060006001613e3d84613fbd565b01905060008167ffffffffffffffff811115613e5c57613e5b6145d0565b5b6040519080825280601f01601f191660200182016040528015613e8e5781602001600182028036833780820191505090505b509050600082602001820190505b600115613ef1578080600190039150507f3031323334353637383961626364656600000000000000000000000000000000600a86061a8153600a8581613ee557613ee4615786565b5b04945060008503613e9c575b819350505050919050565b60008073ffffffffffffffffffffffffffffffffffffffff168373ffffffffffffffffffffffffffffffffffffffff1614158015613fb457508273ffffffffffffffffffffffffffffffffffffffff168473ffffffffffffffffffffffffffffffffffffffff161480613f755750613f74848461247b565b5b80613fb357508273ffffffffffffffffffffffffffffffffffffffff16613f9b83612e63565b73ffffffffffffffffffffffffffffffffffffffff16145b5b90509392505050565b600080600090507a184f03e93ff9f4daa797ed6e38ed64bf6a1f010000000000000000831061401b577a184f03e93ff9f4daa797ed6e38ed64bf6a1f010000000000000000838161401157614010615786565b5b0492506040810190505b6d04ee2d6d415b85acef81000000008310614058576d04ee2d6d415b85acef8100000000838161404e5761404d615786565b5b0492506020810190505b662386f26fc10000831061408757662386f26fc10000838161407d5761407c615786565b5b0492506010810190505b6305f5e10083106140b0576305f5e10083816140a6576140a5615786565b5b0492506008810190505b61271083106140d55761271083816140cb576140ca615786565b5b0492506004810190505b606483106140f857606483816140ee576140ed615786565b5b0492506002810190505b600a8310614107576001810190505b80915050919050565b6040518060a001604052806000815260200160608152602001600073ffffffffffffffffffffffffffffffffffffffff168152602001600073ffffffffffffffffffffffffffffffffffffffff1681526020016000151581525090565b604051806101800160405280600081526020016000815260200160008152602001600081526020016060815260200160008152602001600081526020016000815260200160008152602001600073ffffffffffffffffffffffffffffffffffffffff168152602001600073ffffffffffffffffffffffffffffffffffffffff168152602001600073ffffffffffffffffffffffffffffffffffffffff1681525090565b6000604051905090565b600080fd5b600080fd5b60007fffffffff0000000000000000000000000000000000000000000000000000000082169050919050565b61425981614224565b811461426457600080fd5b50565b60008135905061427681614250565b92915050565b6000602082840312156142925761429161421a565b5b60006142a084828501614267565b91505092915050565b60008115159050919050565b6142be816142a9565b82525050565b60006020820190506142d960008301846142b5565b92915050565b600081519050919050565b600082825260208201905092915050565b60005b838110156143195780820151818401526020810190506142fe565b60008484015250505050565b6000601f19601f8301169050919050565b6000614341826142df565b61434b81856142ea565b935061435b8185602086016142fb565b61436481614325565b840191505092915050565b600060208201905081810360008301526143898184614336565b905092915050565b6000819050919050565b6143a481614391565b81146143af57600080fd5b50565b6000813590506143c18161439b565b92915050565b6000602082840312156143dd576143dc61421a565b5b60006143eb848285016143b2565b91505092915050565b600073ffffffffffffffffffffffffffffffffffffffff82169050919050565b600061441f826143f4565b9050919050565b61442f81614414565b82525050565b600060208201905061444a6000830184614426565b92915050565b61445981614391565b82525050565b60006020820190506144746000830184614450565b92915050565b61448381614414565b811461448e57600080fd5b50565b6000813590506144a08161447a565b92915050565b600080604083850312156144bd576144bc61421a565b5b60006144cb85828601614491565b92505060206144dc858286016143b2565b9150509250929050565b60008060008060008060c087890312156145035761450261421a565b5b600061451189828a016143b2565b965050602061452289828a016143b2565b955050604061453389828a016143b2565b945050606061454489828a016143b2565b935050608061455589828a016143b2565b92505060a061456689828a016143b2565b9150509295509295509295565b60008060006060848603121561458c5761458b61421a565b5b600061459a86828701614491565b93505060206145ab86828701614491565b92505060406145bc868287016143b2565b9150509250925092565b600080fd5b600080fd5b7f4e487b7100000000000000000000000000000000000000000000000000000000600052604160045260246000fd5b61460882614325565b810181811067ffffffffffffffff82111715614627576146266145d0565b5b80604052505050565b600061463a614210565b905061464682826145ff565b919050565b600067ffffffffffffffff821115614666576146656145d0565b5b61466f82614325565b9050602081019050919050565b82818337600083830152505050565b600061469e6146998461464b565b614630565b9050828152602081018484840111156146ba576146b96145cb565b5b6146c584828561467c565b509392505050565b600082601f8301126146e2576146e16145c6565b5b81356146f284826020860161468b565b91505092915050565b6000602082840312156147115761471061421a565b5b600082013567ffffffffffffffff81111561472f5761472e61421f565b5b61473b848285016146cd565b91505092915050565b6000806040838503121561475b5761475a61421a565b5b6000614769858286016143b2565b925050602061477a858286016143b2565b9150509250929050565b60006020828403121561479a5761479961421a565b5b60006147a884828501614491565b91505092915050565b6147ba816142a9565b81146147c557600080fd5b50565b6000813590506147d7816147b1565b92915050565b600080604083850312156147f4576147f361421a565b5b600061480285828601614491565b9250506020614813858286016147c8565b9150509250929050565b600067ffffffffffffffff821115614838576148376145d0565b5b61484182614325565b9050602081019050919050565b600061486161485c8461481d565b614630565b90508281526020810184848401111561487d5761487c6145cb565b5b61488884828561467c565b509392505050565b600082601f8301126148a5576148a46145c6565b5b81356148b584826020860161484e565b91505092915050565b600080600080608085870312156148d8576148d761421a565b5b60006148e687828801614491565b94505060206148f787828801614491565b9350506040614908878288016143b2565b925050606085013567ffffffffffffffff8111156149295761492861421f565b5b61493587828801614890565b91505092959194509250565b600081519050919050565b600082825260208201905092915050565b6000819050602082019050919050565b61497681614391565b82525050565b6000614987826143f4565b9050919050565b6149978161497c565b82525050565b6149a6816142a9565b82525050565b60a0820160008201516149c2600085018261496d565b5060208201516149d5602085018261498e565b5060408201516149e8604085018261496d565b5060608201516149fb606085018261499d565b506080820151614a0e608085018261499d565b50505050565b6000614a2083836149ac565b60a08301905092915050565b6000602082019050919050565b6000614a4482614941565b614a4e818561494c565b9350614a598361495d565b8060005b83811015614a8a578151614a718882614a14565b9750614a7c83614a2c565b925050600181019050614a5d565b5085935050505092915050565b60006020820190508181036000830152614ab18184614a39565b905092915050565b60008060008060808587031215614ad357614ad261421a565b5b6000614ae1878288016143b2565b9450506020614af2878288016143b2565b9350506040614b03878288016143b2565b9250506060614b14878288016143b2565b91505092959194509250565b60008060408385031215614b3757614b3661421a565b5b6000614b4585828601614491565b9250506020614b5685828601614491565b9150509250929050565b600082825260208201905092915050565b6000614b7c826142df565b614b868185614b60565b9350614b968185602086016142fb565b614b9f81614325565b840191505092915050565b614bb381614414565b82525050565b600060a083016000830151614bd1600086018261496d565b5060208301518482036020860152614be98282614b71565b9150506040830151614bfe6040860182614baa565b506060830151614c116060860182614baa565b506080830151614c24608086018261499d565b508091505092915050565b60006020820190508181036000830152614c498184614bb9565b905092915050565b600061018083016000830151614c6a600086018261496d565b506020830151614c7d602086018261496d565b506040830151614c90604086018261496d565b506060830151614ca3606086018261496d565b5060808301518482036080860152614cbb8282614b71565b91505060a0830151614cd060a086018261496d565b5060c0830151614ce360c086018261496d565b5060e0830151614cf660e086018261496d565b50610100830151614d0b61010086018261496d565b50610120830151614d2061012086018261498e565b50610140830151614d3561014086018261498e565b50610160830151614d4a61016086018261498e565b508091505092915050565b60006020820190508181036000830152614d6f8184614c51565b905092915050565b7f4e487b7100000000000000000000000000000000000000000000000000000000600052602260045260246000fd5b60006002820490506001821680614dbe57607f821691505b602082108103614dd157614dd0614d77565b5b50919050565b7f696e76616c696400000000000000000000000000000000000000000000000000600082015250565b6000614e0d6007836142ea565b9150614e1882614dd7565b602082019050919050565b60006020820190508181036000830152614e3c81614e00565b9050919050565b7f4e487b7100000000000000000000000000000000000000000000000000000000600052601160045260246000fd5b6000614e7d82614391565b91507fffffffffffffffffffffffffffffffffffffffffffffffffffffffffffffffff8203614eaf57614eae614e43565b5b600182019050919050565b6000614ec582614391565b9150614ed083614391565b9250828202614ede81614391565b91508282048414831517614ef557614ef4614e43565b5b5092915050565b6000614f0782614391565b9150614f1283614391565b9250828201905080821115614f2a57614f29614e43565b5b92915050565b60008190508160005260206000209050919050565b60006020601f8301049050919050565b600082821b905092915050565b600060088302614f927fffffffffffffffffffffffffffffffffffffffffffffffffffffffffffffffff82614f55565b614f9c8683614f55565b95508019841693508086168417925050509392505050565b6000819050919050565b6000614fd9614fd4614fcf84614391565b614fb4565b614391565b9050919050565b6000819050919050565b614ff383614fbe565b615007614fff82614fe0565b848454614f62565b825550505050565b600090565b61501c61500f565b615027818484614fea565b505050565b5b8181101561504b57615040600082615014565b60018101905061502d565b5050565b601f8211156150905761506181614f30565b61506a84614f45565b81016020851015615079578190505b61508d61508585614f45565b83018261502c565b50505b505050565b600082821c905092915050565b60006150b360001984600802615095565b1980831691505092915050565b60006150cc83836150a2565b9150826002028217905092915050565b6150e5826142df565b67ffffffffffffffff8111156150fe576150fd6145d0565b5b6151088254614da6565b61511382828561504f565b600060209050601f8311600181146151465760008415615134578287015190505b61513e85826150c0565b8655506151a6565b601f19841661515486614f30565b60005b8281101561517c57848901518255600182019150602085019450602081019050615157565b868310156151995784890151615195601f8916826150a2565b8355505b6001600288020188555050505b505050505050565b600081905092915050565b600081546151c681614da6565b6151d081866151ae565b945060018216600081146151eb576001811461520057615233565b60ff1983168652811515820286019350615233565b61520985614f30565b60005b8381101561522b5781548189015260018201915060208101905061520c565b838801955050505b50505092915050565b600061524882846151b9565b915081905092915050565b7f556e617574686f72697a65640000000000000000000000000000000000000000600082015250565b6000615289600c836142ea565b915061529482615253565b602082019050919050565b600060208201905081810360008301526152b88161527c565b9050919050565b60006060820190506152d46000830186614426565b6152e16020830185614450565b6152ee6040830184614426565b949350505050565b7f756e617574686f72697a65640000000000000000000000000000000000000000600082015250565b600061532c600c836142ea565b9150615337826152f6565b602082019050919050565b6000602082019050818103600083015261535b8161531f565b9050919050565b600061536d82614391565b915061537883614391565b92508282039050818111156153905761538f614e43565b5b92915050565b7f4e487b7100000000000000000000000000000000000000000000000000000000600052603260045260246000fd5b7f4e6f206269647300000000000000000000000000000000000000000000000000600082015250565b60006153fb6007836142ea565b9150615406826153c5565b602082019050919050565b6000602082019050818103600083015261542a816153ee565b9050919050565b60008154905061544081614da6565b9050919050565b81810361545557505061552d565b61545e82615431565b67ffffffffffffffff811115615477576154766145d0565b5b6154818254614da6565b61548c82828561504f565b6000601f8311600181146154bb57600084156154a9578287015490505b6154b385826150c0565b865550615526565b601f1984166154c987614f30565b96506154d486614f30565b60005b828110156154fc578489015482556001820191506001850194506020810190506154d7565b868310156155195784890154615515601f8916826150a2565b8355505b6001600288020188555050505b5050505050505b565b7f416c726561647920736f6c640000000000000000000000000000000000000000600082015250565b6000615565600c836142ea565b91506155708261552f565b602082019050919050565b6000602082019050818103600083015261559481615558565b9050919050565b7f42696464696e672068617320656e646564000000000000000000000000000000600082015250565b60006155d16011836142ea565b91506155dc8261559b565b602082019050919050565b60006020820190508181036000830152615600816155c4565b9050919050565b7f696e76616c696420616d6f756e74000000000000000000000000000000000000600082015250565b600061563d600e836142ea565b915061564882615607565b602082019050919050565b6000602082019050818103600083015261566c81615630565b9050919050565b7f6869676865722062696420666f756e642e000000000000000000000000000000600082015250565b60006156a96011836142ea565b91506156b482615673565b602082019050919050565b600060208201905081810360008301526156d88161569c565b9050919050565b60006040820190506156f46000830185614426565b6157016020830184614450565b9392505050565b6000615713826142df565b61571d81856151ae565b935061572d8185602086016142fb565b80840191505092915050565b60006157458285615708565b91506157518284615708565b91508190509392505050565b60006040820190506157726000830185614450565b61577f6020830184614450565b9392505050565b7f4e487b7100000000000000000000000000000000000000000000000000000000600052601260045260246000fd5b60006157c082614391565b91506157cb83614391565b9250826157db576157da615786565b5b828204905092915050565b600081519050919050565b600082825260208201905092915050565b600061580d826157e6565b61581781856157f1565b93506158278185602086016142fb565b61583081614325565b840191505092915050565b60006080820190506158506000830187614426565b61585d6020830186614426565b61586a6040830185614450565b818103606083015261587c8184615802565b905095945050505050565b60008151905061589681614250565b92915050565b6000602082840312156158b2576158b161421a565b5b60006158c084828501615887565b9150509291505056fea26469706673582212209d7360a1f8f37e194de2b0fde5030011a8c32c45c7f7d6235cc4f9bd8cf15b2f64736f6c63430008140033",
  "linkReferences": {},
  "deployedLinkReferences": {}
}