{
  "_format": "hh-sol-artifact-1",
  "contractName": "FRDNFTMarketPlace",
  "sourceName": "contracts/FRDNFTMarketPlace.sol",
  "abi": [
    {
      "inputs": [],
      "stateMutability": "nonpayable",
      "type": "constructor"
    },
    {
      "inputs": [
        {
          "internalType": "address",
          "name": "sender",
          "type": "address"
        },
        {
          "internalType": "uint256",
          "name": "tokenId",
          "type": "uint256"
        },
        {
          "internalType": "address",
          "name": "owner",
          "type": "address"
        }
      ],
      "name": "ERC721IncorrectOwner",
      "type": "error"
    },
    {
      "inputs": [
        {
          "internalType": "address",
          "name": "operator",
          "type": "address"
        },
        {
          "internalType": "uint256",
          "name": "tokenId",
          "type": "uint256"
        }
      ],
      "name": "ERC721InsufficientApproval",
      "type": "error"
    },
    {
      "inputs": [
        {
          "internalType": "address",
          "name": "approver",
          "type": "address"
        }
      ],
      "name": "ERC721InvalidApprover",
      "type": "error"
    },
    {
      "inputs": [
        {
          "internalType": "address",
          "name": "operator",
          "type": "address"
        }
      ],
      "name": "ERC721InvalidOperator",
      "type": "error"
    },
    {
      "inputs": [
        {
          "internalType": "address",
          "name": "owner",
          "type": "address"
        }
      ],
      "name": "ERC721InvalidOwner",
      "type": "error"
    },
    {
      "inputs": [
        {
          "internalType": "address",
          "name": "receiver",
          "type": "address"
        }
      ],
      "name": "ERC721InvalidReceiver",
      "type": "error"
    },
    {
      "inputs": [
        {
          "internalType": "address",
          "name": "sender",
          "type": "address"
        }
      ],
      "name": "ERC721InvalidSender",
      "type": "error"
    },
    {
      "inputs": [
        {
          "internalType": "uint256",
          "name": "tokenId",
          "type": "uint256"
        }
      ],
      "name": "ERC721NonexistentToken",
      "type": "error"
    },
    {
      "inputs": [],
      "name": "ReentrancyGuardReentrantCall",
      "type": "error"
    },
    {
      "inputs": [],
      "name": "createTokenFirst",
      "type": "error"
    },
    {
      "anonymous": false,
      "inputs": [
        {
          "indexed": true,
          "internalType": "address",
          "name": "owner",
          "type": "address"
        },
        {
          "indexed": true,
          "internalType": "address",
          "name": "approved",
          "type": "address"
        },
        {
          "indexed": true,
          "internalType": "uint256",
          "name": "tokenId",
          "type": "uint256"
        }
      ],
      "name": "Approval",
      "type": "event"
    },
    {
      "anonymous": false,
      "inputs": [
        {
          "indexed": true,
          "internalType": "address",
          "name": "owner",
          "type": "address"
        },
        {
          "indexed": true,
          "internalType": "address",
          "name": "operator",
          "type": "address"
        },
        {
          "indexed": false,
          "internalType": "bool",
          "name": "approved",
          "type": "bool"
        }
      ],
      "name": "ApprovalForAll",
      "type": "event"
    },
    {
      "anonymous": false,
      "inputs": [
        {
          "indexed": false,
          "internalType": "uint256",
          "name": "_fromTokenId",
          "type": "uint256"
        },
        {
          "indexed": false,
          "internalType": "uint256",
          "name": "_toTokenId",
          "type": "uint256"
        }
      ],
      "name": "BatchMetadataUpdate",
      "type": "event"
    },
    {
      "anonymous": false,
      "inputs": [
        {
          "indexed": true,
          "internalType": "uint256",
          "name": "tokenId",
          "type": "uint256"
        },
        {
          "indexed": true,
          "internalType": "uint256",
          "name": "itemId",
          "type": "uint256"
        },
        {
          "indexed": false,
          "internalType": "address",
          "name": "creator",
          "type": "address"
        },
        {
          "indexed": false,
          "internalType": "address",
          "name": "owner",
          "type": "address"
        },
        {
          "indexed": false,
          "internalType": "uint256",
          "name": "price",
          "type": "uint256"
        },
        {
          "indexed": false,
          "internalType": "bool",
          "name": "sold",
          "type": "bool"
        }
      ],
      "name": "MarketItemCreated",
      "type": "event"
    },
    {
      "anonymous": false,
      "inputs": [
        {
          "indexed": false,
          "internalType": "uint256",
          "name": "_tokenId",
          "type": "uint256"
        }
      ],
      "name": "MetadataUpdate",
      "type": "event"
    },
    {
      "anonymous": false,
      "inputs": [
        {
          "indexed": false,
          "internalType": "string",
          "name": "tokenURI",
          "type": "string"
        },
        {
          "indexed": true,
          "internalType": "uint256",
          "name": "tokenId",
          "type": "uint256"
        },
        {
          "indexed": false,
          "internalType": "address",
          "name": "creator",
          "type": "address"
        }
      ],
      "name": "NFTMinted",
      "type": "event"
    },
    {
      "anonymous": false,
      "inputs": [
        {
          "indexed": true,
          "internalType": "address",
          "name": "from",
          "type": "address"
        },
        {
          "indexed": true,
          "internalType": "address",
          "name": "to",
          "type": "address"
        },
        {
          "indexed": true,
          "internalType": "uint256",
          "name": "tokenId",
          "type": "uint256"
        }
      ],
      "name": "Transfer",
      "type": "event"
    },
    {
      "inputs": [
        {
          "internalType": "uint256",
          "name": "itemId",
          "type": "uint256"
        }
      ],
      "name": "ListBackMarketItem",
      "outputs": [],
      "stateMutability": "payable",
      "type": "function"
    },
    {
      "inputs": [
        {
          "internalType": "address",
          "name": "to",
          "type": "address"
        },
        {
          "internalType": "uint256",
          "name": "tokenId",
          "type": "uint256"
        }
      ],
      "name": "approve",
      "outputs": [],
      "stateMutability": "nonpayable",
      "type": "function"
    },
    {
      "inputs": [
        {
          "internalType": "address",
          "name": "owner",
          "type": "address"
        }
      ],
      "name": "balanceOf",
      "outputs": [
        {
          "internalType": "uint256",
          "name": "",
          "type": "uint256"
        }
      ],
      "stateMutability": "view",
      "type": "function"
    },
    {
      "inputs": [],
      "name": "checkTokenCreation",
      "outputs": [
        {
          "internalType": "bool",
          "name": "",
          "type": "bool"
        }
      ],
      "stateMutability": "view",
      "type": "function"
    },
    {
      "inputs": [
        {
          "internalType": "uint256",
          "name": "tokenId_",
          "type": "uint256"
        },
        {
          "internalType": "uint256",
          "name": "price",
          "type": "uint256"
        }
      ],
      "name": "createMarketItem",
      "outputs": [
        {
          "internalType": "uint256",
          "name": "",
          "type": "uint256"
        }
      ],
      "stateMutability": "payable",
      "type": "function"
    },
    {
      "inputs": [
        {
          "internalType": "uint256",
          "name": "itemId",
          "type": "uint256"
        }
      ],
      "name": "createMarketSale",
      "outputs": [],
      "stateMutability": "payable",
      "type": "function"
    },
    {
      "inputs": [
        {
          "internalType": "string",
          "name": "tokenURI",
          "type": "string"
        }
      ],
      "name": "createToken",
      "outputs": [
        {
          "internalType": "uint256",
          "name": "",
          "type": "uint256"
        }
      ],
      "stateMutability": "payable",
      "type": "function"
    },
    {
      "inputs": [],
      "name": "fetchItemsCreated",
      "outputs": [
        {
          "components": [
            {
              "internalType": "uint256",
              "name": "itemId",
              "type": "uint256"
            },
            {
              "internalType": "uint256",
              "name": "tokenId",
              "type": "uint256"
            },
            {
              "internalType": "address payable",
              "name": "creator",
              "type": "address"
            },
            {
              "internalType": "address payable",
              "name": "owner",
              "type": "address"
            },
            {
              "internalType": "uint256",
              "name": "price",
              "type": "uint256"
            },
            {
              "internalType": "bool",
              "name": "sold",
              "type": "bool"
            }
          ],
          "internalType": "struct FRDNFTMarketPlace.MarketItem[]",
          "name": "",
          "type": "tuple[]"
        }
      ],
      "stateMutability": "view",
      "type": "function"
    },
    {
      "inputs": [],
      "name": "fetchMarketItems",
      "outputs": [
        {
          "components": [
            {
              "internalType": "uint256",
              "name": "itemId",
              "type": "uint256"
            },
            {
              "internalType": "uint256",
              "name": "tokenId",
              "type": "uint256"
            },
            {
              "internalType": "address payable",
              "name": "creator",
              "type": "address"
            },
            {
              "internalType": "address payable",
              "name": "owner",
              "type": "address"
            },
            {
              "internalType": "uint256",
              "name": "price",
              "type": "uint256"
            },
            {
              "internalType": "bool",
              "name": "sold",
              "type": "bool"
            }
          ],
          "internalType": "struct FRDNFTMarketPlace.MarketItem[]",
          "name": "",
          "type": "tuple[]"
        }
      ],
      "stateMutability": "view",
      "type": "function"
    },
    {
      "inputs": [],
      "name": "fetchMyNFTs",
      "outputs": [
        {
          "components": [
            {
              "internalType": "uint256",
              "name": "itemId",
              "type": "uint256"
            },
            {
              "internalType": "uint256",
              "name": "tokenId",
              "type": "uint256"
            },
            {
              "internalType": "address payable",
              "name": "creator",
              "type": "address"
            },
            {
              "internalType": "address payable",
              "name": "owner",
              "type": "address"
            },
            {
              "internalType": "uint256",
              "name": "price",
              "type": "uint256"
            },
            {
              "internalType": "bool",
              "name": "sold",
              "type": "bool"
            }
          ],
          "internalType": "struct FRDNFTMarketPlace.MarketItem[]",
          "name": "",
          "type": "tuple[]"
        }
      ],
      "stateMutability": "view",
      "type": "function"
    },
    {
      "inputs": [],
      "name": "fetchUnSoldMarketItems",
      "outputs": [
        {
          "components": [
            {
              "internalType": "uint256",
              "name": "itemId",
              "type": "uint256"
            },
            {
              "internalType": "uint256",
              "name": "tokenId",
              "type": "uint256"
            },
            {
              "internalType": "address payable",
              "name": "creator",
              "type": "address"
            },
            {
              "internalType": "address payable",
              "name": "owner",
              "type": "address"
            },
            {
              "internalType": "uint256",
              "name": "price",
              "type": "uint256"
            },
            {
              "internalType": "bool",
              "name": "sold",
              "type": "bool"
            }
          ],
          "internalType": "struct FRDNFTMarketPlace.MarketItem[]",
          "name": "",
          "type": "tuple[]"
        }
      ],
      "stateMutability": "view",
      "type": "function"
    },
    {
      "inputs": [
        {
          "internalType": "address",
          "name": "receiver",
          "type": "address"
        }
      ],
      "name": "getAddressCredits",
      "outputs": [
        {
          "internalType": "uint256",
          "name": "",
          "type": "uint256"
        }
      ],
      "stateMutability": "view",
      "type": "function"
    },
    {
      "inputs": [
        {
          "internalType": "uint256",
          "name": "tokenId",
          "type": "uint256"
        }
      ],
      "name": "getApproved",
      "outputs": [
        {
          "internalType": "address",
          "name": "",
          "type": "address"
        }
      ],
      "stateMutability": "view",
      "type": "function"
    },
    {
      "inputs": [
        {
          "internalType": "uint256",
          "name": "itemId",
          "type": "uint256"
        }
      ],
      "name": "getOwnerOfItem",
      "outputs": [
        {
          "internalType": "address",
          "name": "",
          "type": "address"
        }
      ],
      "stateMutability": "view",
      "type": "function"
    },
    {
      "inputs": [],
      "name": "getSalesFeeBasisPoints",
      "outputs": [
        {
          "internalType": "uint256",
          "name": "",
          "type": "uint256"
        }
      ],
      "stateMutability": "view",
      "type": "function"
    },
    {
      "inputs": [
        {
          "internalType": "address",
          "name": "owner",
          "type": "address"
        },
        {
          "internalType": "address",
          "name": "operator",
          "type": "address"
        }
      ],
      "name": "isApprovedForAll",
      "outputs": [
        {
          "internalType": "bool",
          "name": "",
          "type": "bool"
        }
      ],
      "stateMutability": "view",
      "type": "function"
    },
    {
      "inputs": [],
      "name": "name",
      "outputs": [
        {
          "internalType": "string",
          "name": "",
          "type": "string"
        }
      ],
      "stateMutability": "view",
      "type": "function"
    },
    {
      "inputs": [
        {
          "internalType": "uint256",
          "name": "tokenId",
          "type": "uint256"
        }
      ],
      "name": "ownerOf",
      "outputs": [
        {
          "internalType": "address",
          "name": "",
          "type": "address"
        }
      ],
      "stateMutability": "view",
      "type": "function"
    },
    {
      "inputs": [
        {
          "internalType": "address",
          "name": "from",
          "type": "address"
        },
        {
          "internalType": "address",
          "name": "to",
          "type": "address"
        },
        {
          "internalType": "uint256",
          "name": "tokenId",
          "type": "uint256"
        }
      ],
      "name": "safeTransferFrom",
      "outputs": [],
      "stateMutability": "nonpayable",
      "type": "function"
    },
    {
      "inputs": [
        {
          "internalType": "address",
          "name": "from",
          "type": "address"
        },
        {
          "internalType": "address",
          "name": "to",
          "type": "address"
        },
        {
          "internalType": "uint256",
          "name": "tokenId",
          "type": "uint256"
        },
        {
          "internalType": "bytes",
          "name": "data",
          "type": "bytes"
        }
      ],
      "name": "safeTransferFrom",
      "outputs": [],
      "stateMutability": "nonpayable",
      "type": "function"
    },
    {
      "inputs": [
        {
          "internalType": "address",
          "name": "operator",
          "type": "address"
        },
        {
          "internalType": "bool",
          "name": "approved",
          "type": "bool"
        }
      ],
      "name": "setApprovalForAll",
      "outputs": [],
      "stateMutability": "nonpayable",
      "type": "function"
    },
    {
      "inputs": [
        {
          "internalType": "bytes4",
          "name": "interfaceId",
          "type": "bytes4"
        }
      ],
      "name": "supportsInterface",
      "outputs": [
        {
          "internalType": "bool",
          "name": "",
          "type": "bool"
        }
      ],
      "stateMutability": "view",
      "type": "function"
    },
    {
      "inputs": [],
      "name": "symbol",
      "outputs": [
        {
          "internalType": "string",
          "name": "",
          "type": "string"
        }
      ],
      "stateMutability": "view",
      "type": "function"
    },
    {
      "inputs": [
        {
          "internalType": "uint256",
          "name": "tokenId",
          "type": "uint256"
        }
      ],
      "name": "tokenURI",
      "outputs": [
        {
          "internalType": "string",
          "name": "",
          "type": "string"
        }
      ],
      "stateMutability": "view",
      "type": "function"
    },
    {
      "inputs": [
        {
          "internalType": "address",
          "name": "from",
          "type": "address"
        },
        {
          "internalType": "address",
          "name": "to",
          "type": "address"
        },
        {
          "internalType": "uint256",
          "name": "tokenId",
          "type": "uint256"
        }
      ],
      "name": "transferFrom",
      "outputs": [],
      "stateMutability": "nonpayable",
      "type": "function"
    },
    {
      "inputs": [
        {
          "internalType": "uint256",
          "name": "itemId",
          "type": "uint256"
        }
      ],
      "name": "unListMarketItem",
      "outputs": [],
      "stateMutability": "payable",
      "type": "function"
    },
    {
      "inputs": [
        {
          "internalType": "uint256",
          "name": "rewardPercentage",
          "type": "uint256"
        }
      ],
      "name": "updateRewarsPercentage",
      "outputs": [],
      "stateMutability": "nonpayable",
      "type": "function"
    },
    {
      "inputs": [],
      "name": "withdrawCredits",
      "outputs": [],
      "stateMutability": "nonpayable",
      "type": "function"
    }
  ],
  "bytecode": "0x608060405260fa600c55612710600d553480156200001c57600080fd5b506040518060400160405280600a81526020017f46494641526577617264000000000000000000000000000000000000000000008152506040518060400160405280600381526020017f465244000000000000000000000000000000000000000000000000000000000081525060016000819055508160019081620000a2919062000378565b508060029081620000b4919062000378565b50505033600b60006101000a81548173ffffffffffffffffffffffffffffffffffffffff021916908373ffffffffffffffffffffffffffffffffffffffff1602179055506200045f565b600081519050919050565b7f4e487b7100000000000000000000000000000000000000000000000000000000600052604160045260246000fd5b7f4e487b7100000000000000000000000000000000000000000000000000000000600052602260045260246000fd5b600060028204905060018216806200018057607f821691505b60208210810362000196576200019562000138565b5b50919050565b60008190508160005260206000209050919050565b60006020601f8301049050919050565b600082821b905092915050565b600060088302620002007fffffffffffffffffffffffffffffffffffffffffffffffffffffffffffffffff82620001c1565b6200020c8683620001c1565b95508019841693508086168417925050509392505050565b6000819050919050565b6000819050919050565b600062000259620002536200024d8462000224565b6200022e565b62000224565b9050919050565b6000819050919050565b620002758362000238565b6200028d620002848262000260565b848454620001ce565b825550505050565b600090565b620002a462000295565b620002b18184846200026a565b505050565b5b81811015620002d957620002cd6000826200029a565b600181019050620002b7565b5050565b601f8211156200032857620002f2816200019c565b620002fd84620001b1565b810160208510156200030d578190505b620003256200031c85620001b1565b830182620002b6565b50505b505050565b600082821c905092915050565b60006200034d600019846008026200032d565b1980831691505092915050565b60006200036883836200033a565b9150826002028217905092915050565b6200038382620000fe565b67ffffffffffffffff8111156200039f576200039e62000109565b5b620003ab825462000167565b620003b8828285620002dd565b600060209050601f831160018114620003f05760008415620003db578287015190505b620003e785826200035a565b86555062000457565b601f19841662000400866200019c565b60005b828110156200042a5784890151825560018201915060208501945060208101905062000403565b868310156200044a578489015162000446601f8916826200033a565b8355505b6001600288020188555050505b505050505050565b614c4e806200046f6000396000f3fe6080604052600436106101b75760003560e01c806370a08231116100ec578063b88d4fde1161008a578063c87b56dd11610064578063c87b56dd146105ed578063e4e6d5181461062a578063e985e9c514610655578063f064c32e14610692576101b7565b8063b88d4fde1461057f578063ba12a9c3146105a8578063be9af536146105d1576101b7565b806395d89b41116100c657806395d89b41146104d25780639cc18097146104fd578063a22cb4651461053a578063b69868af14610563576101b7565b806370a0823114610453578063717f6dfb146104905780638987ce01146104a7576101b7565b8063361c19951161015957806342842e0e1161013357806342842e0e146103a157806345576f94146103ca57806354ef82f0146103fa5780636352211e14610416576101b7565b8063361c1995146103095780633623ea0914610339578063382edbcf14610376576101b7565b8063095ea7b311610195578063095ea7b3146102615780630f08efe01461028a578063202e3740146102b557806323b872dd146102e0576101b7565b806301ffc9a7146101bc57806306fdde03146101f9578063081812fc14610224575b600080fd5b3480156101c857600080fd5b506101e360048036038101906101de919061398d565b6106bd565b6040516101f091906139d5565b60405180910390f35b34801561020557600080fd5b5061020e61071e565b60405161021b9190613a80565b60405180910390f35b34801561023057600080fd5b5061024b60048036038101906102469190613ad8565b6107b0565b6040516102589190613b46565b60405180910390f35b34801561026d57600080fd5b5061028860048036038101906102839190613b8d565b6107cc565b005b34801561029657600080fd5b5061029f6107e2565b6040516102ac9190613d36565b60405180910390f35b3480156102c157600080fd5b506102ca6109b4565b6040516102d79190613d36565b60405180910390f35b3480156102ec57600080fd5b5061030760048036038101906103029190613d58565b610ca3565b005b610323600480360381019061031e9190613dab565b610da5565b6040516103309190613dfa565b60405180910390f35b34801561034557600080fd5b50610360600480360381019061035b9190613ad8565b6110ef565b60405161036d9190613b46565b60405180910390f35b34801561038257600080fd5b5061038b61112f565b6040516103989190613d36565b60405180910390f35b3480156103ad57600080fd5b506103c860048036038101906103c39190613d58565b61143d565b005b6103e460048036038101906103df9190613f4a565b61145d565b6040516103f19190613dfa565b60405180910390f35b610414600480360381019061040f9190613ad8565b611571565b005b34801561042257600080fd5b5061043d60048036038101906104389190613ad8565b61180c565b60405161044a9190613b46565b60405180910390f35b34801561045f57600080fd5b5061047a60048036038101906104759190613f93565b61181e565b6040516104879190613dfa565b60405180910390f35b34801561049c57600080fd5b506104a56118d8565b005b3480156104b357600080fd5b506104bc611a31565b6040516104c991906139d5565b60405180910390f35b3480156104de57600080fd5b506104e7611a88565b6040516104f49190613a80565b60405180910390f35b34801561050957600080fd5b50610524600480360381019061051f9190613f93565b611b1a565b6040516105319190613dfa565b60405180910390f35b34801561054657600080fd5b50610561600480360381019061055c9190613fec565b611b63565b005b61057d60048036038101906105789190613ad8565b611b79565b005b34801561058b57600080fd5b506105a660048036038101906105a191906140cd565b611e14565b005b3480156105b457600080fd5b506105cf60048036038101906105ca9190613ad8565b611e31565b005b6105eb60048036038101906105e69190613ad8565b611ecb565b005b3480156105f957600080fd5b50610614600480360381019061060f9190613ad8565b6121bd565b6040516106219190613a80565b60405180910390f35b34801561063657600080fd5b5061063f6122d0565b60405161064c9190613dfa565b60405180910390f35b34801561066157600080fd5b5061067c60048036038101906106779190614150565b6122da565b60405161068991906139d5565b60405180910390f35b34801561069e57600080fd5b506106a761236e565b6040516106b49190613d36565b60405180910390f35b6000634906490660e01b7bffffffffffffffffffffffffffffffffffffffffffffffffffffffff1916827bffffffffffffffffffffffffffffffffffffffffffffffffffffffff1916148061071757506107168261265d565b5b9050919050565b60606001805461072d906141bf565b80601f0160208091040260200160405190810160405280929190818152602001828054610759906141bf565b80156107a65780601f1061077b576101008083540402835291602001916107a6565b820191906000526020600020905b81548152906001019060200180831161078957829003601f168201915b5050505050905090565b60006107bb8261273f565b506107c5826127c7565b9050919050565b6107de82826107d9612804565b61280c565b5050565b6060600060085490506000808267ffffffffffffffff81111561080857610807613e1f565b5b60405190808252806020026020018201604052801561084157816020015b61082e6138bd565b8152602001906001900390816108265790505b50905060005b838110156109aa57600060018261085e919061421f565b90506000600e60008381526020019081526020016000209050806040518060c001604052908160008201548152602001600182015481526020016002820160009054906101000a900473ffffffffffffffffffffffffffffffffffffffff1673ffffffffffffffffffffffffffffffffffffffff1673ffffffffffffffffffffffffffffffffffffffff1681526020016003820160009054906101000a900473ffffffffffffffffffffffffffffffffffffffff1673ffffffffffffffffffffffffffffffffffffffff1673ffffffffffffffffffffffffffffffffffffffff168152602001600482015481526020016005820160009054906101000a900460ff16151515158152505084868151811061097b5761097a614253565b5b6020026020010181905250600185610993919061421f565b9450505080806109a290614282565b915050610847565b5080935050505090565b60606000600954905060008060005b83811015610a63573373ffffffffffffffffffffffffffffffffffffffff16600e60006001846109f3919061421f565b815260200190815260200160002060030160009054906101000a900473ffffffffffffffffffffffffffffffffffffffff1673ffffffffffffffffffffffffffffffffffffffff1603610a5057600183610a4d919061421f565b92505b8080610a5b90614282565b9150506109c3565b5060008267ffffffffffffffff811115610a8057610a7f613e1f565b5b604051908082528060200260200182016040528015610ab957816020015b610aa66138bd565b815260200190600190039081610a9e5790505b50905060005b84811015610c98573373ffffffffffffffffffffffffffffffffffffffff16600e6000600184610aef919061421f565b815260200190815260200160002060030160009054906101000a900473ffffffffffffffffffffffffffffffffffffffff1673ffffffffffffffffffffffffffffffffffffffff1603610c85576000600182610b4b919061421f565b90506000600e60008381526020019081526020016000209050806040518060c001604052908160008201548152602001600182015481526020016002820160009054906101000a900473ffffffffffffffffffffffffffffffffffffffff1673ffffffffffffffffffffffffffffffffffffffff1673ffffffffffffffffffffffffffffffffffffffff1681526020016003820160009054906101000a900473ffffffffffffffffffffffffffffffffffffffff1673ffffffffffffffffffffffffffffffffffffffff1673ffffffffffffffffffffffffffffffffffffffff168152602001600482015481526020016005820160009054906101000a900460ff161515151581525050848681518110610c6857610c67614253565b5b6020026020010181905250600185610c80919061421f565b945050505b8080610c9090614282565b915050610abf565b508094505050505090565b600073ffffffffffffffffffffffffffffffffffffffff168273ffffffffffffffffffffffffffffffffffffffff1603610d155760006040517f64a0ae92000000000000000000000000000000000000000000000000000000008152600401610d0c9190613b46565b60405180910390fd5b6000610d298383610d24612804565b61281e565b90508373ffffffffffffffffffffffffffffffffffffffff168173ffffffffffffffffffffffffffffffffffffffff1614610d9f578382826040517f64283d7b000000000000000000000000000000000000000000000000000000008152600401610d96939291906142ca565b60405180910390fd5b50505050565b6000610daf612a38565b60001515600f60003373ffffffffffffffffffffffffffffffffffffffff1673ffffffffffffffffffffffffffffffffffffffff16815260200190815260200160002060030160009054906101000a900460ff16151503610e3c576040517fd9f7315c00000000000000000000000000000000000000000000000000000000815260040160405180910390fd5b60008211610e7f576040517f08c379a0000000000000000000000000000000000000000000000000000000008152600401610e769061434d565b60405180910390fd5b600160096000828254610e92919061421f565b92505081905550600060095490506040518060c001604052808281526020018581526020013373ffffffffffffffffffffffffffffffffffffffff1681526020013073ffffffffffffffffffffffffffffffffffffffff16815260200184815260200160001515815250600e6000838152602001908152602001600020600082015181600001556020820151816001015560408201518160020160006101000a81548173ffffffffffffffffffffffffffffffffffffffff021916908373ffffffffffffffffffffffffffffffffffffffff16021790555060608201518160030160006101000a81548173ffffffffffffffffffffffffffffffffffffffff021916908373ffffffffffffffffffffffffffffffffffffffff1602179055506080820151816004015560a08201518160050160006101000a81548160ff0219169083151502179055509050506110536040518060400160405280600c81526020017f63726561746f7220616464720000000000000000000000000000000000000000815250600e600084815260200190815260200160002060020160009054906101000a900473ffffffffffffffffffffffffffffffffffffffff16612a7e565b6110926040518060400160405280601281526020017f206974656d20496420323232323232322d2d000000000000000000000000000081525082612b1a565b80847f4a29ff6f650682addfdf8030b3eeb4610ec651b42d8603f2527633347f9489c933308760006040516110ca949392919061436d565b60405180910390a36110dd333086612bb6565b809150506110e9612d23565b92915050565b6000600e600083815260200190815260200160002060030160009054906101000a900473ffffffffffffffffffffffffffffffffffffffff169050919050565b60606000600854905060008060005b8381101561121857600e6000600183611157919061421f565b815260200190815260200160002060050160009054906101000a900460ff161580156111f057503073ffffffffffffffffffffffffffffffffffffffff16600e60006001846111a6919061421f565b815260200190815260200160002060030160009054906101000a900473ffffffffffffffffffffffffffffffffffffffff1673ffffffffffffffffffffffffffffffffffffffff16145b1561120557600183611202919061421f565b92505b808061121090614282565b91505061113e565b5060008267ffffffffffffffff81111561123557611234613e1f565b5b60405190808252806020026020018201604052801561126e57816020015b61125b6138bd565b8152602001906001900390816112535790505b50905060005b8481101561143257600060018261128b919061421f565b90503073ffffffffffffffffffffffffffffffffffffffff16600e600083815260200190815260200160002060030160009054906101000a900473ffffffffffffffffffffffffffffffffffffffff1673ffffffffffffffffffffffffffffffffffffffff160361141e576000600e60008381526020019081526020016000209050806040518060c001604052908160008201548152602001600182015481526020016002820160009054906101000a900473ffffffffffffffffffffffffffffffffffffffff1673ffffffffffffffffffffffffffffffffffffffff1673ffffffffffffffffffffffffffffffffffffffff1681526020016003820160009054906101000a900473ffffffffffffffffffffffffffffffffffffffff1673ffffffffffffffffffffffffffffffffffffffff1673ffffffffffffffffffffffffffffffffffffffff168152602001600482015481526020016005820160009054906101000a900460ff16151515158152505084868151811061141157611410614253565b5b6020026020010181905250505b50808061142a90614282565b915050611274565b508094505050505090565b61145883838360405180602001604052806000815250611e14565b505050565b6000600160086000828254611472919061421f565b92505081905550600060085490506114bf6040518060400160405280600c81526020017f6e657720746f6b656e204964000000000000000000000000000000000000000081525082612b1a565b6001600f60003373ffffffffffffffffffffffffffffffffffffffff1673ffffffffffffffffffffffffffffffffffffffff16815260200190815260200160002060030160006101000a81548160ff0219169083151502179055506115243382612d2d565b61152e8184612e26565b807fcb661657f66ac19fb1f6c039deade644f08ecfdfbfe04e45918d9a19f26b35ed84336040516115609291906143b2565b60405180910390a280915050919050565b611579612a38565b6115ee6040518060400160405280601081526020017f63726561746f72205f6164647265737300000000000000000000000000000000815250600e600084815260200190815260200160002060020160009054906101000a900473ffffffffffffffffffffffffffffffffffffffff16612a7e565b6116636040518060400160405280601281526020017f6d61726b657420706c616365206f776e65720000000000000000000000000000815250600e600084815260200190815260200160002060030160009054906101000a900473ffffffffffffffffffffffffffffffffffffffff16612a7e565b6116a26040518060400160405280601381526020017f6d73672e73656e646572205f616464726573730000000000000000000000000081525033612a7e565b6116e16040518060400160405280600881526020017f746f6b656e20496400000000000000000000000000000000000000000000000081525082612b1a565b6000600e6000838152602001908152602001600020600101549050600e600083815260200190815260200160002060020160009054906101000a900473ffffffffffffffffffffffffffffffffffffffff1673ffffffffffffffffffffffffffffffffffffffff163373ffffffffffffffffffffffffffffffffffffffff16146117a0576040517f08c379a00000000000000000000000000000000000000000000000000000000081526004016117979061442e565b60405180910390fd5b30600e600084815260200190815260200160002060030160006101000a81548173ffffffffffffffffffffffffffffffffffffffff021916908373ffffffffffffffffffffffffffffffffffffffff160217905550611800333083612bb6565b50611809612d23565b50565b60006118178261273f565b9050919050565b60008073ffffffffffffffffffffffffffffffffffffffff168273ffffffffffffffffffffffffffffffffffffffff16036118915760006040517f89c62b640000000000000000000000000000000000000000000000000000000081526004016118889190613b46565b60405180910390fd5b600460008373ffffffffffffffffffffffffffffffffffffffff1673ffffffffffffffffffffffffffffffffffffffff168152602001908152602001600020549050919050565b6000601060003373ffffffffffffffffffffffffffffffffffffffff1673ffffffffffffffffffffffffffffffffffffffff1681526020019081526020016000205490506000811161195f576040517f08c379a0000000000000000000000000000000000000000000000000000000008152600401611956906144c0565b60405180910390fd5b804710156119a2576040517f08c379a000000000000000000000000000000000000000000000000000000000815260040161199990614552565b60405180910390fd5b6000601060003373ffffffffffffffffffffffffffffffffffffffff1673ffffffffffffffffffffffffffffffffffffffff168152602001908152602001600020819055503373ffffffffffffffffffffffffffffffffffffffff166108fc829081150290604051600060405180830381858888f19350505050158015611a2d573d6000803e3d6000fd5b5050565b6000600f60003373ffffffffffffffffffffffffffffffffffffffff1673ffffffffffffffffffffffffffffffffffffffff16815260200190815260200160002060030160009054906101000a900460ff16905090565b606060028054611a97906141bf565b80601f0160208091040260200160405190810160405280929190818152602001828054611ac3906141bf565b8015611b105780601f10611ae557610100808354040283529160200191611b10565b820191906000526020600020905b815481529060010190602001808311611af357829003601f168201915b5050505050905090565b6000601060008373ffffffffffffffffffffffffffffffffffffffff1673ffffffffffffffffffffffffffffffffffffffff168152602001908152602001600020549050919050565b611b75611b6e612804565b8383612e82565b5050565b611b81612a38565b611bf66040518060400160405280601081526020017f63726561746f72205f6164647265737300000000000000000000000000000000815250600e600084815260200190815260200160002060020160009054906101000a900473ffffffffffffffffffffffffffffffffffffffff16612a7e565b611c6b6040518060400160405280601281526020017f6d61726b657420706c616365206f776e65720000000000000000000000000000815250600e600084815260200190815260200160002060030160009054906101000a900473ffffffffffffffffffffffffffffffffffffffff16612a7e565b611caa6040518060400160405280601381526020017f6d73672e73656e646572205f616464726573730000000000000000000000000081525033612a7e565b611ce96040518060400160405280600881526020017f746f6b656e20496400000000000000000000000000000000000000000000000081525082612b1a565b6000600e6000838152602001908152602001600020600101549050600e600083815260200190815260200160002060020160009054906101000a900473ffffffffffffffffffffffffffffffffffffffff1673ffffffffffffffffffffffffffffffffffffffff163373ffffffffffffffffffffffffffffffffffffffff1614611da8576040517f08c379a0000000000000000000000000000000000000000000000000000000008152600401611d9f9061442e565b60405180910390fd5b33600e600084815260200190815260200160002060030160006101000a81548173ffffffffffffffffffffffffffffffffffffffff021916908373ffffffffffffffffffffffffffffffffffffffff160217905550611e08303383612bb6565b50611e11612d23565b50565b611e1f848484610ca3565b611e2b84848484612ff1565b50505050565b3373ffffffffffffffffffffffffffffffffffffffff16600b60009054906101000a900473ffffffffffffffffffffffffffffffffffffffff1673ffffffffffffffffffffffffffffffffffffffff1614611ec1576040517f08c379a0000000000000000000000000000000000000000000000000000000008152600401611eb8906145e4565b60405180910390fd5b80600c8190555050565b611ed3612a38565b6000600e60008381526020019081526020016000206004015490506000600e60008481526020019081526020016000206001015490506000600e600085815260200190815260200160002060020160009054906101000a900473ffffffffffffffffffffffffffffffffffffffff169050611fb96040518060400160405280600f81526020017f6974656d206f776e657220616464720000000000000000000000000000000000815250600e600087815260200190815260200160002060030160009054906101000a900473ffffffffffffffffffffffffffffffffffffffff16612a7e565b3073ffffffffffffffffffffffffffffffffffffffff16600e600086815260200190815260200160002060030160009054906101000a900473ffffffffffffffffffffffffffffffffffffffff1673ffffffffffffffffffffffffffffffffffffffff161461205d576040517f08c379a000000000000000000000000000000000000000000000000000000000815260040161205490614676565b60405180910390fd5b82341461209f576040517f08c379a000000000000000000000000000000000000000000000000000000000815260040161209690614708565b60405180910390fd5b6000600d54600c54856120b29190614728565b6120bc9190614799565b9050600081856120cc91906147ca565b90506120d883826131a8565b33600e600088815260200190815260200160002060030160006101000a81548173ffffffffffffffffffffffffffffffffffffffff021916908373ffffffffffffffffffffffffffffffffffffffff1602179055506001600e600088815260200190815260200160002060050160006101000a81548160ff0219169083151502179055506001600a600082825461216f919061421f565b925050819055506121a2600b60009054906101000a900473ffffffffffffffffffffffffffffffffffffffff16836131a8565b6121ad303386612bb6565b50505050506121ba612d23565b50565b60606121c88261273f565b5060006007600084815260200190815260200160002080546121e9906141bf565b80601f0160208091040260200160405190810160405280929190818152602001828054612215906141bf565b80156122625780601f1061223757610100808354040283529160200191612262565b820191906000526020600020905b81548152906001019060200180831161224557829003601f168201915b505050505090506000612273613202565b905060008151036122885781925050506122cb565b6000825111156122bd5780826040516020016122a592919061483a565b604051602081830303815290604052925050506122cb565b6122c684613219565b925050505b919050565b6000600c54905090565b6000600660008473ffffffffffffffffffffffffffffffffffffffff1673ffffffffffffffffffffffffffffffffffffffff16815260200190815260200160002060008373ffffffffffffffffffffffffffffffffffffffff1673ffffffffffffffffffffffffffffffffffffffff16815260200190815260200160002060009054906101000a900460ff16905092915050565b60606000600854905060008060005b8381101561241d573373ffffffffffffffffffffffffffffffffffffffff16600e60006001846123ad919061421f565b815260200190815260200160002060020160009054906101000a900473ffffffffffffffffffffffffffffffffffffffff1673ffffffffffffffffffffffffffffffffffffffff160361240a57600183612407919061421f565b92505b808061241590614282565b91505061237d565b5060008267ffffffffffffffff81111561243a57612439613e1f565b5b60405190808252806020026020018201604052801561247357816020015b6124606138bd565b8152602001906001900390816124585790505b50905060005b84811015612652573373ffffffffffffffffffffffffffffffffffffffff16600e60006001846124a9919061421f565b815260200190815260200160002060020160009054906101000a900473ffffffffffffffffffffffffffffffffffffffff1673ffffffffffffffffffffffffffffffffffffffff160361263f576000600182612505919061421f565b90506000600e60008381526020019081526020016000209050806040518060c001604052908160008201548152602001600182015481526020016002820160009054906101000a900473ffffffffffffffffffffffffffffffffffffffff1673ffffffffffffffffffffffffffffffffffffffff1673ffffffffffffffffffffffffffffffffffffffff1681526020016003820160009054906101000a900473ffffffffffffffffffffffffffffffffffffffff1673ffffffffffffffffffffffffffffffffffffffff1673ffffffffffffffffffffffffffffffffffffffff168152602001600482015481526020016005820160009054906101000a900460ff16151515158152505084868151811061262257612621614253565b5b602002602001018190525060018561263a919061421f565b945050505b808061264a90614282565b915050612479565b508094505050505090565b60007f80ac58cd000000000000000000000000000000000000000000000000000000007bffffffffffffffffffffffffffffffffffffffffffffffffffffffff1916827bffffffffffffffffffffffffffffffffffffffffffffffffffffffff1916148061272857507f5b5e139f000000000000000000000000000000000000000000000000000000007bffffffffffffffffffffffffffffffffffffffffffffffffffffffff1916827bffffffffffffffffffffffffffffffffffffffffffffffffffffffff1916145b80612738575061273782613282565b5b9050919050565b60008061274b836132ec565b9050600073ffffffffffffffffffffffffffffffffffffffff168173ffffffffffffffffffffffffffffffffffffffff16036127be57826040517f7e2732890000000000000000000000000000000000000000000000000000000081526004016127b59190613dfa565b60405180910390fd5b80915050919050565b60006005600083815260200190815260200160002060009054906101000a900473ffffffffffffffffffffffffffffffffffffffff169050919050565b600033905090565b6128198383836001613329565b505050565b60008061282a846132ec565b9050600073ffffffffffffffffffffffffffffffffffffffff168373ffffffffffffffffffffffffffffffffffffffff161461286c5761286b8184866134ee565b5b600073ffffffffffffffffffffffffffffffffffffffff168173ffffffffffffffffffffffffffffffffffffffff16146128fd576128ae600085600080613329565b6001600460008373ffffffffffffffffffffffffffffffffffffffff1673ffffffffffffffffffffffffffffffffffffffff168152602001908152602001600020600082825403925050819055505b600073ffffffffffffffffffffffffffffffffffffffff168573ffffffffffffffffffffffffffffffffffffffff1614612980576001600460008773ffffffffffffffffffffffffffffffffffffffff1673ffffffffffffffffffffffffffffffffffffffff168152602001908152602001600020600082825401925050819055505b846003600086815260200190815260200160002060006101000a81548173ffffffffffffffffffffffffffffffffffffffff021916908373ffffffffffffffffffffffffffffffffffffffff160217905550838573ffffffffffffffffffffffffffffffffffffffff168273ffffffffffffffffffffffffffffffffffffffff167fddf252ad1be2c89b69c2b068fc378daa952ba7f163c4a11628f55a4df523b3ef60405160405180910390a4809150509392505050565b600260005403612a74576040517f3ee5aeb500000000000000000000000000000000000000000000000000000000815260040160405180910390fd5b6002600081905550565b612b168282604051602401612a949291906143b2565b6040516020818303038152906040527f319af333000000000000000000000000000000000000000000000000000000007bffffffffffffffffffffffffffffffffffffffffffffffffffffffff19166020820180517bffffffffffffffffffffffffffffffffffffffffffffffffffffffff83818316178352505050506135b2565b5050565b612bb28282604051602401612b3092919061485e565b6040516020818303038152906040527fb60e72cc000000000000000000000000000000000000000000000000000000007bffffffffffffffffffffffffffffffffffffffffffffffffffffffff19166020820180517bffffffffffffffffffffffffffffffffffffffffffffffffffffffff83818316178352505050506135b2565b5050565b600073ffffffffffffffffffffffffffffffffffffffff168273ffffffffffffffffffffffffffffffffffffffff1603612c285760006040517f64a0ae92000000000000000000000000000000000000000000000000000000008152600401612c1f9190613b46565b60405180910390fd5b6000612c368383600061281e565b9050600073ffffffffffffffffffffffffffffffffffffffff168173ffffffffffffffffffffffffffffffffffffffff1603612ca957816040517f7e273289000000000000000000000000000000000000000000000000000000008152600401612ca09190613dfa565b60405180910390fd5b8373ffffffffffffffffffffffffffffffffffffffff168173ffffffffffffffffffffffffffffffffffffffff1614612d1d578382826040517f64283d7b000000000000000000000000000000000000000000000000000000008152600401612d14939291906142ca565b60405180910390fd5b50505050565b6001600081905550565b600073ffffffffffffffffffffffffffffffffffffffff168273ffffffffffffffffffffffffffffffffffffffff1603612d9f5760006040517f64a0ae92000000000000000000000000000000000000000000000000000000008152600401612d969190613b46565b60405180910390fd5b6000612dad8383600061281e565b9050600073ffffffffffffffffffffffffffffffffffffffff168173ffffffffffffffffffffffffffffffffffffffff1614612e215760006040517f73c6ac6e000000000000000000000000000000000000000000000000000000008152600401612e189190613b46565b60405180910390fd5b505050565b80600760008481526020019081526020016000209081612e469190614a3a565b507ff8e1a15aba9398e019f0b49df1a4fde98ee17ae345cb5f6b5e2c27f5033e8ce782604051612e769190613dfa565b60405180910390a15050565b600073ffffffffffffffffffffffffffffffffffffffff168273ffffffffffffffffffffffffffffffffffffffff1603612ef357816040517f5b08ba18000000000000000000000000000000000000000000000000000000008152600401612eea9190613b46565b60405180910390fd5b80600660008573ffffffffffffffffffffffffffffffffffffffff1673ffffffffffffffffffffffffffffffffffffffff16815260200190815260200160002060008473ffffffffffffffffffffffffffffffffffffffff1673ffffffffffffffffffffffffffffffffffffffff16815260200190815260200160002060006101000a81548160ff0219169083151502179055508173ffffffffffffffffffffffffffffffffffffffff168373ffffffffffffffffffffffffffffffffffffffff167f17307eab39ab6107e8899845ad3d59bd9653f200f220920489ca2b5937696c3183604051612fe491906139d5565b60405180910390a3505050565b60008373ffffffffffffffffffffffffffffffffffffffff163b11156131a2578273ffffffffffffffffffffffffffffffffffffffff1663150b7a02613035612804565b8685856040518563ffffffff1660e01b81526004016130579493929190614b61565b6020604051808303816000875af192505050801561309357506040513d601f19601f820116820180604052508101906130909190614bc2565b60015b613117573d80600081146130c3576040519150601f19603f3d011682016040523d82523d6000602084013e6130c8565b606091505b50600081510361310f57836040517f64a0ae920000000000000000000000000000000000000000000000000000000081526004016131069190613b46565b60405180910390fd5b805181602001fd5b63150b7a0260e01b7bffffffffffffffffffffffffffffffffffffffffffffffffffffffff1916817bffffffffffffffffffffffffffffffffffffffffffffffffffffffff1916146131a057836040517f64a0ae920000000000000000000000000000000000000000000000000000000081526004016131979190613b46565b60405180910390fd5b505b50505050565b80601060008473ffffffffffffffffffffffffffffffffffffffff1673ffffffffffffffffffffffffffffffffffffffff16815260200190815260200160002060008282546131f7919061421f565b925050819055505050565b606060405180602001604052806000815250905090565b60606132248261273f565b50600061322f613202565b9050600081511161324f576040518060200160405280600081525061327a565b80613259846135db565b60405160200161326a92919061483a565b6040516020818303038152906040525b915050919050565b60007f01ffc9a7000000000000000000000000000000000000000000000000000000007bffffffffffffffffffffffffffffffffffffffffffffffffffffffff1916827bffffffffffffffffffffffffffffffffffffffffffffffffffffffff1916149050919050565b60006003600083815260200190815260200160002060009054906101000a900473ffffffffffffffffffffffffffffffffffffffff169050919050565b80806133625750600073ffffffffffffffffffffffffffffffffffffffff168273ffffffffffffffffffffffffffffffffffffffff1614155b156134965760006133728461273f565b9050600073ffffffffffffffffffffffffffffffffffffffff168373ffffffffffffffffffffffffffffffffffffffff16141580156133dd57508273ffffffffffffffffffffffffffffffffffffffff168173ffffffffffffffffffffffffffffffffffffffff1614155b80156133f057506133ee81846122da565b155b1561343257826040517fa9fbf51f0000000000000000000000000000000000000000000000000000000081526004016134299190613b46565b60405180910390fd5b811561349457838573ffffffffffffffffffffffffffffffffffffffff168273ffffffffffffffffffffffffffffffffffffffff167f8c5be1e5ebec7d5bd14f71427d1e84f3dd0314c0f7b2291e5b200ac8c7c3b92560405160405180910390a45b505b836005600085815260200190815260200160002060006101000a81548173ffffffffffffffffffffffffffffffffffffffff021916908373ffffffffffffffffffffffffffffffffffffffff16021790555050505050565b6134f98383836136a9565b6135ad57600073ffffffffffffffffffffffffffffffffffffffff168373ffffffffffffffffffffffffffffffffffffffff160361356e57806040517f7e2732890000000000000000000000000000000000000000000000000000000081526004016135659190613dfa565b60405180910390fd5b81816040517f177e802f0000000000000000000000000000000000000000000000000000000081526004016135a4929190614bef565b60405180910390fd5b505050565b60008151905060006a636f6e736f6c652e6c6f679050602083016000808483855afa5050505050565b6060600060016135ea8461376a565b01905060008167ffffffffffffffff81111561360957613608613e1f565b5b6040519080825280601f01601f19166020018201604052801561363b5781602001600182028036833780820191505090505b509050600082602001820190505b60011561369e578080600190039150507f3031323334353637383961626364656600000000000000000000000000000000600a86061a8153600a85816136925761369161476a565b5b04945060008503613649575b819350505050919050565b60008073ffffffffffffffffffffffffffffffffffffffff168373ffffffffffffffffffffffffffffffffffffffff161415801561376157508273ffffffffffffffffffffffffffffffffffffffff168473ffffffffffffffffffffffffffffffffffffffff161480613722575061372184846122da565b5b8061376057508273ffffffffffffffffffffffffffffffffffffffff16613748836127c7565b73ffffffffffffffffffffffffffffffffffffffff16145b5b90509392505050565b600080600090507a184f03e93ff9f4daa797ed6e38ed64bf6a1f01000000000000000083106137c8577a184f03e93ff9f4daa797ed6e38ed64bf6a1f01000000000000000083816137be576137bd61476a565b5b0492506040810190505b6d04ee2d6d415b85acef81000000008310613805576d04ee2d6d415b85acef810000000083816137fb576137fa61476a565b5b0492506020810190505b662386f26fc10000831061383457662386f26fc10000838161382a5761382961476a565b5b0492506010810190505b6305f5e100831061385d576305f5e10083816138535761385261476a565b5b0492506008810190505b61271083106138825761271083816138785761387761476a565b5b0492506004810190505b606483106138a5576064838161389b5761389a61476a565b5b0492506002810190505b600a83106138b4576001810190505b80915050919050565b6040518060c001604052806000815260200160008152602001600073ffffffffffffffffffffffffffffffffffffffff168152602001600073ffffffffffffffffffffffffffffffffffffffff168152602001600081526020016000151581525090565b6000604051905090565b600080fd5b600080fd5b60007fffffffff0000000000000000000000000000000000000000000000000000000082169050919050565b61396a81613935565b811461397557600080fd5b50565b60008135905061398781613961565b92915050565b6000602082840312156139a3576139a261392b565b5b60006139b184828501613978565b91505092915050565b60008115159050919050565b6139cf816139ba565b82525050565b60006020820190506139ea60008301846139c6565b92915050565b600081519050919050565b600082825260208201905092915050565b60005b83811015613a2a578082015181840152602081019050613a0f565b60008484015250505050565b6000601f19601f8301169050919050565b6000613a52826139f0565b613a5c81856139fb565b9350613a6c818560208601613a0c565b613a7581613a36565b840191505092915050565b60006020820190508181036000830152613a9a8184613a47565b905092915050565b6000819050919050565b613ab581613aa2565b8114613ac057600080fd5b50565b600081359050613ad281613aac565b92915050565b600060208284031215613aee57613aed61392b565b5b6000613afc84828501613ac3565b91505092915050565b600073ffffffffffffffffffffffffffffffffffffffff82169050919050565b6000613b3082613b05565b9050919050565b613b4081613b25565b82525050565b6000602082019050613b5b6000830184613b37565b92915050565b613b6a81613b25565b8114613b7557600080fd5b50565b600081359050613b8781613b61565b92915050565b60008060408385031215613ba457613ba361392b565b5b6000613bb285828601613b78565b9250506020613bc385828601613ac3565b9150509250929050565b600081519050919050565b600082825260208201905092915050565b6000819050602082019050919050565b613c0281613aa2565b82525050565b6000613c1382613b05565b9050919050565b613c2381613c08565b82525050565b613c32816139ba565b82525050565b60c082016000820151613c4e6000850182613bf9565b506020820151613c616020850182613bf9565b506040820151613c746040850182613c1a565b506060820151613c876060850182613c1a565b506080820151613c9a6080850182613bf9565b5060a0820151613cad60a0850182613c29565b50505050565b6000613cbf8383613c38565b60c08301905092915050565b6000602082019050919050565b6000613ce382613bcd565b613ced8185613bd8565b9350613cf883613be9565b8060005b83811015613d29578151613d108882613cb3565b9750613d1b83613ccb565b925050600181019050613cfc565b5085935050505092915050565b60006020820190508181036000830152613d508184613cd8565b905092915050565b600080600060608486031215613d7157613d7061392b565b5b6000613d7f86828701613b78565b9350506020613d9086828701613b78565b9250506040613da186828701613ac3565b9150509250925092565b60008060408385031215613dc257613dc161392b565b5b6000613dd085828601613ac3565b9250506020613de185828601613ac3565b9150509250929050565b613df481613aa2565b82525050565b6000602082019050613e0f6000830184613deb565b92915050565b600080fd5b600080fd5b7f4e487b7100000000000000000000000000000000000000000000000000000000600052604160045260246000fd5b613e5782613a36565b810181811067ffffffffffffffff82111715613e7657613e75613e1f565b5b80604052505050565b6000613e89613921565b9050613e958282613e4e565b919050565b600067ffffffffffffffff821115613eb557613eb4613e1f565b5b613ebe82613a36565b9050602081019050919050565b82818337600083830152505050565b6000613eed613ee884613e9a565b613e7f565b905082815260208101848484011115613f0957613f08613e1a565b5b613f14848285613ecb565b509392505050565b600082601f830112613f3157613f30613e15565b5b8135613f41848260208601613eda565b91505092915050565b600060208284031215613f6057613f5f61392b565b5b600082013567ffffffffffffffff811115613f7e57613f7d613930565b5b613f8a84828501613f1c565b91505092915050565b600060208284031215613fa957613fa861392b565b5b6000613fb784828501613b78565b91505092915050565b613fc9816139ba565b8114613fd457600080fd5b50565b600081359050613fe681613fc0565b92915050565b600080604083850312156140035761400261392b565b5b600061401185828601613b78565b925050602061402285828601613fd7565b9150509250929050565b600067ffffffffffffffff82111561404757614046613e1f565b5b61405082613a36565b9050602081019050919050565b600061407061406b8461402c565b613e7f565b90508281526020810184848401111561408c5761408b613e1a565b5b614097848285613ecb565b509392505050565b600082601f8301126140b4576140b3613e15565b5b81356140c484826020860161405d565b91505092915050565b600080600080608085870312156140e7576140e661392b565b5b60006140f587828801613b78565b945050602061410687828801613b78565b935050604061411787828801613ac3565b925050606085013567ffffffffffffffff81111561413857614137613930565b5b6141448782880161409f565b91505092959194509250565b600080604083850312156141675761416661392b565b5b600061417585828601613b78565b925050602061418685828601613b78565b9150509250929050565b7f4e487b7100000000000000000000000000000000000000000000000000000000600052602260045260246000fd5b600060028204905060018216806141d757607f821691505b6020821081036141ea576141e9614190565b5b50919050565b7f4e487b7100000000000000000000000000000000000000000000000000000000600052601160045260246000fd5b600061422a82613aa2565b915061423583613aa2565b925082820190508082111561424d5761424c6141f0565b5b92915050565b7f4e487b7100000000000000000000000000000000000000000000000000000000600052603260045260246000fd5b600061428d82613aa2565b91507fffffffffffffffffffffffffffffffffffffffffffffffffffffffffffffffff82036142bf576142be6141f0565b5b600182019050919050565b60006060820190506142df6000830186613b37565b6142ec6020830185613deb565b6142f96040830184613b37565b949350505050565b7f5072696365206d757374206265206174206c6561737420312077656900000000600082015250565b6000614337601c836139fb565b915061434282614301565b602082019050919050565b600060208201905081810360008301526143668161432a565b9050919050565b60006080820190506143826000830187613b37565b61438f6020830186613b37565b61439c6040830185613deb565b6143a960608301846139c6565b95945050505050565b600060408201905081810360008301526143cc8185613a47565b90506143db6020830184613b37565b9392505050565b7f4f6e6c792063726561746f72206d617920756e6c69737420616e206974656d00600082015250565b6000614418601f836139fb565b9150614423826143e2565b602082019050919050565b600060208201905081810360008301526144478161440b565b9050919050565b7f546865726520617265206e6f206372656469747320696e20746869732072656360008201527f697069656e742061646472657373000000000000000000000000000000000000602082015250565b60006144aa602e836139fb565b91506144b58261444e565b604082019050919050565b600060208201905081810360008301526144d98161449d565b9050919050565b7f546865726520617265206e6f206372656469747320696e207468697320636f6e60008201527f7472616374206164647265737300000000000000000000000000000000000000602082015250565b600061453c602d836139fb565b9150614547826144e0565b604082019050919050565b6000602082019050818103600083015261456b8161452f565b9050919050565b7f4f6e6c79206d61726b6574706c616365206f776e65722063616e20757064617460008201527f65207265776172642070657263656e746167652e000000000000000000000000602082015250565b60006145ce6034836139fb565b91506145d982614572565b604082019050919050565b600060208201905081810360008301526145fd816145c1565b9050919050565b7f54686973206974656d206973206e6f7420617661696c61626c6520666f72207360008201527f616c650000000000000000000000000000000000000000000000000000000000602082015250565b60006146606023836139fb565b915061466b82614604565b604082019050919050565b6000602082019050818103600083015261468f81614653565b9050919050565b7f506c65617365207375626d6974207468652061736b696e67207072696365206960008201527f6e206f7264657220746f20636f6d706c65746520746865207075726368617365602082015250565b60006146f26040836139fb565b91506146fd82614696565b604082019050919050565b60006020820190508181036000830152614721816146e5565b9050919050565b600061473382613aa2565b915061473e83613aa2565b925082820261474c81613aa2565b91508282048414831517614763576147626141f0565b5b5092915050565b7f4e487b7100000000000000000000000000000000000000000000000000000000600052601260045260246000fd5b60006147a482613aa2565b91506147af83613aa2565b9250826147bf576147be61476a565b5b828204905092915050565b60006147d582613aa2565b91506147e083613aa2565b92508282039050818111156147f8576147f76141f0565b5b92915050565b600081905092915050565b6000614814826139f0565b61481e81856147fe565b935061482e818560208601613a0c565b80840191505092915050565b60006148468285614809565b91506148528284614809565b91508190509392505050565b600060408201905081810360008301526148788185613a47565b90506148876020830184613deb565b9392505050565b60008190508160005260206000209050919050565b60006020601f8301049050919050565b600082821b905092915050565b6000600883026148f07fffffffffffffffffffffffffffffffffffffffffffffffffffffffffffffffff826148b3565b6148fa86836148b3565b95508019841693508086168417925050509392505050565b6000819050919050565b600061493761493261492d84613aa2565b614912565b613aa2565b9050919050565b6000819050919050565b6149518361491c565b61496561495d8261493e565b8484546148c0565b825550505050565b600090565b61497a61496d565b614985818484614948565b505050565b5b818110156149a95761499e600082614972565b60018101905061498b565b5050565b601f8211156149ee576149bf8161488e565b6149c8846148a3565b810160208510156149d7578190505b6149eb6149e3856148a3565b83018261498a565b50505b505050565b600082821c905092915050565b6000614a11600019846008026149f3565b1980831691505092915050565b6000614a2a8383614a00565b9150826002028217905092915050565b614a43826139f0565b67ffffffffffffffff811115614a5c57614a5b613e1f565b5b614a6682546141bf565b614a718282856149ad565b600060209050601f831160018114614aa45760008415614a92578287015190505b614a9c8582614a1e565b865550614b04565b601f198416614ab28661488e565b60005b82811015614ada57848901518255600182019150602085019450602081019050614ab5565b86831015614af75784890151614af3601f891682614a00565b8355505b6001600288020188555050505b505050505050565b600081519050919050565b600082825260208201905092915050565b6000614b3382614b0c565b614b3d8185614b17565b9350614b4d818560208601613a0c565b614b5681613a36565b840191505092915050565b6000608082019050614b766000830187613b37565b614b836020830186613b37565b614b906040830185613deb565b8181036060830152614ba28184614b28565b905095945050505050565b600081519050614bbc81613961565b92915050565b600060208284031215614bd857614bd761392b565b5b6000614be684828501614bad565b91505092915050565b6000604082019050614c046000830185613b37565b614c116020830184613deb565b939250505056fea2646970667358221220019f81de8b8246cffeb1058f182e808005379284f46711a2981a6bcc6e27c4d364736f6c63430008140033",
  "linkReferences": {},
  "deployedLinkReferences": {}
}