{
  "_format": "hh-sol-artifact-1",
  "contractName": "FRDNFTMarketPlace",
  "sourceName": "contracts/FRDNFTMarketPlace.sol",
  "abi": [
    {
      "inputs": [],
      "stateMutability": "nonpayable",
      "type": "constructor"
    },
    {
      "inputs": [
        {
          "internalType": "address",
          "name": "sender",
          "type": "address"
        },
        {
          "internalType": "uint256",
          "name": "tokenId",
          "type": "uint256"
        },
        {
          "internalType": "address",
          "name": "owner",
          "type": "address"
        }
      ],
      "name": "ERC721IncorrectOwner",
      "type": "error"
    },
    {
      "inputs": [
        {
          "internalType": "address",
          "name": "operator",
          "type": "address"
        },
        {
          "internalType": "uint256",
          "name": "tokenId",
          "type": "uint256"
        }
      ],
      "name": "ERC721InsufficientApproval",
      "type": "error"
    },
    {
      "inputs": [
        {
          "internalType": "address",
          "name": "approver",
          "type": "address"
        }
      ],
      "name": "ERC721InvalidApprover",
      "type": "error"
    },
    {
      "inputs": [
        {
          "internalType": "address",
          "name": "operator",
          "type": "address"
        }
      ],
      "name": "ERC721InvalidOperator",
      "type": "error"
    },
    {
      "inputs": [
        {
          "internalType": "address",
          "name": "owner",
          "type": "address"
        }
      ],
      "name": "ERC721InvalidOwner",
      "type": "error"
    },
    {
      "inputs": [
        {
          "internalType": "address",
          "name": "receiver",
          "type": "address"
        }
      ],
      "name": "ERC721InvalidReceiver",
      "type": "error"
    },
    {
      "inputs": [
        {
          "internalType": "address",
          "name": "sender",
          "type": "address"
        }
      ],
      "name": "ERC721InvalidSender",
      "type": "error"
    },
    {
      "inputs": [
        {
          "internalType": "uint256",
          "name": "tokenId",
          "type": "uint256"
        }
      ],
      "name": "ERC721NonexistentToken",
      "type": "error"
    },
    {
      "inputs": [],
      "name": "ReentrancyGuardReentrantCall",
      "type": "error"
    },
    {
      "inputs": [],
      "name": "createTokenFirst",
      "type": "error"
    },
    {
      "anonymous": false,
      "inputs": [
        {
          "indexed": true,
          "internalType": "address",
          "name": "owner",
          "type": "address"
        },
        {
          "indexed": true,
          "internalType": "address",
          "name": "approved",
          "type": "address"
        },
        {
          "indexed": true,
          "internalType": "uint256",
          "name": "tokenId",
          "type": "uint256"
        }
      ],
      "name": "Approval",
      "type": "event"
    },
    {
      "anonymous": false,
      "inputs": [
        {
          "indexed": true,
          "internalType": "address",
          "name": "owner",
          "type": "address"
        },
        {
          "indexed": true,
          "internalType": "address",
          "name": "operator",
          "type": "address"
        },
        {
          "indexed": false,
          "internalType": "bool",
          "name": "approved",
          "type": "bool"
        }
      ],
      "name": "ApprovalForAll",
      "type": "event"
    },
    {
      "anonymous": false,
      "inputs": [
        {
          "indexed": false,
          "internalType": "uint256",
          "name": "_fromTokenId",
          "type": "uint256"
        },
        {
          "indexed": false,
          "internalType": "uint256",
          "name": "_toTokenId",
          "type": "uint256"
        }
      ],
      "name": "BatchMetadataUpdate",
      "type": "event"
    },
    {
      "anonymous": false,
      "inputs": [
        {
          "indexed": true,
          "internalType": "uint256",
          "name": "tokenId",
          "type": "uint256"
        },
        {
          "indexed": true,
          "internalType": "uint256",
          "name": "itemId",
          "type": "uint256"
        },
        {
          "indexed": false,
          "internalType": "address",
          "name": "creator",
          "type": "address"
        },
        {
          "indexed": false,
          "internalType": "address",
          "name": "owner",
          "type": "address"
        },
        {
          "indexed": false,
          "internalType": "uint256",
          "name": "price",
          "type": "uint256"
        },
        {
          "indexed": false,
          "internalType": "bool",
          "name": "sold",
          "type": "bool"
        }
      ],
      "name": "MarketItemCreated",
      "type": "event"
    },
    {
      "anonymous": false,
      "inputs": [
        {
          "indexed": false,
          "internalType": "uint256",
          "name": "_tokenId",
          "type": "uint256"
        }
      ],
      "name": "MetadataUpdate",
      "type": "event"
    },
    {
      "anonymous": false,
      "inputs": [
        {
          "indexed": false,
          "internalType": "string",
          "name": "tokenURI",
          "type": "string"
        },
        {
          "indexed": true,
          "internalType": "uint256",
          "name": "tokenId",
          "type": "uint256"
        },
        {
          "indexed": false,
          "internalType": "address",
          "name": "creator",
          "type": "address"
        }
      ],
      "name": "NFTMinted",
      "type": "event"
    },
    {
      "anonymous": false,
      "inputs": [
        {
          "indexed": true,
          "internalType": "address",
          "name": "from",
          "type": "address"
        },
        {
          "indexed": true,
          "internalType": "address",
          "name": "to",
          "type": "address"
        },
        {
          "indexed": true,
          "internalType": "uint256",
          "name": "tokenId",
          "type": "uint256"
        }
      ],
      "name": "Transfer",
      "type": "event"
    },
    {
      "inputs": [
        {
          "internalType": "uint256",
          "name": "itemId",
          "type": "uint256"
        }
      ],
      "name": "ListBackMarketItem",
      "outputs": [],
      "stateMutability": "payable",
      "type": "function"
    },
    {
      "inputs": [
        {
          "internalType": "address",
          "name": "to",
          "type": "address"
        },
        {
          "internalType": "uint256",
          "name": "tokenId",
          "type": "uint256"
        }
      ],
      "name": "approve",
      "outputs": [],
      "stateMutability": "nonpayable",
      "type": "function"
    },
    {
      "inputs": [
        {
          "internalType": "address",
          "name": "owner",
          "type": "address"
        }
      ],
      "name": "balanceOf",
      "outputs": [
        {
          "internalType": "uint256",
          "name": "",
          "type": "uint256"
        }
      ],
      "stateMutability": "view",
      "type": "function"
    },
    {
      "inputs": [],
      "name": "checkTokenCreation",
      "outputs": [
        {
          "internalType": "bool",
          "name": "",
          "type": "bool"
        }
      ],
      "stateMutability": "view",
      "type": "function"
    },
    {
      "inputs": [
        {
          "internalType": "uint256",
          "name": "tokenId_",
          "type": "uint256"
        },
        {
          "internalType": "uint256",
          "name": "price",
          "type": "uint256"
        }
      ],
      "name": "createMarketItem",
      "outputs": [
        {
          "internalType": "uint256",
          "name": "",
          "type": "uint256"
        }
      ],
      "stateMutability": "payable",
      "type": "function"
    },
    {
      "inputs": [
        {
          "internalType": "uint256",
          "name": "itemId",
          "type": "uint256"
        }
      ],
      "name": "createMarketSale",
      "outputs": [],
      "stateMutability": "payable",
      "type": "function"
    },
    {
      "inputs": [
        {
          "internalType": "string",
          "name": "tokenURI",
          "type": "string"
        }
      ],
      "name": "createToken",
      "outputs": [
        {
          "internalType": "uint256",
          "name": "",
          "type": "uint256"
        }
      ],
      "stateMutability": "payable",
      "type": "function"
    },
    {
      "inputs": [],
      "name": "fetchItemsCreated",
      "outputs": [
        {
          "components": [
            {
              "internalType": "uint256",
              "name": "itemId",
              "type": "uint256"
            },
            {
              "internalType": "uint256",
              "name": "tokenId",
              "type": "uint256"
            },
            {
              "internalType": "address payable",
              "name": "creator",
              "type": "address"
            },
            {
              "internalType": "address payable",
              "name": "owner",
              "type": "address"
            },
            {
              "internalType": "uint256",
              "name": "price",
              "type": "uint256"
            },
            {
              "internalType": "bool",
              "name": "sold",
              "type": "bool"
            }
          ],
          "internalType": "struct FRDNFTMarketPlace.MarketItem[]",
          "name": "",
          "type": "tuple[]"
        }
      ],
      "stateMutability": "view",
      "type": "function"
    },
    {
      "inputs": [],
      "name": "fetchMarketItems",
      "outputs": [
        {
          "components": [
            {
              "internalType": "uint256",
              "name": "itemId",
              "type": "uint256"
            },
            {
              "internalType": "uint256",
              "name": "tokenId",
              "type": "uint256"
            },
            {
              "internalType": "address payable",
              "name": "creator",
              "type": "address"
            },
            {
              "internalType": "address payable",
              "name": "owner",
              "type": "address"
            },
            {
              "internalType": "uint256",
              "name": "price",
              "type": "uint256"
            },
            {
              "internalType": "bool",
              "name": "sold",
              "type": "bool"
            }
          ],
          "internalType": "struct FRDNFTMarketPlace.MarketItem[]",
          "name": "",
          "type": "tuple[]"
        }
      ],
      "stateMutability": "view",
      "type": "function"
    },
    {
      "inputs": [],
      "name": "fetchUnSoldMarketItems",
      "outputs": [
        {
          "components": [
            {
              "internalType": "uint256",
              "name": "itemId",
              "type": "uint256"
            },
            {
              "internalType": "uint256",
              "name": "tokenId",
              "type": "uint256"
            },
            {
              "internalType": "address payable",
              "name": "creator",
              "type": "address"
            },
            {
              "internalType": "address payable",
              "name": "owner",
              "type": "address"
            },
            {
              "internalType": "uint256",
              "name": "price",
              "type": "uint256"
            },
            {
              "internalType": "bool",
              "name": "sold",
              "type": "bool"
            }
          ],
          "internalType": "struct FRDNFTMarketPlace.MarketItem[]",
          "name": "",
          "type": "tuple[]"
        }
      ],
      "stateMutability": "view",
      "type": "function"
    },
    {
      "inputs": [],
      "name": "fetchUserPurchasedNFTs",
      "outputs": [
        {
          "components": [
            {
              "internalType": "uint256",
              "name": "itemId",
              "type": "uint256"
            },
            {
              "internalType": "uint256",
              "name": "tokenId",
              "type": "uint256"
            },
            {
              "internalType": "address payable",
              "name": "creator",
              "type": "address"
            },
            {
              "internalType": "address payable",
              "name": "owner",
              "type": "address"
            },
            {
              "internalType": "uint256",
              "name": "price",
              "type": "uint256"
            },
            {
              "internalType": "bool",
              "name": "sold",
              "type": "bool"
            }
          ],
          "internalType": "struct FRDNFTMarketPlace.MarketItem[]",
          "name": "",
          "type": "tuple[]"
        }
      ],
      "stateMutability": "view",
      "type": "function"
    },
    {
      "inputs": [
        {
          "internalType": "address",
          "name": "receiver",
          "type": "address"
        }
      ],
      "name": "getAddressCredits",
      "outputs": [
        {
          "internalType": "uint256",
          "name": "",
          "type": "uint256"
        }
      ],
      "stateMutability": "view",
      "type": "function"
    },
    {
      "inputs": [
        {
          "internalType": "uint256",
          "name": "tokenId",
          "type": "uint256"
        }
      ],
      "name": "getApproved",
      "outputs": [
        {
          "internalType": "address",
          "name": "",
          "type": "address"
        }
      ],
      "stateMutability": "view",
      "type": "function"
    },
    {
      "inputs": [],
      "name": "getMintedNfts",
      "outputs": [
        {
          "components": [
            {
              "internalType": "uint256",
              "name": "tokenId",
              "type": "uint256"
            },
            {
              "internalType": "string",
              "name": "tokenURI",
              "type": "string"
            },
            {
              "internalType": "address",
              "name": "creator",
              "type": "address"
            },
            {
              "internalType": "bool",
              "name": "hascreatedToken",
              "type": "bool"
            }
          ],
          "internalType": "struct FRDNFTMarketPlace.NFTMints[]",
          "name": "",
          "type": "tuple[]"
        }
      ],
      "stateMutability": "view",
      "type": "function"
    },
    {
      "inputs": [
        {
          "internalType": "uint256",
          "name": "itemId",
          "type": "uint256"
        }
      ],
      "name": "getOwnerOfItem",
      "outputs": [
        {
          "internalType": "address",
          "name": "",
          "type": "address"
        }
      ],
      "stateMutability": "view",
      "type": "function"
    },
    {
      "inputs": [],
      "name": "getSalesFeeBasisPoints",
      "outputs": [
        {
          "internalType": "uint256",
          "name": "",
          "type": "uint256"
        }
      ],
      "stateMutability": "view",
      "type": "function"
    },
    {
      "inputs": [],
      "name": "getUserNFTMintedCount",
      "outputs": [
        {
          "internalType": "uint256",
          "name": "",
          "type": "uint256"
        }
      ],
      "stateMutability": "view",
      "type": "function"
    },
    {
      "inputs": [
        {
          "internalType": "address",
          "name": "owner",
          "type": "address"
        },
        {
          "internalType": "address",
          "name": "operator",
          "type": "address"
        }
      ],
      "name": "isApprovedForAll",
      "outputs": [
        {
          "internalType": "bool",
          "name": "",
          "type": "bool"
        }
      ],
      "stateMutability": "view",
      "type": "function"
    },
    {
      "inputs": [],
      "name": "name",
      "outputs": [
        {
          "internalType": "string",
          "name": "",
          "type": "string"
        }
      ],
      "stateMutability": "view",
      "type": "function"
    },
    {
      "inputs": [
        {
          "internalType": "uint256",
          "name": "tokenId",
          "type": "uint256"
        }
      ],
      "name": "ownerOf",
      "outputs": [
        {
          "internalType": "address",
          "name": "",
          "type": "address"
        }
      ],
      "stateMutability": "view",
      "type": "function"
    },
    {
      "inputs": [
        {
          "internalType": "address",
          "name": "from",
          "type": "address"
        },
        {
          "internalType": "address",
          "name": "to",
          "type": "address"
        },
        {
          "internalType": "uint256",
          "name": "tokenId",
          "type": "uint256"
        }
      ],
      "name": "safeTransferFrom",
      "outputs": [],
      "stateMutability": "nonpayable",
      "type": "function"
    },
    {
      "inputs": [
        {
          "internalType": "address",
          "name": "from",
          "type": "address"
        },
        {
          "internalType": "address",
          "name": "to",
          "type": "address"
        },
        {
          "internalType": "uint256",
          "name": "tokenId",
          "type": "uint256"
        },
        {
          "internalType": "bytes",
          "name": "data",
          "type": "bytes"
        }
      ],
      "name": "safeTransferFrom",
      "outputs": [],
      "stateMutability": "nonpayable",
      "type": "function"
    },
    {
      "inputs": [
        {
          "internalType": "address",
          "name": "operator",
          "type": "address"
        },
        {
          "internalType": "bool",
          "name": "approved",
          "type": "bool"
        }
      ],
      "name": "setApprovalForAll",
      "outputs": [],
      "stateMutability": "nonpayable",
      "type": "function"
    },
    {
      "inputs": [
        {
          "internalType": "bytes4",
          "name": "interfaceId",
          "type": "bytes4"
        }
      ],
      "name": "supportsInterface",
      "outputs": [
        {
          "internalType": "bool",
          "name": "",
          "type": "bool"
        }
      ],
      "stateMutability": "view",
      "type": "function"
    },
    {
      "inputs": [],
      "name": "symbol",
      "outputs": [
        {
          "internalType": "string",
          "name": "",
          "type": "string"
        }
      ],
      "stateMutability": "view",
      "type": "function"
    },
    {
      "inputs": [
        {
          "internalType": "uint256",
          "name": "tokenId",
          "type": "uint256"
        }
      ],
      "name": "tokenURI",
      "outputs": [
        {
          "internalType": "string",
          "name": "",
          "type": "string"
        }
      ],
      "stateMutability": "view",
      "type": "function"
    },
    {
      "inputs": [
        {
          "internalType": "address",
          "name": "from",
          "type": "address"
        },
        {
          "internalType": "address",
          "name": "to",
          "type": "address"
        },
        {
          "internalType": "uint256",
          "name": "tokenId",
          "type": "uint256"
        }
      ],
      "name": "transferFrom",
      "outputs": [],
      "stateMutability": "nonpayable",
      "type": "function"
    },
    {
      "inputs": [
        {
          "internalType": "uint256",
          "name": "itemId",
          "type": "uint256"
        }
      ],
      "name": "unListMarketItem",
      "outputs": [],
      "stateMutability": "payable",
      "type": "function"
    },
    {
      "inputs": [
        {
          "internalType": "uint256",
          "name": "rewardPercentage",
          "type": "uint256"
        }
      ],
      "name": "updateRewarsPercentage",
      "outputs": [],
      "stateMutability": "nonpayable",
      "type": "function"
    },
    {
      "inputs": [],
      "name": "withdrawCredits",
      "outputs": [],
      "stateMutability": "nonpayable",
      "type": "function"
    }
  ],
  "bytecode": "0x608060405260fa600c55612710600d553480156200001c57600080fd5b506040518060400160405280600a81526020017f46494641526577617264000000000000000000000000000000000000000000008152506040518060400160405280600381526020017f465244000000000000000000000000000000000000000000000000000000000081525060016000819055508160019081620000a2919062000378565b508060029081620000b4919062000378565b50505033600b60006101000a81548173ffffffffffffffffffffffffffffffffffffffff021916908373ffffffffffffffffffffffffffffffffffffffff1602179055506200045f565b600081519050919050565b7f4e487b7100000000000000000000000000000000000000000000000000000000600052604160045260246000fd5b7f4e487b7100000000000000000000000000000000000000000000000000000000600052602260045260246000fd5b600060028204905060018216806200018057607f821691505b60208210810362000196576200019562000138565b5b50919050565b60008190508160005260206000209050919050565b60006020601f8301049050919050565b600082821b905092915050565b600060088302620002007fffffffffffffffffffffffffffffffffffffffffffffffffffffffffffffffff82620001c1565b6200020c8683620001c1565b95508019841693508086168417925050509392505050565b6000819050919050565b6000819050919050565b600062000259620002536200024d8462000224565b6200022e565b62000224565b9050919050565b6000819050919050565b620002758362000238565b6200028d620002848262000260565b848454620001ce565b825550505050565b600090565b620002a462000295565b620002b18184846200026a565b505050565b5b81811015620002d957620002cd6000826200029a565b600181019050620002b7565b5050565b601f8211156200032857620002f2816200019c565b620002fd84620001b1565b810160208510156200030d578190505b620003256200031c85620001b1565b830182620002b6565b50505b505050565b600082821c905092915050565b60006200034d600019846008026200032d565b1980831691505092915050565b60006200036883836200033a565b9150826002028217905092915050565b6200038382620000fe565b67ffffffffffffffff8111156200039f576200039e62000109565b5b620003ab825462000167565b620003b8828285620002dd565b600060209050601f831160018114620003f05760008415620003db578287015190505b620003e785826200035a565b86555062000457565b601f19841662000400866200019c565b60005b828110156200042a5784890151825560018201915060208501945060208101905062000403565b868310156200044a578489015162000446601f8916826200033a565b8355505b6001600288020188555050505b505050505050565b6154d8806200046f6000396000f3fe6080604052600436106101cd5760003560e01c806370a08231116100f7578063b88d4fde11610095578063e4e6d51811610064578063e4e6d5181461066b578063e985e9c514610696578063f064c32e146106d3578063fc8a16a0146106fe576101cd565b8063b88d4fde146105c0578063ba12a9c3146105e9578063be9af53614610612578063c87b56dd1461062e576101cd565b806395d89b41116100d157806395d89b41146105135780639cc180971461053e578063a22cb4651461057b578063b69868af146105a4576101cd565b806370a0823114610494578063717f6dfb146104d15780638987ce01146104e8576101cd565b8063361c19951161016f57806345576f941161013e57806345576f94146103e057806354ef82f0146104105780636352211e1461042c5780636afc331614610469576101cd565b8063361c19951461031f5780633623ea091461034f578063382edbcf1461038c57806342842e0e146103b7576101cd565b8063095ea7b3116101ab578063095ea7b3146102775780630c4a0934146102a05780630f08efe0146102cb57806323b872dd146102f6576101cd565b806301ffc9a7146101d257806306fdde031461020f578063081812fc1461023a575b600080fd5b3480156101de57600080fd5b506101f960048036038101906101f49190614077565b610729565b60405161020691906140bf565b60405180910390f35b34801561021b57600080fd5b5061022461078a565b604051610231919061416a565b60405180910390f35b34801561024657600080fd5b50610261600480360381019061025c91906141c2565b61081c565b60405161026e9190614230565b60405180910390f35b34801561028357600080fd5b5061029e60048036038101906102999190614277565b610838565b005b3480156102ac57600080fd5b506102b561084e565b6040516102c291906142c6565b60405180910390f35b3480156102d757600080fd5b506102e0610903565b6040516102ed919061444a565b60405180910390f35b34801561030257600080fd5b5061031d6004803603810190610318919061446c565b610ad5565b005b610339600480360381019061033491906144bf565b610bd7565b60405161034691906142c6565b60405180910390f35b34801561035b57600080fd5b50610376600480360381019061037191906141c2565b610e6d565b6040516103839190614230565b60405180910390f35b34801561039857600080fd5b506103a1610ead565b6040516103ae919061444a565b60405180910390f35b3480156103c357600080fd5b506103de60048036038101906103d9919061446c565b611200565b005b6103fa60048036038101906103f59190614634565b611220565b60405161040791906142c6565b60405180910390f35b61042a600480360381019061042591906141c2565b611567565b005b34801561043857600080fd5b50610453600480360381019061044e91906141c2565b611802565b6040516104609190614230565b60405180910390f35b34801561047557600080fd5b5061047e611814565b60405161048b919061444a565b60405180910390f35b3480156104a057600080fd5b506104bb60048036038101906104b6919061467d565b611b03565b6040516104c891906142c6565b60405180910390f35b3480156104dd57600080fd5b506104e6611bbd565b005b3480156104f457600080fd5b506104fd611d16565b60405161050a91906140bf565b60405180910390f35b34801561051f57600080fd5b50610528611d6d565b604051610535919061416a565b60405180910390f35b34801561054a57600080fd5b506105656004803603810190610560919061467d565b611dff565b60405161057291906142c6565b60405180910390f35b34801561058757600080fd5b506105a2600480360381019061059d91906146d6565b611e48565b005b6105be60048036038101906105b991906141c2565b611e5e565b005b3480156105cc57600080fd5b506105e760048036038101906105e291906147b7565b6120f9565b005b3480156105f557600080fd5b50610610600480360381019061060b91906141c2565b612116565b005b61062c600480360381019061062791906141c2565b6121b0565b005b34801561063a57600080fd5b50610655600480360381019061065091906141c2565b6124a2565b604051610662919061416a565b60405180910390f35b34801561067757600080fd5b506106806125b5565b60405161068d91906142c6565b60405180910390f35b3480156106a257600080fd5b506106bd60048036038101906106b8919061483a565b6125bf565b6040516106ca91906140bf565b60405180910390f35b3480156106df57600080fd5b506106e8612653565b6040516106f5919061444a565b60405180910390f35b34801561070a57600080fd5b50610713612942565b60405161072091906149f8565b60405180910390f35b6000634906490660e01b7bffffffffffffffffffffffffffffffffffffffffffffffffffffffff1916827bffffffffffffffffffffffffffffffffffffffffffffffffffffffff19161480610783575061078282612d07565b5b9050919050565b60606001805461079990614a49565b80601f01602080910402602001604051908101604052809291908181526020018280546107c590614a49565b80156108125780601f106107e757610100808354040283529160200191610812565b820191906000526020600020905b8154815290600101906020018083116107f557829003601f168201915b5050505050905090565b600061082782612de9565b5061083182612e71565b9050919050565b61084a8282610845612eae565b612eb6565b5050565b60008060085490506000805b828110156108fa573373ffffffffffffffffffffffffffffffffffffffff166010600060018461088a9190614aa9565b815260200190815260200160002060020160009054906101000a900473ffffffffffffffffffffffffffffffffffffffff1673ffffffffffffffffffffffffffffffffffffffff16036108e7576001826108e49190614aa9565b91505b80806108f290614add565b91505061085a565b50809250505090565b6060600060085490506000808267ffffffffffffffff81111561092957610928614509565b5b60405190808252806020026020018201604052801561096257816020015b61094f613f67565b8152602001906001900390816109475790505b50905060005b83811015610acb57600060018261097f9190614aa9565b90506000600e60008381526020019081526020016000209050806040518060c001604052908160008201548152602001600182015481526020016002820160009054906101000a900473ffffffffffffffffffffffffffffffffffffffff1673ffffffffffffffffffffffffffffffffffffffff1673ffffffffffffffffffffffffffffffffffffffff1681526020016003820160009054906101000a900473ffffffffffffffffffffffffffffffffffffffff1673ffffffffffffffffffffffffffffffffffffffff1673ffffffffffffffffffffffffffffffffffffffff168152602001600482015481526020016005820160009054906101000a900460ff161515151581525050848681518110610a9c57610a9b614b25565b5b6020026020010181905250600185610ab49190614aa9565b945050508080610ac390614add565b915050610968565b5080935050505090565b600073ffffffffffffffffffffffffffffffffffffffff168273ffffffffffffffffffffffffffffffffffffffff1603610b475760006040517f64a0ae92000000000000000000000000000000000000000000000000000000008152600401610b3e9190614230565b60405180910390fd5b6000610b5b8383610b56612eae565b612ec8565b90508373ffffffffffffffffffffffffffffffffffffffff168173ffffffffffffffffffffffffffffffffffffffff1614610bd1578382826040517f64283d7b000000000000000000000000000000000000000000000000000000008152600401610bc893929190614b54565b60405180910390fd5b50505050565b6000610be16130e2565b60001515600f60003373ffffffffffffffffffffffffffffffffffffffff1673ffffffffffffffffffffffffffffffffffffffff16815260200190815260200160002060020160149054906101000a900460ff16151503610c6e576040517fd9f7315c00000000000000000000000000000000000000000000000000000000815260040160405180910390fd5b60008211610cb1576040517f08c379a0000000000000000000000000000000000000000000000000000000008152600401610ca890614bd7565b60405180910390fd5b600160096000828254610cc49190614aa9565b92505081905550600060095490506040518060c001604052808281526020018581526020013373ffffffffffffffffffffffffffffffffffffffff1681526020013073ffffffffffffffffffffffffffffffffffffffff16815260200184815260200160001515815250600e6000838152602001908152602001600020600082015181600001556020820151816001015560408201518160020160006101000a81548173ffffffffffffffffffffffffffffffffffffffff021916908373ffffffffffffffffffffffffffffffffffffffff16021790555060608201518160030160006101000a81548173ffffffffffffffffffffffffffffffffffffffff021916908373ffffffffffffffffffffffffffffffffffffffff1602179055506080820151816004015560a08201518160050160006101000a81548160ff02191690831515021790555090505080847f4a29ff6f650682addfdf8030b3eeb4610ec651b42d8603f2527633347f9489c93330876000604051610e489493929190614bf7565b60405180910390a3610e5b333086613128565b80915050610e67613295565b92915050565b6000600e600083815260200190815260200160002060030160009054906101000a900473ffffffffffffffffffffffffffffffffffffffff169050919050565b60606000600854905060008060005b83811015610f9c5760001515600e6000600184610ed99190614aa9565b815260200190815260200160002060050160009054906101000a900460ff161515148015610f7457503073ffffffffffffffffffffffffffffffffffffffff16600e6000600184610f2a9190614aa9565b815260200190815260200160002060030160009054906101000a900473ffffffffffffffffffffffffffffffffffffffff1673ffffffffffffffffffffffffffffffffffffffff16145b15610f8957600183610f869190614aa9565b92505b8080610f9490614add565b915050610ebc565b50610fdc6040518060400160405280601181526020017f756e736f6c64206974656d20636f756e740000000000000000000000000000008152508361329f565b60008267ffffffffffffffff811115610ff857610ff7614509565b5b60405190808252806020026020018201604052801561103157816020015b61101e613f67565b8152602001906001900390816110165790505b50905060005b838110156111f557600060018261104e9190614aa9565b90503073ffffffffffffffffffffffffffffffffffffffff16600e600083815260200190815260200160002060030160009054906101000a900473ffffffffffffffffffffffffffffffffffffffff1673ffffffffffffffffffffffffffffffffffffffff16036111e1576000600e60008381526020019081526020016000209050806040518060c001604052908160008201548152602001600182015481526020016002820160009054906101000a900473ffffffffffffffffffffffffffffffffffffffff1673ffffffffffffffffffffffffffffffffffffffff1673ffffffffffffffffffffffffffffffffffffffff1681526020016003820160009054906101000a900473ffffffffffffffffffffffffffffffffffffffff1673ffffffffffffffffffffffffffffffffffffffff1673ffffffffffffffffffffffffffffffffffffffff168152602001600482015481526020016005820160009054906101000a900460ff1615151515815250508486815181106111d4576111d3614b25565b5b6020026020010181905250505b5080806111ed90614add565b915050611037565b508094505050505090565b61121b838383604051806020016040528060008152506120f9565b505050565b60006001600860008282546112359190614aa9565b92505081905550600060085490506112826040518060400160405280600c81526020017f6e657720746f6b656e20496400000000000000000000000000000000000000008152508261329f565b60405180608001604052808281526020018481526020013373ffffffffffffffffffffffffffffffffffffffff16815260200160011515815250601060008381526020019081526020016000206000820151816000015560208201518160010190816112ee9190614de8565b5060408201518160020160006101000a81548173ffffffffffffffffffffffffffffffffffffffff021916908373ffffffffffffffffffffffffffffffffffffffff16021790555060608201518160020160146101000a81548160ff02191690831515021790555090505060405180608001604052808281526020018481526020013373ffffffffffffffffffffffffffffffffffffffff16815260200160011515815250600f60003373ffffffffffffffffffffffffffffffffffffffff1673ffffffffffffffffffffffffffffffffffffffff1681526020019081526020016000206000820151816000015560208201518160010190816113f19190614de8565b5060408201518160020160006101000a81548173ffffffffffffffffffffffffffffffffffffffff021916908373ffffffffffffffffffffffffffffffffffffffff16021790555060608201518160020160146101000a81548160ff02191690831515021790555090505061149b6040518060400160405280601c81526020017f6d73672073656e64657220696e20746f6b656e206372656174696f6e000000008152503361333b565b6115106040518060400160405280600e81526020017f6e667420637265617465642062790000000000000000000000000000000000008152506010600084815260200190815260200160002060020160009054906101000a900473ffffffffffffffffffffffffffffffffffffffff1661333b565b61151a33826133d7565b61152481846134d0565b807fcb661657f66ac19fb1f6c039deade644f08ecfdfbfe04e45918d9a19f26b35ed8433604051611556929190614eba565b60405180910390a280915050919050565b61156f6130e2565b6115e46040518060400160405280601081526020017f63726561746f72205f6164647265737300000000000000000000000000000000815250600e600084815260200190815260200160002060020160009054906101000a900473ffffffffffffffffffffffffffffffffffffffff1661333b565b6116596040518060400160405280601281526020017f6d61726b657420706c616365206f776e65720000000000000000000000000000815250600e600084815260200190815260200160002060030160009054906101000a900473ffffffffffffffffffffffffffffffffffffffff1661333b565b6116986040518060400160405280601381526020017f6d73672e73656e646572205f61646472657373000000000000000000000000008152503361333b565b6116d76040518060400160405280600881526020017f746f6b656e2049640000000000000000000000000000000000000000000000008152508261329f565b6000600e6000838152602001908152602001600020600101549050600e600083815260200190815260200160002060020160009054906101000a900473ffffffffffffffffffffffffffffffffffffffff1673ffffffffffffffffffffffffffffffffffffffff163373ffffffffffffffffffffffffffffffffffffffff1614611796576040517f08c379a000000000000000000000000000000000000000000000000000000000815260040161178d90614f36565b60405180910390fd5b30600e600084815260200190815260200160002060030160006101000a81548173ffffffffffffffffffffffffffffffffffffffff021916908373ffffffffffffffffffffffffffffffffffffffff1602179055506117f6333083613128565b506117ff613295565b50565b600061180d82612de9565b9050919050565b60606000600954905060008060005b838110156118c3573373ffffffffffffffffffffffffffffffffffffffff16600e60006001846118539190614aa9565b815260200190815260200160002060030160009054906101000a900473ffffffffffffffffffffffffffffffffffffffff1673ffffffffffffffffffffffffffffffffffffffff16036118b0576001836118ad9190614aa9565b92505b80806118bb90614add565b915050611823565b5060008267ffffffffffffffff8111156118e0576118df614509565b5b60405190808252806020026020018201604052801561191957816020015b611906613f67565b8152602001906001900390816118fe5790505b50905060005b84811015611af8573373ffffffffffffffffffffffffffffffffffffffff16600e600060018461194f9190614aa9565b815260200190815260200160002060030160009054906101000a900473ffffffffffffffffffffffffffffffffffffffff1673ffffffffffffffffffffffffffffffffffffffff1603611ae55760006001826119ab9190614aa9565b90506000600e60008381526020019081526020016000209050806040518060c001604052908160008201548152602001600182015481526020016002820160009054906101000a900473ffffffffffffffffffffffffffffffffffffffff1673ffffffffffffffffffffffffffffffffffffffff1673ffffffffffffffffffffffffffffffffffffffff1681526020016003820160009054906101000a900473ffffffffffffffffffffffffffffffffffffffff1673ffffffffffffffffffffffffffffffffffffffff1673ffffffffffffffffffffffffffffffffffffffff168152602001600482015481526020016005820160009054906101000a900460ff161515151581525050848681518110611ac857611ac7614b25565b5b6020026020010181905250600185611ae09190614aa9565b945050505b8080611af090614add565b91505061191f565b508094505050505090565b60008073ffffffffffffffffffffffffffffffffffffffff168273ffffffffffffffffffffffffffffffffffffffff1603611b765760006040517f89c62b64000000000000000000000000000000000000000000000000000000008152600401611b6d9190614230565b60405180910390fd5b600460008373ffffffffffffffffffffffffffffffffffffffff1673ffffffffffffffffffffffffffffffffffffffff168152602001908152602001600020549050919050565b6000601160003373ffffffffffffffffffffffffffffffffffffffff1673ffffffffffffffffffffffffffffffffffffffff16815260200190815260200160002054905060008111611c44576040517f08c379a0000000000000000000000000000000000000000000000000000000008152600401611c3b90614fc8565b60405180910390fd5b80471015611c87576040517f08c379a0000000000000000000000000000000000000000000000000000000008152600401611c7e9061505a565b60405180910390fd5b6000601160003373ffffffffffffffffffffffffffffffffffffffff1673ffffffffffffffffffffffffffffffffffffffff168152602001908152602001600020819055503373ffffffffffffffffffffffffffffffffffffffff166108fc829081150290604051600060405180830381858888f19350505050158015611d12573d6000803e3d6000fd5b5050565b6000600f60003373ffffffffffffffffffffffffffffffffffffffff1673ffffffffffffffffffffffffffffffffffffffff16815260200190815260200160002060020160149054906101000a900460ff16905090565b606060028054611d7c90614a49565b80601f0160208091040260200160405190810160405280929190818152602001828054611da890614a49565b8015611df55780601f10611dca57610100808354040283529160200191611df5565b820191906000526020600020905b815481529060010190602001808311611dd857829003601f168201915b5050505050905090565b6000601160008373ffffffffffffffffffffffffffffffffffffffff1673ffffffffffffffffffffffffffffffffffffffff168152602001908152602001600020549050919050565b611e5a611e53612eae565b838361352c565b5050565b611e666130e2565b611edb6040518060400160405280601081526020017f63726561746f72205f6164647265737300000000000000000000000000000000815250600e600084815260200190815260200160002060020160009054906101000a900473ffffffffffffffffffffffffffffffffffffffff1661333b565b611f506040518060400160405280601281526020017f6d61726b657420706c616365206f776e65720000000000000000000000000000815250600e600084815260200190815260200160002060030160009054906101000a900473ffffffffffffffffffffffffffffffffffffffff1661333b565b611f8f6040518060400160405280601381526020017f6d73672e73656e646572205f61646472657373000000000000000000000000008152503361333b565b611fce6040518060400160405280600881526020017f746f6b656e2049640000000000000000000000000000000000000000000000008152508261329f565b6000600e6000838152602001908152602001600020600101549050600e600083815260200190815260200160002060020160009054906101000a900473ffffffffffffffffffffffffffffffffffffffff1673ffffffffffffffffffffffffffffffffffffffff163373ffffffffffffffffffffffffffffffffffffffff161461208d576040517f08c379a000000000000000000000000000000000000000000000000000000000815260040161208490614f36565b60405180910390fd5b33600e600084815260200190815260200160002060030160006101000a81548173ffffffffffffffffffffffffffffffffffffffff021916908373ffffffffffffffffffffffffffffffffffffffff1602179055506120ed303383613128565b506120f6613295565b50565b612104848484610ad5565b6121108484848461369b565b50505050565b3373ffffffffffffffffffffffffffffffffffffffff16600b60009054906101000a900473ffffffffffffffffffffffffffffffffffffffff1673ffffffffffffffffffffffffffffffffffffffff16146121a6576040517f08c379a000000000000000000000000000000000000000000000000000000000815260040161219d906150ec565b60405180910390fd5b80600c8190555050565b6121b86130e2565b6000600e60008381526020019081526020016000206004015490506000600e60008481526020019081526020016000206001015490506000600e600085815260200190815260200160002060020160009054906101000a900473ffffffffffffffffffffffffffffffffffffffff16905061229e6040518060400160405280600f81526020017f6974656d206f776e657220616464720000000000000000000000000000000000815250600e600087815260200190815260200160002060030160009054906101000a900473ffffffffffffffffffffffffffffffffffffffff1661333b565b3073ffffffffffffffffffffffffffffffffffffffff16600e600086815260200190815260200160002060030160009054906101000a900473ffffffffffffffffffffffffffffffffffffffff1673ffffffffffffffffffffffffffffffffffffffff1614612342576040517f08c379a00000000000000000000000000000000000000000000000000000000081526004016123399061517e565b60405180910390fd5b823414612384576040517f08c379a000000000000000000000000000000000000000000000000000000000815260040161237b90615210565b60405180910390fd5b6000600d54600c54856123979190615230565b6123a191906152a1565b9050600081856123b191906152d2565b90506123bd8382613852565b33600e600088815260200190815260200160002060030160006101000a81548173ffffffffffffffffffffffffffffffffffffffff021916908373ffffffffffffffffffffffffffffffffffffffff1602179055506001600e600088815260200190815260200160002060050160006101000a81548160ff0219169083151502179055506001600a60008282546124549190614aa9565b92505081905550612487600b60009054906101000a900473ffffffffffffffffffffffffffffffffffffffff1683613852565b612492303386613128565b505050505061249f613295565b50565b60606124ad82612de9565b5060006007600084815260200190815260200160002080546124ce90614a49565b80601f01602080910402602001604051908101604052809291908181526020018280546124fa90614a49565b80156125475780601f1061251c57610100808354040283529160200191612547565b820191906000526020600020905b81548152906001019060200180831161252a57829003601f168201915b5050505050905060006125586138ac565b9050600081510361256d5781925050506125b0565b6000825111156125a257808260405160200161258a929190615342565b604051602081830303815290604052925050506125b0565b6125ab846138c3565b925050505b919050565b6000600c54905090565b6000600660008473ffffffffffffffffffffffffffffffffffffffff1673ffffffffffffffffffffffffffffffffffffffff16815260200190815260200160002060008373ffffffffffffffffffffffffffffffffffffffff1673ffffffffffffffffffffffffffffffffffffffff16815260200190815260200160002060009054906101000a900460ff16905092915050565b60606000600854905060008060005b83811015612702573373ffffffffffffffffffffffffffffffffffffffff16600e60006001846126929190614aa9565b815260200190815260200160002060020160009054906101000a900473ffffffffffffffffffffffffffffffffffffffff1673ffffffffffffffffffffffffffffffffffffffff16036126ef576001836126ec9190614aa9565b92505b80806126fa90614add565b915050612662565b5060008267ffffffffffffffff81111561271f5761271e614509565b5b60405190808252806020026020018201604052801561275857816020015b612745613f67565b81526020019060019003908161273d5790505b50905060005b84811015612937573373ffffffffffffffffffffffffffffffffffffffff16600e600060018461278e9190614aa9565b815260200190815260200160002060020160009054906101000a900473ffffffffffffffffffffffffffffffffffffffff1673ffffffffffffffffffffffffffffffffffffffff16036129245760006001826127ea9190614aa9565b90506000600e60008381526020019081526020016000209050806040518060c001604052908160008201548152602001600182015481526020016002820160009054906101000a900473ffffffffffffffffffffffffffffffffffffffff1673ffffffffffffffffffffffffffffffffffffffff1673ffffffffffffffffffffffffffffffffffffffff1681526020016003820160009054906101000a900473ffffffffffffffffffffffffffffffffffffffff1673ffffffffffffffffffffffffffffffffffffffff1673ffffffffffffffffffffffffffffffffffffffff168152602001600482015481526020016005820160009054906101000a900460ff16151515158152505084868151811061290757612906614b25565b5b602002602001018190525060018561291f9190614aa9565b945050505b808061292f90614add565b91505061275e565b508094505050505090565b60606000600854905060008060005b838110156129f1573373ffffffffffffffffffffffffffffffffffffffff16601060006001846129819190614aa9565b815260200190815260200160002060020160009054906101000a900473ffffffffffffffffffffffffffffffffffffffff1673ffffffffffffffffffffffffffffffffffffffff16036129de576001836129db9190614aa9565b92505b80806129e990614add565b915050612951565b50612a316040518060400160405280601081526020017f6e667420746f6b656e7320636f756e74000000000000000000000000000000008152508361329f565b612aa66040518060400160405280601381526020017f6e66742063726561746f722061646472657373000000000000000000000000008152506010600085815260200190815260200160002060020160009054906101000a900473ffffffffffffffffffffffffffffffffffffffff1661333b565b60008267ffffffffffffffff811115612ac257612ac1614509565b5b604051908082528060200260200182016040528015612afb57816020015b612ae8613fcb565b815260200190600190039081612ae05790505b50905060005b83811015612cfc573373ffffffffffffffffffffffffffffffffffffffff1660106000600184612b319190614aa9565b815260200190815260200160002060020160009054906101000a900473ffffffffffffffffffffffffffffffffffffffff1673ffffffffffffffffffffffffffffffffffffffff1603612ce957600060106000600184612b919190614aa9565b815260200190815260200160002090508060405180608001604052908160008201548152602001600182018054612bc790614a49565b80601f0160208091040260200160405190810160405280929190818152602001828054612bf390614a49565b8015612c405780601f10612c1557610100808354040283529160200191612c40565b820191906000526020600020905b815481529060010190602001808311612c2357829003601f168201915b505050505081526020016002820160009054906101000a900473ffffffffffffffffffffffffffffffffffffffff1673ffffffffffffffffffffffffffffffffffffffff1673ffffffffffffffffffffffffffffffffffffffff1681526020016002820160149054906101000a900460ff161515151581525050838581518110612ccd57612ccc614b25565b5b6020026020010181905250600184612ce59190614aa9565b9350505b8080612cf490614add565b915050612b01565b508094505050505090565b60007f80ac58cd000000000000000000000000000000000000000000000000000000007bffffffffffffffffffffffffffffffffffffffffffffffffffffffff1916827bffffffffffffffffffffffffffffffffffffffffffffffffffffffff19161480612dd257507f5b5e139f000000000000000000000000000000000000000000000000000000007bffffffffffffffffffffffffffffffffffffffffffffffffffffffff1916827bffffffffffffffffffffffffffffffffffffffffffffffffffffffff1916145b80612de25750612de18261392c565b5b9050919050565b600080612df583613996565b9050600073ffffffffffffffffffffffffffffffffffffffff168173ffffffffffffffffffffffffffffffffffffffff1603612e6857826040517f7e273289000000000000000000000000000000000000000000000000000000008152600401612e5f91906142c6565b60405180910390fd5b80915050919050565b60006005600083815260200190815260200160002060009054906101000a900473ffffffffffffffffffffffffffffffffffffffff169050919050565b600033905090565b612ec383838360016139d3565b505050565b600080612ed484613996565b9050600073ffffffffffffffffffffffffffffffffffffffff168373ffffffffffffffffffffffffffffffffffffffff1614612f1657612f15818486613b98565b5b600073ffffffffffffffffffffffffffffffffffffffff168173ffffffffffffffffffffffffffffffffffffffff1614612fa757612f586000856000806139d3565b6001600460008373ffffffffffffffffffffffffffffffffffffffff1673ffffffffffffffffffffffffffffffffffffffff168152602001908152602001600020600082825403925050819055505b600073ffffffffffffffffffffffffffffffffffffffff168573ffffffffffffffffffffffffffffffffffffffff161461302a576001600460008773ffffffffffffffffffffffffffffffffffffffff1673ffffffffffffffffffffffffffffffffffffffff168152602001908152602001600020600082825401925050819055505b846003600086815260200190815260200160002060006101000a81548173ffffffffffffffffffffffffffffffffffffffff021916908373ffffffffffffffffffffffffffffffffffffffff160217905550838573ffffffffffffffffffffffffffffffffffffffff168273ffffffffffffffffffffffffffffffffffffffff167fddf252ad1be2c89b69c2b068fc378daa952ba7f163c4a11628f55a4df523b3ef60405160405180910390a4809150509392505050565b60026000540361311e576040517f3ee5aeb500000000000000000000000000000000000000000000000000000000815260040160405180910390fd5b6002600081905550565b600073ffffffffffffffffffffffffffffffffffffffff168273ffffffffffffffffffffffffffffffffffffffff160361319a5760006040517f64a0ae920000000000000000000000000000000000000000000000000000000081526004016131919190614230565b60405180910390fd5b60006131a883836000612ec8565b9050600073ffffffffffffffffffffffffffffffffffffffff168173ffffffffffffffffffffffffffffffffffffffff160361321b57816040517f7e27328900000000000000000000000000000000000000000000000000000000815260040161321291906142c6565b60405180910390fd5b8373ffffffffffffffffffffffffffffffffffffffff168173ffffffffffffffffffffffffffffffffffffffff161461328f578382826040517f64283d7b00000000000000000000000000000000000000000000000000000000815260040161328693929190614b54565b60405180910390fd5b50505050565b6001600081905550565b61333782826040516024016132b5929190615366565b6040516020818303038152906040527fb60e72cc000000000000000000000000000000000000000000000000000000007bffffffffffffffffffffffffffffffffffffffffffffffffffffffff19166020820180517bffffffffffffffffffffffffffffffffffffffffffffffffffffffff8381831617835250505050613c5c565b5050565b6133d38282604051602401613351929190614eba565b6040516020818303038152906040527f319af333000000000000000000000000000000000000000000000000000000007bffffffffffffffffffffffffffffffffffffffffffffffffffffffff19166020820180517bffffffffffffffffffffffffffffffffffffffffffffffffffffffff8381831617835250505050613c5c565b5050565b600073ffffffffffffffffffffffffffffffffffffffff168273ffffffffffffffffffffffffffffffffffffffff16036134495760006040517f64a0ae920000000000000000000000000000000000000000000000000000000081526004016134409190614230565b60405180910390fd5b600061345783836000612ec8565b9050600073ffffffffffffffffffffffffffffffffffffffff168173ffffffffffffffffffffffffffffffffffffffff16146134cb5760006040517f73c6ac6e0000000000000000000000000000000000000000000000000000000081526004016134c29190614230565b60405180910390fd5b505050565b806007600084815260200190815260200160002090816134f09190614de8565b507ff8e1a15aba9398e019f0b49df1a4fde98ee17ae345cb5f6b5e2c27f5033e8ce78260405161352091906142c6565b60405180910390a15050565b600073ffffffffffffffffffffffffffffffffffffffff168273ffffffffffffffffffffffffffffffffffffffff160361359d57816040517f5b08ba180000000000000000000000000000000000000000000000000000000081526004016135949190614230565b60405180910390fd5b80600660008573ffffffffffffffffffffffffffffffffffffffff1673ffffffffffffffffffffffffffffffffffffffff16815260200190815260200160002060008473ffffffffffffffffffffffffffffffffffffffff1673ffffffffffffffffffffffffffffffffffffffff16815260200190815260200160002060006101000a81548160ff0219169083151502179055508173ffffffffffffffffffffffffffffffffffffffff168373ffffffffffffffffffffffffffffffffffffffff167f17307eab39ab6107e8899845ad3d59bd9653f200f220920489ca2b5937696c318360405161368e91906140bf565b60405180910390a3505050565b60008373ffffffffffffffffffffffffffffffffffffffff163b111561384c578273ffffffffffffffffffffffffffffffffffffffff1663150b7a026136df612eae565b8685856040518563ffffffff1660e01b815260040161370194939291906153eb565b6020604051808303816000875af192505050801561373d57506040513d601f19601f8201168201806040525081019061373a919061544c565b60015b6137c1573d806000811461376d576040519150601f19603f3d011682016040523d82523d6000602084013e613772565b606091505b5060008151036137b957836040517f64a0ae920000000000000000000000000000000000000000000000000000000081526004016137b09190614230565b60405180910390fd5b805181602001fd5b63150b7a0260e01b7bffffffffffffffffffffffffffffffffffffffffffffffffffffffff1916817bffffffffffffffffffffffffffffffffffffffffffffffffffffffff19161461384a57836040517f64a0ae920000000000000000000000000000000000000000000000000000000081526004016138419190614230565b60405180910390fd5b505b50505050565b80601160008473ffffffffffffffffffffffffffffffffffffffff1673ffffffffffffffffffffffffffffffffffffffff16815260200190815260200160002060008282546138a19190614aa9565b925050819055505050565b606060405180602001604052806000815250905090565b60606138ce82612de9565b5060006138d96138ac565b905060008151116138f95760405180602001604052806000815250613924565b8061390384613c85565b604051602001613914929190615342565b6040516020818303038152906040525b915050919050565b60007f01ffc9a7000000000000000000000000000000000000000000000000000000007bffffffffffffffffffffffffffffffffffffffffffffffffffffffff1916827bffffffffffffffffffffffffffffffffffffffffffffffffffffffff1916149050919050565b60006003600083815260200190815260200160002060009054906101000a900473ffffffffffffffffffffffffffffffffffffffff169050919050565b8080613a0c5750600073ffffffffffffffffffffffffffffffffffffffff168273ffffffffffffffffffffffffffffffffffffffff1614155b15613b40576000613a1c84612de9565b9050600073ffffffffffffffffffffffffffffffffffffffff168373ffffffffffffffffffffffffffffffffffffffff1614158015613a8757508273ffffffffffffffffffffffffffffffffffffffff168173ffffffffffffffffffffffffffffffffffffffff1614155b8015613a9a5750613a9881846125bf565b155b15613adc57826040517fa9fbf51f000000000000000000000000000000000000000000000000000000008152600401613ad39190614230565b60405180910390fd5b8115613b3e57838573ffffffffffffffffffffffffffffffffffffffff168273ffffffffffffffffffffffffffffffffffffffff167f8c5be1e5ebec7d5bd14f71427d1e84f3dd0314c0f7b2291e5b200ac8c7c3b92560405160405180910390a45b505b836005600085815260200190815260200160002060006101000a81548173ffffffffffffffffffffffffffffffffffffffff021916908373ffffffffffffffffffffffffffffffffffffffff16021790555050505050565b613ba3838383613d53565b613c5757600073ffffffffffffffffffffffffffffffffffffffff168373ffffffffffffffffffffffffffffffffffffffff1603613c1857806040517f7e273289000000000000000000000000000000000000000000000000000000008152600401613c0f91906142c6565b60405180910390fd5b81816040517f177e802f000000000000000000000000000000000000000000000000000000008152600401613c4e929190615479565b60405180910390fd5b505050565b60008151905060006a636f6e736f6c652e6c6f679050602083016000808483855afa5050505050565b606060006001613c9484613e14565b01905060008167ffffffffffffffff811115613cb357613cb2614509565b5b6040519080825280601f01601f191660200182016040528015613ce55781602001600182028036833780820191505090505b509050600082602001820190505b600115613d48578080600190039150507f3031323334353637383961626364656600000000000000000000000000000000600a86061a8153600a8581613d3c57613d3b615272565b5b04945060008503613cf3575b819350505050919050565b60008073ffffffffffffffffffffffffffffffffffffffff168373ffffffffffffffffffffffffffffffffffffffff1614158015613e0b57508273ffffffffffffffffffffffffffffffffffffffff168473ffffffffffffffffffffffffffffffffffffffff161480613dcc5750613dcb84846125bf565b5b80613e0a57508273ffffffffffffffffffffffffffffffffffffffff16613df283612e71565b73ffffffffffffffffffffffffffffffffffffffff16145b5b90509392505050565b600080600090507a184f03e93ff9f4daa797ed6e38ed64bf6a1f0100000000000000008310613e72577a184f03e93ff9f4daa797ed6e38ed64bf6a1f0100000000000000008381613e6857613e67615272565b5b0492506040810190505b6d04ee2d6d415b85acef81000000008310613eaf576d04ee2d6d415b85acef81000000008381613ea557613ea4615272565b5b0492506020810190505b662386f26fc100008310613ede57662386f26fc100008381613ed457613ed3615272565b5b0492506010810190505b6305f5e1008310613f07576305f5e1008381613efd57613efc615272565b5b0492506008810190505b6127108310613f2c576127108381613f2257613f21615272565b5b0492506004810190505b60648310613f4f5760648381613f4557613f44615272565b5b0492506002810190505b600a8310613f5e576001810190505b80915050919050565b6040518060c001604052806000815260200160008152602001600073ffffffffffffffffffffffffffffffffffffffff168152602001600073ffffffffffffffffffffffffffffffffffffffff168152602001600081526020016000151581525090565b60405180608001604052806000815260200160608152602001600073ffffffffffffffffffffffffffffffffffffffff1681526020016000151581525090565b6000604051905090565b600080fd5b600080fd5b60007fffffffff0000000000000000000000000000000000000000000000000000000082169050919050565b6140548161401f565b811461405f57600080fd5b50565b6000813590506140718161404b565b92915050565b60006020828403121561408d5761408c614015565b5b600061409b84828501614062565b91505092915050565b60008115159050919050565b6140b9816140a4565b82525050565b60006020820190506140d460008301846140b0565b92915050565b600081519050919050565b600082825260208201905092915050565b60005b838110156141145780820151818401526020810190506140f9565b60008484015250505050565b6000601f19601f8301169050919050565b600061413c826140da565b61414681856140e5565b93506141568185602086016140f6565b61415f81614120565b840191505092915050565b600060208201905081810360008301526141848184614131565b905092915050565b6000819050919050565b61419f8161418c565b81146141aa57600080fd5b50565b6000813590506141bc81614196565b92915050565b6000602082840312156141d8576141d7614015565b5b60006141e6848285016141ad565b91505092915050565b600073ffffffffffffffffffffffffffffffffffffffff82169050919050565b600061421a826141ef565b9050919050565b61422a8161420f565b82525050565b60006020820190506142456000830184614221565b92915050565b6142548161420f565b811461425f57600080fd5b50565b6000813590506142718161424b565b92915050565b6000806040838503121561428e5761428d614015565b5b600061429c85828601614262565b92505060206142ad858286016141ad565b9150509250929050565b6142c08161418c565b82525050565b60006020820190506142db60008301846142b7565b92915050565b600081519050919050565b600082825260208201905092915050565b6000819050602082019050919050565b6143168161418c565b82525050565b6000614327826141ef565b9050919050565b6143378161431c565b82525050565b614346816140a4565b82525050565b60c082016000820151614362600085018261430d565b506020820151614375602085018261430d565b506040820151614388604085018261432e565b50606082015161439b606085018261432e565b5060808201516143ae608085018261430d565b5060a08201516143c160a085018261433d565b50505050565b60006143d3838361434c565b60c08301905092915050565b6000602082019050919050565b60006143f7826142e1565b61440181856142ec565b935061440c836142fd565b8060005b8381101561443d57815161442488826143c7565b975061442f836143df565b925050600181019050614410565b5085935050505092915050565b6000602082019050818103600083015261446481846143ec565b905092915050565b60008060006060848603121561448557614484614015565b5b600061449386828701614262565b93505060206144a486828701614262565b92505060406144b5868287016141ad565b9150509250925092565b600080604083850312156144d6576144d5614015565b5b60006144e4858286016141ad565b92505060206144f5858286016141ad565b9150509250929050565b600080fd5b600080fd5b7f4e487b7100000000000000000000000000000000000000000000000000000000600052604160045260246000fd5b61454182614120565b810181811067ffffffffffffffff821117156145605761455f614509565b5b80604052505050565b600061457361400b565b905061457f8282614538565b919050565b600067ffffffffffffffff82111561459f5761459e614509565b5b6145a882614120565b9050602081019050919050565b82818337600083830152505050565b60006145d76145d284614584565b614569565b9050828152602081018484840111156145f3576145f2614504565b5b6145fe8482856145b5565b509392505050565b600082601f83011261461b5761461a6144ff565b5b813561462b8482602086016145c4565b91505092915050565b60006020828403121561464a57614649614015565b5b600082013567ffffffffffffffff8111156146685761466761401a565b5b61467484828501614606565b91505092915050565b60006020828403121561469357614692614015565b5b60006146a184828501614262565b91505092915050565b6146b3816140a4565b81146146be57600080fd5b50565b6000813590506146d0816146aa565b92915050565b600080604083850312156146ed576146ec614015565b5b60006146fb85828601614262565b925050602061470c858286016146c1565b9150509250929050565b600067ffffffffffffffff82111561473157614730614509565b5b61473a82614120565b9050602081019050919050565b600061475a61475584614716565b614569565b90508281526020810184848401111561477657614775614504565b5b6147818482856145b5565b509392505050565b600082601f83011261479e5761479d6144ff565b5b81356147ae848260208601614747565b91505092915050565b600080600080608085870312156147d1576147d0614015565b5b60006147df87828801614262565b94505060206147f087828801614262565b9350506040614801878288016141ad565b925050606085013567ffffffffffffffff8111156148225761482161401a565b5b61482e87828801614789565b91505092959194509250565b6000806040838503121561485157614850614015565b5b600061485f85828601614262565b925050602061487085828601614262565b9150509250929050565b600081519050919050565b600082825260208201905092915050565b6000819050602082019050919050565b600082825260208201905092915050565b60006148c2826140da565b6148cc81856148a6565b93506148dc8185602086016140f6565b6148e581614120565b840191505092915050565b6148f98161420f565b82525050565b6000608083016000830151614917600086018261430d565b506020830151848203602086015261492f82826148b7565b915050604083015161494460408601826148f0565b506060830151614957606086018261433d565b508091505092915050565b600061496e83836148ff565b905092915050565b6000602082019050919050565b600061498e8261487a565b6149988185614885565b9350836020820285016149aa85614896565b8060005b858110156149e657848403895281516149c78582614962565b94506149d283614976565b925060208a019950506001810190506149ae565b50829750879550505050505092915050565b60006020820190508181036000830152614a128184614983565b905092915050565b7f4e487b7100000000000000000000000000000000000000000000000000000000600052602260045260246000fd5b60006002820490506001821680614a6157607f821691505b602082108103614a7457614a73614a1a565b5b50919050565b7f4e487b7100000000000000000000000000000000000000000000000000000000600052601160045260246000fd5b6000614ab48261418c565b9150614abf8361418c565b9250828201905080821115614ad757614ad6614a7a565b5b92915050565b6000614ae88261418c565b91507fffffffffffffffffffffffffffffffffffffffffffffffffffffffffffffffff8203614b1a57614b19614a7a565b5b600182019050919050565b7f4e487b7100000000000000000000000000000000000000000000000000000000600052603260045260246000fd5b6000606082019050614b696000830186614221565b614b7660208301856142b7565b614b836040830184614221565b949350505050565b7f5072696365206d757374206265206174206c6561737420312077656900000000600082015250565b6000614bc1601c836140e5565b9150614bcc82614b8b565b602082019050919050565b60006020820190508181036000830152614bf081614bb4565b9050919050565b6000608082019050614c0c6000830187614221565b614c196020830186614221565b614c2660408301856142b7565b614c3360608301846140b0565b95945050505050565b60008190508160005260206000209050919050565b60006020601f8301049050919050565b600082821b905092915050565b600060088302614c9e7fffffffffffffffffffffffffffffffffffffffffffffffffffffffffffffffff82614c61565b614ca88683614c61565b95508019841693508086168417925050509392505050565b6000819050919050565b6000614ce5614ce0614cdb8461418c565b614cc0565b61418c565b9050919050565b6000819050919050565b614cff83614cca565b614d13614d0b82614cec565b848454614c6e565b825550505050565b600090565b614d28614d1b565b614d33818484614cf6565b505050565b5b81811015614d5757614d4c600082614d20565b600181019050614d39565b5050565b601f821115614d9c57614d6d81614c3c565b614d7684614c51565b81016020851015614d85578190505b614d99614d9185614c51565b830182614d38565b50505b505050565b600082821c905092915050565b6000614dbf60001984600802614da1565b1980831691505092915050565b6000614dd88383614dae565b9150826002028217905092915050565b614df1826140da565b67ffffffffffffffff811115614e0a57614e09614509565b5b614e148254614a49565b614e1f828285614d5b565b600060209050601f831160018114614e525760008415614e40578287015190505b614e4a8582614dcc565b865550614eb2565b601f198416614e6086614c3c565b60005b82811015614e8857848901518255600182019150602085019450602081019050614e63565b86831015614ea55784890151614ea1601f891682614dae565b8355505b6001600288020188555050505b505050505050565b60006040820190508181036000830152614ed48185614131565b9050614ee36020830184614221565b9392505050565b7f4f6e6c792063726561746f72206d617920756e6c69737420616e206974656d00600082015250565b6000614f20601f836140e5565b9150614f2b82614eea565b602082019050919050565b60006020820190508181036000830152614f4f81614f13565b9050919050565b7f546865726520617265206e6f206372656469747320696e20746869732072656360008201527f697069656e742061646472657373000000000000000000000000000000000000602082015250565b6000614fb2602e836140e5565b9150614fbd82614f56565b604082019050919050565b60006020820190508181036000830152614fe181614fa5565b9050919050565b7f546865726520617265206e6f206372656469747320696e207468697320636f6e60008201527f7472616374206164647265737300000000000000000000000000000000000000602082015250565b6000615044602d836140e5565b915061504f82614fe8565b604082019050919050565b6000602082019050818103600083015261507381615037565b9050919050565b7f4f6e6c79206d61726b6574706c616365206f776e65722063616e20757064617460008201527f65207265776172642070657263656e746167652e000000000000000000000000602082015250565b60006150d66034836140e5565b91506150e18261507a565b604082019050919050565b60006020820190508181036000830152615105816150c9565b9050919050565b7f54686973206974656d206973206e6f7420617661696c61626c6520666f72207360008201527f616c650000000000000000000000000000000000000000000000000000000000602082015250565b60006151686023836140e5565b91506151738261510c565b604082019050919050565b600060208201905081810360008301526151978161515b565b9050919050565b7f506c65617365207375626d6974207468652061736b696e67207072696365206960008201527f6e206f7264657220746f20636f6d706c65746520746865207075726368617365602082015250565b60006151fa6040836140e5565b91506152058261519e565b604082019050919050565b60006020820190508181036000830152615229816151ed565b9050919050565b600061523b8261418c565b91506152468361418c565b92508282026152548161418c565b9150828204841483151761526b5761526a614a7a565b5b5092915050565b7f4e487b7100000000000000000000000000000000000000000000000000000000600052601260045260246000fd5b60006152ac8261418c565b91506152b78361418c565b9250826152c7576152c6615272565b5b828204905092915050565b60006152dd8261418c565b91506152e88361418c565b9250828203905081811115615300576152ff614a7a565b5b92915050565b600081905092915050565b600061531c826140da565b6153268185615306565b93506153368185602086016140f6565b80840191505092915050565b600061534e8285615311565b915061535a8284615311565b91508190509392505050565b600060408201905081810360008301526153808185614131565b905061538f60208301846142b7565b9392505050565b600081519050919050565b600082825260208201905092915050565b60006153bd82615396565b6153c781856153a1565b93506153d78185602086016140f6565b6153e081614120565b840191505092915050565b60006080820190506154006000830187614221565b61540d6020830186614221565b61541a60408301856142b7565b818103606083015261542c81846153b2565b905095945050505050565b6000815190506154468161404b565b92915050565b60006020828403121561546257615461614015565b5b600061547084828501615437565b91505092915050565b600060408201905061548e6000830185614221565b61549b60208301846142b7565b939250505056fea2646970667358221220bc2d47bca745ae509fcc727dbdc455d5fc3aa19431c32d0a238728458c24aadc64736f6c63430008140033",
  "linkReferences": {},
  "deployedLinkReferences": {}
}