{
  "_format": "hh-sol-artifact-1",
  "contractName": "FRDNFTMarketPlace",
  "sourceName": "contracts/FRDNFTMarketPlace.sol",
  "abi": [
    {
      "inputs": [],
      "stateMutability": "nonpayable",
      "type": "constructor"
    },
    {
      "inputs": [
        {
          "internalType": "address",
          "name": "sender",
          "type": "address"
        },
        {
          "internalType": "uint256",
          "name": "tokenId",
          "type": "uint256"
        },
        {
          "internalType": "address",
          "name": "owner",
          "type": "address"
        }
      ],
      "name": "ERC721IncorrectOwner",
      "type": "error"
    },
    {
      "inputs": [
        {
          "internalType": "address",
          "name": "operator",
          "type": "address"
        },
        {
          "internalType": "uint256",
          "name": "tokenId",
          "type": "uint256"
        }
      ],
      "name": "ERC721InsufficientApproval",
      "type": "error"
    },
    {
      "inputs": [
        {
          "internalType": "address",
          "name": "approver",
          "type": "address"
        }
      ],
      "name": "ERC721InvalidApprover",
      "type": "error"
    },
    {
      "inputs": [
        {
          "internalType": "address",
          "name": "operator",
          "type": "address"
        }
      ],
      "name": "ERC721InvalidOperator",
      "type": "error"
    },
    {
      "inputs": [
        {
          "internalType": "address",
          "name": "owner",
          "type": "address"
        }
      ],
      "name": "ERC721InvalidOwner",
      "type": "error"
    },
    {
      "inputs": [
        {
          "internalType": "address",
          "name": "receiver",
          "type": "address"
        }
      ],
      "name": "ERC721InvalidReceiver",
      "type": "error"
    },
    {
      "inputs": [
        {
          "internalType": "address",
          "name": "sender",
          "type": "address"
        }
      ],
      "name": "ERC721InvalidSender",
      "type": "error"
    },
    {
      "inputs": [
        {
          "internalType": "uint256",
          "name": "tokenId",
          "type": "uint256"
        }
      ],
      "name": "ERC721NonexistentToken",
      "type": "error"
    },
    {
      "inputs": [],
      "name": "ReentrancyGuardReentrantCall",
      "type": "error"
    },
    {
      "anonymous": false,
      "inputs": [
        {
          "indexed": true,
          "internalType": "address",
          "name": "owner",
          "type": "address"
        },
        {
          "indexed": true,
          "internalType": "address",
          "name": "approved",
          "type": "address"
        },
        {
          "indexed": true,
          "internalType": "uint256",
          "name": "tokenId",
          "type": "uint256"
        }
      ],
      "name": "Approval",
      "type": "event"
    },
    {
      "anonymous": false,
      "inputs": [
        {
          "indexed": true,
          "internalType": "address",
          "name": "owner",
          "type": "address"
        },
        {
          "indexed": true,
          "internalType": "address",
          "name": "operator",
          "type": "address"
        },
        {
          "indexed": false,
          "internalType": "bool",
          "name": "approved",
          "type": "bool"
        }
      ],
      "name": "ApprovalForAll",
      "type": "event"
    },
    {
      "anonymous": false,
      "inputs": [
        {
          "indexed": false,
          "internalType": "uint256",
          "name": "_fromTokenId",
          "type": "uint256"
        },
        {
          "indexed": false,
          "internalType": "uint256",
          "name": "_toTokenId",
          "type": "uint256"
        }
      ],
      "name": "BatchMetadataUpdate",
      "type": "event"
    },
    {
      "anonymous": false,
      "inputs": [
        {
          "indexed": true,
          "internalType": "uint256",
          "name": "tokenId",
          "type": "uint256"
        },
        {
          "indexed": false,
          "internalType": "address",
          "name": "creator",
          "type": "address"
        },
        {
          "indexed": false,
          "internalType": "address",
          "name": "marketplaceowner",
          "type": "address"
        },
        {
          "indexed": false,
          "internalType": "uint256",
          "name": "price",
          "type": "uint256"
        },
        {
          "indexed": false,
          "internalType": "bool",
          "name": "sold",
          "type": "bool"
        }
      ],
      "name": "MarketItemCreated",
      "type": "event"
    },
    {
      "anonymous": false,
      "inputs": [
        {
          "indexed": false,
          "internalType": "uint256",
          "name": "_tokenId",
          "type": "uint256"
        }
      ],
      "name": "MetadataUpdate",
      "type": "event"
    },
    {
      "anonymous": false,
      "inputs": [
        {
          "indexed": false,
          "internalType": "string",
          "name": "tokenURI",
          "type": "string"
        },
        {
          "indexed": true,
          "internalType": "uint256",
          "name": "tokenId",
          "type": "uint256"
        },
        {
          "indexed": false,
          "internalType": "address",
          "name": "marketplaceowner",
          "type": "address"
        }
      ],
      "name": "NFTMinted",
      "type": "event"
    },
    {
      "anonymous": false,
      "inputs": [
        {
          "indexed": true,
          "internalType": "address",
          "name": "from",
          "type": "address"
        },
        {
          "indexed": true,
          "internalType": "address",
          "name": "to",
          "type": "address"
        },
        {
          "indexed": true,
          "internalType": "uint256",
          "name": "tokenId",
          "type": "uint256"
        }
      ],
      "name": "Transfer",
      "type": "event"
    },
    {
      "inputs": [
        {
          "internalType": "address",
          "name": "to",
          "type": "address"
        },
        {
          "internalType": "uint256",
          "name": "tokenId",
          "type": "uint256"
        }
      ],
      "name": "approve",
      "outputs": [],
      "stateMutability": "nonpayable",
      "type": "function"
    },
    {
      "inputs": [
        {
          "internalType": "address",
          "name": "owner",
          "type": "address"
        }
      ],
      "name": "balanceOf",
      "outputs": [
        {
          "internalType": "uint256",
          "name": "",
          "type": "uint256"
        }
      ],
      "stateMutability": "view",
      "type": "function"
    },
    {
      "inputs": [
        {
          "internalType": "uint256",
          "name": "tokenId",
          "type": "uint256"
        }
      ],
      "name": "createMarketSale",
      "outputs": [],
      "stateMutability": "payable",
      "type": "function"
    },
    {
      "inputs": [
        {
          "internalType": "string",
          "name": "tokenURI",
          "type": "string"
        }
      ],
      "name": "createToken",
      "outputs": [
        {
          "internalType": "uint256",
          "name": "",
          "type": "uint256"
        }
      ],
      "stateMutability": "payable",
      "type": "function"
    },
    {
      "inputs": [],
      "name": "fetchItemsCreated",
      "outputs": [
        {
          "components": [
            {
              "internalType": "uint256",
              "name": "tokenId",
              "type": "uint256"
            },
            {
              "internalType": "address payable",
              "name": "creator",
              "type": "address"
            },
            {
              "internalType": "address payable",
              "name": "marketplaceowner",
              "type": "address"
            },
            {
              "internalType": "uint256",
              "name": "price",
              "type": "uint256"
            },
            {
              "internalType": "bool",
              "name": "sold",
              "type": "bool"
            }
          ],
          "internalType": "struct FRDNFTMarketPlace.MarketItem[]",
          "name": "",
          "type": "tuple[]"
        }
      ],
      "stateMutability": "view",
      "type": "function"
    },
    {
      "inputs": [],
      "name": "fetchMarketItems",
      "outputs": [
        {
          "components": [
            {
              "internalType": "uint256",
              "name": "tokenId",
              "type": "uint256"
            },
            {
              "internalType": "address payable",
              "name": "creator",
              "type": "address"
            },
            {
              "internalType": "address payable",
              "name": "marketplaceowner",
              "type": "address"
            },
            {
              "internalType": "uint256",
              "name": "price",
              "type": "uint256"
            },
            {
              "internalType": "bool",
              "name": "sold",
              "type": "bool"
            }
          ],
          "internalType": "struct FRDNFTMarketPlace.MarketItem[]",
          "name": "",
          "type": "tuple[]"
        }
      ],
      "stateMutability": "view",
      "type": "function"
    },
    {
      "inputs": [],
      "name": "fetchMyNFTs",
      "outputs": [
        {
          "components": [
            {
              "internalType": "uint256",
              "name": "tokenId",
              "type": "uint256"
            },
            {
              "internalType": "address payable",
              "name": "creator",
              "type": "address"
            },
            {
              "internalType": "address payable",
              "name": "marketplaceowner",
              "type": "address"
            },
            {
              "internalType": "uint256",
              "name": "price",
              "type": "uint256"
            },
            {
              "internalType": "bool",
              "name": "sold",
              "type": "bool"
            }
          ],
          "internalType": "struct FRDNFTMarketPlace.MarketItem[]",
          "name": "",
          "type": "tuple[]"
        }
      ],
      "stateMutability": "view",
      "type": "function"
    },
    {
      "inputs": [],
      "name": "fetchUnSoldMarketItems",
      "outputs": [
        {
          "components": [
            {
              "internalType": "uint256",
              "name": "tokenId",
              "type": "uint256"
            },
            {
              "internalType": "address payable",
              "name": "creator",
              "type": "address"
            },
            {
              "internalType": "address payable",
              "name": "marketplaceowner",
              "type": "address"
            },
            {
              "internalType": "uint256",
              "name": "price",
              "type": "uint256"
            },
            {
              "internalType": "bool",
              "name": "sold",
              "type": "bool"
            }
          ],
          "internalType": "struct FRDNFTMarketPlace.MarketItem[]",
          "name": "",
          "type": "tuple[]"
        }
      ],
      "stateMutability": "view",
      "type": "function"
    },
    {
      "inputs": [
        {
          "internalType": "address",
          "name": "receiver",
          "type": "address"
        }
      ],
      "name": "getAddressCredits",
      "outputs": [
        {
          "internalType": "uint256",
          "name": "",
          "type": "uint256"
        }
      ],
      "stateMutability": "view",
      "type": "function"
    },
    {
      "inputs": [
        {
          "internalType": "uint256",
          "name": "tokenId",
          "type": "uint256"
        }
      ],
      "name": "getApproved",
      "outputs": [
        {
          "internalType": "address",
          "name": "",
          "type": "address"
        }
      ],
      "stateMutability": "view",
      "type": "function"
    },
    {
      "inputs": [],
      "name": "getSalesFeeBasisPoints",
      "outputs": [
        {
          "internalType": "uint256",
          "name": "",
          "type": "uint256"
        }
      ],
      "stateMutability": "view",
      "type": "function"
    },
    {
      "inputs": [
        {
          "internalType": "address",
          "name": "owner",
          "type": "address"
        },
        {
          "internalType": "address",
          "name": "operator",
          "type": "address"
        }
      ],
      "name": "isApprovedForAll",
      "outputs": [
        {
          "internalType": "bool",
          "name": "",
          "type": "bool"
        }
      ],
      "stateMutability": "view",
      "type": "function"
    },
    {
      "inputs": [],
      "name": "name",
      "outputs": [
        {
          "internalType": "string",
          "name": "",
          "type": "string"
        }
      ],
      "stateMutability": "view",
      "type": "function"
    },
    {
      "inputs": [
        {
          "internalType": "uint256",
          "name": "tokenId",
          "type": "uint256"
        }
      ],
      "name": "ownerOf",
      "outputs": [
        {
          "internalType": "address",
          "name": "",
          "type": "address"
        }
      ],
      "stateMutability": "view",
      "type": "function"
    },
    {
      "inputs": [
        {
          "internalType": "address",
          "name": "from",
          "type": "address"
        },
        {
          "internalType": "address",
          "name": "to",
          "type": "address"
        },
        {
          "internalType": "uint256",
          "name": "tokenId",
          "type": "uint256"
        }
      ],
      "name": "safeTransferFrom",
      "outputs": [],
      "stateMutability": "nonpayable",
      "type": "function"
    },
    {
      "inputs": [
        {
          "internalType": "address",
          "name": "from",
          "type": "address"
        },
        {
          "internalType": "address",
          "name": "to",
          "type": "address"
        },
        {
          "internalType": "uint256",
          "name": "tokenId",
          "type": "uint256"
        },
        {
          "internalType": "bytes",
          "name": "data",
          "type": "bytes"
        }
      ],
      "name": "safeTransferFrom",
      "outputs": [],
      "stateMutability": "nonpayable",
      "type": "function"
    },
    {
      "inputs": [
        {
          "internalType": "address",
          "name": "operator",
          "type": "address"
        },
        {
          "internalType": "bool",
          "name": "approved",
          "type": "bool"
        }
      ],
      "name": "setApprovalForAll",
      "outputs": [],
      "stateMutability": "nonpayable",
      "type": "function"
    },
    {
      "inputs": [
        {
          "internalType": "bytes4",
          "name": "interfaceId",
          "type": "bytes4"
        }
      ],
      "name": "supportsInterface",
      "outputs": [
        {
          "internalType": "bool",
          "name": "",
          "type": "bool"
        }
      ],
      "stateMutability": "view",
      "type": "function"
    },
    {
      "inputs": [],
      "name": "symbol",
      "outputs": [
        {
          "internalType": "string",
          "name": "",
          "type": "string"
        }
      ],
      "stateMutability": "view",
      "type": "function"
    },
    {
      "inputs": [
        {
          "internalType": "uint256",
          "name": "tokenId",
          "type": "uint256"
        }
      ],
      "name": "tokenURI",
      "outputs": [
        {
          "internalType": "string",
          "name": "",
          "type": "string"
        }
      ],
      "stateMutability": "view",
      "type": "function"
    },
    {
      "inputs": [
        {
          "internalType": "address",
          "name": "from",
          "type": "address"
        },
        {
          "internalType": "address",
          "name": "to",
          "type": "address"
        },
        {
          "internalType": "uint256",
          "name": "tokenId",
          "type": "uint256"
        }
      ],
      "name": "transferFrom",
      "outputs": [],
      "stateMutability": "nonpayable",
      "type": "function"
    },
    {
      "inputs": [
        {
          "internalType": "uint256",
          "name": "tokenId",
          "type": "uint256"
        }
      ],
      "name": "unListMarketItem",
      "outputs": [],
      "stateMutability": "payable",
      "type": "function"
    },
    {
      "inputs": [
        {
          "internalType": "uint256",
          "name": "rewardPercentage",
          "type": "uint256"
        }
      ],
      "name": "updateRewarsPercentage",
      "outputs": [],
      "stateMutability": "nonpayable",
      "type": "function"
    },
    {
      "inputs": [],
      "name": "withdrawCredits",
      "outputs": [],
      "stateMutability": "nonpayable",
      "type": "function"
    }
  ],
  "bytecode": "0x608060405260fa600b55612710600c553480156200001c57600080fd5b506040518060400160405280600a81526020017f46494641526577617264000000000000000000000000000000000000000000008152506040518060400160405280600381526020017f465244000000000000000000000000000000000000000000000000000000000081525060016000819055508160019081620000a2919062000378565b508060029081620000b4919062000378565b50505033600a60006101000a81548173ffffffffffffffffffffffffffffffffffffffff021916908373ffffffffffffffffffffffffffffffffffffffff1602179055506200045f565b600081519050919050565b7f4e487b7100000000000000000000000000000000000000000000000000000000600052604160045260246000fd5b7f4e487b7100000000000000000000000000000000000000000000000000000000600052602260045260246000fd5b600060028204905060018216806200018057607f821691505b60208210810362000196576200019562000138565b5b50919050565b60008190508160005260206000209050919050565b60006020601f8301049050919050565b600082821b905092915050565b600060088302620002007fffffffffffffffffffffffffffffffffffffffffffffffffffffffffffffffff82620001c1565b6200020c8683620001c1565b95508019841693508086168417925050509392505050565b6000819050919050565b6000819050919050565b600062000259620002536200024d8462000224565b6200022e565b62000224565b9050919050565b6000819050919050565b620002758362000238565b6200028d620002848262000260565b848454620001ce565b825550505050565b600090565b620002a462000295565b620002b18184846200026a565b505050565b5b81811015620002d957620002cd6000826200029a565b600181019050620002b7565b5050565b601f8211156200032857620002f2816200019c565b620002fd84620001b1565b810160208510156200030d578190505b620003256200031c85620001b1565b830182620002b6565b50505b505050565b600082821c905092915050565b60006200034d600019846008026200032d565b1980831691505092915050565b60006200036883836200033a565b9150826002028217905092915050565b6200038382620000fe565b67ffffffffffffffff8111156200039f576200039e62000109565b5b620003ab825462000167565b620003b8828285620002dd565b600060209050601f831160018114620003f05760008415620003db578287015190505b620003e785826200035a565b86555062000457565b601f19841662000400866200019c565b60005b828110156200042a5784890151825560018201915060208501945060208101905062000403565b868310156200044a578489015162000446601f8916826200033a565b8355505b6001600288020188555050505b505050505050565b613df9806200046f6000396000f3fe60806040526004361061014b5760003560e01c8063717f6dfb116100b6578063ba12a9c31161006f578063ba12a9c314610488578063be9af536146104b1578063c87b56dd146104cd578063e4e6d5181461050a578063e985e9c514610535578063f064c32e146105725761014b565b8063717f6dfb1461039b57806395d89b41146103b25780639cc18097146103dd578063a22cb4651461041a578063b69868af14610443578063b88d4fde1461045f5761014b565b806323b872dd1161010857806323b872dd14610274578063382edbcf1461029d57806342842e0e146102c857806345576f94146102f15780636352211e1461032157806370a082311461035e5761014b565b806301ffc9a71461015057806306fdde031461018d578063081812fc146101b8578063095ea7b3146101f55780630f08efe01461021e578063202e374014610249575b600080fd5b34801561015c57600080fd5b5061017760048036038101906101729190612cfe565b61059d565b6040516101849190612d46565b60405180910390f35b34801561019957600080fd5b506101a26105fe565b6040516101af9190612df1565b60405180910390f35b3480156101c457600080fd5b506101df60048036038101906101da9190612e49565b610690565b6040516101ec9190612eb7565b60405180910390f35b34801561020157600080fd5b5061021c60048036038101906102179190612efe565b6106ac565b005b34801561022a57600080fd5b506102336106c2565b6040516102409190613094565b60405180910390f35b34801561025557600080fd5b5061025e61088a565b60405161026b9190613094565b60405180910390f35b34801561028057600080fd5b5061029b600480360381019061029691906130b6565b610b6f565b005b3480156102a957600080fd5b506102b2610c71565b6040516102bf9190613094565b60405180910390f35b3480156102d457600080fd5b506102ef60048036038101906102ea91906130b6565b610f75565b005b61030b6004803603810190610306919061323e565b610f95565b6040516103189190613296565b60405180910390f35b34801561032d57600080fd5b5061034860048036038101906103439190612e49565b61100f565b6040516103559190612eb7565b60405180910390f35b34801561036a57600080fd5b50610385600480360381019061038091906132b1565b611021565b6040516103929190613296565b60405180910390f35b3480156103a757600080fd5b506103b06110db565b005b3480156103be57600080fd5b506103c7611234565b6040516103d49190612df1565b60405180910390f35b3480156103e957600080fd5b5061040460048036038101906103ff91906132b1565b6112c6565b6040516104119190613296565b60405180910390f35b34801561042657600080fd5b50610441600480360381019061043c919061330a565b61130f565b005b61045d60048036038101906104589190612e49565b611325565b005b34801561046b57600080fd5b50610486600480360381019061048191906133eb565b61143c565b005b34801561049457600080fd5b506104af60048036038101906104aa9190612e49565b611459565b005b6104cb60048036038101906104c69190612e49565b6114f3565b005b3480156104d957600080fd5b506104f460048036038101906104ef9190612e49565b6116a0565b6040516105019190612df1565b60405180910390f35b34801561051657600080fd5b5061051f6117b3565b60405161052c9190613296565b60405180910390f35b34801561054157600080fd5b5061055c6004803603810190610557919061346e565b6117bd565b6040516105699190612d46565b60405180910390f35b34801561057e57600080fd5b50610587611851565b6040516105949190613094565b60405180910390f35b6000634906490660e01b7bffffffffffffffffffffffffffffffffffffffffffffffffffffffff1916827bffffffffffffffffffffffffffffffffffffffffffffffffffffffff191614806105f757506105f682611b36565b5b9050919050565b60606001805461060d906134dd565b80601f0160208091040260200160405190810160405280929190818152602001828054610639906134dd565b80156106865780601f1061065b57610100808354040283529160200191610686565b820191906000526020600020905b81548152906001019060200180831161066957829003601f168201915b5050505050905090565b600061069b82611c18565b506106a582611ca0565b9050919050565b6106be82826106b9611cdd565b611ce5565b5050565b6060600060085490506000808267ffffffffffffffff8111156106e8576106e7613113565b5b60405190808252806020026020018201604052801561072157816020015b61070e612c35565b8152602001906001900390816107065790505b50905060005b8381101561088057600060018261073e919061353d565b90506000600d60008381526020019081526020016000209050806040518060a0016040529081600082015481526020016001820160009054906101000a900473ffffffffffffffffffffffffffffffffffffffff1673ffffffffffffffffffffffffffffffffffffffff1673ffffffffffffffffffffffffffffffffffffffff1681526020016002820160009054906101000a900473ffffffffffffffffffffffffffffffffffffffff1673ffffffffffffffffffffffffffffffffffffffff1673ffffffffffffffffffffffffffffffffffffffff168152602001600382015481526020016004820160009054906101000a900460ff16151515158152505084868151811061085157610850613571565b5b6020026020010181905250600185610869919061353d565b945050508080610878906135a0565b915050610727565b5080935050505090565b60606000600854905060008060005b83811015610939573373ffffffffffffffffffffffffffffffffffffffff16600d60006001846108c9919061353d565b815260200190815260200160002060020160009054906101000a900473ffffffffffffffffffffffffffffffffffffffff1673ffffffffffffffffffffffffffffffffffffffff160361092657600183610923919061353d565b92505b8080610931906135a0565b915050610899565b5060008267ffffffffffffffff81111561095657610955613113565b5b60405190808252806020026020018201604052801561098f57816020015b61097c612c35565b8152602001906001900390816109745790505b50905060005b84811015610b64573373ffffffffffffffffffffffffffffffffffffffff16600d60006001846109c5919061353d565b815260200190815260200160002060020160009054906101000a900473ffffffffffffffffffffffffffffffffffffffff1673ffffffffffffffffffffffffffffffffffffffff1603610b51576000600182610a21919061353d565b90506000600d60008381526020019081526020016000209050806040518060a0016040529081600082015481526020016001820160009054906101000a900473ffffffffffffffffffffffffffffffffffffffff1673ffffffffffffffffffffffffffffffffffffffff1673ffffffffffffffffffffffffffffffffffffffff1681526020016002820160009054906101000a900473ffffffffffffffffffffffffffffffffffffffff1673ffffffffffffffffffffffffffffffffffffffff1673ffffffffffffffffffffffffffffffffffffffff168152602001600382015481526020016004820160009054906101000a900460ff161515151581525050848681518110610b3457610b33613571565b5b6020026020010181905250600185610b4c919061353d565b945050505b8080610b5c906135a0565b915050610995565b508094505050505090565b600073ffffffffffffffffffffffffffffffffffffffff168273ffffffffffffffffffffffffffffffffffffffff1603610be15760006040517f64a0ae92000000000000000000000000000000000000000000000000000000008152600401610bd89190612eb7565b60405180910390fd5b6000610bf58383610bf0611cdd565b611cf7565b90508373ffffffffffffffffffffffffffffffffffffffff168173ffffffffffffffffffffffffffffffffffffffff1614610c6b578382826040517f64283d7b000000000000000000000000000000000000000000000000000000008152600401610c62939291906135e8565b60405180910390fd5b50505050565b60606000600854905060008060005b83811015610d5a57600d6000600183610c99919061353d565b815260200190815260200160002060040160009054906101000a900460ff16158015610d3257503073ffffffffffffffffffffffffffffffffffffffff16600d6000600184610ce8919061353d565b815260200190815260200160002060020160009054906101000a900473ffffffffffffffffffffffffffffffffffffffff1673ffffffffffffffffffffffffffffffffffffffff16145b15610d4757600183610d44919061353d565b92505b8080610d52906135a0565b915050610c80565b5060008267ffffffffffffffff811115610d7757610d76613113565b5b604051908082528060200260200182016040528015610db057816020015b610d9d612c35565b815260200190600190039081610d955790505b50905060005b84811015610f6a576000600182610dcd919061353d565b90503073ffffffffffffffffffffffffffffffffffffffff16600d600083815260200190815260200160002060020160009054906101000a900473ffffffffffffffffffffffffffffffffffffffff1673ffffffffffffffffffffffffffffffffffffffff1603610f56576000600d60008381526020019081526020016000209050806040518060a0016040529081600082015481526020016001820160009054906101000a900473ffffffffffffffffffffffffffffffffffffffff1673ffffffffffffffffffffffffffffffffffffffff1673ffffffffffffffffffffffffffffffffffffffff1681526020016002820160009054906101000a900473ffffffffffffffffffffffffffffffffffffffff1673ffffffffffffffffffffffffffffffffffffffff1673ffffffffffffffffffffffffffffffffffffffff168152602001600382015481526020016004820160009054906101000a900460ff161515151581525050848681518110610f4957610f48613571565b5b6020026020010181905250505b508080610f62906135a0565b915050610db6565b508094505050505090565b610f908383836040518060200160405280600081525061143c565b505050565b6000600160086000828254610faa919061353d565b9250508190555060006008549050610fc23382611f11565b610fcc818461200a565b807fcb661657f66ac19fb1f6c039deade644f08ecfdfbfe04e45918d9a19f26b35ed8433604051610ffe92919061361f565b60405180910390a280915050919050565b600061101a82611c18565b9050919050565b60008073ffffffffffffffffffffffffffffffffffffffff168273ffffffffffffffffffffffffffffffffffffffff16036110945760006040517f89c62b6400000000000000000000000000000000000000000000000000000000815260040161108b9190612eb7565b60405180910390fd5b600460008373ffffffffffffffffffffffffffffffffffffffff1673ffffffffffffffffffffffffffffffffffffffff168152602001908152602001600020549050919050565b6000600e60003373ffffffffffffffffffffffffffffffffffffffff1673ffffffffffffffffffffffffffffffffffffffff16815260200190815260200160002054905060008111611162576040517f08c379a0000000000000000000000000000000000000000000000000000000008152600401611159906136c1565b60405180910390fd5b804710156111a5576040517f08c379a000000000000000000000000000000000000000000000000000000000815260040161119c90613753565b60405180910390fd5b6000600e60003373ffffffffffffffffffffffffffffffffffffffff1673ffffffffffffffffffffffffffffffffffffffff168152602001908152602001600020819055503373ffffffffffffffffffffffffffffffffffffffff166108fc829081150290604051600060405180830381858888f19350505050158015611230573d6000803e3d6000fd5b5050565b606060028054611243906134dd565b80601f016020809104026020016040519081016040528092919081815260200182805461126f906134dd565b80156112bc5780601f10611291576101008083540402835291602001916112bc565b820191906000526020600020905b81548152906001019060200180831161129f57829003601f168201915b5050505050905090565b6000600e60008373ffffffffffffffffffffffffffffffffffffffff1673ffffffffffffffffffffffffffffffffffffffff168152602001908152602001600020549050919050565b61132161131a611cdd565b8383612066565b5050565b61132d6121d5565b600d600082815260200190815260200160002060010160009054906101000a900473ffffffffffffffffffffffffffffffffffffffff1673ffffffffffffffffffffffffffffffffffffffff163373ffffffffffffffffffffffffffffffffffffffff16146113d1576040517f08c379a00000000000000000000000000000000000000000000000000000000081526004016113c8906137bf565b60405180910390fd5b33600d600083815260200190815260200160002060020160006101000a81548173ffffffffffffffffffffffffffffffffffffffff021916908373ffffffffffffffffffffffffffffffffffffffff160217905550611431303383610b6f565b61143961221b565b50565b611447848484610b6f565b61145384848484612225565b50505050565b3373ffffffffffffffffffffffffffffffffffffffff16600a60009054906101000a900473ffffffffffffffffffffffffffffffffffffffff1673ffffffffffffffffffffffffffffffffffffffff16146114e9576040517f08c379a00000000000000000000000000000000000000000000000000000000081526004016114e090613851565b60405180910390fd5b80600b8190555050565b6000600d60008381526020019081526020016000206003015490506000600d600084815260200190815260200160002060010160009054906101000a900473ffffffffffffffffffffffffffffffffffffffff16905081341461158b576040517f08c379a0000000000000000000000000000000000000000000000000000000008152600401611582906138e3565b60405180910390fd5b6000600c54600b548461159e9190613903565b6115a89190613974565b9050600081846115b891906139a5565b90506115c483826123dc565b33600d600087815260200190815260200160002060020160006101000a81548173ffffffffffffffffffffffffffffffffffffffff021916908373ffffffffffffffffffffffffffffffffffffffff1602179055506001600d600087815260200190815260200160002060040160006101000a81548160ff02191690831515021790555060016009600082825461165b919061353d565b9250508190555061168e600a60009054906101000a900473ffffffffffffffffffffffffffffffffffffffff16836123dc565b611699303387612436565b5050505050565b60606116ab82611c18565b5060006007600084815260200190815260200160002080546116cc906134dd565b80601f01602080910402602001604051908101604052809291908181526020018280546116f8906134dd565b80156117455780601f1061171a57610100808354040283529160200191611745565b820191906000526020600020905b81548152906001019060200180831161172857829003601f168201915b5050505050905060006117566125a3565b9050600081510361176b5781925050506117ae565b6000825111156117a0578082604051602001611788929190613a15565b604051602081830303815290604052925050506117ae565b6117a9846125ba565b925050505b919050565b6000600b54905090565b6000600660008473ffffffffffffffffffffffffffffffffffffffff1673ffffffffffffffffffffffffffffffffffffffff16815260200190815260200160002060008373ffffffffffffffffffffffffffffffffffffffff1673ffffffffffffffffffffffffffffffffffffffff16815260200190815260200160002060009054906101000a900460ff16905092915050565b60606000600854905060008060005b83811015611900573373ffffffffffffffffffffffffffffffffffffffff16600d6000600184611890919061353d565b815260200190815260200160002060010160009054906101000a900473ffffffffffffffffffffffffffffffffffffffff1673ffffffffffffffffffffffffffffffffffffffff16036118ed576001836118ea919061353d565b92505b80806118f8906135a0565b915050611860565b5060008267ffffffffffffffff81111561191d5761191c613113565b5b60405190808252806020026020018201604052801561195657816020015b611943612c35565b81526020019060019003908161193b5790505b50905060005b84811015611b2b573373ffffffffffffffffffffffffffffffffffffffff16600d600060018461198c919061353d565b815260200190815260200160002060010160009054906101000a900473ffffffffffffffffffffffffffffffffffffffff1673ffffffffffffffffffffffffffffffffffffffff1603611b185760006001826119e8919061353d565b90506000600d60008381526020019081526020016000209050806040518060a0016040529081600082015481526020016001820160009054906101000a900473ffffffffffffffffffffffffffffffffffffffff1673ffffffffffffffffffffffffffffffffffffffff1673ffffffffffffffffffffffffffffffffffffffff1681526020016002820160009054906101000a900473ffffffffffffffffffffffffffffffffffffffff1673ffffffffffffffffffffffffffffffffffffffff1673ffffffffffffffffffffffffffffffffffffffff168152602001600382015481526020016004820160009054906101000a900460ff161515151581525050848681518110611afb57611afa613571565b5b6020026020010181905250600185611b13919061353d565b945050505b8080611b23906135a0565b91505061195c565b508094505050505090565b60007f80ac58cd000000000000000000000000000000000000000000000000000000007bffffffffffffffffffffffffffffffffffffffffffffffffffffffff1916827bffffffffffffffffffffffffffffffffffffffffffffffffffffffff19161480611c0157507f5b5e139f000000000000000000000000000000000000000000000000000000007bffffffffffffffffffffffffffffffffffffffffffffffffffffffff1916827bffffffffffffffffffffffffffffffffffffffffffffffffffffffff1916145b80611c115750611c1082612623565b5b9050919050565b600080611c248361268d565b9050600073ffffffffffffffffffffffffffffffffffffffff168173ffffffffffffffffffffffffffffffffffffffff1603611c9757826040517f7e273289000000000000000000000000000000000000000000000000000000008152600401611c8e9190613296565b60405180910390fd5b80915050919050565b60006005600083815260200190815260200160002060009054906101000a900473ffffffffffffffffffffffffffffffffffffffff169050919050565b600033905090565b611cf283838360016126ca565b505050565b600080611d038461268d565b9050600073ffffffffffffffffffffffffffffffffffffffff168373ffffffffffffffffffffffffffffffffffffffff1614611d4557611d4481848661288f565b5b600073ffffffffffffffffffffffffffffffffffffffff168173ffffffffffffffffffffffffffffffffffffffff1614611dd657611d876000856000806126ca565b6001600460008373ffffffffffffffffffffffffffffffffffffffff1673ffffffffffffffffffffffffffffffffffffffff168152602001908152602001600020600082825403925050819055505b600073ffffffffffffffffffffffffffffffffffffffff168573ffffffffffffffffffffffffffffffffffffffff1614611e59576001600460008773ffffffffffffffffffffffffffffffffffffffff1673ffffffffffffffffffffffffffffffffffffffff168152602001908152602001600020600082825401925050819055505b846003600086815260200190815260200160002060006101000a81548173ffffffffffffffffffffffffffffffffffffffff021916908373ffffffffffffffffffffffffffffffffffffffff160217905550838573ffffffffffffffffffffffffffffffffffffffff168273ffffffffffffffffffffffffffffffffffffffff167fddf252ad1be2c89b69c2b068fc378daa952ba7f163c4a11628f55a4df523b3ef60405160405180910390a4809150509392505050565b600073ffffffffffffffffffffffffffffffffffffffff168273ffffffffffffffffffffffffffffffffffffffff1603611f835760006040517f64a0ae92000000000000000000000000000000000000000000000000000000008152600401611f7a9190612eb7565b60405180910390fd5b6000611f9183836000611cf7565b9050600073ffffffffffffffffffffffffffffffffffffffff168173ffffffffffffffffffffffffffffffffffffffff16146120055760006040517f73c6ac6e000000000000000000000000000000000000000000000000000000008152600401611ffc9190612eb7565b60405180910390fd5b505050565b8060076000848152602001908152602001600020908161202a9190613be5565b507ff8e1a15aba9398e019f0b49df1a4fde98ee17ae345cb5f6b5e2c27f5033e8ce78260405161205a9190613296565b60405180910390a15050565b600073ffffffffffffffffffffffffffffffffffffffff168273ffffffffffffffffffffffffffffffffffffffff16036120d757816040517f5b08ba180000000000000000000000000000000000000000000000000000000081526004016120ce9190612eb7565b60405180910390fd5b80600660008573ffffffffffffffffffffffffffffffffffffffff1673ffffffffffffffffffffffffffffffffffffffff16815260200190815260200160002060008473ffffffffffffffffffffffffffffffffffffffff1673ffffffffffffffffffffffffffffffffffffffff16815260200190815260200160002060006101000a81548160ff0219169083151502179055508173ffffffffffffffffffffffffffffffffffffffff168373ffffffffffffffffffffffffffffffffffffffff167f17307eab39ab6107e8899845ad3d59bd9653f200f220920489ca2b5937696c31836040516121c89190612d46565b60405180910390a3505050565b600260005403612211576040517f3ee5aeb500000000000000000000000000000000000000000000000000000000815260040160405180910390fd5b6002600081905550565b6001600081905550565b60008373ffffffffffffffffffffffffffffffffffffffff163b11156123d6578273ffffffffffffffffffffffffffffffffffffffff1663150b7a02612269611cdd565b8685856040518563ffffffff1660e01b815260040161228b9493929190613d0c565b6020604051808303816000875af19250505080156122c757506040513d601f19601f820116820180604052508101906122c49190613d6d565b60015b61234b573d80600081146122f7576040519150601f19603f3d011682016040523d82523d6000602084013e6122fc565b606091505b50600081510361234357836040517f64a0ae9200000000000000000000000000000000000000000000000000000000815260040161233a9190612eb7565b60405180910390fd5b805181602001fd5b63150b7a0260e01b7bffffffffffffffffffffffffffffffffffffffffffffffffffffffff1916817bffffffffffffffffffffffffffffffffffffffffffffffffffffffff1916146123d457836040517f64a0ae920000000000000000000000000000000000000000000000000000000081526004016123cb9190612eb7565b60405180910390fd5b505b50505050565b80600e60008473ffffffffffffffffffffffffffffffffffffffff1673ffffffffffffffffffffffffffffffffffffffff168152602001908152602001600020600082825461242b919061353d565b925050819055505050565b600073ffffffffffffffffffffffffffffffffffffffff168273ffffffffffffffffffffffffffffffffffffffff16036124a85760006040517f64a0ae9200000000000000000000000000000000000000000000000000000000815260040161249f9190612eb7565b60405180910390fd5b60006124b683836000611cf7565b9050600073ffffffffffffffffffffffffffffffffffffffff168173ffffffffffffffffffffffffffffffffffffffff160361252957816040517f7e2732890000000000000000000000000000000000000000000000000000000081526004016125209190613296565b60405180910390fd5b8373ffffffffffffffffffffffffffffffffffffffff168173ffffffffffffffffffffffffffffffffffffffff161461259d578382826040517f64283d7b000000000000000000000000000000000000000000000000000000008152600401612594939291906135e8565b60405180910390fd5b50505050565b606060405180602001604052806000815250905090565b60606125c582611c18565b5060006125d06125a3565b905060008151116125f0576040518060200160405280600081525061261b565b806125fa84612953565b60405160200161260b929190613a15565b6040516020818303038152906040525b915050919050565b60007f01ffc9a7000000000000000000000000000000000000000000000000000000007bffffffffffffffffffffffffffffffffffffffffffffffffffffffff1916827bffffffffffffffffffffffffffffffffffffffffffffffffffffffff1916149050919050565b60006003600083815260200190815260200160002060009054906101000a900473ffffffffffffffffffffffffffffffffffffffff169050919050565b80806127035750600073ffffffffffffffffffffffffffffffffffffffff168273ffffffffffffffffffffffffffffffffffffffff1614155b1561283757600061271384611c18565b9050600073ffffffffffffffffffffffffffffffffffffffff168373ffffffffffffffffffffffffffffffffffffffff161415801561277e57508273ffffffffffffffffffffffffffffffffffffffff168173ffffffffffffffffffffffffffffffffffffffff1614155b8015612791575061278f81846117bd565b155b156127d357826040517fa9fbf51f0000000000000000000000000000000000000000000000000000000081526004016127ca9190612eb7565b60405180910390fd5b811561283557838573ffffffffffffffffffffffffffffffffffffffff168273ffffffffffffffffffffffffffffffffffffffff167f8c5be1e5ebec7d5bd14f71427d1e84f3dd0314c0f7b2291e5b200ac8c7c3b92560405160405180910390a45b505b836005600085815260200190815260200160002060006101000a81548173ffffffffffffffffffffffffffffffffffffffff021916908373ffffffffffffffffffffffffffffffffffffffff16021790555050505050565b61289a838383612a21565b61294e57600073ffffffffffffffffffffffffffffffffffffffff168373ffffffffffffffffffffffffffffffffffffffff160361290f57806040517f7e2732890000000000000000000000000000000000000000000000000000000081526004016129069190613296565b60405180910390fd5b81816040517f177e802f000000000000000000000000000000000000000000000000000000008152600401612945929190613d9a565b60405180910390fd5b505050565b60606000600161296284612ae2565b01905060008167ffffffffffffffff81111561298157612980613113565b5b6040519080825280601f01601f1916602001820160405280156129b35781602001600182028036833780820191505090505b509050600082602001820190505b600115612a16578080600190039150507f3031323334353637383961626364656600000000000000000000000000000000600a86061a8153600a8581612a0a57612a09613945565b5b049450600085036129c1575b819350505050919050565b60008073ffffffffffffffffffffffffffffffffffffffff168373ffffffffffffffffffffffffffffffffffffffff1614158015612ad957508273ffffffffffffffffffffffffffffffffffffffff168473ffffffffffffffffffffffffffffffffffffffff161480612a9a5750612a9984846117bd565b5b80612ad857508273ffffffffffffffffffffffffffffffffffffffff16612ac083611ca0565b73ffffffffffffffffffffffffffffffffffffffff16145b5b90509392505050565b600080600090507a184f03e93ff9f4daa797ed6e38ed64bf6a1f0100000000000000008310612b40577a184f03e93ff9f4daa797ed6e38ed64bf6a1f0100000000000000008381612b3657612b35613945565b5b0492506040810190505b6d04ee2d6d415b85acef81000000008310612b7d576d04ee2d6d415b85acef81000000008381612b7357612b72613945565b5b0492506020810190505b662386f26fc100008310612bac57662386f26fc100008381612ba257612ba1613945565b5b0492506010810190505b6305f5e1008310612bd5576305f5e1008381612bcb57612bca613945565b5b0492506008810190505b6127108310612bfa576127108381612bf057612bef613945565b5b0492506004810190505b60648310612c1d5760648381612c1357612c12613945565b5b0492506002810190505b600a8310612c2c576001810190505b80915050919050565b6040518060a0016040528060008152602001600073ffffffffffffffffffffffffffffffffffffffff168152602001600073ffffffffffffffffffffffffffffffffffffffff168152602001600081526020016000151581525090565b6000604051905090565b600080fd5b600080fd5b60007fffffffff0000000000000000000000000000000000000000000000000000000082169050919050565b612cdb81612ca6565b8114612ce657600080fd5b50565b600081359050612cf881612cd2565b92915050565b600060208284031215612d1457612d13612c9c565b5b6000612d2284828501612ce9565b91505092915050565b60008115159050919050565b612d4081612d2b565b82525050565b6000602082019050612d5b6000830184612d37565b92915050565b600081519050919050565b600082825260208201905092915050565b60005b83811015612d9b578082015181840152602081019050612d80565b60008484015250505050565b6000601f19601f8301169050919050565b6000612dc382612d61565b612dcd8185612d6c565b9350612ddd818560208601612d7d565b612de681612da7565b840191505092915050565b60006020820190508181036000830152612e0b8184612db8565b905092915050565b6000819050919050565b612e2681612e13565b8114612e3157600080fd5b50565b600081359050612e4381612e1d565b92915050565b600060208284031215612e5f57612e5e612c9c565b5b6000612e6d84828501612e34565b91505092915050565b600073ffffffffffffffffffffffffffffffffffffffff82169050919050565b6000612ea182612e76565b9050919050565b612eb181612e96565b82525050565b6000602082019050612ecc6000830184612ea8565b92915050565b612edb81612e96565b8114612ee657600080fd5b50565b600081359050612ef881612ed2565b92915050565b60008060408385031215612f1557612f14612c9c565b5b6000612f2385828601612ee9565b9250506020612f3485828601612e34565b9150509250929050565b600081519050919050565b600082825260208201905092915050565b6000819050602082019050919050565b612f7381612e13565b82525050565b6000612f8482612e76565b9050919050565b612f9481612f79565b82525050565b612fa381612d2b565b82525050565b60a082016000820151612fbf6000850182612f6a565b506020820151612fd26020850182612f8b565b506040820151612fe56040850182612f8b565b506060820151612ff86060850182612f6a565b50608082015161300b6080850182612f9a565b50505050565b600061301d8383612fa9565b60a08301905092915050565b6000602082019050919050565b600061304182612f3e565b61304b8185612f49565b935061305683612f5a565b8060005b8381101561308757815161306e8882613011565b975061307983613029565b92505060018101905061305a565b5085935050505092915050565b600060208201905081810360008301526130ae8184613036565b905092915050565b6000806000606084860312156130cf576130ce612c9c565b5b60006130dd86828701612ee9565b93505060206130ee86828701612ee9565b92505060406130ff86828701612e34565b9150509250925092565b600080fd5b600080fd5b7f4e487b7100000000000000000000000000000000000000000000000000000000600052604160045260246000fd5b61314b82612da7565b810181811067ffffffffffffffff8211171561316a57613169613113565b5b80604052505050565b600061317d612c92565b90506131898282613142565b919050565b600067ffffffffffffffff8211156131a9576131a8613113565b5b6131b282612da7565b9050602081019050919050565b82818337600083830152505050565b60006131e16131dc8461318e565b613173565b9050828152602081018484840111156131fd576131fc61310e565b5b6132088482856131bf565b509392505050565b600082601f83011261322557613224613109565b5b81356132358482602086016131ce565b91505092915050565b60006020828403121561325457613253612c9c565b5b600082013567ffffffffffffffff81111561327257613271612ca1565b5b61327e84828501613210565b91505092915050565b61329081612e13565b82525050565b60006020820190506132ab6000830184613287565b92915050565b6000602082840312156132c7576132c6612c9c565b5b60006132d584828501612ee9565b91505092915050565b6132e781612d2b565b81146132f257600080fd5b50565b600081359050613304816132de565b92915050565b6000806040838503121561332157613320612c9c565b5b600061332f85828601612ee9565b9250506020613340858286016132f5565b9150509250929050565b600067ffffffffffffffff82111561336557613364613113565b5b61336e82612da7565b9050602081019050919050565b600061338e6133898461334a565b613173565b9050828152602081018484840111156133aa576133a961310e565b5b6133b58482856131bf565b509392505050565b600082601f8301126133d2576133d1613109565b5b81356133e284826020860161337b565b91505092915050565b6000806000806080858703121561340557613404612c9c565b5b600061341387828801612ee9565b945050602061342487828801612ee9565b935050604061343587828801612e34565b925050606085013567ffffffffffffffff81111561345657613455612ca1565b5b613462878288016133bd565b91505092959194509250565b6000806040838503121561348557613484612c9c565b5b600061349385828601612ee9565b92505060206134a485828601612ee9565b9150509250929050565b7f4e487b7100000000000000000000000000000000000000000000000000000000600052602260045260246000fd5b600060028204905060018216806134f557607f821691505b602082108103613508576135076134ae565b5b50919050565b7f4e487b7100000000000000000000000000000000000000000000000000000000600052601160045260246000fd5b600061354882612e13565b915061355383612e13565b925082820190508082111561356b5761356a61350e565b5b92915050565b7f4e487b7100000000000000000000000000000000000000000000000000000000600052603260045260246000fd5b60006135ab82612e13565b91507fffffffffffffffffffffffffffffffffffffffffffffffffffffffffffffffff82036135dd576135dc61350e565b5b600182019050919050565b60006060820190506135fd6000830186612ea8565b61360a6020830185613287565b6136176040830184612ea8565b949350505050565b600060408201905081810360008301526136398185612db8565b90506136486020830184612ea8565b9392505050565b7f546865726520617265206e6f206372656469747320696e20746869732072656360008201527f697069656e742061646472657373000000000000000000000000000000000000602082015250565b60006136ab602e83612d6c565b91506136b68261364f565b604082019050919050565b600060208201905081810360008301526136da8161369e565b9050919050565b7f546865726520617265206e6f206372656469747320696e207468697320636f6e60008201527f7472616374206164647265737300000000000000000000000000000000000000602082015250565b600061373d602d83612d6c565b9150613748826136e1565b604082019050919050565b6000602082019050818103600083015261376c81613730565b9050919050565b7f4f6e6c792063726561746f72206d617920756e6c69737420616e206974656d00600082015250565b60006137a9601f83612d6c565b91506137b482613773565b602082019050919050565b600060208201905081810360008301526137d88161379c565b9050919050565b7f4f6e6c79206d61726b6574706c616365206d61726b6574706c6163656f776e6560008201527f722063616e20757064617465207265776172642070657263656e746167652e00602082015250565b600061383b603f83612d6c565b9150613846826137df565b604082019050919050565b6000602082019050818103600083015261386a8161382e565b9050919050565b7f506c65617365207375626d6974207468652061736b696e67207072696365206960008201527f6e206f7264657220746f20636f6d706c65746520746865207075726368617365602082015250565b60006138cd604083612d6c565b91506138d882613871565b604082019050919050565b600060208201905081810360008301526138fc816138c0565b9050919050565b600061390e82612e13565b915061391983612e13565b925082820261392781612e13565b9150828204841483151761393e5761393d61350e565b5b5092915050565b7f4e487b7100000000000000000000000000000000000000000000000000000000600052601260045260246000fd5b600061397f82612e13565b915061398a83612e13565b92508261399a57613999613945565b5b828204905092915050565b60006139b082612e13565b91506139bb83612e13565b92508282039050818111156139d3576139d261350e565b5b92915050565b600081905092915050565b60006139ef82612d61565b6139f981856139d9565b9350613a09818560208601612d7d565b80840191505092915050565b6000613a2182856139e4565b9150613a2d82846139e4565b91508190509392505050565b60008190508160005260206000209050919050565b60006020601f8301049050919050565b600082821b905092915050565b600060088302613a9b7fffffffffffffffffffffffffffffffffffffffffffffffffffffffffffffffff82613a5e565b613aa58683613a5e565b95508019841693508086168417925050509392505050565b6000819050919050565b6000613ae2613add613ad884612e13565b613abd565b612e13565b9050919050565b6000819050919050565b613afc83613ac7565b613b10613b0882613ae9565b848454613a6b565b825550505050565b600090565b613b25613b18565b613b30818484613af3565b505050565b5b81811015613b5457613b49600082613b1d565b600181019050613b36565b5050565b601f821115613b9957613b6a81613a39565b613b7384613a4e565b81016020851015613b82578190505b613b96613b8e85613a4e565b830182613b35565b50505b505050565b600082821c905092915050565b6000613bbc60001984600802613b9e565b1980831691505092915050565b6000613bd58383613bab565b9150826002028217905092915050565b613bee82612d61565b67ffffffffffffffff811115613c0757613c06613113565b5b613c1182546134dd565b613c1c828285613b58565b600060209050601f831160018114613c4f5760008415613c3d578287015190505b613c478582613bc9565b865550613caf565b601f198416613c5d86613a39565b60005b82811015613c8557848901518255600182019150602085019450602081019050613c60565b86831015613ca25784890151613c9e601f891682613bab565b8355505b6001600288020188555050505b505050505050565b600081519050919050565b600082825260208201905092915050565b6000613cde82613cb7565b613ce88185613cc2565b9350613cf8818560208601612d7d565b613d0181612da7565b840191505092915050565b6000608082019050613d216000830187612ea8565b613d2e6020830186612ea8565b613d3b6040830185613287565b8181036060830152613d4d8184613cd3565b905095945050505050565b600081519050613d6781612cd2565b92915050565b600060208284031215613d8357613d82612c9c565b5b6000613d9184828501613d58565b91505092915050565b6000604082019050613daf6000830185612ea8565b613dbc6020830184613287565b939250505056fea26469706673582212205bc6b0b93febb51c3eb66668bf4d16a38cb8bd6451e2a50864e427869b5f584364736f6c63430008140033",
  "linkReferences": {},
  "deployedLinkReferences": {}
}