{
  "_format": "hh-sol-artifact-1",
  "contractName": "FRDNFTMarketPlace",
  "sourceName": "contracts/FRDNFTMarketPlace.sol",
  "abi": [
    {
      "inputs": [],
      "stateMutability": "nonpayable",
      "type": "constructor"
    },
    {
      "inputs": [
        {
          "internalType": "address",
          "name": "sender",
          "type": "address"
        },
        {
          "internalType": "uint256",
          "name": "tokenId",
          "type": "uint256"
        },
        {
          "internalType": "address",
          "name": "owner",
          "type": "address"
        }
      ],
      "name": "ERC721IncorrectOwner",
      "type": "error"
    },
    {
      "inputs": [
        {
          "internalType": "address",
          "name": "operator",
          "type": "address"
        },
        {
          "internalType": "uint256",
          "name": "tokenId",
          "type": "uint256"
        }
      ],
      "name": "ERC721InsufficientApproval",
      "type": "error"
    },
    {
      "inputs": [
        {
          "internalType": "address",
          "name": "approver",
          "type": "address"
        }
      ],
      "name": "ERC721InvalidApprover",
      "type": "error"
    },
    {
      "inputs": [
        {
          "internalType": "address",
          "name": "operator",
          "type": "address"
        }
      ],
      "name": "ERC721InvalidOperator",
      "type": "error"
    },
    {
      "inputs": [
        {
          "internalType": "address",
          "name": "owner",
          "type": "address"
        }
      ],
      "name": "ERC721InvalidOwner",
      "type": "error"
    },
    {
      "inputs": [
        {
          "internalType": "address",
          "name": "receiver",
          "type": "address"
        }
      ],
      "name": "ERC721InvalidReceiver",
      "type": "error"
    },
    {
      "inputs": [
        {
          "internalType": "address",
          "name": "sender",
          "type": "address"
        }
      ],
      "name": "ERC721InvalidSender",
      "type": "error"
    },
    {
      "inputs": [
        {
          "internalType": "uint256",
          "name": "tokenId",
          "type": "uint256"
        }
      ],
      "name": "ERC721NonexistentToken",
      "type": "error"
    },
    {
      "inputs": [],
      "name": "ReentrancyGuardReentrantCall",
      "type": "error"
    },
    {
      "anonymous": false,
      "inputs": [
        {
          "indexed": true,
          "internalType": "address",
          "name": "owner",
          "type": "address"
        },
        {
          "indexed": true,
          "internalType": "address",
          "name": "approved",
          "type": "address"
        },
        {
          "indexed": true,
          "internalType": "uint256",
          "name": "tokenId",
          "type": "uint256"
        }
      ],
      "name": "Approval",
      "type": "event"
    },
    {
      "anonymous": false,
      "inputs": [
        {
          "indexed": true,
          "internalType": "address",
          "name": "owner",
          "type": "address"
        },
        {
          "indexed": true,
          "internalType": "address",
          "name": "operator",
          "type": "address"
        },
        {
          "indexed": false,
          "internalType": "bool",
          "name": "approved",
          "type": "bool"
        }
      ],
      "name": "ApprovalForAll",
      "type": "event"
    },
    {
      "anonymous": false,
      "inputs": [
        {
          "indexed": true,
          "internalType": "uint256",
          "name": "tokenId",
          "type": "uint256"
        },
        {
          "indexed": true,
          "internalType": "uint256",
          "name": "itemId",
          "type": "uint256"
        },
        {
          "indexed": true,
          "internalType": "string",
          "name": "tokenURI",
          "type": "string"
        }
      ],
      "name": "AuctionItemCreated",
      "type": "event"
    },
    {
      "anonymous": false,
      "inputs": [
        {
          "indexed": false,
          "internalType": "uint256",
          "name": "_fromTokenId",
          "type": "uint256"
        },
        {
          "indexed": false,
          "internalType": "uint256",
          "name": "_toTokenId",
          "type": "uint256"
        }
      ],
      "name": "BatchMetadataUpdate",
      "type": "event"
    },
    {
      "anonymous": false,
      "inputs": [
        {
          "indexed": true,
          "internalType": "uint256",
          "name": "itemId",
          "type": "uint256"
        },
        {
          "indexed": false,
          "internalType": "address",
          "name": "bidderaddress",
          "type": "address"
        },
        {
          "indexed": false,
          "internalType": "uint256",
          "name": "biddingprice",
          "type": "uint256"
        }
      ],
      "name": "BidPlaced",
      "type": "event"
    },
    {
      "anonymous": false,
      "inputs": [
        {
          "indexed": true,
          "internalType": "uint256",
          "name": "itemId",
          "type": "uint256"
        },
        {
          "indexed": false,
          "internalType": "address",
          "name": "bidderaddress",
          "type": "address"
        },
        {
          "indexed": false,
          "internalType": "uint256",
          "name": "amount",
          "type": "uint256"
        }
      ],
      "name": "BidRefunded",
      "type": "event"
    },
    {
      "anonymous": false,
      "inputs": [
        {
          "indexed": true,
          "internalType": "uint256",
          "name": "itemId",
          "type": "uint256"
        },
        {
          "indexed": false,
          "internalType": "address",
          "name": "bidderaddress",
          "type": "address"
        },
        {
          "indexed": false,
          "internalType": "uint256",
          "name": "amount",
          "type": "uint256"
        }
      ],
      "name": "ItemSold",
      "type": "event"
    },
    {
      "anonymous": false,
      "inputs": [
        {
          "indexed": true,
          "internalType": "uint256",
          "name": "itemId",
          "type": "uint256"
        },
        {
          "indexed": false,
          "internalType": "address",
          "name": "receiver",
          "type": "address"
        }
      ],
      "name": "ItemTransferred",
      "type": "event"
    },
    {
      "anonymous": false,
      "inputs": [
        {
          "indexed": false,
          "internalType": "uint256",
          "name": "_tokenId",
          "type": "uint256"
        }
      ],
      "name": "MetadataUpdate",
      "type": "event"
    },
    {
      "anonymous": false,
      "inputs": [
        {
          "indexed": true,
          "internalType": "uint256",
          "name": "tokenId",
          "type": "uint256"
        },
        {
          "indexed": false,
          "internalType": "string",
          "name": "tokenURI",
          "type": "string"
        },
        {
          "indexed": false,
          "internalType": "address",
          "name": "creator",
          "type": "address"
        }
      ],
      "name": "NFTMinted",
      "type": "event"
    },
    {
      "anonymous": false,
      "inputs": [
        {
          "indexed": true,
          "internalType": "address",
          "name": "from",
          "type": "address"
        },
        {
          "indexed": true,
          "internalType": "address",
          "name": "to",
          "type": "address"
        },
        {
          "indexed": true,
          "internalType": "uint256",
          "name": "tokenId",
          "type": "uint256"
        }
      ],
      "name": "Transfer",
      "type": "event"
    },
    {
      "anonymous": false,
      "inputs": [
        {
          "indexed": true,
          "internalType": "uint256",
          "name": "tokenId",
          "type": "uint256"
        },
        {
          "indexed": true,
          "internalType": "uint256",
          "name": "itemId",
          "type": "uint256"
        },
        {
          "indexed": false,
          "internalType": "uint256",
          "name": "newminbidamount",
          "type": "uint256"
        },
        {
          "indexed": false,
          "internalType": "uint256",
          "name": "newsellingprice",
          "type": "uint256"
        }
      ],
      "name": "updateBiddingPrice",
      "type": "event"
    },
    {
      "inputs": [
        {
          "internalType": "uint256",
          "name": "itemId",
          "type": "uint256"
        },
        {
          "internalType": "uint256",
          "name": "amount",
          "type": "uint256"
        }
      ],
      "name": "DirectNFTSale",
      "outputs": [],
      "stateMutability": "payable",
      "type": "function"
    },
    {
      "inputs": [
        {
          "internalType": "uint256",
          "name": "itemId",
          "type": "uint256"
        }
      ],
      "name": "ListBackAuctionItem",
      "outputs": [],
      "stateMutability": "payable",
      "type": "function"
    },
    {
      "inputs": [
        {
          "internalType": "uint256",
          "name": "itemId",
          "type": "uint256"
        }
      ],
      "name": "acceptHighestBid",
      "outputs": [],
      "stateMutability": "payable",
      "type": "function"
    },
    {
      "inputs": [
        {
          "internalType": "address",
          "name": "to",
          "type": "address"
        },
        {
          "internalType": "uint256",
          "name": "tokenId",
          "type": "uint256"
        }
      ],
      "name": "approve",
      "outputs": [],
      "stateMutability": "nonpayable",
      "type": "function"
    },
    {
      "inputs": [
        {
          "internalType": "address",
          "name": "owner",
          "type": "address"
        }
      ],
      "name": "balanceOf",
      "outputs": [
        {
          "internalType": "uint256",
          "name": "",
          "type": "uint256"
        }
      ],
      "stateMutability": "view",
      "type": "function"
    },
    {
      "inputs": [
        {
          "internalType": "uint256",
          "name": "itemId",
          "type": "uint256"
        },
        {
          "internalType": "uint256",
          "name": "biddingprice_",
          "type": "uint256"
        }
      ],
      "name": "bidOnNFT",
      "outputs": [],
      "stateMutability": "payable",
      "type": "function"
    },
    {
      "inputs": [
        {
          "internalType": "uint256",
          "name": "tokenId",
          "type": "uint256"
        },
        {
          "internalType": "uint256",
          "name": "sellingprice",
          "type": "uint256"
        },
        {
          "internalType": "uint256",
          "name": "duration",
          "type": "uint256"
        },
        {
          "internalType": "uint256",
          "name": "minbidamount",
          "type": "uint256"
        },
        {
          "internalType": "uint256",
          "name": "creatorsalesroyalty",
          "type": "uint256"
        },
        {
          "internalType": "uint256",
          "name": "dcp",
          "type": "uint256"
        }
      ],
      "name": "createAuctionItem",
      "outputs": [],
      "stateMutability": "nonpayable",
      "type": "function"
    },
    {
      "inputs": [
        {
          "internalType": "string",
          "name": "tokenURI",
          "type": "string"
        }
      ],
      "name": "createToken",
      "outputs": [
        {
          "internalType": "uint256",
          "name": "",
          "type": "uint256"
        }
      ],
      "stateMutability": "nonpayable",
      "type": "function"
    },
    {
      "inputs": [
        {
          "internalType": "uint256",
          "name": "itemId",
          "type": "uint256"
        }
      ],
      "name": "getAllBidsForItem",
      "outputs": [
        {
          "components": [
            {
              "internalType": "uint256",
              "name": "biddingtime",
              "type": "uint256"
            },
            {
              "internalType": "address payable",
              "name": "bidderaddress",
              "type": "address"
            },
            {
              "internalType": "uint256",
              "name": "biddingprice",
              "type": "uint256"
            },
            {
              "internalType": "bool",
              "name": "biddingsuccess",
              "type": "bool"
            },
            {
              "internalType": "bool",
              "name": "wasitempurchased",
              "type": "bool"
            }
          ],
          "internalType": "struct Bid[]",
          "name": "",
          "type": "tuple[]"
        }
      ],
      "stateMutability": "view",
      "type": "function"
    },
    {
      "inputs": [],
      "name": "getAllItemIdsCount",
      "outputs": [
        {
          "internalType": "uint256",
          "name": "",
          "type": "uint256"
        }
      ],
      "stateMutability": "view",
      "type": "function"
    },
    {
      "inputs": [],
      "name": "getAllNFTMintsCount",
      "outputs": [
        {
          "internalType": "uint256",
          "name": "",
          "type": "uint256"
        }
      ],
      "stateMutability": "view",
      "type": "function"
    },
    {
      "inputs": [
        {
          "internalType": "uint256",
          "name": "tokenId",
          "type": "uint256"
        }
      ],
      "name": "getApproved",
      "outputs": [
        {
          "internalType": "address",
          "name": "",
          "type": "address"
        }
      ],
      "stateMutability": "view",
      "type": "function"
    },
    {
      "inputs": [],
      "name": "getContractAddress",
      "outputs": [
        {
          "internalType": "address",
          "name": "",
          "type": "address"
        }
      ],
      "stateMutability": "view",
      "type": "function"
    },
    {
      "inputs": [
        {
          "internalType": "uint256",
          "name": "_itemId",
          "type": "uint256"
        }
      ],
      "name": "getNFTAuctionItemsMapping",
      "outputs": [
        {
          "components": [
            {
              "internalType": "uint256",
              "name": "tokenId",
              "type": "uint256"
            },
            {
              "internalType": "uint256",
              "name": "itemId",
              "type": "uint256"
            },
            {
              "internalType": "uint256",
              "name": "decimalplaces",
              "type": "uint256"
            },
            {
              "internalType": "uint256",
              "name": "autionTime",
              "type": "uint256"
            },
            {
              "internalType": "string",
              "name": "tokenURI",
              "type": "string"
            },
            {
              "internalType": "uint256",
              "name": "biddingduration",
              "type": "uint256"
            },
            {
              "internalType": "uint256",
              "name": "bidduration",
              "type": "uint256"
            },
            {
              "internalType": "uint256",
              "name": "creatorsalesroyalty",
              "type": "uint256"
            },
            {
              "internalType": "uint256",
              "name": "minbidamount",
              "type": "uint256"
            },
            {
              "internalType": "uint256",
              "name": "sellingprice",
              "type": "uint256"
            },
            {
              "internalType": "address payable",
              "name": "seller",
              "type": "address"
            },
            {
              "internalType": "address payable",
              "name": "creator",
              "type": "address"
            },
            {
              "internalType": "address payable",
              "name": "owner",
              "type": "address"
            }
          ],
          "internalType": "struct AuctionItem",
          "name": "",
          "type": "tuple"
        }
      ],
      "stateMutability": "view",
      "type": "function"
    },
    {
      "inputs": [
        {
          "internalType": "uint256",
          "name": "_tokenId",
          "type": "uint256"
        }
      ],
      "name": "getNFTMintsMapping",
      "outputs": [
        {
          "components": [
            {
              "internalType": "uint256",
              "name": "tokenId",
              "type": "uint256"
            },
            {
              "internalType": "string",
              "name": "tokenURI",
              "type": "string"
            },
            {
              "internalType": "address",
              "name": "creator",
              "type": "address"
            },
            {
              "internalType": "address",
              "name": "owner",
              "type": "address"
            },
            {
              "internalType": "bool",
              "name": "hascreatedToken",
              "type": "bool"
            }
          ],
          "internalType": "struct NFTMints",
          "name": "",
          "type": "tuple"
        }
      ],
      "stateMutability": "view",
      "type": "function"
    },
    {
      "inputs": [
        {
          "internalType": "address",
          "name": "owner",
          "type": "address"
        },
        {
          "internalType": "address",
          "name": "operator",
          "type": "address"
        }
      ],
      "name": "isApprovedForAll",
      "outputs": [
        {
          "internalType": "bool",
          "name": "",
          "type": "bool"
        }
      ],
      "stateMutability": "view",
      "type": "function"
    },
    {
      "inputs": [],
      "name": "name",
      "outputs": [
        {
          "internalType": "string",
          "name": "",
          "type": "string"
        }
      ],
      "stateMutability": "view",
      "type": "function"
    },
    {
      "inputs": [
        {
          "internalType": "uint256",
          "name": "tokenId",
          "type": "uint256"
        }
      ],
      "name": "ownerOf",
      "outputs": [
        {
          "internalType": "address",
          "name": "",
          "type": "address"
        }
      ],
      "stateMutability": "view",
      "type": "function"
    },
    {
      "inputs": [
        {
          "internalType": "uint256",
          "name": "itemId",
          "type": "uint256"
        }
      ],
      "name": "removeItem",
      "outputs": [],
      "stateMutability": "nonpayable",
      "type": "function"
    },
    {
      "inputs": [
        {
          "internalType": "uint256",
          "name": "tokenId",
          "type": "uint256"
        }
      ],
      "name": "removeToken",
      "outputs": [],
      "stateMutability": "nonpayable",
      "type": "function"
    },
    {
      "inputs": [
        {
          "internalType": "uint256",
          "name": "_itemId",
          "type": "uint256"
        }
      ],
      "name": "resetbiddingdurtion",
      "outputs": [],
      "stateMutability": "nonpayable",
      "type": "function"
    },
    {
      "inputs": [
        {
          "internalType": "address",
          "name": "from",
          "type": "address"
        },
        {
          "internalType": "address",
          "name": "to",
          "type": "address"
        },
        {
          "internalType": "uint256",
          "name": "tokenId",
          "type": "uint256"
        }
      ],
      "name": "safeTransferFrom",
      "outputs": [],
      "stateMutability": "nonpayable",
      "type": "function"
    },
    {
      "inputs": [
        {
          "internalType": "address",
          "name": "from",
          "type": "address"
        },
        {
          "internalType": "address",
          "name": "to",
          "type": "address"
        },
        {
          "internalType": "uint256",
          "name": "tokenId",
          "type": "uint256"
        },
        {
          "internalType": "bytes",
          "name": "data",
          "type": "bytes"
        }
      ],
      "name": "safeTransferFrom",
      "outputs": [],
      "stateMutability": "nonpayable",
      "type": "function"
    },
    {
      "inputs": [
        {
          "internalType": "address",
          "name": "operator",
          "type": "address"
        },
        {
          "internalType": "bool",
          "name": "approved",
          "type": "bool"
        }
      ],
      "name": "setApprovalForAll",
      "outputs": [],
      "stateMutability": "nonpayable",
      "type": "function"
    },
    {
      "inputs": [
        {
          "internalType": "uint256",
          "name": "newsalesroyalty",
          "type": "uint256"
        },
        {
          "internalType": "uint256",
          "name": "itemId",
          "type": "uint256"
        }
      ],
      "name": "setcreatorSalesRoyalty",
      "outputs": [],
      "stateMutability": "nonpayable",
      "type": "function"
    },
    {
      "inputs": [
        {
          "internalType": "bytes4",
          "name": "interfaceId",
          "type": "bytes4"
        }
      ],
      "name": "supportsInterface",
      "outputs": [
        {
          "internalType": "bool",
          "name": "",
          "type": "bool"
        }
      ],
      "stateMutability": "view",
      "type": "function"
    },
    {
      "inputs": [],
      "name": "symbol",
      "outputs": [
        {
          "internalType": "string",
          "name": "",
          "type": "string"
        }
      ],
      "stateMutability": "view",
      "type": "function"
    },
    {
      "inputs": [
        {
          "internalType": "uint256",
          "name": "tokenId",
          "type": "uint256"
        }
      ],
      "name": "tokenURI",
      "outputs": [
        {
          "internalType": "string",
          "name": "",
          "type": "string"
        }
      ],
      "stateMutability": "view",
      "type": "function"
    },
    {
      "inputs": [
        {
          "internalType": "address",
          "name": "from",
          "type": "address"
        },
        {
          "internalType": "address",
          "name": "to",
          "type": "address"
        },
        {
          "internalType": "uint256",
          "name": "tokenId",
          "type": "uint256"
        }
      ],
      "name": "transferFrom",
      "outputs": [],
      "stateMutability": "nonpayable",
      "type": "function"
    },
    {
      "inputs": [
        {
          "internalType": "address",
          "name": "receiver",
          "type": "address"
        },
        {
          "internalType": "uint256",
          "name": "itemId",
          "type": "uint256"
        }
      ],
      "name": "transferNFT",
      "outputs": [],
      "stateMutability": "payable",
      "type": "function"
    },
    {
      "inputs": [
        {
          "internalType": "uint256",
          "name": "itemId",
          "type": "uint256"
        }
      ],
      "name": "unListAuctionItem",
      "outputs": [],
      "stateMutability": "payable",
      "type": "function"
    },
    {
      "inputs": [
        {
          "internalType": "uint256",
          "name": "itemId",
          "type": "uint256"
        },
        {
          "internalType": "uint256",
          "name": "newduration",
          "type": "uint256"
        },
        {
          "internalType": "uint256",
          "name": "newminbidamount",
          "type": "uint256"
        },
        {
          "internalType": "uint256",
          "name": "newsellingprice",
          "type": "uint256"
        }
      ],
      "name": "updateAuctionItem",
      "outputs": [],
      "stateMutability": "nonpayable",
      "type": "function"
    },
    {
      "inputs": [],
      "name": "withdrawFunds",
      "outputs": [],
      "stateMutability": "nonpayable",
      "type": "function"
    }
  ],
  "bytecode": "0x60806040526101f4600f5573bcceb2145266639e0c39101d48b79b6c694a84dc601060006101000a81548173ffffffffffffffffffffffffffffffffffffffff021916908373ffffffffffffffffffffffffffffffffffffffff1602179055503480156200006c57600080fd5b506040518060400160405280600a81526020017f46494641526577617264000000000000000000000000000000000000000000008152506040518060400160405280600381526020017f465244000000000000000000000000000000000000000000000000000000000081525060016000819055508160019081620000f29190620003c8565b508060029081620001049190620003c8565b50505033600c60006101000a81548173ffffffffffffffffffffffffffffffffffffffff021916908373ffffffffffffffffffffffffffffffffffffffff160217905550620004af565b600081519050919050565b7f4e487b7100000000000000000000000000000000000000000000000000000000600052604160045260246000fd5b7f4e487b7100000000000000000000000000000000000000000000000000000000600052602260045260246000fd5b60006002820490506001821680620001d057607f821691505b602082108103620001e657620001e562000188565b5b50919050565b60008190508160005260206000209050919050565b60006020601f8301049050919050565b600082821b905092915050565b600060088302620002507fffffffffffffffffffffffffffffffffffffffffffffffffffffffffffffffff8262000211565b6200025c868362000211565b95508019841693508086168417925050509392505050565b6000819050919050565b6000819050919050565b6000620002a9620002a36200029d8462000274565b6200027e565b62000274565b9050919050565b6000819050919050565b620002c58362000288565b620002dd620002d482620002b0565b8484546200021e565b825550505050565b600090565b620002f4620002e5565b62000301818484620002ba565b505050565b5b8181101562000329576200031d600082620002ea565b60018101905062000307565b5050565b601f82111562000378576200034281620001ec565b6200034d8462000201565b810160208510156200035d578190505b620003756200036c8562000201565b83018262000306565b50505b505050565b600082821c905092915050565b60006200039d600019846008026200037d565b1980831691505092915050565b6000620003b883836200038a565b9150826002028217905092915050565b620003d3826200014e565b67ffffffffffffffff811115620003ef57620003ee62000159565b5b620003fb8254620001b7565b620004088282856200032d565b600060209050601f8311600181146200044057600084156200042b578287015190505b620004378582620003aa565b865550620004a7565b601f1984166200045086620001ec565b60005b828110156200047a5784890151825560018201915060208501945060208101905062000453565b868310156200049a578489015162000496601f8916826200038a565b8355505b6001600288020188555050505b505050505050565b615cb680620004bf6000396000f3fe6080604052600436106101ee5760003560e01c806365b83de31161010d578063b88d4fde116100a0578063e985e9c51161006f578063e985e9c5146106bf578063f1258fb7146106fc578063f7cb700714610739578063fd1531fd14610755578063ff3f1ad214610771576101ee565b8063b88d4fde146105f3578063c87b56dd1461061c578063d283457414610659578063de40069d14610696576101ee565b806394ab67fe116100dc57806394ab67fe1461055857806395d89b4114610574578063a22cb4651461059f578063abe057c6146105c8576101ee565b806365b83de3146104ad5780636cb36071146104d657806370a08231146104f2578063713291711461052f576101ee565b806324600fc311610185578063376556cf11610154578063376556cf146103e157806342842e0e1461040a57806345576f94146104335780636352211e14610470576101ee565b806324600fc31461035a5780632c69f97c1461037157806332a2c5d01461038d57806336c5d724146103b8576101ee565b8063095ea7b3116101c1578063095ea7b3146102c35780630f805759146102ec578063187cdf601461031557806323b872dd14610331576101ee565b806301ffc9a7146101f357806306fdde0314610230578063081812fc1461025b57806308f3c05f14610298575b600080fd5b3480156101ff57600080fd5b5061021a6004803603810190610215919061461e565b6107ae565b6040516102279190614666565b60405180910390f35b34801561023c57600080fd5b5061024561080f565b6040516102529190614711565b60405180910390f35b34801561026757600080fd5b50610282600480360381019061027d9190614769565b6108a1565b60405161028f91906147d7565b60405180910390f35b3480156102a457600080fd5b506102ad6108bd565b6040516102ba9190614801565b60405180910390f35b3480156102cf57600080fd5b506102ea60048036038101906102e59190614848565b6108c7565b005b3480156102f857600080fd5b50610313600480360381019061030e9190614888565b6108dd565b005b61032f600480360381019061032a9190614769565b610d8f565b005b34801561033d57600080fd5b5061035860048036038101906103539190614915565b610f98565b005b34801561036657600080fd5b5061036f61109a565b005b61038b60048036038101906103869190614769565b611179565b005b34801561039957600080fd5b506103a2611377565b6040516103af91906147d7565b60405180910390f35b3480156103c457600080fd5b506103df60048036038101906103da9190614769565b61137f565b005b3480156103ed57600080fd5b5061040860048036038101906104039190614769565b6114c0565b005b34801561041657600080fd5b50610431600480360381019061042c9190614915565b61152f565b005b34801561043f57600080fd5b5061045a60048036038101906104559190614a9d565b61154f565b6040516104679190614801565b60405180910390f35b34801561047c57600080fd5b5061049760048036038101906104929190614769565b611836565b6040516104a491906147d7565b60405180910390f35b3480156104b957600080fd5b506104d460048036038101906104cf9190614ae6565b611848565b005b6104f060048036038101906104eb9190614ae6565b61190f565b005b3480156104fe57600080fd5b5061051960048036038101906105149190614b26565b611ede565b6040516105269190614801565b60405180910390f35b34801561053b57600080fd5b5061055660048036038101906105519190614769565b611f98565b005b610572600480360381019061056d9190614848565b612100565b005b34801561058057600080fd5b506105896121ed565b6040516105969190614711565b60405180910390f35b3480156105ab57600080fd5b506105c660048036038101906105c19190614b7f565b61227f565b005b3480156105d457600080fd5b506105dd612295565b6040516105ea9190614801565b60405180910390f35b3480156105ff57600080fd5b5061061a60048036038101906106159190614c60565b61229f565b005b34801561062857600080fd5b50610643600480360381019061063e9190614769565b6122bc565b6040516106509190614711565b60405180910390f35b34801561066557600080fd5b50610680600480360381019061067b9190614769565b6123cf565b60405161068d9190614e39565b60405180910390f35b3480156106a257600080fd5b506106bd60048036038101906106b89190614e5b565b6124e1565b005b3480156106cb57600080fd5b506106e660048036038101906106e19190614ec2565b612643565b6040516106f39190614666565b60405180910390f35b34801561070857600080fd5b50610723600480360381019061071e9190614769565b6126d7565b6040516107309190614fd1565b60405180910390f35b610753600480360381019061074e9190614769565b612867565b005b61076f600480360381019061076a9190614ae6565b612a70565b005b34801561077d57600080fd5b5061079860048036038101906107939190614769565b612caf565b6040516107a5919061510c565b60405180910390f35b6000634906490660e01b7bffffffffffffffffffffffffffffffffffffffffffffffffffffffff1916827bffffffffffffffffffffffffffffffffffffffffffffffffffffffff19161480610808575061080782612ecb565b5b9050919050565b60606001805461081e9061515d565b80601f016020809104026020016040519081016040528092919081815260200182805461084a9061515d565b80156108975780601f1061086c57610100808354040283529160200191610897565b820191906000526020600020905b81548152906001019060200180831161087a57829003601f168201915b5050505050905090565b60006108ac82612fad565b506108b682613035565b9050919050565b6000600854905090565b6108d982826108d4613072565b61307a565b5050565b6015600087815260200190815260200160002060030160149054906101000a900460ff16610940576040517f08c379a0000000000000000000000000000000000000000000000000000000008152600401610937906151da565b60405180910390fd5b6009600081548092919061095390615229565b91905055506000600954905060006015600089815260200190815260200160002060020160009054906101000a900473ffffffffffffffffffffffffffffffffffffffff169050604051806101a00160405280898152602001838152602001848152602001428152602001601560008b815260200190815260200160002060010180546109df9061515d565b80601f0160208091040260200160405190810160405280929190818152602001828054610a0b9061515d565b8015610a585780601f10610a2d57610100808354040283529160200191610a58565b820191906000526020600020905b815481529060010190602001808311610a3b57829003601f168201915b505050505081526020016201518088610a719190615271565b42610a7c91906152b3565b81526020018781526020018581526020018681526020018881526020013373ffffffffffffffffffffffffffffffffffffffff1681526020018273ffffffffffffffffffffffffffffffffffffffff1681526020013073ffffffffffffffffffffffffffffffffffffffff1681525060116000848152602001908152602001600020600082015181600001556020820151816001015560408201518160020155606082015181600301556080820151816004019081610b3b9190615493565b5060a0820151816005015560c0820151816006015560e082015181600701556101008201518160080155610120820151816009015561014082015181600a0160006101000a81548173ffffffffffffffffffffffffffffffffffffffff021916908373ffffffffffffffffffffffffffffffffffffffff16021790555061016082015181600b0160006101000a81548173ffffffffffffffffffffffffffffffffffffffff021916908373ffffffffffffffffffffffffffffffffffffffff16021790555061018082015181600c0160006101000a81548173ffffffffffffffffffffffffffffffffffffffff021916908373ffffffffffffffffffffffffffffffffffffffff16021790555090505030601560008a815260200190815260200160002060030160006101000a81548173ffffffffffffffffffffffffffffffffffffffff021916908373ffffffffffffffffffffffffffffffffffffffff16021790555030601460003373ffffffffffffffffffffffffffffffffffffffff1673ffffffffffffffffffffffffffffffffffffffff16815260200190815260200160002060030160006101000a81548173ffffffffffffffffffffffffffffffffffffffff021916908373ffffffffffffffffffffffffffffffffffffffff160217905550610d2c33308a61308c565b60156000898152602001908152602001600020600101604051610d4f91906155f3565b604051809103902082897fca04f5aee1f27b58129d998a051bffce29f649dafb4f2c6bdb1c20380432fbad60405160405180910390a45050505050505050565b610d976131f9565b60006011600083815260200190815260200160002060000154905060116000838152602001908152602001600020600a0160009054906101000a900473ffffffffffffffffffffffffffffffffffffffff1673ffffffffffffffffffffffffffffffffffffffff163373ffffffffffffffffffffffffffffffffffffffff1614610e56576040517f08c379a0000000000000000000000000000000000000000000000000000000008152600401610e4d90615656565b60405180910390fd5b3360116000848152602001908152602001600020600c0160006101000a81548173ffffffffffffffffffffffffffffffffffffffff021916908373ffffffffffffffffffffffffffffffffffffffff160217905550336015600083815260200190815260200160002060030160006101000a81548173ffffffffffffffffffffffffffffffffffffffff021916908373ffffffffffffffffffffffffffffffffffffffff16021790555033601460003373ffffffffffffffffffffffffffffffffffffffff1673ffffffffffffffffffffffffffffffffffffffff16815260200190815260200160002060030160006101000a81548173ffffffffffffffffffffffffffffffffffffffff021916908373ffffffffffffffffffffffffffffffffffffffff160217905550610f8c30338361308c565b50610f9561323f565b50565b600073ffffffffffffffffffffffffffffffffffffffff168273ffffffffffffffffffffffffffffffffffffffff160361100a5760006040517f64a0ae9200000000000000000000000000000000000000000000000000000000815260040161100191906147d7565b60405180910390fd5b600061101e8383611019613072565b613249565b90508373ffffffffffffffffffffffffffffffffffffffff168173ffffffffffffffffffffffffffffffffffffffff1614611094578382826040517f64283d7b00000000000000000000000000000000000000000000000000000000815260040161108b93929190615676565b60405180910390fd5b50505050565b600c60009054906101000a900473ffffffffffffffffffffffffffffffffffffffff1673ffffffffffffffffffffffffffffffffffffffff163373ffffffffffffffffffffffffffffffffffffffff161461112a576040517f08c379a000000000000000000000000000000000000000000000000000000000815260040161112190615656565b60405180910390fd5b60004790503373ffffffffffffffffffffffffffffffffffffffff166108fc829081150290604051600060405180830381858888f19350505050158015611175573d6000803e3d6000fd5b5050565b6111816131f9565b6000601160008381526020019081526020016000209050600060136000848152602001908152602001600020905060116000848152602001908152602001600020600a0160009054906101000a900473ffffffffffffffffffffffffffffffffffffffff1673ffffffffffffffffffffffffffffffffffffffff163373ffffffffffffffffffffffffffffffffffffffff1614611253576040517f08c379a000000000000000000000000000000000000000000000000000000000815260040161124a906156f9565b60405180910390fd5b60008180549050111561136a57600081600183805490506112749190615719565b815481106112855761128461574d565b5b90600052602060002090600402019050600073ffffffffffffffffffffffffffffffffffffffff168160010160009054906101000a900473ffffffffffffffffffffffffffffffffffffffff1673ffffffffffffffffffffffffffffffffffffffff1603611328576040517f08c379a000000000000000000000000000000000000000000000000000000000815260040161131f906157c8565b60405180910390fd5b806002015483600901819055506113688482600201548360010160009054906101000a900473ffffffffffffffffffffffffffffffffffffffff16613463565b505b505061137461323f565b50565b600030905090565b6113876131f9565b600c60009054906101000a900473ffffffffffffffffffffffffffffffffffffffff1673ffffffffffffffffffffffffffffffffffffffff163373ffffffffffffffffffffffffffffffffffffffff1614611417576040517f08c379a000000000000000000000000000000000000000000000000000000000815260040161140e90615656565b60405180910390fd5b60006015600083815260200190815260200160002060030160009054906101000a900473ffffffffffffffffffffffffffffffffffffffff16905060006015600084815260200190815260200160002060030160006101000a81548173ffffffffffffffffffffffffffffffffffffffff021916908373ffffffffffffffffffffffffffffffffffffffff1602179055506114b48160008461308c565b506114bd61323f565b50565b6114c86131f9565b6000601160008381526020019081526020016000209050600042905060008260050154905060008360060154905081831061152057620151808161150c9190615271565b8361151791906152b3565b84600501819055505b5050505061152c61323f565b50565b61154a8383836040518060200160405280600081525061229f565b505050565b60006008600081548092919061156490615229565b91905055506000600854905061157a33826137d5565b61158481846138ce565b6040518060a001604052808281526020018481526020013373ffffffffffffffffffffffffffffffffffffffff1681526020013373ffffffffffffffffffffffffffffffffffffffff168152602001600115158152506015600083815260200190815260200160002060008201518160000155602082015181600101908161160c9190615493565b5060408201518160020160006101000a81548173ffffffffffffffffffffffffffffffffffffffff021916908373ffffffffffffffffffffffffffffffffffffffff16021790555060608201518160030160006101000a81548173ffffffffffffffffffffffffffffffffffffffff021916908373ffffffffffffffffffffffffffffffffffffffff16021790555060808201518160030160146101000a81548160ff02191690831515021790555090505060156000828152602001908152602001600020601460003373ffffffffffffffffffffffffffffffffffffffff1673ffffffffffffffffffffffffffffffffffffffff168152602001908152602001600020600082015481600001556001820181600101908161172e91906157fe565b506002820160009054906101000a900473ffffffffffffffffffffffffffffffffffffffff168160020160006101000a81548173ffffffffffffffffffffffffffffffffffffffff021916908373ffffffffffffffffffffffffffffffffffffffff1602179055506003820160009054906101000a900473ffffffffffffffffffffffffffffffffffffffff168160030160006101000a81548173ffffffffffffffffffffffffffffffffffffffff021916908373ffffffffffffffffffffffffffffffffffffffff1602179055506003820160149054906101000a900460ff168160030160146101000a81548160ff02191690831515021790555090505080915050919050565b600061184182612fad565b9050919050565b6118506131f9565b600060116000838152602001908152602001600020905080600a0160009054906101000a900473ffffffffffffffffffffffffffffffffffffffff1673ffffffffffffffffffffffffffffffffffffffff163373ffffffffffffffffffffffffffffffffffffffff16146118f9576040517f08c379a00000000000000000000000000000000000000000000000000000000081526004016118f090615656565b60405180910390fd5b8281600701819055505061190b61323f565b5050565b6119176131f9565b600060116000848152602001908152602001600020905080600a0160009054906101000a900473ffffffffffffffffffffffffffffffffffffffff1673ffffffffffffffffffffffffffffffffffffffff163373ffffffffffffffffffffffffffffffffffffffff1614806119db575080600b0160009054906101000a900473ffffffffffffffffffffffffffffffffffffffff1673ffffffffffffffffffffffffffffffffffffffff163373ffffffffffffffffffffffffffffffffffffffff16145b80611a125750600073ffffffffffffffffffffffffffffffffffffffff163373ffffffffffffffffffffffffffffffffffffffff16145b15611a52576040517f08c379a0000000000000000000000000000000000000000000000000000000008152600401611a4990615656565b60405180910390fd5b3073ffffffffffffffffffffffffffffffffffffffff1681600c0160009054906101000a900473ffffffffffffffffffffffffffffffffffffffff1673ffffffffffffffffffffffffffffffffffffffff1614611ae4576040517f08c379a0000000000000000000000000000000000000000000000000000000008152600401611adb90615932565b60405180910390fd5b8060050154421115611b2b576040517f08c379a0000000000000000000000000000000000000000000000000000000008152600401611b229061599e565b60405180910390fd5b81341015611b6e576040517f08c379a0000000000000000000000000000000000000000000000000000000008152600401611b6590615a0a565b60405180910390fd5b6000601360008581526020019081526020016000209050600081805490501115611c7e5760008160018380549050611ba69190615719565b81548110611bb757611bb661574d565b5b9060005260206000209060040201905080600201543411611c0d576040517f08c379a0000000000000000000000000000000000000000000000000000000008152600401611c0490615a76565b60405180910390fd5b8060010160009054906101000a900473ffffffffffffffffffffffffffffffffffffffff1673ffffffffffffffffffffffffffffffffffffffff166108fc82600201549081150290604051600060405180830381858888f19350505050158015611c7b573d6000803e3d6000fd5b50505b601360008581526020019081526020016000206040518060a001604052804281526020013373ffffffffffffffffffffffffffffffffffffffff1681526020013481526020016001151581526020016000151581525090806001815401808255809150506001900390600052602060002090600402016000909190919091506000820151816000015560208201518160010160006101000a81548173ffffffffffffffffffffffffffffffffffffffff021916908373ffffffffffffffffffffffffffffffffffffffff1602179055506040820151816002015560608201518160030160006101000a81548160ff02191690831515021790555060808201518160030160016101000a81548160ff0219169083151502179055505050336012600086815260200190815260200160002060003373ffffffffffffffffffffffffffffffffffffffff1673ffffffffffffffffffffffffffffffffffffffff16815260200190815260200160002060010160006101000a81548173ffffffffffffffffffffffffffffffffffffffff021916908373ffffffffffffffffffffffffffffffffffffffff160217905550346012600086815260200190815260200160002060003373ffffffffffffffffffffffffffffffffffffffff1673ffffffffffffffffffffffffffffffffffffffff1681526020019081526020016000206002016000828254611e8f91906152b3565b92505081905550837f0e54eff26401bf69b81b26f60bd85ef47f5d85275c1d268d84f68d6897431c473334604051611ec8929190615a96565b60405180910390a25050611eda61323f565b5050565b60008073ffffffffffffffffffffffffffffffffffffffff168273ffffffffffffffffffffffffffffffffffffffff1603611f515760006040517f89c62b64000000000000000000000000000000000000000000000000000000008152600401611f4891906147d7565b60405180910390fd5b600460008373ffffffffffffffffffffffffffffffffffffffff1673ffffffffffffffffffffffffffffffffffffffff168152602001908152602001600020549050919050565b611fa06131f9565b600c60009054906101000a900473ffffffffffffffffffffffffffffffffffffffff1673ffffffffffffffffffffffffffffffffffffffff163373ffffffffffffffffffffffffffffffffffffffff1614612030576040517f08c379a000000000000000000000000000000000000000000000000000000000815260040161202790615656565b60405180910390fd5b60006011600083815260200190815260200160002090506000816000015490503082600c0160006101000a81548173ffffffffffffffffffffffffffffffffffffffff021916908373ffffffffffffffffffffffffffffffffffffffff160217905550306015600083815260200190815260200160002060030160006101000a81548173ffffffffffffffffffffffffffffffffffffffff021916908373ffffffffffffffffffffffffffffffffffffffff1602179055506120f330308561308c565b50506120fd61323f565b50565b6121086131f9565b600c60009054906101000a900473ffffffffffffffffffffffffffffffffffffffff1673ffffffffffffffffffffffffffffffffffffffff163373ffffffffffffffffffffffffffffffffffffffff161480156121925750600073ffffffffffffffffffffffffffffffffffffffff168273ffffffffffffffffffffffffffffffffffffffff1614155b156121a6576121a1818361392a565b6121e1565b6040517f08c379a00000000000000000000000000000000000000000000000000000000081526004016121d890615656565b60405180910390fd5b6121e961323f565b5050565b6060600280546121fc9061515d565b80601f01602080910402602001604051908101604052809291908181526020018280546122289061515d565b80156122755780601f1061224a57610100808354040283529160200191612275565b820191906000526020600020905b81548152906001019060200180831161225857829003601f168201915b5050505050905090565b61229161228a613072565b8383613af3565b5050565b6000600954905090565b6122aa848484610f98565b6122b684848484613c62565b50505050565b60606122c782612fad565b5060006007600084815260200190815260200160002080546122e89061515d565b80601f01602080910402602001604051908101604052809291908181526020018280546123149061515d565b80156123615780601f1061233657610100808354040283529160200191612361565b820191906000526020600020905b81548152906001019060200180831161234457829003601f168201915b505050505090506000612372613e19565b905060008151036123875781925050506123ca565b6000825111156123bc5780826040516020016123a4929190615af0565b604051602081830303815290604052925050506123ca565b6123c584613e30565b925050505b919050565b606060136000838152602001908152602001600020805480602002602001604051908101604052809291908181526020016000905b828210156124d657838290600052602060002090600402016040518060a0016040529081600082015481526020016001820160009054906101000a900473ffffffffffffffffffffffffffffffffffffffff1673ffffffffffffffffffffffffffffffffffffffff1673ffffffffffffffffffffffffffffffffffffffff168152602001600282015481526020016003820160009054906101000a900460ff161515151581526020016003820160019054906101000a900460ff16151515158152505081526020019060010190612404565b505050509050919050565b6124e96131f9565b60006011600086815260200190815260200160002060000154905060116000868152602001908152602001600020600a0160009054906101000a900473ffffffffffffffffffffffffffffffffffffffff1673ffffffffffffffffffffffffffffffffffffffff163373ffffffffffffffffffffffffffffffffffffffff16146125a8576040517f08c379a000000000000000000000000000000000000000000000000000000000815260040161259f90615656565b60405180910390fd5b82601160008781526020019081526020016000206008018190555081601160008781526020019081526020016000206009018190555083601160008781526020019081526020016000206005018190555084817f3e5c17018f2fadb249d8a4a5ce50c7732908dd6e2efd0f8dddf7a473dd558a42858560405161262c929190615b14565b60405180910390a35061263d61323f565b50505050565b6000600660008473ffffffffffffffffffffffffffffffffffffffff1673ffffffffffffffffffffffffffffffffffffffff16815260200190815260200160002060008373ffffffffffffffffffffffffffffffffffffffff1673ffffffffffffffffffffffffffffffffffffffff16815260200190815260200160002060009054906101000a900460ff16905092915050565b6126df6144ab565b601560008381526020019081526020016000206040518060a0016040529081600082015481526020016001820180546127179061515d565b80601f01602080910402602001604051908101604052809291908181526020018280546127439061515d565b80156127905780601f1061276557610100808354040283529160200191612790565b820191906000526020600020905b81548152906001019060200180831161277357829003601f168201915b505050505081526020016002820160009054906101000a900473ffffffffffffffffffffffffffffffffffffffff1673ffffffffffffffffffffffffffffffffffffffff1673ffffffffffffffffffffffffffffffffffffffff1681526020016003820160009054906101000a900473ffffffffffffffffffffffffffffffffffffffff1673ffffffffffffffffffffffffffffffffffffffff1673ffffffffffffffffffffffffffffffffffffffff1681526020016003820160149054906101000a900460ff1615151515815250509050919050565b61286f6131f9565b60006011600083815260200190815260200160002060000154905060116000838152602001908152602001600020600a0160009054906101000a900473ffffffffffffffffffffffffffffffffffffffff1673ffffffffffffffffffffffffffffffffffffffff163373ffffffffffffffffffffffffffffffffffffffff161461292e576040517f08c379a000000000000000000000000000000000000000000000000000000000815260040161292590615656565b60405180910390fd5b3060116000848152602001908152602001600020600c0160006101000a81548173ffffffffffffffffffffffffffffffffffffffff021916908373ffffffffffffffffffffffffffffffffffffffff160217905550306015600083815260200190815260200160002060030160006101000a81548173ffffffffffffffffffffffffffffffffffffffff021916908373ffffffffffffffffffffffffffffffffffffffff16021790555030601460003373ffffffffffffffffffffffffffffffffffffffff1673ffffffffffffffffffffffffffffffffffffffff16815260200190815260200160002060030160006101000a81548173ffffffffffffffffffffffffffffffffffffffff021916908373ffffffffffffffffffffffffffffffffffffffff160217905550612a6433308361308c565b50612a6d61323f565b50565b612a786131f9565b600060116000848152602001908152602001600020905080600a0160009054906101000a900473ffffffffffffffffffffffffffffffffffffffff1673ffffffffffffffffffffffffffffffffffffffff163373ffffffffffffffffffffffffffffffffffffffff161480612b3c575080600b0160009054906101000a900473ffffffffffffffffffffffffffffffffffffffff1673ffffffffffffffffffffffffffffffffffffffff163373ffffffffffffffffffffffffffffffffffffffff16145b80612b975750600073ffffffffffffffffffffffffffffffffffffffff1681600a0160009054906101000a900473ffffffffffffffffffffffffffffffffffffffff1673ffffffffffffffffffffffffffffffffffffffff16145b15612bd7576040517f08c379a0000000000000000000000000000000000000000000000000000000008152600401612bce90615656565b60405180910390fd5b81341080612be85750806009015434105b15612c28576040517f08c379a0000000000000000000000000000000000000000000000000000000008152600401612c1f90615a0a565b60405180910390fd5b600073ffffffffffffffffffffffffffffffffffffffff163373ffffffffffffffffffffffffffffffffffffffff1603612c97576040517f08c379a0000000000000000000000000000000000000000000000000000000008152600401612c8e906151da565b60405180910390fd5b612ca2833433613463565b50612cab61323f565b5050565b612cb7614508565b60116000838152602001908152602001600020604051806101a001604052908160008201548152602001600182015481526020016002820154815260200160038201548152602001600482018054612d0e9061515d565b80601f0160208091040260200160405190810160405280929190818152602001828054612d3a9061515d565b8015612d875780601f10612d5c57610100808354040283529160200191612d87565b820191906000526020600020905b815481529060010190602001808311612d6a57829003601f168201915b505050505081526020016005820154815260200160068201548152602001600782015481526020016008820154815260200160098201548152602001600a820160009054906101000a900473ffffffffffffffffffffffffffffffffffffffff1673ffffffffffffffffffffffffffffffffffffffff1673ffffffffffffffffffffffffffffffffffffffff168152602001600b820160009054906101000a900473ffffffffffffffffffffffffffffffffffffffff1673ffffffffffffffffffffffffffffffffffffffff1673ffffffffffffffffffffffffffffffffffffffff168152602001600c820160009054906101000a900473ffffffffffffffffffffffffffffffffffffffff1673ffffffffffffffffffffffffffffffffffffffff1673ffffffffffffffffffffffffffffffffffffffff16815250509050919050565b60007f80ac58cd000000000000000000000000000000000000000000000000000000007bffffffffffffffffffffffffffffffffffffffffffffffffffffffff1916827bffffffffffffffffffffffffffffffffffffffffffffffffffffffff19161480612f9657507f5b5e139f000000000000000000000000000000000000000000000000000000007bffffffffffffffffffffffffffffffffffffffffffffffffffffffff1916827bffffffffffffffffffffffffffffffffffffffffffffffffffffffff1916145b80612fa65750612fa582613e99565b5b9050919050565b600080612fb983613f03565b9050600073ffffffffffffffffffffffffffffffffffffffff168173ffffffffffffffffffffffffffffffffffffffff160361302c57826040517f7e2732890000000000000000000000000000000000000000000000000000000081526004016130239190614801565b60405180910390fd5b80915050919050565b60006005600083815260200190815260200160002060009054906101000a900473ffffffffffffffffffffffffffffffffffffffff169050919050565b600033905090565b6130878383836001613f40565b505050565b600073ffffffffffffffffffffffffffffffffffffffff168273ffffffffffffffffffffffffffffffffffffffff16036130fe5760006040517f64a0ae920000000000000000000000000000000000000000000000000000000081526004016130f591906147d7565b60405180910390fd5b600061310c83836000613249565b9050600073ffffffffffffffffffffffffffffffffffffffff168173ffffffffffffffffffffffffffffffffffffffff160361317f57816040517f7e2732890000000000000000000000000000000000000000000000000000000081526004016131769190614801565b60405180910390fd5b8373ffffffffffffffffffffffffffffffffffffffff168173ffffffffffffffffffffffffffffffffffffffff16146131f3578382826040517f64283d7b0000000000000000000000000000000000000000000000000000000081526004016131ea93929190615676565b60405180910390fd5b50505050565b600260005403613235576040517f3ee5aeb500000000000000000000000000000000000000000000000000000000815260040160405180910390fd5b6002600081905550565b6001600081905550565b60008061325584613f03565b9050600073ffffffffffffffffffffffffffffffffffffffff168373ffffffffffffffffffffffffffffffffffffffff161461329757613296818486614105565b5b600073ffffffffffffffffffffffffffffffffffffffff168173ffffffffffffffffffffffffffffffffffffffff1614613328576132d9600085600080613f40565b6001600460008373ffffffffffffffffffffffffffffffffffffffff1673ffffffffffffffffffffffffffffffffffffffff168152602001908152602001600020600082825403925050819055505b600073ffffffffffffffffffffffffffffffffffffffff168573ffffffffffffffffffffffffffffffffffffffff16146133ab576001600460008773ffffffffffffffffffffffffffffffffffffffff1673ffffffffffffffffffffffffffffffffffffffff168152602001908152602001600020600082825401925050819055505b846003600086815260200190815260200160002060006101000a81548173ffffffffffffffffffffffffffffffffffffffff021916908373ffffffffffffffffffffffffffffffffffffffff160217905550838573ffffffffffffffffffffffffffffffffffffffff168273ffffffffffffffffffffffffffffffffffffffff167fddf252ad1be2c89b69c2b068fc378daa952ba7f163c4a11628f55a4df523b3ef60405160405180910390a4809150509392505050565b60006011600085815260200190815260200160002090506000612710600f548561348d9190615271565b6134979190615b6c565b905060006127108360070154866134ae9190615271565b6134b89190615b6c565b9050600081836134c891906152b3565b866134d39190615719565b9050601060009054906101000a900473ffffffffffffffffffffffffffffffffffffffff1673ffffffffffffffffffffffffffffffffffffffff166108fc849081150290604051600060405180830381858888f1935050505015801561353d573d6000803e3d6000fd5b5083600b0160009054906101000a900473ffffffffffffffffffffffffffffffffffffffff1673ffffffffffffffffffffffffffffffffffffffff166108fc839081150290604051600060405180830381858888f193505050501580156135a8573d6000803e3d6000fd5b5083600a0160009054906101000a900473ffffffffffffffffffffffffffffffffffffffff1673ffffffffffffffffffffffffffffffffffffffff166108fc829081150290604051600060405180830381858888f19350505050158015613613573d6000803e3d6000fd5b508484600a0160006101000a81548173ffffffffffffffffffffffffffffffffffffffff021916908373ffffffffffffffffffffffffffffffffffffffff1602179055508484600c0160006101000a81548173ffffffffffffffffffffffffffffffffffffffff021916908373ffffffffffffffffffffffffffffffffffffffff160217905550600084600001549050856015600083815260200190815260200160002060030160006101000a81548173ffffffffffffffffffffffffffffffffffffffff021916908373ffffffffffffffffffffffffffffffffffffffff16021790555085601460003373ffffffffffffffffffffffffffffffffffffffff1673ffffffffffffffffffffffffffffffffffffffff16815260200190815260200160002060030160006101000a81548173ffffffffffffffffffffffffffffffffffffffff021916908373ffffffffffffffffffffffffffffffffffffffff1602179055508685600901819055506137913087876000015461308c565b877fa574c741071bb18f51fa88c17aeefec514bebf670ca22a3736fba6504ecbb76387896040516137c3929190615a96565b60405180910390a25050505050505050565b600073ffffffffffffffffffffffffffffffffffffffff168273ffffffffffffffffffffffffffffffffffffffff16036138475760006040517f64a0ae9200000000000000000000000000000000000000000000000000000000815260040161383e91906147d7565b60405180910390fd5b600061385583836000613249565b9050600073ffffffffffffffffffffffffffffffffffffffff168173ffffffffffffffffffffffffffffffffffffffff16146138c95760006040517f73c6ac6e0000000000000000000000000000000000000000000000000000000081526004016138c091906147d7565b60405180910390fd5b505050565b806007600084815260200190815260200160002090816138ee9190615493565b507ff8e1a15aba9398e019f0b49df1a4fde98ee17ae345cb5f6b5e2c27f5033e8ce78260405161391e9190614801565b60405180910390a15050565b60006011600084815260200190815260200160002090508181600a0160006101000a81548173ffffffffffffffffffffffffffffffffffffffff021916908373ffffffffffffffffffffffffffffffffffffffff1602179055508181600c0160006101000a81548173ffffffffffffffffffffffffffffffffffffffff021916908373ffffffffffffffffffffffffffffffffffffffff160217905550600081600001549050826015600083815260200190815260200160002060030160006101000a81548173ffffffffffffffffffffffffffffffffffffffff021916908373ffffffffffffffffffffffffffffffffffffffff16021790555082601460003373ffffffffffffffffffffffffffffffffffffffff1673ffffffffffffffffffffffffffffffffffffffff16815260200190815260200160002060030160006101000a81548173ffffffffffffffffffffffffffffffffffffffff021916908373ffffffffffffffffffffffffffffffffffffffff160217905550613ab53084846000015461308c565b837f0d5ab2c41fdd45c57ca49714cee61b1fe41eb95015724f65e46800855f574ff584604051613ae591906147d7565b60405180910390a250505050565b600073ffffffffffffffffffffffffffffffffffffffff168273ffffffffffffffffffffffffffffffffffffffff1603613b6457816040517f5b08ba18000000000000000000000000000000000000000000000000000000008152600401613b5b91906147d7565b60405180910390fd5b80600660008573ffffffffffffffffffffffffffffffffffffffff1673ffffffffffffffffffffffffffffffffffffffff16815260200190815260200160002060008473ffffffffffffffffffffffffffffffffffffffff1673ffffffffffffffffffffffffffffffffffffffff16815260200190815260200160002060006101000a81548160ff0219169083151502179055508173ffffffffffffffffffffffffffffffffffffffff168373ffffffffffffffffffffffffffffffffffffffff167f17307eab39ab6107e8899845ad3d59bd9653f200f220920489ca2b5937696c3183604051613c559190614666565b60405180910390a3505050565b60008373ffffffffffffffffffffffffffffffffffffffff163b1115613e13578273ffffffffffffffffffffffffffffffffffffffff1663150b7a02613ca6613072565b8685856040518563ffffffff1660e01b8152600401613cc89493929190615bf2565b6020604051808303816000875af1925050508015613d0457506040513d601f19601f82011682018060405250810190613d019190615c53565b60015b613d88573d8060008114613d34576040519150601f19603f3d011682016040523d82523d6000602084013e613d39565b606091505b506000815103613d8057836040517f64a0ae92000000000000000000000000000000000000000000000000000000008152600401613d7791906147d7565b60405180910390fd5b805181602001fd5b63150b7a0260e01b7bffffffffffffffffffffffffffffffffffffffffffffffffffffffff1916817bffffffffffffffffffffffffffffffffffffffffffffffffffffffff191614613e1157836040517f64a0ae92000000000000000000000000000000000000000000000000000000008152600401613e0891906147d7565b60405180910390fd5b505b50505050565b606060405180602001604052806000815250905090565b6060613e3b82612fad565b506000613e46613e19565b90506000815111613e665760405180602001604052806000815250613e91565b80613e70846141c9565b604051602001613e81929190615af0565b6040516020818303038152906040525b915050919050565b60007f01ffc9a7000000000000000000000000000000000000000000000000000000007bffffffffffffffffffffffffffffffffffffffffffffffffffffffff1916827bffffffffffffffffffffffffffffffffffffffffffffffffffffffff1916149050919050565b60006003600083815260200190815260200160002060009054906101000a900473ffffffffffffffffffffffffffffffffffffffff169050919050565b8080613f795750600073ffffffffffffffffffffffffffffffffffffffff168273ffffffffffffffffffffffffffffffffffffffff1614155b156140ad576000613f8984612fad565b9050600073ffffffffffffffffffffffffffffffffffffffff168373ffffffffffffffffffffffffffffffffffffffff1614158015613ff457508273ffffffffffffffffffffffffffffffffffffffff168173ffffffffffffffffffffffffffffffffffffffff1614155b801561400757506140058184612643565b155b1561404957826040517fa9fbf51f00000000000000000000000000000000000000000000000000000000815260040161404091906147d7565b60405180910390fd5b81156140ab57838573ffffffffffffffffffffffffffffffffffffffff168273ffffffffffffffffffffffffffffffffffffffff167f8c5be1e5ebec7d5bd14f71427d1e84f3dd0314c0f7b2291e5b200ac8c7c3b92560405160405180910390a45b505b836005600085815260200190815260200160002060006101000a81548173ffffffffffffffffffffffffffffffffffffffff021916908373ffffffffffffffffffffffffffffffffffffffff16021790555050505050565b614110838383614297565b6141c457600073ffffffffffffffffffffffffffffffffffffffff168373ffffffffffffffffffffffffffffffffffffffff160361418557806040517f7e27328900000000000000000000000000000000000000000000000000000000815260040161417c9190614801565b60405180910390fd5b81816040517f177e802f0000000000000000000000000000000000000000000000000000000081526004016141bb929190615a96565b60405180910390fd5b505050565b6060600060016141d884614358565b01905060008167ffffffffffffffff8111156141f7576141f6614972565b5b6040519080825280601f01601f1916602001820160405280156142295781602001600182028036833780820191505090505b509050600082602001820190505b60011561428c578080600190039150507f3031323334353637383961626364656600000000000000000000000000000000600a86061a8153600a85816142805761427f615b3d565b5b04945060008503614237575b819350505050919050565b60008073ffffffffffffffffffffffffffffffffffffffff168373ffffffffffffffffffffffffffffffffffffffff161415801561434f57508273ffffffffffffffffffffffffffffffffffffffff168473ffffffffffffffffffffffffffffffffffffffff161480614310575061430f8484612643565b5b8061434e57508273ffffffffffffffffffffffffffffffffffffffff1661433683613035565b73ffffffffffffffffffffffffffffffffffffffff16145b5b90509392505050565b600080600090507a184f03e93ff9f4daa797ed6e38ed64bf6a1f01000000000000000083106143b6577a184f03e93ff9f4daa797ed6e38ed64bf6a1f01000000000000000083816143ac576143ab615b3d565b5b0492506040810190505b6d04ee2d6d415b85acef810000000083106143f3576d04ee2d6d415b85acef810000000083816143e9576143e8615b3d565b5b0492506020810190505b662386f26fc10000831061442257662386f26fc10000838161441857614417615b3d565b5b0492506010810190505b6305f5e100831061444b576305f5e100838161444157614440615b3d565b5b0492506008810190505b612710831061447057612710838161446657614465615b3d565b5b0492506004810190505b60648310614493576064838161448957614488615b3d565b5b0492506002810190505b600a83106144a2576001810190505b80915050919050565b6040518060a001604052806000815260200160608152602001600073ffffffffffffffffffffffffffffffffffffffff168152602001600073ffffffffffffffffffffffffffffffffffffffff1681526020016000151581525090565b604051806101a0016040528060008152602001600081526020016000815260200160008152602001606081526020016000815260200160008152602001600081526020016000815260200160008152602001600073ffffffffffffffffffffffffffffffffffffffff168152602001600073ffffffffffffffffffffffffffffffffffffffff168152602001600073ffffffffffffffffffffffffffffffffffffffff1681525090565b6000604051905090565b600080fd5b600080fd5b60007fffffffff0000000000000000000000000000000000000000000000000000000082169050919050565b6145fb816145c6565b811461460657600080fd5b50565b600081359050614618816145f2565b92915050565b600060208284031215614634576146336145bc565b5b600061464284828501614609565b91505092915050565b60008115159050919050565b6146608161464b565b82525050565b600060208201905061467b6000830184614657565b92915050565b600081519050919050565b600082825260208201905092915050565b60005b838110156146bb5780820151818401526020810190506146a0565b60008484015250505050565b6000601f19601f8301169050919050565b60006146e382614681565b6146ed818561468c565b93506146fd81856020860161469d565b614706816146c7565b840191505092915050565b6000602082019050818103600083015261472b81846146d8565b905092915050565b6000819050919050565b61474681614733565b811461475157600080fd5b50565b6000813590506147638161473d565b92915050565b60006020828403121561477f5761477e6145bc565b5b600061478d84828501614754565b91505092915050565b600073ffffffffffffffffffffffffffffffffffffffff82169050919050565b60006147c182614796565b9050919050565b6147d1816147b6565b82525050565b60006020820190506147ec60008301846147c8565b92915050565b6147fb81614733565b82525050565b600060208201905061481660008301846147f2565b92915050565b614825816147b6565b811461483057600080fd5b50565b6000813590506148428161481c565b92915050565b6000806040838503121561485f5761485e6145bc565b5b600061486d85828601614833565b925050602061487e85828601614754565b9150509250929050565b60008060008060008060c087890312156148a5576148a46145bc565b5b60006148b389828a01614754565b96505060206148c489828a01614754565b95505060406148d589828a01614754565b94505060606148e689828a01614754565b93505060806148f789828a01614754565b92505060a061490889828a01614754565b9150509295509295509295565b60008060006060848603121561492e5761492d6145bc565b5b600061493c86828701614833565b935050602061494d86828701614833565b925050604061495e86828701614754565b9150509250925092565b600080fd5b600080fd5b7f4e487b7100000000000000000000000000000000000000000000000000000000600052604160045260246000fd5b6149aa826146c7565b810181811067ffffffffffffffff821117156149c9576149c8614972565b5b80604052505050565b60006149dc6145b2565b90506149e882826149a1565b919050565b600067ffffffffffffffff821115614a0857614a07614972565b5b614a11826146c7565b9050602081019050919050565b82818337600083830152505050565b6000614a40614a3b846149ed565b6149d2565b905082815260208101848484011115614a5c57614a5b61496d565b5b614a67848285614a1e565b509392505050565b600082601f830112614a8457614a83614968565b5b8135614a94848260208601614a2d565b91505092915050565b600060208284031215614ab357614ab26145bc565b5b600082013567ffffffffffffffff811115614ad157614ad06145c1565b5b614add84828501614a6f565b91505092915050565b60008060408385031215614afd57614afc6145bc565b5b6000614b0b85828601614754565b9250506020614b1c85828601614754565b9150509250929050565b600060208284031215614b3c57614b3b6145bc565b5b6000614b4a84828501614833565b91505092915050565b614b5c8161464b565b8114614b6757600080fd5b50565b600081359050614b7981614b53565b92915050565b60008060408385031215614b9657614b956145bc565b5b6000614ba485828601614833565b9250506020614bb585828601614b6a565b9150509250929050565b600067ffffffffffffffff821115614bda57614bd9614972565b5b614be3826146c7565b9050602081019050919050565b6000614c03614bfe84614bbf565b6149d2565b905082815260208101848484011115614c1f57614c1e61496d565b5b614c2a848285614a1e565b509392505050565b600082601f830112614c4757614c46614968565b5b8135614c57848260208601614bf0565b91505092915050565b60008060008060808587031215614c7a57614c796145bc565b5b6000614c8887828801614833565b9450506020614c9987828801614833565b9350506040614caa87828801614754565b925050606085013567ffffffffffffffff811115614ccb57614cca6145c1565b5b614cd787828801614c32565b91505092959194509250565b600081519050919050565b600082825260208201905092915050565b6000819050602082019050919050565b614d1881614733565b82525050565b6000614d2982614796565b9050919050565b614d3981614d1e565b82525050565b614d488161464b565b82525050565b60a082016000820151614d646000850182614d0f565b506020820151614d776020850182614d30565b506040820151614d8a6040850182614d0f565b506060820151614d9d6060850182614d3f565b506080820151614db06080850182614d3f565b50505050565b6000614dc28383614d4e565b60a08301905092915050565b6000602082019050919050565b6000614de682614ce3565b614df08185614cee565b9350614dfb83614cff565b8060005b83811015614e2c578151614e138882614db6565b9750614e1e83614dce565b925050600181019050614dff565b5085935050505092915050565b60006020820190508181036000830152614e538184614ddb565b905092915050565b60008060008060808587031215614e7557614e746145bc565b5b6000614e8387828801614754565b9450506020614e9487828801614754565b9350506040614ea587828801614754565b9250506060614eb687828801614754565b91505092959194509250565b60008060408385031215614ed957614ed86145bc565b5b6000614ee785828601614833565b9250506020614ef885828601614833565b9150509250929050565b600082825260208201905092915050565b6000614f1e82614681565b614f288185614f02565b9350614f3881856020860161469d565b614f41816146c7565b840191505092915050565b614f55816147b6565b82525050565b600060a083016000830151614f736000860182614d0f565b5060208301518482036020860152614f8b8282614f13565b9150506040830151614fa06040860182614f4c565b506060830151614fb36060860182614f4c565b506080830151614fc66080860182614d3f565b508091505092915050565b60006020820190508181036000830152614feb8184614f5b565b905092915050565b60006101a08301600083015161500c6000860182614d0f565b50602083015161501f6020860182614d0f565b5060408301516150326040860182614d0f565b5060608301516150456060860182614d0f565b506080830151848203608086015261505d8282614f13565b91505060a083015161507260a0860182614d0f565b5060c083015161508560c0860182614d0f565b5060e083015161509860e0860182614d0f565b506101008301516150ad610100860182614d0f565b506101208301516150c2610120860182614d0f565b506101408301516150d7610140860182614d30565b506101608301516150ec610160860182614d30565b50610180830151615101610180860182614d30565b508091505092915050565b600060208201905081810360008301526151268184614ff3565b905092915050565b7f4e487b7100000000000000000000000000000000000000000000000000000000600052602260045260246000fd5b6000600282049050600182168061517557607f821691505b6020821081036151885761518761512e565b5b50919050565b7f696e76616c696400000000000000000000000000000000000000000000000000600082015250565b60006151c460078361468c565b91506151cf8261518e565b602082019050919050565b600060208201905081810360008301526151f3816151b7565b9050919050565b7f4e487b7100000000000000000000000000000000000000000000000000000000600052601160045260246000fd5b600061523482614733565b91507fffffffffffffffffffffffffffffffffffffffffffffffffffffffffffffffff8203615266576152656151fa565b5b600182019050919050565b600061527c82614733565b915061528783614733565b925082820261529581614733565b915082820484148315176152ac576152ab6151fa565b5b5092915050565b60006152be82614733565b91506152c983614733565b92508282019050808211156152e1576152e06151fa565b5b92915050565b60008190508160005260206000209050919050565b60006020601f8301049050919050565b600082821b905092915050565b6000600883026153497fffffffffffffffffffffffffffffffffffffffffffffffffffffffffffffffff8261530c565b615353868361530c565b95508019841693508086168417925050509392505050565b6000819050919050565b600061539061538b61538684614733565b61536b565b614733565b9050919050565b6000819050919050565b6153aa83615375565b6153be6153b682615397565b848454615319565b825550505050565b600090565b6153d36153c6565b6153de8184846153a1565b505050565b5b81811015615402576153f76000826153cb565b6001810190506153e4565b5050565b601f82111561544757615418816152e7565b615421846152fc565b81016020851015615430578190505b61544461543c856152fc565b8301826153e3565b50505b505050565b600082821c905092915050565b600061546a6000198460080261544c565b1980831691505092915050565b60006154838383615459565b9150826002028217905092915050565b61549c82614681565b67ffffffffffffffff8111156154b5576154b4614972565b5b6154bf825461515d565b6154ca828285615406565b600060209050601f8311600181146154fd57600084156154eb578287015190505b6154f58582615477565b86555061555d565b601f19841661550b866152e7565b60005b828110156155335784890151825560018201915060208501945060208101905061550e565b86831015615550578489015161554c601f891682615459565b8355505b6001600288020188555050505b505050505050565b600081905092915050565b6000815461557d8161515d565b6155878186615565565b945060018216600081146155a257600181146155b7576155ea565b60ff19831686528115158202860193506155ea565b6155c0856152e7565b60005b838110156155e2578154818901526001820191506020810190506155c3565b838801955050505b50505092915050565b60006155ff8284615570565b915081905092915050565b7f556e617574686f72697a65640000000000000000000000000000000000000000600082015250565b6000615640600c8361468c565b915061564b8261560a565b602082019050919050565b6000602082019050818103600083015261566f81615633565b9050919050565b600060608201905061568b60008301866147c8565b61569860208301856147f2565b6156a560408301846147c8565b949350505050565b7f756e617574686f72697a65640000000000000000000000000000000000000000600082015250565b60006156e3600c8361468c565b91506156ee826156ad565b602082019050919050565b60006020820190508181036000830152615712816156d6565b9050919050565b600061572482614733565b915061572f83614733565b9250828203905081811115615747576157466151fa565b5b92915050565b7f4e487b7100000000000000000000000000000000000000000000000000000000600052603260045260246000fd5b7f4e6f206269647300000000000000000000000000000000000000000000000000600082015250565b60006157b260078361468c565b91506157bd8261577c565b602082019050919050565b600060208201905081810360008301526157e1816157a5565b9050919050565b6000815490506157f78161515d565b9050919050565b81810361580c5750506158e4565b615815826157e8565b67ffffffffffffffff81111561582e5761582d614972565b5b615838825461515d565b615843828285615406565b6000601f8311600181146158725760008415615860578287015490505b61586a8582615477565b8655506158dd565b601f198416615880876152e7565b965061588b866152e7565b60005b828110156158b35784890154825560018201915060018501945060208101905061588e565b868310156158d057848901546158cc601f891682615459565b8355505b6001600288020188555050505b5050505050505b565b7f416c726561647920736f6c640000000000000000000000000000000000000000600082015250565b600061591c600c8361468c565b9150615927826158e6565b602082019050919050565b6000602082019050818103600083015261594b8161590f565b9050919050565b7f42696464696e672068617320656e646564000000000000000000000000000000600082015250565b600061598860118361468c565b915061599382615952565b602082019050919050565b600060208201905081810360008301526159b78161597b565b9050919050565b7f696e76616c696420616d6f756e74000000000000000000000000000000000000600082015250565b60006159f4600e8361468c565b91506159ff826159be565b602082019050919050565b60006020820190508181036000830152615a23816159e7565b9050919050565b7f6869676865722062696420666f756e642e000000000000000000000000000000600082015250565b6000615a6060118361468c565b9150615a6b82615a2a565b602082019050919050565b60006020820190508181036000830152615a8f81615a53565b9050919050565b6000604082019050615aab60008301856147c8565b615ab860208301846147f2565b9392505050565b6000615aca82614681565b615ad48185615565565b9350615ae481856020860161469d565b80840191505092915050565b6000615afc8285615abf565b9150615b088284615abf565b91508190509392505050565b6000604082019050615b2960008301856147f2565b615b3660208301846147f2565b9392505050565b7f4e487b7100000000000000000000000000000000000000000000000000000000600052601260045260246000fd5b6000615b7782614733565b9150615b8283614733565b925082615b9257615b91615b3d565b5b828204905092915050565b600081519050919050565b600082825260208201905092915050565b6000615bc482615b9d565b615bce8185615ba8565b9350615bde81856020860161469d565b615be7816146c7565b840191505092915050565b6000608082019050615c0760008301876147c8565b615c1460208301866147c8565b615c2160408301856147f2565b8181036060830152615c338184615bb9565b905095945050505050565b600081519050615c4d816145f2565b92915050565b600060208284031215615c6957615c686145bc565b5b6000615c7784828501615c3e565b9150509291505056fea26469706673582212207f66c89b9a5c2467bce7aa788bf6563b752d4293c5ffacb01cf0c4d566fd044764736f6c63430008140033",
  "linkReferences": {},
  "deployedLinkReferences": {}
}