{
  "_format": "hh-sol-artifact-1",
  "contractName": "NFTMarketPlace",
  "sourceName": "contracts/NFTMarketPlace.sol",
  "abi": [
    {
      "inputs": [],
      "stateMutability": "nonpayable",
      "type": "constructor"
    },
    {
      "inputs": [
        {
          "internalType": "address",
          "name": "sender",
          "type": "address"
        },
        {
          "internalType": "uint256",
          "name": "tokenId",
          "type": "uint256"
        },
        {
          "internalType": "address",
          "name": "owner",
          "type": "address"
        }
      ],
      "name": "ERC721IncorrectOwner",
      "type": "error"
    },
    {
      "inputs": [
        {
          "internalType": "address",
          "name": "operator",
          "type": "address"
        },
        {
          "internalType": "uint256",
          "name": "tokenId",
          "type": "uint256"
        }
      ],
      "name": "ERC721InsufficientApproval",
      "type": "error"
    },
    {
      "inputs": [
        {
          "internalType": "address",
          "name": "approver",
          "type": "address"
        }
      ],
      "name": "ERC721InvalidApprover",
      "type": "error"
    },
    {
      "inputs": [
        {
          "internalType": "address",
          "name": "operator",
          "type": "address"
        }
      ],
      "name": "ERC721InvalidOperator",
      "type": "error"
    },
    {
      "inputs": [
        {
          "internalType": "address",
          "name": "owner",
          "type": "address"
        }
      ],
      "name": "ERC721InvalidOwner",
      "type": "error"
    },
    {
      "inputs": [
        {
          "internalType": "address",
          "name": "receiver",
          "type": "address"
        }
      ],
      "name": "ERC721InvalidReceiver",
      "type": "error"
    },
    {
      "inputs": [
        {
          "internalType": "address",
          "name": "sender",
          "type": "address"
        }
      ],
      "name": "ERC721InvalidSender",
      "type": "error"
    },
    {
      "inputs": [
        {
          "internalType": "uint256",
          "name": "tokenId",
          "type": "uint256"
        }
      ],
      "name": "ERC721NonexistentToken",
      "type": "error"
    },
    {
      "inputs": [],
      "name": "ReentrancyGuardReentrantCall",
      "type": "error"
    },
    {
      "anonymous": false,
      "inputs": [
        {
          "indexed": true,
          "internalType": "address",
          "name": "owner",
          "type": "address"
        },
        {
          "indexed": true,
          "internalType": "address",
          "name": "approved",
          "type": "address"
        },
        {
          "indexed": true,
          "internalType": "uint256",
          "name": "tokenId",
          "type": "uint256"
        }
      ],
      "name": "Approval",
      "type": "event"
    },
    {
      "anonymous": false,
      "inputs": [
        {
          "indexed": true,
          "internalType": "address",
          "name": "owner",
          "type": "address"
        },
        {
          "indexed": true,
          "internalType": "address",
          "name": "operator",
          "type": "address"
        },
        {
          "indexed": false,
          "internalType": "bool",
          "name": "approved",
          "type": "bool"
        }
      ],
      "name": "ApprovalForAll",
      "type": "event"
    },
    {
      "anonymous": false,
      "inputs": [
        {
          "indexed": false,
          "internalType": "uint256",
          "name": "_fromTokenId",
          "type": "uint256"
        },
        {
          "indexed": false,
          "internalType": "uint256",
          "name": "_toTokenId",
          "type": "uint256"
        }
      ],
      "name": "BatchMetadataUpdate",
      "type": "event"
    },
    {
      "anonymous": false,
      "inputs": [
        {
          "indexed": true,
          "internalType": "uint256",
          "name": "tokenId",
          "type": "uint256"
        },
        {
          "indexed": false,
          "internalType": "address",
          "name": "seller",
          "type": "address"
        },
        {
          "indexed": false,
          "internalType": "address",
          "name": "owner",
          "type": "address"
        },
        {
          "indexed": false,
          "internalType": "uint256",
          "name": "price",
          "type": "uint256"
        },
        {
          "indexed": false,
          "internalType": "bool",
          "name": "sold",
          "type": "bool"
        }
      ],
      "name": "MarketItemCreated",
      "type": "event"
    },
    {
      "anonymous": false,
      "inputs": [
        {
          "indexed": false,
          "internalType": "uint256",
          "name": "_tokenId",
          "type": "uint256"
        }
      ],
      "name": "MetadataUpdate",
      "type": "event"
    },
    {
      "anonymous": false,
      "inputs": [
        {
          "indexed": true,
          "internalType": "address",
          "name": "from",
          "type": "address"
        },
        {
          "indexed": true,
          "internalType": "address",
          "name": "to",
          "type": "address"
        },
        {
          "indexed": true,
          "internalType": "uint256",
          "name": "tokenId",
          "type": "uint256"
        }
      ],
      "name": "Transfer",
      "type": "event"
    },
    {
      "inputs": [
        {
          "internalType": "address",
          "name": "to",
          "type": "address"
        },
        {
          "internalType": "uint256",
          "name": "tokenId",
          "type": "uint256"
        }
      ],
      "name": "approve",
      "outputs": [],
      "stateMutability": "nonpayable",
      "type": "function"
    },
    {
      "inputs": [
        {
          "internalType": "address",
          "name": "owner",
          "type": "address"
        }
      ],
      "name": "balanceOf",
      "outputs": [
        {
          "internalType": "uint256",
          "name": "",
          "type": "uint256"
        }
      ],
      "stateMutability": "view",
      "type": "function"
    },
    {
      "inputs": [
        {
          "internalType": "uint256",
          "name": "tokenId",
          "type": "uint256"
        }
      ],
      "name": "createMarketSale",
      "outputs": [],
      "stateMutability": "payable",
      "type": "function"
    },
    {
      "inputs": [
        {
          "internalType": "string",
          "name": "tokenURI",
          "type": "string"
        },
        {
          "internalType": "uint256",
          "name": "price",
          "type": "uint256"
        }
      ],
      "name": "createToken",
      "outputs": [
        {
          "internalType": "uint256",
          "name": "",
          "type": "uint256"
        }
      ],
      "stateMutability": "payable",
      "type": "function"
    },
    {
      "inputs": [],
      "name": "fetchItemsCreated",
      "outputs": [
        {
          "components": [
            {
              "internalType": "uint256",
              "name": "tokenId",
              "type": "uint256"
            },
            {
              "internalType": "address payable",
              "name": "seller",
              "type": "address"
            },
            {
              "internalType": "address payable",
              "name": "owner",
              "type": "address"
            },
            {
              "internalType": "uint256",
              "name": "price",
              "type": "uint256"
            },
            {
              "internalType": "bool",
              "name": "sold",
              "type": "bool"
            }
          ],
          "internalType": "struct NFTMarketPlace.MarketItem[]",
          "name": "",
          "type": "tuple[]"
        }
      ],
      "stateMutability": "view",
      "type": "function"
    },
    {
      "inputs": [],
      "name": "fetchMarketItems",
      "outputs": [
        {
          "components": [
            {
              "internalType": "uint256",
              "name": "tokenId",
              "type": "uint256"
            },
            {
              "internalType": "address payable",
              "name": "seller",
              "type": "address"
            },
            {
              "internalType": "address payable",
              "name": "owner",
              "type": "address"
            },
            {
              "internalType": "uint256",
              "name": "price",
              "type": "uint256"
            },
            {
              "internalType": "bool",
              "name": "sold",
              "type": "bool"
            }
          ],
          "internalType": "struct NFTMarketPlace.MarketItem[]",
          "name": "",
          "type": "tuple[]"
        }
      ],
      "stateMutability": "view",
      "type": "function"
    },
    {
      "inputs": [],
      "name": "fetchMyNFTs",
      "outputs": [
        {
          "components": [
            {
              "internalType": "uint256",
              "name": "tokenId",
              "type": "uint256"
            },
            {
              "internalType": "address payable",
              "name": "seller",
              "type": "address"
            },
            {
              "internalType": "address payable",
              "name": "owner",
              "type": "address"
            },
            {
              "internalType": "uint256",
              "name": "price",
              "type": "uint256"
            },
            {
              "internalType": "bool",
              "name": "sold",
              "type": "bool"
            }
          ],
          "internalType": "struct NFTMarketPlace.MarketItem[]",
          "name": "",
          "type": "tuple[]"
        }
      ],
      "stateMutability": "view",
      "type": "function"
    },
    {
      "inputs": [],
      "name": "fetchUnSoldMarketItems",
      "outputs": [
        {
          "components": [
            {
              "internalType": "uint256",
              "name": "tokenId",
              "type": "uint256"
            },
            {
              "internalType": "address payable",
              "name": "seller",
              "type": "address"
            },
            {
              "internalType": "address payable",
              "name": "owner",
              "type": "address"
            },
            {
              "internalType": "uint256",
              "name": "price",
              "type": "uint256"
            },
            {
              "internalType": "bool",
              "name": "sold",
              "type": "bool"
            }
          ],
          "internalType": "struct NFTMarketPlace.MarketItem[]",
          "name": "",
          "type": "tuple[]"
        }
      ],
      "stateMutability": "view",
      "type": "function"
    },
    {
      "inputs": [
        {
          "internalType": "address",
          "name": "receiver",
          "type": "address"
        }
      ],
      "name": "getAddressCredits",
      "outputs": [
        {
          "internalType": "uint256",
          "name": "",
          "type": "uint256"
        }
      ],
      "stateMutability": "view",
      "type": "function"
    },
    {
      "inputs": [
        {
          "internalType": "uint256",
          "name": "tokenId",
          "type": "uint256"
        }
      ],
      "name": "getApproved",
      "outputs": [
        {
          "internalType": "address",
          "name": "",
          "type": "address"
        }
      ],
      "stateMutability": "view",
      "type": "function"
    },
    {
      "inputs": [],
      "name": "getSalesFeeBasisPoints",
      "outputs": [
        {
          "internalType": "uint256",
          "name": "",
          "type": "uint256"
        }
      ],
      "stateMutability": "view",
      "type": "function"
    },
    {
      "inputs": [
        {
          "internalType": "address",
          "name": "owner",
          "type": "address"
        },
        {
          "internalType": "address",
          "name": "operator",
          "type": "address"
        }
      ],
      "name": "isApprovedForAll",
      "outputs": [
        {
          "internalType": "bool",
          "name": "",
          "type": "bool"
        }
      ],
      "stateMutability": "view",
      "type": "function"
    },
    {
      "inputs": [],
      "name": "name",
      "outputs": [
        {
          "internalType": "string",
          "name": "",
          "type": "string"
        }
      ],
      "stateMutability": "view",
      "type": "function"
    },
    {
      "inputs": [
        {
          "internalType": "uint256",
          "name": "tokenId",
          "type": "uint256"
        }
      ],
      "name": "ownerOf",
      "outputs": [
        {
          "internalType": "address",
          "name": "",
          "type": "address"
        }
      ],
      "stateMutability": "view",
      "type": "function"
    },
    {
      "inputs": [
        {
          "internalType": "address",
          "name": "from",
          "type": "address"
        },
        {
          "internalType": "address",
          "name": "to",
          "type": "address"
        },
        {
          "internalType": "uint256",
          "name": "tokenId",
          "type": "uint256"
        }
      ],
      "name": "safeTransferFrom",
      "outputs": [],
      "stateMutability": "nonpayable",
      "type": "function"
    },
    {
      "inputs": [
        {
          "internalType": "address",
          "name": "from",
          "type": "address"
        },
        {
          "internalType": "address",
          "name": "to",
          "type": "address"
        },
        {
          "internalType": "uint256",
          "name": "tokenId",
          "type": "uint256"
        },
        {
          "internalType": "bytes",
          "name": "data",
          "type": "bytes"
        }
      ],
      "name": "safeTransferFrom",
      "outputs": [],
      "stateMutability": "nonpayable",
      "type": "function"
    },
    {
      "inputs": [
        {
          "internalType": "address",
          "name": "operator",
          "type": "address"
        },
        {
          "internalType": "bool",
          "name": "approved",
          "type": "bool"
        }
      ],
      "name": "setApprovalForAll",
      "outputs": [],
      "stateMutability": "nonpayable",
      "type": "function"
    },
    {
      "inputs": [
        {
          "internalType": "bytes4",
          "name": "interfaceId",
          "type": "bytes4"
        }
      ],
      "name": "supportsInterface",
      "outputs": [
        {
          "internalType": "bool",
          "name": "",
          "type": "bool"
        }
      ],
      "stateMutability": "view",
      "type": "function"
    },
    {
      "inputs": [],
      "name": "symbol",
      "outputs": [
        {
          "internalType": "string",
          "name": "",
          "type": "string"
        }
      ],
      "stateMutability": "view",
      "type": "function"
    },
    {
      "inputs": [
        {
          "internalType": "uint256",
          "name": "tokenId",
          "type": "uint256"
        }
      ],
      "name": "tokenURI",
      "outputs": [
        {
          "internalType": "string",
          "name": "",
          "type": "string"
        }
      ],
      "stateMutability": "view",
      "type": "function"
    },
    {
      "inputs": [
        {
          "internalType": "address",
          "name": "from",
          "type": "address"
        },
        {
          "internalType": "address",
          "name": "to",
          "type": "address"
        },
        {
          "internalType": "uint256",
          "name": "tokenId",
          "type": "uint256"
        }
      ],
      "name": "transferFrom",
      "outputs": [],
      "stateMutability": "nonpayable",
      "type": "function"
    },
    {
      "inputs": [
        {
          "internalType": "uint256",
          "name": "tokenId",
          "type": "uint256"
        }
      ],
      "name": "unListMarketItem",
      "outputs": [],
      "stateMutability": "payable",
      "type": "function"
    },
    {
      "inputs": [
        {
          "internalType": "uint256",
          "name": "rewardPercentage",
          "type": "uint256"
        }
      ],
      "name": "updateRewarsPercentage",
      "outputs": [],
      "stateMutability": "nonpayable",
      "type": "function"
    },
    {
      "inputs": [],
      "name": "withdrawCredits",
      "outputs": [],
      "stateMutability": "nonpayable",
      "type": "function"
    }
  ],
  "bytecode": "0x608060405260fa600b55612710600c553480156200001c57600080fd5b506040518060400160405280600a81526020017f46494641526577617264000000000000000000000000000000000000000000008152506040518060400160405280600381526020017f465244000000000000000000000000000000000000000000000000000000000081525060016000819055508160019081620000a2919062000378565b508060029081620000b4919062000378565b50505033600a60006101000a81548173ffffffffffffffffffffffffffffffffffffffff021916908373ffffffffffffffffffffffffffffffffffffffff1602179055506200045f565b600081519050919050565b7f4e487b7100000000000000000000000000000000000000000000000000000000600052604160045260246000fd5b7f4e487b7100000000000000000000000000000000000000000000000000000000600052602260045260246000fd5b600060028204905060018216806200018057607f821691505b60208210810362000196576200019562000138565b5b50919050565b60008190508160005260206000209050919050565b60006020601f8301049050919050565b600082821b905092915050565b600060088302620002007fffffffffffffffffffffffffffffffffffffffffffffffffffffffffffffffff82620001c1565b6200020c8683620001c1565b95508019841693508086168417925050509392505050565b6000819050919050565b6000819050919050565b600062000259620002536200024d8462000224565b6200022e565b62000224565b9050919050565b6000819050919050565b620002758362000238565b6200028d620002848262000260565b848454620001ce565b825550505050565b600090565b620002a462000295565b620002b18184846200026a565b505050565b5b81811015620002d957620002cd6000826200029a565b600181019050620002b7565b5050565b601f8211156200032857620002f2816200019c565b620002fd84620001b1565b810160208510156200030d578190505b620003256200031c85620001b1565b830182620002b6565b50505b505050565b600082821c905092915050565b60006200034d600019846008026200032d565b1980831691505092915050565b60006200036883836200033a565b9150826002028217905092915050565b6200038382620000fe565b67ffffffffffffffff8111156200039f576200039e62000109565b5b620003ab825462000167565b620003b8828285620002dd565b600060209050601f831160018114620003f05760008415620003db578287015190505b620003e785826200035a565b86555062000457565b601f19841662000400866200019c565b60005b828110156200042a5784890151825560018201915060208501945060208101905062000403565b868310156200044a578489015162000446601f8916826200033a565b8355505b6001600288020188555050505b505050505050565b61401d806200046f6000396000f3fe60806040526004361061014b5760003560e01c806372b3b620116100b6578063ba12a9c31161006f578063ba12a9c314610488578063be9af536146104b1578063c87b56dd146104cd578063e4e6d5181461050a578063e985e9c514610535578063f064c32e146105725761014b565b806372b3b6201461038257806395d89b41146103b25780639cc18097146103dd578063a22cb4651461041a578063b69868af14610443578063b88d4fde1461045f5761014b565b806323b872dd1161010857806323b872dd14610274578063382edbcf1461029d57806342842e0e146102c85780636352211e146102f157806370a082311461032e578063717f6dfb1461036b5761014b565b806301ffc9a71461015057806306fdde031461018d578063081812fc146101b8578063095ea7b3146101f55780630f08efe01461021e578063202e374014610249575b600080fd5b34801561015c57600080fd5b5061017760048036038101906101729190612e8e565b61059d565b6040516101849190612ed6565b60405180910390f35b34801561019957600080fd5b506101a26105fe565b6040516101af9190612f81565b60405180910390f35b3480156101c457600080fd5b506101df60048036038101906101da9190612fd9565b610690565b6040516101ec9190613047565b60405180910390f35b34801561020157600080fd5b5061021c6004803603810190610217919061308e565b6106ac565b005b34801561022a57600080fd5b506102336106c2565b6040516102409190613224565b60405180910390f35b34801561025557600080fd5b5061025e61088a565b60405161026b9190613224565b60405180910390f35b34801561028057600080fd5b5061029b60048036038101906102969190613246565b610b6f565b005b3480156102a957600080fd5b506102b2610c71565b6040516102bf9190613224565b60405180910390f35b3480156102d457600080fd5b506102ef60048036038101906102ea9190613246565b610f75565b005b3480156102fd57600080fd5b5061031860048036038101906103139190612fd9565b610f95565b6040516103259190613047565b60405180910390f35b34801561033a57600080fd5b5061035560048036038101906103509190613299565b610fa7565b60405161036291906132d5565b60405180910390f35b34801561037757600080fd5b50610380611061565b005b61039c60048036038101906103979190613425565b6111ba565b6040516103a991906132d5565b60405180910390f35b3480156103be57600080fd5b506103c7611205565b6040516103d49190612f81565b60405180910390f35b3480156103e957600080fd5b5061040460048036038101906103ff9190613299565b611297565b60405161041191906132d5565b60405180910390f35b34801561042657600080fd5b50610441600480360381019061043c91906134ad565b6112e0565b005b61045d60048036038101906104589190612fd9565b6112f6565b005b34801561046b57600080fd5b506104866004803603810190610481919061358e565b61140d565b005b34801561049457600080fd5b506104af60048036038101906104aa9190612fd9565b61142a565b005b6104cb60048036038101906104c69190612fd9565b6114c4565b005b3480156104d957600080fd5b506104f460048036038101906104ef9190612fd9565b611671565b6040516105019190612f81565b60405180910390f35b34801561051657600080fd5b5061051f611784565b60405161052c91906132d5565b60405180910390f35b34801561054157600080fd5b5061055c60048036038101906105579190613611565b61178e565b6040516105699190612ed6565b60405180910390f35b34801561057e57600080fd5b50610587611822565b6040516105949190613224565b60405180910390f35b6000634906490660e01b7bffffffffffffffffffffffffffffffffffffffffffffffffffffffff1916827bffffffffffffffffffffffffffffffffffffffffffffffffffffffff191614806105f757506105f682611b07565b5b9050919050565b60606001805461060d90613680565b80601f016020809104026020016040519081016040528092919081815260200182805461063990613680565b80156106865780601f1061065b57610100808354040283529160200191610686565b820191906000526020600020905b81548152906001019060200180831161066957829003601f168201915b5050505050905090565b600061069b82611be9565b506106a582611c71565b9050919050565b6106be82826106b9611cae565b611cb6565b5050565b6060600060085490506000808267ffffffffffffffff8111156106e8576106e76132fa565b5b60405190808252806020026020018201604052801561072157816020015b61070e612dc5565b8152602001906001900390816107065790505b50905060005b8381101561088057600060018261073e91906136e0565b90506000600d60008381526020019081526020016000209050806040518060a0016040529081600082015481526020016001820160009054906101000a900473ffffffffffffffffffffffffffffffffffffffff1673ffffffffffffffffffffffffffffffffffffffff1673ffffffffffffffffffffffffffffffffffffffff1681526020016002820160009054906101000a900473ffffffffffffffffffffffffffffffffffffffff1673ffffffffffffffffffffffffffffffffffffffff1673ffffffffffffffffffffffffffffffffffffffff168152602001600382015481526020016004820160009054906101000a900460ff16151515158152505084868151811061085157610850613714565b5b602002602001018190525060018561086991906136e0565b94505050808061087890613743565b915050610727565b5080935050505090565b60606000600854905060008060005b83811015610939573373ffffffffffffffffffffffffffffffffffffffff16600d60006001846108c991906136e0565b815260200190815260200160002060020160009054906101000a900473ffffffffffffffffffffffffffffffffffffffff1673ffffffffffffffffffffffffffffffffffffffff16036109265760018361092391906136e0565b92505b808061093190613743565b915050610899565b5060008267ffffffffffffffff811115610956576109556132fa565b5b60405190808252806020026020018201604052801561098f57816020015b61097c612dc5565b8152602001906001900390816109745790505b50905060005b84811015610b64573373ffffffffffffffffffffffffffffffffffffffff16600d60006001846109c591906136e0565b815260200190815260200160002060020160009054906101000a900473ffffffffffffffffffffffffffffffffffffffff1673ffffffffffffffffffffffffffffffffffffffff1603610b51576000600182610a2191906136e0565b90506000600d60008381526020019081526020016000209050806040518060a0016040529081600082015481526020016001820160009054906101000a900473ffffffffffffffffffffffffffffffffffffffff1673ffffffffffffffffffffffffffffffffffffffff1673ffffffffffffffffffffffffffffffffffffffff1681526020016002820160009054906101000a900473ffffffffffffffffffffffffffffffffffffffff1673ffffffffffffffffffffffffffffffffffffffff1673ffffffffffffffffffffffffffffffffffffffff168152602001600382015481526020016004820160009054906101000a900460ff161515151581525050848681518110610b3457610b33613714565b5b6020026020010181905250600185610b4c91906136e0565b945050505b8080610b5c90613743565b915050610995565b508094505050505090565b600073ffffffffffffffffffffffffffffffffffffffff168273ffffffffffffffffffffffffffffffffffffffff1603610be15760006040517f64a0ae92000000000000000000000000000000000000000000000000000000008152600401610bd89190613047565b60405180910390fd5b6000610bf58383610bf0611cae565b611cc8565b90508373ffffffffffffffffffffffffffffffffffffffff168173ffffffffffffffffffffffffffffffffffffffff1614610c6b578382826040517f64283d7b000000000000000000000000000000000000000000000000000000008152600401610c629392919061378b565b60405180910390fd5b50505050565b60606000600854905060008060005b83811015610d5a57600d6000600183610c9991906136e0565b815260200190815260200160002060040160009054906101000a900460ff16158015610d3257503073ffffffffffffffffffffffffffffffffffffffff16600d6000600184610ce891906136e0565b815260200190815260200160002060020160009054906101000a900473ffffffffffffffffffffffffffffffffffffffff1673ffffffffffffffffffffffffffffffffffffffff16145b15610d4757600183610d4491906136e0565b92505b8080610d5290613743565b915050610c80565b5060008267ffffffffffffffff811115610d7757610d766132fa565b5b604051908082528060200260200182016040528015610db057816020015b610d9d612dc5565b815260200190600190039081610d955790505b50905060005b84811015610f6a576000600182610dcd91906136e0565b90503073ffffffffffffffffffffffffffffffffffffffff16600d600083815260200190815260200160002060020160009054906101000a900473ffffffffffffffffffffffffffffffffffffffff1673ffffffffffffffffffffffffffffffffffffffff1603610f56576000600d60008381526020019081526020016000209050806040518060a0016040529081600082015481526020016001820160009054906101000a900473ffffffffffffffffffffffffffffffffffffffff1673ffffffffffffffffffffffffffffffffffffffff1673ffffffffffffffffffffffffffffffffffffffff1681526020016002820160009054906101000a900473ffffffffffffffffffffffffffffffffffffffff1673ffffffffffffffffffffffffffffffffffffffff1673ffffffffffffffffffffffffffffffffffffffff168152602001600382015481526020016004820160009054906101000a900460ff161515151581525050848681518110610f4957610f48613714565b5b6020026020010181905250505b508080610f6290613743565b915050610db6565b508094505050505090565b610f908383836040518060200160405280600081525061140d565b505050565b6000610fa082611be9565b9050919050565b60008073ffffffffffffffffffffffffffffffffffffffff168273ffffffffffffffffffffffffffffffffffffffff160361101a5760006040517f89c62b640000000000000000000000000000000000000000000000000000000081526004016110119190613047565b60405180910390fd5b600460008373ffffffffffffffffffffffffffffffffffffffff1673ffffffffffffffffffffffffffffffffffffffff168152602001908152602001600020549050919050565b6000600e60003373ffffffffffffffffffffffffffffffffffffffff1673ffffffffffffffffffffffffffffffffffffffff168152602001908152602001600020549050600081116110e8576040517f08c379a00000000000000000000000000000000000000000000000000000000081526004016110df90613834565b60405180910390fd5b8047101561112b576040517f08c379a0000000000000000000000000000000000000000000000000000000008152600401611122906138c6565b60405180910390fd5b6000600e60003373ffffffffffffffffffffffffffffffffffffffff1673ffffffffffffffffffffffffffffffffffffffff168152602001908152602001600020819055503373ffffffffffffffffffffffffffffffffffffffff166108fc829081150290604051600060405180830381858888f193505050501580156111b6573d6000803e3d6000fd5b5050565b60006001600860008282546111cf91906136e0565b92505081905550600060085490506111e73382611ee2565b6111f18185611fdb565b6111fb8184612037565b8091505092915050565b60606002805461121490613680565b80601f016020809104026020016040519081016040528092919081815260200182805461124090613680565b801561128d5780601f106112625761010080835404028352916020019161128d565b820191906000526020600020905b81548152906001019060200180831161127057829003601f168201915b5050505050905090565b6000600e60008373ffffffffffffffffffffffffffffffffffffffff1673ffffffffffffffffffffffffffffffffffffffff168152602001908152602001600020549050919050565b6112f26112eb611cae565b83836121f6565b5050565b6112fe612365565b600d600082815260200190815260200160002060010160009054906101000a900473ffffffffffffffffffffffffffffffffffffffff1673ffffffffffffffffffffffffffffffffffffffff163373ffffffffffffffffffffffffffffffffffffffff16146113a2576040517f08c379a000000000000000000000000000000000000000000000000000000000815260040161139990613932565b60405180910390fd5b33600d600083815260200190815260200160002060020160006101000a81548173ffffffffffffffffffffffffffffffffffffffff021916908373ffffffffffffffffffffffffffffffffffffffff160217905550611402303383610b6f565b61140a6123ab565b50565b611418848484610b6f565b611424848484846123b5565b50505050565b3373ffffffffffffffffffffffffffffffffffffffff16600a60009054906101000a900473ffffffffffffffffffffffffffffffffffffffff1673ffffffffffffffffffffffffffffffffffffffff16146114ba576040517f08c379a00000000000000000000000000000000000000000000000000000000081526004016114b1906139c4565b60405180910390fd5b80600b8190555050565b6000600d60008381526020019081526020016000206003015490506000600d600084815260200190815260200160002060010160009054906101000a900473ffffffffffffffffffffffffffffffffffffffff16905081341461155c576040517f08c379a000000000000000000000000000000000000000000000000000000000815260040161155390613a56565b60405180910390fd5b6000600c54600b548461156f9190613a76565b6115799190613ae7565b9050600081846115899190613b18565b9050611595838261256c565b33600d600087815260200190815260200160002060020160006101000a81548173ffffffffffffffffffffffffffffffffffffffff021916908373ffffffffffffffffffffffffffffffffffffffff1602179055506001600d600087815260200190815260200160002060040160006101000a81548160ff02191690831515021790555060016009600082825461162c91906136e0565b9250508190555061165f600a60009054906101000a900473ffffffffffffffffffffffffffffffffffffffff168361256c565b61166a3033876125c6565b5050505050565b606061167c82611be9565b50600060076000848152602001908152602001600020805461169d90613680565b80601f01602080910402602001604051908101604052809291908181526020018280546116c990613680565b80156117165780601f106116eb57610100808354040283529160200191611716565b820191906000526020600020905b8154815290600101906020018083116116f957829003601f168201915b505050505090506000611727612733565b9050600081510361173c57819250505061177f565b600082511115611771578082604051602001611759929190613b88565b6040516020818303038152906040529250505061177f565b61177a8461274a565b925050505b919050565b6000600b54905090565b6000600660008473ffffffffffffffffffffffffffffffffffffffff1673ffffffffffffffffffffffffffffffffffffffff16815260200190815260200160002060008373ffffffffffffffffffffffffffffffffffffffff1673ffffffffffffffffffffffffffffffffffffffff16815260200190815260200160002060009054906101000a900460ff16905092915050565b60606000600854905060008060005b838110156118d1573373ffffffffffffffffffffffffffffffffffffffff16600d600060018461186191906136e0565b815260200190815260200160002060010160009054906101000a900473ffffffffffffffffffffffffffffffffffffffff1673ffffffffffffffffffffffffffffffffffffffff16036118be576001836118bb91906136e0565b92505b80806118c990613743565b915050611831565b5060008267ffffffffffffffff8111156118ee576118ed6132fa565b5b60405190808252806020026020018201604052801561192757816020015b611914612dc5565b81526020019060019003908161190c5790505b50905060005b84811015611afc573373ffffffffffffffffffffffffffffffffffffffff16600d600060018461195d91906136e0565b815260200190815260200160002060010160009054906101000a900473ffffffffffffffffffffffffffffffffffffffff1673ffffffffffffffffffffffffffffffffffffffff1603611ae95760006001826119b991906136e0565b90506000600d60008381526020019081526020016000209050806040518060a0016040529081600082015481526020016001820160009054906101000a900473ffffffffffffffffffffffffffffffffffffffff1673ffffffffffffffffffffffffffffffffffffffff1673ffffffffffffffffffffffffffffffffffffffff1681526020016002820160009054906101000a900473ffffffffffffffffffffffffffffffffffffffff1673ffffffffffffffffffffffffffffffffffffffff1673ffffffffffffffffffffffffffffffffffffffff168152602001600382015481526020016004820160009054906101000a900460ff161515151581525050848681518110611acc57611acb613714565b5b6020026020010181905250600185611ae491906136e0565b945050505b8080611af490613743565b91505061192d565b508094505050505090565b60007f80ac58cd000000000000000000000000000000000000000000000000000000007bffffffffffffffffffffffffffffffffffffffffffffffffffffffff1916827bffffffffffffffffffffffffffffffffffffffffffffffffffffffff19161480611bd257507f5b5e139f000000000000000000000000000000000000000000000000000000007bffffffffffffffffffffffffffffffffffffffffffffffffffffffff1916827bffffffffffffffffffffffffffffffffffffffffffffffffffffffff1916145b80611be25750611be1826127b3565b5b9050919050565b600080611bf58361281d565b9050600073ffffffffffffffffffffffffffffffffffffffff168173ffffffffffffffffffffffffffffffffffffffff1603611c6857826040517f7e273289000000000000000000000000000000000000000000000000000000008152600401611c5f91906132d5565b60405180910390fd5b80915050919050565b60006005600083815260200190815260200160002060009054906101000a900473ffffffffffffffffffffffffffffffffffffffff169050919050565b600033905090565b611cc3838383600161285a565b505050565b600080611cd48461281d565b9050600073ffffffffffffffffffffffffffffffffffffffff168373ffffffffffffffffffffffffffffffffffffffff1614611d1657611d15818486612a1f565b5b600073ffffffffffffffffffffffffffffffffffffffff168173ffffffffffffffffffffffffffffffffffffffff1614611da757611d5860008560008061285a565b6001600460008373ffffffffffffffffffffffffffffffffffffffff1673ffffffffffffffffffffffffffffffffffffffff168152602001908152602001600020600082825403925050819055505b600073ffffffffffffffffffffffffffffffffffffffff168573ffffffffffffffffffffffffffffffffffffffff1614611e2a576001600460008773ffffffffffffffffffffffffffffffffffffffff1673ffffffffffffffffffffffffffffffffffffffff168152602001908152602001600020600082825401925050819055505b846003600086815260200190815260200160002060006101000a81548173ffffffffffffffffffffffffffffffffffffffff021916908373ffffffffffffffffffffffffffffffffffffffff160217905550838573ffffffffffffffffffffffffffffffffffffffff168273ffffffffffffffffffffffffffffffffffffffff167fddf252ad1be2c89b69c2b068fc378daa952ba7f163c4a11628f55a4df523b3ef60405160405180910390a4809150509392505050565b600073ffffffffffffffffffffffffffffffffffffffff168273ffffffffffffffffffffffffffffffffffffffff1603611f545760006040517f64a0ae92000000000000000000000000000000000000000000000000000000008152600401611f4b9190613047565b60405180910390fd5b6000611f6283836000611cc8565b9050600073ffffffffffffffffffffffffffffffffffffffff168173ffffffffffffffffffffffffffffffffffffffff1614611fd65760006040517f73c6ac6e000000000000000000000000000000000000000000000000000000008152600401611fcd9190613047565b60405180910390fd5b505050565b80600760008481526020019081526020016000209081611ffb9190613d58565b507ff8e1a15aba9398e019f0b49df1a4fde98ee17ae345cb5f6b5e2c27f5033e8ce78260405161202b91906132d5565b60405180910390a15050565b6000811161207a576040517f08c379a000000000000000000000000000000000000000000000000000000000815260040161207190613e76565b60405180910390fd5b6040518060a001604052808381526020013373ffffffffffffffffffffffffffffffffffffffff1681526020013073ffffffffffffffffffffffffffffffffffffffff16815260200182815260200160001515815250600d60008481526020019081526020016000206000820151816000015560208201518160010160006101000a81548173ffffffffffffffffffffffffffffffffffffffff021916908373ffffffffffffffffffffffffffffffffffffffff16021790555060408201518160020160006101000a81548173ffffffffffffffffffffffffffffffffffffffff021916908373ffffffffffffffffffffffffffffffffffffffff1602179055506060820151816003015560808201518160040160006101000a81548160ff0219169083151502179055509050506121b33330846125c6565b817fb640004f1d14576d0c209e240cad0410e0d8c0c33a09375861fbadae2588a98d33308460006040516121ea9493929190613e96565b60405180910390a25050565b600073ffffffffffffffffffffffffffffffffffffffff168273ffffffffffffffffffffffffffffffffffffffff160361226757816040517f5b08ba1800000000000000000000000000000000000000000000000000000000815260040161225e9190613047565b60405180910390fd5b80600660008573ffffffffffffffffffffffffffffffffffffffff1673ffffffffffffffffffffffffffffffffffffffff16815260200190815260200160002060008473ffffffffffffffffffffffffffffffffffffffff1673ffffffffffffffffffffffffffffffffffffffff16815260200190815260200160002060006101000a81548160ff0219169083151502179055508173ffffffffffffffffffffffffffffffffffffffff168373ffffffffffffffffffffffffffffffffffffffff167f17307eab39ab6107e8899845ad3d59bd9653f200f220920489ca2b5937696c31836040516123589190612ed6565b60405180910390a3505050565b6002600054036123a1576040517f3ee5aeb500000000000000000000000000000000000000000000000000000000815260040160405180910390fd5b6002600081905550565b6001600081905550565b60008373ffffffffffffffffffffffffffffffffffffffff163b1115612566578273ffffffffffffffffffffffffffffffffffffffff1663150b7a026123f9611cae565b8685856040518563ffffffff1660e01b815260040161241b9493929190613f30565b6020604051808303816000875af192505050801561245757506040513d601f19601f820116820180604052508101906124549190613f91565b60015b6124db573d8060008114612487576040519150601f19603f3d011682016040523d82523d6000602084013e61248c565b606091505b5060008151036124d357836040517f64a0ae920000000000000000000000000000000000000000000000000000000081526004016124ca9190613047565b60405180910390fd5b805181602001fd5b63150b7a0260e01b7bffffffffffffffffffffffffffffffffffffffffffffffffffffffff1916817bffffffffffffffffffffffffffffffffffffffffffffffffffffffff19161461256457836040517f64a0ae9200000000000000000000000000000000000000000000000000000000815260040161255b9190613047565b60405180910390fd5b505b50505050565b80600e60008473ffffffffffffffffffffffffffffffffffffffff1673ffffffffffffffffffffffffffffffffffffffff16815260200190815260200160002060008282546125bb91906136e0565b925050819055505050565b600073ffffffffffffffffffffffffffffffffffffffff168273ffffffffffffffffffffffffffffffffffffffff16036126385760006040517f64a0ae9200000000000000000000000000000000000000000000000000000000815260040161262f9190613047565b60405180910390fd5b600061264683836000611cc8565b9050600073ffffffffffffffffffffffffffffffffffffffff168173ffffffffffffffffffffffffffffffffffffffff16036126b957816040517f7e2732890000000000000000000000000000000000000000000000000000000081526004016126b091906132d5565b60405180910390fd5b8373ffffffffffffffffffffffffffffffffffffffff168173ffffffffffffffffffffffffffffffffffffffff161461272d578382826040517f64283d7b0000000000000000000000000000000000000000000000000000000081526004016127249392919061378b565b60405180910390fd5b50505050565b606060405180602001604052806000815250905090565b606061275582611be9565b506000612760612733565b9050600081511161278057604051806020016040528060008152506127ab565b8061278a84612ae3565b60405160200161279b929190613b88565b6040516020818303038152906040525b915050919050565b60007f01ffc9a7000000000000000000000000000000000000000000000000000000007bffffffffffffffffffffffffffffffffffffffffffffffffffffffff1916827bffffffffffffffffffffffffffffffffffffffffffffffffffffffff1916149050919050565b60006003600083815260200190815260200160002060009054906101000a900473ffffffffffffffffffffffffffffffffffffffff169050919050565b80806128935750600073ffffffffffffffffffffffffffffffffffffffff168273ffffffffffffffffffffffffffffffffffffffff1614155b156129c75760006128a384611be9565b9050600073ffffffffffffffffffffffffffffffffffffffff168373ffffffffffffffffffffffffffffffffffffffff161415801561290e57508273ffffffffffffffffffffffffffffffffffffffff168173ffffffffffffffffffffffffffffffffffffffff1614155b8015612921575061291f818461178e565b155b1561296357826040517fa9fbf51f00000000000000000000000000000000000000000000000000000000815260040161295a9190613047565b60405180910390fd5b81156129c557838573ffffffffffffffffffffffffffffffffffffffff168273ffffffffffffffffffffffffffffffffffffffff167f8c5be1e5ebec7d5bd14f71427d1e84f3dd0314c0f7b2291e5b200ac8c7c3b92560405160405180910390a45b505b836005600085815260200190815260200160002060006101000a81548173ffffffffffffffffffffffffffffffffffffffff021916908373ffffffffffffffffffffffffffffffffffffffff16021790555050505050565b612a2a838383612bb1565b612ade57600073ffffffffffffffffffffffffffffffffffffffff168373ffffffffffffffffffffffffffffffffffffffff1603612a9f57806040517f7e273289000000000000000000000000000000000000000000000000000000008152600401612a9691906132d5565b60405180910390fd5b81816040517f177e802f000000000000000000000000000000000000000000000000000000008152600401612ad5929190613fbe565b60405180910390fd5b505050565b606060006001612af284612c72565b01905060008167ffffffffffffffff811115612b1157612b106132fa565b5b6040519080825280601f01601f191660200182016040528015612b435781602001600182028036833780820191505090505b509050600082602001820190505b600115612ba6578080600190039150507f3031323334353637383961626364656600000000000000000000000000000000600a86061a8153600a8581612b9a57612b99613ab8565b5b04945060008503612b51575b819350505050919050565b60008073ffffffffffffffffffffffffffffffffffffffff168373ffffffffffffffffffffffffffffffffffffffff1614158015612c6957508273ffffffffffffffffffffffffffffffffffffffff168473ffffffffffffffffffffffffffffffffffffffff161480612c2a5750612c29848461178e565b5b80612c6857508273ffffffffffffffffffffffffffffffffffffffff16612c5083611c71565b73ffffffffffffffffffffffffffffffffffffffff16145b5b90509392505050565b600080600090507a184f03e93ff9f4daa797ed6e38ed64bf6a1f0100000000000000008310612cd0577a184f03e93ff9f4daa797ed6e38ed64bf6a1f0100000000000000008381612cc657612cc5613ab8565b5b0492506040810190505b6d04ee2d6d415b85acef81000000008310612d0d576d04ee2d6d415b85acef81000000008381612d0357612d02613ab8565b5b0492506020810190505b662386f26fc100008310612d3c57662386f26fc100008381612d3257612d31613ab8565b5b0492506010810190505b6305f5e1008310612d65576305f5e1008381612d5b57612d5a613ab8565b5b0492506008810190505b6127108310612d8a576127108381612d8057612d7f613ab8565b5b0492506004810190505b60648310612dad5760648381612da357612da2613ab8565b5b0492506002810190505b600a8310612dbc576001810190505b80915050919050565b6040518060a0016040528060008152602001600073ffffffffffffffffffffffffffffffffffffffff168152602001600073ffffffffffffffffffffffffffffffffffffffff168152602001600081526020016000151581525090565b6000604051905090565b600080fd5b600080fd5b60007fffffffff0000000000000000000000000000000000000000000000000000000082169050919050565b612e6b81612e36565b8114612e7657600080fd5b50565b600081359050612e8881612e62565b92915050565b600060208284031215612ea457612ea3612e2c565b5b6000612eb284828501612e79565b91505092915050565b60008115159050919050565b612ed081612ebb565b82525050565b6000602082019050612eeb6000830184612ec7565b92915050565b600081519050919050565b600082825260208201905092915050565b60005b83811015612f2b578082015181840152602081019050612f10565b60008484015250505050565b6000601f19601f8301169050919050565b6000612f5382612ef1565b612f5d8185612efc565b9350612f6d818560208601612f0d565b612f7681612f37565b840191505092915050565b60006020820190508181036000830152612f9b8184612f48565b905092915050565b6000819050919050565b612fb681612fa3565b8114612fc157600080fd5b50565b600081359050612fd381612fad565b92915050565b600060208284031215612fef57612fee612e2c565b5b6000612ffd84828501612fc4565b91505092915050565b600073ffffffffffffffffffffffffffffffffffffffff82169050919050565b600061303182613006565b9050919050565b61304181613026565b82525050565b600060208201905061305c6000830184613038565b92915050565b61306b81613026565b811461307657600080fd5b50565b60008135905061308881613062565b92915050565b600080604083850312156130a5576130a4612e2c565b5b60006130b385828601613079565b92505060206130c485828601612fc4565b9150509250929050565b600081519050919050565b600082825260208201905092915050565b6000819050602082019050919050565b61310381612fa3565b82525050565b600061311482613006565b9050919050565b61312481613109565b82525050565b61313381612ebb565b82525050565b60a08201600082015161314f60008501826130fa565b506020820151613162602085018261311b565b506040820151613175604085018261311b565b50606082015161318860608501826130fa565b50608082015161319b608085018261312a565b50505050565b60006131ad8383613139565b60a08301905092915050565b6000602082019050919050565b60006131d1826130ce565b6131db81856130d9565b93506131e6836130ea565b8060005b838110156132175781516131fe88826131a1565b9750613209836131b9565b9250506001810190506131ea565b5085935050505092915050565b6000602082019050818103600083015261323e81846131c6565b905092915050565b60008060006060848603121561325f5761325e612e2c565b5b600061326d86828701613079565b935050602061327e86828701613079565b925050604061328f86828701612fc4565b9150509250925092565b6000602082840312156132af576132ae612e2c565b5b60006132bd84828501613079565b91505092915050565b6132cf81612fa3565b82525050565b60006020820190506132ea60008301846132c6565b92915050565b600080fd5b600080fd5b7f4e487b7100000000000000000000000000000000000000000000000000000000600052604160045260246000fd5b61333282612f37565b810181811067ffffffffffffffff82111715613351576133506132fa565b5b80604052505050565b6000613364612e22565b90506133708282613329565b919050565b600067ffffffffffffffff8211156133905761338f6132fa565b5b61339982612f37565b9050602081019050919050565b82818337600083830152505050565b60006133c86133c384613375565b61335a565b9050828152602081018484840111156133e4576133e36132f5565b5b6133ef8482856133a6565b509392505050565b600082601f83011261340c5761340b6132f0565b5b813561341c8482602086016133b5565b91505092915050565b6000806040838503121561343c5761343b612e2c565b5b600083013567ffffffffffffffff81111561345a57613459612e31565b5b613466858286016133f7565b925050602061347785828601612fc4565b9150509250929050565b61348a81612ebb565b811461349557600080fd5b50565b6000813590506134a781613481565b92915050565b600080604083850312156134c4576134c3612e2c565b5b60006134d285828601613079565b92505060206134e385828601613498565b9150509250929050565b600067ffffffffffffffff821115613508576135076132fa565b5b61351182612f37565b9050602081019050919050565b600061353161352c846134ed565b61335a565b90508281526020810184848401111561354d5761354c6132f5565b5b6135588482856133a6565b509392505050565b600082601f830112613575576135746132f0565b5b813561358584826020860161351e565b91505092915050565b600080600080608085870312156135a8576135a7612e2c565b5b60006135b687828801613079565b94505060206135c787828801613079565b93505060406135d887828801612fc4565b925050606085013567ffffffffffffffff8111156135f9576135f8612e31565b5b61360587828801613560565b91505092959194509250565b6000806040838503121561362857613627612e2c565b5b600061363685828601613079565b925050602061364785828601613079565b9150509250929050565b7f4e487b7100000000000000000000000000000000000000000000000000000000600052602260045260246000fd5b6000600282049050600182168061369857607f821691505b6020821081036136ab576136aa613651565b5b50919050565b7f4e487b7100000000000000000000000000000000000000000000000000000000600052601160045260246000fd5b60006136eb82612fa3565b91506136f683612fa3565b925082820190508082111561370e5761370d6136b1565b5b92915050565b7f4e487b7100000000000000000000000000000000000000000000000000000000600052603260045260246000fd5b600061374e82612fa3565b91507fffffffffffffffffffffffffffffffffffffffffffffffffffffffffffffffff82036137805761377f6136b1565b5b600182019050919050565b60006060820190506137a06000830186613038565b6137ad60208301856132c6565b6137ba6040830184613038565b949350505050565b7f546865726520617265206e6f206372656469747320696e20746869732072656360008201527f697069656e742061646472657373000000000000000000000000000000000000602082015250565b600061381e602e83612efc565b9150613829826137c2565b604082019050919050565b6000602082019050818103600083015261384d81613811565b9050919050565b7f546865726520617265206e6f206372656469747320696e207468697320636f6e60008201527f7472616374206164647265737300000000000000000000000000000000000000602082015250565b60006138b0602d83612efc565b91506138bb82613854565b604082019050919050565b600060208201905081810360008301526138df816138a3565b9050919050565b7f4f6e6c792073656c6c6572206d617920756e6c69737420616e206974656d0000600082015250565b600061391c601e83612efc565b9150613927826138e6565b602082019050919050565b6000602082019050818103600083015261394b8161390f565b9050919050565b7f4f6e6c79206d61726b6574706c616365206f776e65722063616e20757064617460008201527f65207265776172642070657263656e746167652e000000000000000000000000602082015250565b60006139ae603483612efc565b91506139b982613952565b604082019050919050565b600060208201905081810360008301526139dd816139a1565b9050919050565b7f506c65617365207375626d6974207468652061736b696e67207072696365206960008201527f6e206f7264657220746f20636f6d706c65746520746865207075726368617365602082015250565b6000613a40604083612efc565b9150613a4b826139e4565b604082019050919050565b60006020820190508181036000830152613a6f81613a33565b9050919050565b6000613a8182612fa3565b9150613a8c83612fa3565b9250828202613a9a81612fa3565b91508282048414831517613ab157613ab06136b1565b5b5092915050565b7f4e487b7100000000000000000000000000000000000000000000000000000000600052601260045260246000fd5b6000613af282612fa3565b9150613afd83612fa3565b925082613b0d57613b0c613ab8565b5b828204905092915050565b6000613b2382612fa3565b9150613b2e83612fa3565b9250828203905081811115613b4657613b456136b1565b5b92915050565b600081905092915050565b6000613b6282612ef1565b613b6c8185613b4c565b9350613b7c818560208601612f0d565b80840191505092915050565b6000613b948285613b57565b9150613ba08284613b57565b91508190509392505050565b60008190508160005260206000209050919050565b60006020601f8301049050919050565b600082821b905092915050565b600060088302613c0e7fffffffffffffffffffffffffffffffffffffffffffffffffffffffffffffffff82613bd1565b613c188683613bd1565b95508019841693508086168417925050509392505050565b6000819050919050565b6000613c55613c50613c4b84612fa3565b613c30565b612fa3565b9050919050565b6000819050919050565b613c6f83613c3a565b613c83613c7b82613c5c565b848454613bde565b825550505050565b600090565b613c98613c8b565b613ca3818484613c66565b505050565b5b81811015613cc757613cbc600082613c90565b600181019050613ca9565b5050565b601f821115613d0c57613cdd81613bac565b613ce684613bc1565b81016020851015613cf5578190505b613d09613d0185613bc1565b830182613ca8565b50505b505050565b600082821c905092915050565b6000613d2f60001984600802613d11565b1980831691505092915050565b6000613d488383613d1e565b9150826002028217905092915050565b613d6182612ef1565b67ffffffffffffffff811115613d7a57613d796132fa565b5b613d848254613680565b613d8f828285613ccb565b600060209050601f831160018114613dc25760008415613db0578287015190505b613dba8582613d3c565b865550613e22565b601f198416613dd086613bac565b60005b82811015613df857848901518255600182019150602085019450602081019050613dd3565b86831015613e155784890151613e11601f891682613d1e565b8355505b6001600288020188555050505b505050505050565b7f5072696365206d757374206265206174206c6561737420312077656900000000600082015250565b6000613e60601c83612efc565b9150613e6b82613e2a565b602082019050919050565b60006020820190508181036000830152613e8f81613e53565b9050919050565b6000608082019050613eab6000830187613038565b613eb86020830186613038565b613ec560408301856132c6565b613ed26060830184612ec7565b95945050505050565b600081519050919050565b600082825260208201905092915050565b6000613f0282613edb565b613f0c8185613ee6565b9350613f1c818560208601612f0d565b613f2581612f37565b840191505092915050565b6000608082019050613f456000830187613038565b613f526020830186613038565b613f5f60408301856132c6565b8181036060830152613f718184613ef7565b905095945050505050565b600081519050613f8b81612e62565b92915050565b600060208284031215613fa757613fa6612e2c565b5b6000613fb584828501613f7c565b91505092915050565b6000604082019050613fd36000830185613038565b613fe060208301846132c6565b939250505056fea2646970667358221220b36c4f8e14a4720085169a76d541e539f85b03bad02bdfda56448c062ba6162664736f6c63430008140033",
  "linkReferences": {},
  "deployedLinkReferences": {}
}