{
  "_format": "hh-sol-artifact-1",
  "contractName": "FRDAirDrop",
  "sourceName": "contracts/FRDAirDrop.sol",
  "abi": [
    {
      "inputs": [],
      "stateMutability": "nonpayable",
      "type": "constructor"
    },
    {
      "inputs": [],
      "name": "DuplicateAirDropUserNotAllowed",
      "type": "error"
    },
    {
      "inputs": [],
      "name": "Unauthorized",
      "type": "error"
    },
    {
      "anonymous": false,
      "inputs": [
        {
          "indexed": true,
          "internalType": "uint256",
          "name": "airdropId",
          "type": "uint256"
        },
        {
          "indexed": false,
          "internalType": "address",
          "name": "walletaddress",
          "type": "address"
        }
      ],
      "name": "AddAirDropUser",
      "type": "event"
    },
    {
      "inputs": [],
      "name": "GetAllAirDroppers",
      "outputs": [
        {
          "components": [
            {
              "internalType": "uint256",
              "name": "airdropId",
              "type": "uint256"
            },
            {
              "internalType": "address",
              "name": "walletaddress",
              "type": "address"
            }
          ],
          "internalType": "struct FRDAirDrop.AirDropUsers[]",
          "name": "",
          "type": "tuple[]"
        }
      ],
      "stateMutability": "view",
      "type": "function"
    },
    {
      "inputs": [],
      "name": "addAirDropUser",
      "outputs": [],
      "stateMutability": "nonpayable",
      "type": "function"
    },
    {
      "inputs": [],
      "name": "getAirDropUsersCount",
      "outputs": [
        {
          "internalType": "uint256",
          "name": "",
          "type": "uint256"
        }
      ],
      "stateMutability": "view",
      "type": "function"
    }
  ],
  "bytecode": "0x60806040524260025534801561001457600080fd5b5033600160006101000a81548173ffffffffffffffffffffffffffffffffffffffff021916908373ffffffffffffffffffffffffffffffffffffffff160217905550610798806100656000396000f3fe608060405234801561001057600080fd5b50600436106100415760003560e01c80636c8f4f2414610046578063706be450146100645780639a58893714610082575b600080fd5b61004e61008c565b60405161005b91906105e3565b60405180910390f35b61006c6101d8565b6040516100799190610614565b60405180910390f35b61008a6101e1565b005b60606000805490506000808267ffffffffffffffff8111156100b1576100b061062f565b5b6040519080825280602002602001820160405280156100ea57816020015b6100d761047b565b8152602001906001900390816100cf5790505b50905060005b838110156101ce576000600182610107919061068d565b9050600060056000838152602001908152602001600020905080604051806040016040529081600082015481526020016001820160009054906101000a900473ffffffffffffffffffffffffffffffffffffffff1673ffffffffffffffffffffffffffffffffffffffff1673ffffffffffffffffffffffffffffffffffffffff168152505084868151811061019f5761019e6106c1565b5b60200260200101819052506001856101b7919061068d565b9450505080806101c6906106f0565b9150506100f0565b5080935050505090565b60008054905090565b600073ffffffffffffffffffffffffffffffffffffffff163373ffffffffffffffffffffffffffffffffffffffff1603610247576040517f82b4290000000000000000000000000000000000000000000000000000000000815260040160405180910390fd5b3373ffffffffffffffffffffffffffffffffffffffff16600460003373ffffffffffffffffffffffffffffffffffffffff1673ffffffffffffffffffffffffffffffffffffffff16815260200190815260200160002060010160009054906101000a900473ffffffffffffffffffffffffffffffffffffffff1673ffffffffffffffffffffffffffffffffffffffff160361030e576040517ffe65802a00000000000000000000000000000000000000000000000000000000815260040160405180910390fd5b6001600080828254610320919061068d565b9250508190555060008054905060405180604001604052808281526020013373ffffffffffffffffffffffffffffffffffffffff16815250600560008381526020019081526020016000206000820151816000015560208201518160010160006101000a81548173ffffffffffffffffffffffffffffffffffffffff021916908373ffffffffffffffffffffffffffffffffffffffff16021790555090505033600460003373ffffffffffffffffffffffffffffffffffffffff1673ffffffffffffffffffffffffffffffffffffffff16815260200190815260200160002060010160006101000a81548173ffffffffffffffffffffffffffffffffffffffff021916908373ffffffffffffffffffffffffffffffffffffffff160217905550807fc3f555ec2bb9d99ea095a68bc8d79b33d586f9e9f5fc35711f08ae0d0f85d56f336040516104709190610747565b60405180910390a250565b604051806040016040528060008152602001600073ffffffffffffffffffffffffffffffffffffffff1681525090565b600081519050919050565b600082825260208201905092915050565b6000819050602082019050919050565b6000819050919050565b6104ea816104d7565b82525050565b600073ffffffffffffffffffffffffffffffffffffffff82169050919050565b600061051b826104f0565b9050919050565b61052b81610510565b82525050565b60408201600082015161054760008501826104e1565b50602082015161055a6020850182610522565b50505050565b600061056c8383610531565b60408301905092915050565b6000602082019050919050565b6000610590826104ab565b61059a81856104b6565b93506105a5836104c7565b8060005b838110156105d65781516105bd8882610560565b97506105c883610578565b9250506001810190506105a9565b5085935050505092915050565b600060208201905081810360008301526105fd8184610585565b905092915050565b61060e816104d7565b82525050565b60006020820190506106296000830184610605565b92915050565b7f4e487b7100000000000000000000000000000000000000000000000000000000600052604160045260246000fd5b7f4e487b7100000000000000000000000000000000000000000000000000000000600052601160045260246000fd5b6000610698826104d7565b91506106a3836104d7565b92508282019050808211156106bb576106ba61065e565b5b92915050565b7f4e487b7100000000000000000000000000000000000000000000000000000000600052603260045260246000fd5b60006106fb826104d7565b91507fffffffffffffffffffffffffffffffffffffffffffffffffffffffffffffffff820361072d5761072c61065e565b5b600182019050919050565b61074181610510565b82525050565b600060208201905061075c6000830184610738565b9291505056fea264697066735822122078ef706faf385b70979434ad279ac759717e29839b7eb155c904f4a6c71240d864736f6c63430008140033",
  "linkReferences": {},
  "deployedLinkReferences": {}
}