{
  "_format": "hh-sol-artifact-1",
  "contractName": "FRDStaking",
  "sourceName": "contracts/FRDStaking.sol",
  "abi": [
    {
      "inputs": [
        {
          "internalType": "address",
          "name": "_FifaRewardTokenAddress",
          "type": "address"
        }
      ],
      "stateMutability": "nonpayable",
      "type": "constructor"
    },
    {
      "inputs": [],
      "name": "AccountNotRegistered",
      "type": "error"
    },
    {
      "inputs": [],
      "name": "AmountIsLessThanMinimumWithdrawAmount",
      "type": "error"
    },
    {
      "inputs": [],
      "name": "AmountIsMoreThanStakeReward",
      "type": "error"
    },
    {
      "inputs": [],
      "name": "InvalidAmount",
      "type": "error"
    },
    {
      "inputs": [],
      "name": "ReentrancyGuardReentrantCall",
      "type": "error"
    },
    {
      "inputs": [],
      "name": "Unauthorized",
      "type": "error"
    },
    {
      "inputs": [],
      "name": "YouMustHaveActiveStakeToWithdraw",
      "type": "error"
    },
    {
      "inputs": [],
      "name": "createTokenFirst",
      "type": "error"
    },
    {
      "inputs": [],
      "name": "downlinealreadyRegistered",
      "type": "error"
    },
    {
      "inputs": [],
      "name": "minWithdrawalTimeNotReached",
      "type": "error"
    },
    {
      "inputs": [],
      "name": "priceMustBeGreaterThanZero",
      "type": "error"
    },
    {
      "inputs": [],
      "name": "referralAlreadyExits",
      "type": "error"
    },
    {
      "inputs": [],
      "name": "referralrewardalreadyClaimed",
      "type": "error"
    },
    {
      "inputs": [],
      "name": "sponsorMustHaveActiveStakeToRefer",
      "type": "error"
    },
    {
      "inputs": [],
      "name": "stakedurationnotCompleted",
      "type": "error"
    },
    {
      "anonymous": false,
      "inputs": [
        {
          "indexed": true,
          "internalType": "uint256",
          "name": "refId",
          "type": "uint256"
        },
        {
          "indexed": false,
          "internalType": "uint256",
          "name": "sponsorUserId",
          "type": "uint256"
        },
        {
          "indexed": false,
          "internalType": "uint256",
          "name": "referralUserId",
          "type": "uint256"
        },
        {
          "indexed": false,
          "internalType": "address",
          "name": "referral",
          "type": "address"
        },
        {
          "indexed": false,
          "internalType": "address",
          "name": "sponsor",
          "type": "address"
        },
        {
          "indexed": false,
          "internalType": "address[]",
          "name": "referrals",
          "type": "address[]"
        }
      ],
      "name": "AddReferral",
      "type": "event"
    },
    {
      "anonymous": false,
      "inputs": [
        {
          "indexed": true,
          "internalType": "address",
          "name": "sponsor",
          "type": "address"
        },
        {
          "indexed": false,
          "internalType": "uint256",
          "name": "amount",
          "type": "uint256"
        }
      ],
      "name": "ReferralRewardClaimed",
      "type": "event"
    },
    {
      "anonymous": false,
      "inputs": [
        {
          "indexed": true,
          "internalType": "uint256",
          "name": "stakeId",
          "type": "uint256"
        },
        {
          "indexed": true,
          "internalType": "address",
          "name": "staker",
          "type": "address"
        },
        {
          "indexed": false,
          "internalType": "uint256",
          "name": "stake_duration",
          "type": "uint256"
        }
      ],
      "name": "StakedEvent",
      "type": "event"
    },
    {
      "anonymous": false,
      "inputs": [
        {
          "indexed": true,
          "internalType": "uint256",
          "name": "userId",
          "type": "uint256"
        },
        {
          "indexed": false,
          "internalType": "address",
          "name": "useraddress",
          "type": "address"
        }
      ],
      "name": "UserRegistered",
      "type": "event"
    },
    {
      "anonymous": false,
      "inputs": [
        {
          "indexed": true,
          "internalType": "address",
          "name": "Withdrawer",
          "type": "address"
        },
        {
          "indexed": false,
          "internalType": "uint256",
          "name": "withdrawAmount",
          "type": "uint256"
        },
        {
          "indexed": false,
          "internalType": "uint256",
          "name": "withdrawTime",
          "type": "uint256"
        },
        {
          "indexed": false,
          "internalType": "uint256",
          "name": "amountToWithdraw",
          "type": "uint256"
        },
        {
          "indexed": false,
          "internalType": "uint256",
          "name": "amountRemaining",
          "type": "uint256"
        }
      ],
      "name": "WithdrawlEvent",
      "type": "event"
    },
    {
      "inputs": [
        {
          "internalType": "uint256",
          "name": "stakeamount",
          "type": "uint256"
        },
        {
          "internalType": "uint256",
          "name": "duration",
          "type": "uint256"
        },
        {
          "internalType": "uint256",
          "name": "profitpercent",
          "type": "uint256"
        }
      ],
      "name": "EstimateReward",
      "outputs": [
        {
          "internalType": "uint256",
          "name": "",
          "type": "uint256"
        }
      ],
      "stateMutability": "view",
      "type": "function"
    },
    {
      "inputs": [],
      "name": "FifaRewardTokenContract",
      "outputs": [
        {
          "internalType": "contract IERC20",
          "name": "",
          "type": "address"
        }
      ],
      "stateMutability": "view",
      "type": "function"
    },
    {
      "inputs": [
        {
          "internalType": "address",
          "name": "",
          "type": "address"
        }
      ],
      "name": "_balanceOf",
      "outputs": [
        {
          "internalType": "uint256",
          "name": "",
          "type": "uint256"
        }
      ],
      "stateMutability": "view",
      "type": "function"
    },
    {
      "inputs": [
        {
          "internalType": "address",
          "name": "sponsorAddress",
          "type": "address"
        },
        {
          "internalType": "address",
          "name": "downlineAddress",
          "type": "address"
        }
      ],
      "name": "addReferral",
      "outputs": [],
      "stateMutability": "nonpayable",
      "type": "function"
    },
    {
      "inputs": [
        {
          "internalType": "uint256",
          "name": "_stakeId",
          "type": "uint256"
        }
      ],
      "name": "calcReward",
      "outputs": [
        {
          "internalType": "uint256",
          "name": "reward",
          "type": "uint256"
        }
      ],
      "stateMutability": "view",
      "type": "function"
    },
    {
      "inputs": [],
      "name": "feeWallet",
      "outputs": [
        {
          "internalType": "address",
          "name": "",
          "type": "address"
        }
      ],
      "stateMutability": "view",
      "type": "function"
    },
    {
      "inputs": [],
      "name": "getContractBalance",
      "outputs": [
        {
          "internalType": "uint256",
          "name": "",
          "type": "uint256"
        }
      ],
      "stateMutability": "view",
      "type": "function"
    },
    {
      "inputs": [
        {
          "internalType": "uint256",
          "name": "_stakeId",
          "type": "uint256"
        }
      ],
      "name": "getMaxWithdrawAmount",
      "outputs": [
        {
          "internalType": "uint256",
          "name": "",
          "type": "uint256"
        }
      ],
      "stateMutability": "view",
      "type": "function"
    },
    {
      "inputs": [
        {
          "internalType": "uint256",
          "name": "_stakeId",
          "type": "uint256"
        }
      ],
      "name": "getMinWithdrawAmount",
      "outputs": [
        {
          "internalType": "uint256",
          "name": "",
          "type": "uint256"
        }
      ],
      "stateMutability": "view",
      "type": "function"
    },
    {
      "inputs": [],
      "name": "getOwner",
      "outputs": [
        {
          "internalType": "address",
          "name": "",
          "type": "address"
        }
      ],
      "stateMutability": "view",
      "type": "function"
    },
    {
      "inputs": [
        {
          "internalType": "address",
          "name": "sponsor",
          "type": "address"
        }
      ],
      "name": "getReferrals",
      "outputs": [
        {
          "internalType": "address[]",
          "name": "",
          "type": "address[]"
        }
      ],
      "stateMutability": "view",
      "type": "function"
    },
    {
      "inputs": [
        {
          "internalType": "uint256",
          "name": "stakeId",
          "type": "uint256"
        }
      ],
      "name": "getStakeRemainingTime",
      "outputs": [
        {
          "internalType": "uint256",
          "name": "",
          "type": "uint256"
        }
      ],
      "stateMutability": "view",
      "type": "function"
    },
    {
      "inputs": [
        {
          "internalType": "address",
          "name": "_useraddress",
          "type": "address"
        }
      ],
      "name": "getUserRefCount",
      "outputs": [
        {
          "internalType": "uint256",
          "name": "",
          "type": "uint256"
        }
      ],
      "stateMutability": "view",
      "type": "function"
    },
    {
      "inputs": [
        {
          "internalType": "address",
          "name": "_user",
          "type": "address"
        }
      ],
      "name": "getUserRegistrationDetails",
      "outputs": [
        {
          "components": [
            {
              "internalType": "uint256",
              "name": "userId",
              "type": "uint256"
            },
            {
              "internalType": "bool",
              "name": "hasStaked",
              "type": "bool"
            },
            {
              "internalType": "uint256",
              "name": "stakeCount",
              "type": "uint256"
            },
            {
              "internalType": "bool",
              "name": "hasActiveStake",
              "type": "bool"
            },
            {
              "internalType": "uint256",
              "name": "refCount",
              "type": "uint256"
            },
            {
              "internalType": "bool",
              "name": "registered",
              "type": "bool"
            },
            {
              "internalType": "bool",
              "name": "wasReferred",
              "type": "bool"
            },
            {
              "internalType": "address",
              "name": "sponsor",
              "type": "address"
            },
            {
              "internalType": "address",
              "name": "walletaddress",
              "type": "address"
            },
            {
              "internalType": "address[]",
              "name": "referrals",
              "type": "address[]"
            }
          ],
          "internalType": "struct FRDStaking.User",
          "name": "",
          "type": "tuple"
        }
      ],
      "stateMutability": "view",
      "type": "function"
    },
    {
      "inputs": [
        {
          "internalType": "address",
          "name": "_useraddress",
          "type": "address"
        }
      ],
      "name": "getUserStakeCount",
      "outputs": [
        {
          "internalType": "uint256",
          "name": "",
          "type": "uint256"
        }
      ],
      "stateMutability": "view",
      "type": "function"
    },
    {
      "inputs": [
        {
          "internalType": "address",
          "name": "sponsor",
          "type": "address"
        }
      ],
      "name": "getsponsorReferralRewards",
      "outputs": [
        {
          "components": [
            {
              "internalType": "uint256",
              "name": "refrewardId",
              "type": "uint256"
            },
            {
              "internalType": "uint256",
              "name": "stakeId",
              "type": "uint256"
            },
            {
              "internalType": "address",
              "name": "sponsor",
              "type": "address"
            },
            {
              "internalType": "uint256",
              "name": "rewardamount",
              "type": "uint256"
            },
            {
              "internalType": "bool",
              "name": "rewardrecieved",
              "type": "bool"
            }
          ],
          "internalType": "struct FRDStaking.ReferralReward[]",
          "name": "",
          "type": "tuple[]"
        }
      ],
      "stateMutability": "view",
      "type": "function"
    },
    {
      "inputs": [
        {
          "internalType": "address",
          "name": "_useraddress",
          "type": "address"
        }
      ],
      "name": "hasActiveStake",
      "outputs": [
        {
          "internalType": "bool",
          "name": "",
          "type": "bool"
        }
      ],
      "stateMutability": "view",
      "type": "function"
    },
    {
      "inputs": [
        {
          "internalType": "address",
          "name": "_useraddress",
          "type": "address"
        }
      ],
      "name": "hasStaked",
      "outputs": [
        {
          "internalType": "bool",
          "name": "",
          "type": "bool"
        }
      ],
      "stateMutability": "view",
      "type": "function"
    },
    {
      "inputs": [],
      "name": "listRegisteredUsers",
      "outputs": [
        {
          "components": [
            {
              "internalType": "uint256",
              "name": "userId",
              "type": "uint256"
            },
            {
              "internalType": "bool",
              "name": "hasStaked",
              "type": "bool"
            },
            {
              "internalType": "uint256",
              "name": "stakeCount",
              "type": "uint256"
            },
            {
              "internalType": "bool",
              "name": "hasActiveStake",
              "type": "bool"
            },
            {
              "internalType": "uint256",
              "name": "refCount",
              "type": "uint256"
            },
            {
              "internalType": "bool",
              "name": "registered",
              "type": "bool"
            },
            {
              "internalType": "bool",
              "name": "wasReferred",
              "type": "bool"
            },
            {
              "internalType": "address",
              "name": "sponsor",
              "type": "address"
            },
            {
              "internalType": "address",
              "name": "walletaddress",
              "type": "address"
            },
            {
              "internalType": "address[]",
              "name": "referrals",
              "type": "address[]"
            }
          ],
          "internalType": "struct FRDStaking.User[]",
          "name": "",
          "type": "tuple[]"
        }
      ],
      "stateMutability": "view",
      "type": "function"
    },
    {
      "inputs": [],
      "name": "loadAllStakes",
      "outputs": [
        {
          "components": [
            {
              "internalType": "uint256",
              "name": "stakeId",
              "type": "uint256"
            },
            {
              "internalType": "uint256",
              "name": "rewardTime",
              "type": "uint256"
            },
            {
              "internalType": "uint256",
              "name": "stakeDuration",
              "type": "uint256"
            },
            {
              "internalType": "uint256",
              "name": "stakeTime",
              "type": "uint256"
            },
            {
              "internalType": "uint256",
              "name": "profitpercent",
              "type": "uint256"
            },
            {
              "internalType": "uint256",
              "name": "stakeAmount",
              "type": "uint256"
            },
            {
              "internalType": "uint256",
              "name": "amountRemaining",
              "type": "uint256"
            },
            {
              "internalType": "uint256",
              "name": "amountWithdrawn",
              "type": "uint256"
            },
            {
              "internalType": "uint256",
              "name": "currentstakeReward",
              "type": "uint256"
            },
            {
              "internalType": "uint256",
              "name": "stakeRewardPerDay",
              "type": "uint256"
            },
            {
              "internalType": "uint256",
              "name": "stakeReward",
              "type": "uint256"
            },
            {
              "internalType": "uint256",
              "name": "totalReward",
              "type": "uint256"
            },
            {
              "internalType": "bool",
              "name": "isActive",
              "type": "bool"
            },
            {
              "internalType": "address",
              "name": "stakerAddress",
              "type": "address"
            }
          ],
          "internalType": "struct FRDStaking.Stake[]",
          "name": "",
          "type": "tuple[]"
        }
      ],
      "stateMutability": "view",
      "type": "function"
    },
    {
      "inputs": [
        {
          "internalType": "address",
          "name": "_useraddress",
          "type": "address"
        }
      ],
      "name": "loadUserStakes",
      "outputs": [
        {
          "components": [
            {
              "internalType": "uint256",
              "name": "stakeId",
              "type": "uint256"
            },
            {
              "internalType": "uint256",
              "name": "rewardTime",
              "type": "uint256"
            },
            {
              "internalType": "uint256",
              "name": "stakeDuration",
              "type": "uint256"
            },
            {
              "internalType": "uint256",
              "name": "stakeTime",
              "type": "uint256"
            },
            {
              "internalType": "uint256",
              "name": "profitpercent",
              "type": "uint256"
            },
            {
              "internalType": "uint256",
              "name": "stakeAmount",
              "type": "uint256"
            },
            {
              "internalType": "uint256",
              "name": "amountRemaining",
              "type": "uint256"
            },
            {
              "internalType": "uint256",
              "name": "amountWithdrawn",
              "type": "uint256"
            },
            {
              "internalType": "uint256",
              "name": "currentstakeReward",
              "type": "uint256"
            },
            {
              "internalType": "uint256",
              "name": "stakeRewardPerDay",
              "type": "uint256"
            },
            {
              "internalType": "uint256",
              "name": "stakeReward",
              "type": "uint256"
            },
            {
              "internalType": "uint256",
              "name": "totalReward",
              "type": "uint256"
            },
            {
              "internalType": "bool",
              "name": "isActive",
              "type": "bool"
            },
            {
              "internalType": "address",
              "name": "stakerAddress",
              "type": "address"
            }
          ],
          "internalType": "struct FRDStaking.Stake[]",
          "name": "",
          "type": "tuple[]"
        }
      ],
      "stateMutability": "view",
      "type": "function"
    },
    {
      "inputs": [],
      "name": "myTokenBalance",
      "outputs": [
        {
          "internalType": "uint256",
          "name": "",
          "type": "uint256"
        }
      ],
      "stateMutability": "view",
      "type": "function"
    },
    {
      "inputs": [],
      "name": "myWalletAddress",
      "outputs": [
        {
          "internalType": "address",
          "name": "",
          "type": "address"
        }
      ],
      "stateMutability": "view",
      "type": "function"
    },
    {
      "inputs": [],
      "name": "nextReferralRewardId",
      "outputs": [
        {
          "internalType": "uint256",
          "name": "",
          "type": "uint256"
        }
      ],
      "stateMutability": "view",
      "type": "function"
    },
    {
      "inputs": [
        {
          "internalType": "uint256",
          "name": "stake_amount",
          "type": "uint256"
        },
        {
          "internalType": "uint256",
          "name": "stake_duration",
          "type": "uint256"
        },
        {
          "internalType": "uint256",
          "name": "profitpercent",
          "type": "uint256"
        }
      ],
      "name": "stake",
      "outputs": [],
      "stateMutability": "nonpayable",
      "type": "function"
    },
    {
      "inputs": [
        {
          "internalType": "address",
          "name": "_useraddress",
          "type": "address"
        }
      ],
      "name": "wasRef_errered",
      "outputs": [
        {
          "internalType": "bool",
          "name": "",
          "type": "bool"
        }
      ],
      "stateMutability": "view",
      "type": "function"
    },
    {
      "inputs": [
        {
          "internalType": "uint256",
          "name": "_stakeId",
          "type": "uint256"
        },
        {
          "internalType": "uint256",
          "name": "_withdrawAmt",
          "type": "uint256"
        }
      ],
      "name": "withdrawStake",
      "outputs": [],
      "stateMutability": "nonpayable",
      "type": "function"
    }
  ],
  "bytecode": "0x60806040526005805573bcceb2145266639e0c39101d48b79b6c694a84dc600860006101000a81548173ffffffffffffffffffffffffffffffffffffffff021916908373ffffffffffffffffffffffffffffffffffffffff1602179055503480156200006a57600080fd5b506040516200513d3803806200513d83398181016040528101906200009091906200018b565b600160008190555080600a60006101000a81548173ffffffffffffffffffffffffffffffffffffffff021916908373ffffffffffffffffffffffffffffffffffffffff16021790555033600460006101000a81548173ffffffffffffffffffffffffffffffffffffffff021916908373ffffffffffffffffffffffffffffffffffffffff16021790555050620001bd565b600080fd5b600073ffffffffffffffffffffffffffffffffffffffff82169050919050565b6000620001538262000126565b9050919050565b620001658162000146565b81146200017157600080fd5b50565b60008151905062000185816200015a565b92915050565b600060208284031215620001a457620001a362000121565b5b6000620001b48482850162000174565b91505092915050565b614f7080620001cd6000396000f3fe608060405234801561001057600080fd5b50600436106101a95760003560e01c806388aff586116100f9578063a7e95edb11610097578063e77c1fc211610071578063e77c1fc214610558578063e9cfce8214610588578063f1fdf469146105a6578063f25f4b56146105c2576101a9565b8063a7e95edb146104da578063c93c8f34146104f8578063cca3e83214610528576101a9565b80639a96c1a2116100d35780639a96c1a214610452578063a19e955514610482578063a4b427c4146104a0578063a638f2e2146104be576101a9565b806388aff586146103e657806388d7459914610404578063893d20e814610434576101a9565b8063544c465c1161016657806369486d291161014057806369486d29146103385780636f9fb98a146103685780637cdaea12146103865780638112e863146103b6576101a9565b8063544c465c146102ba57806355537d25146102ea5780635e6ba5491461031a576101a9565b80630340f124146101ae5780630b5c3f87146101de5780631b545a17146101fa5780633e3f96d91461022a57806341a0894d1461025a578063531eb0771461028a575b600080fd5b6101c860048036038101906101c3919061395d565b6105e0565b6040516101d59190613ae4565b60405180910390f35b6101f860048036038101906101f39190613b06565b6107dd565b005b610214600480360381019061020f919061395d565b610a06565b6040516102219190613b55565b60405180910390f35b610244600480360381019061023f919061395d565b610a52565b6040516102519190613b55565b60405180910390f35b610274600480360381019061026f919061395d565b610a9e565b6040516102819190613c1f565b60405180910390f35b6102a4600480360381019061029f919061395d565b610b6e565b6040516102b19190613d8a565b60405180910390f35b6102d460048036038101906102cf9190613dd8565b610d8c565b6040516102e19190613b55565b60405180910390f35b61030460048036038101906102ff9190613dd8565b610f65565b6040516103119190613b55565b60405180910390f35b610322611123565b60405161032f9190613b55565b60405180910390f35b610352600480360381019061034d919061395d565b61116a565b60405161035f9190613e14565b60405180910390f35b6103706111c3565b60405161037d9190613b55565b60405180910390f35b6103a0600480360381019061039b9190613dd8565b61125b565b6040516103ad9190613b55565b60405180910390f35b6103d060048036038101906103cb919061395d565b61147a565b6040516103dd9190613fff565b60405180910390f35b6103ee611770565b6040516103fb9190614080565b60405180910390f35b61041e6004803603810190610419919061409b565b611796565b60405161042b9190613b55565b60405180910390f35b61043c61184e565b60405161044991906140fd565b60405180910390f35b61046c6004803603810190610467919061395d565b611878565b6040516104799190613e14565b60405180910390f35b61048a6118d1565b6040516104979190613b55565b60405180910390f35b6104a86118d7565b6040516104b591906142b4565b60405180910390f35b6104d860048036038101906104d3919061409b565b611bd0565b005b6104e261235a565b6040516104ef9190613fff565b60405180910390f35b610512600480360381019061050d919061395d565b612531565b60405161051f9190613e14565b60405180910390f35b610542600480360381019061053d919061395d565b61258a565b60405161054f9190613b55565b60405180910390f35b610572600480360381019061056d9190613dd8565b6125a2565b60405161057f9190613b55565b60405180910390f35b6105906125eb565b60405161059d91906140fd565b60405180910390f35b6105c060048036038101906105bb91906142d6565b6125f3565b005b6105ca612d04565b6040516105d791906140fd565b60405180910390f35b6060600060025490506000808267ffffffffffffffff81111561060657610605614316565b5b60405190808252806020026020018201604052801561063f57816020015b61062c6136fe565b8152602001906001900390816106245790505b5090506000600190505b8381116107d1578573ffffffffffffffffffffffffffffffffffffffff16601260006001846106789190614374565b815260200190815260200160002060020160009054906101000a900473ffffffffffffffffffffffffffffffffffffffff1673ffffffffffffffffffffffffffffffffffffffff16036107be576000601260006001846106d89190614374565b81526020019081526020016000209050806040518060a001604052908160008201548152602001600182015481526020016002820160009054906101000a900473ffffffffffffffffffffffffffffffffffffffff1673ffffffffffffffffffffffffffffffffffffffff1673ffffffffffffffffffffffffffffffffffffffff168152602001600382015481526020016004820160009054906101000a900460ff161515151581525050836001846107919190614374565b815181106107a2576107a16143a8565b5b60200260200101819052506001846107ba9190614374565b9350505b80806107c9906143d7565b915050610649565b50809350505050919050565b601160008373ffffffffffffffffffffffffffffffffffffffff1673ffffffffffffffffffffffffffffffffffffffff16815260200190815260200160002060050160009054906101000a900460ff1661086c576040517f08c379a00000000000000000000000000000000000000000000000000000000081526004016108639061447c565b60405180910390fd5b60011515601160008373ffffffffffffffffffffffffffffffffffffffff1673ffffffffffffffffffffffffffffffffffffffff16815260200190815260200160002060050160009054906101000a900460ff16151503610902576040517f08c379a00000000000000000000000000000000000000000000000000000000081526004016108f9906144e8565b60405180910390fd5b6109156000806000806001808888612d2a565b61091f828261302c565b1561095f576040517f08c379a00000000000000000000000000000000000000000000000000000000081526004016109569061457a565b60405180910390fd5b601160008373ffffffffffffffffffffffffffffffffffffffff1673ffffffffffffffffffffffffffffffffffffffff168152602001908152602001600020600701819080600181540180825580915050600190039060005260206000200160009091909190916101000a81548173ffffffffffffffffffffffffffffffffffffffff021916908373ffffffffffffffffffffffffffffffffffffffff1602179055505050565b6000601160008373ffffffffffffffffffffffffffffffffffffffff1673ffffffffffffffffffffffffffffffffffffffff168152602001908152602001600020600201549050919050565b6000601160008373ffffffffffffffffffffffffffffffffffffffff1673ffffffffffffffffffffffffffffffffffffffff168152602001908152602001600020600401549050919050565b6060601160008373ffffffffffffffffffffffffffffffffffffffff1673ffffffffffffffffffffffffffffffffffffffff168152602001908152602001600020600701805480602002602001604051908101604052809291908181526020018280548015610b6257602002820191906000526020600020905b8160009054906101000a900473ffffffffffffffffffffffffffffffffffffffff1673ffffffffffffffffffffffffffffffffffffffff1681526020019060010190808311610b18575b50505050509050919050565b610b76613745565b601160008373ffffffffffffffffffffffffffffffffffffffff1673ffffffffffffffffffffffffffffffffffffffff16815260200190815260200160002060405180610140016040529081600082015481526020016001820160009054906101000a900460ff16151515158152602001600282015481526020016003820160009054906101000a900460ff16151515158152602001600482015481526020016005820160009054906101000a900460ff161515151581526020016005820160019054906101000a900460ff161515151581526020016005820160029054906101000a900473ffffffffffffffffffffffffffffffffffffffff1673ffffffffffffffffffffffffffffffffffffffff1673ffffffffffffffffffffffffffffffffffffffff1681526020016006820160009054906101000a900473ffffffffffffffffffffffffffffffffffffffff1673ffffffffffffffffffffffffffffffffffffffff1673ffffffffffffffffffffffffffffffffffffffff16815260200160078201805480602002602001604051908101604052809291908181526020018280548015610d7c57602002820191906000526020600020905b8160009054906101000a900473ffffffffffffffffffffffffffffffffffffffff1673ffffffffffffffffffffffffffffffffffffffff1681526020019060010190808311610d32575b5050505050815250509050919050565b60008073ffffffffffffffffffffffffffffffffffffffff163373ffffffffffffffffffffffffffffffffffffffff1603610dfc576040517f08c379a0000000000000000000000000000000000000000000000000000000008152600401610df3906145e6565b60405180910390fd5b60001515601160003373ffffffffffffffffffffffffffffffffffffffff1673ffffffffffffffffffffffffffffffffffffffff16815260200190815260200160002060050160009054906101000a900460ff16151503610e92576040517f08c379a0000000000000000000000000000000000000000000000000000000008152600401610e8990614652565b60405180910390fd5b60003373ffffffffffffffffffffffffffffffffffffffff16600e6000858152602001908152602001600020600c0160019054906101000a900473ffffffffffffffffffffffffffffffffffffffff1673ffffffffffffffffffffffffffffffffffffffff1603610f21576000600e6000858152602001908152602001600020600a0154905080915050610f5c565b6040517f08c379a0000000000000000000000000000000000000000000000000000000008152600401610f53906146be565b60405180910390fd5b80915050919050565b60008073ffffffffffffffffffffffffffffffffffffffff163373ffffffffffffffffffffffffffffffffffffffff1603610fd5576040517f08c379a0000000000000000000000000000000000000000000000000000000008152600401610fcc9061472a565b60405180910390fd5b60001515601160003373ffffffffffffffffffffffffffffffffffffffff1673ffffffffffffffffffffffffffffffffffffffff16815260200190815260200160002060050160009054906101000a900460ff1615150361106b576040517f08c379a000000000000000000000000000000000000000000000000000000000815260040161106290614652565b60405180910390fd5b60003373ffffffffffffffffffffffffffffffffffffffff16600e6000858152602001908152602001600020600c0160019054906101000a900473ffffffffffffffffffffffffffffffffffffffff1673ffffffffffffffffffffffffffffffffffffffff160361111a57600e6000848152602001908152602001600020600c0160009054906101000a900460ff161561111957600e6000848152602001908152602001600020600b015490505b5b80915050919050565b6000600b60003373ffffffffffffffffffffffffffffffffffffffff1673ffffffffffffffffffffffffffffffffffffffff16815260200190815260200160002054905090565b6000601160008373ffffffffffffffffffffffffffffffffffffffff1673ffffffffffffffffffffffffffffffffffffffff16815260200190815260200160002060030160009054906101000a900460ff169050919050565b6000600460009054906101000a900473ffffffffffffffffffffffffffffffffffffffff1673ffffffffffffffffffffffffffffffffffffffff163373ffffffffffffffffffffffffffffffffffffffff1603611255576040517f08c379a000000000000000000000000000000000000000000000000000000000815260040161124c906146be565b60405180910390fd5b47905090565b60008073ffffffffffffffffffffffffffffffffffffffff163373ffffffffffffffffffffffffffffffffffffffff16036112cb576040517f08c379a00000000000000000000000000000000000000000000000000000000081526004016112c29061472a565b60405180910390fd5b60001515601160003373ffffffffffffffffffffffffffffffffffffffff1673ffffffffffffffffffffffffffffffffffffffff16815260200190815260200160002060050160009054906101000a900460ff16151503611361576040517f08c379a000000000000000000000000000000000000000000000000000000000815260040161135890614652565b60405180910390fd5b60003373ffffffffffffffffffffffffffffffffffffffff16600e6000858152602001908152602001600020600c0160019054906101000a900473ffffffffffffffffffffffffffffffffffffffff1673ffffffffffffffffffffffffffffffffffffffff160361147157600e6000848152602001908152602001600020600c0160009054906101000a900460ff1615611470576000600e60008581526020019081526020016000206004015490506000600e6000868152602001908152602001600020600501549050600060b4905061146a6103e861145c8561144e858761317c90919063ffffffff16565b61317c90919063ffffffff16565b6131be90919063ffffffff16565b93505050505b5b80915050919050565b60606000600154905060008060005b83811015611529578573ffffffffffffffffffffffffffffffffffffffff16600e60006001846114b99190614374565b8152602001908152602001600020600c0160019054906101000a900473ffffffffffffffffffffffffffffffffffffffff1673ffffffffffffffffffffffffffffffffffffffff1603611516576001836115139190614374565b92505b8080611521906143d7565b915050611489565b5060008267ffffffffffffffff81111561154657611545614316565b5b60405190808252806020026020018201604052801561157f57816020015b61156c6137cc565b8152602001906001900390816115645790505b50905060005b83811015611763578673ffffffffffffffffffffffffffffffffffffffff16600e60006001846115b59190614374565b8152602001908152602001600020600c0160019054906101000a900473ffffffffffffffffffffffffffffffffffffffff1673ffffffffffffffffffffffffffffffffffffffff16036117505760006001826116119190614374565b90506000600e6000838152602001908152602001600020905080604051806101c001604052908160008201548152602001600182015481526020016002820154815260200160038201548152602001600482015481526020016005820154815260200160068201548152602001600782015481526020016008820154815260200160098201548152602001600a8201548152602001600b8201548152602001600c820160009054906101000a900460ff16151515158152602001600c820160019054906101000a900473ffffffffffffffffffffffffffffffffffffffff1673ffffffffffffffffffffffffffffffffffffffff1673ffffffffffffffffffffffffffffffffffffffff1681525050848681518110611733576117326143a8565b5b602002602001018190525060018561174b9190614374565b945050505b808061175b906143d7565b915050611585565b5080945050505050919050565b600a60009054906101000a900473ffffffffffffffffffffffffffffffffffffffff1681565b60008073ffffffffffffffffffffffffffffffffffffffff163373ffffffffffffffffffffffffffffffffffffffff1603611806576040517f08c379a00000000000000000000000000000000000000000000000000000000081526004016117fd9061472a565b60405180910390fd5b60006118416103e861183385611825888a61317c90919063ffffffff16565b61317c90919063ffffffff16565b6131be90919063ffffffff16565b9050809150509392505050565b6000600460009054906101000a900473ffffffffffffffffffffffffffffffffffffffff16905090565b6000601160008373ffffffffffffffffffffffffffffffffffffffff1673ffffffffffffffffffffffffffffffffffffffff16815260200190815260200160002060050160019054906101000a900460ff169050919050565b60025481565b6060600060035467ffffffffffffffff8111156118f7576118f6614316565b5b60405190808252806020026020018201604052801561193057816020015b61191d613745565b8152602001906001900390816119155790505b5090506000600190505b6003548111611bc85760006010600083815260200190815260200160002060009054906101000a900473ffffffffffffffffffffffffffffffffffffffff169050601160008273ffffffffffffffffffffffffffffffffffffffff1673ffffffffffffffffffffffffffffffffffffffff16815260200190815260200160002060405180610140016040529081600082015481526020016001820160009054906101000a900460ff16151515158152602001600282015481526020016003820160009054906101000a900460ff16151515158152602001600482015481526020016005820160009054906101000a900460ff161515151581526020016005820160019054906101000a900460ff161515151581526020016005820160029054906101000a900473ffffffffffffffffffffffffffffffffffffffff1673ffffffffffffffffffffffffffffffffffffffff1673ffffffffffffffffffffffffffffffffffffffff1681526020016006820160009054906101000a900473ffffffffffffffffffffffffffffffffffffffff1673ffffffffffffffffffffffffffffffffffffffff1673ffffffffffffffffffffffffffffffffffffffff16815260200160078201805480602002602001604051908101604052809291908181526020018280548015611b8157602002820191906000526020600020905b8160009054906101000a900473ffffffffffffffffffffffffffffffffffffffff1673ffffffffffffffffffffffffffffffffffffffff1681526020019060010190808311611b37575b50505050508152505083600184611b98919061474a565b81518110611ba957611ba86143a8565b5b6020026020010181905250508080611bc0906143d7565b91505061193a565b508091505090565b611bd86131d4565b60016000815480929190611beb906143d7565b9190505550600073ffffffffffffffffffffffffffffffffffffffff163373ffffffffffffffffffffffffffffffffffffffff1603611c5f576040517f08c379a0000000000000000000000000000000000000000000000000000000008152600401611c56906146be565b60405180910390fd5b60008311611ca2576040517f08c379a0000000000000000000000000000000000000000000000000000000008152600401611c99906147ca565b60405180910390fd5b82600a60009054906101000a900473ffffffffffffffffffffffffffffffffffffffff1673ffffffffffffffffffffffffffffffffffffffff1663dd62ed3e33306040518363ffffffff1660e01b8152600401611d009291906147ea565b602060405180830381865afa158015611d1d573d6000803e3d6000fd5b505050506040513d601f19601f82011682018060405250810190611d419190614828565b1015611d82576040517f08c379a0000000000000000000000000000000000000000000000000000000008152600401611d79906148a1565b60405180910390fd5b82600a60009054906101000a900473ffffffffffffffffffffffffffffffffffffffff1673ffffffffffffffffffffffffffffffffffffffff166370a08231336040518263ffffffff1660e01b8152600401611dde91906140fd565b602060405180830381865afa158015611dfb573d6000803e3d6000fd5b505050506040513d601f19601f82011682018060405250810190611e1f9190614828565b1015611e60576040517f08c379a0000000000000000000000000000000000000000000000000000000008152600401611e579061490d565b60405180910390fd5b6001601160003373ffffffffffffffffffffffffffffffffffffffff1673ffffffffffffffffffffffffffffffffffffffff16815260200190815260200160002060010160006101000a81548160ff021916908315150217905550601160003373ffffffffffffffffffffffffffffffffffffffff1673ffffffffffffffffffffffffffffffffffffffff16815260200190815260200160002060050160009054906101000a900460ff16611f2657611f256001600060016000600160008033612d2a565b5b6000611f4f6103e8611f41848761317c90919063ffffffff16565b6131be90919063ffffffff16565b90506000611f66848361317c90919063ffffffff16565b90506000611f7d828761321a90919063ffffffff16565b9050604051806101c001604052806001548152602001603c87611fa0919061492d565b42611fab9190614374565b8152602001603c87611fbd919061492d565b815260200142815260200185815260200187815260200160008152602001600081526020018781526020018481526020018381526020018281526020016001151581526020013373ffffffffffffffffffffffffffffffffffffffff16815250600e60006001548152602001908152602001600020600082015181600001556020820151816001015560408201518160020155606082015181600301556080820151816004015560a0820151816005015560c0820151816006015560e082015181600701556101008201518160080155610120820151816009015561014082015181600a015561016082015181600b015561018082015181600c0160006101000a81548160ff0219169083151502179055506101a082015181600c0160016101000a81548173ffffffffffffffffffffffffffffffffffffffff021916908373ffffffffffffffffffffffffffffffffffffffff160217905550905050600f60003373ffffffffffffffffffffffffffffffffffffffff1673ffffffffffffffffffffffffffffffffffffffff1681526020019081526020016000206001549080600181540180825580915050600190039060005260206000200160009091909190915055600f60003373ffffffffffffffffffffffffffffffffffffffff1673ffffffffffffffffffffffffffffffffffffffff16815260200190815260200160002080549050601160003373ffffffffffffffffffffffffffffffffffffffff1673ffffffffffffffffffffffffffffffffffffffff16815260200190815260200160002060020181905550600a60009054906101000a900473ffffffffffffffffffffffffffffffffffffffff1673ffffffffffffffffffffffffffffffffffffffff166323b872dd3330896040518463ffffffff1660e01b815260040161226a9392919061496f565b6020604051808303816000875af1158015612289573d6000803e3d6000fd5b505050506040513d601f19601f820116820180604052508101906122ad91906149d2565b6122ec576040517f08c379a00000000000000000000000000000000000000000000000000000000081526004016122e390614a4b565b60405180910390fd5b6122f93387600154613241565b3373ffffffffffffffffffffffffffffffffffffffff166001547f97f64c4920393fa2ba09f59bcc4b68ffeb99a48ba474104f8106c7867681f7be876040516123429190613b55565b60405180910390a35050506123556136cd565b505050565b6060600060015490506000808267ffffffffffffffff8111156123805761237f614316565b5b6040519080825280602002602001820160405280156123b957816020015b6123a66137cc565b81526020019060019003908161239e5790505b50905060005b838110156125275760006001826123d69190614374565b90506000600e6000838152602001908152602001600020905080604051806101c001604052908160008201548152602001600182015481526020016002820154815260200160038201548152602001600482015481526020016005820154815260200160068201548152602001600782015481526020016008820154815260200160098201548152602001600a8201548152602001600b8201548152602001600c820160009054906101000a900460ff16151515158152602001600c820160019054906101000a900473ffffffffffffffffffffffffffffffffffffffff1673ffffffffffffffffffffffffffffffffffffffff1673ffffffffffffffffffffffffffffffffffffffff16815250508486815181106124f8576124f76143a8565b5b60200260200101819052506001856125109190614374565b94505050808061251f906143d7565b9150506123bf565b5080935050505090565b6000601160008373ffffffffffffffffffffffffffffffffffffffff1673ffffffffffffffffffffffffffffffffffffffff16815260200190815260200160002060010160009054906101000a900460ff169050919050565b600b6020528060005260406000206000915090505481565b6000804290506000600e60008581526020019081526020016000206001015490508082106125d5576000925050506125e6565b81816125e1919061474a565b925050505b919050565b600033905090565b6125fb6131d4565b600073ffffffffffffffffffffffffffffffffffffffff163373ffffffffffffffffffffffffffffffffffffffff160361266a576040517f08c379a000000000000000000000000000000000000000000000000000000000815260040161266190614ab7565b60405180910390fd5b60001515601160003373ffffffffffffffffffffffffffffffffffffffff1673ffffffffffffffffffffffffffffffffffffffff16815260200190815260200160002060050160009054906101000a900460ff16151503612700576040517f08c379a00000000000000000000000000000000000000000000000000000000081526004016126f790614652565b60405180910390fd5b3373ffffffffffffffffffffffffffffffffffffffff16600e6000848152602001908152602001600020600c0160019054906101000a900473ffffffffffffffffffffffffffffffffffffffff1673ffffffffffffffffffffffffffffffffffffffff1603612cbd57600e6000838152602001908152602001600020600c0160009054906101000a900460ff1615612c7d576000600e6000848152602001908152602001600020600a015490506000600e6000858152602001908152602001600020600b015490506000600e60008681526020019081526020016000206001015490506000600e60008781526020019081526020016000206003015490506000600e60008881526020019081526020016000206006015490506000612a30836128299190614374565b905060006128368961125b565b9050600061286260646128546005548c61317c90919063ffffffff16565b6131be90919063ffffffff16565b905082421115612c3557818910156128af576040517f08c379a00000000000000000000000000000000000000000000000000000000081526004016128a690614b49565b60405180910390fd5b868911156128f2576040517f08c379a00000000000000000000000000000000000000000000000000000000081526004016128e990614bb5565b60405180910390fd5b8542111561298c578689101561294957612915818a6136d790919063ffffffff16565b600681905550612942600654612934868a6136d790919063ffffffff16565b6136d790919063ffffffff16565b6007819055505b86890361298757866007819055506000600e60008c8152602001908152602001600020600c0160006101000a81548160ff0219169083151502179055505b612a15565b8689036129ce576040517f08c379a00000000000000000000000000000000000000000000000000000000081526004016129c590614c21565b60405180910390fd5b6129e1818a6136d790919063ffffffff16565b600681905550612a0e600654612a00868b6136d790919063ffffffff16565b6136d790919063ffffffff16565b6007819055505b600754600e60008c815260200190815260200160002060060181905550600654600e60008c815260200190815260200160002060070154612a569190614374565b600e60008c815260200190815260200160002060070181905550600a60009054906101000a900473ffffffffffffffffffffffffffffffffffffffff1673ffffffffffffffffffffffffffffffffffffffff1663a9059cbb336006546040518363ffffffff1660e01b8152600401612acf929190614c41565b6020604051808303816000875af1158015612aee573d6000803e3d6000fd5b505050506040513d601f19601f82011682018060405250810190612b1291906149d2565b50600a60009054906101000a900473ffffffffffffffffffffffffffffffffffffffff1673ffffffffffffffffffffffffffffffffffffffff1663a9059cbb600860009054906101000a900473ffffffffffffffffffffffffffffffffffffffff16836040518363ffffffff1660e01b8152600401612b92929190614c41565b6020604051808303816000875af1158015612bb1573d6000803e3d6000fd5b505050506040513d601f19601f82011682018060405250810190612bd591906149d2565b503373ffffffffffffffffffffffffffffffffffffffff167f07c6ad283077d6ee6fcc0437bd7d91669f44b7b8c1049f8a6c7b210cf26054c560065442600654600754604051612c289493929190614c6a565b60405180910390a2612c70565b6040517f08c379a0000000000000000000000000000000000000000000000000000000008152600401612c6790614cfb565b60405180910390fd5b5050505050505050612cb8565b6040517f08c379a0000000000000000000000000000000000000000000000000000000008152600401612caf90614d8d565b60405180910390fd5b612cf8565b6040517f08c379a0000000000000000000000000000000000000000000000000000000008152600401612cef906146be565b60405180910390fd5b612d006136cd565b5050565b600860009054906101000a900473ffffffffffffffffffffffffffffffffffffffff1681565b60036000815480929190612d3d906143d7565b9190505550604051806101400160405280600354815260200189151581526020018881526020018715158152602001868152602001851515815260200184151581526020018373ffffffffffffffffffffffffffffffffffffffff1681526020018273ffffffffffffffffffffffffffffffffffffffff168152602001600067ffffffffffffffff811115612dd557612dd4614316565b5b604051908082528060200260200182016040528015612e035781602001602082028036833780820191505090505b50815250601160008373ffffffffffffffffffffffffffffffffffffffff1673ffffffffffffffffffffffffffffffffffffffff1681526020019081526020016000206000820151816000015560208201518160010160006101000a81548160ff0219169083151502179055506040820151816002015560608201518160030160006101000a81548160ff0219169083151502179055506080820151816004015560a08201518160050160006101000a81548160ff02191690831515021790555060c08201518160050160016101000a81548160ff02191690831515021790555060e08201518160050160026101000a81548173ffffffffffffffffffffffffffffffffffffffff021916908373ffffffffffffffffffffffffffffffffffffffff1602179055506101008201518160060160006101000a81548173ffffffffffffffffffffffffffffffffffffffff021916908373ffffffffffffffffffffffffffffffffffffffff160217905550610120820151816007019080519060200190612f90929190613853565b509050508060106000600354815260200190815260200160002060006101000a81548173ffffffffffffffffffffffffffffffffffffffff021916908373ffffffffffffffffffffffffffffffffffffffff1602179055506003547fb442efe467d2ef30e62927a3cae0afcbc799a8a0944d8a143332e4e5e51cee5d3360405161301a91906140fd565b60405180910390a25050505050505050565b600080601160008573ffffffffffffffffffffffffffffffffffffffff1673ffffffffffffffffffffffffffffffffffffffff1681526020019081526020016000206007018054806020026020016040519081016040528092919081815260200182805480156130f157602002820191906000526020600020905b8160009054906101000a900473ffffffffffffffffffffffffffffffffffffffff1673ffffffffffffffffffffffffffffffffffffffff16815260200190600101908083116130a7575b5050505050905060005b815181101561316f578373ffffffffffffffffffffffffffffffffffffffff1682828151811061312e5761312d6143a8565b5b602002602001015173ffffffffffffffffffffffffffffffffffffffff160361315c57600192505050613176565b8080613167906143d7565b9150506130fb565b5060009150505b92915050565b600080830361318e57600090506131b8565b818361319a919061492d565b90508183826131a99190614ddc565b146131b7576131b6614e0d565b5b5b92915050565b600081836131cc9190614ddc565b905092915050565b600260005403613210576040517f3ee5aeb500000000000000000000000000000000000000000000000000000000815260040160405180910390fd5b6002600081905550565b600081836132289190614374565b90508281101561323b5761323a614e0d565b5b92915050565b6000601160008573ffffffffffffffffffffffffffffffffffffffff1673ffffffffffffffffffffffffffffffffffffffff16815260200190815260200160002060050160029054906101000a900473ffffffffffffffffffffffffffffffffffffffff169050600073ffffffffffffffffffffffffffffffffffffffff168173ffffffffffffffffffffffffffffffffffffffff16146136c757600060646002856132ed919061492d565b6132f79190614ddc565b905080600a60009054906101000a900473ffffffffffffffffffffffffffffffffffffffff1673ffffffffffffffffffffffffffffffffffffffff166370a08231600460009054906101000a900473ffffffffffffffffffffffffffffffffffffffff166040518263ffffffff1660e01b815260040161337791906140fd565b602060405180830381865afa158015613394573d6000803e3d6000fd5b505050506040513d601f19601f820116820180604052508101906133b89190614828565b10156133f9576040517f08c379a00000000000000000000000000000000000000000000000000000000081526004016133f090614eae565b60405180910390fd5b601360008673ffffffffffffffffffffffffffffffffffffffff1673ffffffffffffffffffffffffffffffffffffffff16815260200190815260200160002060040160009054906101000a900460ff1615613489576040517f08c379a000000000000000000000000000000000000000000000000000000000815260040161348090614f1a565b60405180910390fd5b6002600081548092919061349c906143d7565b91905055506040518060a0016040528060025481526020018481526020018373ffffffffffffffffffffffffffffffffffffffff16815260200182815260200160011515815250601260006002548152602001908152602001600020600082015181600001556020820151816001015560408201518160020160006101000a81548173ffffffffffffffffffffffffffffffffffffffff021916908373ffffffffffffffffffffffffffffffffffffffff1602179055506060820151816003015560808201518160040160006101000a81548160ff02191690831515021790555090505080600b60008473ffffffffffffffffffffffffffffffffffffffff1673ffffffffffffffffffffffffffffffffffffffff16815260200190815260200160002060008282546135cf9190614374565b92505081905550600a60009054906101000a900473ffffffffffffffffffffffffffffffffffffffff1673ffffffffffffffffffffffffffffffffffffffff1663a9059cbb83836040518363ffffffff1660e01b8152600401613633929190614c41565b6020604051808303816000875af1158015613652573d6000803e3d6000fd5b505050506040513d601f19601f8201168201806040525081019061367691906149d2565b508173ffffffffffffffffffffffffffffffffffffffff167f5be4d22009fea85381595ed91090bc5c0bc92a93fe07ed7472c5888eb1993f83826040516136bd9190613b55565b60405180910390a2505b50505050565b6001600081905550565b6000828211156136ea576136e9614e0d565b5b81836136f6919061474a565b905092915050565b6040518060a001604052806000815260200160008152602001600073ffffffffffffffffffffffffffffffffffffffff168152602001600081526020016000151581525090565b604051806101400160405280600081526020016000151581526020016000815260200160001515815260200160008152602001600015158152602001600015158152602001600073ffffffffffffffffffffffffffffffffffffffff168152602001600073ffffffffffffffffffffffffffffffffffffffff168152602001606081525090565b604051806101c00160405280600081526020016000815260200160008152602001600081526020016000815260200160008152602001600081526020016000815260200160008152602001600081526020016000815260200160008152602001600015158152602001600073ffffffffffffffffffffffffffffffffffffffff1681525090565b8280548282559060005260206000209081019282156138cc579160200282015b828111156138cb5782518260006101000a81548173ffffffffffffffffffffffffffffffffffffffff021916908373ffffffffffffffffffffffffffffffffffffffff16021790555091602001919060010190613873565b5b5090506138d991906138dd565b5090565b5b808211156138f65760008160009055506001016138de565b5090565b600080fd5b600073ffffffffffffffffffffffffffffffffffffffff82169050919050565b600061392a826138ff565b9050919050565b61393a8161391f565b811461394557600080fd5b50565b60008135905061395781613931565b92915050565b600060208284031215613973576139726138fa565b5b600061398184828501613948565b91505092915050565b600081519050919050565b600082825260208201905092915050565b6000819050602082019050919050565b6000819050919050565b6139c9816139b6565b82525050565b6139d88161391f565b82525050565b60008115159050919050565b6139f3816139de565b82525050565b60a082016000820151613a0f60008501826139c0565b506020820151613a2260208501826139c0565b506040820151613a3560408501826139cf565b506060820151613a4860608501826139c0565b506080820151613a5b60808501826139ea565b50505050565b6000613a6d83836139f9565b60a08301905092915050565b6000602082019050919050565b6000613a918261398a565b613a9b8185613995565b9350613aa6836139a6565b8060005b83811015613ad7578151613abe8882613a61565b9750613ac983613a79565b925050600181019050613aaa565b5085935050505092915050565b60006020820190508181036000830152613afe8184613a86565b905092915050565b60008060408385031215613b1d57613b1c6138fa565b5b6000613b2b85828601613948565b9250506020613b3c85828601613948565b9150509250929050565b613b4f816139b6565b82525050565b6000602082019050613b6a6000830184613b46565b92915050565b600081519050919050565b600082825260208201905092915050565b6000819050602082019050919050565b6000613ba883836139cf565b60208301905092915050565b6000602082019050919050565b6000613bcc82613b70565b613bd68185613b7b565b9350613be183613b8c565b8060005b83811015613c12578151613bf98882613b9c565b9750613c0483613bb4565b925050600181019050613be5565b5085935050505092915050565b60006020820190508181036000830152613c398184613bc1565b905092915050565b600082825260208201905092915050565b6000613c5d82613b70565b613c678185613c41565b9350613c7283613b8c565b8060005b83811015613ca3578151613c8a8882613b9c565b9750613c9583613bb4565b925050600181019050613c76565b5085935050505092915050565b600061014083016000830151613cc960008601826139c0565b506020830151613cdc60208601826139ea565b506040830151613cef60408601826139c0565b506060830151613d0260608601826139ea565b506080830151613d1560808601826139c0565b5060a0830151613d2860a08601826139ea565b5060c0830151613d3b60c08601826139ea565b5060e0830151613d4e60e08601826139cf565b50610100830151613d636101008601826139cf565b50610120830151848203610120860152613d7d8282613c52565b9150508091505092915050565b60006020820190508181036000830152613da48184613cb0565b905092915050565b613db5816139b6565b8114613dc057600080fd5b50565b600081359050613dd281613dac565b92915050565b600060208284031215613dee57613ded6138fa565b5b6000613dfc84828501613dc3565b91505092915050565b613e0e816139de565b82525050565b6000602082019050613e296000830184613e05565b92915050565b600081519050919050565b600082825260208201905092915050565b6000819050602082019050919050565b6101c082016000820151613e7260008501826139c0565b506020820151613e8560208501826139c0565b506040820151613e9860408501826139c0565b506060820151613eab60608501826139c0565b506080820151613ebe60808501826139c0565b5060a0820151613ed160a08501826139c0565b5060c0820151613ee460c08501826139c0565b5060e0820151613ef760e08501826139c0565b50610100820151613f0c6101008501826139c0565b50610120820151613f216101208501826139c0565b50610140820151613f366101408501826139c0565b50610160820151613f4b6101608501826139c0565b50610180820151613f606101808501826139ea565b506101a0820151613f756101a08501826139cf565b50505050565b6000613f878383613e5b565b6101c08301905092915050565b6000602082019050919050565b6000613fac82613e2f565b613fb68185613e3a565b9350613fc183613e4b565b8060005b83811015613ff2578151613fd98882613f7b565b9750613fe483613f94565b925050600181019050613fc5565b5085935050505092915050565b600060208201905081810360008301526140198184613fa1565b905092915050565b6000819050919050565b600061404661404161403c846138ff565b614021565b6138ff565b9050919050565b60006140588261402b565b9050919050565b600061406a8261404d565b9050919050565b61407a8161405f565b82525050565b60006020820190506140956000830184614071565b92915050565b6000806000606084860312156140b4576140b36138fa565b5b60006140c286828701613dc3565b93505060206140d386828701613dc3565b92505060406140e486828701613dc3565b9150509250925092565b6140f78161391f565b82525050565b600060208201905061411260008301846140ee565b92915050565b600081519050919050565b600082825260208201905092915050565b6000819050602082019050919050565b60006101408301600083015161415d60008601826139c0565b50602083015161417060208601826139ea565b50604083015161418360408601826139c0565b50606083015161419660608601826139ea565b5060808301516141a960808601826139c0565b5060a08301516141bc60a08601826139ea565b5060c08301516141cf60c08601826139ea565b5060e08301516141e260e08601826139cf565b506101008301516141f76101008601826139cf565b506101208301518482036101208601526142118282613c52565b9150508091505092915050565b600061422a8383614144565b905092915050565b6000602082019050919050565b600061424a82614118565b6142548185614123565b93508360208202850161426685614134565b8060005b858110156142a25784840389528151614283858261421e565b945061428e83614232565b925060208a0199505060018101905061426a565b50829750879550505050505092915050565b600060208201905081810360008301526142ce818461423f565b905092915050565b600080604083850312156142ed576142ec6138fa565b5b60006142fb85828601613dc3565b925050602061430c85828601613dc3565b9150509250929050565b7f4e487b7100000000000000000000000000000000000000000000000000000000600052604160045260246000fd5b7f4e487b7100000000000000000000000000000000000000000000000000000000600052601160045260246000fd5b600061437f826139b6565b915061438a836139b6565b92508282019050808211156143a2576143a1614345565b5b92915050565b7f4e487b7100000000000000000000000000000000000000000000000000000000600052603260045260246000fd5b60006143e2826139b6565b91507fffffffffffffffffffffffffffffffffffffffffffffffffffffffffffffffff820361441457614413614345565b5b600182019050919050565b600082825260208201905092915050565b7f53706f6e736f72206973206e6f74206120726567697374657265642075736572600082015250565b600061446660208361441f565b915061447182614430565b602082019050919050565b6000602082019050818103600083015261449581614459565b9050919050565b7f646f776e6c696e6520616c726561647920726567697374657265640000000000600082015250565b60006144d2601b8361441f565b91506144dd8261449c565b602082019050919050565b60006020820190508181036000830152614501816144c5565b9050919050565b7f446f776e6c696e6520697320616c72656164792072656665727265642062792060008201527f7468652073706f6e736f72000000000000000000000000000000000000000000602082015250565b6000614564602b8361441f565b915061456f82614508565b604082019050919050565b6000602082019050818103600083015261459381614557565b9050919050565b7f496e76616c696420616464726573736573000000000000000000000000000000600082015250565b60006145d060118361441f565b91506145db8261459a565b602082019050919050565b600060208201905081810360008301526145ff816145c3565b9050919050565b7f6163636f756e74206e6f74207265676973746572656400000000000000000000600082015250565b600061463c60168361441f565b915061464782614606565b602082019050919050565b6000602082019050818103600083015261466b8161462f565b9050919050565b7f556e617574686f72697a65640000000000000000000000000000000000000000600082015250565b60006146a8600c8361441f565b91506146b382614672565b602082019050919050565b600060208201905081810360008301526146d78161469b565b9050919050565b7f496e76616c696420616464726573730000000000000000000000000000000000600082015250565b6000614714600f8361441f565b915061471f826146de565b602082019050919050565b6000602082019050818103600083015261474381614707565b9050919050565b6000614755826139b6565b9150614760836139b6565b925082820390508181111561477857614777614345565b5b92915050565b7f696e76616c696420616d6f756e74000000000000000000000000000000000000600082015250565b60006147b4600e8361441f565b91506147bf8261477e565b602082019050919050565b600060208201905081810360008301526147e3816147a7565b9050919050565b60006040820190506147ff60008301856140ee565b61480c60208301846140ee565b9392505050565b60008151905061482281613dac565b92915050565b60006020828403121561483e5761483d6138fa565b5b600061484c84828501614813565b91505092915050565b7f546f6b656e207472616e73666572206e6f7420617070726f7665640000000000600082015250565b600061488b601b8361441f565b915061489682614855565b602082019050919050565b600060208201905081810360008301526148ba8161487e565b9050919050565b7f496e73756666696369656e7420546f6b656e2042616c616e6365000000000000600082015250565b60006148f7601a8361441f565b9150614902826148c1565b602082019050919050565b60006020820190508181036000830152614926816148ea565b9050919050565b6000614938826139b6565b9150614943836139b6565b9250828202614951816139b6565b9150828204841483151761496857614967614345565b5b5092915050565b600060608201905061498460008301866140ee565b61499160208301856140ee565b61499e6040830184613b46565b949350505050565b6149af816139de565b81146149ba57600080fd5b50565b6000815190506149cc816149a6565b92915050565b6000602082840312156149e8576149e76138fa565b5b60006149f6848285016149bd565b91505092915050565b7f546f6b656e207472616e73666572206661696c65640000000000000000000000600082015250565b6000614a3560158361441f565b9150614a40826149ff565b602082019050919050565b60006020820190508181036000830152614a6481614a28565b9050919050565b7f496e766c69642061646472657373657300000000000000000000000000000000600082015250565b6000614aa160108361441f565b9150614aac82614a6b565b602082019050919050565b60006020820190508181036000830152614ad081614a94565b9050919050565b7f416d6f756e74204973204c657373205468616e204d696e696d756d205769746860008201527f6472617720416d6f756e74000000000000000000000000000000000000000000602082015250565b6000614b33602b8361441f565b9150614b3e82614ad7565b604082019050919050565b60006020820190508181036000830152614b6281614b26565b9050919050565b7f416d6f756e74204973204d6f7265205468616e205374616b6520526577617264600082015250565b6000614b9f60208361441f565b9150614baa82614b69565b602082019050919050565b60006020820190508181036000830152614bce81614b92565b9050919050565b7f7374616b65206475726174696f6e206e6f7420436f6d706c6574656400000000600082015250565b6000614c0b601c8361441f565b9150614c1682614bd5565b602082019050919050565b60006020820190508181036000830152614c3a81614bfe565b9050919050565b6000604082019050614c5660008301856140ee565b614c636020830184613b46565b9392505050565b6000608082019050614c7f6000830187613b46565b614c8c6020830186613b46565b614c996040830185613b46565b614ca66060830184613b46565b95945050505050565b7f6d696e207769746864726177616c2074696d65206e6f74207265616368656400600082015250565b6000614ce5601f8361441f565b9150614cf082614caf565b602082019050919050565b60006020820190508181036000830152614d1481614cd8565b9050919050565b7f596f75206d757374206861766520616374697665207374616b6520746f20776960008201527f7468647261770000000000000000000000000000000000000000000000000000602082015250565b6000614d7760268361441f565b9150614d8282614d1b565b604082019050919050565b60006020820190508181036000830152614da681614d6a565b9050919050565b7f4e487b7100000000000000000000000000000000000000000000000000000000600052601260045260246000fd5b6000614de7826139b6565b9150614df2836139b6565b925082614e0257614e01614dad565b5b828204905092915050565b7f4e487b7100000000000000000000000000000000000000000000000000000000600052600160045260246000fd5b7f436f6e747261637420646f6573206e6f74206861766520656e6f75676820746f60008201527f6b656e7300000000000000000000000000000000000000000000000000000000602082015250565b6000614e9860248361441f565b9150614ea382614e3c565b604082019050919050565b60006020820190508181036000830152614ec781614e8b565b9050919050565b7f726566657272616c2072657761726420616c726561647920636c61696d656400600082015250565b6000614f04601f8361441f565b9150614f0f82614ece565b602082019050919050565b60006020820190508181036000830152614f3381614ef7565b905091905056fea2646970667358221220090f3f3edddd95fdbc7ebb9238245bd86cea2ae253659c0557877ec65e67787864736f6c63430008140033",
  "linkReferences": {},
  "deployedLinkReferences": {}
}