{
  "_format": "hh-sol-artifact-1",
  "contractName": "FRDStaking",
  "sourceName": "contracts/FRDStaking.sol",
  "abi": [
    {
      "inputs": [
        {
          "internalType": "address",
          "name": "_FifaRewardTokenAddress",
          "type": "address"
        }
      ],
      "stateMutability": "nonpayable",
      "type": "constructor"
    },
    {
      "inputs": [],
      "name": "AccountNotRegistered",
      "type": "error"
    },
    {
      "inputs": [],
      "name": "AmountIsLessThanMinimumWithdrawAmount",
      "type": "error"
    },
    {
      "inputs": [],
      "name": "AmountIsMoreThanStakeReward",
      "type": "error"
    },
    {
      "inputs": [],
      "name": "InvalidAmount",
      "type": "error"
    },
    {
      "inputs": [],
      "name": "ReentrancyGuardReentrantCall",
      "type": "error"
    },
    {
      "inputs": [],
      "name": "Unauthorized",
      "type": "error"
    },
    {
      "inputs": [],
      "name": "YouMustHaveActiveStakeToWithdraw",
      "type": "error"
    },
    {
      "inputs": [],
      "name": "createTokenFirst",
      "type": "error"
    },
    {
      "inputs": [],
      "name": "downlinealreadyRegistered",
      "type": "error"
    },
    {
      "inputs": [],
      "name": "minWithdrawalTimeNotReached",
      "type": "error"
    },
    {
      "inputs": [],
      "name": "priceMustBeGreaterThanZero",
      "type": "error"
    },
    {
      "inputs": [],
      "name": "referralAlreadyExits",
      "type": "error"
    },
    {
      "inputs": [],
      "name": "referralrewardalreadyClaimed",
      "type": "error"
    },
    {
      "inputs": [],
      "name": "sponsorMustHaveActiveStakeToRefer",
      "type": "error"
    },
    {
      "inputs": [],
      "name": "stakedurationnotCompleted",
      "type": "error"
    },
    {
      "anonymous": false,
      "inputs": [
        {
          "indexed": true,
          "internalType": "uint256",
          "name": "refId",
          "type": "uint256"
        },
        {
          "indexed": false,
          "internalType": "uint256",
          "name": "sponsorUserId",
          "type": "uint256"
        },
        {
          "indexed": false,
          "internalType": "uint256",
          "name": "referralUserId",
          "type": "uint256"
        },
        {
          "indexed": false,
          "internalType": "address",
          "name": "referral",
          "type": "address"
        },
        {
          "indexed": false,
          "internalType": "address",
          "name": "sponsor",
          "type": "address"
        },
        {
          "indexed": false,
          "internalType": "address[]",
          "name": "referrals",
          "type": "address[]"
        }
      ],
      "name": "AddReferral",
      "type": "event"
    },
    {
      "anonymous": false,
      "inputs": [
        {
          "indexed": true,
          "internalType": "address",
          "name": "sponsor",
          "type": "address"
        },
        {
          "indexed": false,
          "internalType": "uint256",
          "name": "amount",
          "type": "uint256"
        }
      ],
      "name": "ReferralRewardClaimed",
      "type": "event"
    },
    {
      "anonymous": false,
      "inputs": [
        {
          "indexed": true,
          "internalType": "uint256",
          "name": "stakeId",
          "type": "uint256"
        },
        {
          "indexed": true,
          "internalType": "address",
          "name": "staker",
          "type": "address"
        },
        {
          "indexed": false,
          "internalType": "uint256",
          "name": "stake_duration",
          "type": "uint256"
        }
      ],
      "name": "StakedEvent",
      "type": "event"
    },
    {
      "anonymous": false,
      "inputs": [
        {
          "indexed": true,
          "internalType": "uint256",
          "name": "userId",
          "type": "uint256"
        },
        {
          "indexed": false,
          "internalType": "address",
          "name": "useraddress",
          "type": "address"
        }
      ],
      "name": "UserRegistered",
      "type": "event"
    },
    {
      "anonymous": false,
      "inputs": [
        {
          "indexed": true,
          "internalType": "address",
          "name": "Withdrawer",
          "type": "address"
        },
        {
          "indexed": false,
          "internalType": "uint256",
          "name": "withdrawAmount",
          "type": "uint256"
        },
        {
          "indexed": false,
          "internalType": "uint256",
          "name": "withdrawTime",
          "type": "uint256"
        },
        {
          "indexed": false,
          "internalType": "uint256",
          "name": "amountToWithdraw",
          "type": "uint256"
        },
        {
          "indexed": false,
          "internalType": "uint256",
          "name": "amountRemaining",
          "type": "uint256"
        }
      ],
      "name": "WithdrawlEvent",
      "type": "event"
    },
    {
      "inputs": [
        {
          "internalType": "uint256",
          "name": "stakeamount",
          "type": "uint256"
        },
        {
          "internalType": "uint256",
          "name": "duration",
          "type": "uint256"
        },
        {
          "internalType": "uint256",
          "name": "profitpercent",
          "type": "uint256"
        }
      ],
      "name": "EstimateReward",
      "outputs": [
        {
          "internalType": "uint256",
          "name": "",
          "type": "uint256"
        }
      ],
      "stateMutability": "view",
      "type": "function"
    },
    {
      "inputs": [],
      "name": "FifaRewardTokenContract",
      "outputs": [
        {
          "internalType": "contract IERC20",
          "name": "",
          "type": "address"
        }
      ],
      "stateMutability": "view",
      "type": "function"
    },
    {
      "inputs": [
        {
          "internalType": "address",
          "name": "sponsorAddress",
          "type": "address"
        },
        {
          "internalType": "address",
          "name": "downlineAddress",
          "type": "address"
        }
      ],
      "name": "addReferral",
      "outputs": [],
      "stateMutability": "nonpayable",
      "type": "function"
    },
    {
      "inputs": [
        {
          "internalType": "uint256",
          "name": "_stakeId",
          "type": "uint256"
        }
      ],
      "name": "calcReward",
      "outputs": [
        {
          "internalType": "uint256",
          "name": "reward",
          "type": "uint256"
        }
      ],
      "stateMutability": "view",
      "type": "function"
    },
    {
      "inputs": [],
      "name": "feeWallet",
      "outputs": [
        {
          "internalType": "address",
          "name": "",
          "type": "address"
        }
      ],
      "stateMutability": "view",
      "type": "function"
    },
    {
      "inputs": [],
      "name": "getContractBalance",
      "outputs": [
        {
          "internalType": "uint256",
          "name": "",
          "type": "uint256"
        }
      ],
      "stateMutability": "view",
      "type": "function"
    },
    {
      "inputs": [
        {
          "internalType": "uint256",
          "name": "_stakeId",
          "type": "uint256"
        }
      ],
      "name": "getMaxWithdrawAmount",
      "outputs": [
        {
          "internalType": "uint256",
          "name": "",
          "type": "uint256"
        }
      ],
      "stateMutability": "view",
      "type": "function"
    },
    {
      "inputs": [
        {
          "internalType": "uint256",
          "name": "_stakeId",
          "type": "uint256"
        }
      ],
      "name": "getMinWithdrawAmount",
      "outputs": [
        {
          "internalType": "uint256",
          "name": "",
          "type": "uint256"
        }
      ],
      "stateMutability": "view",
      "type": "function"
    },
    {
      "inputs": [],
      "name": "getOwner",
      "outputs": [
        {
          "internalType": "address",
          "name": "",
          "type": "address"
        }
      ],
      "stateMutability": "view",
      "type": "function"
    },
    {
      "inputs": [
        {
          "internalType": "address",
          "name": "sponsor",
          "type": "address"
        }
      ],
      "name": "getReferrals",
      "outputs": [
        {
          "internalType": "address[]",
          "name": "",
          "type": "address[]"
        }
      ],
      "stateMutability": "view",
      "type": "function"
    },
    {
      "inputs": [
        {
          "internalType": "uint256",
          "name": "stakeId",
          "type": "uint256"
        }
      ],
      "name": "getStakeRemainingTime",
      "outputs": [
        {
          "internalType": "uint256",
          "name": "",
          "type": "uint256"
        }
      ],
      "stateMutability": "view",
      "type": "function"
    },
    {
      "inputs": [
        {
          "internalType": "address",
          "name": "_useraddress",
          "type": "address"
        }
      ],
      "name": "getUserRefCount",
      "outputs": [
        {
          "internalType": "uint256",
          "name": "",
          "type": "uint256"
        }
      ],
      "stateMutability": "view",
      "type": "function"
    },
    {
      "inputs": [
        {
          "internalType": "address",
          "name": "_user",
          "type": "address"
        }
      ],
      "name": "getUserRegistrationDetails",
      "outputs": [
        {
          "components": [
            {
              "internalType": "uint256",
              "name": "userId",
              "type": "uint256"
            },
            {
              "internalType": "bool",
              "name": "hasStaked",
              "type": "bool"
            },
            {
              "internalType": "uint256",
              "name": "stakeCount",
              "type": "uint256"
            },
            {
              "internalType": "bool",
              "name": "hasActiveStake",
              "type": "bool"
            },
            {
              "internalType": "uint256",
              "name": "refCount",
              "type": "uint256"
            },
            {
              "internalType": "bool",
              "name": "registered",
              "type": "bool"
            },
            {
              "internalType": "bool",
              "name": "wasReferred",
              "type": "bool"
            },
            {
              "internalType": "address",
              "name": "sponsor",
              "type": "address"
            },
            {
              "internalType": "address",
              "name": "walletaddress",
              "type": "address"
            },
            {
              "internalType": "address[]",
              "name": "referrals",
              "type": "address[]"
            }
          ],
          "internalType": "struct FRDStaking.User",
          "name": "",
          "type": "tuple"
        }
      ],
      "stateMutability": "view",
      "type": "function"
    },
    {
      "inputs": [
        {
          "internalType": "address",
          "name": "_useraddress",
          "type": "address"
        }
      ],
      "name": "getUserStakeCount",
      "outputs": [
        {
          "internalType": "uint256",
          "name": "",
          "type": "uint256"
        }
      ],
      "stateMutability": "view",
      "type": "function"
    },
    {
      "inputs": [
        {
          "internalType": "address",
          "name": "sponsor",
          "type": "address"
        }
      ],
      "name": "getsponsorReferralRewards",
      "outputs": [
        {
          "components": [
            {
              "internalType": "uint256",
              "name": "refrewardId",
              "type": "uint256"
            },
            {
              "internalType": "uint256",
              "name": "stakeId",
              "type": "uint256"
            },
            {
              "internalType": "address",
              "name": "sponsor",
              "type": "address"
            },
            {
              "internalType": "uint256",
              "name": "rewardamount",
              "type": "uint256"
            },
            {
              "internalType": "bool",
              "name": "rewardrecieved",
              "type": "bool"
            }
          ],
          "internalType": "struct FRDStaking.ReferralReward[]",
          "name": "",
          "type": "tuple[]"
        }
      ],
      "stateMutability": "view",
      "type": "function"
    },
    {
      "inputs": [
        {
          "internalType": "address",
          "name": "_useraddress",
          "type": "address"
        }
      ],
      "name": "hasActiveStake",
      "outputs": [
        {
          "internalType": "bool",
          "name": "",
          "type": "bool"
        }
      ],
      "stateMutability": "view",
      "type": "function"
    },
    {
      "inputs": [
        {
          "internalType": "address",
          "name": "_useraddress",
          "type": "address"
        }
      ],
      "name": "hasStaked",
      "outputs": [
        {
          "internalType": "bool",
          "name": "",
          "type": "bool"
        }
      ],
      "stateMutability": "view",
      "type": "function"
    },
    {
      "inputs": [],
      "name": "listRegisteredUsers",
      "outputs": [
        {
          "components": [
            {
              "internalType": "uint256",
              "name": "userId",
              "type": "uint256"
            },
            {
              "internalType": "bool",
              "name": "hasStaked",
              "type": "bool"
            },
            {
              "internalType": "uint256",
              "name": "stakeCount",
              "type": "uint256"
            },
            {
              "internalType": "bool",
              "name": "hasActiveStake",
              "type": "bool"
            },
            {
              "internalType": "uint256",
              "name": "refCount",
              "type": "uint256"
            },
            {
              "internalType": "bool",
              "name": "registered",
              "type": "bool"
            },
            {
              "internalType": "bool",
              "name": "wasReferred",
              "type": "bool"
            },
            {
              "internalType": "address",
              "name": "sponsor",
              "type": "address"
            },
            {
              "internalType": "address",
              "name": "walletaddress",
              "type": "address"
            },
            {
              "internalType": "address[]",
              "name": "referrals",
              "type": "address[]"
            }
          ],
          "internalType": "struct FRDStaking.User[]",
          "name": "",
          "type": "tuple[]"
        }
      ],
      "stateMutability": "view",
      "type": "function"
    },
    {
      "inputs": [],
      "name": "loadAllStakes",
      "outputs": [
        {
          "components": [
            {
              "internalType": "uint256",
              "name": "stakeId",
              "type": "uint256"
            },
            {
              "internalType": "uint256",
              "name": "rewardTime",
              "type": "uint256"
            },
            {
              "internalType": "uint256",
              "name": "stakeDuration",
              "type": "uint256"
            },
            {
              "internalType": "uint256",
              "name": "stakeTime",
              "type": "uint256"
            },
            {
              "internalType": "uint256",
              "name": "profitpercent",
              "type": "uint256"
            },
            {
              "internalType": "uint256",
              "name": "stakeAmount",
              "type": "uint256"
            },
            {
              "internalType": "uint256",
              "name": "amountRemaining",
              "type": "uint256"
            },
            {
              "internalType": "uint256",
              "name": "amountWithdrawn",
              "type": "uint256"
            },
            {
              "internalType": "uint256",
              "name": "currentstakeReward",
              "type": "uint256"
            },
            {
              "internalType": "uint256",
              "name": "stakeRewardPerDay",
              "type": "uint256"
            },
            {
              "internalType": "uint256",
              "name": "stakeReward",
              "type": "uint256"
            },
            {
              "internalType": "uint256",
              "name": "totalReward",
              "type": "uint256"
            },
            {
              "internalType": "bool",
              "name": "isActive",
              "type": "bool"
            },
            {
              "internalType": "address",
              "name": "stakerAddress",
              "type": "address"
            }
          ],
          "internalType": "struct FRDStaking.Stake[]",
          "name": "",
          "type": "tuple[]"
        }
      ],
      "stateMutability": "view",
      "type": "function"
    },
    {
      "inputs": [
        {
          "internalType": "address",
          "name": "_useraddress",
          "type": "address"
        }
      ],
      "name": "loadUserStakes",
      "outputs": [
        {
          "components": [
            {
              "internalType": "uint256",
              "name": "stakeId",
              "type": "uint256"
            },
            {
              "internalType": "uint256",
              "name": "rewardTime",
              "type": "uint256"
            },
            {
              "internalType": "uint256",
              "name": "stakeDuration",
              "type": "uint256"
            },
            {
              "internalType": "uint256",
              "name": "stakeTime",
              "type": "uint256"
            },
            {
              "internalType": "uint256",
              "name": "profitpercent",
              "type": "uint256"
            },
            {
              "internalType": "uint256",
              "name": "stakeAmount",
              "type": "uint256"
            },
            {
              "internalType": "uint256",
              "name": "amountRemaining",
              "type": "uint256"
            },
            {
              "internalType": "uint256",
              "name": "amountWithdrawn",
              "type": "uint256"
            },
            {
              "internalType": "uint256",
              "name": "currentstakeReward",
              "type": "uint256"
            },
            {
              "internalType": "uint256",
              "name": "stakeRewardPerDay",
              "type": "uint256"
            },
            {
              "internalType": "uint256",
              "name": "stakeReward",
              "type": "uint256"
            },
            {
              "internalType": "uint256",
              "name": "totalReward",
              "type": "uint256"
            },
            {
              "internalType": "bool",
              "name": "isActive",
              "type": "bool"
            },
            {
              "internalType": "address",
              "name": "stakerAddress",
              "type": "address"
            }
          ],
          "internalType": "struct FRDStaking.Stake[]",
          "name": "",
          "type": "tuple[]"
        }
      ],
      "stateMutability": "view",
      "type": "function"
    },
    {
      "inputs": [
        {
          "internalType": "address",
          "name": "wallet",
          "type": "address"
        }
      ],
      "name": "myTokenBalance",
      "outputs": [
        {
          "internalType": "uint256",
          "name": "",
          "type": "uint256"
        }
      ],
      "stateMutability": "view",
      "type": "function"
    },
    {
      "inputs": [],
      "name": "myWalletAddress",
      "outputs": [
        {
          "internalType": "address",
          "name": "",
          "type": "address"
        }
      ],
      "stateMutability": "view",
      "type": "function"
    },
    {
      "inputs": [],
      "name": "nextReferralRewardId",
      "outputs": [
        {
          "internalType": "uint256",
          "name": "",
          "type": "uint256"
        }
      ],
      "stateMutability": "view",
      "type": "function"
    },
    {
      "inputs": [
        {
          "internalType": "uint256",
          "name": "stake_amount",
          "type": "uint256"
        },
        {
          "internalType": "uint256",
          "name": "stake_duration",
          "type": "uint256"
        },
        {
          "internalType": "uint256",
          "name": "profitpercent",
          "type": "uint256"
        }
      ],
      "name": "stake",
      "outputs": [],
      "stateMutability": "nonpayable",
      "type": "function"
    },
    {
      "inputs": [
        {
          "internalType": "address",
          "name": "receiver",
          "type": "address"
        }
      ],
      "name": "transferToken",
      "outputs": [],
      "stateMutability": "nonpayable",
      "type": "function"
    },
    {
      "inputs": [
        {
          "internalType": "address",
          "name": "_useraddress",
          "type": "address"
        }
      ],
      "name": "wasRef_errered",
      "outputs": [
        {
          "internalType": "bool",
          "name": "",
          "type": "bool"
        }
      ],
      "stateMutability": "view",
      "type": "function"
    },
    {
      "inputs": [
        {
          "internalType": "uint256",
          "name": "_stakeId",
          "type": "uint256"
        },
        {
          "internalType": "uint256",
          "name": "_withdrawAmt",
          "type": "uint256"
        }
      ],
      "name": "withdrawStake",
      "outputs": [],
      "stateMutability": "nonpayable",
      "type": "function"
    }
  ],
  "bytecode": "0x60806040526005805573bcceb2145266639e0c39101d48b79b6c694a84dc600860006101000a81548173ffffffffffffffffffffffffffffffffffffffff021916908373ffffffffffffffffffffffffffffffffffffffff1602179055503480156200006a57600080fd5b50604051620053bf380380620053bf83398181016040528101906200009091906200018b565b600160008190555080600a60006101000a81548173ffffffffffffffffffffffffffffffffffffffff021916908373ffffffffffffffffffffffffffffffffffffffff16021790555033600460006101000a81548173ffffffffffffffffffffffffffffffffffffffff021916908373ffffffffffffffffffffffffffffffffffffffff16021790555050620001bd565b600080fd5b600073ffffffffffffffffffffffffffffffffffffffff82169050919050565b6000620001538262000126565b9050919050565b620001658162000146565b81146200017157600080fd5b50565b60008151905062000185816200015a565b92915050565b600060208284031215620001a457620001a362000121565b5b6000620001b48482850162000174565b91505092915050565b6151f280620001cd6000396000f3fe608060405234801561001057600080fd5b50600436106101a95760003560e01c806388d74599116100f9578063a7e95edb11610097578063e77c1fc211610071578063e77c1fc214610556578063e9cfce8214610586578063f1fdf469146105a4578063f25f4b56146105c0576101a9565b8063a7e95edb146104ec578063c93c8f341461050a578063deebeac91461053a576101a9565b8063a19e9555116100d3578063a19e955514610464578063a21c273514610482578063a4b427c4146104b2578063a638f2e2146104d0576101a9565b806388d74599146103e6578063893d20e8146104165780639a96c1a214610434576101a9565b8063544c465c116101665780636f9fb98a116101405780636f9fb98a1461034a5780637cdaea12146103685780638112e8631461039857806388aff586146103c8576101a9565b8063544c465c146102ba57806355537d25146102ea57806369486d291461031a576101a9565b80630340f124146101ae5780630b5c3f87146101de5780631b545a17146101fa5780633e3f96d91461022a57806341a0894d1461025a578063531eb0771461028a575b600080fd5b6101c860048036038101906101c39190613bdf565b6105de565b6040516101d59190613d66565b60405180910390f35b6101f860048036038101906101f39190613d88565b6107db565b005b610214600480360381019061020f9190613bdf565b610a04565b6040516102219190613dd7565b60405180910390f35b610244600480360381019061023f9190613bdf565b610a50565b6040516102519190613dd7565b60405180910390f35b610274600480360381019061026f9190613bdf565b610a9c565b6040516102819190613ea1565b60405180910390f35b6102a4600480360381019061029f9190613bdf565b610b6c565b6040516102b1919061400c565b60405180910390f35b6102d460048036038101906102cf919061405a565b610d8a565b6040516102e19190613dd7565b60405180910390f35b61030460048036038101906102ff919061405a565b610f63565b6040516103119190613dd7565b60405180910390f35b610334600480360381019061032f9190613bdf565b611121565b6040516103419190614096565b60405180910390f35b61035261117a565b60405161035f9190613dd7565b60405180910390f35b610382600480360381019061037d919061405a565b611212565b60405161038f9190613dd7565b60405180910390f35b6103b260048036038101906103ad9190613bdf565b611431565b6040516103bf9190614281565b60405180910390f35b6103d0611727565b6040516103dd9190614302565b60405180910390f35b61040060048036038101906103fb919061431d565b61174d565b60405161040d9190613dd7565b60405180910390f35b61041e611805565b60405161042b919061437f565b60405180910390f35b61044e60048036038101906104499190613bdf565b61182f565b60405161045b9190614096565b60405180910390f35b61046c611888565b6040516104799190613dd7565b60405180910390f35b61049c60048036038101906104979190613bdf565b61188e565b6040516104a99190613dd7565b60405180910390f35b6104ba611933565b6040516104c79190614536565b60405180910390f35b6104ea60048036038101906104e5919061431d565b611c2c565b005b6104f46123b6565b6040516105019190614281565b60405180910390f35b610524600480360381019061051f9190613bdf565b61258d565b6040516105319190614096565b60405180910390f35b610554600480360381019061054f9190613bdf565b6125e6565b005b610570600480360381019061056b919061405a565b6127cb565b60405161057d9190613dd7565b60405180910390f35b61058e612814565b60405161059b919061437f565b60405180910390f35b6105be60048036038101906105b99190614558565b61281c565b005b6105c8612f2d565b6040516105d5919061437f565b60405180910390f35b6060600060025490506000808267ffffffffffffffff81111561060457610603614598565b5b60405190808252806020026020018201604052801561063d57816020015b61062a613980565b8152602001906001900390816106225790505b5090506000600190505b8381116107cf578573ffffffffffffffffffffffffffffffffffffffff166011600060018461067691906145f6565b815260200190815260200160002060020160009054906101000a900473ffffffffffffffffffffffffffffffffffffffff1673ffffffffffffffffffffffffffffffffffffffff16036107bc576000601160006001846106d691906145f6565b81526020019081526020016000209050806040518060a001604052908160008201548152602001600182015481526020016002820160009054906101000a900473ffffffffffffffffffffffffffffffffffffffff1673ffffffffffffffffffffffffffffffffffffffff1673ffffffffffffffffffffffffffffffffffffffff168152602001600382015481526020016004820160009054906101000a900460ff1615151515815250508360018461078f91906145f6565b815181106107a05761079f61462a565b5b60200260200101819052506001846107b891906145f6565b9350505b80806107c790614659565b915050610647565b50809350505050919050565b601060008373ffffffffffffffffffffffffffffffffffffffff1673ffffffffffffffffffffffffffffffffffffffff16815260200190815260200160002060050160009054906101000a900460ff1661086a576040517f08c379a0000000000000000000000000000000000000000000000000000000008152600401610861906146fe565b60405180910390fd5b60011515601060008373ffffffffffffffffffffffffffffffffffffffff1673ffffffffffffffffffffffffffffffffffffffff16815260200190815260200160002060050160009054906101000a900460ff16151503610900576040517f08c379a00000000000000000000000000000000000000000000000000000000081526004016108f79061476a565b60405180910390fd5b6109136000806000806001808888612f53565b61091d8282613255565b1561095d576040517f08c379a0000000000000000000000000000000000000000000000000000000008152600401610954906147fc565b60405180910390fd5b601060008373ffffffffffffffffffffffffffffffffffffffff1673ffffffffffffffffffffffffffffffffffffffff168152602001908152602001600020600701819080600181540180825580915050600190039060005260206000200160009091909190916101000a81548173ffffffffffffffffffffffffffffffffffffffff021916908373ffffffffffffffffffffffffffffffffffffffff1602179055505050565b6000601060008373ffffffffffffffffffffffffffffffffffffffff1673ffffffffffffffffffffffffffffffffffffffff168152602001908152602001600020600201549050919050565b6000601060008373ffffffffffffffffffffffffffffffffffffffff1673ffffffffffffffffffffffffffffffffffffffff168152602001908152602001600020600401549050919050565b6060601060008373ffffffffffffffffffffffffffffffffffffffff1673ffffffffffffffffffffffffffffffffffffffff168152602001908152602001600020600701805480602002602001604051908101604052809291908181526020018280548015610b6057602002820191906000526020600020905b8160009054906101000a900473ffffffffffffffffffffffffffffffffffffffff1673ffffffffffffffffffffffffffffffffffffffff1681526020019060010190808311610b16575b50505050509050919050565b610b746139c7565b601060008373ffffffffffffffffffffffffffffffffffffffff1673ffffffffffffffffffffffffffffffffffffffff16815260200190815260200160002060405180610140016040529081600082015481526020016001820160009054906101000a900460ff16151515158152602001600282015481526020016003820160009054906101000a900460ff16151515158152602001600482015481526020016005820160009054906101000a900460ff161515151581526020016005820160019054906101000a900460ff161515151581526020016005820160029054906101000a900473ffffffffffffffffffffffffffffffffffffffff1673ffffffffffffffffffffffffffffffffffffffff1673ffffffffffffffffffffffffffffffffffffffff1681526020016006820160009054906101000a900473ffffffffffffffffffffffffffffffffffffffff1673ffffffffffffffffffffffffffffffffffffffff1673ffffffffffffffffffffffffffffffffffffffff16815260200160078201805480602002602001604051908101604052809291908181526020018280548015610d7a57602002820191906000526020600020905b8160009054906101000a900473ffffffffffffffffffffffffffffffffffffffff1673ffffffffffffffffffffffffffffffffffffffff1681526020019060010190808311610d30575b5050505050815250509050919050565b60008073ffffffffffffffffffffffffffffffffffffffff163373ffffffffffffffffffffffffffffffffffffffff1603610dfa576040517f08c379a0000000000000000000000000000000000000000000000000000000008152600401610df190614868565b60405180910390fd5b60001515601060003373ffffffffffffffffffffffffffffffffffffffff1673ffffffffffffffffffffffffffffffffffffffff16815260200190815260200160002060050160009054906101000a900460ff16151503610e90576040517f08c379a0000000000000000000000000000000000000000000000000000000008152600401610e87906148d4565b60405180910390fd5b60003373ffffffffffffffffffffffffffffffffffffffff16600d6000858152602001908152602001600020600c0160019054906101000a900473ffffffffffffffffffffffffffffffffffffffff1673ffffffffffffffffffffffffffffffffffffffff1603610f1f576000600d6000858152602001908152602001600020600a0154905080915050610f5a565b6040517f08c379a0000000000000000000000000000000000000000000000000000000008152600401610f5190614940565b60405180910390fd5b80915050919050565b60008073ffffffffffffffffffffffffffffffffffffffff163373ffffffffffffffffffffffffffffffffffffffff1603610fd3576040517f08c379a0000000000000000000000000000000000000000000000000000000008152600401610fca906149ac565b60405180910390fd5b60001515601060003373ffffffffffffffffffffffffffffffffffffffff1673ffffffffffffffffffffffffffffffffffffffff16815260200190815260200160002060050160009054906101000a900460ff16151503611069576040517f08c379a0000000000000000000000000000000000000000000000000000000008152600401611060906148d4565b60405180910390fd5b60003373ffffffffffffffffffffffffffffffffffffffff16600d6000858152602001908152602001600020600c0160019054906101000a900473ffffffffffffffffffffffffffffffffffffffff1673ffffffffffffffffffffffffffffffffffffffff160361111857600d6000848152602001908152602001600020600c0160009054906101000a900460ff161561111757600d6000848152602001908152602001600020600b015490505b5b80915050919050565b6000601060008373ffffffffffffffffffffffffffffffffffffffff1673ffffffffffffffffffffffffffffffffffffffff16815260200190815260200160002060030160009054906101000a900460ff169050919050565b6000600460009054906101000a900473ffffffffffffffffffffffffffffffffffffffff1673ffffffffffffffffffffffffffffffffffffffff163373ffffffffffffffffffffffffffffffffffffffff161461120c576040517f08c379a000000000000000000000000000000000000000000000000000000000815260040161120390614940565b60405180910390fd5b47905090565b60008073ffffffffffffffffffffffffffffffffffffffff163373ffffffffffffffffffffffffffffffffffffffff1603611282576040517f08c379a0000000000000000000000000000000000000000000000000000000008152600401611279906149ac565b60405180910390fd5b60001515601060003373ffffffffffffffffffffffffffffffffffffffff1673ffffffffffffffffffffffffffffffffffffffff16815260200190815260200160002060050160009054906101000a900460ff16151503611318576040517f08c379a000000000000000000000000000000000000000000000000000000000815260040161130f906148d4565b60405180910390fd5b60003373ffffffffffffffffffffffffffffffffffffffff16600d6000858152602001908152602001600020600c0160019054906101000a900473ffffffffffffffffffffffffffffffffffffffff1673ffffffffffffffffffffffffffffffffffffffff160361142857600d6000848152602001908152602001600020600c0160009054906101000a900460ff1615611427576000600d60008581526020019081526020016000206004015490506000600d6000868152602001908152602001600020600501549050600060b490506114216103e86114138561140585876133a590919063ffffffff16565b6133a590919063ffffffff16565b6133e790919063ffffffff16565b93505050505b5b80915050919050565b60606000600154905060008060005b838110156114e0578573ffffffffffffffffffffffffffffffffffffffff16600d600060018461147091906145f6565b8152602001908152602001600020600c0160019054906101000a900473ffffffffffffffffffffffffffffffffffffffff1673ffffffffffffffffffffffffffffffffffffffff16036114cd576001836114ca91906145f6565b92505b80806114d890614659565b915050611440565b5060008267ffffffffffffffff8111156114fd576114fc614598565b5b60405190808252806020026020018201604052801561153657816020015b611523613a4e565b81526020019060019003908161151b5790505b50905060005b8381101561171a578673ffffffffffffffffffffffffffffffffffffffff16600d600060018461156c91906145f6565b8152602001908152602001600020600c0160019054906101000a900473ffffffffffffffffffffffffffffffffffffffff1673ffffffffffffffffffffffffffffffffffffffff16036117075760006001826115c891906145f6565b90506000600d6000838152602001908152602001600020905080604051806101c001604052908160008201548152602001600182015481526020016002820154815260200160038201548152602001600482015481526020016005820154815260200160068201548152602001600782015481526020016008820154815260200160098201548152602001600a8201548152602001600b8201548152602001600c820160009054906101000a900460ff16151515158152602001600c820160019054906101000a900473ffffffffffffffffffffffffffffffffffffffff1673ffffffffffffffffffffffffffffffffffffffff1673ffffffffffffffffffffffffffffffffffffffff16815250508486815181106116ea576116e961462a565b5b602002602001018190525060018561170291906145f6565b945050505b808061171290614659565b91505061153c565b5080945050505050919050565b600a60009054906101000a900473ffffffffffffffffffffffffffffffffffffffff1681565b60008073ffffffffffffffffffffffffffffffffffffffff163373ffffffffffffffffffffffffffffffffffffffff16036117bd576040517f08c379a00000000000000000000000000000000000000000000000000000000081526004016117b4906149ac565b60405180910390fd5b60006117f86103e86117ea856117dc888a6133a590919063ffffffff16565b6133a590919063ffffffff16565b6133e790919063ffffffff16565b9050809150509392505050565b6000600460009054906101000a900473ffffffffffffffffffffffffffffffffffffffff16905090565b6000601060008373ffffffffffffffffffffffffffffffffffffffff1673ffffffffffffffffffffffffffffffffffffffff16815260200190815260200160002060050160019054906101000a900460ff169050919050565b60025481565b6000600a60009054906101000a900473ffffffffffffffffffffffffffffffffffffffff1673ffffffffffffffffffffffffffffffffffffffff166370a08231836040518263ffffffff1660e01b81526004016118eb919061437f565b602060405180830381865afa158015611908573d6000803e3d6000fd5b505050506040513d601f19601f8201168201806040525081019061192c91906149e1565b9050919050565b6060600060035467ffffffffffffffff81111561195357611952614598565b5b60405190808252806020026020018201604052801561198c57816020015b6119796139c7565b8152602001906001900390816119715790505b5090506000600190505b6003548111611c24576000600f600083815260200190815260200160002060009054906101000a900473ffffffffffffffffffffffffffffffffffffffff169050601060008273ffffffffffffffffffffffffffffffffffffffff1673ffffffffffffffffffffffffffffffffffffffff16815260200190815260200160002060405180610140016040529081600082015481526020016001820160009054906101000a900460ff16151515158152602001600282015481526020016003820160009054906101000a900460ff16151515158152602001600482015481526020016005820160009054906101000a900460ff161515151581526020016005820160019054906101000a900460ff161515151581526020016005820160029054906101000a900473ffffffffffffffffffffffffffffffffffffffff1673ffffffffffffffffffffffffffffffffffffffff1673ffffffffffffffffffffffffffffffffffffffff1681526020016006820160009054906101000a900473ffffffffffffffffffffffffffffffffffffffff1673ffffffffffffffffffffffffffffffffffffffff1673ffffffffffffffffffffffffffffffffffffffff16815260200160078201805480602002602001604051908101604052809291908181526020018280548015611bdd57602002820191906000526020600020905b8160009054906101000a900473ffffffffffffffffffffffffffffffffffffffff1673ffffffffffffffffffffffffffffffffffffffff1681526020019060010190808311611b93575b50505050508152505083600184611bf49190614a0e565b81518110611c0557611c0461462a565b5b6020026020010181905250508080611c1c90614659565b915050611996565b508091505090565b611c346133fd565b60016000815480929190611c4790614659565b9190505550600073ffffffffffffffffffffffffffffffffffffffff163373ffffffffffffffffffffffffffffffffffffffff1603611cbb576040517f08c379a0000000000000000000000000000000000000000000000000000000008152600401611cb290614940565b60405180910390fd5b60008311611cfe576040517f08c379a0000000000000000000000000000000000000000000000000000000008152600401611cf590614a8e565b60405180910390fd5b82600a60009054906101000a900473ffffffffffffffffffffffffffffffffffffffff1673ffffffffffffffffffffffffffffffffffffffff1663dd62ed3e33306040518363ffffffff1660e01b8152600401611d5c929190614aae565b602060405180830381865afa158015611d79573d6000803e3d6000fd5b505050506040513d601f19601f82011682018060405250810190611d9d91906149e1565b1015611dde576040517f08c379a0000000000000000000000000000000000000000000000000000000008152600401611dd590614b23565b60405180910390fd5b82600a60009054906101000a900473ffffffffffffffffffffffffffffffffffffffff1673ffffffffffffffffffffffffffffffffffffffff166370a08231336040518263ffffffff1660e01b8152600401611e3a919061437f565b602060405180830381865afa158015611e57573d6000803e3d6000fd5b505050506040513d601f19601f82011682018060405250810190611e7b91906149e1565b1015611ebc576040517f08c379a0000000000000000000000000000000000000000000000000000000008152600401611eb390614b8f565b60405180910390fd5b6001601060003373ffffffffffffffffffffffffffffffffffffffff1673ffffffffffffffffffffffffffffffffffffffff16815260200190815260200160002060010160006101000a81548160ff021916908315150217905550601060003373ffffffffffffffffffffffffffffffffffffffff1673ffffffffffffffffffffffffffffffffffffffff16815260200190815260200160002060050160009054906101000a900460ff16611f8257611f816001600060016000600160008033612f53565b5b6000611fab6103e8611f9d84876133a590919063ffffffff16565b6133e790919063ffffffff16565b90506000611fc284836133a590919063ffffffff16565b90506000611fd9828761344390919063ffffffff16565b9050604051806101c001604052806001548152602001603c87611ffc9190614baf565b4261200791906145f6565b8152602001603c876120199190614baf565b815260200142815260200185815260200187815260200160008152602001600081526020018781526020018481526020018381526020018281526020016001151581526020013373ffffffffffffffffffffffffffffffffffffffff16815250600d60006001548152602001908152602001600020600082015181600001556020820151816001015560408201518160020155606082015181600301556080820151816004015560a0820151816005015560c0820151816006015560e082015181600701556101008201518160080155610120820151816009015561014082015181600a015561016082015181600b015561018082015181600c0160006101000a81548160ff0219169083151502179055506101a082015181600c0160016101000a81548173ffffffffffffffffffffffffffffffffffffffff021916908373ffffffffffffffffffffffffffffffffffffffff160217905550905050600e60003373ffffffffffffffffffffffffffffffffffffffff1673ffffffffffffffffffffffffffffffffffffffff1681526020019081526020016000206001549080600181540180825580915050600190039060005260206000200160009091909190915055600e60003373ffffffffffffffffffffffffffffffffffffffff1673ffffffffffffffffffffffffffffffffffffffff16815260200190815260200160002080549050601060003373ffffffffffffffffffffffffffffffffffffffff1673ffffffffffffffffffffffffffffffffffffffff16815260200190815260200160002060020181905550600a60009054906101000a900473ffffffffffffffffffffffffffffffffffffffff1673ffffffffffffffffffffffffffffffffffffffff166323b872dd3330896040518463ffffffff1660e01b81526004016122c693929190614bf1565b6020604051808303816000875af11580156122e5573d6000803e3d6000fd5b505050506040513d601f19601f820116820180604052508101906123099190614c54565b612348576040517f08c379a000000000000000000000000000000000000000000000000000000000815260040161233f90614ccd565b60405180910390fd5b612355338760015461346a565b3373ffffffffffffffffffffffffffffffffffffffff166001547f97f64c4920393fa2ba09f59bcc4b68ffeb99a48ba474104f8106c7867681f7be8760405161239e9190613dd7565b60405180910390a35050506123b161394f565b505050565b6060600060015490506000808267ffffffffffffffff8111156123dc576123db614598565b5b60405190808252806020026020018201604052801561241557816020015b612402613a4e565b8152602001906001900390816123fa5790505b50905060005b8381101561258357600060018261243291906145f6565b90506000600d6000838152602001908152602001600020905080604051806101c001604052908160008201548152602001600182015481526020016002820154815260200160038201548152602001600482015481526020016005820154815260200160068201548152602001600782015481526020016008820154815260200160098201548152602001600a8201548152602001600b8201548152602001600c820160009054906101000a900460ff16151515158152602001600c820160019054906101000a900473ffffffffffffffffffffffffffffffffffffffff1673ffffffffffffffffffffffffffffffffffffffff1673ffffffffffffffffffffffffffffffffffffffff16815250508486815181106125545761255361462a565b5b602002602001018190525060018561256c91906145f6565b94505050808061257b90614659565b91505061241b565b5080935050505090565b6000601060008373ffffffffffffffffffffffffffffffffffffffff1673ffffffffffffffffffffffffffffffffffffffff16815260200190815260200160002060010160009054906101000a900460ff169050919050565b600460009054906101000a900473ffffffffffffffffffffffffffffffffffffffff1673ffffffffffffffffffffffffffffffffffffffff163373ffffffffffffffffffffffffffffffffffffffff1614612676576040517f08c379a000000000000000000000000000000000000000000000000000000000815260040161266d90614940565b60405180910390fd5b61267e6133fd565b6000600a60009054906101000a900473ffffffffffffffffffffffffffffffffffffffff1673ffffffffffffffffffffffffffffffffffffffff166370a08231306040518263ffffffff1660e01b81526004016126db919061437f565b602060405180830381865afa1580156126f8573d6000803e3d6000fd5b505050506040513d601f19601f8201168201806040525081019061271c91906149e1565b9050600a60009054906101000a900473ffffffffffffffffffffffffffffffffffffffff1673ffffffffffffffffffffffffffffffffffffffff1663a9059cbb83836040518363ffffffff1660e01b815260040161277b929190614ced565b6020604051808303816000875af115801561279a573d6000803e3d6000fd5b505050506040513d601f19601f820116820180604052508101906127be9190614c54565b50506127c861394f565b50565b6000804290506000600d60008581526020019081526020016000206001015490508082106127fe5760009250505061280f565b818161280a9190614a0e565b925050505b919050565b600033905090565b6128246133fd565b600073ffffffffffffffffffffffffffffffffffffffff163373ffffffffffffffffffffffffffffffffffffffff1603612893576040517f08c379a000000000000000000000000000000000000000000000000000000000815260040161288a90614d62565b60405180910390fd5b60001515601060003373ffffffffffffffffffffffffffffffffffffffff1673ffffffffffffffffffffffffffffffffffffffff16815260200190815260200160002060050160009054906101000a900460ff16151503612929576040517f08c379a0000000000000000000000000000000000000000000000000000000008152600401612920906148d4565b60405180910390fd5b3373ffffffffffffffffffffffffffffffffffffffff16600d6000848152602001908152602001600020600c0160019054906101000a900473ffffffffffffffffffffffffffffffffffffffff1673ffffffffffffffffffffffffffffffffffffffff1603612ee657600d6000838152602001908152602001600020600c0160009054906101000a900460ff1615612ea6576000600d6000848152602001908152602001600020600a015490506000600d6000858152602001908152602001600020600b015490506000600d60008681526020019081526020016000206001015490506000600d60008781526020019081526020016000206003015490506000600d60008881526020019081526020016000206006015490506000612a3083612a5291906145f6565b90506000612a5f89611212565b90506000612a8b6064612a7d6005548c6133a590919063ffffffff16565b6133e790919063ffffffff16565b905082421115612e5e5781891015612ad8576040517f08c379a0000000000000000000000000000000000000000000000000000000008152600401612acf90614df4565b60405180910390fd5b86891115612b1b576040517f08c379a0000000000000000000000000000000000000000000000000000000008152600401612b1290614e60565b60405180910390fd5b85421115612bb55786891015612b7257612b3e818a61395990919063ffffffff16565b600681905550612b6b600654612b5d868a61395990919063ffffffff16565b61395990919063ffffffff16565b6007819055505b868903612bb057866007819055506000600d60008c8152602001908152602001600020600c0160006101000a81548160ff0219169083151502179055505b612c3e565b868903612bf7576040517f08c379a0000000000000000000000000000000000000000000000000000000008152600401612bee90614ecc565b60405180910390fd5b612c0a818a61395990919063ffffffff16565b600681905550612c37600654612c29868b61395990919063ffffffff16565b61395990919063ffffffff16565b6007819055505b600754600d60008c815260200190815260200160002060060181905550600654600d60008c815260200190815260200160002060070154612c7f91906145f6565b600d60008c815260200190815260200160002060070181905550600a60009054906101000a900473ffffffffffffffffffffffffffffffffffffffff1673ffffffffffffffffffffffffffffffffffffffff1663a9059cbb336006546040518363ffffffff1660e01b8152600401612cf8929190614ced565b6020604051808303816000875af1158015612d17573d6000803e3d6000fd5b505050506040513d601f19601f82011682018060405250810190612d3b9190614c54565b50600a60009054906101000a900473ffffffffffffffffffffffffffffffffffffffff1673ffffffffffffffffffffffffffffffffffffffff1663a9059cbb600860009054906101000a900473ffffffffffffffffffffffffffffffffffffffff16836040518363ffffffff1660e01b8152600401612dbb929190614ced565b6020604051808303816000875af1158015612dda573d6000803e3d6000fd5b505050506040513d601f19601f82011682018060405250810190612dfe9190614c54565b503373ffffffffffffffffffffffffffffffffffffffff167f07c6ad283077d6ee6fcc0437bd7d91669f44b7b8c1049f8a6c7b210cf26054c560065442600654600754604051612e519493929190614eec565b60405180910390a2612e99565b6040517f08c379a0000000000000000000000000000000000000000000000000000000008152600401612e9090614f7d565b60405180910390fd5b5050505050505050612ee1565b6040517f08c379a0000000000000000000000000000000000000000000000000000000008152600401612ed89061500f565b60405180910390fd5b612f21565b6040517f08c379a0000000000000000000000000000000000000000000000000000000008152600401612f1890614940565b60405180910390fd5b612f2961394f565b5050565b600860009054906101000a900473ffffffffffffffffffffffffffffffffffffffff1681565b60036000815480929190612f6690614659565b9190505550604051806101400160405280600354815260200189151581526020018881526020018715158152602001868152602001851515815260200184151581526020018373ffffffffffffffffffffffffffffffffffffffff1681526020018273ffffffffffffffffffffffffffffffffffffffff168152602001600067ffffffffffffffff811115612ffe57612ffd614598565b5b60405190808252806020026020018201604052801561302c5781602001602082028036833780820191505090505b50815250601060008373ffffffffffffffffffffffffffffffffffffffff1673ffffffffffffffffffffffffffffffffffffffff1681526020019081526020016000206000820151816000015560208201518160010160006101000a81548160ff0219169083151502179055506040820151816002015560608201518160030160006101000a81548160ff0219169083151502179055506080820151816004015560a08201518160050160006101000a81548160ff02191690831515021790555060c08201518160050160016101000a81548160ff02191690831515021790555060e08201518160050160026101000a81548173ffffffffffffffffffffffffffffffffffffffff021916908373ffffffffffffffffffffffffffffffffffffffff1602179055506101008201518160060160006101000a81548173ffffffffffffffffffffffffffffffffffffffff021916908373ffffffffffffffffffffffffffffffffffffffff1602179055506101208201518160070190805190602001906131b9929190613ad5565b5090505080600f6000600354815260200190815260200160002060006101000a81548173ffffffffffffffffffffffffffffffffffffffff021916908373ffffffffffffffffffffffffffffffffffffffff1602179055506003547fb442efe467d2ef30e62927a3cae0afcbc799a8a0944d8a143332e4e5e51cee5d33604051613243919061437f565b60405180910390a25050505050505050565b600080601060008573ffffffffffffffffffffffffffffffffffffffff1673ffffffffffffffffffffffffffffffffffffffff16815260200190815260200160002060070180548060200260200160405190810160405280929190818152602001828054801561331a57602002820191906000526020600020905b8160009054906101000a900473ffffffffffffffffffffffffffffffffffffffff1673ffffffffffffffffffffffffffffffffffffffff16815260200190600101908083116132d0575b5050505050905060005b8151811015613398578373ffffffffffffffffffffffffffffffffffffffff168282815181106133575761335661462a565b5b602002602001015173ffffffffffffffffffffffffffffffffffffffff16036133855760019250505061339f565b808061339090614659565b915050613324565b5060009150505b92915050565b60008083036133b757600090506133e1565b81836133c39190614baf565b90508183826133d2919061505e565b146133e0576133df61508f565b5b5b92915050565b600081836133f5919061505e565b905092915050565b600260005403613439576040517f3ee5aeb500000000000000000000000000000000000000000000000000000000815260040160405180910390fd5b6002600081905550565b6000818361345191906145f6565b9050828110156134645761346361508f565b5b92915050565b6000601060008573ffffffffffffffffffffffffffffffffffffffff1673ffffffffffffffffffffffffffffffffffffffff16815260200190815260200160002060050160029054906101000a900473ffffffffffffffffffffffffffffffffffffffff169050600073ffffffffffffffffffffffffffffffffffffffff168173ffffffffffffffffffffffffffffffffffffffff161461394957600060646002856135169190614baf565b613520919061505e565b905080600a60009054906101000a900473ffffffffffffffffffffffffffffffffffffffff1673ffffffffffffffffffffffffffffffffffffffff166370a08231600460009054906101000a900473ffffffffffffffffffffffffffffffffffffffff166040518263ffffffff1660e01b81526004016135a0919061437f565b602060405180830381865afa1580156135bd573d6000803e3d6000fd5b505050506040513d601f19601f820116820180604052508101906135e191906149e1565b1015613622576040517f08c379a000000000000000000000000000000000000000000000000000000000815260040161361990615130565b60405180910390fd5b601260008673ffffffffffffffffffffffffffffffffffffffff1673ffffffffffffffffffffffffffffffffffffffff16815260200190815260200160002060040160009054906101000a900460ff16156136b2576040517f08c379a00000000000000000000000000000000000000000000000000000000081526004016136a99061519c565b60405180910390fd5b600260008154809291906136c590614659565b91905055506040518060a0016040528060025481526020018481526020018373ffffffffffffffffffffffffffffffffffffffff16815260200182815260200160011515815250601160006002548152602001908152602001600020600082015181600001556020820151816001015560408201518160020160006101000a81548173ffffffffffffffffffffffffffffffffffffffff021916908373ffffffffffffffffffffffffffffffffffffffff1602179055506060820151816003015560808201518160040160006101000a81548160ff0219169083151502179055509050506000600a60009054906101000a900473ffffffffffffffffffffffffffffffffffffffff1673ffffffffffffffffffffffffffffffffffffffff166370a08231846040518263ffffffff1660e01b8152600401613806919061437f565b602060405180830381865afa158015613823573d6000803e3d6000fd5b505050506040513d601f19601f8201168201806040525081019061384791906149e1565b9050818161385591906145f6565b9050600a60009054906101000a900473ffffffffffffffffffffffffffffffffffffffff1673ffffffffffffffffffffffffffffffffffffffff1663a9059cbb84846040518363ffffffff1660e01b81526004016138b4929190614ced565b6020604051808303816000875af11580156138d3573d6000803e3d6000fd5b505050506040513d601f19601f820116820180604052508101906138f79190614c54565b508273ffffffffffffffffffffffffffffffffffffffff167f5be4d22009fea85381595ed91090bc5c0bc92a93fe07ed7472c5888eb1993f838360405161393e9190613dd7565b60405180910390a250505b50505050565b6001600081905550565b60008282111561396c5761396b61508f565b5b81836139789190614a0e565b905092915050565b6040518060a001604052806000815260200160008152602001600073ffffffffffffffffffffffffffffffffffffffff168152602001600081526020016000151581525090565b604051806101400160405280600081526020016000151581526020016000815260200160001515815260200160008152602001600015158152602001600015158152602001600073ffffffffffffffffffffffffffffffffffffffff168152602001600073ffffffffffffffffffffffffffffffffffffffff168152602001606081525090565b604051806101c00160405280600081526020016000815260200160008152602001600081526020016000815260200160008152602001600081526020016000815260200160008152602001600081526020016000815260200160008152602001600015158152602001600073ffffffffffffffffffffffffffffffffffffffff1681525090565b828054828255906000526020600020908101928215613b4e579160200282015b82811115613b4d5782518260006101000a81548173ffffffffffffffffffffffffffffffffffffffff021916908373ffffffffffffffffffffffffffffffffffffffff16021790555091602001919060010190613af5565b5b509050613b5b9190613b5f565b5090565b5b80821115613b78576000816000905550600101613b60565b5090565b600080fd5b600073ffffffffffffffffffffffffffffffffffffffff82169050919050565b6000613bac82613b81565b9050919050565b613bbc81613ba1565b8114613bc757600080fd5b50565b600081359050613bd981613bb3565b92915050565b600060208284031215613bf557613bf4613b7c565b5b6000613c0384828501613bca565b91505092915050565b600081519050919050565b600082825260208201905092915050565b6000819050602082019050919050565b6000819050919050565b613c4b81613c38565b82525050565b613c5a81613ba1565b82525050565b60008115159050919050565b613c7581613c60565b82525050565b60a082016000820151613c916000850182613c42565b506020820151613ca46020850182613c42565b506040820151613cb76040850182613c51565b506060820151613cca6060850182613c42565b506080820151613cdd6080850182613c6c565b50505050565b6000613cef8383613c7b565b60a08301905092915050565b6000602082019050919050565b6000613d1382613c0c565b613d1d8185613c17565b9350613d2883613c28565b8060005b83811015613d59578151613d408882613ce3565b9750613d4b83613cfb565b925050600181019050613d2c565b5085935050505092915050565b60006020820190508181036000830152613d808184613d08565b905092915050565b60008060408385031215613d9f57613d9e613b7c565b5b6000613dad85828601613bca565b9250506020613dbe85828601613bca565b9150509250929050565b613dd181613c38565b82525050565b6000602082019050613dec6000830184613dc8565b92915050565b600081519050919050565b600082825260208201905092915050565b6000819050602082019050919050565b6000613e2a8383613c51565b60208301905092915050565b6000602082019050919050565b6000613e4e82613df2565b613e588185613dfd565b9350613e6383613e0e565b8060005b83811015613e94578151613e7b8882613e1e565b9750613e8683613e36565b925050600181019050613e67565b5085935050505092915050565b60006020820190508181036000830152613ebb8184613e43565b905092915050565b600082825260208201905092915050565b6000613edf82613df2565b613ee98185613ec3565b9350613ef483613e0e565b8060005b83811015613f25578151613f0c8882613e1e565b9750613f1783613e36565b925050600181019050613ef8565b5085935050505092915050565b600061014083016000830151613f4b6000860182613c42565b506020830151613f5e6020860182613c6c565b506040830151613f716040860182613c42565b506060830151613f846060860182613c6c565b506080830151613f976080860182613c42565b5060a0830151613faa60a0860182613c6c565b5060c0830151613fbd60c0860182613c6c565b5060e0830151613fd060e0860182613c51565b50610100830151613fe5610100860182613c51565b50610120830151848203610120860152613fff8282613ed4565b9150508091505092915050565b600060208201905081810360008301526140268184613f32565b905092915050565b61403781613c38565b811461404257600080fd5b50565b6000813590506140548161402e565b92915050565b6000602082840312156140705761406f613b7c565b5b600061407e84828501614045565b91505092915050565b61409081613c60565b82525050565b60006020820190506140ab6000830184614087565b92915050565b600081519050919050565b600082825260208201905092915050565b6000819050602082019050919050565b6101c0820160008201516140f46000850182613c42565b5060208201516141076020850182613c42565b50604082015161411a6040850182613c42565b50606082015161412d6060850182613c42565b5060808201516141406080850182613c42565b5060a082015161415360a0850182613c42565b5060c082015161416660c0850182613c42565b5060e082015161417960e0850182613c42565b5061010082015161418e610100850182613c42565b506101208201516141a3610120850182613c42565b506101408201516141b8610140850182613c42565b506101608201516141cd610160850182613c42565b506101808201516141e2610180850182613c6c565b506101a08201516141f76101a0850182613c51565b50505050565b600061420983836140dd565b6101c08301905092915050565b6000602082019050919050565b600061422e826140b1565b61423881856140bc565b9350614243836140cd565b8060005b8381101561427457815161425b88826141fd565b975061426683614216565b925050600181019050614247565b5085935050505092915050565b6000602082019050818103600083015261429b8184614223565b905092915050565b6000819050919050565b60006142c86142c36142be84613b81565b6142a3565b613b81565b9050919050565b60006142da826142ad565b9050919050565b60006142ec826142cf565b9050919050565b6142fc816142e1565b82525050565b600060208201905061431760008301846142f3565b92915050565b60008060006060848603121561433657614335613b7c565b5b600061434486828701614045565b935050602061435586828701614045565b925050604061436686828701614045565b9150509250925092565b61437981613ba1565b82525050565b60006020820190506143946000830184614370565b92915050565b600081519050919050565b600082825260208201905092915050565b6000819050602082019050919050565b6000610140830160008301516143df6000860182613c42565b5060208301516143f26020860182613c6c565b5060408301516144056040860182613c42565b5060608301516144186060860182613c6c565b50608083015161442b6080860182613c42565b5060a083015161443e60a0860182613c6c565b5060c083015161445160c0860182613c6c565b5060e083015161446460e0860182613c51565b50610100830151614479610100860182613c51565b506101208301518482036101208601526144938282613ed4565b9150508091505092915050565b60006144ac83836143c6565b905092915050565b6000602082019050919050565b60006144cc8261439a565b6144d681856143a5565b9350836020820285016144e8856143b6565b8060005b85811015614524578484038952815161450585826144a0565b9450614510836144b4565b925060208a019950506001810190506144ec565b50829750879550505050505092915050565b6000602082019050818103600083015261455081846144c1565b905092915050565b6000806040838503121561456f5761456e613b7c565b5b600061457d85828601614045565b925050602061458e85828601614045565b9150509250929050565b7f4e487b7100000000000000000000000000000000000000000000000000000000600052604160045260246000fd5b7f4e487b7100000000000000000000000000000000000000000000000000000000600052601160045260246000fd5b600061460182613c38565b915061460c83613c38565b9250828201905080821115614624576146236145c7565b5b92915050565b7f4e487b7100000000000000000000000000000000000000000000000000000000600052603260045260246000fd5b600061466482613c38565b91507fffffffffffffffffffffffffffffffffffffffffffffffffffffffffffffffff8203614696576146956145c7565b5b600182019050919050565b600082825260208201905092915050565b7f53706f6e736f72206973206e6f74206120726567697374657265642075736572600082015250565b60006146e86020836146a1565b91506146f3826146b2565b602082019050919050565b60006020820190508181036000830152614717816146db565b9050919050565b7f646f776e6c696e6520616c726561647920726567697374657265640000000000600082015250565b6000614754601b836146a1565b915061475f8261471e565b602082019050919050565b6000602082019050818103600083015261478381614747565b9050919050565b7f446f776e6c696e6520697320616c72656164792072656665727265642062792060008201527f7468652073706f6e736f72000000000000000000000000000000000000000000602082015250565b60006147e6602b836146a1565b91506147f18261478a565b604082019050919050565b60006020820190508181036000830152614815816147d9565b9050919050565b7f496e76616c696420616464726573736573000000000000000000000000000000600082015250565b60006148526011836146a1565b915061485d8261481c565b602082019050919050565b6000602082019050818103600083015261488181614845565b9050919050565b7f6163636f756e74206e6f74207265676973746572656400000000000000000000600082015250565b60006148be6016836146a1565b91506148c982614888565b602082019050919050565b600060208201905081810360008301526148ed816148b1565b9050919050565b7f556e617574686f72697a65640000000000000000000000000000000000000000600082015250565b600061492a600c836146a1565b9150614935826148f4565b602082019050919050565b600060208201905081810360008301526149598161491d565b9050919050565b7f496e76616c696420616464726573730000000000000000000000000000000000600082015250565b6000614996600f836146a1565b91506149a182614960565b602082019050919050565b600060208201905081810360008301526149c581614989565b9050919050565b6000815190506149db8161402e565b92915050565b6000602082840312156149f7576149f6613b7c565b5b6000614a05848285016149cc565b91505092915050565b6000614a1982613c38565b9150614a2483613c38565b9250828203905081811115614a3c57614a3b6145c7565b5b92915050565b7f696e76616c696420616d6f756e74000000000000000000000000000000000000600082015250565b6000614a78600e836146a1565b9150614a8382614a42565b602082019050919050565b60006020820190508181036000830152614aa781614a6b565b9050919050565b6000604082019050614ac36000830185614370565b614ad06020830184614370565b9392505050565b7f546f6b656e207472616e73666572206e6f7420617070726f7665640000000000600082015250565b6000614b0d601b836146a1565b9150614b1882614ad7565b602082019050919050565b60006020820190508181036000830152614b3c81614b00565b9050919050565b7f496e73756666696369656e7420546f6b656e2042616c616e6365000000000000600082015250565b6000614b79601a836146a1565b9150614b8482614b43565b602082019050919050565b60006020820190508181036000830152614ba881614b6c565b9050919050565b6000614bba82613c38565b9150614bc583613c38565b9250828202614bd381613c38565b91508282048414831517614bea57614be96145c7565b5b5092915050565b6000606082019050614c066000830186614370565b614c136020830185614370565b614c206040830184613dc8565b949350505050565b614c3181613c60565b8114614c3c57600080fd5b50565b600081519050614c4e81614c28565b92915050565b600060208284031215614c6a57614c69613b7c565b5b6000614c7884828501614c3f565b91505092915050565b7f546f6b656e207472616e73666572206661696c65640000000000000000000000600082015250565b6000614cb76015836146a1565b9150614cc282614c81565b602082019050919050565b60006020820190508181036000830152614ce681614caa565b9050919050565b6000604082019050614d026000830185614370565b614d0f6020830184613dc8565b9392505050565b7f496e766c69642061646472657373657300000000000000000000000000000000600082015250565b6000614d4c6010836146a1565b9150614d5782614d16565b602082019050919050565b60006020820190508181036000830152614d7b81614d3f565b9050919050565b7f416d6f756e74204973204c657373205468616e204d696e696d756d205769746860008201527f6472617720416d6f756e74000000000000000000000000000000000000000000602082015250565b6000614dde602b836146a1565b9150614de982614d82565b604082019050919050565b60006020820190508181036000830152614e0d81614dd1565b9050919050565b7f416d6f756e74204973204d6f7265205468616e205374616b6520526577617264600082015250565b6000614e4a6020836146a1565b9150614e5582614e14565b602082019050919050565b60006020820190508181036000830152614e7981614e3d565b9050919050565b7f7374616b65206475726174696f6e206e6f7420436f6d706c6574656400000000600082015250565b6000614eb6601c836146a1565b9150614ec182614e80565b602082019050919050565b60006020820190508181036000830152614ee581614ea9565b9050919050565b6000608082019050614f016000830187613dc8565b614f0e6020830186613dc8565b614f1b6040830185613dc8565b614f286060830184613dc8565b95945050505050565b7f6d696e207769746864726177616c2074696d65206e6f74207265616368656400600082015250565b6000614f67601f836146a1565b9150614f7282614f31565b602082019050919050565b60006020820190508181036000830152614f9681614f5a565b9050919050565b7f596f75206d757374206861766520616374697665207374616b6520746f20776960008201527f7468647261770000000000000000000000000000000000000000000000000000602082015250565b6000614ff96026836146a1565b915061500482614f9d565b604082019050919050565b6000602082019050818103600083015261502881614fec565b9050919050565b7f4e487b7100000000000000000000000000000000000000000000000000000000600052601260045260246000fd5b600061506982613c38565b915061507483613c38565b9250826150845761508361502f565b5b828204905092915050565b7f4e487b7100000000000000000000000000000000000000000000000000000000600052600160045260246000fd5b7f436f6e747261637420646f6573206e6f74206861766520656e6f75676820746f60008201527f6b656e7300000000000000000000000000000000000000000000000000000000602082015250565b600061511a6024836146a1565b9150615125826150be565b604082019050919050565b600060208201905081810360008301526151498161510d565b9050919050565b7f726566657272616c2072657761726420616c726561647920636c61696d656400600082015250565b6000615186601f836146a1565b915061519182615150565b602082019050919050565b600060208201905081810360008301526151b581615179565b905091905056fea2646970667358221220a618e9ab22c1771013c43b9707eebb96f72e818c8fe859b9a2b85dc33b22fb1f64736f6c63430008140033",
  "linkReferences": {},
  "deployedLinkReferences": {}
}