{
  "_format": "hh-sol-artifact-1",
  "contractName": "FRDStaking",
  "sourceName": "contracts/FRDStaking.sol",
  "abi": [
    {
      "inputs": [
        {
          "internalType": "address",
          "name": "_FifaRewardTokenAddress",
          "type": "address"
        }
      ],
      "stateMutability": "nonpayable",
      "type": "constructor"
    },
    {
      "inputs": [],
      "name": "AccountNotRegistered",
      "type": "error"
    },
    {
      "inputs": [],
      "name": "AmountIsLessThanMinimumWithdrawAmount",
      "type": "error"
    },
    {
      "inputs": [],
      "name": "AmountIsMoreThanMinimumWithdrawAmount",
      "type": "error"
    },
    {
      "inputs": [],
      "name": "InvalidAmount",
      "type": "error"
    },
    {
      "inputs": [],
      "name": "ReentrancyGuardReentrantCall",
      "type": "error"
    },
    {
      "inputs": [],
      "name": "Unauthorized",
      "type": "error"
    },
    {
      "inputs": [],
      "name": "YouMustHaveActiveStakeToWithdraw",
      "type": "error"
    },
    {
      "inputs": [],
      "name": "biddingTimeHasPassed",
      "type": "error"
    },
    {
      "inputs": [],
      "name": "createTokenFirst",
      "type": "error"
    },
    {
      "inputs": [],
      "name": "minimumbiddingAmount",
      "type": "error"
    },
    {
      "inputs": [],
      "name": "priceMustBeGreaterThanZero",
      "type": "error"
    },
    {
      "inputs": [],
      "name": "referralAlreadyExits",
      "type": "error"
    },
    {
      "inputs": [],
      "name": "sponsorMustHaveActiveStakeToRefer",
      "type": "error"
    },
    {
      "anonymous": false,
      "inputs": [
        {
          "indexed": true,
          "internalType": "uint256",
          "name": "refId",
          "type": "uint256"
        },
        {
          "indexed": false,
          "internalType": "uint256",
          "name": "sponsorUserId",
          "type": "uint256"
        },
        {
          "indexed": false,
          "internalType": "uint256",
          "name": "referralUserId",
          "type": "uint256"
        },
        {
          "indexed": false,
          "internalType": "address",
          "name": "referral",
          "type": "address"
        },
        {
          "indexed": false,
          "internalType": "address",
          "name": "sponsor",
          "type": "address"
        },
        {
          "indexed": false,
          "internalType": "address[]",
          "name": "referrals",
          "type": "address[]"
        }
      ],
      "name": "AddReferral",
      "type": "event"
    },
    {
      "anonymous": false,
      "inputs": [
        {
          "indexed": true,
          "internalType": "uint256",
          "name": "userId",
          "type": "uint256"
        },
        {
          "indexed": false,
          "internalType": "bool",
          "name": "registered",
          "type": "bool"
        },
        {
          "indexed": false,
          "internalType": "bool",
          "name": "wasReferred",
          "type": "bool"
        },
        {
          "indexed": false,
          "internalType": "address",
          "name": "walletaddress",
          "type": "address"
        }
      ],
      "name": "RegisterUser",
      "type": "event"
    },
    {
      "anonymous": false,
      "inputs": [
        {
          "indexed": true,
          "internalType": "uint256",
          "name": "stakeId",
          "type": "uint256"
        },
        {
          "indexed": true,
          "internalType": "address",
          "name": "staker",
          "type": "address"
        },
        {
          "indexed": false,
          "internalType": "uint256",
          "name": "stake_duration",
          "type": "uint256"
        },
        {
          "indexed": false,
          "internalType": "uint256",
          "name": "stake_amount",
          "type": "uint256"
        },
        {
          "indexed": false,
          "internalType": "uint256",
          "name": "stakerewardperDay",
          "type": "uint256"
        },
        {
          "indexed": false,
          "internalType": "uint256",
          "name": "totalstakeReward",
          "type": "uint256"
        },
        {
          "indexed": false,
          "internalType": "uint256",
          "name": "total_reward",
          "type": "uint256"
        },
        {
          "indexed": false,
          "internalType": "bool",
          "name": "isActive",
          "type": "bool"
        },
        {
          "indexed": false,
          "internalType": "bool",
          "name": "hasStaked",
          "type": "bool"
        }
      ],
      "name": "StakedEvent",
      "type": "event"
    },
    {
      "anonymous": false,
      "inputs": [
        {
          "indexed": true,
          "internalType": "address",
          "name": "Withdrawer",
          "type": "address"
        },
        {
          "indexed": false,
          "internalType": "uint256",
          "name": "withdrawAmount",
          "type": "uint256"
        },
        {
          "indexed": false,
          "internalType": "uint256",
          "name": "withdrawTime",
          "type": "uint256"
        },
        {
          "indexed": false,
          "internalType": "uint256",
          "name": "amountToWithdraw",
          "type": "uint256"
        },
        {
          "indexed": false,
          "internalType": "uint256",
          "name": "amountRemaining",
          "type": "uint256"
        }
      ],
      "name": "WithdrawlEvent",
      "type": "event"
    },
    {
      "inputs": [
        {
          "internalType": "uint256",
          "name": "stakeamount",
          "type": "uint256"
        },
        {
          "internalType": "uint256",
          "name": "duration",
          "type": "uint256"
        },
        {
          "internalType": "uint256",
          "name": "profitpercent",
          "type": "uint256"
        }
      ],
      "name": "EstimateReward",
      "outputs": [
        {
          "internalType": "uint256",
          "name": "",
          "type": "uint256"
        }
      ],
      "stateMutability": "view",
      "type": "function"
    },
    {
      "inputs": [],
      "name": "FifaRewardTokenContract",
      "outputs": [
        {
          "internalType": "contract IERC20",
          "name": "",
          "type": "address"
        }
      ],
      "stateMutability": "view",
      "type": "function"
    },
    {
      "inputs": [],
      "name": "GetAllReferrals",
      "outputs": [
        {
          "components": [
            {
              "internalType": "uint256",
              "name": "refId",
              "type": "uint256"
            },
            {
              "internalType": "uint256",
              "name": "sponsorUserId",
              "type": "uint256"
            },
            {
              "internalType": "uint256",
              "name": "referralUserId",
              "type": "uint256"
            },
            {
              "internalType": "address",
              "name": "referral",
              "type": "address"
            },
            {
              "internalType": "address",
              "name": "sponsor",
              "type": "address"
            },
            {
              "internalType": "uint256",
              "name": "refbonus",
              "type": "uint256"
            },
            {
              "internalType": "address[]",
              "name": "referrals",
              "type": "address[]"
            }
          ],
          "internalType": "struct FRDStaking.Referrals[]",
          "name": "",
          "type": "tuple[]"
        }
      ],
      "stateMutability": "view",
      "type": "function"
    },
    {
      "inputs": [],
      "name": "GetAllUsers",
      "outputs": [
        {
          "components": [
            {
              "internalType": "uint256",
              "name": "userId",
              "type": "uint256"
            },
            {
              "internalType": "bool",
              "name": "hasStaked",
              "type": "bool"
            },
            {
              "internalType": "uint256",
              "name": "stakeCount",
              "type": "uint256"
            },
            {
              "internalType": "bool",
              "name": "hasActiveStake",
              "type": "bool"
            },
            {
              "internalType": "uint256",
              "name": "refCount",
              "type": "uint256"
            },
            {
              "internalType": "bool",
              "name": "registered",
              "type": "bool"
            },
            {
              "internalType": "bool",
              "name": "wasReferred",
              "type": "bool"
            },
            {
              "internalType": "address",
              "name": "walletaddress",
              "type": "address"
            }
          ],
          "internalType": "struct FRDStaking.Users[]",
          "name": "",
          "type": "tuple[]"
        }
      ],
      "stateMutability": "view",
      "type": "function"
    },
    {
      "inputs": [
        {
          "internalType": "address",
          "name": "_sponsor",
          "type": "address"
        },
        {
          "internalType": "uint256",
          "name": "_refbonus",
          "type": "uint256"
        }
      ],
      "name": "addReferrer",
      "outputs": [],
      "stateMutability": "nonpayable",
      "type": "function"
    },
    {
      "inputs": [
        {
          "internalType": "uint256",
          "name": "_stakeId",
          "type": "uint256"
        }
      ],
      "name": "calcReward",
      "outputs": [
        {
          "internalType": "uint256",
          "name": "reward",
          "type": "uint256"
        }
      ],
      "stateMutability": "view",
      "type": "function"
    },
    {
      "inputs": [],
      "name": "getContractBalance",
      "outputs": [
        {
          "internalType": "uint256",
          "name": "",
          "type": "uint256"
        }
      ],
      "stateMutability": "view",
      "type": "function"
    },
    {
      "inputs": [
        {
          "internalType": "uint256",
          "name": "_stakeId",
          "type": "uint256"
        }
      ],
      "name": "getMinWithdrawAmount",
      "outputs": [
        {
          "internalType": "uint256",
          "name": "",
          "type": "uint256"
        }
      ],
      "stateMutability": "view",
      "type": "function"
    },
    {
      "inputs": [],
      "name": "getOwner",
      "outputs": [
        {
          "internalType": "address",
          "name": "",
          "type": "address"
        }
      ],
      "stateMutability": "view",
      "type": "function"
    },
    {
      "inputs": [
        {
          "internalType": "address",
          "name": "_useraddress",
          "type": "address"
        }
      ],
      "name": "getUserId",
      "outputs": [
        {
          "internalType": "uint256",
          "name": "",
          "type": "uint256"
        }
      ],
      "stateMutability": "view",
      "type": "function"
    },
    {
      "inputs": [],
      "name": "getUserStakeCount",
      "outputs": [
        {
          "internalType": "uint256",
          "name": "",
          "type": "uint256"
        }
      ],
      "stateMutability": "view",
      "type": "function"
    },
    {
      "inputs": [
        {
          "internalType": "address",
          "name": "_useraddress",
          "type": "address"
        }
      ],
      "name": "getuserRefBonus",
      "outputs": [
        {
          "internalType": "uint256",
          "name": "totalrefbonus",
          "type": "uint256"
        }
      ],
      "stateMutability": "view",
      "type": "function"
    },
    {
      "inputs": [
        {
          "internalType": "address",
          "name": "_useraddress",
          "type": "address"
        }
      ],
      "name": "getuserRefId",
      "outputs": [
        {
          "internalType": "uint256",
          "name": "",
          "type": "uint256"
        }
      ],
      "stateMutability": "view",
      "type": "function"
    },
    {
      "inputs": [
        {
          "internalType": "address",
          "name": "_useraddress",
          "type": "address"
        },
        {
          "internalType": "address",
          "name": "_sponsor",
          "type": "address"
        }
      ],
      "name": "getuserRefIdBySponsor",
      "outputs": [
        {
          "internalType": "uint256",
          "name": "",
          "type": "uint256"
        }
      ],
      "stateMutability": "view",
      "type": "function"
    },
    {
      "inputs": [
        {
          "internalType": "address",
          "name": "_useraddress",
          "type": "address"
        }
      ],
      "name": "getuserReferrals",
      "outputs": [
        {
          "internalType": "address[]",
          "name": "",
          "type": "address[]"
        }
      ],
      "stateMutability": "view",
      "type": "function"
    },
    {
      "inputs": [
        {
          "internalType": "address",
          "name": "_useraddress",
          "type": "address"
        }
      ],
      "name": "getuserStakeId",
      "outputs": [
        {
          "internalType": "uint256",
          "name": "",
          "type": "uint256"
        }
      ],
      "stateMutability": "view",
      "type": "function"
    },
    {
      "inputs": [
        {
          "internalType": "address",
          "name": "_useraddress",
          "type": "address"
        }
      ],
      "name": "hasActiveStake",
      "outputs": [
        {
          "internalType": "bool",
          "name": "",
          "type": "bool"
        }
      ],
      "stateMutability": "view",
      "type": "function"
    },
    {
      "inputs": [
        {
          "internalType": "address",
          "name": "_useraddress",
          "type": "address"
        }
      ],
      "name": "hasStaked",
      "outputs": [
        {
          "internalType": "bool",
          "name": "",
          "type": "bool"
        }
      ],
      "stateMutability": "view",
      "type": "function"
    },
    {
      "inputs": [],
      "name": "loadAllStakes",
      "outputs": [
        {
          "components": [
            {
              "internalType": "uint256",
              "name": "stakeId",
              "type": "uint256"
            },
            {
              "internalType": "uint256",
              "name": "rewardTime",
              "type": "uint256"
            },
            {
              "internalType": "uint256",
              "name": "stakeDuration",
              "type": "uint256"
            },
            {
              "internalType": "uint256",
              "name": "profitpercent",
              "type": "uint256"
            },
            {
              "internalType": "uint256",
              "name": "stakeAmount",
              "type": "uint256"
            },
            {
              "internalType": "uint256",
              "name": "currentstakeReward",
              "type": "uint256"
            },
            {
              "internalType": "uint256",
              "name": "stakeRewardPerDay",
              "type": "uint256"
            },
            {
              "internalType": "uint256",
              "name": "totalstakeReward",
              "type": "uint256"
            },
            {
              "internalType": "uint256",
              "name": "totalReward",
              "type": "uint256"
            },
            {
              "internalType": "bool",
              "name": "isActive",
              "type": "bool"
            },
            {
              "internalType": "address",
              "name": "stakerAddress",
              "type": "address"
            }
          ],
          "internalType": "struct FRDStaking.Stakes[]",
          "name": "",
          "type": "tuple[]"
        }
      ],
      "stateMutability": "view",
      "type": "function"
    },
    {
      "inputs": [
        {
          "internalType": "address",
          "name": "_useraddress",
          "type": "address"
        }
      ],
      "name": "loadUserStakes",
      "outputs": [
        {
          "components": [
            {
              "internalType": "uint256",
              "name": "stakeId",
              "type": "uint256"
            },
            {
              "internalType": "uint256",
              "name": "rewardTime",
              "type": "uint256"
            },
            {
              "internalType": "uint256",
              "name": "stakeDuration",
              "type": "uint256"
            },
            {
              "internalType": "uint256",
              "name": "profitpercent",
              "type": "uint256"
            },
            {
              "internalType": "uint256",
              "name": "stakeAmount",
              "type": "uint256"
            },
            {
              "internalType": "uint256",
              "name": "currentstakeReward",
              "type": "uint256"
            },
            {
              "internalType": "uint256",
              "name": "stakeRewardPerDay",
              "type": "uint256"
            },
            {
              "internalType": "uint256",
              "name": "totalstakeReward",
              "type": "uint256"
            },
            {
              "internalType": "uint256",
              "name": "totalReward",
              "type": "uint256"
            },
            {
              "internalType": "bool",
              "name": "isActive",
              "type": "bool"
            },
            {
              "internalType": "address",
              "name": "stakerAddress",
              "type": "address"
            }
          ],
          "internalType": "struct FRDStaking.Stakes[]",
          "name": "",
          "type": "tuple[]"
        }
      ],
      "stateMutability": "view",
      "type": "function"
    },
    {
      "inputs": [],
      "name": "myTokenBalance",
      "outputs": [
        {
          "internalType": "uint256",
          "name": "",
          "type": "uint256"
        }
      ],
      "stateMutability": "view",
      "type": "function"
    },
    {
      "inputs": [],
      "name": "myWalletAddress",
      "outputs": [
        {
          "internalType": "address",
          "name": "",
          "type": "address"
        }
      ],
      "stateMutability": "view",
      "type": "function"
    },
    {
      "inputs": [
        {
          "internalType": "address",
          "name": "_to",
          "type": "address"
        },
        {
          "internalType": "address",
          "name": "_ca",
          "type": "address"
        },
        {
          "internalType": "uint256",
          "name": "_amount",
          "type": "uint256"
        }
      ],
      "name": "sendToken",
      "outputs": [],
      "stateMutability": "nonpayable",
      "type": "function"
    },
    {
      "inputs": [
        {
          "internalType": "uint256",
          "name": "stake_amount",
          "type": "uint256"
        },
        {
          "internalType": "uint256",
          "name": "stake_duration",
          "type": "uint256"
        },
        {
          "internalType": "uint256",
          "name": "profitpercent",
          "type": "uint256"
        }
      ],
      "name": "stake",
      "outputs": [],
      "stateMutability": "nonpayable",
      "type": "function"
    },
    {
      "inputs": [
        {
          "internalType": "address",
          "name": "_useraddress",
          "type": "address"
        }
      ],
      "name": "wasRef_errered",
      "outputs": [
        {
          "internalType": "bool",
          "name": "",
          "type": "bool"
        }
      ],
      "stateMutability": "view",
      "type": "function"
    },
    {
      "inputs": [
        {
          "internalType": "uint256",
          "name": "_stakeId",
          "type": "uint256"
        },
        {
          "internalType": "uint256",
          "name": "_withdrawAmt",
          "type": "uint256"
        }
      ],
      "name": "withdrawStake",
      "outputs": [],
      "stateMutability": "nonpayable",
      "type": "function"
    }
  ],
  "bytecode": "0x608060405233600460006101000a81548173ffffffffffffffffffffffffffffffffffffffff021916908373ffffffffffffffffffffffffffffffffffffffff1602179055506005600655426009553480156200005b57600080fd5b5060405162004fe038038062004fe083398181016040528101906200008191906200017c565b600160008190555080600a60006101000a81548173ffffffffffffffffffffffffffffffffffffffff021916908373ffffffffffffffffffffffffffffffffffffffff16021790555033600560006101000a81548173ffffffffffffffffffffffffffffffffffffffff021916908373ffffffffffffffffffffffffffffffffffffffff16021790555050620001ae565b600080fd5b600073ffffffffffffffffffffffffffffffffffffffff82169050919050565b6000620001448262000117565b9050919050565b620001568162000137565b81146200016257600080fd5b50565b60008151905062000176816200014b565b92915050565b60006020828403121562000195576200019462000112565b5b6000620001a58482850162000165565b91505092915050565b614e2280620001be6000396000f3fe608060405234801561001057600080fd5b506004361061018e5760003560e01c806388aff586116100de578063b959fc2611610097578063d345466111610071578063d3454661146104f9578063e9cfce8214610529578063f1fdf46914610547578063f37a9fcc146105635761018e565b8063b959fc2614610469578063c27b575c14610499578063c93c8f34146104c95761018e565b806388aff5861461039357806388d74599146103b1578063893d20e8146103e15780639a96c1a2146103ff578063a638f2e21461042f578063a7e95edb1461044b5761018e565b806369486d291161014b57806376775c101161012557806376775c10146102e75780637cdaea12146103035780638112e8631461033357806382b77f8a146103635761018e565b806369486d291461027b5780636d7084d6146102ab5780636f9fb98a146102c95761018e565b8063039c0d66146101935780632b956ff7146101b15780632fdcfbd2146101e1578063544c465c146101fd5780635e6ba5491461022d5780636537c1701461024b575b600080fd5b61019b610581565b6040516101a89190613bc3565b60405180910390f35b6101cb60048036038101906101c69190613c41565b610636565b6040516101d89190613bc3565b60405180910390f35b6101fb60048036038101906101f69190613c9a565b61076d565b005b61021760048036038101906102129190613ced565b61087e565b6040516102249190613bc3565b60405180910390f35b610235610a75565b6040516102429190613bc3565b60405180910390f35b61026560048036038101906102609190613c41565b610abc565b6040516102729190613bc3565b60405180910390f35b61029560048036038101906102909190613c41565b610bf3565b6040516102a29190613d35565b60405180910390f35b6102b3610c2d565b6040516102c09190613f7b565b60405180910390f35b6102d1610e7c565b6040516102de9190613bc3565b60405180910390f35b61030160048036038101906102fc9190613f9d565b610f0b565b005b61031d60048036038101906103189190613ced565b611691565b60405161032a9190613bc3565b60405180910390f35b61034d60048036038101906103489190613c41565b611877565b60405161035a919061417d565b60405180910390f35b61037d60048036038101906103789190613c41565b611b4f565b60405161038a9190613bc3565b60405180910390f35b61039b611d6a565b6040516103a891906141fe565b60405180910390f35b6103cb60048036038101906103c69190614219565b611d90565b6040516103d89190613bc3565b60405180910390f35b6103e9611e5a565b6040516103f6919061427b565b60405180910390f35b61041960048036038101906104149190613c41565b611e84565b6040516104269190613d35565b60405180910390f35b61044960048036038101906104449190614219565b611ebe565b005b6104536128d9565b604051610460919061417d565b60405180910390f35b610483600480360381019061047e9190613c41565b612a92565b6040516104909190614305565b60405180910390f35b6104b360048036038101906104ae9190614327565b612cb2565b6040516104c09190613bc3565b60405180910390f35b6104e360048036038101906104de9190613c41565b612e64565b6040516104f09190613d35565b60405180910390f35b610513600480360381019061050e9190613c41565b612e9e565b6040516105209190613bc3565b60405180910390f35b610531612fd5565b60405161053e919061427b565b60405180910390f35b610561600480360381019061055c9190614367565b612fdd565b005b61056b61363c565b60405161057891906144f9565b60405180910390f35b60008060015490506000805b8281101561062d573373ffffffffffffffffffffffffffffffffffffffff16600f60006001846105bd919061454a565b815260200190815260200160002060090160019054906101000a900473ffffffffffffffffffffffffffffffffffffffff1673ffffffffffffffffffffffffffffffffffffffff160361061a57600182610617919061454a565b91505b80806106259061457e565b91505061058d565b50809250505090565b6000806003549050600073ffffffffffffffffffffffffffffffffffffffff168373ffffffffffffffffffffffffffffffffffffffff16036106a4576040517f82b4290000000000000000000000000000000000000000000000000000000000815260040160405180910390fd5b600080600090505b82811015610762578473ffffffffffffffffffffffffffffffffffffffff16600d60006001846106dc919061454a565b815260200190815260200160002060050160029054906101000a900473ffffffffffffffffffffffffffffffffffffffff1673ffffffffffffffffffffffffffffffffffffffff160361074f57600d600060018361073a919061454a565b81526020019081526020016000206000015491505b808061075a9061457e565b9150506106ac565b508092505050919050565b600560009054906101000a900473ffffffffffffffffffffffffffffffffffffffff1673ffffffffffffffffffffffffffffffffffffffff163373ffffffffffffffffffffffffffffffffffffffff16036107f4576040517f82b4290000000000000000000000000000000000000000000000000000000000815260040160405180910390fd5b60008290508073ffffffffffffffffffffffffffffffffffffffff1663a9059cbb85846040518363ffffffff1660e01b81526004016108349291906145c6565b6020604051808303816000875af1158015610853573d6000803e3d6000fd5b505050506040513d601f19601f82011682018060405250810190610877919061461b565b5050505050565b60008073ffffffffffffffffffffffffffffffffffffffff163373ffffffffffffffffffffffffffffffffffffffff16036108ee576040517f08c379a00000000000000000000000000000000000000000000000000000000081526004016108e5906146a5565b60405180910390fd5b60006108f933610636565b905060001515600d600083815260200190815260200160002060050160009054906101000a900460ff1615150361095c576040517f9704dd5100000000000000000000000000000000000000000000000000000000815260040160405180910390fd5b60003373ffffffffffffffffffffffffffffffffffffffff16600f600086815260200190815260200160002060090160019054906101000a900473ffffffffffffffffffffffffffffffffffffffff1673ffffffffffffffffffffffffffffffffffffffff1603610a39576000600d60008481526020019081526020016000206004015490506000600f60008781526020019081526020016000206008015490506000821115610a2e576000610a1133611b4f565b9050610a26818361380a90919063ffffffff16565b935050610a32565b8092505b5050610a6b565b6040517f82b4290000000000000000000000000000000000000000000000000000000000815260040160405180910390fd5b8092505050919050565b6000600b60003373ffffffffffffffffffffffffffffffffffffffff1673ffffffffffffffffffffffffffffffffffffffff16815260200190815260200160002054905090565b6000806002549050600073ffffffffffffffffffffffffffffffffffffffff168373ffffffffffffffffffffffffffffffffffffffff1603610b2a576040517f82b4290000000000000000000000000000000000000000000000000000000000815260040160405180910390fd5b600080600090505b82811015610be8578473ffffffffffffffffffffffffffffffffffffffff1660116000600184610b62919061454a565b815260200190815260200160002060030160009054906101000a900473ffffffffffffffffffffffffffffffffffffffff1673ffffffffffffffffffffffffffffffffffffffff1603610bd55760116000600183610bc0919061454a565b81526020019081526020016000206000015491505b8080610be09061457e565b915050610b32565b508092505050919050565b600080610bff83610636565b9050600d600082815260200190815260200160002060030160009054906101000a900460ff16915050919050565b6060600060025490506000808267ffffffffffffffff811115610c5357610c526146c5565b5b604051908082528060200260200182016040528015610c8c57816020015b610c796139c5565b815260200190600190039081610c715790505b50905060005b83811015610e72576000600182610ca9919061454a565b90506000601160008381526020019081526020016000209050806040518060e00160405290816000820154815260200160018201548152602001600282015481526020016003820160009054906101000a900473ffffffffffffffffffffffffffffffffffffffff1673ffffffffffffffffffffffffffffffffffffffff1673ffffffffffffffffffffffffffffffffffffffff1681526020016004820160009054906101000a900473ffffffffffffffffffffffffffffffffffffffff1673ffffffffffffffffffffffffffffffffffffffff1673ffffffffffffffffffffffffffffffffffffffff1681526020016005820154815260200160068201805480602002602001604051908101604052809291908181526020018280548015610e2757602002820191906000526020600020905b8160009054906101000a900473ffffffffffffffffffffffffffffffffffffffff1673ffffffffffffffffffffffffffffffffffffffff1681526020019060010190808311610ddd575b505050505081525050848681518110610e4357610e426146f4565b5b6020026020010181905250600185610e5b919061454a565b945050508080610e6a9061457e565b915050610c92565b5080935050505090565b6000600560009054906101000a900473ffffffffffffffffffffffffffffffffffffffff1673ffffffffffffffffffffffffffffffffffffffff163373ffffffffffffffffffffffffffffffffffffffff1603610f05576040517f82b4290000000000000000000000000000000000000000000000000000000000815260040160405180910390fd5b47905090565b610f13613831565b600073ffffffffffffffffffffffffffffffffffffffff168273ffffffffffffffffffffffffffffffffffffffff1603610f82576040517f08c379a0000000000000000000000000000000000000000000000000000000008152600401610f799061476f565b60405180910390fd5b3373ffffffffffffffffffffffffffffffffffffffff168273ffffffffffffffffffffffffffffffffffffffff1603610ff0576040517f08c379a0000000000000000000000000000000000000000000000000000000008152600401610fe7906147db565b60405180910390fd5b6000610ffb83610636565b905060006110093385612cb2565b905060001515600f600084815260200190815260200160002060090160009054906101000a900460ff1615150361106c576040517f2a569e3200000000000000000000000000000000000000000000000000000000815260040160405180910390fd5b8373ffffffffffffffffffffffffffffffffffffffff166011600083815260200190815260200160002060040160009054906101000a900473ffffffffffffffffffffffffffffffffffffffff1673ffffffffffffffffffffffffffffffffffffffff1603611107576040517f2b8384d200000000000000000000000000000000000000000000000000000000815260040160405180910390fd5b6000601060008673ffffffffffffffffffffffffffffffffffffffff1673ffffffffffffffffffffffffffffffffffffffff168152602001908152602001600020600601905080339080600181540180825580915050600190039060005260206000200160009091909190916101000a81548173ffffffffffffffffffffffffffffffffffffffff021916908373ffffffffffffffffffffffffffffffffffffffff160217905550600060011515600c60003373ffffffffffffffffffffffffffffffffffffffff1673ffffffffffffffffffffffffffffffffffffffff16815260200190815260200160002060050160009054906101000a900460ff1615150361125657600c60003373ffffffffffffffffffffffffffffffffffffffff1673ffffffffffffffffffffffffffffffffffffffff1681526020019081526020016000206000015490506113d5565b600160036000828254611269919061454a565b925050819055506000600354905060405180610100016040528082815260200160001515815260200160008152602001600015158152602001600081526020016001151581526020016001151581526020013373ffffffffffffffffffffffffffffffffffffffff16815250600d60008381526020019081526020016000206000820151816000015560208201518160010160006101000a81548160ff0219169083151502179055506040820151816002015560608201518160030160006101000a81548160ff0219169083151502179055506080820151816004015560a08201518160050160006101000a81548160ff02191690831515021790555060c08201518160050160016101000a81548160ff02191690831515021790555060e08201518160050160026101000a81548173ffffffffffffffffffffffffffffffffffffffff021916908373ffffffffffffffffffffffffffffffffffffffff160217905550905050809150505b6001600260008282546113e8919061454a565b92505081905550600060025490506040518060e001604052808281526020018681526020018381526020013373ffffffffffffffffffffffffffffffffffffffff1681526020018873ffffffffffffffffffffffffffffffffffffffff1681526020016114606103e88961387790919063ffffffff16565b8152602001848054806020026020016040519081016040528092919081815260200182805480156114e657602002820191906000526020600020905b8160009054906101000a900473ffffffffffffffffffffffffffffffffffffffff1673ffffffffffffffffffffffffffffffffffffffff168152602001906001019080831161149c575b50505050508152506011600083815260200190815260200160002060008201518160000155602082015181600101556040820151816002015560608201518160030160006101000a81548173ffffffffffffffffffffffffffffffffffffffff021916908373ffffffffffffffffffffffffffffffffffffffff16021790555060808201518160040160006101000a81548173ffffffffffffffffffffffffffffffffffffffff021916908373ffffffffffffffffffffffffffffffffffffffff16021790555060a0820151816005015560c08201518160060190805190602001906115d3929190613a2e565b50905050600d600086815260200190815260200160002060040160008154809291906115fe9061457e565b9190505550817fcc34840d808dc00bddd045f6bb0afe93e24930782d5c774b98c999b4b41bbf9560018033604051611638939291906147fb565b60405180910390a2807f58595059bf404f2e2bdebce84da4438e994e105fbd17755e5b5ed00f189fde878684338b8860405161167895949392919061491e565b60405180910390a2505050505061168d6138b9565b5050565b60008073ffffffffffffffffffffffffffffffffffffffff163373ffffffffffffffffffffffffffffffffffffffff1603611701576040517f08c379a00000000000000000000000000000000000000000000000000000000081526004016116f8906149c4565b60405180910390fd5b600061170c33610636565b905060001515600d600083815260200190815260200160002060050160009054906101000a900460ff1615150361176f576040517f9704dd5100000000000000000000000000000000000000000000000000000000815260040160405180910390fd5b60003373ffffffffffffffffffffffffffffffffffffffff16600f600086815260200190815260200160002060090160019054906101000a900473ffffffffffffffffffffffffffffffffffffffff1673ffffffffffffffffffffffffffffffffffffffff160361186d57600f600085815260200190815260200160002060090160009054906101000a900460ff161561186c576000600f60008681526020019081526020016000206003015490506000600f6000878152602001908152602001600020600401549050600062ed4e00905061186683611858838561387790919063ffffffff16565b61387790919063ffffffff16565b93505050505b5b8092505050919050565b60606000600154905060008060005b83811015611926578573ffffffffffffffffffffffffffffffffffffffff16600f60006001846118b6919061454a565b815260200190815260200160002060090160019054906101000a900473ffffffffffffffffffffffffffffffffffffffff1673ffffffffffffffffffffffffffffffffffffffff160361191357600183611910919061454a565b92505b808061191e9061457e565b915050611886565b5060008267ffffffffffffffff811115611943576119426146c5565b5b60405190808252806020026020018201604052801561197c57816020015b611969613ab8565b8152602001906001900390816119615790505b50905060005b83811015611b42578673ffffffffffffffffffffffffffffffffffffffff16600f60006001846119b2919061454a565b815260200190815260200160002060090160019054906101000a900473ffffffffffffffffffffffffffffffffffffffff1673ffffffffffffffffffffffffffffffffffffffff1603611b2f576000600182611a0e919061454a565b90506000600f6000838152602001908152602001600020905080604051806101600160405290816000820154815260200160018201548152602001600282015481526020016003820154815260200160048201548152602001600582015481526020016006820154815260200160078201548152602001600882015481526020016009820160009054906101000a900460ff161515151581526020016009820160019054906101000a900473ffffffffffffffffffffffffffffffffffffffff1673ffffffffffffffffffffffffffffffffffffffff1673ffffffffffffffffffffffffffffffffffffffff1681525050848681518110611b1257611b116146f4565b5b6020026020010181905250600185611b2a919061454a565b945050505b8080611b3a9061457e565b915050611982565b5080945050505050919050565b600080611b5b83612a92565b905060008151905060008167ffffffffffffffff811115611b7f57611b7e6146c5565b5b604051908082528060200260200182016040528015611bad5781602001602082028036833780820191505090505b50905060008267ffffffffffffffff811115611bcc57611bcb6146c5565b5b604051908082528060200260200182016040528015611bfa5781602001602082028036833780820191505090505b50905060008060005b85811015611d5b576000611c30888381518110611c2357611c226146f4565b5b6020026020010151612e9e565b90506000611c57898481518110611c4a57611c496146f4565b5b6020026020010151610abc565b9050600f600083815260200190815260200160002060090160009054906101000a900460ff1615611d4657600f600083815260200190815260200160002060040154878481518110611cac57611cab6146f4565b5b6020026020010181815250506011600082815260200190815260200160002060050154868481518110611ce257611ce16146f4565b5b602002602001018181525050611d35868481518110611d0457611d036146f4565b5b6020026020010151888581518110611d1f57611d1e6146f4565b5b602002602001015161387790919063ffffffff16565b93508385611d43919061454a565b94505b50508080611d539061457e565b915050611c03565b50819650505050505050919050565b600a60009054906101000a900473ffffffffffffffffffffffffffffffffffffffff1681565b60008073ffffffffffffffffffffffffffffffffffffffff163373ffffffffffffffffffffffffffffffffffffffff1603611e00576040517f08c379a0000000000000000000000000000000000000000000000000000000008152600401611df7906149c4565b60405180910390fd5b6000611e3b6103e8611e2d85611e1f888a61387790919063ffffffff16565b61387790919063ffffffff16565b6138c390919063ffffffff16565b9050611e50818661380a90919063ffffffff16565b9150509392505050565b6000600560009054906101000a900473ffffffffffffffffffffffffffffffffffffffff16905090565b600080611e9083610636565b9050600d600082815260200190815260200160002060050160019054906101000a900460ff16915050919050565b611ec6613831565b600073ffffffffffffffffffffffffffffffffffffffff16600460009054906101000a900473ffffffffffffffffffffffffffffffffffffffff1673ffffffffffffffffffffffffffffffffffffffff1603611f4e576040517f82b4290000000000000000000000000000000000000000000000000000000000815260040160405180910390fd5b60008311611f88576040517f2c5211c600000000000000000000000000000000000000000000000000000000815260040160405180910390fd5b82600a60009054906101000a900473ffffffffffffffffffffffffffffffffffffffff1673ffffffffffffffffffffffffffffffffffffffff1663dd62ed3e33306040518363ffffffff1660e01b8152600401611fe69291906149e4565b602060405180830381865afa158015612003573d6000803e3d6000fd5b505050506040513d601f19601f820116820180604052508101906120279190614a22565b1015612068576040517f08c379a000000000000000000000000000000000000000000000000000000000815260040161205f90614a9b565b60405180910390fd5b82600a60009054906101000a900473ffffffffffffffffffffffffffffffffffffffff1673ffffffffffffffffffffffffffffffffffffffff166370a08231336040518263ffffffff1660e01b81526004016120c4919061427b565b602060405180830381865afa1580156120e1573d6000803e3d6000fd5b505050506040513d601f19601f820116820180604052508101906121059190614a22565b1015612146576040517f08c379a000000000000000000000000000000000000000000000000000000000815260040161213d90614b2d565b60405180910390fd5b6001600c60003373ffffffffffffffffffffffffffffffffffffffff1673ffffffffffffffffffffffffffffffffffffffff16815260200190815260200160002060010160006101000a81548160ff02191690831515021790555060011515600c60003373ffffffffffffffffffffffffffffffffffffffff1673ffffffffffffffffffffffffffffffffffffffff16815260200190815260200160002060050160009054906101000a900460ff1615150361226a57600061220733610636565b9050600d600082815260200190815260200160002060020160008154809291906122309061457e565b91905055506001600d600083815260200190815260200160002060010160006101000a81548160ff02191690831515021790555050612529565b60016003600082825461227d919061454a565b92505081905550600060035490506000600d600083815260200190815260200160002060020160008154809291906122b49061457e565b9190505590506000600d600084815260200190815260200160002060040160008154809291906122e39061457e565b9190505590506123286040518060400160405280600b81526020017f75736572204964202b2b2b000000000000000000000000000000000000000000815250836138d9565b6123916040518060400160405280600a81526020017f726566204964202b2b2b00000000000000000000000000000000000000000000815250600d600086815260200190815260200160002060040160008154809291906123889061457e565b919050556138d9565b6040518061010001604052808481526020016001151581526020018381526020016001151581526020018281526020016001151581526020016000151581526020013373ffffffffffffffffffffffffffffffffffffffff16815250600d60008581526020019081526020016000206000820151816000015560208201518160010160006101000a81548160ff0219169083151502179055506040820151816002015560608201518160030160006101000a81548160ff0219169083151502179055506080820151816004015560a08201518160050160006101000a81548160ff02191690831515021790555060c08201518160050160016101000a81548160ff02191690831515021790555060e08201518160050160026101000a81548173ffffffffffffffffffffffffffffffffffffffff021916908373ffffffffffffffffffffffffffffffffffffffff160217905550905050827fcc34840d808dc00bddd045f6bb0afe93e24930782d5c774b98c999b4b41bbf956001803360405161251d939291906147fb565b60405180910390a25050505b61256a6040518060400160405280600881526020017f74696d65206e6f770000000000000000000000000000000000000000000000008152506009546138d9565b60006125936103e8612585848761387790919063ffffffff16565b6138c390919063ffffffff16565b905060018060008282546125a7919061454a565b925050819055506000600154905060006125ca858461387790919063ffffffff16565b905060006125e1828861380a90919063ffffffff16565b905060405180610160016040528084815260200162015180886126049190614b4d565b600954612611919061454a565b81526020018781526020016126316103e8886138c390919063ffffffff16565b81526020018881526020018881526020018581526020018381526020018281526020016001151581526020013373ffffffffffffffffffffffffffffffffffffffff16815250600f6000858152602001908152602001600020600082015181600001556020820151816001015560408201518160020155606082015181600301556080820151816004015560a0820151816005015560c0820151816006015560e0820151816007015561010082015181600801556101208201518160090160006101000a81548160ff0219169083151502179055506101408201518160090160016101000a81548173ffffffffffffffffffffffffffffffffffffffff021916908373ffffffffffffffffffffffffffffffffffffffff16021790555090505086600b60003373ffffffffffffffffffffffffffffffffffffffff1673ffffffffffffffffffffffffffffffffffffffff16815260200190815260200160002060008282546127a0919061454a565b92505081905550600a60009054906101000a900473ffffffffffffffffffffffffffffffffffffffff1673ffffffffffffffffffffffffffffffffffffffff166323b872dd33308a6040518463ffffffff1660e01b815260040161280693929190614b8f565b6020604051808303816000875af1158015612825573d6000803e3d6000fd5b505050506040513d601f19601f82011682018060405250810190612849919061461b565b50600460009054906101000a900473ffffffffffffffffffffffffffffffffffffffff1673ffffffffffffffffffffffffffffffffffffffff16837ffdd4878d9b772ea0d7a7596ed15739a94b0e8581b7d0330f58cf2101caafc763888a8887876001806040516128c09796959493929190614bc6565b60405180910390a3505050506128d46138b9565b505050565b6060600060015490506000808267ffffffffffffffff8111156128ff576128fe6146c5565b5b60405190808252806020026020018201604052801561293857816020015b612925613ab8565b81526020019060019003908161291d5790505b50905060005b83811015612a88576000600182612955919061454a565b90506000600f6000838152602001908152602001600020905080604051806101600160405290816000820154815260200160018201548152602001600282015481526020016003820154815260200160048201548152602001600582015481526020016006820154815260200160078201548152602001600882015481526020016009820160009054906101000a900460ff161515151581526020016009820160019054906101000a900473ffffffffffffffffffffffffffffffffffffffff1673ffffffffffffffffffffffffffffffffffffffff1673ffffffffffffffffffffffffffffffffffffffff1681525050848681518110612a5957612a586146f4565b5b6020026020010181905250600185612a71919061454a565b945050508080612a809061457e565b91505061293e565b5080935050505090565b60606000612a9f83610636565b905060001515600d600083815260200190815260200160002060050160009054906101000a900460ff16151503612b02576040517f9704dd5100000000000000000000000000000000000000000000000000000000815260040160405180910390fd5b600060025490506000600d600084815260200190815260200160002060040154905060008167ffffffffffffffff811115612b4057612b3f6146c5565b5b604051908082528060200260200182016040528015612b6e5781602001602082028036833780820191505090505b5090506000805b84811015612ca4578773ffffffffffffffffffffffffffffffffffffffff1660116000600184612ba5919061454a565b815260200190815260200160002060040160009054906101000a900473ffffffffffffffffffffffffffffffffffffffff1673ffffffffffffffffffffffffffffffffffffffff1603612c915760116000600183612c03919061454a565b815260200190815260200160002060030160009054906101000a900473ffffffffffffffffffffffffffffffffffffffff16838381518110612c4857612c476146f4565b5b602002602001019073ffffffffffffffffffffffffffffffffffffffff16908173ffffffffffffffffffffffffffffffffffffffff16815250508180612c8d9061457e565b9250505b8080612c9c9061457e565b915050612b75565b508195505050505050919050565b6000806002549050600073ffffffffffffffffffffffffffffffffffffffff168473ffffffffffffffffffffffffffffffffffffffff1603612d20576040517f82b4290000000000000000000000000000000000000000000000000000000000815260040160405180910390fd5b600080600090505b82811015612e58578573ffffffffffffffffffffffffffffffffffffffff1660116000600184612d58919061454a565b815260200190815260200160002060030160009054906101000a900473ffffffffffffffffffffffffffffffffffffffff1673ffffffffffffffffffffffffffffffffffffffff16148015612e1a57508473ffffffffffffffffffffffffffffffffffffffff1660116000600184612dd0919061454a565b815260200190815260200160002060040160009054906101000a900473ffffffffffffffffffffffffffffffffffffffff1673ffffffffffffffffffffffffffffffffffffffff16145b15612e455760116000600183612e30919061454a565b81526020019081526020016000206000015491505b8080612e509061457e565b915050612d28565b50809250505092915050565b600080612e7083610636565b9050600d600082815260200190815260200160002060010160009054906101000a900460ff16915050919050565b6000806001549050600073ffffffffffffffffffffffffffffffffffffffff168373ffffffffffffffffffffffffffffffffffffffff1603612f0c576040517f82b4290000000000000000000000000000000000000000000000000000000000815260040160405180910390fd5b600080600090505b82811015612fca578473ffffffffffffffffffffffffffffffffffffffff16600f6000600184612f44919061454a565b815260200190815260200160002060090160019054906101000a900473ffffffffffffffffffffffffffffffffffffffff1673ffffffffffffffffffffffffffffffffffffffff1603612fb757600f6000600183612fa2919061454a565b81526020019081526020016000206000015491505b8080612fc29061457e565b915050612f14565b508092505050919050565b600033905090565b612fe5613831565b600073ffffffffffffffffffffffffffffffffffffffff163373ffffffffffffffffffffffffffffffffffffffff1603613054576040517f08c379a000000000000000000000000000000000000000000000000000000000815260040161304b906146a5565b60405180910390fd5b600061305f33610636565b905060001515600d600083815260200190815260200160002060050160009054906101000a900460ff161515036130c2576040517f9704dd5100000000000000000000000000000000000000000000000000000000815260040160405180910390fd5b60003373ffffffffffffffffffffffffffffffffffffffff16600f600086815260200190815260200160002060090160019054906101000a900473ffffffffffffffffffffffffffffffffffffffff1673ffffffffffffffffffffffffffffffffffffffff16036135fc57600f600085815260200190815260200160002060090160009054906101000a900460ff16156135c5576000600d60008481526020019081526020016000206004015490506000600f60008781526020019081526020016000206007015490506000600f6000888152602001908152602001600020600801549050600062ed4e0090506000600f60008a815260200190815260200160002060020154905060006131e18360095461380a90919063ffffffff16565b905060006131ee8b611691565b9050600061320860646006546138c390919063ffffffff16565b90508260095411801561321c575083600954105b156132fa57818b101561325b576040517fc484027c00000000000000000000000000000000000000000000000000000000815260040160405180910390fd5b60008811156132c057600061326f33611b4f565b9050613284818961380a90919063ffffffff16565b9950613299828d61397590919063ffffffff16565b6007819055506132b46007548961397590919063ffffffff16565b600881905550506132f5565b6132d3818c61397590919063ffffffff16565b6007819055506132ee6007548861397590919063ffffffff16565b6008819055505b6134b9565b8360095411156134b857858b111561333e576040517f8f8d8a0400000000000000000000000000000000000000000000000000000000815260040160405180910390fd5b858b10156133e55760008811156133ab57600061335a33611b4f565b905061336f818961380a90919063ffffffff16565b9950613384828d61397590919063ffffffff16565b60078190555061339f6007548961397590919063ffffffff16565b600881905550506133e0565b6133be818c61397590919063ffffffff16565b6007819055506133d96007548861397590919063ffffffff16565b6008819055505b6134b7565b858b036134b657600088111561345157600061340033611b4f565b9050613415818961380a90919063ffffffff16565b995061342a828d61397590919063ffffffff16565b6007819055506134456007548961397590919063ffffffff16565b60088190555050613486565b613464818c61397590919063ffffffff16565b60078190555061347f6007548861397590919063ffffffff16565b6008819055505b6000600f60008e815260200190815260200160002060090160006101000a81548160ff0219169083151502179055505b5b5b5b600a60009054906101000a900473ffffffffffffffffffffffffffffffffffffffff1673ffffffffffffffffffffffffffffffffffffffff1663a9059cbb336007546040518363ffffffff1660e01b81526004016135189291906145c6565b6020604051808303816000875af1158015613537573d6000803e3d6000fd5b505050506040513d601f19601f8201168201806040525081019061355b919061461b565b503373ffffffffffffffffffffffffffffffffffffffff167f07c6ad283077d6ee6fcc0437bd7d91669f44b7b8c1049f8a6c7b210cf26054c56007546009546007546008546040516135b09493929190614c35565b60405180910390a250505050505050506135f7565b6040517f4291d53300000000000000000000000000000000000000000000000000000000815260040160405180910390fd5b61362e565b6040517f82b4290000000000000000000000000000000000000000000000000000000000815260040160405180910390fd5b50506136386138b9565b5050565b6060600060035490506000808267ffffffffffffffff811115613662576136616146c5565b5b60405190808252806020026020018201604052801561369b57816020015b613688613b2a565b8152602001906001900390816136805790505b50905060005b838110156138005760006001826136b8919061454a565b90506000600d600083815260200190815260200160002090508060405180610100016040529081600082015481526020016001820160009054906101000a900460ff16151515158152602001600282015481526020016003820160009054906101000a900460ff16151515158152602001600482015481526020016005820160009054906101000a900460ff161515151581526020016005820160019054906101000a900460ff161515151581526020016005820160029054906101000a900473ffffffffffffffffffffffffffffffffffffffff1673ffffffffffffffffffffffffffffffffffffffff1673ffffffffffffffffffffffffffffffffffffffff16815250508486815181106137d1576137d06146f4565b5b60200260200101819052506001856137e9919061454a565b9450505080806137f89061457e565b9150506136a1565b5080935050505090565b60008183613818919061454a565b90508281101561382b5761382a614c7a565b5b92915050565b60026000540361386d576040517f3ee5aeb500000000000000000000000000000000000000000000000000000000815260040160405180910390fd5b6002600081905550565b600080830361388957600090506138b3565b81836138959190614b4d565b90508183826138a49190614cd8565b146138b2576138b1614c7a565b5b5b92915050565b6001600081905550565b600081836138d19190614cd8565b905092915050565b61397182826040516024016138ef929190614d88565b6040516020818303038152906040527fb60e72cc000000000000000000000000000000000000000000000000000000007bffffffffffffffffffffffffffffffffffffffffffffffffffffffff19166020820180517bffffffffffffffffffffffffffffffffffffffffffffffffffffffff838183161783525050505061399c565b5050565b60008282111561398857613987614c7a565b5b81836139949190614db8565b905092915050565b60008151905060006a636f6e736f6c652e6c6f679050602083016000808483855afa5050505050565b6040518060e00160405280600081526020016000815260200160008152602001600073ffffffffffffffffffffffffffffffffffffffff168152602001600073ffffffffffffffffffffffffffffffffffffffff16815260200160008152602001606081525090565b828054828255906000526020600020908101928215613aa7579160200282015b82811115613aa65782518260006101000a81548173ffffffffffffffffffffffffffffffffffffffff021916908373ffffffffffffffffffffffffffffffffffffffff16021790555091602001919060010190613a4e565b5b509050613ab49190613b8d565b5090565b604051806101600160405280600081526020016000815260200160008152602001600081526020016000815260200160008152602001600081526020016000815260200160008152602001600015158152602001600073ffffffffffffffffffffffffffffffffffffffff1681525090565b604051806101000160405280600081526020016000151581526020016000815260200160001515815260200160008152602001600015158152602001600015158152602001600073ffffffffffffffffffffffffffffffffffffffff1681525090565b5b80821115613ba6576000816000905550600101613b8e565b5090565b6000819050919050565b613bbd81613baa565b82525050565b6000602082019050613bd86000830184613bb4565b92915050565b600080fd5b600073ffffffffffffffffffffffffffffffffffffffff82169050919050565b6000613c0e82613be3565b9050919050565b613c1e81613c03565b8114613c2957600080fd5b50565b600081359050613c3b81613c15565b92915050565b600060208284031215613c5757613c56613bde565b5b6000613c6584828501613c2c565b91505092915050565b613c7781613baa565b8114613c8257600080fd5b50565b600081359050613c9481613c6e565b92915050565b600080600060608486031215613cb357613cb2613bde565b5b6000613cc186828701613c2c565b9350506020613cd286828701613c2c565b9250506040613ce386828701613c85565b9150509250925092565b600060208284031215613d0357613d02613bde565b5b6000613d1184828501613c85565b91505092915050565b60008115159050919050565b613d2f81613d1a565b82525050565b6000602082019050613d4a6000830184613d26565b92915050565b600081519050919050565b600082825260208201905092915050565b6000819050602082019050919050565b613d8581613baa565b82525050565b613d9481613c03565b82525050565b600081519050919050565b600082825260208201905092915050565b6000819050602082019050919050565b6000613dd28383613d8b565b60208301905092915050565b6000602082019050919050565b6000613df682613d9a565b613e008185613da5565b9350613e0b83613db6565b8060005b83811015613e3c578151613e238882613dc6565b9750613e2e83613dde565b925050600181019050613e0f565b5085935050505092915050565b600060e083016000830151613e616000860182613d7c565b506020830151613e746020860182613d7c565b506040830151613e876040860182613d7c565b506060830151613e9a6060860182613d8b565b506080830151613ead6080860182613d8b565b5060a0830151613ec060a0860182613d7c565b5060c083015184820360c0860152613ed88282613deb565b9150508091505092915050565b6000613ef18383613e49565b905092915050565b6000602082019050919050565b6000613f1182613d50565b613f1b8185613d5b565b935083602082028501613f2d85613d6c565b8060005b85811015613f695784840389528151613f4a8582613ee5565b9450613f5583613ef9565b925060208a01995050600181019050613f31565b50829750879550505050505092915050565b60006020820190508181036000830152613f958184613f06565b905092915050565b60008060408385031215613fb457613fb3613bde565b5b6000613fc285828601613c2c565b9250506020613fd385828601613c85565b9150509250929050565b600081519050919050565b600082825260208201905092915050565b6000819050602082019050919050565b61401281613d1a565b82525050565b6101608201600082015161402f6000850182613d7c565b5060208201516140426020850182613d7c565b5060408201516140556040850182613d7c565b5060608201516140686060850182613d7c565b50608082015161407b6080850182613d7c565b5060a082015161408e60a0850182613d7c565b5060c08201516140a160c0850182613d7c565b5060e08201516140b460e0850182613d7c565b506101008201516140c9610100850182613d7c565b506101208201516140de610120850182614009565b506101408201516140f3610140850182613d8b565b50505050565b60006141058383614018565b6101608301905092915050565b6000602082019050919050565b600061412a82613fdd565b6141348185613fe8565b935061413f83613ff9565b8060005b8381101561417057815161415788826140f9565b975061416283614112565b925050600181019050614143565b5085935050505092915050565b60006020820190508181036000830152614197818461411f565b905092915050565b6000819050919050565b60006141c46141bf6141ba84613be3565b61419f565b613be3565b9050919050565b60006141d6826141a9565b9050919050565b60006141e8826141cb565b9050919050565b6141f8816141dd565b82525050565b600060208201905061421360008301846141ef565b92915050565b60008060006060848603121561423257614231613bde565b5b600061424086828701613c85565b935050602061425186828701613c85565b925050604061426286828701613c85565b9150509250925092565b61427581613c03565b82525050565b6000602082019050614290600083018461426c565b92915050565b600082825260208201905092915050565b60006142b282613d9a565b6142bc8185614296565b93506142c783613db6565b8060005b838110156142f85781516142df8882613dc6565b97506142ea83613dde565b9250506001810190506142cb565b5085935050505092915050565b6000602082019050818103600083015261431f81846142a7565b905092915050565b6000806040838503121561433e5761433d613bde565b5b600061434c85828601613c2c565b925050602061435d85828601613c2c565b9150509250929050565b6000806040838503121561437e5761437d613bde565b5b600061438c85828601613c85565b925050602061439d85828601613c85565b9150509250929050565b600081519050919050565b600082825260208201905092915050565b6000819050602082019050919050565b610100820160008201516143ea6000850182613d7c565b5060208201516143fd6020850182614009565b5060408201516144106040850182613d7c565b5060608201516144236060850182614009565b5060808201516144366080850182613d7c565b5060a082015161444960a0850182614009565b5060c082015161445c60c0850182614009565b5060e082015161446f60e0850182613d8b565b50505050565b600061448183836143d3565b6101008301905092915050565b6000602082019050919050565b60006144a6826143a7565b6144b081856143b2565b93506144bb836143c3565b8060005b838110156144ec5781516144d38882614475565b97506144de8361448e565b9250506001810190506144bf565b5085935050505092915050565b60006020820190508181036000830152614513818461449b565b905092915050565b7f4e487b7100000000000000000000000000000000000000000000000000000000600052601160045260246000fd5b600061455582613baa565b915061456083613baa565b92508282019050808211156145785761457761451b565b5b92915050565b600061458982613baa565b91507fffffffffffffffffffffffffffffffffffffffffffffffffffffffffffffffff82036145bb576145ba61451b565b5b600182019050919050565b60006040820190506145db600083018561426c565b6145e86020830184613bb4565b9392505050565b6145f881613d1a565b811461460357600080fd5b50565b600081519050614615816145ef565b92915050565b60006020828403121561463157614630613bde565b5b600061463f84828501614606565b91505092915050565b600082825260208201905092915050565b7f5a65726f2061646472657373657320617265206e6f7420616363657074656400600082015250565b600061468f601f83614648565b915061469a82614659565b602082019050919050565b600060208201905081810360008301526146be81614682565b9050919050565b7f4e487b7100000000000000000000000000000000000000000000000000000000600052604160045260246000fd5b7f4e487b7100000000000000000000000000000000000000000000000000000000600052603260045260246000fd5b7f53706f6e736f722063616e6e6f742062652061207a65726f2061646472657373600082015250565b6000614759602083614648565b915061476482614723565b602082019050919050565b600060208201905081810360008301526147888161474c565b9050919050565b7f596f752063616e6e6f7420726566657220796f757273656c6600000000000000600082015250565b60006147c5601983614648565b91506147d08261478f565b602082019050919050565b600060208201905081810360008301526147f4816147b8565b9050919050565b60006060820190506148106000830186613d26565b61481d6020830185613d26565b61482a604083018461426c565b949350505050565b600081549050919050565b60008190508160005260206000209050919050565b60008160001c9050919050565b600073ffffffffffffffffffffffffffffffffffffffff82169050919050565b600061489261488d83614852565b61485f565b9050919050565b60006148a5825461487f565b9050919050565b6000600182019050919050565b60006148c482614832565b6148ce8185614296565b93506148d98361483d565b8060005b83811015614911576148ee82614899565b6148f88882613dc6565b9750614903836148ac565b9250506001810190506148dd565b5085935050505092915050565b600060a0820190506149336000830188613bb4565b6149406020830187613bb4565b61494d604083018661426c565b61495a606083018561426c565b818103608083015261496c81846148b9565b90509695505050505050565b7f496e76616c696420616464726573730000000000000000000000000000000000600082015250565b60006149ae600f83614648565b91506149b982614978565b602082019050919050565b600060208201905081810360008301526149dd816149a1565b9050919050565b60006040820190506149f9600083018561426c565b614a06602083018461426c565b9392505050565b600081519050614a1c81613c6e565b92915050565b600060208284031215614a3857614a37613bde565b5b6000614a4684828501614a0d565b91505092915050565b7f546f6b656e207472616e73666572206e6f7420617070726f7665640000000000600082015250565b6000614a85601b83614648565b9150614a9082614a4f565b602082019050919050565b60006020820190508181036000830152614ab481614a78565b9050919050565b7f496e73756666696369656e742046696661526577617264546f6b656e2062616c60008201527f616e636500000000000000000000000000000000000000000000000000000000602082015250565b6000614b17602483614648565b9150614b2282614abb565b604082019050919050565b60006020820190508181036000830152614b4681614b0a565b9050919050565b6000614b5882613baa565b9150614b6383613baa565b9250828202614b7181613baa565b91508282048414831517614b8857614b8761451b565b5b5092915050565b6000606082019050614ba4600083018661426c565b614bb1602083018561426c565b614bbe6040830184613bb4565b949350505050565b600060e082019050614bdb600083018a613bb4565b614be86020830189613bb4565b614bf56040830188613bb4565b614c026060830187613bb4565b614c0f6080830186613bb4565b614c1c60a0830185613d26565b614c2960c0830184613d26565b98975050505050505050565b6000608082019050614c4a6000830187613bb4565b614c576020830186613bb4565b614c646040830185613bb4565b614c716060830184613bb4565b95945050505050565b7f4e487b7100000000000000000000000000000000000000000000000000000000600052600160045260246000fd5b7f4e487b7100000000000000000000000000000000000000000000000000000000600052601260045260246000fd5b6000614ce382613baa565b9150614cee83613baa565b925082614cfe57614cfd614ca9565b5b828204905092915050565b600081519050919050565b60005b83811015614d32578082015181840152602081019050614d17565b60008484015250505050565b6000601f19601f8301169050919050565b6000614d5a82614d09565b614d648185614648565b9350614d74818560208601614d14565b614d7d81614d3e565b840191505092915050565b60006040820190508181036000830152614da28185614d4f565b9050614db16020830184613bb4565b9392505050565b6000614dc382613baa565b9150614dce83613baa565b9250828203905081811115614de657614de561451b565b5b9291505056fea264697066735822122022e0a9eb05ecadacfde98d54f0355c6cbfae12be40ab1d4109e2efce0159d92964736f6c63430008140033",
  "linkReferences": {},
  "deployedLinkReferences": {}
}